{
	"contracts/39_Receive.sol": {
		"Receive": {
			"abi": [
				{
					"inputs": [],
					"name": "sendEther",
					"outputs": [],
					"stateMutability": "payable",
					"type": "function"
				},
				{
					"stateMutability": "payable",
					"type": "receive"
				}
			],
			"devdoc": {
				"kind": "dev",
				"methods": {},
				"version": 1
			},
			"evm": {
				"assembly": "    /* \"contracts/39_Receive.sol\":74:204  contract Receive{... */\n  mstore(0x40, 0x80)\n  callvalue\n  dup1\n  iszero\n  tag_1\n  jumpi\n  0x00\n  dup1\n  revert\ntag_1:\n  pop\n  dataSize(sub_0)\n  dup1\n  dataOffset(sub_0)\n  0x00\n  codecopy\n  0x00\n  return\nstop\n\nsub_0: assembly {\n        /* \"contracts/39_Receive.sol\":74:204  contract Receive{... */\n      mstore(0x40, 0x80)\n      jumpi(tag_1, lt(calldatasize, 0x04))\n      shr(0xe0, calldataload(0x00))\n      dup1\n      0x0e29df22\n      eq\n      tag_3\n      jumpi\n      jump(tag_2)\n    tag_1:\n      jumpi(tag_2, calldatasize)\n      stop\n    tag_2:\n      0x00\n      dup1\n      revert\n        /* \"contracts/39_Receive.sol\":97:151  function sendEther() public payable{... */\n    tag_3:\n      tag_6\n      tag_7\n      jump\t// in\n    tag_6:\n      stop\n    tag_7:\n      jump\t// out\n\n    auxdata: 0xa26469706673582212201ac080451adeba9ec59c8b4267f722ff391a26b75dfeda15fcbc19ff0e8e3e0b64736f6c634300081a0033\n}\n",
				"bytecode": {
					"linkReferences": {},
					"object": "6080604052348015600e575f80fd5b50606880601a5f395ff3fe608060405260043610601e575f3560e01c80630e29df22146028576024565b36602457005b5f80fd5b602e6030565b005b56fea26469706673582212201ac080451adeba9ec59c8b4267f722ff391a26b75dfeda15fcbc19ff0e8e3e0b64736f6c634300081a0033",
					"opcodes": "PUSH1 0x80 PUSH1 0x40 MSTORE CALLVALUE DUP1 ISZERO PUSH1 0xE JUMPI PUSH0 DUP1 REVERT JUMPDEST POP PUSH1 0x68 DUP1 PUSH1 0x1A PUSH0 CODECOPY PUSH0 RETURN INVALID PUSH1 0x80 PUSH1 0x40 MSTORE PUSH1 0x4 CALLDATASIZE LT PUSH1 0x1E JUMPI PUSH0 CALLDATALOAD PUSH1 0xE0 SHR DUP1 PUSH4 0xE29DF22 EQ PUSH1 0x28 JUMPI PUSH1 0x24 JUMP JUMPDEST CALLDATASIZE PUSH1 0x24 JUMPI STOP JUMPDEST PUSH0 DUP1 REVERT JUMPDEST PUSH1 0x2E PUSH1 0x30 JUMP JUMPDEST STOP JUMPDEST JUMP INVALID LOG2 PUSH5 0x6970667358 0x22 SLT KECCAK256 BYTE 0xC0 DUP1 GASLIMIT BYTE 0xDE 0xBA SWAP15 0xC5 SWAP13 DUP12 TIMESTAMP PUSH8 0xF722FF391A26B75D INVALID 0xDA ISZERO 0xFC 0xBC NOT SELFDESTRUCT 0xE DUP15 RETURNDATACOPY SIGNEXTEND PUSH5 0x736F6C6343 STOP ADDMOD BYTE STOP CALLER "
				},
				"gasEstimates": {
					"creation": {
						"codeDepositCost": "20800",
						"executionCost": "73",
						"totalCost": "20873"
					},
					"external": {
						"sendEther()": "97"
					}
				},
				"methodIdentifiers": {
					"sendEther()": "0e29df22"
				}
			},
			"storageLayout": {
				"storage": [],
				"types": null
			},
			"userdoc": {
				"kind": "user",
				"methods": {},
				"version": 1
			}
		}
	}
}