{
	"contracts/Voting.sol": {
		"Vote": {
			"abi": [
				{
					"inputs": [],
					"stateMutability": "nonpayable",
					"type": "constructor"
				},
				{
					"inputs": [],
					"name": "candidateList",
					"outputs": [
						{
							"components": [
								{
									"internalType": "string",
									"name": "name",
									"type": "string"
								},
								{
									"internalType": "string",
									"name": "party",
									"type": "string"
								},
								{
									"internalType": "uint256",
									"name": "age",
									"type": "uint256"
								},
								{
									"internalType": "string",
									"name": "gender",
									"type": "string"
								},
								{
									"internalType": "uint256",
									"name": "candidateId",
									"type": "uint256"
								},
								{
									"internalType": "address",
									"name": "candidateAddress",
									"type": "address"
								},
								{
									"internalType": "uint256",
									"name": "votes",
									"type": "uint256"
								}
							],
							"internalType": "struct Vote.Candidate[]",
							"name": "",
							"type": "tuple[]"
						}
					],
					"stateMutability": "view",
					"type": "function"
				},
				{
					"inputs": [
						{
							"internalType": "string",
							"name": "_name",
							"type": "string"
						},
						{
							"internalType": "string",
							"name": "_party",
							"type": "string"
						},
						{
							"internalType": "uint256",
							"name": "_age",
							"type": "uint256"
						},
						{
							"internalType": "string",
							"name": "_gender",
							"type": "string"
						}
					],
					"name": "candidateRegister",
					"outputs": [],
					"stateMutability": "nonpayable",
					"type": "function"
				},
				{
					"inputs": [],
					"name": "emergency",
					"outputs": [],
					"stateMutability": "nonpayable",
					"type": "function"
				},
				{
					"inputs": [],
					"name": "result",
					"outputs": [],
					"stateMutability": "nonpayable",
					"type": "function"
				},
				{
					"inputs": [
						{
							"internalType": "uint256",
							"name": "_voterId",
							"type": "uint256"
						},
						{
							"internalType": "uint256",
							"name": "_candidateId",
							"type": "uint256"
						}
					],
					"name": "vote",
					"outputs": [],
					"stateMutability": "nonpayable",
					"type": "function"
				},
				{
					"inputs": [
						{
							"internalType": "uint256",
							"name": "_startTime",
							"type": "uint256"
						},
						{
							"internalType": "uint256",
							"name": "duration",
							"type": "uint256"
						}
					],
					"name": "voteTime",
					"outputs": [],
					"stateMutability": "nonpayable",
					"type": "function"
				},
				{
					"inputs": [],
					"name": "voterList",
					"outputs": [
						{
							"components": [
								{
									"internalType": "string",
									"name": "name",
									"type": "string"
								},
								{
									"internalType": "uint256",
									"name": "age",
									"type": "uint256"
								},
								{
									"internalType": "uint256",
									"name": "voterId",
									"type": "uint256"
								},
								{
									"internalType": "string",
									"name": "gender",
									"type": "string"
								},
								{
									"internalType": "uint256",
									"name": "voteCandidateId",
									"type": "uint256"
								},
								{
									"internalType": "address",
									"name": "voterAddress",
									"type": "address"
								}
							],
							"internalType": "struct Vote.Voter[]",
							"name": "",
							"type": "tuple[]"
						}
					],
					"stateMutability": "view",
					"type": "function"
				},
				{
					"inputs": [
						{
							"internalType": "string",
							"name": "_name",
							"type": "string"
						},
						{
							"internalType": "uint256",
							"name": "_age",
							"type": "uint256"
						},
						{
							"internalType": "string",
							"name": "_gender",
							"type": "string"
						}
					],
					"name": "voterRegister",
					"outputs": [],
					"stateMutability": "nonpayable",
					"type": "function"
				},
				{
					"inputs": [],
					"name": "votingStatus",
					"outputs": [
						{
							"internalType": "string",
							"name": "",
							"type": "string"
						}
					],
					"stateMutability": "view",
					"type": "function"
				},
				{
					"inputs": [],
					"name": "winner",
					"outputs": [
						{
							"internalType": "address",
							"name": "",
							"type": "address"
						}
					],
					"stateMutability": "view",
					"type": "function"
				}
			],
			"devdoc": {
				"kind": "dev",
				"methods": {},
				"version": 1
			},
			"evm": {
				"assembly": "    /* \"contracts/Voting.sol\":73:5323  contract Vote{... */\n  mstore(0x40, 0x80)\n    /* \"contracts/Voting.sol\":621:622  1 */\n  0x01\n    /* \"contracts/Voting.sol\":604:622  uint nextVoterId=1 */\n  0x02\n  sstore\n    /* \"contracts/Voting.sol\":671:672  1 */\n  0x01\n    /* \"contracts/Voting.sol\":650:672  uint nextCandidateId=1 */\n  0x03\n  sstore\n    /* \"contracts/Voting.sol\":1009:1068  constructor(){... */\n  callvalue\n  dup1\n  iszero\n  tag_1\n  jumpi\n  0x00\n  dup1\n  revert\ntag_1:\n  pop\n    /* \"contracts/Voting.sol\":1050:1060  msg.sender */\n  caller\n    /* \"contracts/Voting.sol\":1032:1049  electionCommision */\n  0x00\n  dup1\n    /* \"contracts/Voting.sol\":1032:1060  electionCommision=msg.sender */\n  0x0100\n  exp\n  dup2\n  sload\n  dup2\n  0xffffffffffffffffffffffffffffffffffffffff\n  mul\n  not\n  and\n  swap1\n  dup4\n  0xffffffffffffffffffffffffffffffffffffffff\n  and\n  mul\n  or\n  swap1\n  sstore\n  pop\n    /* \"contracts/Voting.sol\":73:5323  contract Vote{... */\n  dataSize(sub_0)\n  dup1\n  dataOffset(sub_0)\n  0x00\n  codecopy\n  0x00\n  return\nstop\n\nsub_0: assembly {\n        /* \"contracts/Voting.sol\":73:5323  contract Vote{... */\n      mstore(0x40, 0x80)\n      callvalue\n      dup1\n      iszero\n      tag_1\n      jumpi\n      0x00\n      dup1\n      revert\n    tag_1:\n      pop\n      jumpi(tag_2, lt(calldatasize, 0x04))\n      shr(0xe0, calldataload(0x00))\n      dup1\n      0x93e5fed2\n      gt\n      tag_13\n      jumpi\n      dup1\n      0x93e5fed2\n      eq\n      tag_8\n      jumpi\n      dup1\n      0xb384abef\n      eq\n      tag_9\n      jumpi\n      dup1\n      0xcaa6fea4\n      eq\n      tag_10\n      jumpi\n      dup1\n      0xcf5ce2e7\n      eq\n      tag_11\n      jumpi\n      dup1\n      0xdfbf53ae\n      eq\n      tag_12\n      jumpi\n      jump(tag_2)\n    tag_13:\n      dup1\n      0x19f41a40\n      eq\n      tag_3\n      jumpi\n      dup1\n      0x24089918\n      eq\n      tag_4\n      jumpi\n      dup1\n      0x498ea441\n      eq\n      tag_5\n      jumpi\n      dup1\n      0x65372147\n      eq\n      tag_6\n      jumpi\n      dup1\n      0x65ca2be3\n      eq\n      tag_7\n      jumpi\n    tag_2:\n      0x00\n      dup1\n      revert\n        /* \"contracts/Voting.sol\":4560:4854  function votingStatus() public view returns(string memory){... */\n    tag_3:\n      tag_14\n      tag_15\n      jump\t// in\n    tag_14:\n      mload(0x40)\n      tag_16\n      swap2\n      swap1\n      tag_17\n      jump\t// in\n    tag_16:\n      mload(0x40)\n      dup1\n      swap2\n      sub\n      swap1\n      return\n        /* \"contracts/Voting.sol\":3320:3568  function voterList() public view returns(Voter[] memory){... */\n    tag_4:\n      tag_18\n      tag_19\n      jump\t// in\n    tag_18:\n      mload(0x40)\n      tag_20\n      swap2\n      swap1\n      tag_21\n      jump\t// in\n    tag_20:\n      mload(0x40)\n      dup1\n      swap2\n      sub\n      swap1\n      return\n        /* \"contracts/Voting.sol\":2253:2582  function candidateList() public view returns(Candidate[] memory){... */\n    tag_5:\n      tag_22\n      tag_23\n      jump\t// in\n    tag_22:\n      mload(0x40)\n      tag_24\n      swap2\n      swap1\n      tag_25\n      jump\t// in\n    tag_24:\n      mload(0x40)\n      dup1\n      swap2\n      sub\n      swap1\n      return\n        /* \"contracts/Voting.sol\":4862:5232  function result() external onlyCommissioner(){... */\n    tag_6:\n      tag_26\n      tag_27\n      jump\t// in\n    tag_26:\n      stop\n        /* \"contracts/Voting.sol\":4387:4552  function voteTime(uint _startTime,uint duration) external onlyCommissioner(){... */\n    tag_7:\n      tag_28\n      0x04\n      dup1\n      calldatasize\n      sub\n      dup2\n      add\n      swap1\n      tag_29\n      swap2\n      swap1\n      tag_30\n      jump\t// in\n    tag_29:\n      tag_31\n      jump\t// in\n    tag_28:\n      stop\n        /* \"contracts/Voting.sol\":2590:3066  function voterRegister(string calldata _name,uint _age,string calldata _gender) public{... */\n    tag_8:\n      tag_32\n      0x04\n      dup1\n      calldatasize\n      sub\n      dup2\n      add\n      swap1\n      tag_33\n      swap2\n      swap1\n      tag_34\n      jump\t// in\n    tag_33:\n      tag_35\n      jump\t// in\n    tag_32:\n      stop\n        /* \"contracts/Voting.sol\":3576:4378  function vote(uint _voterId,uint _candidateId) external isVotingOver(){... */\n    tag_9:\n      tag_36\n      0x04\n      dup1\n      calldatasize\n      sub\n      dup2\n      add\n      swap1\n      tag_37\n      swap2\n      swap1\n      tag_30\n      jump\t// in\n    tag_37:\n      tag_38\n      jump\t// in\n    tag_36:\n      stop\n        /* \"contracts/Voting.sol\":5240:5320  function emergency() public onlyCommissioner(){... */\n    tag_10:\n      tag_39\n      tag_40\n      jump\t// in\n    tag_39:\n      stop\n        /* \"contracts/Voting.sol\":1350:1981  function candidateRegister(string calldata _name,string calldata _party,uint _age,... */\n    tag_11:\n      tag_41\n      0x04\n      dup1\n      calldatasize\n      sub\n      dup2\n      add\n      swap1\n      tag_42\n      swap2\n      swap1\n      tag_43\n      jump\t// in\n    tag_42:\n      tag_44\n      jump\t// in\n    tag_41:\n      stop\n        /* \"contracts/Voting.sol\":574:595  address public winner */\n    tag_12:\n      tag_45\n      tag_46\n      jump\t// in\n    tag_45:\n      mload(0x40)\n      tag_47\n      swap2\n      swap1\n      tag_48\n      jump\t// in\n    tag_47:\n      mload(0x40)\n      dup1\n      swap2\n      sub\n      swap1\n      return\n        /* \"contracts/Voting.sol\":4560:4854  function votingStatus() public view returns(string memory){... */\n    tag_15:\n        /* \"contracts/Voting.sol\":4604:4617  string memory */\n      0x60\n        /* \"contracts/Voting.sol\":4643:4644  0 */\n      0x00\n        /* \"contracts/Voting.sol\":4632:4641  startTime */\n      sload(0x04)\n        /* \"contracts/Voting.sol\":4632:4644  startTime==0 */\n      sub\n        /* \"contracts/Voting.sol\":4629:4846  if(startTime==0)... */\n      tag_50\n      jumpi\n        /* \"contracts/Voting.sol\":4658:4689  return \"Voting has not started\" */\n      mload(0x40)\n      dup1\n      0x40\n      add\n      0x40\n      mstore\n      dup1\n      0x16\n      dup2\n      mstore\n      0x20\n      add\n      0x566f74696e6720686173206e6f74207374617274656400000000000000000000\n      dup2\n      mstore\n      pop\n      swap1\n      pop\n      jump(tag_49)\n        /* \"contracts/Voting.sol\":4629:4846  if(startTime==0)... */\n    tag_50:\n        /* \"contracts/Voting.sol\":4724:4731  endTime */\n      sload(0x05)\n        /* \"contracts/Voting.sol\":4708:4723  block.timestamp */\n      timestamp\n        /* \"contracts/Voting.sol\":4708:4731  block.timestamp<endTime */\n      lt\n        /* \"contracts/Voting.sol\":4708:4752  block.timestamp<endTime && stopVoting==false */\n      dup1\n      iszero\n      tag_52\n      jumpi\n      pop\n        /* \"contracts/Voting.sol\":4747:4752  false */\n      0x00\n        /* \"contracts/Voting.sol\":4735:4752  stopVoting==false */\n      iszero\n      iszero\n        /* \"contracts/Voting.sol\":4735:4745  stopVoting */\n      0x08\n      0x00\n      swap1\n      sload\n      swap1\n      0x0100\n      exp\n      swap1\n      div\n      0xff\n      and\n        /* \"contracts/Voting.sol\":4735:4752  stopVoting==false */\n      iszero\n      iszero\n      eq\n        /* \"contracts/Voting.sol\":4708:4752  block.timestamp<endTime && stopVoting==false */\n    tag_52:\n        /* \"contracts/Voting.sol\":4705:4846  if(block.timestamp<endTime && stopVoting==false)... */\n      iszero\n      tag_53\n      jumpi\n        /* \"contracts/Voting.sol\":4766:4793  return \"Voting in progress\" */\n      mload(0x40)\n      dup1\n      0x40\n      add\n      0x40\n      mstore\n      dup1\n      0x12\n      dup2\n      mstore\n      0x20\n      add\n      0x566f74696e6720696e2070726f67726573730000000000000000000000000000\n      dup2\n      mstore\n      pop\n      swap1\n      pop\n      jump(tag_49)\n        /* \"contracts/Voting.sol\":4705:4846  if(block.timestamp<endTime && stopVoting==false)... */\n    tag_53:\n        /* \"contracts/Voting.sol\":4821:4846  return \"Voting has ended\" */\n      mload(0x40)\n      dup1\n      0x40\n      add\n      0x40\n      mstore\n      dup1\n      0x10\n      dup2\n      mstore\n      0x20\n      add\n      0x566f74696e672068617320656e64656400000000000000000000000000000000\n      dup2\n      mstore\n      pop\n      swap1\n      pop\n        /* \"contracts/Voting.sol\":4560:4854  function votingStatus() public view returns(string memory){... */\n    tag_49:\n      swap1\n      jump\t// out\n        /* \"contracts/Voting.sol\":3320:3568  function voterList() public view returns(Voter[] memory){... */\n    tag_19:\n        /* \"contracts/Voting.sol\":3361:3375  Voter[] memory */\n      0x60\n        /* \"contracts/Voting.sol\":3387:3410  Voter[] memory voterArr */\n      0x00\n        /* \"contracts/Voting.sol\":3435:3436  1 */\n      0x01\n        /* \"contracts/Voting.sol\":3423:3434  nextVoterId */\n      sload(0x02)\n        /* \"contracts/Voting.sol\":3423:3436  nextVoterId-1 */\n      tag_56\n      swap2\n      swap1\n      tag_57\n      jump\t// in\n    tag_56:\n        /* \"contracts/Voting.sol\":3411:3437  new Voter[](nextVoterId-1) */\n      0xffffffffffffffff\n      dup2\n      gt\n      iszero\n      tag_58\n      jumpi\n      tag_59\n      tag_60\n      jump\t// in\n    tag_59:\n    tag_58:\n      mload(0x40)\n      swap1\n      dup1\n      dup3\n      mstore\n      dup1\n      0x20\n      mul\n      0x20\n      add\n      dup3\n      add\n      0x40\n      mstore\n      dup1\n      iszero\n      tag_61\n      jumpi\n      dup2\n      0x20\n      add\n    tag_62:\n      tag_63\n      tag_64\n      jump\t// in\n    tag_63:\n      dup2\n      mstore\n      0x20\n      add\n      swap1\n      0x01\n      swap1\n      sub\n      swap1\n      dup2\n      tag_62\n      jumpi\n      swap1\n      pop\n    tag_61:\n      pop\n        /* \"contracts/Voting.sol\":3387:3437  Voter[] memory voterArr=new Voter[](nextVoterId-1) */\n      swap1\n      pop\n        /* \"contracts/Voting.sol\":3452:3458  uint i */\n      0x00\n        /* \"contracts/Voting.sol\":3459:3460  1 */\n      0x01\n        /* \"contracts/Voting.sol\":3452:3460  uint i=1 */\n      swap1\n      pop\n        /* \"contracts/Voting.sol\":3448:3535  for(uint i=1;i<nextVoterId;i++){... */\n    tag_65:\n        /* \"contracts/Voting.sol\":3463:3474  nextVoterId */\n      sload(0x02)\n        /* \"contracts/Voting.sol\":3461:3462  i */\n      dup2\n        /* \"contracts/Voting.sol\":3461:3474  i<nextVoterId */\n      lt\n        /* \"contracts/Voting.sol\":3448:3535  for(uint i=1;i<nextVoterId;i++){... */\n      iszero\n      tag_66\n      jumpi\n        /* \"contracts/Voting.sol\":3508:3520  voterDetails */\n      0x06\n        /* \"contracts/Voting.sol\":3508:3523  voterDetails[i] */\n      0x00\n        /* \"contracts/Voting.sol\":3521:3522  i */\n      dup3\n        /* \"contracts/Voting.sol\":3508:3523  voterDetails[i] */\n      dup2\n      mstore\n      0x20\n      add\n      swap1\n      dup2\n      mstore\n      0x20\n      add\n      0x00\n      keccak256\n        /* \"contracts/Voting.sol\":3494:3523  voterArr[i-1]=voterDetails[i] */\n      mload(0x40)\n      dup1\n      0xc0\n      add\n      0x40\n      mstore\n      swap1\n      dup2\n      0x00\n      dup3\n      add\n      dup1\n      sload\n      tag_68\n      swap1\n      tag_69\n      jump\t// in\n    tag_68:\n      dup1\n      0x1f\n      add\n      0x20\n      dup1\n      swap2\n      div\n      mul\n      0x20\n      add\n      mload(0x40)\n      swap1\n      dup2\n      add\n      0x40\n      mstore\n      dup1\n      swap3\n      swap2\n      swap1\n      dup2\n      dup2\n      mstore\n      0x20\n      add\n      dup3\n      dup1\n      sload\n      tag_70\n      swap1\n      tag_69\n      jump\t// in\n    tag_70:\n      dup1\n      iszero\n      tag_71\n      jumpi\n      dup1\n      0x1f\n      lt\n      tag_72\n      jumpi\n      0x0100\n      dup1\n      dup4\n      sload\n      div\n      mul\n      dup4\n      mstore\n      swap2\n      0x20\n      add\n      swap2\n      jump(tag_71)\n    tag_72:\n      dup3\n      add\n      swap2\n      swap1\n      0x00\n      mstore\n      keccak256(0x00, 0x20)\n      swap1\n    tag_73:\n      dup2\n      sload\n      dup2\n      mstore\n      swap1\n      0x01\n      add\n      swap1\n      0x20\n      add\n      dup1\n      dup4\n      gt\n      tag_73\n      jumpi\n      dup3\n      swap1\n      sub\n      0x1f\n      and\n      dup3\n      add\n      swap2\n    tag_71:\n      pop\n      pop\n      pop\n      pop\n      pop\n      dup2\n      mstore\n      0x20\n      add\n      0x01\n      dup3\n      add\n      sload\n      dup2\n      mstore\n      0x20\n      add\n      0x02\n      dup3\n      add\n      sload\n      dup2\n      mstore\n      0x20\n      add\n      0x03\n      dup3\n      add\n      dup1\n      sload\n      tag_74\n      swap1\n      tag_69\n      jump\t// in\n    tag_74:\n      dup1\n      0x1f\n      add\n      0x20\n      dup1\n      swap2\n      div\n      mul\n      0x20\n      add\n      mload(0x40)\n      swap1\n      dup2\n      add\n      0x40\n      mstore\n      dup1\n      swap3\n      swap2\n      swap1\n      dup2\n      dup2\n      mstore\n      0x20\n      add\n      dup3\n      dup1\n      sload\n      tag_75\n      swap1\n      tag_69\n      jump\t// in\n    tag_75:\n      dup1\n      iszero\n      tag_76\n      jumpi\n      dup1\n      0x1f\n      lt\n      tag_77\n      jumpi\n      0x0100\n      dup1\n      dup4\n      sload\n      div\n      mul\n      dup4\n      mstore\n      swap2\n      0x20\n      add\n      swap2\n      jump(tag_76)\n    tag_77:\n      dup3\n      add\n      swap2\n      swap1\n      0x00\n      mstore\n      keccak256(0x00, 0x20)\n      swap1\n    tag_78:\n      dup2\n      sload\n      dup2\n      mstore\n      swap1\n      0x01\n      add\n      swap1\n      0x20\n      add\n      dup1\n      dup4\n      gt\n      tag_78\n      jumpi\n      dup3\n      swap1\n      sub\n      0x1f\n      and\n      dup3\n      add\n      swap2\n    tag_76:\n      pop\n      pop\n      pop\n      pop\n      pop\n      dup2\n      mstore\n      0x20\n      add\n      0x04\n      dup3\n      add\n      sload\n      dup2\n      mstore\n      0x20\n      add\n      0x05\n      dup3\n      add\n      0x00\n      swap1\n      sload\n      swap1\n      0x0100\n      exp\n      swap1\n      div\n      0xffffffffffffffffffffffffffffffffffffffff\n      and\n      0xffffffffffffffffffffffffffffffffffffffff\n      and\n      0xffffffffffffffffffffffffffffffffffffffff\n      and\n      dup2\n      mstore\n      pop\n      pop\n        /* \"contracts/Voting.sol\":3494:3502  voterArr */\n      dup3\n        /* \"contracts/Voting.sol\":3505:3506  1 */\n      0x01\n        /* \"contracts/Voting.sol\":3503:3504  i */\n      dup4\n        /* \"contracts/Voting.sol\":3503:3506  i-1 */\n      tag_79\n      swap2\n      swap1\n      tag_57\n      jump\t// in\n    tag_79:\n        /* \"contracts/Voting.sol\":3494:3507  voterArr[i-1] */\n      dup2\n      mload\n      dup2\n      lt\n      tag_80\n      jumpi\n      tag_81\n      tag_82\n      jump\t// in\n    tag_81:\n    tag_80:\n      0x20\n      mul\n      0x20\n      add\n      add\n        /* \"contracts/Voting.sol\":3494:3523  voterArr[i-1]=voterDetails[i] */\n      dup2\n      swap1\n      mstore\n      pop\n        /* \"contracts/Voting.sol\":3475:3478  i++ */\n      dup1\n      dup1\n      0x01\n      add\n      swap2\n      pop\n      pop\n        /* \"contracts/Voting.sol\":3448:3535  for(uint i=1;i<nextVoterId;i++){... */\n      jump(tag_65)\n    tag_66:\n      pop\n        /* \"contracts/Voting.sol\":3552:3560  voterArr */\n      dup1\n        /* \"contracts/Voting.sol\":3545:3560  return voterArr */\n      swap2\n      pop\n      pop\n        /* \"contracts/Voting.sol\":3320:3568  function voterList() public view returns(Voter[] memory){... */\n      swap1\n      jump\t// out\n        /* \"contracts/Voting.sol\":2253:2582  function candidateList() public view returns(Candidate[] memory){... */\n    tag_23:\n        /* \"contracts/Voting.sol\":2298:2316  Candidate[] memory */\n      0x60\n        /* \"contracts/Voting.sol\":2328:2359  Candidate[] memory candidateArr */\n      0x00\n        /* \"contracts/Voting.sol\":2392:2393  1 */\n      0x01\n        /* \"contracts/Voting.sol\":2376:2391  nextCandidateId */\n      sload(0x03)\n        /* \"contracts/Voting.sol\":2376:2393  nextCandidateId-1 */\n      tag_84\n      swap2\n      swap1\n      tag_57\n      jump\t// in\n    tag_84:\n        /* \"contracts/Voting.sol\":2360:2394  new Candidate[](nextCandidateId-1) */\n      0xffffffffffffffff\n      dup2\n      gt\n      iszero\n      tag_85\n      jumpi\n      tag_86\n      tag_60\n      jump\t// in\n    tag_86:\n    tag_85:\n      mload(0x40)\n      swap1\n      dup1\n      dup3\n      mstore\n      dup1\n      0x20\n      mul\n      0x20\n      add\n      dup3\n      add\n      0x40\n      mstore\n      dup1\n      iszero\n      tag_87\n      jumpi\n      dup2\n      0x20\n      add\n    tag_88:\n      tag_89\n      tag_90\n      jump\t// in\n    tag_89:\n      dup2\n      mstore\n      0x20\n      add\n      swap1\n      0x01\n      swap1\n      sub\n      swap1\n      dup2\n      tag_88\n      jumpi\n      swap1\n      pop\n    tag_87:\n      pop\n        /* \"contracts/Voting.sol\":2328:2394  Candidate[] memory candidateArr=new Candidate[](nextCandidateId-1) */\n      swap1\n      pop\n        /* \"contracts/Voting.sol\":2409:2415  uint i */\n      0x00\n        /* \"contracts/Voting.sol\":2416:2417  1 */\n      0x01\n        /* \"contracts/Voting.sol\":2409:2417  uint i=1 */\n      swap1\n      pop\n        /* \"contracts/Voting.sol\":2405:2545  for(uint i=1;i<nextCandidateId;i++){... */\n    tag_91:\n        /* \"contracts/Voting.sol\":2420:2435  nextCandidateId */\n      sload(0x03)\n        /* \"contracts/Voting.sol\":2418:2419  i */\n      dup2\n        /* \"contracts/Voting.sol\":2418:2435  i<nextCandidateId */\n      lt\n        /* \"contracts/Voting.sol\":2405:2545  for(uint i=1;i<nextCandidateId;i++){... */\n      iszero\n      tag_92\n      jumpi\n        /* \"contracts/Voting.sol\":2473:2489  candidateDetails */\n      0x07\n        /* \"contracts/Voting.sol\":2473:2492  candidateDetails[i] */\n      0x00\n        /* \"contracts/Voting.sol\":2490:2491  i */\n      dup3\n        /* \"contracts/Voting.sol\":2473:2492  candidateDetails[i] */\n      dup2\n      mstore\n      0x20\n      add\n      swap1\n      dup2\n      mstore\n      0x20\n      add\n      0x00\n      keccak256\n        /* \"contracts/Voting.sol\":2455:2492  candidateArr[i-1]=candidateDetails[i] */\n      mload(0x40)\n      dup1\n      0xe0\n      add\n      0x40\n      mstore\n      swap1\n      dup2\n      0x00\n      dup3\n      add\n      dup1\n      sload\n      tag_94\n      swap1\n      tag_69\n      jump\t// in\n    tag_94:\n      dup1\n      0x1f\n      add\n      0x20\n      dup1\n      swap2\n      div\n      mul\n      0x20\n      add\n      mload(0x40)\n      swap1\n      dup2\n      add\n      0x40\n      mstore\n      dup1\n      swap3\n      swap2\n      swap1\n      dup2\n      dup2\n      mstore\n      0x20\n      add\n      dup3\n      dup1\n      sload\n      tag_95\n      swap1\n      tag_69\n      jump\t// in\n    tag_95:\n      dup1\n      iszero\n      tag_96\n      jumpi\n      dup1\n      0x1f\n      lt\n      tag_97\n      jumpi\n      0x0100\n      dup1\n      dup4\n      sload\n      div\n      mul\n      dup4\n      mstore\n      swap2\n      0x20\n      add\n      swap2\n      jump(tag_96)\n    tag_97:\n      dup3\n      add\n      swap2\n      swap1\n      0x00\n      mstore\n      keccak256(0x00, 0x20)\n      swap1\n    tag_98:\n      dup2\n      sload\n      dup2\n      mstore\n      swap1\n      0x01\n      add\n      swap1\n      0x20\n      add\n      dup1\n      dup4\n      gt\n      tag_98\n      jumpi\n      dup3\n      swap1\n      sub\n      0x1f\n      and\n      dup3\n      add\n      swap2\n    tag_96:\n      pop\n      pop\n      pop\n      pop\n      pop\n      dup2\n      mstore\n      0x20\n      add\n      0x01\n      dup3\n      add\n      dup1\n      sload\n      tag_99\n      swap1\n      tag_69\n      jump\t// in\n    tag_99:\n      dup1\n      0x1f\n      add\n      0x20\n      dup1\n      swap2\n      div\n      mul\n      0x20\n      add\n      mload(0x40)\n      swap1\n      dup2\n      add\n      0x40\n      mstore\n      dup1\n      swap3\n      swap2\n      swap1\n      dup2\n      dup2\n      mstore\n      0x20\n      add\n      dup3\n      dup1\n      sload\n      tag_100\n      swap1\n      tag_69\n      jump\t// in\n    tag_100:\n      dup1\n      iszero\n      tag_101\n      jumpi\n      dup1\n      0x1f\n      lt\n      tag_102\n      jumpi\n      0x0100\n      dup1\n      dup4\n      sload\n      div\n      mul\n      dup4\n      mstore\n      swap2\n      0x20\n      add\n      swap2\n      jump(tag_101)\n    tag_102:\n      dup3\n      add\n      swap2\n      swap1\n      0x00\n      mstore\n      keccak256(0x00, 0x20)\n      swap1\n    tag_103:\n      dup2\n      sload\n      dup2\n      mstore\n      swap1\n      0x01\n      add\n      swap1\n      0x20\n      add\n      dup1\n      dup4\n      gt\n      tag_103\n      jumpi\n      dup3\n      swap1\n      sub\n      0x1f\n      and\n      dup3\n      add\n      swap2\n    tag_101:\n      pop\n      pop\n      pop\n      pop\n      pop\n      dup2\n      mstore\n      0x20\n      add\n      0x02\n      dup3\n      add\n      sload\n      dup2\n      mstore\n      0x20\n      add\n      0x03\n      dup3\n      add\n      dup1\n      sload\n      tag_104\n      swap1\n      tag_69\n      jump\t// in\n    tag_104:\n      dup1\n      0x1f\n      add\n      0x20\n      dup1\n      swap2\n      div\n      mul\n      0x20\n      add\n      mload(0x40)\n      swap1\n      dup2\n      add\n      0x40\n      mstore\n      dup1\n      swap3\n      swap2\n      swap1\n      dup2\n      dup2\n      mstore\n      0x20\n      add\n      dup3\n      dup1\n      sload\n      tag_105\n      swap1\n      tag_69\n      jump\t// in\n    tag_105:\n      dup1\n      iszero\n      tag_106\n      jumpi\n      dup1\n      0x1f\n      lt\n      tag_107\n      jumpi\n      0x0100\n      dup1\n      dup4\n      sload\n      div\n      mul\n      dup4\n      mstore\n      swap2\n      0x20\n      add\n      swap2\n      jump(tag_106)\n    tag_107:\n      dup3\n      add\n      swap2\n      swap1\n      0x00\n      mstore\n      keccak256(0x00, 0x20)\n      swap1\n    tag_108:\n      dup2\n      sload\n      dup2\n      mstore\n      swap1\n      0x01\n      add\n      swap1\n      0x20\n      add\n      dup1\n      dup4\n      gt\n      tag_108\n      jumpi\n      dup3\n      swap1\n      sub\n      0x1f\n      and\n      dup3\n      add\n      swap2\n    tag_106:\n      pop\n      pop\n      pop\n      pop\n      pop\n      dup2\n      mstore\n      0x20\n      add\n      0x04\n      dup3\n      add\n      sload\n      dup2\n      mstore\n      0x20\n      add\n      0x05\n      dup3\n      add\n      0x00\n      swap1\n      sload\n      swap1\n      0x0100\n      exp\n      swap1\n      div\n      0xffffffffffffffffffffffffffffffffffffffff\n      and\n      0xffffffffffffffffffffffffffffffffffffffff\n      and\n      0xffffffffffffffffffffffffffffffffffffffff\n      and\n      dup2\n      mstore\n      0x20\n      add\n      0x06\n      dup3\n      add\n      sload\n      dup2\n      mstore\n      pop\n      pop\n        /* \"contracts/Voting.sol\":2455:2467  candidateArr */\n      dup3\n        /* \"contracts/Voting.sol\":2470:2471  1 */\n      0x01\n        /* \"contracts/Voting.sol\":2468:2469  i */\n      dup4\n        /* \"contracts/Voting.sol\":2468:2471  i-1 */\n      tag_109\n      swap2\n      swap1\n      tag_57\n      jump\t// in\n    tag_109:\n        /* \"contracts/Voting.sol\":2455:2472  candidateArr[i-1] */\n      dup2\n      mload\n      dup2\n      lt\n      tag_110\n      jumpi\n      tag_111\n      tag_82\n      jump\t// in\n    tag_111:\n    tag_110:\n      0x20\n      mul\n      0x20\n      add\n      add\n        /* \"contracts/Voting.sol\":2455:2492  candidateArr[i-1]=candidateDetails[i] */\n      dup2\n      swap1\n      mstore\n      pop\n        /* \"contracts/Voting.sol\":2436:2439  i++ */\n      dup1\n      dup1\n      0x01\n      add\n      swap2\n      pop\n      pop\n        /* \"contracts/Voting.sol\":2405:2545  for(uint i=1;i<nextCandidateId;i++){... */\n      jump(tag_91)\n    tag_92:\n      pop\n        /* \"contracts/Voting.sol\":2562:2574  candidateArr */\n      dup1\n        /* \"contracts/Voting.sol\":2555:2574  return candidateArr */\n      swap2\n      pop\n      pop\n        /* \"contracts/Voting.sol\":2253:2582  function candidateList() public view returns(Candidate[] memory){... */\n      swap1\n      jump\t// out\n        /* \"contracts/Voting.sol\":4862:5232  function result() external onlyCommissioner(){... */\n    tag_27:\n        /* \"contracts/Voting.sol\":1266:1283  electionCommision */\n      0x00\n      dup1\n      sload\n      swap1\n      0x0100\n      exp\n      swap1\n      div\n      0xffffffffffffffffffffffffffffffffffffffff\n      and\n        /* \"contracts/Voting.sol\":1254:1283  msg.sender==electionCommision */\n      0xffffffffffffffffffffffffffffffffffffffff\n      and\n        /* \"contracts/Voting.sol\":1254:1264  msg.sender */\n      caller\n        /* \"contracts/Voting.sol\":1254:1283  msg.sender==electionCommision */\n      0xffffffffffffffffffffffffffffffffffffffff\n      and\n      eq\n        /* \"contracts/Voting.sol\":1246:1322  require(msg.sender==electionCommision,\"You are not from Election Commision\") */\n      tag_113\n      jumpi\n      mload(0x40)\n      0x08c379a000000000000000000000000000000000000000000000000000000000\n      dup2\n      mstore\n      0x04\n      add\n      tag_114\n      swap1\n      tag_115\n      jump\t// in\n    tag_114:\n      mload(0x40)\n      dup1\n      swap2\n      sub\n      swap1\n      revert\n    tag_113:\n        /* \"contracts/Voting.sol\":4918:4931  uint maxVotes */\n      0x00\n        /* \"contracts/Voting.sol\":4942:4955  uint winnerId */\n      dup1\n        /* \"contracts/Voting.sol\":4971:4977  uint i */\n      0x00\n        /* \"contracts/Voting.sol\":4978:4979  1 */\n      0x01\n        /* \"contracts/Voting.sol\":4971:4979  uint i=1 */\n      swap1\n      pop\n        /* \"contracts/Voting.sol\":4967:5164  for(uint i=1;i<nextCandidateId;i++){... */\n    tag_117:\n        /* \"contracts/Voting.sol\":4982:4997  nextCandidateId */\n      sload(0x03)\n        /* \"contracts/Voting.sol\":4980:4981  i */\n      dup2\n        /* \"contracts/Voting.sol\":4980:4997  i<nextCandidateId */\n      lt\n        /* \"contracts/Voting.sol\":4967:5164  for(uint i=1;i<nextCandidateId;i++){... */\n      iszero\n      tag_118\n      jumpi\n        /* \"contracts/Voting.sol\":5046:5054  maxVotes */\n      dup3\n        /* \"contracts/Voting.sol\":5020:5036  candidateDetails */\n      0x07\n        /* \"contracts/Voting.sol\":5020:5039  candidateDetails[i] */\n      0x00\n        /* \"contracts/Voting.sol\":5037:5038  i */\n      dup4\n        /* \"contracts/Voting.sol\":5020:5039  candidateDetails[i] */\n      dup2\n      mstore\n      0x20\n      add\n      swap1\n      dup2\n      mstore\n      0x20\n      add\n      0x00\n      keccak256\n        /* \"contracts/Voting.sol\":5020:5045  candidateDetails[i].votes */\n      0x06\n      add\n      sload\n        /* \"contracts/Voting.sol\":5020:5054  candidateDetails[i].votes>maxVotes */\n      gt\n        /* \"contracts/Voting.sol\":5017:5153  if(candidateDetails[i].votes>maxVotes){... */\n      iszero\n      tag_120\n      jumpi\n        /* \"contracts/Voting.sol\":5083:5099  candidateDetails */\n      0x07\n        /* \"contracts/Voting.sol\":5083:5102  candidateDetails[i] */\n      0x00\n        /* \"contracts/Voting.sol\":5100:5101  i */\n      dup3\n        /* \"contracts/Voting.sol\":5083:5102  candidateDetails[i] */\n      dup2\n      mstore\n      0x20\n      add\n      swap1\n      dup2\n      mstore\n      0x20\n      add\n      0x00\n      keccak256\n        /* \"contracts/Voting.sol\":5083:5108  candidateDetails[i].votes */\n      0x06\n      add\n      sload\n        /* \"contracts/Voting.sol\":5074:5108  maxVotes=candidateDetails[i].votes */\n      swap3\n      pop\n        /* \"contracts/Voting.sol\":5136:5137  i */\n      dup1\n        /* \"contracts/Voting.sol\":5127:5137  winnerId=i */\n      swap2\n      pop\n        /* \"contracts/Voting.sol\":5017:5153  if(candidateDetails[i].votes>maxVotes){... */\n    tag_120:\n        /* \"contracts/Voting.sol\":4998:5001  i++ */\n      dup1\n      dup1\n      0x01\n      add\n      swap2\n      pop\n      pop\n        /* \"contracts/Voting.sol\":4967:5164  for(uint i=1;i<nextCandidateId;i++){... */\n      jump(tag_117)\n    tag_118:\n      pop\n        /* \"contracts/Voting.sol\":5181:5197  candidateDetails */\n      0x07\n        /* \"contracts/Voting.sol\":5181:5207  candidateDetails[winnerId] */\n      0x00\n        /* \"contracts/Voting.sol\":5198:5206  winnerId */\n      dup3\n        /* \"contracts/Voting.sol\":5181:5207  candidateDetails[winnerId] */\n      dup2\n      mstore\n      0x20\n      add\n      swap1\n      dup2\n      mstore\n      0x20\n      add\n      0x00\n      keccak256\n        /* \"contracts/Voting.sol\":5181:5224  candidateDetails[winnerId].candidateAddress */\n      0x05\n      add\n      0x00\n      swap1\n      sload\n      swap1\n      0x0100\n      exp\n      swap1\n      div\n      0xffffffffffffffffffffffffffffffffffffffff\n      and\n        /* \"contracts/Voting.sol\":5174:5180  winner */\n      0x01\n      0x00\n        /* \"contracts/Voting.sol\":5174:5224  winner=candidateDetails[winnerId].candidateAddress */\n      0x0100\n      exp\n      dup2\n      sload\n      dup2\n      0xffffffffffffffffffffffffffffffffffffffff\n      mul\n      not\n      and\n      swap1\n      dup4\n      0xffffffffffffffffffffffffffffffffffffffff\n      and\n      mul\n      or\n      swap1\n      sstore\n      pop\n        /* \"contracts/Voting.sol\":4907:5232  {... */\n      pop\n      pop\n        /* \"contracts/Voting.sol\":4862:5232  function result() external onlyCommissioner(){... */\n      jump\t// out\n        /* \"contracts/Voting.sol\":4387:4552  function voteTime(uint _startTime,uint duration) external onlyCommissioner(){... */\n    tag_31:\n        /* \"contracts/Voting.sol\":1266:1283  electionCommision */\n      0x00\n      dup1\n      sload\n      swap1\n      0x0100\n      exp\n      swap1\n      div\n      0xffffffffffffffffffffffffffffffffffffffff\n      and\n        /* \"contracts/Voting.sol\":1254:1283  msg.sender==electionCommision */\n      0xffffffffffffffffffffffffffffffffffffffff\n      and\n        /* \"contracts/Voting.sol\":1254:1264  msg.sender */\n      caller\n        /* \"contracts/Voting.sol\":1254:1283  msg.sender==electionCommision */\n      0xffffffffffffffffffffffffffffffffffffffff\n      and\n      eq\n        /* \"contracts/Voting.sol\":1246:1322  require(msg.sender==electionCommision,\"You are not from Election Commision\") */\n      tag_122\n      jumpi\n      mload(0x40)\n      0x08c379a000000000000000000000000000000000000000000000000000000000\n      dup2\n      mstore\n      0x04\n      add\n      tag_123\n      swap1\n      tag_115\n      jump\t// in\n    tag_123:\n      mload(0x40)\n      dup1\n      swap2\n      sub\n      swap1\n      revert\n    tag_122:\n        /* \"contracts/Voting.sol\":4484:4494  _startTime */\n      dup2\n        /* \"contracts/Voting.sol\":4474:4483  startTime */\n      0x04\n        /* \"contracts/Voting.sol\":4474:4494  startTime=_startTime */\n      dup2\n      swap1\n      sstore\n      pop\n        /* \"contracts/Voting.sol\":4530:4538  duration */\n      dup1\n        /* \"contracts/Voting.sol\":4519:4529  _startTime */\n      dup3\n        /* \"contracts/Voting.sol\":4519:4538  _startTime+duration */\n      tag_125\n      swap2\n      swap1\n      tag_126\n      jump\t// in\n    tag_125:\n        /* \"contracts/Voting.sol\":4511:4518  endTime */\n      0x05\n        /* \"contracts/Voting.sol\":4511:4538  endTime=_startTime+duration */\n      dup2\n      swap1\n      sstore\n      pop\n        /* \"contracts/Voting.sol\":4387:4552  function voteTime(uint _startTime,uint duration) external onlyCommissioner(){... */\n      pop\n      pop\n      jump\t// out\n        /* \"contracts/Voting.sol\":2590:3066  function voterRegister(string calldata _name,uint _age,string calldata _gender) public{... */\n    tag_35:\n        /* \"contracts/Voting.sol\":2701:2703  18 */\n      0x12\n        /* \"contracts/Voting.sol\":2695:2699  _age */\n      dup4\n        /* \"contracts/Voting.sol\":2695:2703  _age>=18 */\n      lt\n      iszero\n        /* \"contracts/Voting.sol\":2687:2722  require(_age>=18,\"Age is under 18\") */\n      tag_128\n      jumpi\n      mload(0x40)\n      0x08c379a000000000000000000000000000000000000000000000000000000000\n      dup2\n      mstore\n      0x04\n      add\n      tag_129\n      swap1\n      tag_130\n      jump\t// in\n    tag_129:\n      mload(0x40)\n      dup1\n      swap2\n      sub\n      swap1\n      revert\n    tag_128:\n        /* \"contracts/Voting.sol\":2741:2770  voterVerification(msg.sender) */\n      tag_131\n        /* \"contracts/Voting.sol\":2759:2769  msg.sender */\n      caller\n        /* \"contracts/Voting.sol\":2741:2758  voterVerification */\n      tag_132\n        /* \"contracts/Voting.sol\":2741:2770  voterVerification(msg.sender) */\n      jump\t// in\n    tag_131:\n        /* \"contracts/Voting.sol\":2733:2798  require(voterVerification(msg.sender),\"Voter already registered\") */\n      tag_133\n      jumpi\n      mload(0x40)\n      0x08c379a000000000000000000000000000000000000000000000000000000000\n      dup2\n      mstore\n      0x04\n      add\n      tag_134\n      swap1\n      tag_135\n      jump\t// in\n    tag_134:\n      mload(0x40)\n      dup1\n      swap2\n      sub\n      swap1\n      revert\n    tag_133:\n        /* \"contracts/Voting.sol\":2835:3034  Voter({... */\n      mload(0x40)\n      dup1\n      0xc0\n      add\n      0x40\n      mstore\n      dup1\n        /* \"contracts/Voting.sol\":2861:2866  _name */\n      dup7\n      dup7\n        /* \"contracts/Voting.sol\":2835:3034  Voter({... */\n      dup1\n      dup1\n      0x1f\n      add\n      0x20\n      dup1\n      swap2\n      div\n      mul\n      0x20\n      add\n      mload(0x40)\n      swap1\n      dup2\n      add\n      0x40\n      mstore\n      dup1\n      swap4\n      swap3\n      swap2\n      swap1\n      dup2\n      dup2\n      mstore\n      0x20\n      add\n      dup4\n      dup4\n      dup1\n      dup3\n      dup5\n      calldatacopy\n      0x00\n      dup2\n      dup5\n      add\n      mstore\n      not(0x1f)\n      0x1f\n      dup3\n      add\n      and\n      swap1\n      pop\n      dup1\n      dup4\n      add\n      swap3\n      pop\n      pop\n      pop\n      pop\n      pop\n      pop\n      pop\n      dup2\n      mstore\n      0x20\n      add\n        /* \"contracts/Voting.sol\":2885:2889  _age */\n      dup5\n        /* \"contracts/Voting.sol\":2835:3034  Voter({... */\n      dup2\n      mstore\n      0x20\n      add\n        /* \"contracts/Voting.sol\":2941:2952  nextVoterId */\n      sload(0x02)\n        /* \"contracts/Voting.sol\":2835:3034  Voter({... */\n      dup2\n      mstore\n      0x20\n      add\n        /* \"contracts/Voting.sol\":2911:2918  _gender */\n      dup4\n      dup4\n        /* \"contracts/Voting.sol\":2835:3034  Voter({... */\n      dup1\n      dup1\n      0x1f\n      add\n      0x20\n      dup1\n      swap2\n      div\n      mul\n      0x20\n      add\n      mload(0x40)\n      swap1\n      dup2\n      add\n      0x40\n      mstore\n      dup1\n      swap4\n      swap3\n      swap2\n      swap1\n      dup2\n      dup2\n      mstore\n      0x20\n      add\n      dup4\n      dup4\n      dup1\n      dup3\n      dup5\n      calldatacopy\n      0x00\n      dup2\n      dup5\n      add\n      mstore\n      not(0x1f)\n      0x1f\n      dup3\n      add\n      and\n      swap1\n      pop\n      dup1\n      dup4\n      add\n      swap3\n      pop\n      pop\n      pop\n      pop\n      pop\n      pop\n      pop\n      dup2\n      mstore\n      0x20\n      add\n        /* \"contracts/Voting.sol\":3021:3022  0 */\n      0x00\n        /* \"contracts/Voting.sol\":2835:3034  Voter({... */\n      dup2\n      mstore\n      0x20\n      add\n        /* \"contracts/Voting.sol\":2980:2990  msg.sender */\n      caller\n        /* \"contracts/Voting.sol\":2835:3034  Voter({... */\n      0xffffffffffffffffffffffffffffffffffffffff\n      and\n      dup2\n      mstore\n      pop\n        /* \"contracts/Voting.sol\":2809:2821  voterDetails */\n      0x06\n        /* \"contracts/Voting.sol\":2809:2834  voterDetails[nextVoterId] */\n      0x00\n        /* \"contracts/Voting.sol\":2822:2833  nextVoterId */\n      sload(0x02)\n        /* \"contracts/Voting.sol\":2809:2834  voterDetails[nextVoterId] */\n      dup2\n      mstore\n      0x20\n      add\n      swap1\n      dup2\n      mstore\n      0x20\n      add\n      0x00\n      keccak256\n        /* \"contracts/Voting.sol\":2809:3034  voterDetails[nextVoterId]=Voter({... */\n      0x00\n      dup3\n      add\n      mload\n      dup2\n      0x00\n      add\n      swap1\n      dup2\n      tag_136\n      swap2\n      swap1\n      tag_137\n      jump\t// in\n    tag_136:\n      pop\n      0x20\n      dup3\n      add\n      mload\n      dup2\n      0x01\n      add\n      sstore\n      0x40\n      dup3\n      add\n      mload\n      dup2\n      0x02\n      add\n      sstore\n      0x60\n      dup3\n      add\n      mload\n      dup2\n      0x03\n      add\n      swap1\n      dup2\n      tag_138\n      swap2\n      swap1\n      tag_137\n      jump\t// in\n    tag_138:\n      pop\n      0x80\n      dup3\n      add\n      mload\n      dup2\n      0x04\n      add\n      sstore\n      0xa0\n      dup3\n      add\n      mload\n      dup2\n      0x05\n      add\n      exp(0x0100, 0x00)\n      dup2\n      sload\n      dup2\n      0xffffffffffffffffffffffffffffffffffffffff\n      mul\n      not\n      and\n      swap1\n      dup4\n      0xffffffffffffffffffffffffffffffffffffffff\n      and\n      mul\n      or\n      swap1\n      sstore\n      pop\n      swap1\n      pop\n      pop\n        /* \"contracts/Voting.sol\":3045:3056  nextVoterId */\n      0x02\n      0x00\n        /* \"contracts/Voting.sol\":3045:3058  nextVoterId++ */\n      dup2\n      sload\n      dup1\n      swap3\n      swap2\n      swap1\n      tag_139\n      swap1\n      tag_140\n      jump\t// in\n    tag_139:\n      swap2\n      swap1\n      pop\n      sstore\n      pop\n        /* \"contracts/Voting.sol\":2590:3066  function voterRegister(string calldata _name,uint _age,string calldata _gender) public{... */\n      pop\n      pop\n      pop\n      pop\n      pop\n      jump\t// out\n        /* \"contracts/Voting.sol\":3576:4378  function vote(uint _voterId,uint _candidateId) external isVotingOver(){... */\n    tag_38:\n        /* \"contracts/Voting.sol\":1134:1141  endTime */\n      sload(0x05)\n        /* \"contracts/Voting.sol\":1118:1133  block.timestamp */\n      timestamp\n        /* \"contracts/Voting.sol\":1118:1141  block.timestamp<endTime */\n      lt\n        /* \"contracts/Voting.sol\":1118:1162  block.timestamp<endTime && stopVoting==false */\n      dup1\n      iszero\n      tag_142\n      jumpi\n      pop\n        /* \"contracts/Voting.sol\":1157:1162  false */\n      0x00\n        /* \"contracts/Voting.sol\":1145:1162  stopVoting==false */\n      iszero\n      iszero\n        /* \"contracts/Voting.sol\":1145:1155  stopVoting */\n      0x08\n      0x00\n      swap1\n      sload\n      swap1\n      0x0100\n      exp\n      swap1\n      div\n      0xff\n      and\n        /* \"contracts/Voting.sol\":1145:1162  stopVoting==false */\n      iszero\n      iszero\n      eq\n        /* \"contracts/Voting.sol\":1118:1162  block.timestamp<endTime && stopVoting==false */\n    tag_142:\n        /* \"contracts/Voting.sol\":1110:1180  require(block.timestamp<endTime && stopVoting==false,\"Voting is over\") */\n      tag_143\n      jumpi\n      mload(0x40)\n      0x08c379a000000000000000000000000000000000000000000000000000000000\n      dup2\n      mstore\n      0x04\n      add\n      tag_144\n      swap1\n      tag_145\n      jump\t// in\n    tag_144:\n      mload(0x40)\n      dup1\n      swap2\n      sub\n      swap1\n      revert\n    tag_143:\n        /* \"contracts/Voting.sol\":3851:3852  0 */\n      0x00\n        /* \"contracts/Voting.sol\":3840:3849  startTime */\n      sload(0x04)\n        /* \"contracts/Voting.sol\":3840:3852  startTime!=0 */\n      sub\n        /* \"contracts/Voting.sol\":3832:3878  require(startTime!=0,\"Voting has not started\") */\n      tag_147\n      jumpi\n      mload(0x40)\n      0x08c379a000000000000000000000000000000000000000000000000000000000\n      dup2\n      mstore\n      0x04\n      add\n      tag_148\n      swap1\n      tag_149\n      jump\t// in\n    tag_148:\n      mload(0x40)\n      dup1\n      swap2\n      sub\n      swap1\n      revert\n    tag_147:\n        /* \"contracts/Voting.sol\":3914:3915  3 */\n      0x03\n        /* \"contracts/Voting.sol\":3897:3912  nextCandidateId */\n      dup1\n      sload\n        /* \"contracts/Voting.sol\":3897:3915  nextCandidateId>=3 */\n      lt\n      iszero\n        /* \"contracts/Voting.sol\":3889:3955  require(nextCandidateId>=3,\"Not enough candiates have registered\") */\n      tag_150\n      jumpi\n      mload(0x40)\n      0x08c379a000000000000000000000000000000000000000000000000000000000\n      dup2\n      mstore\n      0x04\n      add\n      tag_151\n      swap1\n      tag_152\n      jump\t// in\n    tag_151:\n      mload(0x40)\n      dup1\n      swap2\n      sub\n      swap1\n      revert\n    tag_150:\n        /* \"contracts/Voting.sol\":3983:3984  0 */\n      0x00\n        /* \"contracts/Voting.sol\":3974:3982  _voterId */\n      dup3\n        /* \"contracts/Voting.sol\":3974:3984  _voterId>0 */\n      gt\n        /* \"contracts/Voting.sol\":3974:4008  _voterId>0 && _voterId<nextVoterId */\n      dup1\n      iszero\n      tag_153\n      jumpi\n      pop\n        /* \"contracts/Voting.sol\":3997:4008  nextVoterId */\n      sload(0x02)\n        /* \"contracts/Voting.sol\":3988:3996  _voterId */\n      dup3\n        /* \"contracts/Voting.sol\":3988:4008  _voterId<nextVoterId */\n      lt\n        /* \"contracts/Voting.sol\":3974:4008  _voterId>0 && _voterId<nextVoterId */\n    tag_153:\n        /* \"contracts/Voting.sol\":3966:4046  require(_voterId>0 && _voterId<nextVoterId, \"You are not registered as a voter\") */\n      tag_154\n      jumpi\n      mload(0x40)\n      0x08c379a000000000000000000000000000000000000000000000000000000000\n      dup2\n      mstore\n      0x04\n      add\n      tag_155\n      swap1\n      tag_156\n      jump\t// in\n    tag_155:\n      mload(0x40)\n      dup1\n      swap2\n      sub\n      swap1\n      revert\n    tag_154:\n        /* \"contracts/Voting.sol\":4105:4106  0 */\n      0x00\n        /* \"contracts/Voting.sol\":4065:4077  voterDetails */\n      0x06\n        /* \"contracts/Voting.sol\":4065:4087  voterDetails[_voterId] */\n      0x00\n        /* \"contracts/Voting.sol\":4078:4086  _voterId */\n      dup5\n        /* \"contracts/Voting.sol\":4065:4087  voterDetails[_voterId] */\n      dup2\n      mstore\n      0x20\n      add\n      swap1\n      dup2\n      mstore\n      0x20\n      add\n      0x00\n      keccak256\n        /* \"contracts/Voting.sol\":4065:4103  voterDetails[_voterId].voteCandidateId */\n      0x04\n      add\n      sload\n        /* \"contracts/Voting.sol\":4065:4106  voterDetails[_voterId].voteCandidateId==0 */\n      eq\n        /* \"contracts/Voting.sol\":4057:4132  require(voterDetails[_voterId].voteCandidateId==0,\"You have already voted\") */\n      tag_157\n      jumpi\n      mload(0x40)\n      0x08c379a000000000000000000000000000000000000000000000000000000000\n      dup2\n      mstore\n      0x04\n      add\n      tag_158\n      swap1\n      tag_159\n      jump\t// in\n    tag_158:\n      mload(0x40)\n      dup1\n      swap2\n      sub\n      swap1\n      revert\n    tag_157:\n        /* \"contracts/Voting.sol\":4164:4165  0 */\n      0x00\n        /* \"contracts/Voting.sol\":4151:4163  _candidateId */\n      dup2\n        /* \"contracts/Voting.sol\":4151:4165  _candidateId>0 */\n      gt\n        /* \"contracts/Voting.sol\":4151:4197  _candidateId>0 && _candidateId<nextCandidateId */\n      dup1\n      iszero\n      tag_160\n      jumpi\n      pop\n        /* \"contracts/Voting.sol\":4182:4197  nextCandidateId */\n      sload(0x03)\n        /* \"contracts/Voting.sol\":4169:4181  _candidateId */\n      dup2\n        /* \"contracts/Voting.sol\":4169:4197  _candidateId<nextCandidateId */\n      lt\n        /* \"contracts/Voting.sol\":4151:4197  _candidateId>0 && _candidateId<nextCandidateId */\n    tag_160:\n        /* \"contracts/Voting.sol\":4143:4258  require(_candidateId>0 && _candidateId<nextCandidateId,\"The person you want to vote is not a registered candidate\") */\n      tag_161\n      jumpi\n      mload(0x40)\n      0x08c379a000000000000000000000000000000000000000000000000000000000\n      dup2\n      mstore\n      0x04\n      add\n      tag_162\n      swap1\n      tag_163\n      jump\t// in\n    tag_162:\n      mload(0x40)\n      dup1\n      swap2\n      sub\n      swap1\n      revert\n    tag_161:\n        /* \"contracts/Voting.sol\":4308:4320  _candidateId */\n      dup1\n        /* \"contracts/Voting.sol\":4269:4281  voterDetails */\n      0x06\n        /* \"contracts/Voting.sol\":4269:4291  voterDetails[_voterId] */\n      0x00\n        /* \"contracts/Voting.sol\":4282:4290  _voterId */\n      dup5\n        /* \"contracts/Voting.sol\":4269:4291  voterDetails[_voterId] */\n      dup2\n      mstore\n      0x20\n      add\n      swap1\n      dup2\n      mstore\n      0x20\n      add\n      0x00\n      keccak256\n        /* \"contracts/Voting.sol\":4269:4307  voterDetails[_voterId].voteCandidateId */\n      0x04\n      add\n        /* \"contracts/Voting.sol\":4269:4320  voterDetails[_voterId].voteCandidateId=_candidateId */\n      dup2\n      swap1\n      sstore\n      pop\n        /* \"contracts/Voting.sol\":4331:4347  candidateDetails */\n      0x07\n        /* \"contracts/Voting.sol\":4331:4361  candidateDetails[_candidateId] */\n      0x00\n        /* \"contracts/Voting.sol\":4348:4360  _candidateId */\n      dup3\n        /* \"contracts/Voting.sol\":4331:4361  candidateDetails[_candidateId] */\n      dup2\n      mstore\n      0x20\n      add\n      swap1\n      dup2\n      mstore\n      0x20\n      add\n      0x00\n      keccak256\n        /* \"contracts/Voting.sol\":4331:4367  candidateDetails[_candidateId].votes */\n      0x06\n      add\n      0x00\n        /* \"contracts/Voting.sol\":4331:4369  candidateDetails[_candidateId].votes++ */\n      dup2\n      sload\n      dup1\n      swap3\n      swap2\n      swap1\n      tag_164\n      swap1\n      tag_140\n      jump\t// in\n    tag_164:\n      swap2\n      swap1\n      pop\n      sstore\n      pop\n        /* \"contracts/Voting.sol\":3576:4378  function vote(uint _voterId,uint _candidateId) external isVotingOver(){... */\n      pop\n      pop\n      jump\t// out\n        /* \"contracts/Voting.sol\":5240:5320  function emergency() public onlyCommissioner(){... */\n    tag_40:\n        /* \"contracts/Voting.sol\":1266:1283  electionCommision */\n      0x00\n      dup1\n      sload\n      swap1\n      0x0100\n      exp\n      swap1\n      div\n      0xffffffffffffffffffffffffffffffffffffffff\n      and\n        /* \"contracts/Voting.sol\":1254:1283  msg.sender==electionCommision */\n      0xffffffffffffffffffffffffffffffffffffffff\n      and\n        /* \"contracts/Voting.sol\":1254:1264  msg.sender */\n      caller\n        /* \"contracts/Voting.sol\":1254:1283  msg.sender==electionCommision */\n      0xffffffffffffffffffffffffffffffffffffffff\n      and\n      eq\n        /* \"contracts/Voting.sol\":1246:1322  require(msg.sender==electionCommision,\"You are not from Election Commision\") */\n      tag_166\n      jumpi\n      mload(0x40)\n      0x08c379a000000000000000000000000000000000000000000000000000000000\n      dup2\n      mstore\n      0x04\n      add\n      tag_167\n      swap1\n      tag_115\n      jump\t// in\n    tag_167:\n      mload(0x40)\n      dup1\n      swap2\n      sub\n      swap1\n      revert\n    tag_166:\n        /* \"contracts/Voting.sol\":5308:5312  true */\n      0x01\n        /* \"contracts/Voting.sol\":5297:5307  stopVoting */\n      0x08\n      0x00\n        /* \"contracts/Voting.sol\":5297:5312  stopVoting=true */\n      0x0100\n      exp\n      dup2\n      sload\n      dup2\n      0xff\n      mul\n      not\n      and\n      swap1\n      dup4\n      iszero\n      iszero\n      mul\n      or\n      swap1\n      sstore\n      pop\n        /* \"contracts/Voting.sol\":5240:5320  function emergency() public onlyCommissioner(){... */\n      jump\t// out\n        /* \"contracts/Voting.sol\":1350:1981  function candidateRegister(string calldata _name,string calldata _party,uint _age,... */\n    tag_44:\n        /* \"contracts/Voting.sol\":1497:1499  18 */\n      0x12\n        /* \"contracts/Voting.sol\":1491:1495  _age */\n      dup4\n        /* \"contracts/Voting.sol\":1491:1499  _age>=18 */\n      lt\n      iszero\n        /* \"contracts/Voting.sol\":1483:1518  require(_age>=18,\"Age is under 18\") */\n      tag_170\n      jumpi\n      mload(0x40)\n      0x08c379a000000000000000000000000000000000000000000000000000000000\n      dup2\n      mstore\n      0x04\n      add\n      tag_171\n      swap1\n      tag_130\n      jump\t// in\n    tag_171:\n      mload(0x40)\n      dup1\n      swap2\n      sub\n      swap1\n      revert\n    tag_170:\n        /* \"contracts/Voting.sol\":1537:1570  candidateVerification(msg.sender) */\n      tag_172\n        /* \"contracts/Voting.sol\":1559:1569  msg.sender */\n      caller\n        /* \"contracts/Voting.sol\":1537:1558  candidateVerification */\n      tag_173\n        /* \"contracts/Voting.sol\":1537:1570  candidateVerification(msg.sender) */\n      jump\t// in\n    tag_172:\n        /* \"contracts/Voting.sol\":1529:1601  require(candidateVerification(msg.sender),\"You have already registered\") */\n      tag_174\n      jumpi\n      mload(0x40)\n      0x08c379a000000000000000000000000000000000000000000000000000000000\n      dup2\n      mstore\n      0x04\n      add\n      tag_175\n      swap1\n      tag_176\n      jump\t// in\n    tag_175:\n      mload(0x40)\n      dup1\n      swap2\n      sub\n      swap1\n      revert\n    tag_174:\n        /* \"contracts/Voting.sol\":1636:1637  5 */\n      0x05\n        /* \"contracts/Voting.sol\":1620:1635  nextCandidateId */\n      sload(0x03)\n        /* \"contracts/Voting.sol\":1620:1637  nextCandidateId<5 */\n      lt\n        /* \"contracts/Voting.sol\":1612:1668  require(nextCandidateId<5,\"Candidate registration full\") */\n      tag_177\n      jumpi\n      mload(0x40)\n      0x08c379a000000000000000000000000000000000000000000000000000000000\n      dup2\n      mstore\n      0x04\n      add\n      tag_178\n      swap1\n      tag_179\n      jump\t// in\n    tag_178:\n      mload(0x40)\n      dup1\n      swap2\n      sub\n      swap1\n      revert\n    tag_177:\n        /* \"contracts/Voting.sol\":1713:1945  Candidate({... */\n      mload(0x40)\n      dup1\n      0xe0\n      add\n      0x40\n      mstore\n      dup1\n        /* \"contracts/Voting.sol\":1743:1748  _name */\n      dup9\n      dup9\n        /* \"contracts/Voting.sol\":1713:1945  Candidate({... */\n      dup1\n      dup1\n      0x1f\n      add\n      0x20\n      dup1\n      swap2\n      div\n      mul\n      0x20\n      add\n      mload(0x40)\n      swap1\n      dup2\n      add\n      0x40\n      mstore\n      dup1\n      swap4\n      swap3\n      swap2\n      swap1\n      dup2\n      dup2\n      mstore\n      0x20\n      add\n      dup4\n      dup4\n      dup1\n      dup3\n      dup5\n      calldatacopy\n      0x00\n      dup2\n      dup5\n      add\n      mstore\n      not(0x1f)\n      0x1f\n      dup3\n      add\n      and\n      swap1\n      pop\n      dup1\n      dup4\n      add\n      swap3\n      pop\n      pop\n      pop\n      pop\n      pop\n      pop\n      pop\n      dup2\n      mstore\n      0x20\n      add\n        /* \"contracts/Voting.sol\":1769:1775  _party */\n      dup7\n      dup7\n        /* \"contracts/Voting.sol\":1713:1945  Candidate({... */\n      dup1\n      dup1\n      0x1f\n      add\n      0x20\n      dup1\n      swap2\n      div\n      mul\n      0x20\n      add\n      mload(0x40)\n      swap1\n      dup2\n      add\n      0x40\n      mstore\n      dup1\n      swap4\n      swap3\n      swap2\n      swap1\n      dup2\n      dup2\n      mstore\n      0x20\n      add\n      dup4\n      dup4\n      dup1\n      dup3\n      dup5\n      calldatacopy\n      0x00\n      dup2\n      dup5\n      add\n      mstore\n      not(0x1f)\n      0x1f\n      dup3\n      add\n      and\n      swap1\n      pop\n      dup1\n      dup4\n      add\n      swap3\n      pop\n      pop\n      pop\n      pop\n      pop\n      pop\n      pop\n      dup2\n      mstore\n      0x20\n      add\n        /* \"contracts/Voting.sol\":1794:1798  _age */\n      dup5\n        /* \"contracts/Voting.sol\":1713:1945  Candidate({... */\n      dup2\n      mstore\n      0x20\n      add\n        /* \"contracts/Voting.sol\":1820:1827  _gender */\n      dup4\n      dup4\n        /* \"contracts/Voting.sol\":1713:1945  Candidate({... */\n      dup1\n      dup1\n      0x1f\n      add\n      0x20\n      dup1\n      swap2\n      div\n      mul\n      0x20\n      add\n      mload(0x40)\n      swap1\n      dup2\n      add\n      0x40\n      mstore\n      dup1\n      swap4\n      swap3\n      swap2\n      swap1\n      dup2\n      dup2\n      mstore\n      0x20\n      add\n      dup4\n      dup4\n      dup1\n      dup3\n      dup5\n      calldatacopy\n      0x00\n      dup2\n      dup5\n      add\n      mstore\n      not(0x1f)\n      0x1f\n      dup3\n      add\n      and\n      swap1\n      pop\n      dup1\n      dup4\n      add\n      swap3\n      pop\n      pop\n      pop\n      pop\n      pop\n      pop\n      pop\n      dup2\n      mstore\n      0x20\n      add\n        /* \"contracts/Voting.sol\":1854:1869  nextCandidateId */\n      sload(0x03)\n        /* \"contracts/Voting.sol\":1713:1945  Candidate({... */\n      dup2\n      mstore\n      0x20\n      add\n        /* \"contracts/Voting.sol\":1901:1911  msg.sender */\n      caller\n        /* \"contracts/Voting.sol\":1713:1945  Candidate({... */\n      0xffffffffffffffffffffffffffffffffffffffff\n      and\n      dup2\n      mstore\n      0x20\n      add\n        /* \"contracts/Voting.sol\":1932:1933  0 */\n      0x00\n        /* \"contracts/Voting.sol\":1713:1945  Candidate({... */\n      dup2\n      mstore\n      pop\n        /* \"contracts/Voting.sol\":1679:1695  candidateDetails */\n      0x07\n        /* \"contracts/Voting.sol\":1679:1712  candidateDetails[nextCandidateId] */\n      0x00\n        /* \"contracts/Voting.sol\":1696:1711  nextCandidateId */\n      sload(0x03)\n        /* \"contracts/Voting.sol\":1679:1712  candidateDetails[nextCandidateId] */\n      dup2\n      mstore\n      0x20\n      add\n      swap1\n      dup2\n      mstore\n      0x20\n      add\n      0x00\n      keccak256\n        /* \"contracts/Voting.sol\":1679:1945  candidateDetails[nextCandidateId]=Candidate({... */\n      0x00\n      dup3\n      add\n      mload\n      dup2\n      0x00\n      add\n      swap1\n      dup2\n      tag_180\n      swap2\n      swap1\n      tag_137\n      jump\t// in\n    tag_180:\n      pop\n      0x20\n      dup3\n      add\n      mload\n      dup2\n      0x01\n      add\n      swap1\n      dup2\n      tag_181\n      swap2\n      swap1\n      tag_137\n      jump\t// in\n    tag_181:\n      pop\n      0x40\n      dup3\n      add\n      mload\n      dup2\n      0x02\n      add\n      sstore\n      0x60\n      dup3\n      add\n      mload\n      dup2\n      0x03\n      add\n      swap1\n      dup2\n      tag_182\n      swap2\n      swap1\n      tag_137\n      jump\t// in\n    tag_182:\n      pop\n      0x80\n      dup3\n      add\n      mload\n      dup2\n      0x04\n      add\n      sstore\n      0xa0\n      dup3\n      add\n      mload\n      dup2\n      0x05\n      add\n      exp(0x0100, 0x00)\n      dup2\n      sload\n      dup2\n      0xffffffffffffffffffffffffffffffffffffffff\n      mul\n      not\n      and\n      swap1\n      dup4\n      0xffffffffffffffffffffffffffffffffffffffff\n      and\n      mul\n      or\n      swap1\n      sstore\n      pop\n      0xc0\n      dup3\n      add\n      mload\n      dup2\n      0x06\n      add\n      sstore\n      swap1\n      pop\n      pop\n        /* \"contracts/Voting.sol\":1956:1971  nextCandidateId */\n      0x03\n      0x00\n        /* \"contracts/Voting.sol\":1956:1973  nextCandidateId++ */\n      dup2\n      sload\n      dup1\n      swap3\n      swap2\n      swap1\n      tag_183\n      swap1\n      tag_140\n      jump\t// in\n    tag_183:\n      swap2\n      swap1\n      pop\n      sstore\n      pop\n        /* \"contracts/Voting.sol\":1350:1981  function candidateRegister(string calldata _name,string calldata _party,uint _age,... */\n      pop\n      pop\n      pop\n      pop\n      pop\n      pop\n      pop\n      jump\t// out\n        /* \"contracts/Voting.sol\":574:595  address public winner */\n    tag_46:\n      0x01\n      0x00\n      swap1\n      sload\n      swap1\n      0x0100\n      exp\n      swap1\n      div\n      0xffffffffffffffffffffffffffffffffffffffff\n      and\n      dup2\n      jump\t// out\n        /* \"contracts/Voting.sol\":3074:3312  function voterVerification(address _person) internal view returns(bool){... */\n    tag_132:\n        /* \"contracts/Voting.sol\":3140:3144  bool */\n      0x00\n        /* \"contracts/Voting.sol\":3160:3166  uint i */\n      dup1\n        /* \"contracts/Voting.sol\":3167:3168  1 */\n      0x01\n        /* \"contracts/Voting.sol\":3160:3168  uint i=1 */\n      swap1\n      pop\n        /* \"contracts/Voting.sol\":3156:3283  for(uint i=1;i<nextVoterId;i++){... */\n    tag_185:\n        /* \"contracts/Voting.sol\":3171:3182  nextVoterId */\n      sload(0x02)\n        /* \"contracts/Voting.sol\":3169:3170  i */\n      dup2\n        /* \"contracts/Voting.sol\":3169:3182  i<nextVoterId */\n      lt\n        /* \"contracts/Voting.sol\":3156:3283  for(uint i=1;i<nextVoterId;i++){... */\n      iszero\n      tag_186\n      jumpi\n        /* \"contracts/Voting.sol\":3235:3242  _person */\n      dup3\n        /* \"contracts/Voting.sol\":3205:3242  voterDetails[i].voterAddress==_person */\n      0xffffffffffffffffffffffffffffffffffffffff\n      and\n        /* \"contracts/Voting.sol\":3205:3217  voterDetails */\n      0x06\n        /* \"contracts/Voting.sol\":3205:3220  voterDetails[i] */\n      0x00\n        /* \"contracts/Voting.sol\":3218:3219  i */\n      dup4\n        /* \"contracts/Voting.sol\":3205:3220  voterDetails[i] */\n      dup2\n      mstore\n      0x20\n      add\n      swap1\n      dup2\n      mstore\n      0x20\n      add\n      0x00\n      keccak256\n        /* \"contracts/Voting.sol\":3205:3233  voterDetails[i].voterAddress */\n      0x05\n      add\n      0x00\n      swap1\n      sload\n      swap1\n      0x0100\n      exp\n      swap1\n      div\n      0xffffffffffffffffffffffffffffffffffffffff\n      and\n        /* \"contracts/Voting.sol\":3205:3242  voterDetails[i].voterAddress==_person */\n      0xffffffffffffffffffffffffffffffffffffffff\n      and\n      sub\n        /* \"contracts/Voting.sol\":3202:3271  if(voterDetails[i].voterAddress==_person)... */\n      tag_188\n      jumpi\n        /* \"contracts/Voting.sol\":3266:3271  false */\n      0x00\n        /* \"contracts/Voting.sol\":3259:3271  return false */\n      swap2\n      pop\n      pop\n      jump(tag_184)\n        /* \"contracts/Voting.sol\":3202:3271  if(voterDetails[i].voterAddress==_person)... */\n    tag_188:\n        /* \"contracts/Voting.sol\":3183:3186  i++ */\n      dup1\n      dup1\n      0x01\n      add\n      swap2\n      pop\n      pop\n        /* \"contracts/Voting.sol\":3156:3283  for(uint i=1;i<nextVoterId;i++){... */\n      jump(tag_185)\n    tag_186:\n      pop\n        /* \"contracts/Voting.sol\":3300:3304  true */\n      0x01\n        /* \"contracts/Voting.sol\":3293:3304  return true */\n      swap1\n      pop\n        /* \"contracts/Voting.sol\":3074:3312  function voterVerification(address _person) internal view returns(bool){... */\n    tag_184:\n      swap2\n      swap1\n      pop\n      jump\t// out\n        /* \"contracts/Voting.sol\":1989:2245  function candidateVerification(address _person) internal view returns (bool){... */\n    tag_173:\n        /* \"contracts/Voting.sol\":2060:2064  bool */\n      0x00\n        /* \"contracts/Voting.sol\":2080:2086  uint i */\n      dup1\n        /* \"contracts/Voting.sol\":2087:2088  1 */\n      0x01\n        /* \"contracts/Voting.sol\":2080:2088  uint i=1 */\n      swap1\n      pop\n        /* \"contracts/Voting.sol\":2076:2216  for(uint i=1;i<nextCandidateId;i++){... */\n    tag_190:\n        /* \"contracts/Voting.sol\":2091:2106  nextCandidateId */\n      sload(0x03)\n        /* \"contracts/Voting.sol\":2089:2090  i */\n      dup2\n        /* \"contracts/Voting.sol\":2089:2106  i<nextCandidateId */\n      lt\n        /* \"contracts/Voting.sol\":2076:2216  for(uint i=1;i<nextCandidateId;i++){... */\n      iszero\n      tag_191\n      jumpi\n        /* \"contracts/Voting.sol\":2167:2174  _person */\n      dup3\n        /* \"contracts/Voting.sol\":2129:2174  candidateDetails[i].candidateAddress==_person */\n      0xffffffffffffffffffffffffffffffffffffffff\n      and\n        /* \"contracts/Voting.sol\":2129:2145  candidateDetails */\n      0x07\n        /* \"contracts/Voting.sol\":2129:2148  candidateDetails[i] */\n      0x00\n        /* \"contracts/Voting.sol\":2146:2147  i */\n      dup4\n        /* \"contracts/Voting.sol\":2129:2148  candidateDetails[i] */\n      dup2\n      mstore\n      0x20\n      add\n      swap1\n      dup2\n      mstore\n      0x20\n      add\n      0x00\n      keccak256\n        /* \"contracts/Voting.sol\":2129:2165  candidateDetails[i].candidateAddress */\n      0x05\n      add\n      0x00\n      swap1\n      sload\n      swap1\n      0x0100\n      exp\n      swap1\n      div\n      0xffffffffffffffffffffffffffffffffffffffff\n      and\n        /* \"contracts/Voting.sol\":2129:2174  candidateDetails[i].candidateAddress==_person */\n      0xffffffffffffffffffffffffffffffffffffffff\n      and\n      sub\n        /* \"contracts/Voting.sol\":2126:2204  if(candidateDetails[i].candidateAddress==_person)... */\n      tag_193\n      jumpi\n        /* \"contracts/Voting.sol\":2199:2204  false */\n      0x00\n        /* \"contracts/Voting.sol\":2192:2204  return false */\n      swap2\n      pop\n      pop\n      jump(tag_189)\n        /* \"contracts/Voting.sol\":2126:2204  if(candidateDetails[i].candidateAddress==_person)... */\n    tag_193:\n        /* \"contracts/Voting.sol\":2107:2110  i++ */\n      dup1\n      dup1\n      0x01\n      add\n      swap2\n      pop\n      pop\n        /* \"contracts/Voting.sol\":2076:2216  for(uint i=1;i<nextCandidateId;i++){... */\n      jump(tag_190)\n    tag_191:\n      pop\n        /* \"contracts/Voting.sol\":2233:2237  true */\n      0x01\n        /* \"contracts/Voting.sol\":2226:2237  return true */\n      swap1\n      pop\n        /* \"contracts/Voting.sol\":1989:2245  function candidateVerification(address _person) internal view returns (bool){... */\n    tag_189:\n      swap2\n      swap1\n      pop\n      jump\t// out\n    tag_64:\n      mload(0x40)\n      dup1\n      0xc0\n      add\n      0x40\n      mstore\n      dup1\n      0x60\n      dup2\n      mstore\n      0x20\n      add\n      0x00\n      dup2\n      mstore\n      0x20\n      add\n      0x00\n      dup2\n      mstore\n      0x20\n      add\n      0x60\n      dup2\n      mstore\n      0x20\n      add\n      0x00\n      dup2\n      mstore\n      0x20\n      add\n      and(0xffffffffffffffffffffffffffffffffffffffff, 0x00)\n      dup2\n      mstore\n      pop\n      swap1\n      jump\t// out\n    tag_90:\n      mload(0x40)\n      dup1\n      0xe0\n      add\n      0x40\n      mstore\n      dup1\n      0x60\n      dup2\n      mstore\n      0x20\n      add\n      0x60\n      dup2\n      mstore\n      0x20\n      add\n      0x00\n      dup2\n      mstore\n      0x20\n      add\n      0x60\n      dup2\n      mstore\n      0x20\n      add\n      0x00\n      dup2\n      mstore\n      0x20\n      add\n      and(0xffffffffffffffffffffffffffffffffffffffff, 0x00)\n      dup2\n      mstore\n      0x20\n      add\n      0x00\n      dup2\n      mstore\n      pop\n      swap1\n      jump\t// out\n        /* \"#utility.yul\":7:106   */\n    tag_194:\n        /* \"#utility.yul\":59:65   */\n      0x00\n        /* \"#utility.yul\":93:98   */\n      dup2\n        /* \"#utility.yul\":87:99   */\n      mload\n        /* \"#utility.yul\":77:99   */\n      swap1\n      pop\n        /* \"#utility.yul\":7:106   */\n      swap2\n      swap1\n      pop\n      jump\t// out\n        /* \"#utility.yul\":112:281   */\n    tag_195:\n        /* \"#utility.yul\":196:207   */\n      0x00\n        /* \"#utility.yul\":230:236   */\n      dup3\n        /* \"#utility.yul\":225:228   */\n      dup3\n        /* \"#utility.yul\":218:237   */\n      mstore\n        /* \"#utility.yul\":270:274   */\n      0x20\n        /* \"#utility.yul\":265:268   */\n      dup3\n        /* \"#utility.yul\":261:275   */\n      add\n        /* \"#utility.yul\":246:275   */\n      swap1\n      pop\n        /* \"#utility.yul\":112:281   */\n      swap3\n      swap2\n      pop\n      pop\n      jump\t// out\n        /* \"#utility.yul\":287:426   */\n    tag_196:\n        /* \"#utility.yul\":376:382   */\n      dup3\n        /* \"#utility.yul\":371:374   */\n      dup2\n        /* \"#utility.yul\":366:369   */\n      dup4\n        /* \"#utility.yul\":360:383   */\n      mcopy\n        /* \"#utility.yul\":417:418   */\n      0x00\n        /* \"#utility.yul\":408:414   */\n      dup4\n        /* \"#utility.yul\":403:406   */\n      dup4\n        /* \"#utility.yul\":399:415   */\n      add\n        /* \"#utility.yul\":392:419   */\n      mstore\n        /* \"#utility.yul\":287:426   */\n      pop\n      pop\n      pop\n      jump\t// out\n        /* \"#utility.yul\":432:534   */\n    tag_197:\n        /* \"#utility.yul\":473:479   */\n      0x00\n        /* \"#utility.yul\":524:526   */\n      0x1f\n        /* \"#utility.yul\":520:527   */\n      not\n        /* \"#utility.yul\":515:517   */\n      0x1f\n        /* \"#utility.yul\":508:513   */\n      dup4\n        /* \"#utility.yul\":504:518   */\n      add\n        /* \"#utility.yul\":500:528   */\n      and\n        /* \"#utility.yul\":490:528   */\n      swap1\n      pop\n        /* \"#utility.yul\":432:534   */\n      swap2\n      swap1\n      pop\n      jump\t// out\n        /* \"#utility.yul\":540:917   */\n    tag_198:\n        /* \"#utility.yul\":628:631   */\n      0x00\n        /* \"#utility.yul\":656:695   */\n      tag_275\n        /* \"#utility.yul\":689:694   */\n      dup3\n        /* \"#utility.yul\":656:695   */\n      tag_194\n      jump\t// in\n    tag_275:\n        /* \"#utility.yul\":711:782   */\n      tag_276\n        /* \"#utility.yul\":775:781   */\n      dup2\n        /* \"#utility.yul\":770:773   */\n      dup6\n        /* \"#utility.yul\":711:782   */\n      tag_195\n      jump\t// in\n    tag_276:\n        /* \"#utility.yul\":704:782   */\n      swap4\n      pop\n        /* \"#utility.yul\":791:856   */\n      tag_277\n        /* \"#utility.yul\":849:855   */\n      dup2\n        /* \"#utility.yul\":844:847   */\n      dup6\n        /* \"#utility.yul\":837:841   */\n      0x20\n        /* \"#utility.yul\":830:835   */\n      dup7\n        /* \"#utility.yul\":826:842   */\n      add\n        /* \"#utility.yul\":791:856   */\n      tag_196\n      jump\t// in\n    tag_277:\n        /* \"#utility.yul\":881:910   */\n      tag_278\n        /* \"#utility.yul\":903:909   */\n      dup2\n        /* \"#utility.yul\":881:910   */\n      tag_197\n      jump\t// in\n    tag_278:\n        /* \"#utility.yul\":876:879   */\n      dup5\n        /* \"#utility.yul\":872:911   */\n      add\n        /* \"#utility.yul\":865:911   */\n      swap2\n      pop\n        /* \"#utility.yul\":632:917   */\n      pop\n        /* \"#utility.yul\":540:917   */\n      swap3\n      swap2\n      pop\n      pop\n      jump\t// out\n        /* \"#utility.yul\":923:1236   */\n    tag_17:\n        /* \"#utility.yul\":1036:1040   */\n      0x00\n        /* \"#utility.yul\":1074:1076   */\n      0x20\n        /* \"#utility.yul\":1063:1072   */\n      dup3\n        /* \"#utility.yul\":1059:1077   */\n      add\n        /* \"#utility.yul\":1051:1077   */\n      swap1\n      pop\n        /* \"#utility.yul\":1123:1132   */\n      dup2\n        /* \"#utility.yul\":1117:1121   */\n      dup2\n        /* \"#utility.yul\":1113:1133   */\n      sub\n        /* \"#utility.yul\":1109:1110   */\n      0x00\n        /* \"#utility.yul\":1098:1107   */\n      dup4\n        /* \"#utility.yul\":1094:1111   */\n      add\n        /* \"#utility.yul\":1087:1134   */\n      mstore\n        /* \"#utility.yul\":1151:1229   */\n      tag_280\n        /* \"#utility.yul\":1224:1228   */\n      dup2\n        /* \"#utility.yul\":1215:1221   */\n      dup5\n        /* \"#utility.yul\":1151:1229   */\n      tag_198\n      jump\t// in\n    tag_280:\n        /* \"#utility.yul\":1143:1229   */\n      swap1\n      pop\n        /* \"#utility.yul\":923:1236   */\n      swap3\n      swap2\n      pop\n      pop\n      jump\t// out\n        /* \"#utility.yul\":1242:1377   */\n    tag_199:\n        /* \"#utility.yul\":1330:1336   */\n      0x00\n        /* \"#utility.yul\":1364:1369   */\n      dup2\n        /* \"#utility.yul\":1358:1370   */\n      mload\n        /* \"#utility.yul\":1348:1370   */\n      swap1\n      pop\n        /* \"#utility.yul\":1242:1377   */\n      swap2\n      swap1\n      pop\n      jump\t// out\n        /* \"#utility.yul\":1383:1588   */\n    tag_200:\n        /* \"#utility.yul\":1503:1514   */\n      0x00\n        /* \"#utility.yul\":1537:1543   */\n      dup3\n        /* \"#utility.yul\":1532:1535   */\n      dup3\n        /* \"#utility.yul\":1525:1544   */\n      mstore\n        /* \"#utility.yul\":1577:1581   */\n      0x20\n        /* \"#utility.yul\":1572:1575   */\n      dup3\n        /* \"#utility.yul\":1568:1582   */\n      add\n        /* \"#utility.yul\":1553:1582   */\n      swap1\n      pop\n        /* \"#utility.yul\":1383:1588   */\n      swap3\n      swap2\n      pop\n      pop\n      jump\t// out\n        /* \"#utility.yul\":1594:1747   */\n    tag_201:\n        /* \"#utility.yul\":1682:1686   */\n      0x00\n        /* \"#utility.yul\":1705:1708   */\n      dup2\n        /* \"#utility.yul\":1697:1708   */\n      swap1\n      pop\n        /* \"#utility.yul\":1735:1739   */\n      0x20\n        /* \"#utility.yul\":1730:1733   */\n      dup3\n        /* \"#utility.yul\":1726:1740   */\n      add\n        /* \"#utility.yul\":1718:1740   */\n      swap1\n      pop\n        /* \"#utility.yul\":1594:1747   */\n      swap2\n      swap1\n      pop\n      jump\t// out\n        /* \"#utility.yul\":1753:1912   */\n    tag_202:\n        /* \"#utility.yul\":1827:1838   */\n      0x00\n        /* \"#utility.yul\":1861:1867   */\n      dup3\n        /* \"#utility.yul\":1856:1859   */\n      dup3\n        /* \"#utility.yul\":1849:1868   */\n      mstore\n        /* \"#utility.yul\":1901:1905   */\n      0x20\n        /* \"#utility.yul\":1896:1899   */\n      dup3\n        /* \"#utility.yul\":1892:1906   */\n      add\n        /* \"#utility.yul\":1877:1906   */\n      swap1\n      pop\n        /* \"#utility.yul\":1753:1912   */\n      swap3\n      swap2\n      pop\n      pop\n      jump\t// out\n        /* \"#utility.yul\":1918:2275   */\n    tag_203:\n        /* \"#utility.yul\":1996:1999   */\n      0x00\n        /* \"#utility.yul\":2024:2063   */\n      tag_286\n        /* \"#utility.yul\":2057:2062   */\n      dup3\n        /* \"#utility.yul\":2024:2063   */\n      tag_194\n      jump\t// in\n    tag_286:\n        /* \"#utility.yul\":2079:2140   */\n      tag_287\n        /* \"#utility.yul\":2133:2139   */\n      dup2\n        /* \"#utility.yul\":2128:2131   */\n      dup6\n        /* \"#utility.yul\":2079:2140   */\n      tag_202\n      jump\t// in\n    tag_287:\n        /* \"#utility.yul\":2072:2140   */\n      swap4\n      pop\n        /* \"#utility.yul\":2149:2214   */\n      tag_288\n        /* \"#utility.yul\":2207:2213   */\n      dup2\n        /* \"#utility.yul\":2202:2205   */\n      dup6\n        /* \"#utility.yul\":2195:2199   */\n      0x20\n        /* \"#utility.yul\":2188:2193   */\n      dup7\n        /* \"#utility.yul\":2184:2200   */\n      add\n        /* \"#utility.yul\":2149:2214   */\n      tag_196\n      jump\t// in\n    tag_288:\n        /* \"#utility.yul\":2239:2268   */\n      tag_289\n        /* \"#utility.yul\":2261:2267   */\n      dup2\n        /* \"#utility.yul\":2239:2268   */\n      tag_197\n      jump\t// in\n    tag_289:\n        /* \"#utility.yul\":2234:2237   */\n      dup5\n        /* \"#utility.yul\":2230:2269   */\n      add\n        /* \"#utility.yul\":2223:2269   */\n      swap2\n      pop\n        /* \"#utility.yul\":2000:2275   */\n      pop\n        /* \"#utility.yul\":1918:2275   */\n      swap3\n      swap2\n      pop\n      pop\n      jump\t// out\n        /* \"#utility.yul\":2281:2358   */\n    tag_204:\n        /* \"#utility.yul\":2318:2325   */\n      0x00\n        /* \"#utility.yul\":2347:2352   */\n      dup2\n        /* \"#utility.yul\":2336:2352   */\n      swap1\n      pop\n        /* \"#utility.yul\":2281:2358   */\n      swap2\n      swap1\n      pop\n      jump\t// out\n        /* \"#utility.yul\":2364:2472   */\n    tag_205:\n        /* \"#utility.yul\":2441:2465   */\n      tag_292\n        /* \"#utility.yul\":2459:2464   */\n      dup2\n        /* \"#utility.yul\":2441:2465   */\n      tag_204\n      jump\t// in\n    tag_292:\n        /* \"#utility.yul\":2436:2439   */\n      dup3\n        /* \"#utility.yul\":2429:2466   */\n      mstore\n        /* \"#utility.yul\":2364:2472   */\n      pop\n      pop\n      jump\t// out\n        /* \"#utility.yul\":2478:2604   */\n    tag_206:\n        /* \"#utility.yul\":2515:2522   */\n      0x00\n        /* \"#utility.yul\":2555:2597   */\n      0xffffffffffffffffffffffffffffffffffffffff\n        /* \"#utility.yul\":2548:2553   */\n      dup3\n        /* \"#utility.yul\":2544:2598   */\n      and\n        /* \"#utility.yul\":2533:2598   */\n      swap1\n      pop\n        /* \"#utility.yul\":2478:2604   */\n      swap2\n      swap1\n      pop\n      jump\t// out\n        /* \"#utility.yul\":2610:2706   */\n    tag_207:\n        /* \"#utility.yul\":2647:2654   */\n      0x00\n        /* \"#utility.yul\":2676:2700   */\n      tag_295\n        /* \"#utility.yul\":2694:2699   */\n      dup3\n        /* \"#utility.yul\":2676:2700   */\n      tag_206\n      jump\t// in\n    tag_295:\n        /* \"#utility.yul\":2665:2700   */\n      swap1\n      pop\n        /* \"#utility.yul\":2610:2706   */\n      swap2\n      swap1\n      pop\n      jump\t// out\n        /* \"#utility.yul\":2712:2820   */\n    tag_208:\n        /* \"#utility.yul\":2789:2813   */\n      tag_297\n        /* \"#utility.yul\":2807:2812   */\n      dup2\n        /* \"#utility.yul\":2789:2813   */\n      tag_207\n      jump\t// in\n    tag_297:\n        /* \"#utility.yul\":2784:2787   */\n      dup3\n        /* \"#utility.yul\":2777:2814   */\n      mstore\n        /* \"#utility.yul\":2712:2820   */\n      pop\n      pop\n      jump\t// out\n        /* \"#utility.yul\":2872:4250   */\n    tag_209:\n        /* \"#utility.yul\":2973:2976   */\n      0x00\n        /* \"#utility.yul\":3009:3013   */\n      0xc0\n        /* \"#utility.yul\":3004:3007   */\n      dup4\n        /* \"#utility.yul\":3000:3014   */\n      add\n        /* \"#utility.yul\":3096:3100   */\n      0x00\n        /* \"#utility.yul\":3089:3094   */\n      dup4\n        /* \"#utility.yul\":3085:3101   */\n      add\n        /* \"#utility.yul\":3079:3102   */\n      mload\n        /* \"#utility.yul\":3149:3152   */\n      dup5\n        /* \"#utility.yul\":3143:3147   */\n      dup3\n        /* \"#utility.yul\":3139:3153   */\n      sub\n        /* \"#utility.yul\":3132:3136   */\n      0x00\n        /* \"#utility.yul\":3127:3130   */\n      dup7\n        /* \"#utility.yul\":3123:3137   */\n      add\n        /* \"#utility.yul\":3116:3154   */\n      mstore\n        /* \"#utility.yul\":3175:3248   */\n      tag_299\n        /* \"#utility.yul\":3243:3247   */\n      dup3\n        /* \"#utility.yul\":3229:3241   */\n      dup3\n        /* \"#utility.yul\":3175:3248   */\n      tag_203\n      jump\t// in\n    tag_299:\n        /* \"#utility.yul\":3167:3248   */\n      swap2\n      pop\n        /* \"#utility.yul\":3024:3259   */\n      pop\n        /* \"#utility.yul\":3340:3344   */\n      0x20\n        /* \"#utility.yul\":3333:3338   */\n      dup4\n        /* \"#utility.yul\":3329:3345   */\n      add\n        /* \"#utility.yul\":3323:3346   */\n      mload\n        /* \"#utility.yul\":3359:3422   */\n      tag_300\n        /* \"#utility.yul\":3416:3420   */\n      0x20\n        /* \"#utility.yul\":3411:3414   */\n      dup7\n        /* \"#utility.yul\":3407:3421   */\n      add\n        /* \"#utility.yul\":3393:3405   */\n      dup3\n        /* \"#utility.yul\":3359:3422   */\n      tag_205\n      jump\t// in\n    tag_300:\n        /* \"#utility.yul\":3269:3432   */\n      pop\n        /* \"#utility.yul\":3517:3521   */\n      0x40\n        /* \"#utility.yul\":3510:3515   */\n      dup4\n        /* \"#utility.yul\":3506:3522   */\n      add\n        /* \"#utility.yul\":3500:3523   */\n      mload\n        /* \"#utility.yul\":3536:3599   */\n      tag_301\n        /* \"#utility.yul\":3593:3597   */\n      0x40\n        /* \"#utility.yul\":3588:3591   */\n      dup7\n        /* \"#utility.yul\":3584:3598   */\n      add\n        /* \"#utility.yul\":3570:3582   */\n      dup3\n        /* \"#utility.yul\":3536:3599   */\n      tag_205\n      jump\t// in\n    tag_301:\n        /* \"#utility.yul\":3442:3609   */\n      pop\n        /* \"#utility.yul\":3693:3697   */\n      0x60\n        /* \"#utility.yul\":3686:3691   */\n      dup4\n        /* \"#utility.yul\":3682:3698   */\n      add\n        /* \"#utility.yul\":3676:3699   */\n      mload\n        /* \"#utility.yul\":3746:3749   */\n      dup5\n        /* \"#utility.yul\":3740:3744   */\n      dup3\n        /* \"#utility.yul\":3736:3750   */\n      sub\n        /* \"#utility.yul\":3729:3733   */\n      0x60\n        /* \"#utility.yul\":3724:3727   */\n      dup7\n        /* \"#utility.yul\":3720:3734   */\n      add\n        /* \"#utility.yul\":3713:3751   */\n      mstore\n        /* \"#utility.yul\":3772:3845   */\n      tag_302\n        /* \"#utility.yul\":3840:3844   */\n      dup3\n        /* \"#utility.yul\":3826:3838   */\n      dup3\n        /* \"#utility.yul\":3772:3845   */\n      tag_203\n      jump\t// in\n    tag_302:\n        /* \"#utility.yul\":3764:3845   */\n      swap2\n      pop\n        /* \"#utility.yul\":3619:3856   */\n      pop\n        /* \"#utility.yul\":3949:3953   */\n      0x80\n        /* \"#utility.yul\":3942:3947   */\n      dup4\n        /* \"#utility.yul\":3938:3954   */\n      add\n        /* \"#utility.yul\":3932:3955   */\n      mload\n        /* \"#utility.yul\":3968:4031   */\n      tag_303\n        /* \"#utility.yul\":4025:4029   */\n      0x80\n        /* \"#utility.yul\":4020:4023   */\n      dup7\n        /* \"#utility.yul\":4016:4030   */\n      add\n        /* \"#utility.yul\":4002:4014   */\n      dup3\n        /* \"#utility.yul\":3968:4031   */\n      tag_205\n      jump\t// in\n    tag_303:\n        /* \"#utility.yul\":3866:4041   */\n      pop\n        /* \"#utility.yul\":4131:4135   */\n      0xa0\n        /* \"#utility.yul\":4124:4129   */\n      dup4\n        /* \"#utility.yul\":4120:4136   */\n      add\n        /* \"#utility.yul\":4114:4137   */\n      mload\n        /* \"#utility.yul\":4150:4213   */\n      tag_304\n        /* \"#utility.yul\":4207:4211   */\n      0xa0\n        /* \"#utility.yul\":4202:4205   */\n      dup7\n        /* \"#utility.yul\":4198:4212   */\n      add\n        /* \"#utility.yul\":4184:4196   */\n      dup3\n        /* \"#utility.yul\":4150:4213   */\n      tag_208\n      jump\t// in\n    tag_304:\n        /* \"#utility.yul\":4051:4223   */\n      pop\n        /* \"#utility.yul\":4240:4244   */\n      dup1\n        /* \"#utility.yul\":4233:4244   */\n      swap2\n      pop\n        /* \"#utility.yul\":2978:4250   */\n      pop\n        /* \"#utility.yul\":2872:4250   */\n      swap3\n      swap2\n      pop\n      pop\n      jump\t// out\n        /* \"#utility.yul\":4256:4496   */\n    tag_210:\n        /* \"#utility.yul\":4367:4377   */\n      0x00\n        /* \"#utility.yul\":4402:4490   */\n      tag_306\n        /* \"#utility.yul\":4486:4489   */\n      dup4\n        /* \"#utility.yul\":4478:4484   */\n      dup4\n        /* \"#utility.yul\":4402:4490   */\n      tag_209\n      jump\t// in\n    tag_306:\n        /* \"#utility.yul\":4388:4490   */\n      swap1\n      pop\n        /* \"#utility.yul\":4256:4496   */\n      swap3\n      swap2\n      pop\n      pop\n      jump\t// out\n        /* \"#utility.yul\":4502:4636   */\n    tag_211:\n        /* \"#utility.yul\":4593:4597   */\n      0x00\n        /* \"#utility.yul\":4625:4629   */\n      0x20\n        /* \"#utility.yul\":4620:4623   */\n      dup3\n        /* \"#utility.yul\":4616:4630   */\n      add\n        /* \"#utility.yul\":4608:4630   */\n      swap1\n      pop\n        /* \"#utility.yul\":4502:4636   */\n      swap2\n      swap1\n      pop\n      jump\t// out\n        /* \"#utility.yul\":4692:5771   */\n    tag_212:\n        /* \"#utility.yul\":4853:4856   */\n      0x00\n        /* \"#utility.yul\":4882:4957   */\n      tag_309\n        /* \"#utility.yul\":4951:4956   */\n      dup3\n        /* \"#utility.yul\":4882:4957   */\n      tag_199\n      jump\t// in\n    tag_309:\n        /* \"#utility.yul\":4973:5080   */\n      tag_310\n        /* \"#utility.yul\":5073:5079   */\n      dup2\n        /* \"#utility.yul\":5068:5071   */\n      dup6\n        /* \"#utility.yul\":4973:5080   */\n      tag_200\n      jump\t// in\n    tag_310:\n        /* \"#utility.yul\":4966:5080   */\n      swap4\n      pop\n        /* \"#utility.yul\":5106:5109   */\n      dup4\n        /* \"#utility.yul\":5151:5155   */\n      0x20\n        /* \"#utility.yul\":5143:5149   */\n      dup3\n        /* \"#utility.yul\":5139:5156   */\n      mul\n        /* \"#utility.yul\":5134:5137   */\n      dup6\n        /* \"#utility.yul\":5130:5157   */\n      add\n        /* \"#utility.yul\":5181:5258   */\n      tag_311\n        /* \"#utility.yul\":5252:5257   */\n      dup6\n        /* \"#utility.yul\":5181:5258   */\n      tag_201\n      jump\t// in\n    tag_311:\n        /* \"#utility.yul\":5281:5288   */\n      dup1\n        /* \"#utility.yul\":5312:5313   */\n      0x00\n        /* \"#utility.yul\":5297:5726   */\n    tag_312:\n        /* \"#utility.yul\":5322:5328   */\n      dup6\n        /* \"#utility.yul\":5319:5320   */\n      dup2\n        /* \"#utility.yul\":5316:5329   */\n      lt\n        /* \"#utility.yul\":5297:5726   */\n      iszero\n      tag_314\n      jumpi\n        /* \"#utility.yul\":5393:5402   */\n      dup5\n        /* \"#utility.yul\":5387:5391   */\n      dup5\n        /* \"#utility.yul\":5383:5403   */\n      sub\n        /* \"#utility.yul\":5378:5381   */\n      dup10\n        /* \"#utility.yul\":5371:5404   */\n      mstore\n        /* \"#utility.yul\":5444:5450   */\n      dup2\n        /* \"#utility.yul\":5438:5451   */\n      mload\n        /* \"#utility.yul\":5472:5578   */\n      tag_315\n        /* \"#utility.yul\":5573:5577   */\n      dup6\n        /* \"#utility.yul\":5558:5571   */\n      dup3\n        /* \"#utility.yul\":5472:5578   */\n      tag_210\n      jump\t// in\n    tag_315:\n        /* \"#utility.yul\":5464:5578   */\n      swap5\n      pop\n        /* \"#utility.yul\":5601:5682   */\n      tag_316\n        /* \"#utility.yul\":5675:5681   */\n      dup4\n        /* \"#utility.yul\":5601:5682   */\n      tag_211\n      jump\t// in\n    tag_316:\n        /* \"#utility.yul\":5591:5682   */\n      swap3\n      pop\n        /* \"#utility.yul\":5711:5715   */\n      0x20\n        /* \"#utility.yul\":5706:5709   */\n      dup11\n        /* \"#utility.yul\":5702:5716   */\n      add\n        /* \"#utility.yul\":5695:5716   */\n      swap10\n      pop\n        /* \"#utility.yul\":5357:5726   */\n      pop\n        /* \"#utility.yul\":5344:5345   */\n      0x01\n        /* \"#utility.yul\":5341:5342   */\n      dup2\n        /* \"#utility.yul\":5337:5346   */\n      add\n        /* \"#utility.yul\":5332:5346   */\n      swap1\n      pop\n        /* \"#utility.yul\":5297:5726   */\n      jump(tag_312)\n    tag_314:\n        /* \"#utility.yul\":5301:5315   */\n      pop\n        /* \"#utility.yul\":5742:5746   */\n      dup3\n        /* \"#utility.yul\":5735:5746   */\n      swap8\n      pop\n        /* \"#utility.yul\":5762:5765   */\n      dup8\n        /* \"#utility.yul\":5755:5765   */\n      swap6\n      pop\n        /* \"#utility.yul\":4858:5771   */\n      pop\n      pop\n      pop\n      pop\n      pop\n        /* \"#utility.yul\":4692:5771   */\n      swap3\n      swap2\n      pop\n      pop\n      jump\t// out\n        /* \"#utility.yul\":5777:6234   */\n    tag_21:\n        /* \"#utility.yul\":5962:5966   */\n      0x00\n        /* \"#utility.yul\":6000:6002   */\n      0x20\n        /* \"#utility.yul\":5989:5998   */\n      dup3\n        /* \"#utility.yul\":5985:6003   */\n      add\n        /* \"#utility.yul\":5977:6003   */\n      swap1\n      pop\n        /* \"#utility.yul\":6049:6058   */\n      dup2\n        /* \"#utility.yul\":6043:6047   */\n      dup2\n        /* \"#utility.yul\":6039:6059   */\n      sub\n        /* \"#utility.yul\":6035:6036   */\n      0x00\n        /* \"#utility.yul\":6024:6033   */\n      dup4\n        /* \"#utility.yul\":6020:6037   */\n      add\n        /* \"#utility.yul\":6013:6060   */\n      mstore\n        /* \"#utility.yul\":6077:6227   */\n      tag_318\n        /* \"#utility.yul\":6222:6226   */\n      dup2\n        /* \"#utility.yul\":6213:6219   */\n      dup5\n        /* \"#utility.yul\":6077:6227   */\n      tag_212\n      jump\t// in\n    tag_318:\n        /* \"#utility.yul\":6069:6227   */\n      swap1\n      pop\n        /* \"#utility.yul\":5777:6234   */\n      swap3\n      swap2\n      pop\n      pop\n      jump\t// out\n        /* \"#utility.yul\":6240:6379   */\n    tag_213:\n        /* \"#utility.yul\":6332:6338   */\n      0x00\n        /* \"#utility.yul\":6366:6371   */\n      dup2\n        /* \"#utility.yul\":6360:6372   */\n      mload\n        /* \"#utility.yul\":6350:6372   */\n      swap1\n      pop\n        /* \"#utility.yul\":6240:6379   */\n      swap2\n      swap1\n      pop\n      jump\t// out\n        /* \"#utility.yul\":6385:6594   */\n    tag_214:\n        /* \"#utility.yul\":6509:6520   */\n      0x00\n        /* \"#utility.yul\":6543:6549   */\n      dup3\n        /* \"#utility.yul\":6538:6541   */\n      dup3\n        /* \"#utility.yul\":6531:6550   */\n      mstore\n        /* \"#utility.yul\":6583:6587   */\n      0x20\n        /* \"#utility.yul\":6578:6581   */\n      dup3\n        /* \"#utility.yul\":6574:6588   */\n      add\n        /* \"#utility.yul\":6559:6588   */\n      swap1\n      pop\n        /* \"#utility.yul\":6385:6594   */\n      swap3\n      swap2\n      pop\n      pop\n      jump\t// out\n        /* \"#utility.yul\":6600:6757   */\n    tag_215:\n        /* \"#utility.yul\":6692:6696   */\n      0x00\n        /* \"#utility.yul\":6715:6718   */\n      dup2\n        /* \"#utility.yul\":6707:6718   */\n      swap1\n      pop\n        /* \"#utility.yul\":6745:6749   */\n      0x20\n        /* \"#utility.yul\":6740:6743   */\n      dup3\n        /* \"#utility.yul\":6736:6750   */\n      add\n        /* \"#utility.yul\":6728:6750   */\n      swap1\n      pop\n        /* \"#utility.yul\":6600:6757   */\n      swap2\n      swap1\n      pop\n      jump\t// out\n        /* \"#utility.yul\":6817:8447   */\n    tag_216:\n        /* \"#utility.yul\":6926:6929   */\n      0x00\n        /* \"#utility.yul\":6962:6966   */\n      0xe0\n        /* \"#utility.yul\":6957:6960   */\n      dup4\n        /* \"#utility.yul\":6953:6967   */\n      add\n        /* \"#utility.yul\":7049:7053   */\n      0x00\n        /* \"#utility.yul\":7042:7047   */\n      dup4\n        /* \"#utility.yul\":7038:7054   */\n      add\n        /* \"#utility.yul\":7032:7055   */\n      mload\n        /* \"#utility.yul\":7102:7105   */\n      dup5\n        /* \"#utility.yul\":7096:7100   */\n      dup3\n        /* \"#utility.yul\":7092:7106   */\n      sub\n        /* \"#utility.yul\":7085:7089   */\n      0x00\n        /* \"#utility.yul\":7080:7083   */\n      dup7\n        /* \"#utility.yul\":7076:7090   */\n      add\n        /* \"#utility.yul\":7069:7107   */\n      mstore\n        /* \"#utility.yul\":7128:7201   */\n      tag_323\n        /* \"#utility.yul\":7196:7200   */\n      dup3\n        /* \"#utility.yul\":7182:7194   */\n      dup3\n        /* \"#utility.yul\":7128:7201   */\n      tag_203\n      jump\t// in\n    tag_323:\n        /* \"#utility.yul\":7120:7201   */\n      swap2\n      pop\n        /* \"#utility.yul\":6977:7212   */\n      pop\n        /* \"#utility.yul\":7295:7299   */\n      0x20\n        /* \"#utility.yul\":7288:7293   */\n      dup4\n        /* \"#utility.yul\":7284:7300   */\n      add\n        /* \"#utility.yul\":7278:7301   */\n      mload\n        /* \"#utility.yul\":7348:7351   */\n      dup5\n        /* \"#utility.yul\":7342:7346   */\n      dup3\n        /* \"#utility.yul\":7338:7352   */\n      sub\n        /* \"#utility.yul\":7331:7335   */\n      0x20\n        /* \"#utility.yul\":7326:7329   */\n      dup7\n        /* \"#utility.yul\":7322:7336   */\n      add\n        /* \"#utility.yul\":7315:7353   */\n      mstore\n        /* \"#utility.yul\":7374:7447   */\n      tag_324\n        /* \"#utility.yul\":7442:7446   */\n      dup3\n        /* \"#utility.yul\":7428:7440   */\n      dup3\n        /* \"#utility.yul\":7374:7447   */\n      tag_203\n      jump\t// in\n    tag_324:\n        /* \"#utility.yul\":7366:7447   */\n      swap2\n      pop\n        /* \"#utility.yul\":7222:7458   */\n      pop\n        /* \"#utility.yul\":7539:7543   */\n      0x40\n        /* \"#utility.yul\":7532:7537   */\n      dup4\n        /* \"#utility.yul\":7528:7544   */\n      add\n        /* \"#utility.yul\":7522:7545   */\n      mload\n        /* \"#utility.yul\":7558:7621   */\n      tag_325\n        /* \"#utility.yul\":7615:7619   */\n      0x40\n        /* \"#utility.yul\":7610:7613   */\n      dup7\n        /* \"#utility.yul\":7606:7620   */\n      add\n        /* \"#utility.yul\":7592:7604   */\n      dup3\n        /* \"#utility.yul\":7558:7621   */\n      tag_205\n      jump\t// in\n    tag_325:\n        /* \"#utility.yul\":7468:7631   */\n      pop\n        /* \"#utility.yul\":7715:7719   */\n      0x60\n        /* \"#utility.yul\":7708:7713   */\n      dup4\n        /* \"#utility.yul\":7704:7720   */\n      add\n        /* \"#utility.yul\":7698:7721   */\n      mload\n        /* \"#utility.yul\":7768:7771   */\n      dup5\n        /* \"#utility.yul\":7762:7766   */\n      dup3\n        /* \"#utility.yul\":7758:7772   */\n      sub\n        /* \"#utility.yul\":7751:7755   */\n      0x60\n        /* \"#utility.yul\":7746:7749   */\n      dup7\n        /* \"#utility.yul\":7742:7756   */\n      add\n        /* \"#utility.yul\":7735:7773   */\n      mstore\n        /* \"#utility.yul\":7794:7867   */\n      tag_326\n        /* \"#utility.yul\":7862:7866   */\n      dup3\n        /* \"#utility.yul\":7848:7860   */\n      dup3\n        /* \"#utility.yul\":7794:7867   */\n      tag_203\n      jump\t// in\n    tag_326:\n        /* \"#utility.yul\":7786:7867   */\n      swap2\n      pop\n        /* \"#utility.yul\":7641:7878   */\n      pop\n        /* \"#utility.yul\":7967:7971   */\n      0x80\n        /* \"#utility.yul\":7960:7965   */\n      dup4\n        /* \"#utility.yul\":7956:7972   */\n      add\n        /* \"#utility.yul\":7950:7973   */\n      mload\n        /* \"#utility.yul\":7986:8049   */\n      tag_327\n        /* \"#utility.yul\":8043:8047   */\n      0x80\n        /* \"#utility.yul\":8038:8041   */\n      dup7\n        /* \"#utility.yul\":8034:8048   */\n      add\n        /* \"#utility.yul\":8020:8032   */\n      dup3\n        /* \"#utility.yul\":7986:8049   */\n      tag_205\n      jump\t// in\n    tag_327:\n        /* \"#utility.yul\":7888:8059   */\n      pop\n        /* \"#utility.yul\":8153:8157   */\n      0xa0\n        /* \"#utility.yul\":8146:8151   */\n      dup4\n        /* \"#utility.yul\":8142:8158   */\n      add\n        /* \"#utility.yul\":8136:8159   */\n      mload\n        /* \"#utility.yul\":8172:8235   */\n      tag_328\n        /* \"#utility.yul\":8229:8233   */\n      0xa0\n        /* \"#utility.yul\":8224:8227   */\n      dup7\n        /* \"#utility.yul\":8220:8234   */\n      add\n        /* \"#utility.yul\":8206:8218   */\n      dup3\n        /* \"#utility.yul\":8172:8235   */\n      tag_208\n      jump\t// in\n    tag_328:\n        /* \"#utility.yul\":8069:8245   */\n      pop\n        /* \"#utility.yul\":8328:8332   */\n      0xc0\n        /* \"#utility.yul\":8321:8326   */\n      dup4\n        /* \"#utility.yul\":8317:8333   */\n      add\n        /* \"#utility.yul\":8311:8334   */\n      mload\n        /* \"#utility.yul\":8347:8410   */\n      tag_329\n        /* \"#utility.yul\":8404:8408   */\n      0xc0\n        /* \"#utility.yul\":8399:8402   */\n      dup7\n        /* \"#utility.yul\":8395:8409   */\n      add\n        /* \"#utility.yul\":8381:8393   */\n      dup3\n        /* \"#utility.yul\":8347:8410   */\n      tag_205\n      jump\t// in\n    tag_329:\n        /* \"#utility.yul\":8255:8420   */\n      pop\n        /* \"#utility.yul\":8437:8441   */\n      dup1\n        /* \"#utility.yul\":8430:8441   */\n      swap2\n      pop\n        /* \"#utility.yul\":6931:8447   */\n      pop\n        /* \"#utility.yul\":6817:8447   */\n      swap3\n      swap2\n      pop\n      pop\n      jump\t// out\n        /* \"#utility.yul\":8453:8709   */\n    tag_217:\n        /* \"#utility.yul\":8572:8582   */\n      0x00\n        /* \"#utility.yul\":8607:8703   */\n      tag_331\n        /* \"#utility.yul\":8699:8702   */\n      dup4\n        /* \"#utility.yul\":8691:8697   */\n      dup4\n        /* \"#utility.yul\":8607:8703   */\n      tag_216\n      jump\t// in\n    tag_331:\n        /* \"#utility.yul\":8593:8703   */\n      swap1\n      pop\n        /* \"#utility.yul\":8453:8709   */\n      swap3\n      swap2\n      pop\n      pop\n      jump\t// out\n        /* \"#utility.yul\":8715:8853   */\n    tag_218:\n        /* \"#utility.yul\":8810:8814   */\n      0x00\n        /* \"#utility.yul\":8842:8846   */\n      0x20\n        /* \"#utility.yul\":8837:8840   */\n      dup3\n        /* \"#utility.yul\":8833:8847   */\n      add\n        /* \"#utility.yul\":8825:8847   */\n      swap1\n      pop\n        /* \"#utility.yul\":8715:8853   */\n      swap2\n      swap1\n      pop\n      jump\t// out\n        /* \"#utility.yul\":8917:10028   */\n    tag_219:\n        /* \"#utility.yul\":9086:9089   */\n      0x00\n        /* \"#utility.yul\":9115:9194   */\n      tag_334\n        /* \"#utility.yul\":9188:9193   */\n      dup3\n        /* \"#utility.yul\":9115:9194   */\n      tag_213\n      jump\t// in\n    tag_334:\n        /* \"#utility.yul\":9210:9321   */\n      tag_335\n        /* \"#utility.yul\":9314:9320   */\n      dup2\n        /* \"#utility.yul\":9309:9312   */\n      dup6\n        /* \"#utility.yul\":9210:9321   */\n      tag_214\n      jump\t// in\n    tag_335:\n        /* \"#utility.yul\":9203:9321   */\n      swap4\n      pop\n        /* \"#utility.yul\":9347:9350   */\n      dup4\n        /* \"#utility.yul\":9392:9396   */\n      0x20\n        /* \"#utility.yul\":9384:9390   */\n      dup3\n        /* \"#utility.yul\":9380:9397   */\n      mul\n        /* \"#utility.yul\":9375:9378   */\n      dup6\n        /* \"#utility.yul\":9371:9398   */\n      add\n        /* \"#utility.yul\":9422:9503   */\n      tag_336\n        /* \"#utility.yul\":9497:9502   */\n      dup6\n        /* \"#utility.yul\":9422:9503   */\n      tag_215\n      jump\t// in\n    tag_336:\n        /* \"#utility.yul\":9526:9533   */\n      dup1\n        /* \"#utility.yul\":9557:9558   */\n      0x00\n        /* \"#utility.yul\":9542:9983   */\n    tag_337:\n        /* \"#utility.yul\":9567:9573   */\n      dup6\n        /* \"#utility.yul\":9564:9565   */\n      dup2\n        /* \"#utility.yul\":9561:9574   */\n      lt\n        /* \"#utility.yul\":9542:9983   */\n      iszero\n      tag_339\n      jumpi\n        /* \"#utility.yul\":9638:9647   */\n      dup5\n        /* \"#utility.yul\":9632:9636   */\n      dup5\n        /* \"#utility.yul\":9628:9648   */\n      sub\n        /* \"#utility.yul\":9623:9626   */\n      dup10\n        /* \"#utility.yul\":9616:9649   */\n      mstore\n        /* \"#utility.yul\":9689:9695   */\n      dup2\n        /* \"#utility.yul\":9683:9696   */\n      mload\n        /* \"#utility.yul\":9717:9831   */\n      tag_340\n        /* \"#utility.yul\":9826:9830   */\n      dup6\n        /* \"#utility.yul\":9811:9824   */\n      dup3\n        /* \"#utility.yul\":9717:9831   */\n      tag_217\n      jump\t// in\n    tag_340:\n        /* \"#utility.yul\":9709:9831   */\n      swap5\n      pop\n        /* \"#utility.yul\":9854:9939   */\n      tag_341\n        /* \"#utility.yul\":9932:9938   */\n      dup4\n        /* \"#utility.yul\":9854:9939   */\n      tag_218\n      jump\t// in\n    tag_341:\n        /* \"#utility.yul\":9844:9939   */\n      swap3\n      pop\n        /* \"#utility.yul\":9968:9972   */\n      0x20\n        /* \"#utility.yul\":9963:9966   */\n      dup11\n        /* \"#utility.yul\":9959:9973   */\n      add\n        /* \"#utility.yul\":9952:9973   */\n      swap10\n      pop\n        /* \"#utility.yul\":9602:9983   */\n      pop\n        /* \"#utility.yul\":9589:9590   */\n      0x01\n        /* \"#utility.yul\":9586:9587   */\n      dup2\n        /* \"#utility.yul\":9582:9591   */\n      add\n        /* \"#utility.yul\":9577:9591   */\n      swap1\n      pop\n        /* \"#utility.yul\":9542:9983   */\n      jump(tag_337)\n    tag_339:\n        /* \"#utility.yul\":9546:9560   */\n      pop\n        /* \"#utility.yul\":9999:10003   */\n      dup3\n        /* \"#utility.yul\":9992:10003   */\n      swap8\n      pop\n        /* \"#utility.yul\":10019:10022   */\n      dup8\n        /* \"#utility.yul\":10012:10022   */\n      swap6\n      pop\n        /* \"#utility.yul\":9091:10028   */\n      pop\n      pop\n      pop\n      pop\n      pop\n        /* \"#utility.yul\":8917:10028   */\n      swap3\n      swap2\n      pop\n      pop\n      jump\t// out\n        /* \"#utility.yul\":10034:10507   */\n    tag_25:\n        /* \"#utility.yul\":10227:10231   */\n      0x00\n        /* \"#utility.yul\":10265:10267   */\n      0x20\n        /* \"#utility.yul\":10254:10263   */\n      dup3\n        /* \"#utility.yul\":10250:10268   */\n      add\n        /* \"#utility.yul\":10242:10268   */\n      swap1\n      pop\n        /* \"#utility.yul\":10314:10323   */\n      dup2\n        /* \"#utility.yul\":10308:10312   */\n      dup2\n        /* \"#utility.yul\":10304:10324   */\n      sub\n        /* \"#utility.yul\":10300:10301   */\n      0x00\n        /* \"#utility.yul\":10289:10298   */\n      dup4\n        /* \"#utility.yul\":10285:10302   */\n      add\n        /* \"#utility.yul\":10278:10325   */\n      mstore\n        /* \"#utility.yul\":10342:10500   */\n      tag_343\n        /* \"#utility.yul\":10495:10499   */\n      dup2\n        /* \"#utility.yul\":10486:10492   */\n      dup5\n        /* \"#utility.yul\":10342:10500   */\n      tag_219\n      jump\t// in\n    tag_343:\n        /* \"#utility.yul\":10334:10500   */\n      swap1\n      pop\n        /* \"#utility.yul\":10034:10507   */\n      swap3\n      swap2\n      pop\n      pop\n      jump\t// out\n        /* \"#utility.yul\":10594:10711   */\n    tag_221:\n        /* \"#utility.yul\":10703:10704   */\n      0x00\n        /* \"#utility.yul\":10700:10701   */\n      dup1\n        /* \"#utility.yul\":10693:10705   */\n      revert\n        /* \"#utility.yul\":10717:10834   */\n    tag_222:\n        /* \"#utility.yul\":10826:10827   */\n      0x00\n        /* \"#utility.yul\":10823:10824   */\n      dup1\n        /* \"#utility.yul\":10816:10828   */\n      revert\n        /* \"#utility.yul\":10840:10962   */\n    tag_223:\n        /* \"#utility.yul\":10913:10937   */\n      tag_348\n        /* \"#utility.yul\":10931:10936   */\n      dup2\n        /* \"#utility.yul\":10913:10937   */\n      tag_204\n      jump\t// in\n    tag_348:\n        /* \"#utility.yul\":10906:10911   */\n      dup2\n        /* \"#utility.yul\":10903:10938   */\n      eq\n        /* \"#utility.yul\":10893:10956   */\n      tag_349\n      jumpi\n        /* \"#utility.yul\":10952:10953   */\n      0x00\n        /* \"#utility.yul\":10949:10950   */\n      dup1\n        /* \"#utility.yul\":10942:10954   */\n      revert\n        /* \"#utility.yul\":10893:10956   */\n    tag_349:\n        /* \"#utility.yul\":10840:10962   */\n      pop\n      jump\t// out\n        /* \"#utility.yul\":10968:11107   */\n    tag_224:\n        /* \"#utility.yul\":11014:11019   */\n      0x00\n        /* \"#utility.yul\":11052:11058   */\n      dup2\n        /* \"#utility.yul\":11039:11059   */\n      calldataload\n        /* \"#utility.yul\":11030:11059   */\n      swap1\n      pop\n        /* \"#utility.yul\":11068:11101   */\n      tag_351\n        /* \"#utility.yul\":11095:11100   */\n      dup2\n        /* \"#utility.yul\":11068:11101   */\n      tag_223\n      jump\t// in\n    tag_351:\n        /* \"#utility.yul\":10968:11107   */\n      swap3\n      swap2\n      pop\n      pop\n      jump\t// out\n        /* \"#utility.yul\":11113:11587   */\n    tag_30:\n        /* \"#utility.yul\":11181:11187   */\n      0x00\n        /* \"#utility.yul\":11189:11195   */\n      dup1\n        /* \"#utility.yul\":11238:11240   */\n      0x40\n        /* \"#utility.yul\":11226:11235   */\n      dup4\n        /* \"#utility.yul\":11217:11224   */\n      dup6\n        /* \"#utility.yul\":11213:11236   */\n      sub\n        /* \"#utility.yul\":11209:11241   */\n      slt\n        /* \"#utility.yul\":11206:11325   */\n      iszero\n      tag_353\n      jumpi\n        /* \"#utility.yul\":11244:11323   */\n      tag_354\n      tag_221\n      jump\t// in\n    tag_354:\n        /* \"#utility.yul\":11206:11325   */\n    tag_353:\n        /* \"#utility.yul\":11364:11365   */\n      0x00\n        /* \"#utility.yul\":11389:11442   */\n      tag_355\n        /* \"#utility.yul\":11434:11441   */\n      dup6\n        /* \"#utility.yul\":11425:11431   */\n      dup3\n        /* \"#utility.yul\":11414:11423   */\n      dup7\n        /* \"#utility.yul\":11410:11432   */\n      add\n        /* \"#utility.yul\":11389:11442   */\n      tag_224\n      jump\t// in\n    tag_355:\n        /* \"#utility.yul\":11379:11442   */\n      swap3\n      pop\n        /* \"#utility.yul\":11335:11452   */\n      pop\n        /* \"#utility.yul\":11491:11493   */\n      0x20\n        /* \"#utility.yul\":11517:11570   */\n      tag_356\n        /* \"#utility.yul\":11562:11569   */\n      dup6\n        /* \"#utility.yul\":11553:11559   */\n      dup3\n        /* \"#utility.yul\":11542:11551   */\n      dup7\n        /* \"#utility.yul\":11538:11560   */\n      add\n        /* \"#utility.yul\":11517:11570   */\n      tag_224\n      jump\t// in\n    tag_356:\n        /* \"#utility.yul\":11507:11570   */\n      swap2\n      pop\n        /* \"#utility.yul\":11462:11580   */\n      pop\n        /* \"#utility.yul\":11113:11587   */\n      swap3\n      pop\n      swap3\n      swap1\n      pop\n      jump\t// out\n        /* \"#utility.yul\":11593:11710   */\n    tag_225:\n        /* \"#utility.yul\":11702:11703   */\n      0x00\n        /* \"#utility.yul\":11699:11700   */\n      dup1\n        /* \"#utility.yul\":11692:11704   */\n      revert\n        /* \"#utility.yul\":11716:11833   */\n    tag_226:\n        /* \"#utility.yul\":11825:11826   */\n      0x00\n        /* \"#utility.yul\":11822:11823   */\n      dup1\n        /* \"#utility.yul\":11815:11827   */\n      revert\n        /* \"#utility.yul\":11839:11956   */\n    tag_227:\n        /* \"#utility.yul\":11948:11949   */\n      0x00\n        /* \"#utility.yul\":11945:11946   */\n      dup1\n        /* \"#utility.yul\":11938:11950   */\n      revert\n        /* \"#utility.yul\":11976:12529   */\n    tag_228:\n        /* \"#utility.yul\":12034:12042   */\n      0x00\n        /* \"#utility.yul\":12044:12050   */\n      dup1\n        /* \"#utility.yul\":12094:12097   */\n      dup4\n        /* \"#utility.yul\":12087:12091   */\n      0x1f\n        /* \"#utility.yul\":12079:12085   */\n      dup5\n        /* \"#utility.yul\":12075:12092   */\n      add\n        /* \"#utility.yul\":12071:12098   */\n      slt\n        /* \"#utility.yul\":12061:12183   */\n      tag_361\n      jumpi\n        /* \"#utility.yul\":12102:12181   */\n      tag_362\n      tag_225\n      jump\t// in\n    tag_362:\n        /* \"#utility.yul\":12061:12183   */\n    tag_361:\n        /* \"#utility.yul\":12215:12221   */\n      dup3\n        /* \"#utility.yul\":12202:12222   */\n      calldataload\n        /* \"#utility.yul\":12192:12222   */\n      swap1\n      pop\n        /* \"#utility.yul\":12245:12263   */\n      0xffffffffffffffff\n        /* \"#utility.yul\":12237:12243   */\n      dup2\n        /* \"#utility.yul\":12234:12264   */\n      gt\n        /* \"#utility.yul\":12231:12348   */\n      iszero\n      tag_363\n      jumpi\n        /* \"#utility.yul\":12267:12346   */\n      tag_364\n      tag_226\n      jump\t// in\n    tag_364:\n        /* \"#utility.yul\":12231:12348   */\n    tag_363:\n        /* \"#utility.yul\":12381:12385   */\n      0x20\n        /* \"#utility.yul\":12373:12379   */\n      dup4\n        /* \"#utility.yul\":12369:12386   */\n      add\n        /* \"#utility.yul\":12357:12386   */\n      swap2\n      pop\n        /* \"#utility.yul\":12435:12438   */\n      dup4\n        /* \"#utility.yul\":12427:12431   */\n      0x01\n        /* \"#utility.yul\":12419:12425   */\n      dup3\n        /* \"#utility.yul\":12415:12432   */\n      mul\n        /* \"#utility.yul\":12405:12413   */\n      dup4\n        /* \"#utility.yul\":12401:12433   */\n      add\n        /* \"#utility.yul\":12398:12439   */\n      gt\n        /* \"#utility.yul\":12395:12523   */\n      iszero\n      tag_365\n      jumpi\n        /* \"#utility.yul\":12442:12521   */\n      tag_366\n      tag_227\n      jump\t// in\n    tag_366:\n        /* \"#utility.yul\":12395:12523   */\n    tag_365:\n        /* \"#utility.yul\":11976:12529   */\n      swap3\n      pop\n      swap3\n      swap1\n      pop\n      jump\t// out\n        /* \"#utility.yul\":12535:13554   */\n    tag_34:\n        /* \"#utility.yul\":12636:12642   */\n      0x00\n        /* \"#utility.yul\":12644:12650   */\n      dup1\n        /* \"#utility.yul\":12652:12658   */\n      0x00\n        /* \"#utility.yul\":12660:12666   */\n      dup1\n        /* \"#utility.yul\":12668:12674   */\n      0x00\n        /* \"#utility.yul\":12717:12719   */\n      0x60\n        /* \"#utility.yul\":12705:12714   */\n      dup7\n        /* \"#utility.yul\":12696:12703   */\n      dup9\n        /* \"#utility.yul\":12692:12715   */\n      sub\n        /* \"#utility.yul\":12688:12720   */\n      slt\n        /* \"#utility.yul\":12685:12804   */\n      iszero\n      tag_368\n      jumpi\n        /* \"#utility.yul\":12723:12802   */\n      tag_369\n      tag_221\n      jump\t// in\n    tag_369:\n        /* \"#utility.yul\":12685:12804   */\n    tag_368:\n        /* \"#utility.yul\":12871:12872   */\n      0x00\n        /* \"#utility.yul\":12860:12869   */\n      dup7\n        /* \"#utility.yul\":12856:12873   */\n      add\n        /* \"#utility.yul\":12843:12874   */\n      calldataload\n        /* \"#utility.yul\":12901:12919   */\n      0xffffffffffffffff\n        /* \"#utility.yul\":12893:12899   */\n      dup2\n        /* \"#utility.yul\":12890:12920   */\n      gt\n        /* \"#utility.yul\":12887:13004   */\n      iszero\n      tag_370\n      jumpi\n        /* \"#utility.yul\":12923:13002   */\n      tag_371\n      tag_222\n      jump\t// in\n    tag_371:\n        /* \"#utility.yul\":12887:13004   */\n    tag_370:\n        /* \"#utility.yul\":13036:13101   */\n      tag_372\n        /* \"#utility.yul\":13093:13100   */\n      dup9\n        /* \"#utility.yul\":13084:13090   */\n      dup3\n        /* \"#utility.yul\":13073:13082   */\n      dup10\n        /* \"#utility.yul\":13069:13091   */\n      add\n        /* \"#utility.yul\":13036:13101   */\n      tag_228\n      jump\t// in\n    tag_372:\n        /* \"#utility.yul\":13018:13101   */\n      swap6\n      pop\n      swap6\n      pop\n        /* \"#utility.yul\":12814:13111   */\n      pop\n        /* \"#utility.yul\":13150:13152   */\n      0x20\n        /* \"#utility.yul\":13176:13229   */\n      tag_373\n        /* \"#utility.yul\":13221:13228   */\n      dup9\n        /* \"#utility.yul\":13212:13218   */\n      dup3\n        /* \"#utility.yul\":13201:13210   */\n      dup10\n        /* \"#utility.yul\":13197:13219   */\n      add\n        /* \"#utility.yul\":13176:13229   */\n      tag_224\n      jump\t// in\n    tag_373:\n        /* \"#utility.yul\":13166:13229   */\n      swap4\n      pop\n        /* \"#utility.yul\":13121:13239   */\n      pop\n        /* \"#utility.yul\":13306:13308   */\n      0x40\n        /* \"#utility.yul\":13295:13304   */\n      dup7\n        /* \"#utility.yul\":13291:13309   */\n      add\n        /* \"#utility.yul\":13278:13310   */\n      calldataload\n        /* \"#utility.yul\":13337:13355   */\n      0xffffffffffffffff\n        /* \"#utility.yul\":13329:13335   */\n      dup2\n        /* \"#utility.yul\":13326:13356   */\n      gt\n        /* \"#utility.yul\":13323:13440   */\n      iszero\n      tag_374\n      jumpi\n        /* \"#utility.yul\":13359:13438   */\n      tag_375\n      tag_222\n      jump\t// in\n    tag_375:\n        /* \"#utility.yul\":13323:13440   */\n    tag_374:\n        /* \"#utility.yul\":13472:13537   */\n      tag_376\n        /* \"#utility.yul\":13529:13536   */\n      dup9\n        /* \"#utility.yul\":13520:13526   */\n      dup3\n        /* \"#utility.yul\":13509:13518   */\n      dup10\n        /* \"#utility.yul\":13505:13527   */\n      add\n        /* \"#utility.yul\":13472:13537   */\n      tag_228\n      jump\t// in\n    tag_376:\n        /* \"#utility.yul\":13454:13537   */\n      swap3\n      pop\n      swap3\n      pop\n        /* \"#utility.yul\":13249:13547   */\n      pop\n        /* \"#utility.yul\":12535:13554   */\n      swap3\n      swap6\n      pop\n      swap3\n      swap6\n      swap1\n      swap4\n      pop\n      jump\t// out\n        /* \"#utility.yul\":13560:14925   */\n    tag_43:\n        /* \"#utility.yul\":13682:13688   */\n      0x00\n        /* \"#utility.yul\":13690:13696   */\n      dup1\n        /* \"#utility.yul\":13698:13704   */\n      0x00\n        /* \"#utility.yul\":13706:13712   */\n      dup1\n        /* \"#utility.yul\":13714:13720   */\n      0x00\n        /* \"#utility.yul\":13722:13728   */\n      dup1\n        /* \"#utility.yul\":13730:13736   */\n      0x00\n        /* \"#utility.yul\":13779:13782   */\n      0x80\n        /* \"#utility.yul\":13767:13776   */\n      dup9\n        /* \"#utility.yul\":13758:13765   */\n      dup11\n        /* \"#utility.yul\":13754:13777   */\n      sub\n        /* \"#utility.yul\":13750:13783   */\n      slt\n        /* \"#utility.yul\":13747:13867   */\n      iszero\n      tag_378\n      jumpi\n        /* \"#utility.yul\":13786:13865   */\n      tag_379\n      tag_221\n      jump\t// in\n    tag_379:\n        /* \"#utility.yul\":13747:13867   */\n    tag_378:\n        /* \"#utility.yul\":13934:13935   */\n      0x00\n        /* \"#utility.yul\":13923:13932   */\n      dup9\n        /* \"#utility.yul\":13919:13936   */\n      add\n        /* \"#utility.yul\":13906:13937   */\n      calldataload\n        /* \"#utility.yul\":13964:13982   */\n      0xffffffffffffffff\n        /* \"#utility.yul\":13956:13962   */\n      dup2\n        /* \"#utility.yul\":13953:13983   */\n      gt\n        /* \"#utility.yul\":13950:14067   */\n      iszero\n      tag_380\n      jumpi\n        /* \"#utility.yul\":13986:14065   */\n      tag_381\n      tag_222\n      jump\t// in\n    tag_381:\n        /* \"#utility.yul\":13950:14067   */\n    tag_380:\n        /* \"#utility.yul\":14099:14164   */\n      tag_382\n        /* \"#utility.yul\":14156:14163   */\n      dup11\n        /* \"#utility.yul\":14147:14153   */\n      dup3\n        /* \"#utility.yul\":14136:14145   */\n      dup12\n        /* \"#utility.yul\":14132:14154   */\n      add\n        /* \"#utility.yul\":14099:14164   */\n      tag_228\n      jump\t// in\n    tag_382:\n        /* \"#utility.yul\":14081:14164   */\n      swap8\n      pop\n      swap8\n      pop\n        /* \"#utility.yul\":13877:14174   */\n      pop\n        /* \"#utility.yul\":14241:14243   */\n      0x20\n        /* \"#utility.yul\":14230:14239   */\n      dup9\n        /* \"#utility.yul\":14226:14244   */\n      add\n        /* \"#utility.yul\":14213:14245   */\n      calldataload\n        /* \"#utility.yul\":14272:14290   */\n      0xffffffffffffffff\n        /* \"#utility.yul\":14264:14270   */\n      dup2\n        /* \"#utility.yul\":14261:14291   */\n      gt\n        /* \"#utility.yul\":14258:14375   */\n      iszero\n      tag_383\n      jumpi\n        /* \"#utility.yul\":14294:14373   */\n      tag_384\n      tag_222\n      jump\t// in\n    tag_384:\n        /* \"#utility.yul\":14258:14375   */\n    tag_383:\n        /* \"#utility.yul\":14407:14472   */\n      tag_385\n        /* \"#utility.yul\":14464:14471   */\n      dup11\n        /* \"#utility.yul\":14455:14461   */\n      dup3\n        /* \"#utility.yul\":14444:14453   */\n      dup12\n        /* \"#utility.yul\":14440:14462   */\n      add\n        /* \"#utility.yul\":14407:14472   */\n      tag_228\n      jump\t// in\n    tag_385:\n        /* \"#utility.yul\":14389:14472   */\n      swap6\n      pop\n      swap6\n      pop\n        /* \"#utility.yul\":14184:14482   */\n      pop\n        /* \"#utility.yul\":14521:14523   */\n      0x40\n        /* \"#utility.yul\":14547:14600   */\n      tag_386\n        /* \"#utility.yul\":14592:14599   */\n      dup11\n        /* \"#utility.yul\":14583:14589   */\n      dup3\n        /* \"#utility.yul\":14572:14581   */\n      dup12\n        /* \"#utility.yul\":14568:14590   */\n      add\n        /* \"#utility.yul\":14547:14600   */\n      tag_224\n      jump\t// in\n    tag_386:\n        /* \"#utility.yul\":14537:14600   */\n      swap4\n      pop\n        /* \"#utility.yul\":14492:14610   */\n      pop\n        /* \"#utility.yul\":14677:14679   */\n      0x60\n        /* \"#utility.yul\":14666:14675   */\n      dup9\n        /* \"#utility.yul\":14662:14680   */\n      add\n        /* \"#utility.yul\":14649:14681   */\n      calldataload\n        /* \"#utility.yul\":14708:14726   */\n      0xffffffffffffffff\n        /* \"#utility.yul\":14700:14706   */\n      dup2\n        /* \"#utility.yul\":14697:14727   */\n      gt\n        /* \"#utility.yul\":14694:14811   */\n      iszero\n      tag_387\n      jumpi\n        /* \"#utility.yul\":14730:14809   */\n      tag_388\n      tag_222\n      jump\t// in\n    tag_388:\n        /* \"#utility.yul\":14694:14811   */\n    tag_387:\n        /* \"#utility.yul\":14843:14908   */\n      tag_389\n        /* \"#utility.yul\":14900:14907   */\n      dup11\n        /* \"#utility.yul\":14891:14897   */\n      dup3\n        /* \"#utility.yul\":14880:14889   */\n      dup12\n        /* \"#utility.yul\":14876:14898   */\n      add\n        /* \"#utility.yul\":14843:14908   */\n      tag_228\n      jump\t// in\n    tag_389:\n        /* \"#utility.yul\":14825:14908   */\n      swap3\n      pop\n      swap3\n      pop\n        /* \"#utility.yul\":14620:14918   */\n      pop\n        /* \"#utility.yul\":13560:14925   */\n      swap3\n      swap6\n      swap9\n      swap2\n      swap5\n      swap8\n      pop\n      swap3\n      swap6\n      pop\n      jump\t// out\n        /* \"#utility.yul\":14931:15049   */\n    tag_229:\n        /* \"#utility.yul\":15018:15042   */\n      tag_391\n        /* \"#utility.yul\":15036:15041   */\n      dup2\n        /* \"#utility.yul\":15018:15042   */\n      tag_207\n      jump\t// in\n    tag_391:\n        /* \"#utility.yul\":15013:15016   */\n      dup3\n        /* \"#utility.yul\":15006:15043   */\n      mstore\n        /* \"#utility.yul\":14931:15049   */\n      pop\n      pop\n      jump\t// out\n        /* \"#utility.yul\":15055:15277   */\n    tag_48:\n        /* \"#utility.yul\":15148:15152   */\n      0x00\n        /* \"#utility.yul\":15186:15188   */\n      0x20\n        /* \"#utility.yul\":15175:15184   */\n      dup3\n        /* \"#utility.yul\":15171:15189   */\n      add\n        /* \"#utility.yul\":15163:15189   */\n      swap1\n      pop\n        /* \"#utility.yul\":15199:15270   */\n      tag_393\n        /* \"#utility.yul\":15267:15268   */\n      0x00\n        /* \"#utility.yul\":15256:15265   */\n      dup4\n        /* \"#utility.yul\":15252:15269   */\n      add\n        /* \"#utility.yul\":15243:15249   */\n      dup5\n        /* \"#utility.yul\":15199:15270   */\n      tag_229\n      jump\t// in\n    tag_393:\n        /* \"#utility.yul\":15055:15277   */\n      swap3\n      swap2\n      pop\n      pop\n      jump\t// out\n        /* \"#utility.yul\":15283:15463   */\n    tag_230:\n        /* \"#utility.yul\":15331:15408   */\n      0x4e487b7100000000000000000000000000000000000000000000000000000000\n        /* \"#utility.yul\":15328:15329   */\n      0x00\n        /* \"#utility.yul\":15321:15409   */\n      mstore\n        /* \"#utility.yul\":15428:15432   */\n      0x11\n        /* \"#utility.yul\":15425:15426   */\n      0x04\n        /* \"#utility.yul\":15418:15433   */\n      mstore\n        /* \"#utility.yul\":15452:15456   */\n      0x24\n        /* \"#utility.yul\":15449:15450   */\n      0x00\n        /* \"#utility.yul\":15442:15457   */\n      revert\n        /* \"#utility.yul\":15469:15663   */\n    tag_57:\n        /* \"#utility.yul\":15509:15513   */\n      0x00\n        /* \"#utility.yul\":15529:15549   */\n      tag_396\n        /* \"#utility.yul\":15547:15548   */\n      dup3\n        /* \"#utility.yul\":15529:15549   */\n      tag_204\n      jump\t// in\n    tag_396:\n        /* \"#utility.yul\":15524:15549   */\n      swap2\n      pop\n        /* \"#utility.yul\":15563:15583   */\n      tag_397\n        /* \"#utility.yul\":15581:15582   */\n      dup4\n        /* \"#utility.yul\":15563:15583   */\n      tag_204\n      jump\t// in\n    tag_397:\n        /* \"#utility.yul\":15558:15583   */\n      swap3\n      pop\n        /* \"#utility.yul\":15607:15608   */\n      dup3\n        /* \"#utility.yul\":15604:15605   */\n      dup3\n        /* \"#utility.yul\":15600:15609   */\n      sub\n        /* \"#utility.yul\":15592:15609   */\n      swap1\n      pop\n        /* \"#utility.yul\":15631:15632   */\n      dup2\n        /* \"#utility.yul\":15625:15629   */\n      dup2\n        /* \"#utility.yul\":15622:15633   */\n      gt\n        /* \"#utility.yul\":15619:15656   */\n      iszero\n      tag_398\n      jumpi\n        /* \"#utility.yul\":15636:15654   */\n      tag_399\n      tag_230\n      jump\t// in\n    tag_399:\n        /* \"#utility.yul\":15619:15656   */\n    tag_398:\n        /* \"#utility.yul\":15469:15663   */\n      swap3\n      swap2\n      pop\n      pop\n      jump\t// out\n        /* \"#utility.yul\":15669:15849   */\n    tag_60:\n        /* \"#utility.yul\":15717:15794   */\n      0x4e487b7100000000000000000000000000000000000000000000000000000000\n        /* \"#utility.yul\":15714:15715   */\n      0x00\n        /* \"#utility.yul\":15707:15795   */\n      mstore\n        /* \"#utility.yul\":15814:15818   */\n      0x41\n        /* \"#utility.yul\":15811:15812   */\n      0x04\n        /* \"#utility.yul\":15804:15819   */\n      mstore\n        /* \"#utility.yul\":15838:15842   */\n      0x24\n        /* \"#utility.yul\":15835:15836   */\n      0x00\n        /* \"#utility.yul\":15828:15843   */\n      revert\n        /* \"#utility.yul\":15855:16035   */\n    tag_231:\n        /* \"#utility.yul\":15903:15980   */\n      0x4e487b7100000000000000000000000000000000000000000000000000000000\n        /* \"#utility.yul\":15900:15901   */\n      0x00\n        /* \"#utility.yul\":15893:15981   */\n      mstore\n        /* \"#utility.yul\":16000:16004   */\n      0x22\n        /* \"#utility.yul\":15997:15998   */\n      0x04\n        /* \"#utility.yul\":15990:16005   */\n      mstore\n        /* \"#utility.yul\":16024:16028   */\n      0x24\n        /* \"#utility.yul\":16021:16022   */\n      0x00\n        /* \"#utility.yul\":16014:16029   */\n      revert\n        /* \"#utility.yul\":16041:16361   */\n    tag_69:\n        /* \"#utility.yul\":16085:16091   */\n      0x00\n        /* \"#utility.yul\":16122:16123   */\n      0x02\n        /* \"#utility.yul\":16116:16120   */\n      dup3\n        /* \"#utility.yul\":16112:16124   */\n      div\n        /* \"#utility.yul\":16102:16124   */\n      swap1\n      pop\n        /* \"#utility.yul\":16169:16170   */\n      0x01\n        /* \"#utility.yul\":16163:16167   */\n      dup3\n        /* \"#utility.yul\":16159:16171   */\n      and\n        /* \"#utility.yul\":16190:16208   */\n      dup1\n        /* \"#utility.yul\":16180:16261   */\n      tag_403\n      jumpi\n        /* \"#utility.yul\":16246:16250   */\n      0x7f\n        /* \"#utility.yul\":16238:16244   */\n      dup3\n        /* \"#utility.yul\":16234:16251   */\n      and\n        /* \"#utility.yul\":16224:16251   */\n      swap2\n      pop\n        /* \"#utility.yul\":16180:16261   */\n    tag_403:\n        /* \"#utility.yul\":16308:16310   */\n      0x20\n        /* \"#utility.yul\":16300:16306   */\n      dup3\n        /* \"#utility.yul\":16297:16311   */\n      lt\n        /* \"#utility.yul\":16277:16295   */\n      dup2\n        /* \"#utility.yul\":16274:16312   */\n      sub\n        /* \"#utility.yul\":16271:16355   */\n      tag_404\n      jumpi\n        /* \"#utility.yul\":16327:16345   */\n      tag_405\n      tag_231\n      jump\t// in\n    tag_405:\n        /* \"#utility.yul\":16271:16355   */\n    tag_404:\n        /* \"#utility.yul\":16092:16361   */\n      pop\n        /* \"#utility.yul\":16041:16361   */\n      swap2\n      swap1\n      pop\n      jump\t// out\n        /* \"#utility.yul\":16367:16547   */\n    tag_82:\n        /* \"#utility.yul\":16415:16492   */\n      0x4e487b7100000000000000000000000000000000000000000000000000000000\n        /* \"#utility.yul\":16412:16413   */\n      0x00\n        /* \"#utility.yul\":16405:16493   */\n      mstore\n        /* \"#utility.yul\":16512:16516   */\n      0x32\n        /* \"#utility.yul\":16509:16510   */\n      0x04\n        /* \"#utility.yul\":16502:16517   */\n      mstore\n        /* \"#utility.yul\":16536:16540   */\n      0x24\n        /* \"#utility.yul\":16533:16534   */\n      0x00\n        /* \"#utility.yul\":16526:16541   */\n      revert\n        /* \"#utility.yul\":16553:16775   */\n    tag_232:\n        /* \"#utility.yul\":16693:16727   */\n      0x596f7520617265206e6f742066726f6d20456c656374696f6e20436f6d6d6973\n        /* \"#utility.yul\":16689:16690   */\n      0x00\n        /* \"#utility.yul\":16681:16687   */\n      dup3\n        /* \"#utility.yul\":16677:16691   */\n      add\n        /* \"#utility.yul\":16670:16728   */\n      mstore\n        /* \"#utility.yul\":16762:16767   */\n      0x696f6e0000000000000000000000000000000000000000000000000000000000\n        /* \"#utility.yul\":16757:16759   */\n      0x20\n        /* \"#utility.yul\":16749:16755   */\n      dup3\n        /* \"#utility.yul\":16745:16760   */\n      add\n        /* \"#utility.yul\":16738:16768   */\n      mstore\n        /* \"#utility.yul\":16553:16775   */\n      pop\n      jump\t// out\n        /* \"#utility.yul\":16781:17147   */\n    tag_233:\n        /* \"#utility.yul\":16923:16926   */\n      0x00\n        /* \"#utility.yul\":16944:17011   */\n      tag_409\n        /* \"#utility.yul\":17008:17010   */\n      0x23\n        /* \"#utility.yul\":17003:17006   */\n      dup4\n        /* \"#utility.yul\":16944:17011   */\n      tag_195\n      jump\t// in\n    tag_409:\n        /* \"#utility.yul\":16937:17011   */\n      swap2\n      pop\n        /* \"#utility.yul\":17020:17113   */\n      tag_410\n        /* \"#utility.yul\":17109:17112   */\n      dup3\n        /* \"#utility.yul\":17020:17113   */\n      tag_232\n      jump\t// in\n    tag_410:\n        /* \"#utility.yul\":17138:17140   */\n      0x40\n        /* \"#utility.yul\":17133:17136   */\n      dup3\n        /* \"#utility.yul\":17129:17141   */\n      add\n        /* \"#utility.yul\":17122:17141   */\n      swap1\n      pop\n        /* \"#utility.yul\":16781:17147   */\n      swap2\n      swap1\n      pop\n      jump\t// out\n        /* \"#utility.yul\":17153:17572   */\n    tag_115:\n        /* \"#utility.yul\":17319:17323   */\n      0x00\n        /* \"#utility.yul\":17357:17359   */\n      0x20\n        /* \"#utility.yul\":17346:17355   */\n      dup3\n        /* \"#utility.yul\":17342:17360   */\n      add\n        /* \"#utility.yul\":17334:17360   */\n      swap1\n      pop\n        /* \"#utility.yul\":17406:17415   */\n      dup2\n        /* \"#utility.yul\":17400:17404   */\n      dup2\n        /* \"#utility.yul\":17396:17416   */\n      sub\n        /* \"#utility.yul\":17392:17393   */\n      0x00\n        /* \"#utility.yul\":17381:17390   */\n      dup4\n        /* \"#utility.yul\":17377:17394   */\n      add\n        /* \"#utility.yul\":17370:17417   */\n      mstore\n        /* \"#utility.yul\":17434:17565   */\n      tag_412\n        /* \"#utility.yul\":17560:17564   */\n      dup2\n        /* \"#utility.yul\":17434:17565   */\n      tag_233\n      jump\t// in\n    tag_412:\n        /* \"#utility.yul\":17426:17565   */\n      swap1\n      pop\n        /* \"#utility.yul\":17153:17572   */\n      swap2\n      swap1\n      pop\n      jump\t// out\n        /* \"#utility.yul\":17578:17769   */\n    tag_126:\n        /* \"#utility.yul\":17618:17621   */\n      0x00\n        /* \"#utility.yul\":17637:17657   */\n      tag_414\n        /* \"#utility.yul\":17655:17656   */\n      dup3\n        /* \"#utility.yul\":17637:17657   */\n      tag_204\n      jump\t// in\n    tag_414:\n        /* \"#utility.yul\":17632:17657   */\n      swap2\n      pop\n        /* \"#utility.yul\":17671:17691   */\n      tag_415\n        /* \"#utility.yul\":17689:17690   */\n      dup4\n        /* \"#utility.yul\":17671:17691   */\n      tag_204\n      jump\t// in\n    tag_415:\n        /* \"#utility.yul\":17666:17691   */\n      swap3\n      pop\n        /* \"#utility.yul\":17714:17715   */\n      dup3\n        /* \"#utility.yul\":17711:17712   */\n      dup3\n        /* \"#utility.yul\":17707:17716   */\n      add\n        /* \"#utility.yul\":17700:17716   */\n      swap1\n      pop\n        /* \"#utility.yul\":17735:17738   */\n      dup1\n        /* \"#utility.yul\":17732:17733   */\n      dup3\n        /* \"#utility.yul\":17729:17739   */\n      gt\n        /* \"#utility.yul\":17726:17762   */\n      iszero\n      tag_416\n      jumpi\n        /* \"#utility.yul\":17742:17760   */\n      tag_417\n      tag_230\n      jump\t// in\n    tag_417:\n        /* \"#utility.yul\":17726:17762   */\n    tag_416:\n        /* \"#utility.yul\":17578:17769   */\n      swap3\n      swap2\n      pop\n      pop\n      jump\t// out\n        /* \"#utility.yul\":17775:17940   */\n    tag_234:\n        /* \"#utility.yul\":17915:17932   */\n      0x41676520697320756e6465722031380000000000000000000000000000000000\n        /* \"#utility.yul\":17911:17912   */\n      0x00\n        /* \"#utility.yul\":17903:17909   */\n      dup3\n        /* \"#utility.yul\":17899:17913   */\n      add\n        /* \"#utility.yul\":17892:17933   */\n      mstore\n        /* \"#utility.yul\":17775:17940   */\n      pop\n      jump\t// out\n        /* \"#utility.yul\":17946:18312   */\n    tag_235:\n        /* \"#utility.yul\":18088:18091   */\n      0x00\n        /* \"#utility.yul\":18109:18176   */\n      tag_420\n        /* \"#utility.yul\":18173:18175   */\n      0x0f\n        /* \"#utility.yul\":18168:18171   */\n      dup4\n        /* \"#utility.yul\":18109:18176   */\n      tag_195\n      jump\t// in\n    tag_420:\n        /* \"#utility.yul\":18102:18176   */\n      swap2\n      pop\n        /* \"#utility.yul\":18185:18278   */\n      tag_421\n        /* \"#utility.yul\":18274:18277   */\n      dup3\n        /* \"#utility.yul\":18185:18278   */\n      tag_234\n      jump\t// in\n    tag_421:\n        /* \"#utility.yul\":18303:18305   */\n      0x20\n        /* \"#utility.yul\":18298:18301   */\n      dup3\n        /* \"#utility.yul\":18294:18306   */\n      add\n        /* \"#utility.yul\":18287:18306   */\n      swap1\n      pop\n        /* \"#utility.yul\":17946:18312   */\n      swap2\n      swap1\n      pop\n      jump\t// out\n        /* \"#utility.yul\":18318:18737   */\n    tag_130:\n        /* \"#utility.yul\":18484:18488   */\n      0x00\n        /* \"#utility.yul\":18522:18524   */\n      0x20\n        /* \"#utility.yul\":18511:18520   */\n      dup3\n        /* \"#utility.yul\":18507:18525   */\n      add\n        /* \"#utility.yul\":18499:18525   */\n      swap1\n      pop\n        /* \"#utility.yul\":18571:18580   */\n      dup2\n        /* \"#utility.yul\":18565:18569   */\n      dup2\n        /* \"#utility.yul\":18561:18581   */\n      sub\n        /* \"#utility.yul\":18557:18558   */\n      0x00\n        /* \"#utility.yul\":18546:18555   */\n      dup4\n        /* \"#utility.yul\":18542:18559   */\n      add\n        /* \"#utility.yul\":18535:18582   */\n      mstore\n        /* \"#utility.yul\":18599:18730   */\n      tag_423\n        /* \"#utility.yul\":18725:18729   */\n      dup2\n        /* \"#utility.yul\":18599:18730   */\n      tag_235\n      jump\t// in\n    tag_423:\n        /* \"#utility.yul\":18591:18730   */\n      swap1\n      pop\n        /* \"#utility.yul\":18318:18737   */\n      swap2\n      swap1\n      pop\n      jump\t// out\n        /* \"#utility.yul\":18743:18917   */\n    tag_236:\n        /* \"#utility.yul\":18883:18909   */\n      0x566f74657220616c726561647920726567697374657265640000000000000000\n        /* \"#utility.yul\":18879:18880   */\n      0x00\n        /* \"#utility.yul\":18871:18877   */\n      dup3\n        /* \"#utility.yul\":18867:18881   */\n      add\n        /* \"#utility.yul\":18860:18910   */\n      mstore\n        /* \"#utility.yul\":18743:18917   */\n      pop\n      jump\t// out\n        /* \"#utility.yul\":18923:19289   */\n    tag_237:\n        /* \"#utility.yul\":19065:19068   */\n      0x00\n        /* \"#utility.yul\":19086:19153   */\n      tag_426\n        /* \"#utility.yul\":19150:19152   */\n      0x18\n        /* \"#utility.yul\":19145:19148   */\n      dup4\n        /* \"#utility.yul\":19086:19153   */\n      tag_195\n      jump\t// in\n    tag_426:\n        /* \"#utility.yul\":19079:19153   */\n      swap2\n      pop\n        /* \"#utility.yul\":19162:19255   */\n      tag_427\n        /* \"#utility.yul\":19251:19254   */\n      dup3\n        /* \"#utility.yul\":19162:19255   */\n      tag_236\n      jump\t// in\n    tag_427:\n        /* \"#utility.yul\":19280:19282   */\n      0x20\n        /* \"#utility.yul\":19275:19278   */\n      dup3\n        /* \"#utility.yul\":19271:19283   */\n      add\n        /* \"#utility.yul\":19264:19283   */\n      swap1\n      pop\n        /* \"#utility.yul\":18923:19289   */\n      swap2\n      swap1\n      pop\n      jump\t// out\n        /* \"#utility.yul\":19295:19714   */\n    tag_135:\n        /* \"#utility.yul\":19461:19465   */\n      0x00\n        /* \"#utility.yul\":19499:19501   */\n      0x20\n        /* \"#utility.yul\":19488:19497   */\n      dup3\n        /* \"#utility.yul\":19484:19502   */\n      add\n        /* \"#utility.yul\":19476:19502   */\n      swap1\n      pop\n        /* \"#utility.yul\":19548:19557   */\n      dup2\n        /* \"#utility.yul\":19542:19546   */\n      dup2\n        /* \"#utility.yul\":19538:19558   */\n      sub\n        /* \"#utility.yul\":19534:19535   */\n      0x00\n        /* \"#utility.yul\":19523:19532   */\n      dup4\n        /* \"#utility.yul\":19519:19536   */\n      add\n        /* \"#utility.yul\":19512:19559   */\n      mstore\n        /* \"#utility.yul\":19576:19707   */\n      tag_429\n        /* \"#utility.yul\":19702:19706   */\n      dup2\n        /* \"#utility.yul\":19576:19707   */\n      tag_237\n      jump\t// in\n    tag_429:\n        /* \"#utility.yul\":19568:19707   */\n      swap1\n      pop\n        /* \"#utility.yul\":19295:19714   */\n      swap2\n      swap1\n      pop\n      jump\t// out\n        /* \"#utility.yul\":19720:19861   */\n    tag_238:\n        /* \"#utility.yul\":19769:19773   */\n      0x00\n        /* \"#utility.yul\":19792:19795   */\n      dup2\n        /* \"#utility.yul\":19784:19795   */\n      swap1\n      pop\n        /* \"#utility.yul\":19815:19818   */\n      dup2\n        /* \"#utility.yul\":19812:19813   */\n      0x00\n        /* \"#utility.yul\":19805:19819   */\n      mstore\n        /* \"#utility.yul\":19849:19853   */\n      0x20\n        /* \"#utility.yul\":19846:19847   */\n      0x00\n        /* \"#utility.yul\":19836:19854   */\n      keccak256\n        /* \"#utility.yul\":19828:19854   */\n      swap1\n      pop\n        /* \"#utility.yul\":19720:19861   */\n      swap2\n      swap1\n      pop\n      jump\t// out\n        /* \"#utility.yul\":19867:19960   */\n    tag_239:\n        /* \"#utility.yul\":19904:19910   */\n      0x00\n        /* \"#utility.yul\":19951:19953   */\n      0x20\n        /* \"#utility.yul\":19946:19948   */\n      0x1f\n        /* \"#utility.yul\":19939:19944   */\n      dup4\n        /* \"#utility.yul\":19935:19949   */\n      add\n        /* \"#utility.yul\":19931:19954   */\n      div\n        /* \"#utility.yul\":19921:19954   */\n      swap1\n      pop\n        /* \"#utility.yul\":19867:19960   */\n      swap2\n      swap1\n      pop\n      jump\t// out\n        /* \"#utility.yul\":19966:20073   */\n    tag_240:\n        /* \"#utility.yul\":20010:20018   */\n      0x00\n        /* \"#utility.yul\":20060:20065   */\n      dup3\n        /* \"#utility.yul\":20054:20058   */\n      dup3\n        /* \"#utility.yul\":20050:20066   */\n      shl\n        /* \"#utility.yul\":20029:20066   */\n      swap1\n      pop\n        /* \"#utility.yul\":19966:20073   */\n      swap3\n      swap2\n      pop\n      pop\n      jump\t// out\n        /* \"#utility.yul\":20079:20472   */\n    tag_241:\n        /* \"#utility.yul\":20148:20154   */\n      0x00\n        /* \"#utility.yul\":20198:20199   */\n      0x08\n        /* \"#utility.yul\":20186:20196   */\n      dup4\n        /* \"#utility.yul\":20182:20200   */\n      mul\n        /* \"#utility.yul\":20221:20318   */\n      tag_434\n        /* \"#utility.yul\":20251:20317   */\n      0xffffffffffffffffffffffffffffffffffffffffffffffffffffffffffffffff\n        /* \"#utility.yul\":20240:20249   */\n      dup3\n        /* \"#utility.yul\":20221:20318   */\n      tag_240\n      jump\t// in\n    tag_434:\n        /* \"#utility.yul\":20339:20378   */\n      tag_435\n        /* \"#utility.yul\":20369:20377   */\n      dup7\n        /* \"#utility.yul\":20358:20367   */\n      dup4\n        /* \"#utility.yul\":20339:20378   */\n      tag_240\n      jump\t// in\n    tag_435:\n        /* \"#utility.yul\":20327:20378   */\n      swap6\n      pop\n        /* \"#utility.yul\":20411:20415   */\n      dup1\n        /* \"#utility.yul\":20407:20416   */\n      not\n        /* \"#utility.yul\":20400:20405   */\n      dup5\n        /* \"#utility.yul\":20396:20417   */\n      and\n        /* \"#utility.yul\":20387:20417   */\n      swap4\n      pop\n        /* \"#utility.yul\":20460:20464   */\n      dup1\n        /* \"#utility.yul\":20450:20458   */\n      dup7\n        /* \"#utility.yul\":20446:20465   */\n      and\n        /* \"#utility.yul\":20439:20444   */\n      dup5\n        /* \"#utility.yul\":20436:20466   */\n      or\n        /* \"#utility.yul\":20426:20466   */\n      swap3\n      pop\n        /* \"#utility.yul\":20155:20472   */\n      pop\n      pop\n        /* \"#utility.yul\":20079:20472   */\n      swap4\n      swap3\n      pop\n      pop\n      pop\n      jump\t// out\n        /* \"#utility.yul\":20478:20538   */\n    tag_242:\n        /* \"#utility.yul\":20506:20509   */\n      0x00\n        /* \"#utility.yul\":20527:20532   */\n      dup2\n        /* \"#utility.yul\":20520:20532   */\n      swap1\n      pop\n        /* \"#utility.yul\":20478:20538   */\n      swap2\n      swap1\n      pop\n      jump\t// out\n        /* \"#utility.yul\":20544:20686   */\n    tag_243:\n        /* \"#utility.yul\":20594:20603   */\n      0x00\n        /* \"#utility.yul\":20627:20680   */\n      tag_438\n        /* \"#utility.yul\":20645:20679   */\n      tag_439\n        /* \"#utility.yul\":20654:20678   */\n      tag_440\n        /* \"#utility.yul\":20672:20677   */\n      dup5\n        /* \"#utility.yul\":20654:20678   */\n      tag_204\n      jump\t// in\n    tag_440:\n        /* \"#utility.yul\":20645:20679   */\n      tag_242\n      jump\t// in\n    tag_439:\n        /* \"#utility.yul\":20627:20680   */\n      tag_204\n      jump\t// in\n    tag_438:\n        /* \"#utility.yul\":20614:20680   */\n      swap1\n      pop\n        /* \"#utility.yul\":20544:20686   */\n      swap2\n      swap1\n      pop\n      jump\t// out\n        /* \"#utility.yul\":20692:20767   */\n    tag_244:\n        /* \"#utility.yul\":20735:20738   */\n      0x00\n        /* \"#utility.yul\":20756:20761   */\n      dup2\n        /* \"#utility.yul\":20749:20761   */\n      swap1\n      pop\n        /* \"#utility.yul\":20692:20767   */\n      swap2\n      swap1\n      pop\n      jump\t// out\n        /* \"#utility.yul\":20773:21042   */\n    tag_245:\n        /* \"#utility.yul\":20883:20922   */\n      tag_443\n        /* \"#utility.yul\":20914:20921   */\n      dup4\n        /* \"#utility.yul\":20883:20922   */\n      tag_243\n      jump\t// in\n    tag_443:\n        /* \"#utility.yul\":20944:21035   */\n      tag_444\n        /* \"#utility.yul\":20993:21034   */\n      tag_445\n        /* \"#utility.yul\":21017:21033   */\n      dup3\n        /* \"#utility.yul\":20993:21034   */\n      tag_244\n      jump\t// in\n    tag_445:\n        /* \"#utility.yul\":20985:20991   */\n      dup5\n        /* \"#utility.yul\":20978:20982   */\n      dup5\n        /* \"#utility.yul\":20972:20983   */\n      sload\n        /* \"#utility.yul\":20944:21035   */\n      tag_241\n      jump\t// in\n    tag_444:\n        /* \"#utility.yul\":20938:20942   */\n      dup3\n        /* \"#utility.yul\":20931:21036   */\n      sstore\n        /* \"#utility.yul\":20849:21042   */\n      pop\n        /* \"#utility.yul\":20773:21042   */\n      pop\n      pop\n      pop\n      jump\t// out\n        /* \"#utility.yul\":21048:21121   */\n    tag_246:\n        /* \"#utility.yul\":21093:21096   */\n      0x00\n        /* \"#utility.yul\":21048:21121   */\n      swap1\n      jump\t// out\n        /* \"#utility.yul\":21127:21316   */\n    tag_247:\n        /* \"#utility.yul\":21204:21236   */\n      tag_448\n      tag_246\n      jump\t// in\n    tag_448:\n        /* \"#utility.yul\":21245:21310   */\n      tag_449\n        /* \"#utility.yul\":21303:21309   */\n      dup2\n        /* \"#utility.yul\":21295:21301   */\n      dup5\n        /* \"#utility.yul\":21289:21293   */\n      dup5\n        /* \"#utility.yul\":21245:21310   */\n      tag_245\n      jump\t// in\n    tag_449:\n        /* \"#utility.yul\":21180:21316   */\n      pop\n        /* \"#utility.yul\":21127:21316   */\n      pop\n      pop\n      jump\t// out\n        /* \"#utility.yul\":21322:21508   */\n    tag_248:\n        /* \"#utility.yul\":21382:21502   */\n    tag_451:\n        /* \"#utility.yul\":21399:21402   */\n      dup2\n        /* \"#utility.yul\":21392:21397   */\n      dup2\n        /* \"#utility.yul\":21389:21403   */\n      lt\n        /* \"#utility.yul\":21382:21502   */\n      iszero\n      tag_453\n      jumpi\n        /* \"#utility.yul\":21453:21492   */\n      tag_454\n        /* \"#utility.yul\":21490:21491   */\n      0x00\n        /* \"#utility.yul\":21483:21488   */\n      dup3\n        /* \"#utility.yul\":21453:21492   */\n      tag_247\n      jump\t// in\n    tag_454:\n        /* \"#utility.yul\":21426:21427   */\n      0x01\n        /* \"#utility.yul\":21419:21424   */\n      dup2\n        /* \"#utility.yul\":21415:21428   */\n      add\n        /* \"#utility.yul\":21406:21428   */\n      swap1\n      pop\n        /* \"#utility.yul\":21382:21502   */\n      jump(tag_451)\n    tag_453:\n        /* \"#utility.yul\":21322:21508   */\n      pop\n      pop\n      jump\t// out\n        /* \"#utility.yul\":21514:22057   */\n    tag_249:\n        /* \"#utility.yul\":21615:21617   */\n      0x1f\n        /* \"#utility.yul\":21610:21613   */\n      dup3\n        /* \"#utility.yul\":21607:21618   */\n      gt\n        /* \"#utility.yul\":21604:22050   */\n      iszero\n      tag_456\n      jumpi\n        /* \"#utility.yul\":21649:21687   */\n      tag_457\n        /* \"#utility.yul\":21681:21686   */\n      dup2\n        /* \"#utility.yul\":21649:21687   */\n      tag_238\n      jump\t// in\n    tag_457:\n        /* \"#utility.yul\":21733:21762   */\n      tag_458\n        /* \"#utility.yul\":21751:21761   */\n      dup5\n        /* \"#utility.yul\":21733:21762   */\n      tag_239\n      jump\t// in\n    tag_458:\n        /* \"#utility.yul\":21723:21731   */\n      dup2\n        /* \"#utility.yul\":21719:21763   */\n      add\n        /* \"#utility.yul\":21916:21918   */\n      0x20\n        /* \"#utility.yul\":21904:21914   */\n      dup6\n        /* \"#utility.yul\":21901:21919   */\n      lt\n        /* \"#utility.yul\":21898:21947   */\n      iszero\n      tag_459\n      jumpi\n        /* \"#utility.yul\":21937:21945   */\n      dup2\n        /* \"#utility.yul\":21922:21945   */\n      swap1\n      pop\n        /* \"#utility.yul\":21898:21947   */\n    tag_459:\n        /* \"#utility.yul\":21960:22040   */\n      tag_460\n        /* \"#utility.yul\":22016:22038   */\n      tag_461\n        /* \"#utility.yul\":22034:22037   */\n      dup6\n        /* \"#utility.yul\":22016:22038   */\n      tag_239\n      jump\t// in\n    tag_461:\n        /* \"#utility.yul\":22006:22014   */\n      dup4\n        /* \"#utility.yul\":22002:22039   */\n      add\n        /* \"#utility.yul\":21989:22000   */\n      dup3\n        /* \"#utility.yul\":21960:22040   */\n      tag_248\n      jump\t// in\n    tag_460:\n        /* \"#utility.yul\":21619:22050   */\n      pop\n      pop\n        /* \"#utility.yul\":21604:22050   */\n    tag_456:\n        /* \"#utility.yul\":21514:22057   */\n      pop\n      pop\n      pop\n      jump\t// out\n        /* \"#utility.yul\":22063:22180   */\n    tag_250:\n        /* \"#utility.yul\":22117:22125   */\n      0x00\n        /* \"#utility.yul\":22167:22172   */\n      dup3\n        /* \"#utility.yul\":22161:22165   */\n      dup3\n        /* \"#utility.yul\":22157:22173   */\n      shr\n        /* \"#utility.yul\":22136:22173   */\n      swap1\n      pop\n        /* \"#utility.yul\":22063:22180   */\n      swap3\n      swap2\n      pop\n      pop\n      jump\t// out\n        /* \"#utility.yul\":22186:22355   */\n    tag_251:\n        /* \"#utility.yul\":22230:22236   */\n      0x00\n        /* \"#utility.yul\":22263:22314   */\n      tag_464\n        /* \"#utility.yul\":22311:22312   */\n      0x00\n        /* \"#utility.yul\":22307:22313   */\n      not\n        /* \"#utility.yul\":22299:22304   */\n      dup5\n        /* \"#utility.yul\":22296:22297   */\n      0x08\n        /* \"#utility.yul\":22292:22305   */\n      mul\n        /* \"#utility.yul\":22263:22314   */\n      tag_250\n      jump\t// in\n    tag_464:\n        /* \"#utility.yul\":22259:22315   */\n      not\n        /* \"#utility.yul\":22344:22348   */\n      dup1\n        /* \"#utility.yul\":22338:22342   */\n      dup4\n        /* \"#utility.yul\":22334:22349   */\n      and\n        /* \"#utility.yul\":22324:22349   */\n      swap2\n      pop\n        /* \"#utility.yul\":22237:22355   */\n      pop\n        /* \"#utility.yul\":22186:22355   */\n      swap3\n      swap2\n      pop\n      pop\n      jump\t// out\n        /* \"#utility.yul\":22360:22655   */\n    tag_252:\n        /* \"#utility.yul\":22436:22440   */\n      0x00\n        /* \"#utility.yul\":22582:22611   */\n      tag_466\n        /* \"#utility.yul\":22607:22610   */\n      dup4\n        /* \"#utility.yul\":22601:22605   */\n      dup4\n        /* \"#utility.yul\":22582:22611   */\n      tag_251\n      jump\t// in\n    tag_466:\n        /* \"#utility.yul\":22574:22611   */\n      swap2\n      pop\n        /* \"#utility.yul\":22644:22647   */\n      dup3\n        /* \"#utility.yul\":22641:22642   */\n      0x02\n        /* \"#utility.yul\":22637:22648   */\n      mul\n        /* \"#utility.yul\":22631:22635   */\n      dup3\n        /* \"#utility.yul\":22628:22649   */\n      or\n        /* \"#utility.yul\":22620:22649   */\n      swap1\n      pop\n        /* \"#utility.yul\":22360:22655   */\n      swap3\n      swap2\n      pop\n      pop\n      jump\t// out\n        /* \"#utility.yul\":22660:24055   */\n    tag_137:\n        /* \"#utility.yul\":22777:22814   */\n      tag_468\n        /* \"#utility.yul\":22810:22813   */\n      dup3\n        /* \"#utility.yul\":22777:22814   */\n      tag_194\n      jump\t// in\n    tag_468:\n        /* \"#utility.yul\":22879:22897   */\n      0xffffffffffffffff\n        /* \"#utility.yul\":22871:22877   */\n      dup2\n        /* \"#utility.yul\":22868:22898   */\n      gt\n        /* \"#utility.yul\":22865:22921   */\n      iszero\n      tag_469\n      jumpi\n        /* \"#utility.yul\":22901:22919   */\n      tag_470\n      tag_60\n      jump\t// in\n    tag_470:\n        /* \"#utility.yul\":22865:22921   */\n    tag_469:\n        /* \"#utility.yul\":22945:22983   */\n      tag_471\n        /* \"#utility.yul\":22977:22981   */\n      dup3\n        /* \"#utility.yul\":22971:22982   */\n      sload\n        /* \"#utility.yul\":22945:22983   */\n      tag_69\n      jump\t// in\n    tag_471:\n        /* \"#utility.yul\":23030:23097   */\n      tag_472\n        /* \"#utility.yul\":23090:23096   */\n      dup3\n        /* \"#utility.yul\":23082:23088   */\n      dup3\n        /* \"#utility.yul\":23076:23080   */\n      dup6\n        /* \"#utility.yul\":23030:23097   */\n      tag_249\n      jump\t// in\n    tag_472:\n        /* \"#utility.yul\":23124:23125   */\n      0x00\n        /* \"#utility.yul\":23148:23152   */\n      0x20\n        /* \"#utility.yul\":23135:23152   */\n      swap1\n      pop\n        /* \"#utility.yul\":23180:23182   */\n      0x1f\n        /* \"#utility.yul\":23172:23178   */\n      dup4\n        /* \"#utility.yul\":23169:23183   */\n      gt\n        /* \"#utility.yul\":23197:23198   */\n      0x01\n        /* \"#utility.yul\":23192:23810   */\n      dup2\n      eq\n      tag_474\n      jumpi\n        /* \"#utility.yul\":23854:23855   */\n      0x00\n        /* \"#utility.yul\":23871:23877   */\n      dup5\n        /* \"#utility.yul\":23868:23945   */\n      iszero\n      tag_475\n      jumpi\n        /* \"#utility.yul\":23920:23929   */\n      dup3\n        /* \"#utility.yul\":23915:23918   */\n      dup8\n        /* \"#utility.yul\":23911:23930   */\n      add\n        /* \"#utility.yul\":23905:23931   */\n      mload\n        /* \"#utility.yul\":23896:23931   */\n      swap1\n      pop\n        /* \"#utility.yul\":23868:23945   */\n    tag_475:\n        /* \"#utility.yul\":23971:24038   */\n      tag_476\n        /* \"#utility.yul\":24031:24037   */\n      dup6\n        /* \"#utility.yul\":24024:24029   */\n      dup3\n        /* \"#utility.yul\":23971:24038   */\n      tag_252\n      jump\t// in\n    tag_476:\n        /* \"#utility.yul\":23965:23969   */\n      dup7\n        /* \"#utility.yul\":23958:24039   */\n      sstore\n        /* \"#utility.yul\":23827:24049   */\n      pop\n        /* \"#utility.yul\":23162:24049   */\n      jump(tag_473)\n        /* \"#utility.yul\":23192:23810   */\n    tag_474:\n        /* \"#utility.yul\":23244:23248   */\n      0x1f\n        /* \"#utility.yul\":23240:23249   */\n      not\n        /* \"#utility.yul\":23232:23238   */\n      dup5\n        /* \"#utility.yul\":23228:23250   */\n      and\n        /* \"#utility.yul\":23278:23315   */\n      tag_477\n        /* \"#utility.yul\":23310:23314   */\n      dup7\n        /* \"#utility.yul\":23278:23315   */\n      tag_238\n      jump\t// in\n    tag_477:\n        /* \"#utility.yul\":23337:23338   */\n      0x00\n        /* \"#utility.yul\":23351:23559   */\n    tag_478:\n        /* \"#utility.yul\":23365:23372   */\n      dup3\n        /* \"#utility.yul\":23362:23363   */\n      dup2\n        /* \"#utility.yul\":23359:23373   */\n      lt\n        /* \"#utility.yul\":23351:23559   */\n      iszero\n      tag_480\n      jumpi\n        /* \"#utility.yul\":23444:23453   */\n      dup5\n        /* \"#utility.yul\":23439:23442   */\n      dup10\n        /* \"#utility.yul\":23435:23454   */\n      add\n        /* \"#utility.yul\":23429:23455   */\n      mload\n        /* \"#utility.yul\":23421:23427   */\n      dup3\n        /* \"#utility.yul\":23414:23456   */\n      sstore\n        /* \"#utility.yul\":23495:23496   */\n      0x01\n        /* \"#utility.yul\":23487:23493   */\n      dup3\n        /* \"#utility.yul\":23483:23497   */\n      add\n        /* \"#utility.yul\":23473:23497   */\n      swap2\n      pop\n        /* \"#utility.yul\":23542:23544   */\n      0x20\n        /* \"#utility.yul\":23531:23540   */\n      dup6\n        /* \"#utility.yul\":23527:23545   */\n      add\n        /* \"#utility.yul\":23514:23545   */\n      swap5\n      pop\n        /* \"#utility.yul\":23388:23392   */\n      0x20\n        /* \"#utility.yul\":23385:23386   */\n      dup2\n        /* \"#utility.yul\":23381:23393   */\n      add\n        /* \"#utility.yul\":23376:23393   */\n      swap1\n      pop\n        /* \"#utility.yul\":23351:23559   */\n      jump(tag_478)\n    tag_480:\n        /* \"#utility.yul\":23587:23593   */\n      dup7\n        /* \"#utility.yul\":23578:23585   */\n      dup4\n        /* \"#utility.yul\":23575:23594   */\n      lt\n        /* \"#utility.yul\":23572:23751   */\n      iszero\n      tag_481\n      jumpi\n        /* \"#utility.yul\":23645:23654   */\n      dup5\n        /* \"#utility.yul\":23640:23643   */\n      dup10\n        /* \"#utility.yul\":23636:23655   */\n      add\n        /* \"#utility.yul\":23630:23656   */\n      mload\n        /* \"#utility.yul\":23688:23736   */\n      tag_482\n        /* \"#utility.yul\":23730:23734   */\n      0x1f\n        /* \"#utility.yul\":23722:23728   */\n      dup10\n        /* \"#utility.yul\":23718:23735   */\n      and\n        /* \"#utility.yul\":23707:23716   */\n      dup3\n        /* \"#utility.yul\":23688:23736   */\n      tag_251\n      jump\t// in\n    tag_482:\n        /* \"#utility.yul\":23680:23686   */\n      dup4\n        /* \"#utility.yul\":23673:23737   */\n      sstore\n        /* \"#utility.yul\":23595:23751   */\n      pop\n        /* \"#utility.yul\":23572:23751   */\n    tag_481:\n        /* \"#utility.yul\":23797:23798   */\n      0x01\n        /* \"#utility.yul\":23793:23794   */\n      0x02\n        /* \"#utility.yul\":23785:23791   */\n      dup9\n        /* \"#utility.yul\":23781:23795   */\n      mul\n        /* \"#utility.yul\":23777:23799   */\n      add\n        /* \"#utility.yul\":23771:23775   */\n      dup9\n        /* \"#utility.yul\":23764:23800   */\n      sstore\n        /* \"#utility.yul\":23199:23810   */\n      pop\n      pop\n      pop\n        /* \"#utility.yul\":23162:24049   */\n    tag_473:\n      pop\n        /* \"#utility.yul\":22752:24055   */\n      pop\n      pop\n      pop\n        /* \"#utility.yul\":22660:24055   */\n      pop\n      pop\n      jump\t// out\n        /* \"#utility.yul\":24061:24294   */\n    tag_140:\n        /* \"#utility.yul\":24100:24103   */\n      0x00\n        /* \"#utility.yul\":24123:24147   */\n      tag_484\n        /* \"#utility.yul\":24141:24146   */\n      dup3\n        /* \"#utility.yul\":24123:24147   */\n      tag_204\n      jump\t// in\n    tag_484:\n        /* \"#utility.yul\":24114:24147   */\n      swap2\n      pop\n        /* \"#utility.yul\":24169:24235   */\n      0xffffffffffffffffffffffffffffffffffffffffffffffffffffffffffffffff\n        /* \"#utility.yul\":24162:24167   */\n      dup3\n        /* \"#utility.yul\":24159:24236   */\n      sub\n        /* \"#utility.yul\":24156:24259   */\n      tag_485\n      jumpi\n        /* \"#utility.yul\":24239:24257   */\n      tag_486\n      tag_230\n      jump\t// in\n    tag_486:\n        /* \"#utility.yul\":24156:24259   */\n    tag_485:\n        /* \"#utility.yul\":24286:24287   */\n      0x01\n        /* \"#utility.yul\":24279:24284   */\n      dup3\n        /* \"#utility.yul\":24275:24288   */\n      add\n        /* \"#utility.yul\":24268:24288   */\n      swap1\n      pop\n        /* \"#utility.yul\":24061:24294   */\n      swap2\n      swap1\n      pop\n      jump\t// out\n        /* \"#utility.yul\":24300:24464   */\n    tag_253:\n        /* \"#utility.yul\":24440:24456   */\n      0x566f74696e67206973206f766572000000000000000000000000000000000000\n        /* \"#utility.yul\":24436:24437   */\n      0x00\n        /* \"#utility.yul\":24428:24434   */\n      dup3\n        /* \"#utility.yul\":24424:24438   */\n      add\n        /* \"#utility.yul\":24417:24457   */\n      mstore\n        /* \"#utility.yul\":24300:24464   */\n      pop\n      jump\t// out\n        /* \"#utility.yul\":24470:24836   */\n    tag_254:\n        /* \"#utility.yul\":24612:24615   */\n      0x00\n        /* \"#utility.yul\":24633:24700   */\n      tag_489\n        /* \"#utility.yul\":24697:24699   */\n      0x0e\n        /* \"#utility.yul\":24692:24695   */\n      dup4\n        /* \"#utility.yul\":24633:24700   */\n      tag_195\n      jump\t// in\n    tag_489:\n        /* \"#utility.yul\":24626:24700   */\n      swap2\n      pop\n        /* \"#utility.yul\":24709:24802   */\n      tag_490\n        /* \"#utility.yul\":24798:24801   */\n      dup3\n        /* \"#utility.yul\":24709:24802   */\n      tag_253\n      jump\t// in\n    tag_490:\n        /* \"#utility.yul\":24827:24829   */\n      0x20\n        /* \"#utility.yul\":24822:24825   */\n      dup3\n        /* \"#utility.yul\":24818:24830   */\n      add\n        /* \"#utility.yul\":24811:24830   */\n      swap1\n      pop\n        /* \"#utility.yul\":24470:24836   */\n      swap2\n      swap1\n      pop\n      jump\t// out\n        /* \"#utility.yul\":24842:25261   */\n    tag_145:\n        /* \"#utility.yul\":25008:25012   */\n      0x00\n        /* \"#utility.yul\":25046:25048   */\n      0x20\n        /* \"#utility.yul\":25035:25044   */\n      dup3\n        /* \"#utility.yul\":25031:25049   */\n      add\n        /* \"#utility.yul\":25023:25049   */\n      swap1\n      pop\n        /* \"#utility.yul\":25095:25104   */\n      dup2\n        /* \"#utility.yul\":25089:25093   */\n      dup2\n        /* \"#utility.yul\":25085:25105   */\n      sub\n        /* \"#utility.yul\":25081:25082   */\n      0x00\n        /* \"#utility.yul\":25070:25079   */\n      dup4\n        /* \"#utility.yul\":25066:25083   */\n      add\n        /* \"#utility.yul\":25059:25106   */\n      mstore\n        /* \"#utility.yul\":25123:25254   */\n      tag_492\n        /* \"#utility.yul\":25249:25253   */\n      dup2\n        /* \"#utility.yul\":25123:25254   */\n      tag_254\n      jump\t// in\n    tag_492:\n        /* \"#utility.yul\":25115:25254   */\n      swap1\n      pop\n        /* \"#utility.yul\":24842:25261   */\n      swap2\n      swap1\n      pop\n      jump\t// out\n        /* \"#utility.yul\":25267:25439   */\n    tag_255:\n        /* \"#utility.yul\":25407:25431   */\n      0x566f74696e6720686173206e6f74207374617274656400000000000000000000\n        /* \"#utility.yul\":25403:25404   */\n      0x00\n        /* \"#utility.yul\":25395:25401   */\n      dup3\n        /* \"#utility.yul\":25391:25405   */\n      add\n        /* \"#utility.yul\":25384:25432   */\n      mstore\n        /* \"#utility.yul\":25267:25439   */\n      pop\n      jump\t// out\n        /* \"#utility.yul\":25445:25811   */\n    tag_256:\n        /* \"#utility.yul\":25587:25590   */\n      0x00\n        /* \"#utility.yul\":25608:25675   */\n      tag_495\n        /* \"#utility.yul\":25672:25674   */\n      0x16\n        /* \"#utility.yul\":25667:25670   */\n      dup4\n        /* \"#utility.yul\":25608:25675   */\n      tag_195\n      jump\t// in\n    tag_495:\n        /* \"#utility.yul\":25601:25675   */\n      swap2\n      pop\n        /* \"#utility.yul\":25684:25777   */\n      tag_496\n        /* \"#utility.yul\":25773:25776   */\n      dup3\n        /* \"#utility.yul\":25684:25777   */\n      tag_255\n      jump\t// in\n    tag_496:\n        /* \"#utility.yul\":25802:25804   */\n      0x20\n        /* \"#utility.yul\":25797:25800   */\n      dup3\n        /* \"#utility.yul\":25793:25805   */\n      add\n        /* \"#utility.yul\":25786:25805   */\n      swap1\n      pop\n        /* \"#utility.yul\":25445:25811   */\n      swap2\n      swap1\n      pop\n      jump\t// out\n        /* \"#utility.yul\":25817:26236   */\n    tag_149:\n        /* \"#utility.yul\":25983:25987   */\n      0x00\n        /* \"#utility.yul\":26021:26023   */\n      0x20\n        /* \"#utility.yul\":26010:26019   */\n      dup3\n        /* \"#utility.yul\":26006:26024   */\n      add\n        /* \"#utility.yul\":25998:26024   */\n      swap1\n      pop\n        /* \"#utility.yul\":26070:26079   */\n      dup2\n        /* \"#utility.yul\":26064:26068   */\n      dup2\n        /* \"#utility.yul\":26060:26080   */\n      sub\n        /* \"#utility.yul\":26056:26057   */\n      0x00\n        /* \"#utility.yul\":26045:26054   */\n      dup4\n        /* \"#utility.yul\":26041:26058   */\n      add\n        /* \"#utility.yul\":26034:26081   */\n      mstore\n        /* \"#utility.yul\":26098:26229   */\n      tag_498\n        /* \"#utility.yul\":26224:26228   */\n      dup2\n        /* \"#utility.yul\":26098:26229   */\n      tag_256\n      jump\t// in\n    tag_498:\n        /* \"#utility.yul\":26090:26229   */\n      swap1\n      pop\n        /* \"#utility.yul\":25817:26236   */\n      swap2\n      swap1\n      pop\n      jump\t// out\n        /* \"#utility.yul\":26242:26465   */\n    tag_257:\n        /* \"#utility.yul\":26382:26416   */\n      0x4e6f7420656e6f7567682063616e646961746573206861766520726567697374\n        /* \"#utility.yul\":26378:26379   */\n      0x00\n        /* \"#utility.yul\":26370:26376   */\n      dup3\n        /* \"#utility.yul\":26366:26380   */\n      add\n        /* \"#utility.yul\":26359:26417   */\n      mstore\n        /* \"#utility.yul\":26451:26457   */\n      0x6572656400000000000000000000000000000000000000000000000000000000\n        /* \"#utility.yul\":26446:26448   */\n      0x20\n        /* \"#utility.yul\":26438:26444   */\n      dup3\n        /* \"#utility.yul\":26434:26449   */\n      add\n        /* \"#utility.yul\":26427:26458   */\n      mstore\n        /* \"#utility.yul\":26242:26465   */\n      pop\n      jump\t// out\n        /* \"#utility.yul\":26471:26837   */\n    tag_258:\n        /* \"#utility.yul\":26613:26616   */\n      0x00\n        /* \"#utility.yul\":26634:26701   */\n      tag_501\n        /* \"#utility.yul\":26698:26700   */\n      0x24\n        /* \"#utility.yul\":26693:26696   */\n      dup4\n        /* \"#utility.yul\":26634:26701   */\n      tag_195\n      jump\t// in\n    tag_501:\n        /* \"#utility.yul\":26627:26701   */\n      swap2\n      pop\n        /* \"#utility.yul\":26710:26803   */\n      tag_502\n        /* \"#utility.yul\":26799:26802   */\n      dup3\n        /* \"#utility.yul\":26710:26803   */\n      tag_257\n      jump\t// in\n    tag_502:\n        /* \"#utility.yul\":26828:26830   */\n      0x40\n        /* \"#utility.yul\":26823:26826   */\n      dup3\n        /* \"#utility.yul\":26819:26831   */\n      add\n        /* \"#utility.yul\":26812:26831   */\n      swap1\n      pop\n        /* \"#utility.yul\":26471:26837   */\n      swap2\n      swap1\n      pop\n      jump\t// out\n        /* \"#utility.yul\":26843:27262   */\n    tag_152:\n        /* \"#utility.yul\":27009:27013   */\n      0x00\n        /* \"#utility.yul\":27047:27049   */\n      0x20\n        /* \"#utility.yul\":27036:27045   */\n      dup3\n        /* \"#utility.yul\":27032:27050   */\n      add\n        /* \"#utility.yul\":27024:27050   */\n      swap1\n      pop\n        /* \"#utility.yul\":27096:27105   */\n      dup2\n        /* \"#utility.yul\":27090:27094   */\n      dup2\n        /* \"#utility.yul\":27086:27106   */\n      sub\n        /* \"#utility.yul\":27082:27083   */\n      0x00\n        /* \"#utility.yul\":27071:27080   */\n      dup4\n        /* \"#utility.yul\":27067:27084   */\n      add\n        /* \"#utility.yul\":27060:27107   */\n      mstore\n        /* \"#utility.yul\":27124:27255   */\n      tag_504\n        /* \"#utility.yul\":27250:27254   */\n      dup2\n        /* \"#utility.yul\":27124:27255   */\n      tag_258\n      jump\t// in\n    tag_504:\n        /* \"#utility.yul\":27116:27255   */\n      swap1\n      pop\n        /* \"#utility.yul\":26843:27262   */\n      swap2\n      swap1\n      pop\n      jump\t// out\n        /* \"#utility.yul\":27268:27488   */\n    tag_259:\n        /* \"#utility.yul\":27408:27442   */\n      0x596f7520617265206e6f742072656769737465726564206173206120766f7465\n        /* \"#utility.yul\":27404:27405   */\n      0x00\n        /* \"#utility.yul\":27396:27402   */\n      dup3\n        /* \"#utility.yul\":27392:27406   */\n      add\n        /* \"#utility.yul\":27385:27443   */\n      mstore\n        /* \"#utility.yul\":27477:27480   */\n      0x7200000000000000000000000000000000000000000000000000000000000000\n        /* \"#utility.yul\":27472:27474   */\n      0x20\n        /* \"#utility.yul\":27464:27470   */\n      dup3\n        /* \"#utility.yul\":27460:27475   */\n      add\n        /* \"#utility.yul\":27453:27481   */\n      mstore\n        /* \"#utility.yul\":27268:27488   */\n      pop\n      jump\t// out\n        /* \"#utility.yul\":27494:27860   */\n    tag_260:\n        /* \"#utility.yul\":27636:27639   */\n      0x00\n        /* \"#utility.yul\":27657:27724   */\n      tag_507\n        /* \"#utility.yul\":27721:27723   */\n      0x21\n        /* \"#utility.yul\":27716:27719   */\n      dup4\n        /* \"#utility.yul\":27657:27724   */\n      tag_195\n      jump\t// in\n    tag_507:\n        /* \"#utility.yul\":27650:27724   */\n      swap2\n      pop\n        /* \"#utility.yul\":27733:27826   */\n      tag_508\n        /* \"#utility.yul\":27822:27825   */\n      dup3\n        /* \"#utility.yul\":27733:27826   */\n      tag_259\n      jump\t// in\n    tag_508:\n        /* \"#utility.yul\":27851:27853   */\n      0x40\n        /* \"#utility.yul\":27846:27849   */\n      dup3\n        /* \"#utility.yul\":27842:27854   */\n      add\n        /* \"#utility.yul\":27835:27854   */\n      swap1\n      pop\n        /* \"#utility.yul\":27494:27860   */\n      swap2\n      swap1\n      pop\n      jump\t// out\n        /* \"#utility.yul\":27866:28285   */\n    tag_156:\n        /* \"#utility.yul\":28032:28036   */\n      0x00\n        /* \"#utility.yul\":28070:28072   */\n      0x20\n        /* \"#utility.yul\":28059:28068   */\n      dup3\n        /* \"#utility.yul\":28055:28073   */\n      add\n        /* \"#utility.yul\":28047:28073   */\n      swap1\n      pop\n        /* \"#utility.yul\":28119:28128   */\n      dup2\n        /* \"#utility.yul\":28113:28117   */\n      dup2\n        /* \"#utility.yul\":28109:28129   */\n      sub\n        /* \"#utility.yul\":28105:28106   */\n      0x00\n        /* \"#utility.yul\":28094:28103   */\n      dup4\n        /* \"#utility.yul\":28090:28107   */\n      add\n        /* \"#utility.yul\":28083:28130   */\n      mstore\n        /* \"#utility.yul\":28147:28278   */\n      tag_510\n        /* \"#utility.yul\":28273:28277   */\n      dup2\n        /* \"#utility.yul\":28147:28278   */\n      tag_260\n      jump\t// in\n    tag_510:\n        /* \"#utility.yul\":28139:28278   */\n      swap1\n      pop\n        /* \"#utility.yul\":27866:28285   */\n      swap2\n      swap1\n      pop\n      jump\t// out\n        /* \"#utility.yul\":28291:28463   */\n    tag_261:\n        /* \"#utility.yul\":28431:28455   */\n      0x596f75206861766520616c726561647920766f74656400000000000000000000\n        /* \"#utility.yul\":28427:28428   */\n      0x00\n        /* \"#utility.yul\":28419:28425   */\n      dup3\n        /* \"#utility.yul\":28415:28429   */\n      add\n        /* \"#utility.yul\":28408:28456   */\n      mstore\n        /* \"#utility.yul\":28291:28463   */\n      pop\n      jump\t// out\n        /* \"#utility.yul\":28469:28835   */\n    tag_262:\n        /* \"#utility.yul\":28611:28614   */\n      0x00\n        /* \"#utility.yul\":28632:28699   */\n      tag_513\n        /* \"#utility.yul\":28696:28698   */\n      0x16\n        /* \"#utility.yul\":28691:28694   */\n      dup4\n        /* \"#utility.yul\":28632:28699   */\n      tag_195\n      jump\t// in\n    tag_513:\n        /* \"#utility.yul\":28625:28699   */\n      swap2\n      pop\n        /* \"#utility.yul\":28708:28801   */\n      tag_514\n        /* \"#utility.yul\":28797:28800   */\n      dup3\n        /* \"#utility.yul\":28708:28801   */\n      tag_261\n      jump\t// in\n    tag_514:\n        /* \"#utility.yul\":28826:28828   */\n      0x20\n        /* \"#utility.yul\":28821:28824   */\n      dup3\n        /* \"#utility.yul\":28817:28829   */\n      add\n        /* \"#utility.yul\":28810:28829   */\n      swap1\n      pop\n        /* \"#utility.yul\":28469:28835   */\n      swap2\n      swap1\n      pop\n      jump\t// out\n        /* \"#utility.yul\":28841:29260   */\n    tag_159:\n        /* \"#utility.yul\":29007:29011   */\n      0x00\n        /* \"#utility.yul\":29045:29047   */\n      0x20\n        /* \"#utility.yul\":29034:29043   */\n      dup3\n        /* \"#utility.yul\":29030:29048   */\n      add\n        /* \"#utility.yul\":29022:29048   */\n      swap1\n      pop\n        /* \"#utility.yul\":29094:29103   */\n      dup2\n        /* \"#utility.yul\":29088:29092   */\n      dup2\n        /* \"#utility.yul\":29084:29104   */\n      sub\n        /* \"#utility.yul\":29080:29081   */\n      0x00\n        /* \"#utility.yul\":29069:29078   */\n      dup4\n        /* \"#utility.yul\":29065:29082   */\n      add\n        /* \"#utility.yul\":29058:29105   */\n      mstore\n        /* \"#utility.yul\":29122:29253   */\n      tag_516\n        /* \"#utility.yul\":29248:29252   */\n      dup2\n        /* \"#utility.yul\":29122:29253   */\n      tag_262\n      jump\t// in\n    tag_516:\n        /* \"#utility.yul\":29114:29253   */\n      swap1\n      pop\n        /* \"#utility.yul\":28841:29260   */\n      swap2\n      swap1\n      pop\n      jump\t// out\n        /* \"#utility.yul\":29266:29510   */\n    tag_263:\n        /* \"#utility.yul\":29406:29440   */\n      0x54686520706572736f6e20796f752077616e7420746f20766f7465206973206e\n        /* \"#utility.yul\":29402:29403   */\n      0x00\n        /* \"#utility.yul\":29394:29400   */\n      dup3\n        /* \"#utility.yul\":29390:29404   */\n      add\n        /* \"#utility.yul\":29383:29441   */\n      mstore\n        /* \"#utility.yul\":29475:29502   */\n      0x6f74206120726567697374657265642063616e64696461746500000000000000\n        /* \"#utility.yul\":29470:29472   */\n      0x20\n        /* \"#utility.yul\":29462:29468   */\n      dup3\n        /* \"#utility.yul\":29458:29473   */\n      add\n        /* \"#utility.yul\":29451:29503   */\n      mstore\n        /* \"#utility.yul\":29266:29510   */\n      pop\n      jump\t// out\n        /* \"#utility.yul\":29516:29882   */\n    tag_264:\n        /* \"#utility.yul\":29658:29661   */\n      0x00\n        /* \"#utility.yul\":29679:29746   */\n      tag_519\n        /* \"#utility.yul\":29743:29745   */\n      0x39\n        /* \"#utility.yul\":29738:29741   */\n      dup4\n        /* \"#utility.yul\":29679:29746   */\n      tag_195\n      jump\t// in\n    tag_519:\n        /* \"#utility.yul\":29672:29746   */\n      swap2\n      pop\n        /* \"#utility.yul\":29755:29848   */\n      tag_520\n        /* \"#utility.yul\":29844:29847   */\n      dup3\n        /* \"#utility.yul\":29755:29848   */\n      tag_263\n      jump\t// in\n    tag_520:\n        /* \"#utility.yul\":29873:29875   */\n      0x40\n        /* \"#utility.yul\":29868:29871   */\n      dup3\n        /* \"#utility.yul\":29864:29876   */\n      add\n        /* \"#utility.yul\":29857:29876   */\n      swap1\n      pop\n        /* \"#utility.yul\":29516:29882   */\n      swap2\n      swap1\n      pop\n      jump\t// out\n        /* \"#utility.yul\":29888:30307   */\n    tag_163:\n        /* \"#utility.yul\":30054:30058   */\n      0x00\n        /* \"#utility.yul\":30092:30094   */\n      0x20\n        /* \"#utility.yul\":30081:30090   */\n      dup3\n        /* \"#utility.yul\":30077:30095   */\n      add\n        /* \"#utility.yul\":30069:30095   */\n      swap1\n      pop\n        /* \"#utility.yul\":30141:30150   */\n      dup2\n        /* \"#utility.yul\":30135:30139   */\n      dup2\n        /* \"#utility.yul\":30131:30151   */\n      sub\n        /* \"#utility.yul\":30127:30128   */\n      0x00\n        /* \"#utility.yul\":30116:30125   */\n      dup4\n        /* \"#utility.yul\":30112:30129   */\n      add\n        /* \"#utility.yul\":30105:30152   */\n      mstore\n        /* \"#utility.yul\":30169:30300   */\n      tag_522\n        /* \"#utility.yul\":30295:30299   */\n      dup2\n        /* \"#utility.yul\":30169:30300   */\n      tag_264\n      jump\t// in\n    tag_522:\n        /* \"#utility.yul\":30161:30300   */\n      swap1\n      pop\n        /* \"#utility.yul\":29888:30307   */\n      swap2\n      swap1\n      pop\n      jump\t// out\n        /* \"#utility.yul\":30313:30490   */\n    tag_265:\n        /* \"#utility.yul\":30453:30482   */\n      0x596f75206861766520616c726561647920726567697374657265640000000000\n        /* \"#utility.yul\":30449:30450   */\n      0x00\n        /* \"#utility.yul\":30441:30447   */\n      dup3\n        /* \"#utility.yul\":30437:30451   */\n      add\n        /* \"#utility.yul\":30430:30483   */\n      mstore\n        /* \"#utility.yul\":30313:30490   */\n      pop\n      jump\t// out\n        /* \"#utility.yul\":30496:30862   */\n    tag_266:\n        /* \"#utility.yul\":30638:30641   */\n      0x00\n        /* \"#utility.yul\":30659:30726   */\n      tag_525\n        /* \"#utility.yul\":30723:30725   */\n      0x1b\n        /* \"#utility.yul\":30718:30721   */\n      dup4\n        /* \"#utility.yul\":30659:30726   */\n      tag_195\n      jump\t// in\n    tag_525:\n        /* \"#utility.yul\":30652:30726   */\n      swap2\n      pop\n        /* \"#utility.yul\":30735:30828   */\n      tag_526\n        /* \"#utility.yul\":30824:30827   */\n      dup3\n        /* \"#utility.yul\":30735:30828   */\n      tag_265\n      jump\t// in\n    tag_526:\n        /* \"#utility.yul\":30853:30855   */\n      0x20\n        /* \"#utility.yul\":30848:30851   */\n      dup3\n        /* \"#utility.yul\":30844:30856   */\n      add\n        /* \"#utility.yul\":30837:30856   */\n      swap1\n      pop\n        /* \"#utility.yul\":30496:30862   */\n      swap2\n      swap1\n      pop\n      jump\t// out\n        /* \"#utility.yul\":30868:31287   */\n    tag_176:\n        /* \"#utility.yul\":31034:31038   */\n      0x00\n        /* \"#utility.yul\":31072:31074   */\n      0x20\n        /* \"#utility.yul\":31061:31070   */\n      dup3\n        /* \"#utility.yul\":31057:31075   */\n      add\n        /* \"#utility.yul\":31049:31075   */\n      swap1\n      pop\n        /* \"#utility.yul\":31121:31130   */\n      dup2\n        /* \"#utility.yul\":31115:31119   */\n      dup2\n        /* \"#utility.yul\":31111:31131   */\n      sub\n        /* \"#utility.yul\":31107:31108   */\n      0x00\n        /* \"#utility.yul\":31096:31105   */\n      dup4\n        /* \"#utility.yul\":31092:31109   */\n      add\n        /* \"#utility.yul\":31085:31132   */\n      mstore\n        /* \"#utility.yul\":31149:31280   */\n      tag_528\n        /* \"#utility.yul\":31275:31279   */\n      dup2\n        /* \"#utility.yul\":31149:31280   */\n      tag_266\n      jump\t// in\n    tag_528:\n        /* \"#utility.yul\":31141:31280   */\n      swap1\n      pop\n        /* \"#utility.yul\":30868:31287   */\n      swap2\n      swap1\n      pop\n      jump\t// out\n        /* \"#utility.yul\":31293:31470   */\n    tag_267:\n        /* \"#utility.yul\":31433:31462   */\n      0x43616e64696461746520726567697374726174696f6e2066756c6c0000000000\n        /* \"#utility.yul\":31429:31430   */\n      0x00\n        /* \"#utility.yul\":31421:31427   */\n      dup3\n        /* \"#utility.yul\":31417:31431   */\n      add\n        /* \"#utility.yul\":31410:31463   */\n      mstore\n        /* \"#utility.yul\":31293:31470   */\n      pop\n      jump\t// out\n        /* \"#utility.yul\":31476:31842   */\n    tag_268:\n        /* \"#utility.yul\":31618:31621   */\n      0x00\n        /* \"#utility.yul\":31639:31706   */\n      tag_531\n        /* \"#utility.yul\":31703:31705   */\n      0x1b\n        /* \"#utility.yul\":31698:31701   */\n      dup4\n        /* \"#utility.yul\":31639:31706   */\n      tag_195\n      jump\t// in\n    tag_531:\n        /* \"#utility.yul\":31632:31706   */\n      swap2\n      pop\n        /* \"#utility.yul\":31715:31808   */\n      tag_532\n        /* \"#utility.yul\":31804:31807   */\n      dup3\n        /* \"#utility.yul\":31715:31808   */\n      tag_267\n      jump\t// in\n    tag_532:\n        /* \"#utility.yul\":31833:31835   */\n      0x20\n        /* \"#utility.yul\":31828:31831   */\n      dup3\n        /* \"#utility.yul\":31824:31836   */\n      add\n        /* \"#utility.yul\":31817:31836   */\n      swap1\n      pop\n        /* \"#utility.yul\":31476:31842   */\n      swap2\n      swap1\n      pop\n      jump\t// out\n        /* \"#utility.yul\":31848:32267   */\n    tag_179:\n        /* \"#utility.yul\":32014:32018   */\n      0x00\n        /* \"#utility.yul\":32052:32054   */\n      0x20\n        /* \"#utility.yul\":32041:32050   */\n      dup3\n        /* \"#utility.yul\":32037:32055   */\n      add\n        /* \"#utility.yul\":32029:32055   */\n      swap1\n      pop\n        /* \"#utility.yul\":32101:32110   */\n      dup2\n        /* \"#utility.yul\":32095:32099   */\n      dup2\n        /* \"#utility.yul\":32091:32111   */\n      sub\n        /* \"#utility.yul\":32087:32088   */\n      0x00\n        /* \"#utility.yul\":32076:32085   */\n      dup4\n        /* \"#utility.yul\":32072:32089   */\n      add\n        /* \"#utility.yul\":32065:32112   */\n      mstore\n        /* \"#utility.yul\":32129:32260   */\n      tag_534\n        /* \"#utility.yul\":32255:32259   */\n      dup2\n        /* \"#utility.yul\":32129:32260   */\n      tag_268\n      jump\t// in\n    tag_534:\n        /* \"#utility.yul\":32121:32260   */\n      swap1\n      pop\n        /* \"#utility.yul\":31848:32267   */\n      swap2\n      swap1\n      pop\n      jump\t// out\n\n    auxdata: 0xa2646970667358221220ed6faf39965f41e551f64b094bd3b687dd8c4e6f44abf271d8f6d8e99773911064736f6c634300081a0033\n}\n",
				"bytecode": {
					"linkReferences": {},
					"object": "6080604052600160025560016003553480156018575f80fd5b50335f806101000a81548173ffffffffffffffffffffffffffffffffffffffff021916908373ffffffffffffffffffffffffffffffffffffffff16021790555061231c806100655f395ff3fe608060405234801561000f575f80fd5b506004361061009c575f3560e01c806393e5fed21161006457806393e5fed214610120578063b384abef1461013c578063caa6fea414610158578063cf5ce2e714610162578063dfbf53ae1461017e5761009c565b806319f41a40146100a057806324089918146100be578063498ea441146100dc57806365372147146100fa57806365ca2be314610104575b5f80fd5b6100a861019c565b6040516100b591906113e2565b60405180910390f35b6100c6610284565b6040516100d391906115e9565b60405180910390f35b6100e46104e8565b6040516100f1919061176b565b60405180910390f35b6101026107dc565b005b61011e600480360381019061011991906117bd565b610937565b005b61013a6004803603810190610135919061185c565b6109e1565b005b610156600480360381019061015191906117bd565b610bfa565b005b610160610e1e565b005b61017c600480360381019061017791906118ed565b610ec7565b005b610186611186565b60405161019391906119c0565b60405180910390f35b60605f600454036101e4576040518060400160405280601681526020017f566f74696e6720686173206e6f742073746172746564000000000000000000008152509050610281565b6005544210801561020657505f151560085f9054906101000a900460ff161515145b15610248576040518060400160405280601281526020017f566f74696e6720696e2070726f677265737300000000000000000000000000008152509050610281565b6040518060400160405280601081526020017f566f74696e672068617320656e6465640000000000000000000000000000000081525090505b90565b60605f60016002546102969190611a06565b67ffffffffffffffff8111156102af576102ae611a39565b5b6040519080825280602002602001820160405280156102e857816020015b6102d56112db565b8152602001906001900390816102cd5790505b5090505f600190505b6002548110156104e05760065f8281526020019081526020015f206040518060c00160405290815f8201805461032690611a93565b80601f016020809104026020016040519081016040528092919081815260200182805461035290611a93565b801561039d5780601f106103745761010080835404028352916020019161039d565b820191905f5260205f20905b81548152906001019060200180831161038057829003601f168201915b5050505050815260200160018201548152602001600282015481526020016003820180546103ca90611a93565b80601f01602080910402602001604051908101604052809291908181526020018280546103f690611a93565b80156104415780601f1061041857610100808354040283529160200191610441565b820191905f5260205f20905b81548152906001019060200180831161042457829003601f168201915b5050505050815260200160048201548152602001600582015f9054906101000a900473ffffffffffffffffffffffffffffffffffffffff1673ffffffffffffffffffffffffffffffffffffffff1673ffffffffffffffffffffffffffffffffffffffff1681525050826001836104b79190611a06565b815181106104c8576104c7611ac3565b5b602002602001018190525080806001019150506102f1565b508091505090565b60605f60016003546104fa9190611a06565b67ffffffffffffffff81111561051357610512611a39565b5b60405190808252806020026020018201604052801561054c57816020015b610539611323565b8152602001906001900390816105315790505b5090505f600190505b6003548110156107d45760075f8281526020019081526020015f206040518060e00160405290815f8201805461058a90611a93565b80601f01602080910402602001604051908101604052809291908181526020018280546105b690611a93565b80156106015780601f106105d857610100808354040283529160200191610601565b820191905f5260205f20905b8154815290600101906020018083116105e457829003601f168201915b5050505050815260200160018201805461061a90611a93565b80601f016020809104026020016040519081016040528092919081815260200182805461064690611a93565b80156106915780601f1061066857610100808354040283529160200191610691565b820191905f5260205f20905b81548152906001019060200180831161067457829003601f168201915b50505050508152602001600282015481526020016003820180546106b490611a93565b80601f01602080910402602001604051908101604052809291908181526020018280546106e090611a93565b801561072b5780601f106107025761010080835404028352916020019161072b565b820191905f5260205f20905b81548152906001019060200180831161070e57829003601f168201915b5050505050815260200160048201548152602001600582015f9054906101000a900473ffffffffffffffffffffffffffffffffffffffff1673ffffffffffffffffffffffffffffffffffffffff1673ffffffffffffffffffffffffffffffffffffffff168152602001600682015481525050826001836107ab9190611a06565b815181106107bc576107bb611ac3565b5b60200260200101819052508080600101915050610555565b508091505090565b5f8054906101000a900473ffffffffffffffffffffffffffffffffffffffff1673ffffffffffffffffffffffffffffffffffffffff163373ffffffffffffffffffffffffffffffffffffffff1614610869576040517f08c379a000000000000000000000000000000000000000000000000000000000815260040161086090611b60565b60405180910390fd5b5f805f600190505b6003548110156108bf578260075f8381526020019081526020015f206006015411156108b25760075f8281526020019081526020015f206006015492508091505b8080600101915050610871565b5060075f8281526020019081526020015f206005015f9054906101000a900473ffffffffffffffffffffffffffffffffffffffff1660015f6101000a81548173ffffffffffffffffffffffffffffffffffffffff021916908373ffffffffffffffffffffffffffffffffffffffff1602179055505050565b5f8054906101000a900473ffffffffffffffffffffffffffffffffffffffff1673ffffffffffffffffffffffffffffffffffffffff163373ffffffffffffffffffffffffffffffffffffffff16146109c4576040517f08c379a00000000000000000000000000000000000000000000000000000000081526004016109bb90611b60565b60405180910390fd5b8160048190555080826109d79190611b7e565b6005819055505050565b6012831015610a25576040517f08c379a0000000000000000000000000000000000000000000000000000000008152600401610a1c90611bfb565b60405180910390fd5b610a2e336111ab565b610a6d576040517f08c379a0000000000000000000000000000000000000000000000000000000008152600401610a6490611c63565b60405180910390fd5b6040518060c0016040528086868080601f0160208091040260200160405190810160405280939291908181526020018383808284375f81840152601f19601f820116905080830192505050505050508152602001848152602001600254815260200183838080601f0160208091040260200160405190810160405280939291908181526020018383808284375f81840152601f19601f8201169050808301925050505050505081526020015f81526020013373ffffffffffffffffffffffffffffffffffffffff1681525060065f60025481526020019081526020015f205f820151815f019081610b5e9190611e1e565b5060208201518160010155604082015181600201556060820151816003019081610b889190611e1e565b506080820151816004015560a0820151816005015f6101000a81548173ffffffffffffffffffffffffffffffffffffffff021916908373ffffffffffffffffffffffffffffffffffffffff16021790555090505060025f815480929190610bee90611eed565b91905055505050505050565b60055442108015610c1c57505f151560085f9054906101000a900460ff161515145b610c5b576040517f08c379a0000000000000000000000000000000000000000000000000000000008152600401610c5290611f7e565b60405180910390fd5b5f60045403610c9f576040517f08c379a0000000000000000000000000000000000000000000000000000000008152600401610c9690611fe6565b60405180910390fd5b600380541015610ce4576040517f08c379a0000000000000000000000000000000000000000000000000000000008152600401610cdb90612074565b60405180910390fd5b5f82118015610cf4575060025482105b610d33576040517f08c379a0000000000000000000000000000000000000000000000000000000008152600401610d2a90612102565b60405180910390fd5b5f60065f8481526020019081526020015f206004015414610d89576040517f08c379a0000000000000000000000000000000000000000000000000000000008152600401610d809061216a565b60405180910390fd5b5f81118015610d99575060035481105b610dd8576040517f08c379a0000000000000000000000000000000000000000000000000000000008152600401610dcf906121f8565b60405180910390fd5b8060065f8481526020019081526020015f206004018190555060075f8281526020019081526020015f206006015f815480929190610e1590611eed565b91905055505050565b5f8054906101000a900473ffffffffffffffffffffffffffffffffffffffff1673ffffffffffffffffffffffffffffffffffffffff163373ffffffffffffffffffffffffffffffffffffffff1614610eab576040517f08c379a0000000000000000000000000000000000000000000000000000000008152600401610ea290611b60565b60405180910390fd5b600160085f6101000a81548160ff021916908315150217905550565b6012831015610f0b576040517f08c379a0000000000000000000000000000000000000000000000000000000008152600401610f0290611bfb565b60405180910390fd5b610f1433611243565b610f53576040517f08c379a0000000000000000000000000000000000000000000000000000000008152600401610f4a90612260565b60405180910390fd5b600560035410610f98576040517f08c379a0000000000000000000000000000000000000000000000000000000008152600401610f8f906122c8565b60405180910390fd5b6040518060e0016040528088888080601f0160208091040260200160405190810160405280939291908181526020018383808284375f81840152601f19601f82011690508083019250505050505050815260200186868080601f0160208091040260200160405190810160405280939291908181526020018383808284375f81840152601f19601f82011690508083019250505050505050815260200184815260200183838080601f0160208091040260200160405190810160405280939291908181526020018383808284375f81840152601f19601f82011690508083019250505050505050815260200160035481526020013373ffffffffffffffffffffffffffffffffffffffff1681526020015f81525060075f60035481526020019081526020015f205f820151815f0190816110d29190611e1e565b5060208201518160010190816110e89190611e1e565b506040820151816002015560608201518160030190816111089190611e1e565b506080820151816004015560a0820151816005015f6101000a81548173ffffffffffffffffffffffffffffffffffffffff021916908373ffffffffffffffffffffffffffffffffffffffff16021790555060c0820151816006015590505060035f81548092919061117890611eed565b919050555050505050505050565b60015f9054906101000a900473ffffffffffffffffffffffffffffffffffffffff1681565b5f80600190505b600254811015611238578273ffffffffffffffffffffffffffffffffffffffff1660065f8381526020019081526020015f206005015f9054906101000a900473ffffffffffffffffffffffffffffffffffffffff1673ffffffffffffffffffffffffffffffffffffffff160361122b575f91505061123e565b80806001019150506111b2565b50600190505b919050565b5f80600190505b6003548110156112d0578273ffffffffffffffffffffffffffffffffffffffff1660075f8381526020019081526020015f206005015f9054906101000a900473ffffffffffffffffffffffffffffffffffffffff1673ffffffffffffffffffffffffffffffffffffffff16036112c3575f9150506112d6565b808060010191505061124a565b50600190505b919050565b6040518060c00160405280606081526020015f81526020015f8152602001606081526020015f81526020015f73ffffffffffffffffffffffffffffffffffffffff1681525090565b6040518060e0016040528060608152602001606081526020015f8152602001606081526020015f81526020015f73ffffffffffffffffffffffffffffffffffffffff1681526020015f81525090565b5f81519050919050565b5f82825260208201905092915050565b8281835e5f83830152505050565b5f601f19601f8301169050919050565b5f6113b482611372565b6113be818561137c565b93506113ce81856020860161138c565b6113d78161139a565b840191505092915050565b5f6020820190508181035f8301526113fa81846113aa565b905092915050565b5f81519050919050565b5f82825260208201905092915050565b5f819050602082019050919050565b5f82825260208201905092915050565b5f61144582611372565b61144f818561142b565b935061145f81856020860161138c565b6114688161139a565b840191505092915050565b5f819050919050565b61148581611473565b82525050565b5f73ffffffffffffffffffffffffffffffffffffffff82169050919050565b5f6114b48261148b565b9050919050565b6114c4816114aa565b82525050565b5f60c083015f8301518482035f8601526114e4828261143b565b91505060208301516114f9602086018261147c565b50604083015161150c604086018261147c565b5060608301518482036060860152611524828261143b565b9150506080830151611539608086018261147c565b5060a083015161154c60a08601826114bb565b508091505092915050565b5f61156283836114ca565b905092915050565b5f602082019050919050565b5f61158082611402565b61158a818561140c565b93508360208202850161159c8561141c565b805f5b858110156115d757848403895281516115b88582611557565b94506115c38361156a565b925060208a0199505060018101905061159f565b50829750879550505050505092915050565b5f6020820190508181035f8301526116018184611576565b905092915050565b5f81519050919050565b5f82825260208201905092915050565b5f819050602082019050919050565b5f60e083015f8301518482035f86015261164c828261143b565b91505060208301518482036020860152611666828261143b565b915050604083015161167b604086018261147c565b5060608301518482036060860152611693828261143b565b91505060808301516116a8608086018261147c565b5060a08301516116bb60a08601826114bb565b5060c08301516116ce60c086018261147c565b508091505092915050565b5f6116e48383611632565b905092915050565b5f602082019050919050565b5f61170282611609565b61170c8185611613565b93508360208202850161171e85611623565b805f5b85811015611759578484038952815161173a85826116d9565b9450611745836116ec565b925060208a01995050600181019050611721565b50829750879550505050505092915050565b5f6020820190508181035f83015261178381846116f8565b905092915050565b5f80fd5b5f80fd5b61179c81611473565b81146117a6575f80fd5b50565b5f813590506117b781611793565b92915050565b5f80604083850312156117d3576117d261178b565b5b5f6117e0858286016117a9565b92505060206117f1858286016117a9565b9150509250929050565b5f80fd5b5f80fd5b5f80fd5b5f8083601f84011261181c5761181b6117fb565b5b8235905067ffffffffffffffff811115611839576118386117ff565b5b60208301915083600182028301111561185557611854611803565b5b9250929050565b5f805f805f606086880312156118755761187461178b565b5b5f86013567ffffffffffffffff8111156118925761189161178f565b5b61189e88828901611807565b955095505060206118b1888289016117a9565b935050604086013567ffffffffffffffff8111156118d2576118d161178f565b5b6118de88828901611807565b92509250509295509295909350565b5f805f805f805f6080888a0312156119085761190761178b565b5b5f88013567ffffffffffffffff8111156119255761192461178f565b5b6119318a828b01611807565b9750975050602088013567ffffffffffffffff8111156119545761195361178f565b5b6119608a828b01611807565b955095505060406119738a828b016117a9565b935050606088013567ffffffffffffffff8111156119945761199361178f565b5b6119a08a828b01611807565b925092505092959891949750929550565b6119ba816114aa565b82525050565b5f6020820190506119d35f8301846119b1565b92915050565b7f4e487b71000000000000000000000000000000000000000000000000000000005f52601160045260245ffd5b5f611a1082611473565b9150611a1b83611473565b9250828203905081811115611a3357611a326119d9565b5b92915050565b7f4e487b71000000000000000000000000000000000000000000000000000000005f52604160045260245ffd5b7f4e487b71000000000000000000000000000000000000000000000000000000005f52602260045260245ffd5b5f6002820490506001821680611aaa57607f821691505b602082108103611abd57611abc611a66565b5b50919050565b7f4e487b71000000000000000000000000000000000000000000000000000000005f52603260045260245ffd5b7f596f7520617265206e6f742066726f6d20456c656374696f6e20436f6d6d69735f8201527f696f6e0000000000000000000000000000000000000000000000000000000000602082015250565b5f611b4a60238361137c565b9150611b5582611af0565b604082019050919050565b5f6020820190508181035f830152611b7781611b3e565b9050919050565b5f611b8882611473565b9150611b9383611473565b9250828201905080821115611bab57611baa6119d9565b5b92915050565b7f41676520697320756e64657220313800000000000000000000000000000000005f82015250565b5f611be5600f8361137c565b9150611bf082611bb1565b602082019050919050565b5f6020820190508181035f830152611c1281611bd9565b9050919050565b7f566f74657220616c7265616479207265676973746572656400000000000000005f82015250565b5f611c4d60188361137c565b9150611c5882611c19565b602082019050919050565b5f6020820190508181035f830152611c7a81611c41565b9050919050565b5f819050815f5260205f209050919050565b5f6020601f8301049050919050565b5f82821b905092915050565b5f60088302611cdd7fffffffffffffffffffffffffffffffffffffffffffffffffffffffffffffffff82611ca2565b611ce78683611ca2565b95508019841693508086168417925050509392505050565b5f819050919050565b5f611d22611d1d611d1884611473565b611cff565b611473565b9050919050565b5f819050919050565b611d3b83611d08565b611d4f611d4782611d29565b848454611cae565b825550505050565b5f90565b611d63611d57565b611d6e818484611d32565b505050565b5b81811015611d9157611d865f82611d5b565b600181019050611d74565b5050565b601f821115611dd657611da781611c81565b611db084611c93565b81016020851015611dbf578190505b611dd3611dcb85611c93565b830182611d73565b50505b505050565b5f82821c905092915050565b5f611df65f1984600802611ddb565b1980831691505092915050565b5f611e0e8383611de7565b9150826002028217905092915050565b611e2782611372565b67ffffffffffffffff811115611e4057611e3f611a39565b5b611e4a8254611a93565b611e55828285611d95565b5f60209050601f831160018114611e86575f8415611e74578287015190505b611e7e8582611e03565b865550611ee5565b601f198416611e9486611c81565b5f5b82811015611ebb57848901518255600182019150602085019450602081019050611e96565b86831015611ed85784890151611ed4601f891682611de7565b8355505b6001600288020188555050505b505050505050565b5f611ef782611473565b91507fffffffffffffffffffffffffffffffffffffffffffffffffffffffffffffffff8203611f2957611f286119d9565b5b600182019050919050565b7f566f74696e67206973206f7665720000000000000000000000000000000000005f82015250565b5f611f68600e8361137c565b9150611f7382611f34565b602082019050919050565b5f6020820190508181035f830152611f9581611f5c565b9050919050565b7f566f74696e6720686173206e6f742073746172746564000000000000000000005f82015250565b5f611fd060168361137c565b9150611fdb82611f9c565b602082019050919050565b5f6020820190508181035f830152611ffd81611fc4565b9050919050565b7f4e6f7420656e6f7567682063616e6469617465732068617665207265676973745f8201527f6572656400000000000000000000000000000000000000000000000000000000602082015250565b5f61205e60248361137c565b915061206982612004565b604082019050919050565b5f6020820190508181035f83015261208b81612052565b9050919050565b7f596f7520617265206e6f742072656769737465726564206173206120766f74655f8201527f7200000000000000000000000000000000000000000000000000000000000000602082015250565b5f6120ec60218361137c565b91506120f782612092565b604082019050919050565b5f6020820190508181035f830152612119816120e0565b9050919050565b7f596f75206861766520616c726561647920766f746564000000000000000000005f82015250565b5f61215460168361137c565b915061215f82612120565b602082019050919050565b5f6020820190508181035f83015261218181612148565b9050919050565b7f54686520706572736f6e20796f752077616e7420746f20766f7465206973206e5f8201527f6f74206120726567697374657265642063616e64696461746500000000000000602082015250565b5f6121e260398361137c565b91506121ed82612188565b604082019050919050565b5f6020820190508181035f83015261220f816121d6565b9050919050565b7f596f75206861766520616c7265616479207265676973746572656400000000005f82015250565b5f61224a601b8361137c565b915061225582612216565b602082019050919050565b5f6020820190508181035f8301526122778161223e565b9050919050565b7f43616e64696461746520726567697374726174696f6e2066756c6c00000000005f82015250565b5f6122b2601b8361137c565b91506122bd8261227e565b602082019050919050565b5f6020820190508181035f8301526122df816122a6565b905091905056fea2646970667358221220ed6faf39965f41e551f64b094bd3b687dd8c4e6f44abf271d8f6d8e99773911064736f6c634300081a0033",
					"opcodes": "PUSH1 0x80 PUSH1 0x40 MSTORE PUSH1 0x1 PUSH1 0x2 SSTORE PUSH1 0x1 PUSH1 0x3 SSTORE CALLVALUE DUP1 ISZERO PUSH1 0x18 JUMPI PUSH0 DUP1 REVERT JUMPDEST POP CALLER PUSH0 DUP1 PUSH2 0x100 EXP DUP2 SLOAD DUP2 PUSH20 0xFFFFFFFFFFFFFFFFFFFFFFFFFFFFFFFFFFFFFFFF MUL NOT AND SWAP1 DUP4 PUSH20 0xFFFFFFFFFFFFFFFFFFFFFFFFFFFFFFFFFFFFFFFF AND MUL OR SWAP1 SSTORE POP PUSH2 0x231C DUP1 PUSH2 0x65 PUSH0 CODECOPY PUSH0 RETURN INVALID PUSH1 0x80 PUSH1 0x40 MSTORE CALLVALUE DUP1 ISZERO PUSH2 0xF JUMPI PUSH0 DUP1 REVERT JUMPDEST POP PUSH1 0x4 CALLDATASIZE LT PUSH2 0x9C JUMPI PUSH0 CALLDATALOAD PUSH1 0xE0 SHR DUP1 PUSH4 0x93E5FED2 GT PUSH2 0x64 JUMPI DUP1 PUSH4 0x93E5FED2 EQ PUSH2 0x120 JUMPI DUP1 PUSH4 0xB384ABEF EQ PUSH2 0x13C JUMPI DUP1 PUSH4 0xCAA6FEA4 EQ PUSH2 0x158 JUMPI DUP1 PUSH4 0xCF5CE2E7 EQ PUSH2 0x162 JUMPI DUP1 PUSH4 0xDFBF53AE EQ PUSH2 0x17E JUMPI PUSH2 0x9C JUMP JUMPDEST DUP1 PUSH4 0x19F41A40 EQ PUSH2 0xA0 JUMPI DUP1 PUSH4 0x24089918 EQ PUSH2 0xBE JUMPI DUP1 PUSH4 0x498EA441 EQ PUSH2 0xDC JUMPI DUP1 PUSH4 0x65372147 EQ PUSH2 0xFA JUMPI DUP1 PUSH4 0x65CA2BE3 EQ PUSH2 0x104 JUMPI JUMPDEST PUSH0 DUP1 REVERT JUMPDEST PUSH2 0xA8 PUSH2 0x19C JUMP JUMPDEST PUSH1 0x40 MLOAD PUSH2 0xB5 SWAP2 SWAP1 PUSH2 0x13E2 JUMP JUMPDEST PUSH1 0x40 MLOAD DUP1 SWAP2 SUB SWAP1 RETURN JUMPDEST PUSH2 0xC6 PUSH2 0x284 JUMP JUMPDEST PUSH1 0x40 MLOAD PUSH2 0xD3 SWAP2 SWAP1 PUSH2 0x15E9 JUMP JUMPDEST PUSH1 0x40 MLOAD DUP1 SWAP2 SUB SWAP1 RETURN JUMPDEST PUSH2 0xE4 PUSH2 0x4E8 JUMP JUMPDEST PUSH1 0x40 MLOAD PUSH2 0xF1 SWAP2 SWAP1 PUSH2 0x176B JUMP JUMPDEST PUSH1 0x40 MLOAD DUP1 SWAP2 SUB SWAP1 RETURN JUMPDEST PUSH2 0x102 PUSH2 0x7DC JUMP JUMPDEST STOP JUMPDEST PUSH2 0x11E PUSH1 0x4 DUP1 CALLDATASIZE SUB DUP2 ADD SWAP1 PUSH2 0x119 SWAP2 SWAP1 PUSH2 0x17BD JUMP JUMPDEST PUSH2 0x937 JUMP JUMPDEST STOP JUMPDEST PUSH2 0x13A PUSH1 0x4 DUP1 CALLDATASIZE SUB DUP2 ADD SWAP1 PUSH2 0x135 SWAP2 SWAP1 PUSH2 0x185C JUMP JUMPDEST PUSH2 0x9E1 JUMP JUMPDEST STOP JUMPDEST PUSH2 0x156 PUSH1 0x4 DUP1 CALLDATASIZE SUB DUP2 ADD SWAP1 PUSH2 0x151 SWAP2 SWAP1 PUSH2 0x17BD JUMP JUMPDEST PUSH2 0xBFA JUMP JUMPDEST STOP JUMPDEST PUSH2 0x160 PUSH2 0xE1E JUMP JUMPDEST STOP JUMPDEST PUSH2 0x17C PUSH1 0x4 DUP1 CALLDATASIZE SUB DUP2 ADD SWAP1 PUSH2 0x177 SWAP2 SWAP1 PUSH2 0x18ED JUMP JUMPDEST PUSH2 0xEC7 JUMP JUMPDEST STOP JUMPDEST PUSH2 0x186 PUSH2 0x1186 JUMP JUMPDEST PUSH1 0x40 MLOAD PUSH2 0x193 SWAP2 SWAP1 PUSH2 0x19C0 JUMP JUMPDEST PUSH1 0x40 MLOAD DUP1 SWAP2 SUB SWAP1 RETURN JUMPDEST PUSH1 0x60 PUSH0 PUSH1 0x4 SLOAD SUB PUSH2 0x1E4 JUMPI PUSH1 0x40 MLOAD DUP1 PUSH1 0x40 ADD PUSH1 0x40 MSTORE DUP1 PUSH1 0x16 DUP2 MSTORE PUSH1 0x20 ADD PUSH32 0x566F74696E6720686173206E6F74207374617274656400000000000000000000 DUP2 MSTORE POP SWAP1 POP PUSH2 0x281 JUMP JUMPDEST PUSH1 0x5 SLOAD TIMESTAMP LT DUP1 ISZERO PUSH2 0x206 JUMPI POP PUSH0 ISZERO ISZERO PUSH1 0x8 PUSH0 SWAP1 SLOAD SWAP1 PUSH2 0x100 EXP SWAP1 DIV PUSH1 0xFF AND ISZERO ISZERO EQ JUMPDEST ISZERO PUSH2 0x248 JUMPI PUSH1 0x40 MLOAD DUP1 PUSH1 0x40 ADD PUSH1 0x40 MSTORE DUP1 PUSH1 0x12 DUP2 MSTORE PUSH1 0x20 ADD PUSH32 0x566F74696E6720696E2070726F67726573730000000000000000000000000000 DUP2 MSTORE POP SWAP1 POP PUSH2 0x281 JUMP JUMPDEST PUSH1 0x40 MLOAD DUP1 PUSH1 0x40 ADD PUSH1 0x40 MSTORE DUP1 PUSH1 0x10 DUP2 MSTORE PUSH1 0x20 ADD PUSH32 0x566F74696E672068617320656E64656400000000000000000000000000000000 DUP2 MSTORE POP SWAP1 POP JUMPDEST SWAP1 JUMP JUMPDEST PUSH1 0x60 PUSH0 PUSH1 0x1 PUSH1 0x2 SLOAD PUSH2 0x296 SWAP2 SWAP1 PUSH2 0x1A06 JUMP JUMPDEST PUSH8 0xFFFFFFFFFFFFFFFF DUP2 GT ISZERO PUSH2 0x2AF JUMPI PUSH2 0x2AE PUSH2 0x1A39 JUMP JUMPDEST JUMPDEST PUSH1 0x40 MLOAD SWAP1 DUP1 DUP3 MSTORE DUP1 PUSH1 0x20 MUL PUSH1 0x20 ADD DUP3 ADD PUSH1 0x40 MSTORE DUP1 ISZERO PUSH2 0x2E8 JUMPI DUP2 PUSH1 0x20 ADD JUMPDEST PUSH2 0x2D5 PUSH2 0x12DB JUMP JUMPDEST DUP2 MSTORE PUSH1 0x20 ADD SWAP1 PUSH1 0x1 SWAP1 SUB SWAP1 DUP2 PUSH2 0x2CD JUMPI SWAP1 POP JUMPDEST POP SWAP1 POP PUSH0 PUSH1 0x1 SWAP1 POP JUMPDEST PUSH1 0x2 SLOAD DUP2 LT ISZERO PUSH2 0x4E0 JUMPI PUSH1 0x6 PUSH0 DUP3 DUP2 MSTORE PUSH1 0x20 ADD SWAP1 DUP2 MSTORE PUSH1 0x20 ADD PUSH0 KECCAK256 PUSH1 0x40 MLOAD DUP1 PUSH1 0xC0 ADD PUSH1 0x40 MSTORE SWAP1 DUP2 PUSH0 DUP3 ADD DUP1 SLOAD PUSH2 0x326 SWAP1 PUSH2 0x1A93 JUMP JUMPDEST DUP1 PUSH1 0x1F ADD PUSH1 0x20 DUP1 SWAP2 DIV MUL PUSH1 0x20 ADD PUSH1 0x40 MLOAD SWAP1 DUP2 ADD PUSH1 0x40 MSTORE DUP1 SWAP3 SWAP2 SWAP1 DUP2 DUP2 MSTORE PUSH1 0x20 ADD DUP3 DUP1 SLOAD PUSH2 0x352 SWAP1 PUSH2 0x1A93 JUMP JUMPDEST DUP1 ISZERO PUSH2 0x39D JUMPI DUP1 PUSH1 0x1F LT PUSH2 0x374 JUMPI PUSH2 0x100 DUP1 DUP4 SLOAD DIV MUL DUP4 MSTORE SWAP2 PUSH1 0x20 ADD SWAP2 PUSH2 0x39D JUMP JUMPDEST DUP3 ADD SWAP2 SWAP1 PUSH0 MSTORE PUSH1 0x20 PUSH0 KECCAK256 SWAP1 JUMPDEST DUP2 SLOAD DUP2 MSTORE SWAP1 PUSH1 0x1 ADD SWAP1 PUSH1 0x20 ADD DUP1 DUP4 GT PUSH2 0x380 JUMPI DUP3 SWAP1 SUB PUSH1 0x1F AND DUP3 ADD SWAP2 JUMPDEST POP POP POP POP POP DUP2 MSTORE PUSH1 0x20 ADD PUSH1 0x1 DUP3 ADD SLOAD DUP2 MSTORE PUSH1 0x20 ADD PUSH1 0x2 DUP3 ADD SLOAD DUP2 MSTORE PUSH1 0x20 ADD PUSH1 0x3 DUP3 ADD DUP1 SLOAD PUSH2 0x3CA SWAP1 PUSH2 0x1A93 JUMP JUMPDEST DUP1 PUSH1 0x1F ADD PUSH1 0x20 DUP1 SWAP2 DIV MUL PUSH1 0x20 ADD PUSH1 0x40 MLOAD SWAP1 DUP2 ADD PUSH1 0x40 MSTORE DUP1 SWAP3 SWAP2 SWAP1 DUP2 DUP2 MSTORE PUSH1 0x20 ADD DUP3 DUP1 SLOAD PUSH2 0x3F6 SWAP1 PUSH2 0x1A93 JUMP JUMPDEST DUP1 ISZERO PUSH2 0x441 JUMPI DUP1 PUSH1 0x1F LT PUSH2 0x418 JUMPI PUSH2 0x100 DUP1 DUP4 SLOAD DIV MUL DUP4 MSTORE SWAP2 PUSH1 0x20 ADD SWAP2 PUSH2 0x441 JUMP JUMPDEST DUP3 ADD SWAP2 SWAP1 PUSH0 MSTORE PUSH1 0x20 PUSH0 KECCAK256 SWAP1 JUMPDEST DUP2 SLOAD DUP2 MSTORE SWAP1 PUSH1 0x1 ADD SWAP1 PUSH1 0x20 ADD DUP1 DUP4 GT PUSH2 0x424 JUMPI DUP3 SWAP1 SUB PUSH1 0x1F AND DUP3 ADD SWAP2 JUMPDEST POP POP POP POP POP DUP2 MSTORE PUSH1 0x20 ADD PUSH1 0x4 DUP3 ADD SLOAD DUP2 MSTORE PUSH1 0x20 ADD PUSH1 0x5 DUP3 ADD PUSH0 SWAP1 SLOAD SWAP1 PUSH2 0x100 EXP SWAP1 DIV PUSH20 0xFFFFFFFFFFFFFFFFFFFFFFFFFFFFFFFFFFFFFFFF AND PUSH20 0xFFFFFFFFFFFFFFFFFFFFFFFFFFFFFFFFFFFFFFFF AND PUSH20 0xFFFFFFFFFFFFFFFFFFFFFFFFFFFFFFFFFFFFFFFF AND DUP2 MSTORE POP POP DUP3 PUSH1 0x1 DUP4 PUSH2 0x4B7 SWAP2 SWAP1 PUSH2 0x1A06 JUMP JUMPDEST DUP2 MLOAD DUP2 LT PUSH2 0x4C8 JUMPI PUSH2 0x4C7 PUSH2 0x1AC3 JUMP JUMPDEST JUMPDEST PUSH1 0x20 MUL PUSH1 0x20 ADD ADD DUP2 SWAP1 MSTORE POP DUP1 DUP1 PUSH1 0x1 ADD SWAP2 POP POP PUSH2 0x2F1 JUMP JUMPDEST POP DUP1 SWAP2 POP POP SWAP1 JUMP JUMPDEST PUSH1 0x60 PUSH0 PUSH1 0x1 PUSH1 0x3 SLOAD PUSH2 0x4FA SWAP2 SWAP1 PUSH2 0x1A06 JUMP JUMPDEST PUSH8 0xFFFFFFFFFFFFFFFF DUP2 GT ISZERO PUSH2 0x513 JUMPI PUSH2 0x512 PUSH2 0x1A39 JUMP JUMPDEST JUMPDEST PUSH1 0x40 MLOAD SWAP1 DUP1 DUP3 MSTORE DUP1 PUSH1 0x20 MUL PUSH1 0x20 ADD DUP3 ADD PUSH1 0x40 MSTORE DUP1 ISZERO PUSH2 0x54C JUMPI DUP2 PUSH1 0x20 ADD JUMPDEST PUSH2 0x539 PUSH2 0x1323 JUMP JUMPDEST DUP2 MSTORE PUSH1 0x20 ADD SWAP1 PUSH1 0x1 SWAP1 SUB SWAP1 DUP2 PUSH2 0x531 JUMPI SWAP1 POP JUMPDEST POP SWAP1 POP PUSH0 PUSH1 0x1 SWAP1 POP JUMPDEST PUSH1 0x3 SLOAD DUP2 LT ISZERO PUSH2 0x7D4 JUMPI PUSH1 0x7 PUSH0 DUP3 DUP2 MSTORE PUSH1 0x20 ADD SWAP1 DUP2 MSTORE PUSH1 0x20 ADD PUSH0 KECCAK256 PUSH1 0x40 MLOAD DUP1 PUSH1 0xE0 ADD PUSH1 0x40 MSTORE SWAP1 DUP2 PUSH0 DUP3 ADD DUP1 SLOAD PUSH2 0x58A SWAP1 PUSH2 0x1A93 JUMP JUMPDEST DUP1 PUSH1 0x1F ADD PUSH1 0x20 DUP1 SWAP2 DIV MUL PUSH1 0x20 ADD PUSH1 0x40 MLOAD SWAP1 DUP2 ADD PUSH1 0x40 MSTORE DUP1 SWAP3 SWAP2 SWAP1 DUP2 DUP2 MSTORE PUSH1 0x20 ADD DUP3 DUP1 SLOAD PUSH2 0x5B6 SWAP1 PUSH2 0x1A93 JUMP JUMPDEST DUP1 ISZERO PUSH2 0x601 JUMPI DUP1 PUSH1 0x1F LT PUSH2 0x5D8 JUMPI PUSH2 0x100 DUP1 DUP4 SLOAD DIV MUL DUP4 MSTORE SWAP2 PUSH1 0x20 ADD SWAP2 PUSH2 0x601 JUMP JUMPDEST DUP3 ADD SWAP2 SWAP1 PUSH0 MSTORE PUSH1 0x20 PUSH0 KECCAK256 SWAP1 JUMPDEST DUP2 SLOAD DUP2 MSTORE SWAP1 PUSH1 0x1 ADD SWAP1 PUSH1 0x20 ADD DUP1 DUP4 GT PUSH2 0x5E4 JUMPI DUP3 SWAP1 SUB PUSH1 0x1F AND DUP3 ADD SWAP2 JUMPDEST POP POP POP POP POP DUP2 MSTORE PUSH1 0x20 ADD PUSH1 0x1 DUP3 ADD DUP1 SLOAD PUSH2 0x61A SWAP1 PUSH2 0x1A93 JUMP JUMPDEST DUP1 PUSH1 0x1F ADD PUSH1 0x20 DUP1 SWAP2 DIV MUL PUSH1 0x20 ADD PUSH1 0x40 MLOAD SWAP1 DUP2 ADD PUSH1 0x40 MSTORE DUP1 SWAP3 SWAP2 SWAP1 DUP2 DUP2 MSTORE PUSH1 0x20 ADD DUP3 DUP1 SLOAD PUSH2 0x646 SWAP1 PUSH2 0x1A93 JUMP JUMPDEST DUP1 ISZERO PUSH2 0x691 JUMPI DUP1 PUSH1 0x1F LT PUSH2 0x668 JUMPI PUSH2 0x100 DUP1 DUP4 SLOAD DIV MUL DUP4 MSTORE SWAP2 PUSH1 0x20 ADD SWAP2 PUSH2 0x691 JUMP JUMPDEST DUP3 ADD SWAP2 SWAP1 PUSH0 MSTORE PUSH1 0x20 PUSH0 KECCAK256 SWAP1 JUMPDEST DUP2 SLOAD DUP2 MSTORE SWAP1 PUSH1 0x1 ADD SWAP1 PUSH1 0x20 ADD DUP1 DUP4 GT PUSH2 0x674 JUMPI DUP3 SWAP1 SUB PUSH1 0x1F AND DUP3 ADD SWAP2 JUMPDEST POP POP POP POP POP DUP2 MSTORE PUSH1 0x20 ADD PUSH1 0x2 DUP3 ADD SLOAD DUP2 MSTORE PUSH1 0x20 ADD PUSH1 0x3 DUP3 ADD DUP1 SLOAD PUSH2 0x6B4 SWAP1 PUSH2 0x1A93 JUMP JUMPDEST DUP1 PUSH1 0x1F ADD PUSH1 0x20 DUP1 SWAP2 DIV MUL PUSH1 0x20 ADD PUSH1 0x40 MLOAD SWAP1 DUP2 ADD PUSH1 0x40 MSTORE DUP1 SWAP3 SWAP2 SWAP1 DUP2 DUP2 MSTORE PUSH1 0x20 ADD DUP3 DUP1 SLOAD PUSH2 0x6E0 SWAP1 PUSH2 0x1A93 JUMP JUMPDEST DUP1 ISZERO PUSH2 0x72B JUMPI DUP1 PUSH1 0x1F LT PUSH2 0x702 JUMPI PUSH2 0x100 DUP1 DUP4 SLOAD DIV MUL DUP4 MSTORE SWAP2 PUSH1 0x20 ADD SWAP2 PUSH2 0x72B JUMP JUMPDEST DUP3 ADD SWAP2 SWAP1 PUSH0 MSTORE PUSH1 0x20 PUSH0 KECCAK256 SWAP1 JUMPDEST DUP2 SLOAD DUP2 MSTORE SWAP1 PUSH1 0x1 ADD SWAP1 PUSH1 0x20 ADD DUP1 DUP4 GT PUSH2 0x70E JUMPI DUP3 SWAP1 SUB PUSH1 0x1F AND DUP3 ADD SWAP2 JUMPDEST POP POP POP POP POP DUP2 MSTORE PUSH1 0x20 ADD PUSH1 0x4 DUP3 ADD SLOAD DUP2 MSTORE PUSH1 0x20 ADD PUSH1 0x5 DUP3 ADD PUSH0 SWAP1 SLOAD SWAP1 PUSH2 0x100 EXP SWAP1 DIV PUSH20 0xFFFFFFFFFFFFFFFFFFFFFFFFFFFFFFFFFFFFFFFF AND PUSH20 0xFFFFFFFFFFFFFFFFFFFFFFFFFFFFFFFFFFFFFFFF AND PUSH20 0xFFFFFFFFFFFFFFFFFFFFFFFFFFFFFFFFFFFFFFFF AND DUP2 MSTORE PUSH1 0x20 ADD PUSH1 0x6 DUP3 ADD SLOAD DUP2 MSTORE POP POP DUP3 PUSH1 0x1 DUP4 PUSH2 0x7AB SWAP2 SWAP1 PUSH2 0x1A06 JUMP JUMPDEST DUP2 MLOAD DUP2 LT PUSH2 0x7BC JUMPI PUSH2 0x7BB PUSH2 0x1AC3 JUMP JUMPDEST JUMPDEST PUSH1 0x20 MUL PUSH1 0x20 ADD ADD DUP2 SWAP1 MSTORE POP DUP1 DUP1 PUSH1 0x1 ADD SWAP2 POP POP PUSH2 0x555 JUMP JUMPDEST POP DUP1 SWAP2 POP POP SWAP1 JUMP JUMPDEST PUSH0 DUP1 SLOAD SWAP1 PUSH2 0x100 EXP SWAP1 DIV PUSH20 0xFFFFFFFFFFFFFFFFFFFFFFFFFFFFFFFFFFFFFFFF AND PUSH20 0xFFFFFFFFFFFFFFFFFFFFFFFFFFFFFFFFFFFFFFFF AND CALLER PUSH20 0xFFFFFFFFFFFFFFFFFFFFFFFFFFFFFFFFFFFFFFFF AND EQ PUSH2 0x869 JUMPI PUSH1 0x40 MLOAD PUSH32 0x8C379A000000000000000000000000000000000000000000000000000000000 DUP2 MSTORE PUSH1 0x4 ADD PUSH2 0x860 SWAP1 PUSH2 0x1B60 JUMP JUMPDEST PUSH1 0x40 MLOAD DUP1 SWAP2 SUB SWAP1 REVERT JUMPDEST PUSH0 DUP1 PUSH0 PUSH1 0x1 SWAP1 POP JUMPDEST PUSH1 0x3 SLOAD DUP2 LT ISZERO PUSH2 0x8BF JUMPI DUP3 PUSH1 0x7 PUSH0 DUP4 DUP2 MSTORE PUSH1 0x20 ADD SWAP1 DUP2 MSTORE PUSH1 0x20 ADD PUSH0 KECCAK256 PUSH1 0x6 ADD SLOAD GT ISZERO PUSH2 0x8B2 JUMPI PUSH1 0x7 PUSH0 DUP3 DUP2 MSTORE PUSH1 0x20 ADD SWAP1 DUP2 MSTORE PUSH1 0x20 ADD PUSH0 KECCAK256 PUSH1 0x6 ADD SLOAD SWAP3 POP DUP1 SWAP2 POP JUMPDEST DUP1 DUP1 PUSH1 0x1 ADD SWAP2 POP POP PUSH2 0x871 JUMP JUMPDEST POP PUSH1 0x7 PUSH0 DUP3 DUP2 MSTORE PUSH1 0x20 ADD SWAP1 DUP2 MSTORE PUSH1 0x20 ADD PUSH0 KECCAK256 PUSH1 0x5 ADD PUSH0 SWAP1 SLOAD SWAP1 PUSH2 0x100 EXP SWAP1 DIV PUSH20 0xFFFFFFFFFFFFFFFFFFFFFFFFFFFFFFFFFFFFFFFF AND PUSH1 0x1 PUSH0 PUSH2 0x100 EXP DUP2 SLOAD DUP2 PUSH20 0xFFFFFFFFFFFFFFFFFFFFFFFFFFFFFFFFFFFFFFFF MUL NOT AND SWAP1 DUP4 PUSH20 0xFFFFFFFFFFFFFFFFFFFFFFFFFFFFFFFFFFFFFFFF AND MUL OR SWAP1 SSTORE POP POP POP JUMP JUMPDEST PUSH0 DUP1 SLOAD SWAP1 PUSH2 0x100 EXP SWAP1 DIV PUSH20 0xFFFFFFFFFFFFFFFFFFFFFFFFFFFFFFFFFFFFFFFF AND PUSH20 0xFFFFFFFFFFFFFFFFFFFFFFFFFFFFFFFFFFFFFFFF AND CALLER PUSH20 0xFFFFFFFFFFFFFFFFFFFFFFFFFFFFFFFFFFFFFFFF AND EQ PUSH2 0x9C4 JUMPI PUSH1 0x40 MLOAD PUSH32 0x8C379A000000000000000000000000000000000000000000000000000000000 DUP2 MSTORE PUSH1 0x4 ADD PUSH2 0x9BB SWAP1 PUSH2 0x1B60 JUMP JUMPDEST PUSH1 0x40 MLOAD DUP1 SWAP2 SUB SWAP1 REVERT JUMPDEST DUP2 PUSH1 0x4 DUP2 SWAP1 SSTORE POP DUP1 DUP3 PUSH2 0x9D7 SWAP2 SWAP1 PUSH2 0x1B7E JUMP JUMPDEST PUSH1 0x5 DUP2 SWAP1 SSTORE POP POP POP JUMP JUMPDEST PUSH1 0x12 DUP4 LT ISZERO PUSH2 0xA25 JUMPI PUSH1 0x40 MLOAD PUSH32 0x8C379A000000000000000000000000000000000000000000000000000000000 DUP2 MSTORE PUSH1 0x4 ADD PUSH2 0xA1C SWAP1 PUSH2 0x1BFB JUMP JUMPDEST PUSH1 0x40 MLOAD DUP1 SWAP2 SUB SWAP1 REVERT JUMPDEST PUSH2 0xA2E CALLER PUSH2 0x11AB JUMP JUMPDEST PUSH2 0xA6D JUMPI PUSH1 0x40 MLOAD PUSH32 0x8C379A000000000000000000000000000000000000000000000000000000000 DUP2 MSTORE PUSH1 0x4 ADD PUSH2 0xA64 SWAP1 PUSH2 0x1C63 JUMP JUMPDEST PUSH1 0x40 MLOAD DUP1 SWAP2 SUB SWAP1 REVERT JUMPDEST PUSH1 0x40 MLOAD DUP1 PUSH1 0xC0 ADD PUSH1 0x40 MSTORE DUP1 DUP7 DUP7 DUP1 DUP1 PUSH1 0x1F ADD PUSH1 0x20 DUP1 SWAP2 DIV MUL PUSH1 0x20 ADD PUSH1 0x40 MLOAD SWAP1 DUP2 ADD PUSH1 0x40 MSTORE DUP1 SWAP4 SWAP3 SWAP2 SWAP1 DUP2 DUP2 MSTORE PUSH1 0x20 ADD DUP4 DUP4 DUP1 DUP3 DUP5 CALLDATACOPY PUSH0 DUP2 DUP5 ADD MSTORE PUSH1 0x1F NOT PUSH1 0x1F DUP3 ADD AND SWAP1 POP DUP1 DUP4 ADD SWAP3 POP POP POP POP POP POP POP DUP2 MSTORE PUSH1 0x20 ADD DUP5 DUP2 MSTORE PUSH1 0x20 ADD PUSH1 0x2 SLOAD DUP2 MSTORE PUSH1 0x20 ADD DUP4 DUP4 DUP1 DUP1 PUSH1 0x1F ADD PUSH1 0x20 DUP1 SWAP2 DIV MUL PUSH1 0x20 ADD PUSH1 0x40 MLOAD SWAP1 DUP2 ADD PUSH1 0x40 MSTORE DUP1 SWAP4 SWAP3 SWAP2 SWAP1 DUP2 DUP2 MSTORE PUSH1 0x20 ADD DUP4 DUP4 DUP1 DUP3 DUP5 CALLDATACOPY PUSH0 DUP2 DUP5 ADD MSTORE PUSH1 0x1F NOT PUSH1 0x1F DUP3 ADD AND SWAP1 POP DUP1 DUP4 ADD SWAP3 POP POP POP POP POP POP POP DUP2 MSTORE PUSH1 0x20 ADD PUSH0 DUP2 MSTORE PUSH1 0x20 ADD CALLER PUSH20 0xFFFFFFFFFFFFFFFFFFFFFFFFFFFFFFFFFFFFFFFF AND DUP2 MSTORE POP PUSH1 0x6 PUSH0 PUSH1 0x2 SLOAD DUP2 MSTORE PUSH1 0x20 ADD SWAP1 DUP2 MSTORE PUSH1 0x20 ADD PUSH0 KECCAK256 PUSH0 DUP3 ADD MLOAD DUP2 PUSH0 ADD SWAP1 DUP2 PUSH2 0xB5E SWAP2 SWAP1 PUSH2 0x1E1E JUMP JUMPDEST POP PUSH1 0x20 DUP3 ADD MLOAD DUP2 PUSH1 0x1 ADD SSTORE PUSH1 0x40 DUP3 ADD MLOAD DUP2 PUSH1 0x2 ADD SSTORE PUSH1 0x60 DUP3 ADD MLOAD DUP2 PUSH1 0x3 ADD SWAP1 DUP2 PUSH2 0xB88 SWAP2 SWAP1 PUSH2 0x1E1E JUMP JUMPDEST POP PUSH1 0x80 DUP3 ADD MLOAD DUP2 PUSH1 0x4 ADD SSTORE PUSH1 0xA0 DUP3 ADD MLOAD DUP2 PUSH1 0x5 ADD PUSH0 PUSH2 0x100 EXP DUP2 SLOAD DUP2 PUSH20 0xFFFFFFFFFFFFFFFFFFFFFFFFFFFFFFFFFFFFFFFF MUL NOT AND SWAP1 DUP4 PUSH20 0xFFFFFFFFFFFFFFFFFFFFFFFFFFFFFFFFFFFFFFFF AND MUL OR SWAP1 SSTORE POP SWAP1 POP POP PUSH1 0x2 PUSH0 DUP2 SLOAD DUP1 SWAP3 SWAP2 SWAP1 PUSH2 0xBEE SWAP1 PUSH2 0x1EED JUMP JUMPDEST SWAP2 SWAP1 POP SSTORE POP POP POP POP POP POP JUMP JUMPDEST PUSH1 0x5 SLOAD TIMESTAMP LT DUP1 ISZERO PUSH2 0xC1C JUMPI POP PUSH0 ISZERO ISZERO PUSH1 0x8 PUSH0 SWAP1 SLOAD SWAP1 PUSH2 0x100 EXP SWAP1 DIV PUSH1 0xFF AND ISZERO ISZERO EQ JUMPDEST PUSH2 0xC5B JUMPI PUSH1 0x40 MLOAD PUSH32 0x8C379A000000000000000000000000000000000000000000000000000000000 DUP2 MSTORE PUSH1 0x4 ADD PUSH2 0xC52 SWAP1 PUSH2 0x1F7E JUMP JUMPDEST PUSH1 0x40 MLOAD DUP1 SWAP2 SUB SWAP1 REVERT JUMPDEST PUSH0 PUSH1 0x4 SLOAD SUB PUSH2 0xC9F JUMPI PUSH1 0x40 MLOAD PUSH32 0x8C379A000000000000000000000000000000000000000000000000000000000 DUP2 MSTORE PUSH1 0x4 ADD PUSH2 0xC96 SWAP1 PUSH2 0x1FE6 JUMP JUMPDEST PUSH1 0x40 MLOAD DUP1 SWAP2 SUB SWAP1 REVERT JUMPDEST PUSH1 0x3 DUP1 SLOAD LT ISZERO PUSH2 0xCE4 JUMPI PUSH1 0x40 MLOAD PUSH32 0x8C379A000000000000000000000000000000000000000000000000000000000 DUP2 MSTORE PUSH1 0x4 ADD PUSH2 0xCDB SWAP1 PUSH2 0x2074 JUMP JUMPDEST PUSH1 0x40 MLOAD DUP1 SWAP2 SUB SWAP1 REVERT JUMPDEST PUSH0 DUP3 GT DUP1 ISZERO PUSH2 0xCF4 JUMPI POP PUSH1 0x2 SLOAD DUP3 LT JUMPDEST PUSH2 0xD33 JUMPI PUSH1 0x40 MLOAD PUSH32 0x8C379A000000000000000000000000000000000000000000000000000000000 DUP2 MSTORE PUSH1 0x4 ADD PUSH2 0xD2A SWAP1 PUSH2 0x2102 JUMP JUMPDEST PUSH1 0x40 MLOAD DUP1 SWAP2 SUB SWAP1 REVERT JUMPDEST PUSH0 PUSH1 0x6 PUSH0 DUP5 DUP2 MSTORE PUSH1 0x20 ADD SWAP1 DUP2 MSTORE PUSH1 0x20 ADD PUSH0 KECCAK256 PUSH1 0x4 ADD SLOAD EQ PUSH2 0xD89 JUMPI PUSH1 0x40 MLOAD PUSH32 0x8C379A000000000000000000000000000000000000000000000000000000000 DUP2 MSTORE PUSH1 0x4 ADD PUSH2 0xD80 SWAP1 PUSH2 0x216A JUMP JUMPDEST PUSH1 0x40 MLOAD DUP1 SWAP2 SUB SWAP1 REVERT JUMPDEST PUSH0 DUP2 GT DUP1 ISZERO PUSH2 0xD99 JUMPI POP PUSH1 0x3 SLOAD DUP2 LT JUMPDEST PUSH2 0xDD8 JUMPI PUSH1 0x40 MLOAD PUSH32 0x8C379A000000000000000000000000000000000000000000000000000000000 DUP2 MSTORE PUSH1 0x4 ADD PUSH2 0xDCF SWAP1 PUSH2 0x21F8 JUMP JUMPDEST PUSH1 0x40 MLOAD DUP1 SWAP2 SUB SWAP1 REVERT JUMPDEST DUP1 PUSH1 0x6 PUSH0 DUP5 DUP2 MSTORE PUSH1 0x20 ADD SWAP1 DUP2 MSTORE PUSH1 0x20 ADD PUSH0 KECCAK256 PUSH1 0x4 ADD DUP2 SWAP1 SSTORE POP PUSH1 0x7 PUSH0 DUP3 DUP2 MSTORE PUSH1 0x20 ADD SWAP1 DUP2 MSTORE PUSH1 0x20 ADD PUSH0 KECCAK256 PUSH1 0x6 ADD PUSH0 DUP2 SLOAD DUP1 SWAP3 SWAP2 SWAP1 PUSH2 0xE15 SWAP1 PUSH2 0x1EED JUMP JUMPDEST SWAP2 SWAP1 POP SSTORE POP POP POP JUMP JUMPDEST PUSH0 DUP1 SLOAD SWAP1 PUSH2 0x100 EXP SWAP1 DIV PUSH20 0xFFFFFFFFFFFFFFFFFFFFFFFFFFFFFFFFFFFFFFFF AND PUSH20 0xFFFFFFFFFFFFFFFFFFFFFFFFFFFFFFFFFFFFFFFF AND CALLER PUSH20 0xFFFFFFFFFFFFFFFFFFFFFFFFFFFFFFFFFFFFFFFF AND EQ PUSH2 0xEAB JUMPI PUSH1 0x40 MLOAD PUSH32 0x8C379A000000000000000000000000000000000000000000000000000000000 DUP2 MSTORE PUSH1 0x4 ADD PUSH2 0xEA2 SWAP1 PUSH2 0x1B60 JUMP JUMPDEST PUSH1 0x40 MLOAD DUP1 SWAP2 SUB SWAP1 REVERT JUMPDEST PUSH1 0x1 PUSH1 0x8 PUSH0 PUSH2 0x100 EXP DUP2 SLOAD DUP2 PUSH1 0xFF MUL NOT AND SWAP1 DUP4 ISZERO ISZERO MUL OR SWAP1 SSTORE POP JUMP JUMPDEST PUSH1 0x12 DUP4 LT ISZERO PUSH2 0xF0B JUMPI PUSH1 0x40 MLOAD PUSH32 0x8C379A000000000000000000000000000000000000000000000000000000000 DUP2 MSTORE PUSH1 0x4 ADD PUSH2 0xF02 SWAP1 PUSH2 0x1BFB JUMP JUMPDEST PUSH1 0x40 MLOAD DUP1 SWAP2 SUB SWAP1 REVERT JUMPDEST PUSH2 0xF14 CALLER PUSH2 0x1243 JUMP JUMPDEST PUSH2 0xF53 JUMPI PUSH1 0x40 MLOAD PUSH32 0x8C379A000000000000000000000000000000000000000000000000000000000 DUP2 MSTORE PUSH1 0x4 ADD PUSH2 0xF4A SWAP1 PUSH2 0x2260 JUMP JUMPDEST PUSH1 0x40 MLOAD DUP1 SWAP2 SUB SWAP1 REVERT JUMPDEST PUSH1 0x5 PUSH1 0x3 SLOAD LT PUSH2 0xF98 JUMPI PUSH1 0x40 MLOAD PUSH32 0x8C379A000000000000000000000000000000000000000000000000000000000 DUP2 MSTORE PUSH1 0x4 ADD PUSH2 0xF8F SWAP1 PUSH2 0x22C8 JUMP JUMPDEST PUSH1 0x40 MLOAD DUP1 SWAP2 SUB SWAP1 REVERT JUMPDEST PUSH1 0x40 MLOAD DUP1 PUSH1 0xE0 ADD PUSH1 0x40 MSTORE DUP1 DUP9 DUP9 DUP1 DUP1 PUSH1 0x1F ADD PUSH1 0x20 DUP1 SWAP2 DIV MUL PUSH1 0x20 ADD PUSH1 0x40 MLOAD SWAP1 DUP2 ADD PUSH1 0x40 MSTORE DUP1 SWAP4 SWAP3 SWAP2 SWAP1 DUP2 DUP2 MSTORE PUSH1 0x20 ADD DUP4 DUP4 DUP1 DUP3 DUP5 CALLDATACOPY PUSH0 DUP2 DUP5 ADD MSTORE PUSH1 0x1F NOT PUSH1 0x1F DUP3 ADD AND SWAP1 POP DUP1 DUP4 ADD SWAP3 POP POP POP POP POP POP POP DUP2 MSTORE PUSH1 0x20 ADD DUP7 DUP7 DUP1 DUP1 PUSH1 0x1F ADD PUSH1 0x20 DUP1 SWAP2 DIV MUL PUSH1 0x20 ADD PUSH1 0x40 MLOAD SWAP1 DUP2 ADD PUSH1 0x40 MSTORE DUP1 SWAP4 SWAP3 SWAP2 SWAP1 DUP2 DUP2 MSTORE PUSH1 0x20 ADD DUP4 DUP4 DUP1 DUP3 DUP5 CALLDATACOPY PUSH0 DUP2 DUP5 ADD MSTORE PUSH1 0x1F NOT PUSH1 0x1F DUP3 ADD AND SWAP1 POP DUP1 DUP4 ADD SWAP3 POP POP POP POP POP POP POP DUP2 MSTORE PUSH1 0x20 ADD DUP5 DUP2 MSTORE PUSH1 0x20 ADD DUP4 DUP4 DUP1 DUP1 PUSH1 0x1F ADD PUSH1 0x20 DUP1 SWAP2 DIV MUL PUSH1 0x20 ADD PUSH1 0x40 MLOAD SWAP1 DUP2 ADD PUSH1 0x40 MSTORE DUP1 SWAP4 SWAP3 SWAP2 SWAP1 DUP2 DUP2 MSTORE PUSH1 0x20 ADD DUP4 DUP4 DUP1 DUP3 DUP5 CALLDATACOPY PUSH0 DUP2 DUP5 ADD MSTORE PUSH1 0x1F NOT PUSH1 0x1F DUP3 ADD AND SWAP1 POP DUP1 DUP4 ADD SWAP3 POP POP POP POP POP POP POP DUP2 MSTORE PUSH1 0x20 ADD PUSH1 0x3 SLOAD DUP2 MSTORE PUSH1 0x20 ADD CALLER PUSH20 0xFFFFFFFFFFFFFFFFFFFFFFFFFFFFFFFFFFFFFFFF AND DUP2 MSTORE PUSH1 0x20 ADD PUSH0 DUP2 MSTORE POP PUSH1 0x7 PUSH0 PUSH1 0x3 SLOAD DUP2 MSTORE PUSH1 0x20 ADD SWAP1 DUP2 MSTORE PUSH1 0x20 ADD PUSH0 KECCAK256 PUSH0 DUP3 ADD MLOAD DUP2 PUSH0 ADD SWAP1 DUP2 PUSH2 0x10D2 SWAP2 SWAP1 PUSH2 0x1E1E JUMP JUMPDEST POP PUSH1 0x20 DUP3 ADD MLOAD DUP2 PUSH1 0x1 ADD SWAP1 DUP2 PUSH2 0x10E8 SWAP2 SWAP1 PUSH2 0x1E1E JUMP JUMPDEST POP PUSH1 0x40 DUP3 ADD MLOAD DUP2 PUSH1 0x2 ADD SSTORE PUSH1 0x60 DUP3 ADD MLOAD DUP2 PUSH1 0x3 ADD SWAP1 DUP2 PUSH2 0x1108 SWAP2 SWAP1 PUSH2 0x1E1E JUMP JUMPDEST POP PUSH1 0x80 DUP3 ADD MLOAD DUP2 PUSH1 0x4 ADD SSTORE PUSH1 0xA0 DUP3 ADD MLOAD DUP2 PUSH1 0x5 ADD PUSH0 PUSH2 0x100 EXP DUP2 SLOAD DUP2 PUSH20 0xFFFFFFFFFFFFFFFFFFFFFFFFFFFFFFFFFFFFFFFF MUL NOT AND SWAP1 DUP4 PUSH20 0xFFFFFFFFFFFFFFFFFFFFFFFFFFFFFFFFFFFFFFFF AND MUL OR SWAP1 SSTORE POP PUSH1 0xC0 DUP3 ADD MLOAD DUP2 PUSH1 0x6 ADD SSTORE SWAP1 POP POP PUSH1 0x3 PUSH0 DUP2 SLOAD DUP1 SWAP3 SWAP2 SWAP1 PUSH2 0x1178 SWAP1 PUSH2 0x1EED JUMP JUMPDEST SWAP2 SWAP1 POP SSTORE POP POP POP POP POP POP POP POP JUMP JUMPDEST PUSH1 0x1 PUSH0 SWAP1 SLOAD SWAP1 PUSH2 0x100 EXP SWAP1 DIV PUSH20 0xFFFFFFFFFFFFFFFFFFFFFFFFFFFFFFFFFFFFFFFF AND DUP2 JUMP JUMPDEST PUSH0 DUP1 PUSH1 0x1 SWAP1 POP JUMPDEST PUSH1 0x2 SLOAD DUP2 LT ISZERO PUSH2 0x1238 JUMPI DUP3 PUSH20 0xFFFFFFFFFFFFFFFFFFFFFFFFFFFFFFFFFFFFFFFF AND PUSH1 0x6 PUSH0 DUP4 DUP2 MSTORE PUSH1 0x20 ADD SWAP1 DUP2 MSTORE PUSH1 0x20 ADD PUSH0 KECCAK256 PUSH1 0x5 ADD PUSH0 SWAP1 SLOAD SWAP1 PUSH2 0x100 EXP SWAP1 DIV PUSH20 0xFFFFFFFFFFFFFFFFFFFFFFFFFFFFFFFFFFFFFFFF AND PUSH20 0xFFFFFFFFFFFFFFFFFFFFFFFFFFFFFFFFFFFFFFFF AND SUB PUSH2 0x122B JUMPI PUSH0 SWAP2 POP POP PUSH2 0x123E JUMP JUMPDEST DUP1 DUP1 PUSH1 0x1 ADD SWAP2 POP POP PUSH2 0x11B2 JUMP JUMPDEST POP PUSH1 0x1 SWAP1 POP JUMPDEST SWAP2 SWAP1 POP JUMP JUMPDEST PUSH0 DUP1 PUSH1 0x1 SWAP1 POP JUMPDEST PUSH1 0x3 SLOAD DUP2 LT ISZERO PUSH2 0x12D0 JUMPI DUP3 PUSH20 0xFFFFFFFFFFFFFFFFFFFFFFFFFFFFFFFFFFFFFFFF AND PUSH1 0x7 PUSH0 DUP4 DUP2 MSTORE PUSH1 0x20 ADD SWAP1 DUP2 MSTORE PUSH1 0x20 ADD PUSH0 KECCAK256 PUSH1 0x5 ADD PUSH0 SWAP1 SLOAD SWAP1 PUSH2 0x100 EXP SWAP1 DIV PUSH20 0xFFFFFFFFFFFFFFFFFFFFFFFFFFFFFFFFFFFFFFFF AND PUSH20 0xFFFFFFFFFFFFFFFFFFFFFFFFFFFFFFFFFFFFFFFF AND SUB PUSH2 0x12C3 JUMPI PUSH0 SWAP2 POP POP PUSH2 0x12D6 JUMP JUMPDEST DUP1 DUP1 PUSH1 0x1 ADD SWAP2 POP POP PUSH2 0x124A JUMP JUMPDEST POP PUSH1 0x1 SWAP1 POP JUMPDEST SWAP2 SWAP1 POP JUMP JUMPDEST PUSH1 0x40 MLOAD DUP1 PUSH1 0xC0 ADD PUSH1 0x40 MSTORE DUP1 PUSH1 0x60 DUP2 MSTORE PUSH1 0x20 ADD PUSH0 DUP2 MSTORE PUSH1 0x20 ADD PUSH0 DUP2 MSTORE PUSH1 0x20 ADD PUSH1 0x60 DUP2 MSTORE PUSH1 0x20 ADD PUSH0 DUP2 MSTORE PUSH1 0x20 ADD PUSH0 PUSH20 0xFFFFFFFFFFFFFFFFFFFFFFFFFFFFFFFFFFFFFFFF AND DUP2 MSTORE POP SWAP1 JUMP JUMPDEST PUSH1 0x40 MLOAD DUP1 PUSH1 0xE0 ADD PUSH1 0x40 MSTORE DUP1 PUSH1 0x60 DUP2 MSTORE PUSH1 0x20 ADD PUSH1 0x60 DUP2 MSTORE PUSH1 0x20 ADD PUSH0 DUP2 MSTORE PUSH1 0x20 ADD PUSH1 0x60 DUP2 MSTORE PUSH1 0x20 ADD PUSH0 DUP2 MSTORE PUSH1 0x20 ADD PUSH0 PUSH20 0xFFFFFFFFFFFFFFFFFFFFFFFFFFFFFFFFFFFFFFFF AND DUP2 MSTORE PUSH1 0x20 ADD PUSH0 DUP2 MSTORE POP SWAP1 JUMP JUMPDEST PUSH0 DUP2 MLOAD SWAP1 POP SWAP2 SWAP1 POP JUMP JUMPDEST PUSH0 DUP3 DUP3 MSTORE PUSH1 0x20 DUP3 ADD SWAP1 POP SWAP3 SWAP2 POP POP JUMP JUMPDEST DUP3 DUP2 DUP4 MCOPY PUSH0 DUP4 DUP4 ADD MSTORE POP POP POP JUMP JUMPDEST PUSH0 PUSH1 0x1F NOT PUSH1 0x1F DUP4 ADD AND SWAP1 POP SWAP2 SWAP1 POP JUMP JUMPDEST PUSH0 PUSH2 0x13B4 DUP3 PUSH2 0x1372 JUMP JUMPDEST PUSH2 0x13BE DUP2 DUP6 PUSH2 0x137C JUMP JUMPDEST SWAP4 POP PUSH2 0x13CE DUP2 DUP6 PUSH1 0x20 DUP7 ADD PUSH2 0x138C JUMP JUMPDEST PUSH2 0x13D7 DUP2 PUSH2 0x139A JUMP JUMPDEST DUP5 ADD SWAP2 POP POP SWAP3 SWAP2 POP POP JUMP JUMPDEST PUSH0 PUSH1 0x20 DUP3 ADD SWAP1 POP DUP2 DUP2 SUB PUSH0 DUP4 ADD MSTORE PUSH2 0x13FA DUP2 DUP5 PUSH2 0x13AA JUMP JUMPDEST SWAP1 POP SWAP3 SWAP2 POP POP JUMP JUMPDEST PUSH0 DUP2 MLOAD SWAP1 POP SWAP2 SWAP1 POP JUMP JUMPDEST PUSH0 DUP3 DUP3 MSTORE PUSH1 0x20 DUP3 ADD SWAP1 POP SWAP3 SWAP2 POP POP JUMP JUMPDEST PUSH0 DUP2 SWAP1 POP PUSH1 0x20 DUP3 ADD SWAP1 POP SWAP2 SWAP1 POP JUMP JUMPDEST PUSH0 DUP3 DUP3 MSTORE PUSH1 0x20 DUP3 ADD SWAP1 POP SWAP3 SWAP2 POP POP JUMP JUMPDEST PUSH0 PUSH2 0x1445 DUP3 PUSH2 0x1372 JUMP JUMPDEST PUSH2 0x144F DUP2 DUP6 PUSH2 0x142B JUMP JUMPDEST SWAP4 POP PUSH2 0x145F DUP2 DUP6 PUSH1 0x20 DUP7 ADD PUSH2 0x138C JUMP JUMPDEST PUSH2 0x1468 DUP2 PUSH2 0x139A JUMP JUMPDEST DUP5 ADD SWAP2 POP POP SWAP3 SWAP2 POP POP JUMP JUMPDEST PUSH0 DUP2 SWAP1 POP SWAP2 SWAP1 POP JUMP JUMPDEST PUSH2 0x1485 DUP2 PUSH2 0x1473 JUMP JUMPDEST DUP3 MSTORE POP POP JUMP JUMPDEST PUSH0 PUSH20 0xFFFFFFFFFFFFFFFFFFFFFFFFFFFFFFFFFFFFFFFF DUP3 AND SWAP1 POP SWAP2 SWAP1 POP JUMP JUMPDEST PUSH0 PUSH2 0x14B4 DUP3 PUSH2 0x148B JUMP JUMPDEST SWAP1 POP SWAP2 SWAP1 POP JUMP JUMPDEST PUSH2 0x14C4 DUP2 PUSH2 0x14AA JUMP JUMPDEST DUP3 MSTORE POP POP JUMP JUMPDEST PUSH0 PUSH1 0xC0 DUP4 ADD PUSH0 DUP4 ADD MLOAD DUP5 DUP3 SUB PUSH0 DUP7 ADD MSTORE PUSH2 0x14E4 DUP3 DUP3 PUSH2 0x143B JUMP JUMPDEST SWAP2 POP POP PUSH1 0x20 DUP4 ADD MLOAD PUSH2 0x14F9 PUSH1 0x20 DUP7 ADD DUP3 PUSH2 0x147C JUMP JUMPDEST POP PUSH1 0x40 DUP4 ADD MLOAD PUSH2 0x150C PUSH1 0x40 DUP7 ADD DUP3 PUSH2 0x147C JUMP JUMPDEST POP PUSH1 0x60 DUP4 ADD MLOAD DUP5 DUP3 SUB PUSH1 0x60 DUP7 ADD MSTORE PUSH2 0x1524 DUP3 DUP3 PUSH2 0x143B JUMP JUMPDEST SWAP2 POP POP PUSH1 0x80 DUP4 ADD MLOAD PUSH2 0x1539 PUSH1 0x80 DUP7 ADD DUP3 PUSH2 0x147C JUMP JUMPDEST POP PUSH1 0xA0 DUP4 ADD MLOAD PUSH2 0x154C PUSH1 0xA0 DUP7 ADD DUP3 PUSH2 0x14BB JUMP JUMPDEST POP DUP1 SWAP2 POP POP SWAP3 SWAP2 POP POP JUMP JUMPDEST PUSH0 PUSH2 0x1562 DUP4 DUP4 PUSH2 0x14CA JUMP JUMPDEST SWAP1 POP SWAP3 SWAP2 POP POP JUMP JUMPDEST PUSH0 PUSH1 0x20 DUP3 ADD SWAP1 POP SWAP2 SWAP1 POP JUMP JUMPDEST PUSH0 PUSH2 0x1580 DUP3 PUSH2 0x1402 JUMP JUMPDEST PUSH2 0x158A DUP2 DUP6 PUSH2 0x140C JUMP JUMPDEST SWAP4 POP DUP4 PUSH1 0x20 DUP3 MUL DUP6 ADD PUSH2 0x159C DUP6 PUSH2 0x141C JUMP JUMPDEST DUP1 PUSH0 JUMPDEST DUP6 DUP2 LT ISZERO PUSH2 0x15D7 JUMPI DUP5 DUP5 SUB DUP10 MSTORE DUP2 MLOAD PUSH2 0x15B8 DUP6 DUP3 PUSH2 0x1557 JUMP JUMPDEST SWAP5 POP PUSH2 0x15C3 DUP4 PUSH2 0x156A JUMP JUMPDEST SWAP3 POP PUSH1 0x20 DUP11 ADD SWAP10 POP POP PUSH1 0x1 DUP2 ADD SWAP1 POP PUSH2 0x159F JUMP JUMPDEST POP DUP3 SWAP8 POP DUP8 SWAP6 POP POP POP POP POP POP SWAP3 SWAP2 POP POP JUMP JUMPDEST PUSH0 PUSH1 0x20 DUP3 ADD SWAP1 POP DUP2 DUP2 SUB PUSH0 DUP4 ADD MSTORE PUSH2 0x1601 DUP2 DUP5 PUSH2 0x1576 JUMP JUMPDEST SWAP1 POP SWAP3 SWAP2 POP POP JUMP JUMPDEST PUSH0 DUP2 MLOAD SWAP1 POP SWAP2 SWAP1 POP JUMP JUMPDEST PUSH0 DUP3 DUP3 MSTORE PUSH1 0x20 DUP3 ADD SWAP1 POP SWAP3 SWAP2 POP POP JUMP JUMPDEST PUSH0 DUP2 SWAP1 POP PUSH1 0x20 DUP3 ADD SWAP1 POP SWAP2 SWAP1 POP JUMP JUMPDEST PUSH0 PUSH1 0xE0 DUP4 ADD PUSH0 DUP4 ADD MLOAD DUP5 DUP3 SUB PUSH0 DUP7 ADD MSTORE PUSH2 0x164C DUP3 DUP3 PUSH2 0x143B JUMP JUMPDEST SWAP2 POP POP PUSH1 0x20 DUP4 ADD MLOAD DUP5 DUP3 SUB PUSH1 0x20 DUP7 ADD MSTORE PUSH2 0x1666 DUP3 DUP3 PUSH2 0x143B JUMP JUMPDEST SWAP2 POP POP PUSH1 0x40 DUP4 ADD MLOAD PUSH2 0x167B PUSH1 0x40 DUP7 ADD DUP3 PUSH2 0x147C JUMP JUMPDEST POP PUSH1 0x60 DUP4 ADD MLOAD DUP5 DUP3 SUB PUSH1 0x60 DUP7 ADD MSTORE PUSH2 0x1693 DUP3 DUP3 PUSH2 0x143B JUMP JUMPDEST SWAP2 POP POP PUSH1 0x80 DUP4 ADD MLOAD PUSH2 0x16A8 PUSH1 0x80 DUP7 ADD DUP3 PUSH2 0x147C JUMP JUMPDEST POP PUSH1 0xA0 DUP4 ADD MLOAD PUSH2 0x16BB PUSH1 0xA0 DUP7 ADD DUP3 PUSH2 0x14BB JUMP JUMPDEST POP PUSH1 0xC0 DUP4 ADD MLOAD PUSH2 0x16CE PUSH1 0xC0 DUP7 ADD DUP3 PUSH2 0x147C JUMP JUMPDEST POP DUP1 SWAP2 POP POP SWAP3 SWAP2 POP POP JUMP JUMPDEST PUSH0 PUSH2 0x16E4 DUP4 DUP4 PUSH2 0x1632 JUMP JUMPDEST SWAP1 POP SWAP3 SWAP2 POP POP JUMP JUMPDEST PUSH0 PUSH1 0x20 DUP3 ADD SWAP1 POP SWAP2 SWAP1 POP JUMP JUMPDEST PUSH0 PUSH2 0x1702 DUP3 PUSH2 0x1609 JUMP JUMPDEST PUSH2 0x170C DUP2 DUP6 PUSH2 0x1613 JUMP JUMPDEST SWAP4 POP DUP4 PUSH1 0x20 DUP3 MUL DUP6 ADD PUSH2 0x171E DUP6 PUSH2 0x1623 JUMP JUMPDEST DUP1 PUSH0 JUMPDEST DUP6 DUP2 LT ISZERO PUSH2 0x1759 JUMPI DUP5 DUP5 SUB DUP10 MSTORE DUP2 MLOAD PUSH2 0x173A DUP6 DUP3 PUSH2 0x16D9 JUMP JUMPDEST SWAP5 POP PUSH2 0x1745 DUP4 PUSH2 0x16EC JUMP JUMPDEST SWAP3 POP PUSH1 0x20 DUP11 ADD SWAP10 POP POP PUSH1 0x1 DUP2 ADD SWAP1 POP PUSH2 0x1721 JUMP JUMPDEST POP DUP3 SWAP8 POP DUP8 SWAP6 POP POP POP POP POP POP SWAP3 SWAP2 POP POP JUMP JUMPDEST PUSH0 PUSH1 0x20 DUP3 ADD SWAP1 POP DUP2 DUP2 SUB PUSH0 DUP4 ADD MSTORE PUSH2 0x1783 DUP2 DUP5 PUSH2 0x16F8 JUMP JUMPDEST SWAP1 POP SWAP3 SWAP2 POP POP JUMP JUMPDEST PUSH0 DUP1 REVERT JUMPDEST PUSH0 DUP1 REVERT JUMPDEST PUSH2 0x179C DUP2 PUSH2 0x1473 JUMP JUMPDEST DUP2 EQ PUSH2 0x17A6 JUMPI PUSH0 DUP1 REVERT JUMPDEST POP JUMP JUMPDEST PUSH0 DUP2 CALLDATALOAD SWAP1 POP PUSH2 0x17B7 DUP2 PUSH2 0x1793 JUMP JUMPDEST SWAP3 SWAP2 POP POP JUMP JUMPDEST PUSH0 DUP1 PUSH1 0x40 DUP4 DUP6 SUB SLT ISZERO PUSH2 0x17D3 JUMPI PUSH2 0x17D2 PUSH2 0x178B JUMP JUMPDEST JUMPDEST PUSH0 PUSH2 0x17E0 DUP6 DUP3 DUP7 ADD PUSH2 0x17A9 JUMP JUMPDEST SWAP3 POP POP PUSH1 0x20 PUSH2 0x17F1 DUP6 DUP3 DUP7 ADD PUSH2 0x17A9 JUMP JUMPDEST SWAP2 POP POP SWAP3 POP SWAP3 SWAP1 POP JUMP JUMPDEST PUSH0 DUP1 REVERT JUMPDEST PUSH0 DUP1 REVERT JUMPDEST PUSH0 DUP1 REVERT JUMPDEST PUSH0 DUP1 DUP4 PUSH1 0x1F DUP5 ADD SLT PUSH2 0x181C JUMPI PUSH2 0x181B PUSH2 0x17FB JUMP JUMPDEST JUMPDEST DUP3 CALLDATALOAD SWAP1 POP PUSH8 0xFFFFFFFFFFFFFFFF DUP2 GT ISZERO PUSH2 0x1839 JUMPI PUSH2 0x1838 PUSH2 0x17FF JUMP JUMPDEST JUMPDEST PUSH1 0x20 DUP4 ADD SWAP2 POP DUP4 PUSH1 0x1 DUP3 MUL DUP4 ADD GT ISZERO PUSH2 0x1855 JUMPI PUSH2 0x1854 PUSH2 0x1803 JUMP JUMPDEST JUMPDEST SWAP3 POP SWAP3 SWAP1 POP JUMP JUMPDEST PUSH0 DUP1 PUSH0 DUP1 PUSH0 PUSH1 0x60 DUP7 DUP9 SUB SLT ISZERO PUSH2 0x1875 JUMPI PUSH2 0x1874 PUSH2 0x178B JUMP JUMPDEST JUMPDEST PUSH0 DUP7 ADD CALLDATALOAD PUSH8 0xFFFFFFFFFFFFFFFF DUP2 GT ISZERO PUSH2 0x1892 JUMPI PUSH2 0x1891 PUSH2 0x178F JUMP JUMPDEST JUMPDEST PUSH2 0x189E DUP9 DUP3 DUP10 ADD PUSH2 0x1807 JUMP JUMPDEST SWAP6 POP SWAP6 POP POP PUSH1 0x20 PUSH2 0x18B1 DUP9 DUP3 DUP10 ADD PUSH2 0x17A9 JUMP JUMPDEST SWAP4 POP POP PUSH1 0x40 DUP7 ADD CALLDATALOAD PUSH8 0xFFFFFFFFFFFFFFFF DUP2 GT ISZERO PUSH2 0x18D2 JUMPI PUSH2 0x18D1 PUSH2 0x178F JUMP JUMPDEST JUMPDEST PUSH2 0x18DE DUP9 DUP3 DUP10 ADD PUSH2 0x1807 JUMP JUMPDEST SWAP3 POP SWAP3 POP POP SWAP3 SWAP6 POP SWAP3 SWAP6 SWAP1 SWAP4 POP JUMP JUMPDEST PUSH0 DUP1 PUSH0 DUP1 PUSH0 DUP1 PUSH0 PUSH1 0x80 DUP9 DUP11 SUB SLT ISZERO PUSH2 0x1908 JUMPI PUSH2 0x1907 PUSH2 0x178B JUMP JUMPDEST JUMPDEST PUSH0 DUP9 ADD CALLDATALOAD PUSH8 0xFFFFFFFFFFFFFFFF DUP2 GT ISZERO PUSH2 0x1925 JUMPI PUSH2 0x1924 PUSH2 0x178F JUMP JUMPDEST JUMPDEST PUSH2 0x1931 DUP11 DUP3 DUP12 ADD PUSH2 0x1807 JUMP JUMPDEST SWAP8 POP SWAP8 POP POP PUSH1 0x20 DUP9 ADD CALLDATALOAD PUSH8 0xFFFFFFFFFFFFFFFF DUP2 GT ISZERO PUSH2 0x1954 JUMPI PUSH2 0x1953 PUSH2 0x178F JUMP JUMPDEST JUMPDEST PUSH2 0x1960 DUP11 DUP3 DUP12 ADD PUSH2 0x1807 JUMP JUMPDEST SWAP6 POP SWAP6 POP POP PUSH1 0x40 PUSH2 0x1973 DUP11 DUP3 DUP12 ADD PUSH2 0x17A9 JUMP JUMPDEST SWAP4 POP POP PUSH1 0x60 DUP9 ADD CALLDATALOAD PUSH8 0xFFFFFFFFFFFFFFFF DUP2 GT ISZERO PUSH2 0x1994 JUMPI PUSH2 0x1993 PUSH2 0x178F JUMP JUMPDEST JUMPDEST PUSH2 0x19A0 DUP11 DUP3 DUP12 ADD PUSH2 0x1807 JUMP JUMPDEST SWAP3 POP SWAP3 POP POP SWAP3 SWAP6 SWAP9 SWAP2 SWAP5 SWAP8 POP SWAP3 SWAP6 POP JUMP JUMPDEST PUSH2 0x19BA DUP2 PUSH2 0x14AA JUMP JUMPDEST DUP3 MSTORE POP POP JUMP JUMPDEST PUSH0 PUSH1 0x20 DUP3 ADD SWAP1 POP PUSH2 0x19D3 PUSH0 DUP4 ADD DUP5 PUSH2 0x19B1 JUMP JUMPDEST SWAP3 SWAP2 POP POP JUMP JUMPDEST PUSH32 0x4E487B7100000000000000000000000000000000000000000000000000000000 PUSH0 MSTORE PUSH1 0x11 PUSH1 0x4 MSTORE PUSH1 0x24 PUSH0 REVERT JUMPDEST PUSH0 PUSH2 0x1A10 DUP3 PUSH2 0x1473 JUMP JUMPDEST SWAP2 POP PUSH2 0x1A1B DUP4 PUSH2 0x1473 JUMP JUMPDEST SWAP3 POP DUP3 DUP3 SUB SWAP1 POP DUP2 DUP2 GT ISZERO PUSH2 0x1A33 JUMPI PUSH2 0x1A32 PUSH2 0x19D9 JUMP JUMPDEST JUMPDEST SWAP3 SWAP2 POP POP JUMP JUMPDEST PUSH32 0x4E487B7100000000000000000000000000000000000000000000000000000000 PUSH0 MSTORE PUSH1 0x41 PUSH1 0x4 MSTORE PUSH1 0x24 PUSH0 REVERT JUMPDEST PUSH32 0x4E487B7100000000000000000000000000000000000000000000000000000000 PUSH0 MSTORE PUSH1 0x22 PUSH1 0x4 MSTORE PUSH1 0x24 PUSH0 REVERT JUMPDEST PUSH0 PUSH1 0x2 DUP3 DIV SWAP1 POP PUSH1 0x1 DUP3 AND DUP1 PUSH2 0x1AAA JUMPI PUSH1 0x7F DUP3 AND SWAP2 POP JUMPDEST PUSH1 0x20 DUP3 LT DUP2 SUB PUSH2 0x1ABD JUMPI PUSH2 0x1ABC PUSH2 0x1A66 JUMP JUMPDEST JUMPDEST POP SWAP2 SWAP1 POP JUMP JUMPDEST PUSH32 0x4E487B7100000000000000000000000000000000000000000000000000000000 PUSH0 MSTORE PUSH1 0x32 PUSH1 0x4 MSTORE PUSH1 0x24 PUSH0 REVERT JUMPDEST PUSH32 0x596F7520617265206E6F742066726F6D20456C656374696F6E20436F6D6D6973 PUSH0 DUP3 ADD MSTORE PUSH32 0x696F6E0000000000000000000000000000000000000000000000000000000000 PUSH1 0x20 DUP3 ADD MSTORE POP JUMP JUMPDEST PUSH0 PUSH2 0x1B4A PUSH1 0x23 DUP4 PUSH2 0x137C JUMP JUMPDEST SWAP2 POP PUSH2 0x1B55 DUP3 PUSH2 0x1AF0 JUMP JUMPDEST PUSH1 0x40 DUP3 ADD SWAP1 POP SWAP2 SWAP1 POP JUMP JUMPDEST PUSH0 PUSH1 0x20 DUP3 ADD SWAP1 POP DUP2 DUP2 SUB PUSH0 DUP4 ADD MSTORE PUSH2 0x1B77 DUP2 PUSH2 0x1B3E JUMP JUMPDEST SWAP1 POP SWAP2 SWAP1 POP JUMP JUMPDEST PUSH0 PUSH2 0x1B88 DUP3 PUSH2 0x1473 JUMP JUMPDEST SWAP2 POP PUSH2 0x1B93 DUP4 PUSH2 0x1473 JUMP JUMPDEST SWAP3 POP DUP3 DUP3 ADD SWAP1 POP DUP1 DUP3 GT ISZERO PUSH2 0x1BAB JUMPI PUSH2 0x1BAA PUSH2 0x19D9 JUMP JUMPDEST JUMPDEST SWAP3 SWAP2 POP POP JUMP JUMPDEST PUSH32 0x41676520697320756E6465722031380000000000000000000000000000000000 PUSH0 DUP3 ADD MSTORE POP JUMP JUMPDEST PUSH0 PUSH2 0x1BE5 PUSH1 0xF DUP4 PUSH2 0x137C JUMP JUMPDEST SWAP2 POP PUSH2 0x1BF0 DUP3 PUSH2 0x1BB1 JUMP JUMPDEST PUSH1 0x20 DUP3 ADD SWAP1 POP SWAP2 SWAP1 POP JUMP JUMPDEST PUSH0 PUSH1 0x20 DUP3 ADD SWAP1 POP DUP2 DUP2 SUB PUSH0 DUP4 ADD MSTORE PUSH2 0x1C12 DUP2 PUSH2 0x1BD9 JUMP JUMPDEST SWAP1 POP SWAP2 SWAP1 POP JUMP JUMPDEST PUSH32 0x566F74657220616C726561647920726567697374657265640000000000000000 PUSH0 DUP3 ADD MSTORE POP JUMP JUMPDEST PUSH0 PUSH2 0x1C4D PUSH1 0x18 DUP4 PUSH2 0x137C JUMP JUMPDEST SWAP2 POP PUSH2 0x1C58 DUP3 PUSH2 0x1C19 JUMP JUMPDEST PUSH1 0x20 DUP3 ADD SWAP1 POP SWAP2 SWAP1 POP JUMP JUMPDEST PUSH0 PUSH1 0x20 DUP3 ADD SWAP1 POP DUP2 DUP2 SUB PUSH0 DUP4 ADD MSTORE PUSH2 0x1C7A DUP2 PUSH2 0x1C41 JUMP JUMPDEST SWAP1 POP SWAP2 SWAP1 POP JUMP JUMPDEST PUSH0 DUP2 SWAP1 POP DUP2 PUSH0 MSTORE PUSH1 0x20 PUSH0 KECCAK256 SWAP1 POP SWAP2 SWAP1 POP JUMP JUMPDEST PUSH0 PUSH1 0x20 PUSH1 0x1F DUP4 ADD DIV SWAP1 POP SWAP2 SWAP1 POP JUMP JUMPDEST PUSH0 DUP3 DUP3 SHL SWAP1 POP SWAP3 SWAP2 POP POP JUMP JUMPDEST PUSH0 PUSH1 0x8 DUP4 MUL PUSH2 0x1CDD PUSH32 0xFFFFFFFFFFFFFFFFFFFFFFFFFFFFFFFFFFFFFFFFFFFFFFFFFFFFFFFFFFFFFFFF DUP3 PUSH2 0x1CA2 JUMP JUMPDEST PUSH2 0x1CE7 DUP7 DUP4 PUSH2 0x1CA2 JUMP JUMPDEST SWAP6 POP DUP1 NOT DUP5 AND SWAP4 POP DUP1 DUP7 AND DUP5 OR SWAP3 POP POP POP SWAP4 SWAP3 POP POP POP JUMP JUMPDEST PUSH0 DUP2 SWAP1 POP SWAP2 SWAP1 POP JUMP JUMPDEST PUSH0 PUSH2 0x1D22 PUSH2 0x1D1D PUSH2 0x1D18 DUP5 PUSH2 0x1473 JUMP JUMPDEST PUSH2 0x1CFF JUMP JUMPDEST PUSH2 0x1473 JUMP JUMPDEST SWAP1 POP SWAP2 SWAP1 POP JUMP JUMPDEST PUSH0 DUP2 SWAP1 POP SWAP2 SWAP1 POP JUMP JUMPDEST PUSH2 0x1D3B DUP4 PUSH2 0x1D08 JUMP JUMPDEST PUSH2 0x1D4F PUSH2 0x1D47 DUP3 PUSH2 0x1D29 JUMP JUMPDEST DUP5 DUP5 SLOAD PUSH2 0x1CAE JUMP JUMPDEST DUP3 SSTORE POP POP POP POP JUMP JUMPDEST PUSH0 SWAP1 JUMP JUMPDEST PUSH2 0x1D63 PUSH2 0x1D57 JUMP JUMPDEST PUSH2 0x1D6E DUP2 DUP5 DUP5 PUSH2 0x1D32 JUMP JUMPDEST POP POP POP JUMP JUMPDEST JUMPDEST DUP2 DUP2 LT ISZERO PUSH2 0x1D91 JUMPI PUSH2 0x1D86 PUSH0 DUP3 PUSH2 0x1D5B JUMP JUMPDEST PUSH1 0x1 DUP2 ADD SWAP1 POP PUSH2 0x1D74 JUMP JUMPDEST POP POP JUMP JUMPDEST PUSH1 0x1F DUP3 GT ISZERO PUSH2 0x1DD6 JUMPI PUSH2 0x1DA7 DUP2 PUSH2 0x1C81 JUMP JUMPDEST PUSH2 0x1DB0 DUP5 PUSH2 0x1C93 JUMP JUMPDEST DUP2 ADD PUSH1 0x20 DUP6 LT ISZERO PUSH2 0x1DBF JUMPI DUP2 SWAP1 POP JUMPDEST PUSH2 0x1DD3 PUSH2 0x1DCB DUP6 PUSH2 0x1C93 JUMP JUMPDEST DUP4 ADD DUP3 PUSH2 0x1D73 JUMP JUMPDEST POP POP JUMPDEST POP POP POP JUMP JUMPDEST PUSH0 DUP3 DUP3 SHR SWAP1 POP SWAP3 SWAP2 POP POP JUMP JUMPDEST PUSH0 PUSH2 0x1DF6 PUSH0 NOT DUP5 PUSH1 0x8 MUL PUSH2 0x1DDB JUMP JUMPDEST NOT DUP1 DUP4 AND SWAP2 POP POP SWAP3 SWAP2 POP POP JUMP JUMPDEST PUSH0 PUSH2 0x1E0E DUP4 DUP4 PUSH2 0x1DE7 JUMP JUMPDEST SWAP2 POP DUP3 PUSH1 0x2 MUL DUP3 OR SWAP1 POP SWAP3 SWAP2 POP POP JUMP JUMPDEST PUSH2 0x1E27 DUP3 PUSH2 0x1372 JUMP JUMPDEST PUSH8 0xFFFFFFFFFFFFFFFF DUP2 GT ISZERO PUSH2 0x1E40 JUMPI PUSH2 0x1E3F PUSH2 0x1A39 JUMP JUMPDEST JUMPDEST PUSH2 0x1E4A DUP3 SLOAD PUSH2 0x1A93 JUMP JUMPDEST PUSH2 0x1E55 DUP3 DUP3 DUP6 PUSH2 0x1D95 JUMP JUMPDEST PUSH0 PUSH1 0x20 SWAP1 POP PUSH1 0x1F DUP4 GT PUSH1 0x1 DUP2 EQ PUSH2 0x1E86 JUMPI PUSH0 DUP5 ISZERO PUSH2 0x1E74 JUMPI DUP3 DUP8 ADD MLOAD SWAP1 POP JUMPDEST PUSH2 0x1E7E DUP6 DUP3 PUSH2 0x1E03 JUMP JUMPDEST DUP7 SSTORE POP PUSH2 0x1EE5 JUMP JUMPDEST PUSH1 0x1F NOT DUP5 AND PUSH2 0x1E94 DUP7 PUSH2 0x1C81 JUMP JUMPDEST PUSH0 JUMPDEST DUP3 DUP2 LT ISZERO PUSH2 0x1EBB JUMPI DUP5 DUP10 ADD MLOAD DUP3 SSTORE PUSH1 0x1 DUP3 ADD SWAP2 POP PUSH1 0x20 DUP6 ADD SWAP5 POP PUSH1 0x20 DUP2 ADD SWAP1 POP PUSH2 0x1E96 JUMP JUMPDEST DUP7 DUP4 LT ISZERO PUSH2 0x1ED8 JUMPI DUP5 DUP10 ADD MLOAD PUSH2 0x1ED4 PUSH1 0x1F DUP10 AND DUP3 PUSH2 0x1DE7 JUMP JUMPDEST DUP4 SSTORE POP JUMPDEST PUSH1 0x1 PUSH1 0x2 DUP9 MUL ADD DUP9 SSTORE POP POP POP JUMPDEST POP POP POP POP POP POP JUMP JUMPDEST PUSH0 PUSH2 0x1EF7 DUP3 PUSH2 0x1473 JUMP JUMPDEST SWAP2 POP PUSH32 0xFFFFFFFFFFFFFFFFFFFFFFFFFFFFFFFFFFFFFFFFFFFFFFFFFFFFFFFFFFFFFFFF DUP3 SUB PUSH2 0x1F29 JUMPI PUSH2 0x1F28 PUSH2 0x19D9 JUMP JUMPDEST JUMPDEST PUSH1 0x1 DUP3 ADD SWAP1 POP SWAP2 SWAP1 POP JUMP JUMPDEST PUSH32 0x566F74696E67206973206F766572000000000000000000000000000000000000 PUSH0 DUP3 ADD MSTORE POP JUMP JUMPDEST PUSH0 PUSH2 0x1F68 PUSH1 0xE DUP4 PUSH2 0x137C JUMP JUMPDEST SWAP2 POP PUSH2 0x1F73 DUP3 PUSH2 0x1F34 JUMP JUMPDEST PUSH1 0x20 DUP3 ADD SWAP1 POP SWAP2 SWAP1 POP JUMP JUMPDEST PUSH0 PUSH1 0x20 DUP3 ADD SWAP1 POP DUP2 DUP2 SUB PUSH0 DUP4 ADD MSTORE PUSH2 0x1F95 DUP2 PUSH2 0x1F5C JUMP JUMPDEST SWAP1 POP SWAP2 SWAP1 POP JUMP JUMPDEST PUSH32 0x566F74696E6720686173206E6F74207374617274656400000000000000000000 PUSH0 DUP3 ADD MSTORE POP JUMP JUMPDEST PUSH0 PUSH2 0x1FD0 PUSH1 0x16 DUP4 PUSH2 0x137C JUMP JUMPDEST SWAP2 POP PUSH2 0x1FDB DUP3 PUSH2 0x1F9C JUMP JUMPDEST PUSH1 0x20 DUP3 ADD SWAP1 POP SWAP2 SWAP1 POP JUMP JUMPDEST PUSH0 PUSH1 0x20 DUP3 ADD SWAP1 POP DUP2 DUP2 SUB PUSH0 DUP4 ADD MSTORE PUSH2 0x1FFD DUP2 PUSH2 0x1FC4 JUMP JUMPDEST SWAP1 POP SWAP2 SWAP1 POP JUMP JUMPDEST PUSH32 0x4E6F7420656E6F7567682063616E646961746573206861766520726567697374 PUSH0 DUP3 ADD MSTORE PUSH32 0x6572656400000000000000000000000000000000000000000000000000000000 PUSH1 0x20 DUP3 ADD MSTORE POP JUMP JUMPDEST PUSH0 PUSH2 0x205E PUSH1 0x24 DUP4 PUSH2 0x137C JUMP JUMPDEST SWAP2 POP PUSH2 0x2069 DUP3 PUSH2 0x2004 JUMP JUMPDEST PUSH1 0x40 DUP3 ADD SWAP1 POP SWAP2 SWAP1 POP JUMP JUMPDEST PUSH0 PUSH1 0x20 DUP3 ADD SWAP1 POP DUP2 DUP2 SUB PUSH0 DUP4 ADD MSTORE PUSH2 0x208B DUP2 PUSH2 0x2052 JUMP JUMPDEST SWAP1 POP SWAP2 SWAP1 POP JUMP JUMPDEST PUSH32 0x596F7520617265206E6F742072656769737465726564206173206120766F7465 PUSH0 DUP3 ADD MSTORE PUSH32 0x7200000000000000000000000000000000000000000000000000000000000000 PUSH1 0x20 DUP3 ADD MSTORE POP JUMP JUMPDEST PUSH0 PUSH2 0x20EC PUSH1 0x21 DUP4 PUSH2 0x137C JUMP JUMPDEST SWAP2 POP PUSH2 0x20F7 DUP3 PUSH2 0x2092 JUMP JUMPDEST PUSH1 0x40 DUP3 ADD SWAP1 POP SWAP2 SWAP1 POP JUMP JUMPDEST PUSH0 PUSH1 0x20 DUP3 ADD SWAP1 POP DUP2 DUP2 SUB PUSH0 DUP4 ADD MSTORE PUSH2 0x2119 DUP2 PUSH2 0x20E0 JUMP JUMPDEST SWAP1 POP SWAP2 SWAP1 POP JUMP JUMPDEST PUSH32 0x596F75206861766520616C726561647920766F74656400000000000000000000 PUSH0 DUP3 ADD MSTORE POP JUMP JUMPDEST PUSH0 PUSH2 0x2154 PUSH1 0x16 DUP4 PUSH2 0x137C JUMP JUMPDEST SWAP2 POP PUSH2 0x215F DUP3 PUSH2 0x2120 JUMP JUMPDEST PUSH1 0x20 DUP3 ADD SWAP1 POP SWAP2 SWAP1 POP JUMP JUMPDEST PUSH0 PUSH1 0x20 DUP3 ADD SWAP1 POP DUP2 DUP2 SUB PUSH0 DUP4 ADD MSTORE PUSH2 0x2181 DUP2 PUSH2 0x2148 JUMP JUMPDEST SWAP1 POP SWAP2 SWAP1 POP JUMP JUMPDEST PUSH32 0x54686520706572736F6E20796F752077616E7420746F20766F7465206973206E PUSH0 DUP3 ADD MSTORE PUSH32 0x6F74206120726567697374657265642063616E64696461746500000000000000 PUSH1 0x20 DUP3 ADD MSTORE POP JUMP JUMPDEST PUSH0 PUSH2 0x21E2 PUSH1 0x39 DUP4 PUSH2 0x137C JUMP JUMPDEST SWAP2 POP PUSH2 0x21ED DUP3 PUSH2 0x2188 JUMP JUMPDEST PUSH1 0x40 DUP3 ADD SWAP1 POP SWAP2 SWAP1 POP JUMP JUMPDEST PUSH0 PUSH1 0x20 DUP3 ADD SWAP1 POP DUP2 DUP2 SUB PUSH0 DUP4 ADD MSTORE PUSH2 0x220F DUP2 PUSH2 0x21D6 JUMP JUMPDEST SWAP1 POP SWAP2 SWAP1 POP JUMP JUMPDEST PUSH32 0x596F75206861766520616C726561647920726567697374657265640000000000 PUSH0 DUP3 ADD MSTORE POP JUMP JUMPDEST PUSH0 PUSH2 0x224A PUSH1 0x1B DUP4 PUSH2 0x137C JUMP JUMPDEST SWAP2 POP PUSH2 0x2255 DUP3 PUSH2 0x2216 JUMP JUMPDEST PUSH1 0x20 DUP3 ADD SWAP1 POP SWAP2 SWAP1 POP JUMP JUMPDEST PUSH0 PUSH1 0x20 DUP3 ADD SWAP1 POP DUP2 DUP2 SUB PUSH0 DUP4 ADD MSTORE PUSH2 0x2277 DUP2 PUSH2 0x223E JUMP JUMPDEST SWAP1 POP SWAP2 SWAP1 POP JUMP JUMPDEST PUSH32 0x43616E64696461746520726567697374726174696F6E2066756C6C0000000000 PUSH0 DUP3 ADD MSTORE POP JUMP JUMPDEST PUSH0 PUSH2 0x22B2 PUSH1 0x1B DUP4 PUSH2 0x137C JUMP JUMPDEST SWAP2 POP PUSH2 0x22BD DUP3 PUSH2 0x227E JUMP JUMPDEST PUSH1 0x20 DUP3 ADD SWAP1 POP SWAP2 SWAP1 POP JUMP JUMPDEST PUSH0 PUSH1 0x20 DUP3 ADD SWAP1 POP DUP2 DUP2 SUB PUSH0 DUP4 ADD MSTORE PUSH2 0x22DF DUP2 PUSH2 0x22A6 JUMP JUMPDEST SWAP1 POP SWAP2 SWAP1 POP JUMP INVALID LOG2 PUSH5 0x6970667358 0x22 SLT KECCAK256 0xED PUSH16 0xAF39965F41E551F64B094BD3B687DD8C 0x4E PUSH16 0x44ABF271D8F6D8E99773911064736F6C PUSH4 0x4300081A STOP CALLER "
				},
				"gasEstimates": {
					"creation": {
						"codeDepositCost": "1797600",
						"executionCost": "70366",
						"totalCost": "1867966"
					},
					"external": {
						"candidateList()": "infinite",
						"candidateRegister(string,string,uint256,string)": "infinite",
						"emergency()": "26619",
						"result()": "infinite",
						"vote(uint256,uint256)": "infinite",
						"voteTime(uint256,uint256)": "infinite",
						"voterList()": "infinite",
						"voterRegister(string,uint256,string)": "infinite",
						"votingStatus()": "infinite",
						"winner()": "2596"
					},
					"internal": {
						"candidateVerification(address)": "infinite",
						"voterVerification(address)": "infinite"
					}
				},
				"methodIdentifiers": {
					"candidateList()": "498ea441",
					"candidateRegister(string,string,uint256,string)": "cf5ce2e7",
					"emergency()": "caa6fea4",
					"result()": "65372147",
					"vote(uint256,uint256)": "b384abef",
					"voteTime(uint256,uint256)": "65ca2be3",
					"voterList()": "24089918",
					"voterRegister(string,uint256,string)": "93e5fed2",
					"votingStatus()": "19f41a40",
					"winner()": "dfbf53ae"
				}
			},
			"storageLayout": {
				"storage": [
					{
						"astId": 31,
						"contract": "contracts/Voting.sol:Vote",
						"label": "electionCommision",
						"offset": 0,
						"slot": "0",
						"type": "t_address"
					},
					{
						"astId": 33,
						"contract": "contracts/Voting.sol:Vote",
						"label": "winner",
						"offset": 0,
						"slot": "1",
						"type": "t_address"
					},
					{
						"astId": 36,
						"contract": "contracts/Voting.sol:Vote",
						"label": "nextVoterId",
						"offset": 0,
						"slot": "2",
						"type": "t_uint256"
					},
					{
						"astId": 39,
						"contract": "contracts/Voting.sol:Vote",
						"label": "nextCandidateId",
						"offset": 0,
						"slot": "3",
						"type": "t_uint256"
					},
					{
						"astId": 41,
						"contract": "contracts/Voting.sol:Vote",
						"label": "startTime",
						"offset": 0,
						"slot": "4",
						"type": "t_uint256"
					},
					{
						"astId": 43,
						"contract": "contracts/Voting.sol:Vote",
						"label": "endTime",
						"offset": 0,
						"slot": "5",
						"type": "t_uint256"
					},
					{
						"astId": 48,
						"contract": "contracts/Voting.sol:Vote",
						"label": "voterDetails",
						"offset": 0,
						"slot": "6",
						"type": "t_mapping(t_uint256,t_struct(Voter)14_storage)"
					},
					{
						"astId": 53,
						"contract": "contracts/Voting.sol:Vote",
						"label": "candidateDetails",
						"offset": 0,
						"slot": "7",
						"type": "t_mapping(t_uint256,t_struct(Candidate)29_storage)"
					},
					{
						"astId": 55,
						"contract": "contracts/Voting.sol:Vote",
						"label": "stopVoting",
						"offset": 0,
						"slot": "8",
						"type": "t_bool"
					}
				],
				"types": {
					"t_address": {
						"encoding": "inplace",
						"label": "address",
						"numberOfBytes": "20"
					},
					"t_bool": {
						"encoding": "inplace",
						"label": "bool",
						"numberOfBytes": "1"
					},
					"t_mapping(t_uint256,t_struct(Candidate)29_storage)": {
						"encoding": "mapping",
						"key": "t_uint256",
						"label": "mapping(uint256 => struct Vote.Candidate)",
						"numberOfBytes": "32",
						"value": "t_struct(Candidate)29_storage"
					},
					"t_mapping(t_uint256,t_struct(Voter)14_storage)": {
						"encoding": "mapping",
						"key": "t_uint256",
						"label": "mapping(uint256 => struct Vote.Voter)",
						"numberOfBytes": "32",
						"value": "t_struct(Voter)14_storage"
					},
					"t_string_storage": {
						"encoding": "bytes",
						"label": "string",
						"numberOfBytes": "32"
					},
					"t_struct(Candidate)29_storage": {
						"encoding": "inplace",
						"label": "struct Vote.Candidate",
						"members": [
							{
								"astId": 16,
								"contract": "contracts/Voting.sol:Vote",
								"label": "name",
								"offset": 0,
								"slot": "0",
								"type": "t_string_storage"
							},
							{
								"astId": 18,
								"contract": "contracts/Voting.sol:Vote",
								"label": "party",
								"offset": 0,
								"slot": "1",
								"type": "t_string_storage"
							},
							{
								"astId": 20,
								"contract": "contracts/Voting.sol:Vote",
								"label": "age",
								"offset": 0,
								"slot": "2",
								"type": "t_uint256"
							},
							{
								"astId": 22,
								"contract": "contracts/Voting.sol:Vote",
								"label": "gender",
								"offset": 0,
								"slot": "3",
								"type": "t_string_storage"
							},
							{
								"astId": 24,
								"contract": "contracts/Voting.sol:Vote",
								"label": "candidateId",
								"offset": 0,
								"slot": "4",
								"type": "t_uint256"
							},
							{
								"astId": 26,
								"contract": "contracts/Voting.sol:Vote",
								"label": "candidateAddress",
								"offset": 0,
								"slot": "5",
								"type": "t_address"
							},
							{
								"astId": 28,
								"contract": "contracts/Voting.sol:Vote",
								"label": "votes",
								"offset": 0,
								"slot": "6",
								"type": "t_uint256"
							}
						],
						"numberOfBytes": "224"
					},
					"t_struct(Voter)14_storage": {
						"encoding": "inplace",
						"label": "struct Vote.Voter",
						"members": [
							{
								"astId": 3,
								"contract": "contracts/Voting.sol:Vote",
								"label": "name",
								"offset": 0,
								"slot": "0",
								"type": "t_string_storage"
							},
							{
								"astId": 5,
								"contract": "contracts/Voting.sol:Vote",
								"label": "age",
								"offset": 0,
								"slot": "1",
								"type": "t_uint256"
							},
							{
								"astId": 7,
								"contract": "contracts/Voting.sol:Vote",
								"label": "voterId",
								"offset": 0,
								"slot": "2",
								"type": "t_uint256"
							},
							{
								"astId": 9,
								"contract": "contracts/Voting.sol:Vote",
								"label": "gender",
								"offset": 0,
								"slot": "3",
								"type": "t_string_storage"
							},
							{
								"astId": 11,
								"contract": "contracts/Voting.sol:Vote",
								"label": "voteCandidateId",
								"offset": 0,
								"slot": "4",
								"type": "t_uint256"
							},
							{
								"astId": 13,
								"contract": "contracts/Voting.sol:Vote",
								"label": "voterAddress",
								"offset": 0,
								"slot": "5",
								"type": "t_address"
							}
						],
						"numberOfBytes": "192"
					},
					"t_uint256": {
						"encoding": "inplace",
						"label": "uint256",
						"numberOfBytes": "32"
					}
				}
			},
			"userdoc": {
				"kind": "user",
				"methods": {},
				"version": 1
			}
		}
	}
}