{
	"contracts/38_fallback.sol": {
		"Addition": {
			"abi": [
				{
					"stateMutability": "nonpayable",
					"type": "fallback"
				},
				{
					"inputs": [],
					"name": "addition",
					"outputs": [],
					"stateMutability": "nonpayable",
					"type": "function"
				},
				{
					"inputs": [],
					"name": "num",
					"outputs": [
						{
							"internalType": "uint256",
							"name": "",
							"type": "uint256"
						}
					],
					"stateMutability": "view",
					"type": "function"
				},
				{
					"inputs": [],
					"name": "subtraction",
					"outputs": [],
					"stateMutability": "nonpayable",
					"type": "function"
				}
			],
			"devdoc": {
				"kind": "dev",
				"methods": {},
				"version": 1
			},
			"evm": {
				"assembly": "    /* \"contracts/38_fallback.sol\":74:283  contract Addition{... */\n  mstore(0x40, 0x80)\n  callvalue\n  dup1\n  iszero\n  tag_1\n  jumpi\n  0x00\n  dup1\n  revert\ntag_1:\n  pop\n  dataSize(sub_0)\n  dup1\n  dataOffset(sub_0)\n  0x00\n  codecopy\n  0x00\n  return\nstop\n\nsub_0: assembly {\n        /* \"contracts/38_fallback.sol\":74:283  contract Addition{... */\n      mstore(0x40, 0x80)\n      callvalue\n      dup1\n      iszero\n      tag_1\n      jumpi\n      0x00\n      dup1\n      revert\n    tag_1:\n      pop\n      jumpi(tag_2, lt(calldatasize, 0x04))\n      shr(0xe0, calldataload(0x00))\n      dup1\n      0x4e70b1dc\n      eq\n      tag_4\n      jumpi\n      dup1\n      0xe3ec0251\n      eq\n      tag_5\n      jumpi\n      dup1\n      0xec597128\n      eq\n      tag_6\n      jumpi\n      jump(tag_3)\n    tag_2:\n    tag_3:\n        /* \"contracts/38_fallback.sol\":271:272  1 */\n      0x01\n        /* \"contracts/38_fallback.sol\":267:270  num */\n      0x00\n        /* \"contracts/38_fallback.sol\":267:272  num=1 */\n      dup2\n      swap1\n      sstore\n      stop\n        /* \"contracts/38_fallback.sol\":98:113  uint public num */\n    tag_4:\n      tag_9\n      tag_10\n      jump\t// in\n    tag_9:\n      mload(0x40)\n      tag_11\n      swap2\n      swap1\n      tag_12\n      jump\t// in\n    tag_11:\n      mload(0x40)\n      dup1\n      swap2\n      sub\n      swap1\n      return\n        /* \"contracts/38_fallback.sol\":177:231  function subtraction() public{... */\n    tag_5:\n      tag_13\n      tag_14\n      jump\t// in\n    tag_13:\n      stop\n        /* \"contracts/38_fallback.sol\":120:171  function addition() public{... */\n    tag_6:\n      tag_15\n      tag_16\n      jump\t// in\n    tag_15:\n      stop\n        /* \"contracts/38_fallback.sol\":98:113  uint public num */\n    tag_10:\n      sload(0x00)\n      dup2\n      jump\t// out\n        /* \"contracts/38_fallback.sol\":177:231  function subtraction() public{... */\n    tag_14:\n        /* \"contracts/38_fallback.sol\":221:223  20 */\n      0x14\n        /* \"contracts/38_fallback.sol\":217:220  num */\n      0x00\n        /* \"contracts/38_fallback.sol\":217:223  num=20 */\n      dup2\n      swap1\n      sstore\n      pop\n        /* \"contracts/38_fallback.sol\":177:231  function subtraction() public{... */\n      jump\t// out\n        /* \"contracts/38_fallback.sol\":120:171  function addition() public{... */\n    tag_16:\n        /* \"contracts/38_fallback.sol\":161:163  10 */\n      0x0a\n        /* \"contracts/38_fallback.sol\":157:160  num */\n      0x00\n        /* \"contracts/38_fallback.sol\":157:163  num=10 */\n      dup2\n      swap1\n      sstore\n      pop\n        /* \"contracts/38_fallback.sol\":120:171  function addition() public{... */\n      jump\t// out\n        /* \"#utility.yul\":7:84   */\n    tag_19:\n        /* \"#utility.yul\":44:51   */\n      0x00\n        /* \"#utility.yul\":73:78   */\n      dup2\n        /* \"#utility.yul\":62:78   */\n      swap1\n      pop\n        /* \"#utility.yul\":7:84   */\n      swap2\n      swap1\n      pop\n      jump\t// out\n        /* \"#utility.yul\":90:208   */\n    tag_20:\n        /* \"#utility.yul\":177:201   */\n      tag_24\n        /* \"#utility.yul\":195:200   */\n      dup2\n        /* \"#utility.yul\":177:201   */\n      tag_19\n      jump\t// in\n    tag_24:\n        /* \"#utility.yul\":172:175   */\n      dup3\n        /* \"#utility.yul\":165:202   */\n      mstore\n        /* \"#utility.yul\":90:208   */\n      pop\n      pop\n      jump\t// out\n        /* \"#utility.yul\":214:436   */\n    tag_12:\n        /* \"#utility.yul\":307:311   */\n      0x00\n        /* \"#utility.yul\":345:347   */\n      0x20\n        /* \"#utility.yul\":334:343   */\n      dup3\n        /* \"#utility.yul\":330:348   */\n      add\n        /* \"#utility.yul\":322:348   */\n      swap1\n      pop\n        /* \"#utility.yul\":358:429   */\n      tag_26\n        /* \"#utility.yul\":426:427   */\n      0x00\n        /* \"#utility.yul\":415:424   */\n      dup4\n        /* \"#utility.yul\":411:428   */\n      add\n        /* \"#utility.yul\":402:408   */\n      dup5\n        /* \"#utility.yul\":358:429   */\n      tag_20\n      jump\t// in\n    tag_26:\n        /* \"#utility.yul\":214:436   */\n      swap3\n      swap2\n      pop\n      pop\n      jump\t// out\n\n    auxdata: 0xa26469706673582212201e7e3c8168b8094c3590dd96947123a2fccb80daefd71800743b357d09ebf6bd64736f6c634300081a0033\n}\n",
				"bytecode": {
					"linkReferences": {},
					"object": "6080604052348015600e575f80fd5b5060ea8061001b5f395ff3fe6080604052348015600e575f80fd5b5060043610603d575f3560e01c80634e70b1dc146046578063e3ec0251146060578063ec59712814606857603e565b5b60015f819055005b604c6070565b60405160579190609d565b60405180910390f35b60666075565b005b606e607e565b005b5f5481565b60145f81905550565b600a5f81905550565b5f819050919050565b6097816087565b82525050565b5f60208201905060ae5f8301846090565b9291505056fea26469706673582212201e7e3c8168b8094c3590dd96947123a2fccb80daefd71800743b357d09ebf6bd64736f6c634300081a0033",
					"opcodes": "PUSH1 0x80 PUSH1 0x40 MSTORE CALLVALUE DUP1 ISZERO PUSH1 0xE JUMPI PUSH0 DUP1 REVERT JUMPDEST POP PUSH1 0xEA DUP1 PUSH2 0x1B PUSH0 CODECOPY PUSH0 RETURN INVALID PUSH1 0x80 PUSH1 0x40 MSTORE CALLVALUE DUP1 ISZERO PUSH1 0xE JUMPI PUSH0 DUP1 REVERT JUMPDEST POP PUSH1 0x4 CALLDATASIZE LT PUSH1 0x3D JUMPI PUSH0 CALLDATALOAD PUSH1 0xE0 SHR DUP1 PUSH4 0x4E70B1DC EQ PUSH1 0x46 JUMPI DUP1 PUSH4 0xE3EC0251 EQ PUSH1 0x60 JUMPI DUP1 PUSH4 0xEC597128 EQ PUSH1 0x68 JUMPI PUSH1 0x3E JUMP JUMPDEST JUMPDEST PUSH1 0x1 PUSH0 DUP2 SWAP1 SSTORE STOP JUMPDEST PUSH1 0x4C PUSH1 0x70 JUMP JUMPDEST PUSH1 0x40 MLOAD PUSH1 0x57 SWAP2 SWAP1 PUSH1 0x9D JUMP JUMPDEST PUSH1 0x40 MLOAD DUP1 SWAP2 SUB SWAP1 RETURN JUMPDEST PUSH1 0x66 PUSH1 0x75 JUMP JUMPDEST STOP JUMPDEST PUSH1 0x6E PUSH1 0x7E JUMP JUMPDEST STOP JUMPDEST PUSH0 SLOAD DUP2 JUMP JUMPDEST PUSH1 0x14 PUSH0 DUP2 SWAP1 SSTORE POP JUMP JUMPDEST PUSH1 0xA PUSH0 DUP2 SWAP1 SSTORE POP JUMP JUMPDEST PUSH0 DUP2 SWAP1 POP SWAP2 SWAP1 POP JUMP JUMPDEST PUSH1 0x97 DUP2 PUSH1 0x87 JUMP JUMPDEST DUP3 MSTORE POP POP JUMP JUMPDEST PUSH0 PUSH1 0x20 DUP3 ADD SWAP1 POP PUSH1 0xAE PUSH0 DUP4 ADD DUP5 PUSH1 0x90 JUMP JUMPDEST SWAP3 SWAP2 POP POP JUMP INVALID LOG2 PUSH5 0x6970667358 0x22 SLT KECCAK256 0x1E PUSH31 0x3C8168B8094C3590DD96947123A2FCCB80DAEFD71800743B357D09EBF6BD64 PUSH20 0x6F6C634300081A00330000000000000000000000 "
				},
				"gasEstimates": {
					"creation": {
						"codeDepositCost": "46800",
						"executionCost": "97",
						"totalCost": "46897"
					},
					"external": {
						"": "22263",
						"addition()": "22278",
						"num()": "2402",
						"subtraction()": "22256"
					}
				},
				"methodIdentifiers": {
					"addition()": "ec597128",
					"num()": "4e70b1dc",
					"subtraction()": "e3ec0251"
				}
			},
			"storageLayout": {
				"storage": [
					{
						"astId": 3,
						"contract": "contracts/38_fallback.sol:Addition",
						"label": "num",
						"offset": 0,
						"slot": "0",
						"type": "t_uint256"
					}
				],
				"types": {
					"t_uint256": {
						"encoding": "inplace",
						"label": "uint256",
						"numberOfBytes": "32"
					}
				}
			},
			"userdoc": {
				"kind": "user",
				"methods": {},
				"version": 1
			}
		}
	}
}