{
	"contracts/Loop.sol": {
		"Loop": {
			"abi": [
				{
					"inputs": [],
					"name": "loopCall",
					"outputs": [],
					"stateMutability": "nonpayable",
					"type": "function"
				},
				{
					"inputs": [],
					"name": "sum",
					"outputs": [
						{
							"internalType": "uint256",
							"name": "",
							"type": "uint256"
						}
					],
					"stateMutability": "view",
					"type": "function"
				}
			],
			"devdoc": {
				"kind": "dev",
				"methods": {},
				"version": 1
			},
			"evm": {
				"assembly": "    /* \"contracts/Loop.sol\":67:223  contract Loop{\r... */\n  mstore(0x40, 0x80)\n  callvalue\n  dup1\n  iszero\n  tag_1\n  jumpi\n  0x00\n  dup1\n  revert\ntag_1:\n  pop\n  dataSize(sub_0)\n  dup1\n  dataOffset(sub_0)\n  0x00\n  codecopy\n  0x00\n  return\nstop\n\nsub_0: assembly {\n        /* \"contracts/Loop.sol\":67:223  contract Loop{\r... */\n      mstore(0x40, 0x80)\n      callvalue\n      dup1\n      iszero\n      tag_1\n      jumpi\n      0x00\n      dup1\n      revert\n    tag_1:\n      pop\n      jumpi(tag_2, lt(calldatasize, 0x04))\n      shr(0xe0, calldataload(0x00))\n      dup1\n      0x07c90ca3\n      eq\n      tag_3\n      jumpi\n      dup1\n      0x853255cc\n      eq\n      tag_4\n      jumpi\n    tag_2:\n      0x00\n      dup1\n      revert\n        /* \"contracts/Loop.sol\":109:220  function loopCall() public{\r... */\n    tag_3:\n      tag_5\n      tag_6\n      jump\t// in\n    tag_5:\n      stop\n        /* \"contracts/Loop.sol\":87:102  uint public sum */\n    tag_4:\n      tag_7\n      tag_8\n      jump\t// in\n    tag_7:\n      mload(0x40)\n      tag_9\n      swap2\n      swap1\n      tag_10\n      jump\t// in\n    tag_9:\n      mload(0x40)\n      dup1\n      swap2\n      sub\n      swap1\n      return\n        /* \"contracts/Loop.sol\":109:220  function loopCall() public{\r... */\n    tag_6:\n        /* \"contracts/Loop.sol\":150:156  uint i */\n      0x00\n        /* \"contracts/Loop.sol\":146:213  for(uint i=0;i<10;i++){\r... */\n    tag_12:\n        /* \"contracts/Loop.sol\":161:163  10 */\n      0x0a\n        /* \"contracts/Loop.sol\":159:160  i */\n      dup2\n        /* \"contracts/Loop.sol\":159:163  i<10 */\n      lt\n        /* \"contracts/Loop.sol\":146:213  for(uint i=0;i<10;i++){\r... */\n      iszero\n      tag_13\n      jumpi\n        /* \"contracts/Loop.sol\":188:189  i */\n      dup1\n        /* \"contracts/Loop.sol\":183:186  sum */\n      0x00\n      dup1\n        /* \"contracts/Loop.sol\":183:189  sum+=i */\n      dup3\n      dup3\n      sload\n      tag_15\n      swap2\n      swap1\n      tag_16\n      jump\t// in\n    tag_15:\n      swap3\n      pop\n      pop\n      dup2\n      swap1\n      sstore\n      pop\n        /* \"contracts/Loop.sol\":164:167  i++ */\n      dup1\n      dup1\n      tag_17\n      swap1\n      tag_18\n      jump\t// in\n    tag_17:\n      swap2\n      pop\n      pop\n        /* \"contracts/Loop.sol\":146:213  for(uint i=0;i<10;i++){\r... */\n      jump(tag_12)\n    tag_13:\n      pop\n        /* \"contracts/Loop.sol\":109:220  function loopCall() public{\r... */\n      jump\t// out\n        /* \"contracts/Loop.sol\":87:102  uint public sum */\n    tag_8:\n      sload(0x00)\n      dup2\n      jump\t// out\n        /* \"#utility.yul\":7:125   */\n    tag_20:\n        /* \"#utility.yul\":94:118   */\n      tag_22\n        /* \"#utility.yul\":112:117   */\n      dup2\n        /* \"#utility.yul\":94:118   */\n      tag_23\n      jump\t// in\n    tag_22:\n        /* \"#utility.yul\":89:92   */\n      dup3\n        /* \"#utility.yul\":82:119   */\n      mstore\n        /* \"#utility.yul\":72:125   */\n      pop\n      pop\n      jump\t// out\n        /* \"#utility.yul\":131:353   */\n    tag_10:\n      0x00\n        /* \"#utility.yul\":262:264   */\n      0x20\n        /* \"#utility.yul\":251:260   */\n      dup3\n        /* \"#utility.yul\":247:265   */\n      add\n        /* \"#utility.yul\":239:265   */\n      swap1\n      pop\n        /* \"#utility.yul\":275:346   */\n      tag_25\n        /* \"#utility.yul\":343:344   */\n      0x00\n        /* \"#utility.yul\":332:341   */\n      dup4\n        /* \"#utility.yul\":328:345   */\n      add\n        /* \"#utility.yul\":319:325   */\n      dup5\n        /* \"#utility.yul\":275:346   */\n      tag_20\n      jump\t// in\n    tag_25:\n        /* \"#utility.yul\":229:353   */\n      swap3\n      swap2\n      pop\n      pop\n      jump\t// out\n        /* \"#utility.yul\":359:664   */\n    tag_16:\n      0x00\n        /* \"#utility.yul\":418:438   */\n      tag_27\n        /* \"#utility.yul\":436:437   */\n      dup3\n        /* \"#utility.yul\":418:438   */\n      tag_23\n      jump\t// in\n    tag_27:\n        /* \"#utility.yul\":413:438   */\n      swap2\n      pop\n        /* \"#utility.yul\":452:472   */\n      tag_28\n        /* \"#utility.yul\":470:471   */\n      dup4\n        /* \"#utility.yul\":452:472   */\n      tag_23\n      jump\t// in\n    tag_28:\n        /* \"#utility.yul\":447:472   */\n      swap3\n      pop\n        /* \"#utility.yul\":606:607   */\n      dup3\n        /* \"#utility.yul\":538:604   */\n      0xffffffffffffffffffffffffffffffffffffffffffffffffffffffffffffffff\n        /* \"#utility.yul\":534:608   */\n      sub\n        /* \"#utility.yul\":531:532   */\n      dup3\n        /* \"#utility.yul\":528:609   */\n      gt\n        /* \"#utility.yul\":525:527   */\n      iszero\n      tag_29\n      jumpi\n        /* \"#utility.yul\":612:630   */\n      tag_30\n      tag_31\n      jump\t// in\n    tag_30:\n        /* \"#utility.yul\":525:527   */\n    tag_29:\n        /* \"#utility.yul\":656:657   */\n      dup3\n        /* \"#utility.yul\":653:654   */\n      dup3\n        /* \"#utility.yul\":649:658   */\n      add\n        /* \"#utility.yul\":642:658   */\n      swap1\n      pop\n        /* \"#utility.yul\":403:664   */\n      swap3\n      swap2\n      pop\n      pop\n      jump\t// out\n        /* \"#utility.yul\":670:747   */\n    tag_23:\n      0x00\n        /* \"#utility.yul\":736:741   */\n      dup2\n        /* \"#utility.yul\":725:741   */\n      swap1\n      pop\n        /* \"#utility.yul\":715:747   */\n      swap2\n      swap1\n      pop\n      jump\t// out\n        /* \"#utility.yul\":753:986   */\n    tag_18:\n      0x00\n        /* \"#utility.yul\":815:839   */\n      tag_34\n        /* \"#utility.yul\":833:838   */\n      dup3\n        /* \"#utility.yul\":815:839   */\n      tag_23\n      jump\t// in\n    tag_34:\n        /* \"#utility.yul\":806:839   */\n      swap2\n      pop\n        /* \"#utility.yul\":861:927   */\n      0xffffffffffffffffffffffffffffffffffffffffffffffffffffffffffffffff\n        /* \"#utility.yul\":854:859   */\n      dup3\n        /* \"#utility.yul\":851:928   */\n      eq\n        /* \"#utility.yul\":848:850   */\n      iszero\n      tag_35\n      jumpi\n        /* \"#utility.yul\":931:949   */\n      tag_36\n      tag_31\n      jump\t// in\n    tag_36:\n        /* \"#utility.yul\":848:850   */\n    tag_35:\n        /* \"#utility.yul\":978:979   */\n      0x01\n        /* \"#utility.yul\":971:976   */\n      dup3\n        /* \"#utility.yul\":967:980   */\n      add\n        /* \"#utility.yul\":960:980   */\n      swap1\n      pop\n        /* \"#utility.yul\":796:986   */\n      swap2\n      swap1\n      pop\n      jump\t// out\n        /* \"#utility.yul\":992:1172   */\n    tag_31:\n        /* \"#utility.yul\":1040:1117   */\n      0x4e487b7100000000000000000000000000000000000000000000000000000000\n        /* \"#utility.yul\":1037:1038   */\n      0x00\n        /* \"#utility.yul\":1030:1118   */\n      mstore\n        /* \"#utility.yul\":1137:1141   */\n      0x11\n        /* \"#utility.yul\":1134:1135   */\n      0x04\n        /* \"#utility.yul\":1127:1142   */\n      mstore\n        /* \"#utility.yul\":1161:1165   */\n      0x24\n        /* \"#utility.yul\":1158:1159   */\n      0x00\n        /* \"#utility.yul\":1151:1166   */\n      revert\n\n    auxdata: 0xa2646970667358221220261e8d8b0a7af074aa9ae19ac507d7d8589c47d3b188a681607b20a3cc4a2e1164736f6c63430008000033\n}\n",
				"bytecode": {
					"linkReferences": {},
					"object": "608060405234801561001057600080fd5b506101db806100206000396000f3fe608060405234801561001057600080fd5b50600436106100365760003560e01c806307c90ca31461003b578063853255cc14610045575b600080fd5b610043610063565b005b61004d61009d565b60405161005a91906100b2565b60405180910390f35b60005b600a81101561009a578060008082825461008091906100cd565b9250508190555080806100929061012d565b915050610066565b50565b60005481565b6100ac81610123565b82525050565b60006020820190506100c760008301846100a3565b92915050565b60006100d882610123565b91506100e383610123565b9250827fffffffffffffffffffffffffffffffffffffffffffffffffffffffffffffffff0382111561011857610117610176565b5b828201905092915050565b6000819050919050565b600061013882610123565b91507fffffffffffffffffffffffffffffffffffffffffffffffffffffffffffffffff82141561016b5761016a610176565b5b600182019050919050565b7f4e487b7100000000000000000000000000000000000000000000000000000000600052601160045260246000fdfea2646970667358221220261e8d8b0a7af074aa9ae19ac507d7d8589c47d3b188a681607b20a3cc4a2e1164736f6c63430008000033",
					"opcodes": "PUSH1 0x80 PUSH1 0x40 MSTORE CALLVALUE DUP1 ISZERO PUSH2 0x10 JUMPI PUSH1 0x0 DUP1 REVERT JUMPDEST POP PUSH2 0x1DB DUP1 PUSH2 0x20 PUSH1 0x0 CODECOPY PUSH1 0x0 RETURN INVALID PUSH1 0x80 PUSH1 0x40 MSTORE CALLVALUE DUP1 ISZERO PUSH2 0x10 JUMPI PUSH1 0x0 DUP1 REVERT JUMPDEST POP PUSH1 0x4 CALLDATASIZE LT PUSH2 0x36 JUMPI PUSH1 0x0 CALLDATALOAD PUSH1 0xE0 SHR DUP1 PUSH4 0x7C90CA3 EQ PUSH2 0x3B JUMPI DUP1 PUSH4 0x853255CC EQ PUSH2 0x45 JUMPI JUMPDEST PUSH1 0x0 DUP1 REVERT JUMPDEST PUSH2 0x43 PUSH2 0x63 JUMP JUMPDEST STOP JUMPDEST PUSH2 0x4D PUSH2 0x9D JUMP JUMPDEST PUSH1 0x40 MLOAD PUSH2 0x5A SWAP2 SWAP1 PUSH2 0xB2 JUMP JUMPDEST PUSH1 0x40 MLOAD DUP1 SWAP2 SUB SWAP1 RETURN JUMPDEST PUSH1 0x0 JUMPDEST PUSH1 0xA DUP2 LT ISZERO PUSH2 0x9A JUMPI DUP1 PUSH1 0x0 DUP1 DUP3 DUP3 SLOAD PUSH2 0x80 SWAP2 SWAP1 PUSH2 0xCD JUMP JUMPDEST SWAP3 POP POP DUP2 SWAP1 SSTORE POP DUP1 DUP1 PUSH2 0x92 SWAP1 PUSH2 0x12D JUMP JUMPDEST SWAP2 POP POP PUSH2 0x66 JUMP JUMPDEST POP JUMP JUMPDEST PUSH1 0x0 SLOAD DUP2 JUMP JUMPDEST PUSH2 0xAC DUP2 PUSH2 0x123 JUMP JUMPDEST DUP3 MSTORE POP POP JUMP JUMPDEST PUSH1 0x0 PUSH1 0x20 DUP3 ADD SWAP1 POP PUSH2 0xC7 PUSH1 0x0 DUP4 ADD DUP5 PUSH2 0xA3 JUMP JUMPDEST SWAP3 SWAP2 POP POP JUMP JUMPDEST PUSH1 0x0 PUSH2 0xD8 DUP3 PUSH2 0x123 JUMP JUMPDEST SWAP2 POP PUSH2 0xE3 DUP4 PUSH2 0x123 JUMP JUMPDEST SWAP3 POP DUP3 PUSH32 0xFFFFFFFFFFFFFFFFFFFFFFFFFFFFFFFFFFFFFFFFFFFFFFFFFFFFFFFFFFFFFFFF SUB DUP3 GT ISZERO PUSH2 0x118 JUMPI PUSH2 0x117 PUSH2 0x176 JUMP JUMPDEST JUMPDEST DUP3 DUP3 ADD SWAP1 POP SWAP3 SWAP2 POP POP JUMP JUMPDEST PUSH1 0x0 DUP2 SWAP1 POP SWAP2 SWAP1 POP JUMP JUMPDEST PUSH1 0x0 PUSH2 0x138 DUP3 PUSH2 0x123 JUMP JUMPDEST SWAP2 POP PUSH32 0xFFFFFFFFFFFFFFFFFFFFFFFFFFFFFFFFFFFFFFFFFFFFFFFFFFFFFFFFFFFFFFFF DUP3 EQ ISZERO PUSH2 0x16B JUMPI PUSH2 0x16A PUSH2 0x176 JUMP JUMPDEST JUMPDEST PUSH1 0x1 DUP3 ADD SWAP1 POP SWAP2 SWAP1 POP JUMP JUMPDEST PUSH32 0x4E487B7100000000000000000000000000000000000000000000000000000000 PUSH1 0x0 MSTORE PUSH1 0x11 PUSH1 0x4 MSTORE PUSH1 0x24 PUSH1 0x0 REVERT INVALID LOG2 PUSH5 0x6970667358 0x22 SLT KECCAK256 0x26 0x1E DUP14 DUP12 EXP PUSH27 0xF074AA9AE19AC507D7D8589C47D3B188A681607B20A3CC4A2E1164 PUSH20 0x6F6C634300080000330000000000000000000000 "
				},
				"gasEstimates": {
					"creation": {
						"codeDepositCost": "95000",
						"executionCost": "141",
						"totalCost": "95141"
					},
					"external": {
						"loopCall()": "infinite",
						"sum()": "1129"
					}
				},
				"methodIdentifiers": {
					"loopCall()": "07c90ca3",
					"sum()": "853255cc"
				}
			},
			"storageLayout": {
				"storage": [
					{
						"astId": 3,
						"contract": "contracts/Loop.sol:Loop",
						"label": "sum",
						"offset": 0,
						"slot": "0",
						"type": "t_uint256"
					}
				],
				"types": {
					"t_uint256": {
						"encoding": "inplace",
						"label": "uint256",
						"numberOfBytes": "32"
					}
				}
			},
			"userdoc": {
				"kind": "user",
				"methods": {},
				"version": 1
			}
		}
	}
}