{
	"contracts/MemoryVsCalldata_16.sol": {
		"Array": {
			"abi": [
				{
					"inputs": [
						{
							"internalType": "uint256",
							"name": "",
							"type": "uint256"
						}
					],
					"name": "arr",
					"outputs": [
						{
							"internalType": "uint256",
							"name": "",
							"type": "uint256"
						}
					],
					"stateMutability": "view",
					"type": "function"
				},
				{
					"inputs": [
						{
							"internalType": "uint256",
							"name": "index",
							"type": "uint256"
						},
						{
							"internalType": "uint256",
							"name": "element",
							"type": "uint256"
						}
					],
					"name": "insertElement",
					"outputs": [],
					"stateMutability": "nonpayable",
					"type": "function"
				},
				{
					"inputs": [
						{
							"internalType": "uint256[3]",
							"name": "num",
							"type": "uint256[3]"
						}
					],
					"name": "multiplyby2Index0",
					"outputs": [
						{
							"internalType": "uint256[3]",
							"name": "",
							"type": "uint256[3]"
						}
					],
					"stateMutability": "pure",
					"type": "function"
				},
				{
					"inputs": [
						{
							"internalType": "uint256[3]",
							"name": "num",
							"type": "uint256[3]"
						}
					],
					"name": "passingArray",
					"outputs": [
						{
							"internalType": "uint256",
							"name": "",
							"type": "uint256"
						}
					],
					"stateMutability": "pure",
					"type": "function"
				},
				{
					"inputs": [],
					"name": "returnAllElements",
					"outputs": [
						{
							"internalType": "uint256[5]",
							"name": "",
							"type": "uint256[5]"
						}
					],
					"stateMutability": "view",
					"type": "function"
				},
				{
					"inputs": [
						{
							"internalType": "uint256",
							"name": "index",
							"type": "uint256"
						}
					],
					"name": "returnElement",
					"outputs": [
						{
							"internalType": "uint256",
							"name": "",
							"type": "uint256"
						}
					],
					"stateMutability": "view",
					"type": "function"
				}
			],
			"devdoc": {
				"kind": "dev",
				"methods": {},
				"version": 1
			},
			"evm": {
				"assembly": "    /* \"contracts/MemoryVsCalldata_16.sol\":72:796  contract Array{... */\n  mstore(0x40, 0x80)\n    /* \"contracts/MemoryVsCalldata_16.sol\":93:119  uint[5] public arr=[1,2,3] */\n  mload(0x40)\n  dup1\n  0x60\n  add\n  0x40\n  mstore\n  dup1\n    /* \"contracts/MemoryVsCalldata_16.sol\":113:114  1 */\n  0x01\n    /* \"contracts/MemoryVsCalldata_16.sol\":93:119  uint[5] public arr=[1,2,3] */\n  0xff\n  and\n  dup2\n  mstore\n  0x20\n  add\n    /* \"contracts/MemoryVsCalldata_16.sol\":115:116  2 */\n  0x02\n    /* \"contracts/MemoryVsCalldata_16.sol\":93:119  uint[5] public arr=[1,2,3] */\n  0xff\n  and\n  dup2\n  mstore\n  0x20\n  add\n    /* \"contracts/MemoryVsCalldata_16.sol\":117:118  3 */\n  0x03\n    /* \"contracts/MemoryVsCalldata_16.sol\":93:119  uint[5] public arr=[1,2,3] */\n  0xff\n  and\n  dup2\n  mstore\n  pop\n  0x00\n  swap1\n  0x03\n  tag_1\n  swap3\n  swap2\n  swap1\n  tag_2\n  jump\t// in\ntag_1:\n  pop\n    /* \"contracts/MemoryVsCalldata_16.sol\":72:796  contract Array{... */\n  callvalue\n  dup1\n  iszero\n  tag_3\n  jumpi\n  0x00\n  dup1\n  revert\ntag_3:\n  pop\n  jump(tag_4)\ntag_2:\n  dup3\n  0x05\n  dup2\n  add\n  swap3\n  dup3\n  iszero\n  tag_5\n  jumpi\n  swap2\n  0x20\n  mul\n  dup3\n  add\ntag_6:\n  dup3\n  dup2\n  gt\n  iszero\n  tag_7\n  jumpi\n  dup3\n  mload\n  dup3\n  swap1\n  0xff\n  and\n  swap1\n  sstore\n  swap2\n  0x20\n  add\n  swap2\n  swap1\n  0x01\n  add\n  swap1\n  jump(tag_6)\ntag_7:\ntag_5:\n  pop\n  swap1\n  pop\n  tag_8\n  swap2\n  swap1\n  tag_9\n  jump\t// in\ntag_8:\n  pop\n  swap1\n  jump\t// out\ntag_9:\ntag_10:\n  dup1\n  dup3\n  gt\n  iszero\n  tag_11\n  jumpi\n  0x00\n  dup2\n  0x00\n  swap1\n  sstore\n  pop\n  0x01\n  add\n  jump(tag_10)\ntag_11:\n  pop\n  swap1\n  jump\t// out\ntag_4:\n  dataSize(sub_0)\n  dup1\n  dataOffset(sub_0)\n  0x00\n  codecopy\n  0x00\n  return\nstop\n\nsub_0: assembly {\n        /* \"contracts/MemoryVsCalldata_16.sol\":72:796  contract Array{... */\n      mstore(0x40, 0x80)\n      callvalue\n      dup1\n      iszero\n      tag_1\n      jumpi\n      0x00\n      dup1\n      revert\n    tag_1:\n      pop\n      jumpi(tag_2, lt(calldatasize, 0x04))\n      shr(0xe0, calldataload(0x00))\n      dup1\n      0x10db3c9f\n      eq\n      tag_3\n      jumpi\n      dup1\n      0x5c269bcc\n      eq\n      tag_4\n      jumpi\n      dup1\n      0x71e5ee5f\n      eq\n      tag_5\n      jumpi\n      dup1\n      0x9a288ce0\n      eq\n      tag_6\n      jumpi\n      dup1\n      0x9bd232d2\n      eq\n      tag_7\n      jumpi\n      dup1\n      0xaa058520\n      eq\n      tag_8\n      jumpi\n    tag_2:\n      0x00\n      dup1\n      revert\n        /* \"contracts/MemoryVsCalldata_16.sol\":498:587  function insertElement(uint index,uint element) public{... */\n    tag_3:\n      tag_9\n      0x04\n      dup1\n      calldatasize\n      sub\n      dup2\n      add\n      swap1\n      tag_10\n      swap2\n      swap1\n      tag_11\n      jump\t// in\n    tag_10:\n      tag_12\n      jump\t// in\n    tag_9:\n      stop\n        /* \"contracts/MemoryVsCalldata_16.sol\":595:691  function returnElement(uint index) public view returns(uint){... */\n    tag_4:\n      tag_13\n      0x04\n      dup1\n      calldatasize\n      sub\n      dup2\n      add\n      swap1\n      tag_14\n      swap2\n      swap1\n      tag_15\n      jump\t// in\n    tag_14:\n      tag_16\n      jump\t// in\n    tag_13:\n      mload(0x40)\n      tag_17\n      swap2\n      swap1\n      tag_18\n      jump\t// in\n    tag_17:\n      mload(0x40)\n      dup1\n      swap2\n      sub\n      swap1\n      return\n        /* \"contracts/MemoryVsCalldata_16.sol\":93:119  uint[5] public arr=[1,2,3] */\n    tag_5:\n      tag_19\n      0x04\n      dup1\n      calldatasize\n      sub\n      dup2\n      add\n      swap1\n      tag_20\n      swap2\n      swap1\n      tag_15\n      jump\t// in\n    tag_20:\n      tag_21\n      jump\t// in\n    tag_19:\n      mload(0x40)\n      tag_22\n      swap2\n      swap1\n      tag_18\n      jump\t// in\n    tag_22:\n      mload(0x40)\n      dup1\n      swap2\n      sub\n      swap1\n      return\n        /* \"contracts/MemoryVsCalldata_16.sol\":354:490  function passingArray(uint[3] calldata num) public pure returns(uint){... */\n    tag_6:\n      tag_23\n      0x04\n      dup1\n      calldatasize\n      sub\n      dup2\n      add\n      swap1\n      tag_24\n      swap2\n      swap1\n      tag_25\n      jump\t// in\n    tag_24:\n      tag_26\n      jump\t// in\n    tag_23:\n      mload(0x40)\n      tag_27\n      swap2\n      swap1\n      tag_18\n      jump\t// in\n    tag_27:\n      mload(0x40)\n      dup1\n      swap2\n      sub\n      swap1\n      return\n        /* \"contracts/MemoryVsCalldata_16.sol\":176:313  function multiplyby2Index0(uint[3] memory num) public pure returns(uint[3] memory){... */\n    tag_7:\n      tag_28\n      0x04\n      dup1\n      calldatasize\n      sub\n      dup2\n      add\n      swap1\n      tag_29\n      swap2\n      swap1\n      tag_30\n      jump\t// in\n    tag_29:\n      tag_31\n      jump\t// in\n    tag_28:\n      mload(0x40)\n      tag_32\n      swap2\n      swap1\n      tag_33\n      jump\t// in\n    tag_32:\n      mload(0x40)\n      dup1\n      swap2\n      sub\n      swap1\n      return\n        /* \"contracts/MemoryVsCalldata_16.sol\":699:793  function returnAllElements() public view returns (uint[5] memory){... */\n    tag_8:\n      tag_34\n      tag_35\n      jump\t// in\n    tag_34:\n      mload(0x40)\n      tag_36\n      swap2\n      swap1\n      tag_37\n      jump\t// in\n    tag_36:\n      mload(0x40)\n      dup1\n      swap2\n      sub\n      swap1\n      return\n        /* \"contracts/MemoryVsCalldata_16.sol\":498:587  function insertElement(uint index,uint element) public{... */\n    tag_12:\n        /* \"contracts/MemoryVsCalldata_16.sol\":572:579  element */\n      dup1\n        /* \"contracts/MemoryVsCalldata_16.sol\":561:564  arr */\n      0x00\n        /* \"contracts/MemoryVsCalldata_16.sol\":565:570  index */\n      dup4\n        /* \"contracts/MemoryVsCalldata_16.sol\":561:571  arr[index] */\n      0x05\n      dup2\n      lt\n      tag_39\n      jumpi\n      tag_40\n      tag_41\n      jump\t// in\n    tag_40:\n    tag_39:\n      add\n        /* \"contracts/MemoryVsCalldata_16.sol\":561:579  arr[index]=element */\n      dup2\n      swap1\n      sstore\n      pop\n        /* \"contracts/MemoryVsCalldata_16.sol\":498:587  function insertElement(uint index,uint element) public{... */\n      pop\n      pop\n      jump\t// out\n        /* \"contracts/MemoryVsCalldata_16.sol\":595:691  function returnElement(uint index) public view returns(uint){... */\n    tag_16:\n        /* \"contracts/MemoryVsCalldata_16.sol\":650:654  uint */\n      0x00\n        /* \"contracts/MemoryVsCalldata_16.sol\":673:676  arr */\n      dup1\n        /* \"contracts/MemoryVsCalldata_16.sol\":677:682  index */\n      dup3\n        /* \"contracts/MemoryVsCalldata_16.sol\":673:683  arr[index] */\n      0x05\n      dup2\n      lt\n      tag_44\n      jumpi\n      tag_45\n      tag_41\n      jump\t// in\n    tag_45:\n    tag_44:\n      add\n      sload\n        /* \"contracts/MemoryVsCalldata_16.sol\":666:683  return arr[index] */\n      swap1\n      pop\n        /* \"contracts/MemoryVsCalldata_16.sol\":595:691  function returnElement(uint index) public view returns(uint){... */\n      swap2\n      swap1\n      pop\n      jump\t// out\n        /* \"contracts/MemoryVsCalldata_16.sol\":93:119  uint[5] public arr=[1,2,3] */\n    tag_21:\n      0x00\n      dup2\n      0x05\n      dup2\n      lt\n      tag_47\n      jumpi\n      0x00\n      dup1\n      revert\n    tag_47:\n      add\n      0x00\n      swap2\n      pop\n      swap1\n      pop\n      sload\n      dup2\n      jump\t// out\n        /* \"contracts/MemoryVsCalldata_16.sol\":354:490  function passingArray(uint[3] calldata num) public pure returns(uint){... */\n    tag_26:\n        /* \"contracts/MemoryVsCalldata_16.sol\":418:422  uint */\n      0x00\n        /* \"contracts/MemoryVsCalldata_16.sol\":434:440  uint a */\n      dup1\n        /* \"contracts/MemoryVsCalldata_16.sol\":441:444  num */\n      dup3\n        /* \"contracts/MemoryVsCalldata_16.sol\":445:446  0 */\n      0x00\n        /* \"contracts/MemoryVsCalldata_16.sol\":441:447  num[0] */\n      0x03\n      dup2\n      lt\n      tag_50\n      jumpi\n      tag_51\n      tag_41\n      jump\t// in\n    tag_51:\n    tag_50:\n      0x20\n      mul\n      add\n      calldataload\n        /* \"contracts/MemoryVsCalldata_16.sol\":434:447  uint a=num[0] */\n      swap1\n      pop\n        /* \"contracts/MemoryVsCalldata_16.sol\":462:463  2 */\n      0x02\n        /* \"contracts/MemoryVsCalldata_16.sol\":460:461  a */\n      dup2\n        /* \"contracts/MemoryVsCalldata_16.sol\":460:463  a*2 */\n      tag_52\n      swap2\n      swap1\n      tag_53\n      jump\t// in\n    tag_52:\n        /* \"contracts/MemoryVsCalldata_16.sol\":458:463  a=a*2 */\n      swap1\n      pop\n        /* \"contracts/MemoryVsCalldata_16.sol\":481:482  a */\n      dup1\n        /* \"contracts/MemoryVsCalldata_16.sol\":474:482  return a */\n      swap2\n      pop\n      pop\n        /* \"contracts/MemoryVsCalldata_16.sol\":354:490  function passingArray(uint[3] calldata num) public pure returns(uint){... */\n      swap2\n      swap1\n      pop\n      jump\t// out\n        /* \"contracts/MemoryVsCalldata_16.sol\":176:313  function multiplyby2Index0(uint[3] memory num) public pure returns(uint[3] memory){... */\n    tag_31:\n        /* \"contracts/MemoryVsCalldata_16.sol\":243:257  uint[3] memory */\n      tag_54\n      tag_55\n      jump\t// in\n    tag_54:\n        /* \"contracts/MemoryVsCalldata_16.sol\":283:284  2 */\n      0x02\n        /* \"contracts/MemoryVsCalldata_16.sol\":276:279  num */\n      dup3\n        /* \"contracts/MemoryVsCalldata_16.sol\":280:281  0 */\n      0x00\n        /* \"contracts/MemoryVsCalldata_16.sol\":276:282  num[0] */\n      0x03\n      dup2\n      lt\n      tag_57\n      jumpi\n      tag_58\n      tag_41\n      jump\t// in\n    tag_58:\n    tag_57:\n      0x20\n      mul\n      add\n      mload\n        /* \"contracts/MemoryVsCalldata_16.sol\":276:284  num[0]*2 */\n      tag_59\n      swap2\n      swap1\n      tag_53\n      jump\t// in\n    tag_59:\n        /* \"contracts/MemoryVsCalldata_16.sol\":269:272  num */\n      dup3\n        /* \"contracts/MemoryVsCalldata_16.sol\":273:274  0 */\n      0x00\n        /* \"contracts/MemoryVsCalldata_16.sol\":269:275  num[0] */\n      0x03\n      dup2\n      lt\n      tag_60\n      jumpi\n      tag_61\n      tag_41\n      jump\t// in\n    tag_61:\n    tag_60:\n      0x20\n      mul\n      add\n        /* \"contracts/MemoryVsCalldata_16.sol\":269:284  num[0]=num[0]*2 */\n      dup2\n      dup2\n      mstore\n      pop\n      pop\n        /* \"contracts/MemoryVsCalldata_16.sol\":302:305  num */\n      dup2\n        /* \"contracts/MemoryVsCalldata_16.sol\":295:305  return num */\n      swap1\n      pop\n        /* \"contracts/MemoryVsCalldata_16.sol\":176:313  function multiplyby2Index0(uint[3] memory num) public pure returns(uint[3] memory){... */\n      swap2\n      swap1\n      pop\n      jump\t// out\n        /* \"contracts/MemoryVsCalldata_16.sol\":699:793  function returnAllElements() public view returns (uint[5] memory){... */\n    tag_35:\n        /* \"contracts/MemoryVsCalldata_16.sol\":749:763  uint[5] memory */\n      tag_62\n      tag_63\n      jump\t// in\n    tag_62:\n        /* \"contracts/MemoryVsCalldata_16.sol\":782:785  arr */\n      0x00\n        /* \"contracts/MemoryVsCalldata_16.sol\":775:785  return arr */\n      0x05\n      dup1\n      0x20\n      mul\n      mload(0x40)\n      swap1\n      dup2\n      add\n      0x40\n      mstore\n      dup1\n      swap3\n      swap2\n      swap1\n      dup3\n      0x05\n      dup1\n      iszero\n      tag_65\n      jumpi\n      0x20\n      mul\n      dup3\n      add\n      swap2\n    tag_66:\n      dup2\n      sload\n      dup2\n      mstore\n      0x20\n      add\n      swap1\n      0x01\n      add\n      swap1\n      dup1\n      dup4\n      gt\n      tag_66\n      jumpi\n    tag_65:\n      pop\n      pop\n      pop\n      pop\n      pop\n      swap1\n      pop\n        /* \"contracts/MemoryVsCalldata_16.sol\":699:793  function returnAllElements() public view returns (uint[5] memory){... */\n      swap1\n      jump\t// out\n    tag_55:\n      mload(0x40)\n      dup1\n      0x60\n      add\n      0x40\n      mstore\n      dup1\n      0x03\n      swap1\n      0x20\n      dup3\n      mul\n      dup1\n      calldatasize\n      dup4\n      calldatacopy\n      dup1\n      dup3\n      add\n      swap2\n      pop\n      pop\n      swap1\n      pop\n      pop\n      swap1\n      jump\t// out\n    tag_63:\n      mload(0x40)\n      dup1\n      0xa0\n      add\n      0x40\n      mstore\n      dup1\n      0x05\n      swap1\n      0x20\n      dup3\n      mul\n      dup1\n      calldatasize\n      dup4\n      calldatacopy\n      dup1\n      dup3\n      add\n      swap2\n      pop\n      pop\n      swap1\n      pop\n      pop\n      swap1\n      jump\t// out\n        /* \"#utility.yul\":7:82   */\n    tag_67:\n        /* \"#utility.yul\":40:46   */\n      0x00\n        /* \"#utility.yul\":73:75   */\n      0x40\n        /* \"#utility.yul\":67:76   */\n      mload\n        /* \"#utility.yul\":57:76   */\n      swap1\n      pop\n        /* \"#utility.yul\":7:82   */\n      swap1\n      jump\t// out\n        /* \"#utility.yul\":88:205   */\n    tag_68:\n        /* \"#utility.yul\":197:198   */\n      0x00\n        /* \"#utility.yul\":194:195   */\n      dup1\n        /* \"#utility.yul\":187:199   */\n      revert\n        /* \"#utility.yul\":334:411   */\n    tag_70:\n        /* \"#utility.yul\":371:378   */\n      0x00\n        /* \"#utility.yul\":400:405   */\n      dup2\n        /* \"#utility.yul\":389:405   */\n      swap1\n      pop\n        /* \"#utility.yul\":334:411   */\n      swap2\n      swap1\n      pop\n      jump\t// out\n        /* \"#utility.yul\":417:539   */\n    tag_71:\n        /* \"#utility.yul\":490:514   */\n      tag_103\n        /* \"#utility.yul\":508:513   */\n      dup2\n        /* \"#utility.yul\":490:514   */\n      tag_70\n      jump\t// in\n    tag_103:\n        /* \"#utility.yul\":483:488   */\n      dup2\n        /* \"#utility.yul\":480:515   */\n      eq\n        /* \"#utility.yul\":470:533   */\n      tag_104\n      jumpi\n        /* \"#utility.yul\":529:530   */\n      0x00\n        /* \"#utility.yul\":526:527   */\n      dup1\n        /* \"#utility.yul\":519:531   */\n      revert\n        /* \"#utility.yul\":470:533   */\n    tag_104:\n        /* \"#utility.yul\":417:539   */\n      pop\n      jump\t// out\n        /* \"#utility.yul\":545:684   */\n    tag_72:\n        /* \"#utility.yul\":591:596   */\n      0x00\n        /* \"#utility.yul\":629:635   */\n      dup2\n        /* \"#utility.yul\":616:636   */\n      calldataload\n        /* \"#utility.yul\":607:636   */\n      swap1\n      pop\n        /* \"#utility.yul\":645:678   */\n      tag_106\n        /* \"#utility.yul\":672:677   */\n      dup2\n        /* \"#utility.yul\":645:678   */\n      tag_71\n      jump\t// in\n    tag_106:\n        /* \"#utility.yul\":545:684   */\n      swap3\n      swap2\n      pop\n      pop\n      jump\t// out\n        /* \"#utility.yul\":690:1164   */\n    tag_11:\n        /* \"#utility.yul\":758:764   */\n      0x00\n        /* \"#utility.yul\":766:772   */\n      dup1\n        /* \"#utility.yul\":815:817   */\n      0x40\n        /* \"#utility.yul\":803:812   */\n      dup4\n        /* \"#utility.yul\":794:801   */\n      dup6\n        /* \"#utility.yul\":790:813   */\n      sub\n        /* \"#utility.yul\":786:818   */\n      slt\n        /* \"#utility.yul\":783:902   */\n      iszero\n      tag_108\n      jumpi\n        /* \"#utility.yul\":821:900   */\n      tag_109\n      tag_68\n      jump\t// in\n    tag_109:\n        /* \"#utility.yul\":783:902   */\n    tag_108:\n        /* \"#utility.yul\":941:942   */\n      0x00\n        /* \"#utility.yul\":966:1019   */\n      tag_110\n        /* \"#utility.yul\":1011:1018   */\n      dup6\n        /* \"#utility.yul\":1002:1008   */\n      dup3\n        /* \"#utility.yul\":991:1000   */\n      dup7\n        /* \"#utility.yul\":987:1009   */\n      add\n        /* \"#utility.yul\":966:1019   */\n      tag_72\n      jump\t// in\n    tag_110:\n        /* \"#utility.yul\":956:1019   */\n      swap3\n      pop\n        /* \"#utility.yul\":912:1029   */\n      pop\n        /* \"#utility.yul\":1068:1070   */\n      0x20\n        /* \"#utility.yul\":1094:1147   */\n      tag_111\n        /* \"#utility.yul\":1139:1146   */\n      dup6\n        /* \"#utility.yul\":1130:1136   */\n      dup3\n        /* \"#utility.yul\":1119:1128   */\n      dup7\n        /* \"#utility.yul\":1115:1137   */\n      add\n        /* \"#utility.yul\":1094:1147   */\n      tag_72\n      jump\t// in\n    tag_111:\n        /* \"#utility.yul\":1084:1147   */\n      swap2\n      pop\n        /* \"#utility.yul\":1039:1157   */\n      pop\n        /* \"#utility.yul\":690:1164   */\n      swap3\n      pop\n      swap3\n      swap1\n      pop\n      jump\t// out\n        /* \"#utility.yul\":1170:1499   */\n    tag_15:\n        /* \"#utility.yul\":1229:1235   */\n      0x00\n        /* \"#utility.yul\":1278:1280   */\n      0x20\n        /* \"#utility.yul\":1266:1275   */\n      dup3\n        /* \"#utility.yul\":1257:1264   */\n      dup5\n        /* \"#utility.yul\":1253:1276   */\n      sub\n        /* \"#utility.yul\":1249:1281   */\n      slt\n        /* \"#utility.yul\":1246:1365   */\n      iszero\n      tag_113\n      jumpi\n        /* \"#utility.yul\":1284:1363   */\n      tag_114\n      tag_68\n      jump\t// in\n    tag_114:\n        /* \"#utility.yul\":1246:1365   */\n    tag_113:\n        /* \"#utility.yul\":1404:1405   */\n      0x00\n        /* \"#utility.yul\":1429:1482   */\n      tag_115\n        /* \"#utility.yul\":1474:1481   */\n      dup5\n        /* \"#utility.yul\":1465:1471   */\n      dup3\n        /* \"#utility.yul\":1454:1463   */\n      dup6\n        /* \"#utility.yul\":1450:1472   */\n      add\n        /* \"#utility.yul\":1429:1482   */\n      tag_72\n      jump\t// in\n    tag_115:\n        /* \"#utility.yul\":1419:1482   */\n      swap2\n      pop\n        /* \"#utility.yul\":1375:1492   */\n      pop\n        /* \"#utility.yul\":1170:1499   */\n      swap3\n      swap2\n      pop\n      pop\n      jump\t// out\n        /* \"#utility.yul\":1505:1623   */\n    tag_73:\n        /* \"#utility.yul\":1592:1616   */\n      tag_117\n        /* \"#utility.yul\":1610:1615   */\n      dup2\n        /* \"#utility.yul\":1592:1616   */\n      tag_70\n      jump\t// in\n    tag_117:\n        /* \"#utility.yul\":1587:1590   */\n      dup3\n        /* \"#utility.yul\":1580:1617   */\n      mstore\n        /* \"#utility.yul\":1505:1623   */\n      pop\n      pop\n      jump\t// out\n        /* \"#utility.yul\":1629:1851   */\n    tag_18:\n        /* \"#utility.yul\":1722:1726   */\n      0x00\n        /* \"#utility.yul\":1760:1762   */\n      0x20\n        /* \"#utility.yul\":1749:1758   */\n      dup3\n        /* \"#utility.yul\":1745:1763   */\n      add\n        /* \"#utility.yul\":1737:1763   */\n      swap1\n      pop\n        /* \"#utility.yul\":1773:1844   */\n      tag_119\n        /* \"#utility.yul\":1841:1842   */\n      0x00\n        /* \"#utility.yul\":1830:1839   */\n      dup4\n        /* \"#utility.yul\":1826:1843   */\n      add\n        /* \"#utility.yul\":1817:1823   */\n      dup5\n        /* \"#utility.yul\":1773:1844   */\n      tag_73\n      jump\t// in\n    tag_119:\n        /* \"#utility.yul\":1629:1851   */\n      swap3\n      swap2\n      pop\n      pop\n      jump\t// out\n        /* \"#utility.yul\":1857:1974   */\n    tag_74:\n        /* \"#utility.yul\":1966:1967   */\n      0x00\n        /* \"#utility.yul\":1963:1964   */\n      dup1\n        /* \"#utility.yul\":1956:1968   */\n      revert\n        /* \"#utility.yul\":1998:2247   */\n    tag_75:\n        /* \"#utility.yul\":2069:2077   */\n      0x00\n        /* \"#utility.yul\":2100:2106   */\n      dup2\n        /* \"#utility.yul\":2088:2106   */\n      swap1\n      pop\n        /* \"#utility.yul\":2153:2156   */\n      dup3\n        /* \"#utility.yul\":2145:2149   */\n      0x20\n        /* \"#utility.yul\":2139:2143   */\n      0x03\n        /* \"#utility.yul\":2135:2150   */\n      mul\n        /* \"#utility.yul\":2125:2133   */\n      dup3\n        /* \"#utility.yul\":2121:2151   */\n      add\n        /* \"#utility.yul\":2118:2157   */\n      gt\n        /* \"#utility.yul\":2115:2241   */\n      iszero\n      tag_122\n      jumpi\n        /* \"#utility.yul\":2160:2239   */\n      tag_123\n      tag_74\n      jump\t// in\n    tag_123:\n        /* \"#utility.yul\":2115:2241   */\n    tag_122:\n        /* \"#utility.yul\":1998:2247   */\n      swap3\n      swap2\n      pop\n      pop\n      jump\t// out\n        /* \"#utility.yul\":2253:2632   */\n    tag_25:\n        /* \"#utility.yul\":2337:2343   */\n      0x00\n        /* \"#utility.yul\":2386:2388   */\n      0x60\n        /* \"#utility.yul\":2374:2383   */\n      dup3\n        /* \"#utility.yul\":2365:2372   */\n      dup5\n        /* \"#utility.yul\":2361:2384   */\n      sub\n        /* \"#utility.yul\":2357:2389   */\n      slt\n        /* \"#utility.yul\":2354:2473   */\n      iszero\n      tag_125\n      jumpi\n        /* \"#utility.yul\":2392:2471   */\n      tag_126\n      tag_68\n      jump\t// in\n    tag_126:\n        /* \"#utility.yul\":2354:2473   */\n    tag_125:\n        /* \"#utility.yul\":2512:2513   */\n      0x00\n        /* \"#utility.yul\":2537:2615   */\n      tag_127\n        /* \"#utility.yul\":2607:2614   */\n      dup5\n        /* \"#utility.yul\":2598:2604   */\n      dup3\n        /* \"#utility.yul\":2587:2596   */\n      dup6\n        /* \"#utility.yul\":2583:2605   */\n      add\n        /* \"#utility.yul\":2537:2615   */\n      tag_75\n      jump\t// in\n    tag_127:\n        /* \"#utility.yul\":2527:2615   */\n      swap2\n      pop\n        /* \"#utility.yul\":2483:2625   */\n      pop\n        /* \"#utility.yul\":2253:2632   */\n      swap3\n      swap2\n      pop\n      pop\n      jump\t// out\n        /* \"#utility.yul\":2638:2755   */\n    tag_76:\n        /* \"#utility.yul\":2747:2748   */\n      0x00\n        /* \"#utility.yul\":2744:2745   */\n      dup1\n        /* \"#utility.yul\":2737:2749   */\n      revert\n        /* \"#utility.yul\":2761:2863   */\n    tag_77:\n        /* \"#utility.yul\":2802:2808   */\n      0x00\n        /* \"#utility.yul\":2853:2855   */\n      0x1f\n        /* \"#utility.yul\":2849:2856   */\n      not\n        /* \"#utility.yul\":2844:2846   */\n      0x1f\n        /* \"#utility.yul\":2837:2842   */\n      dup4\n        /* \"#utility.yul\":2833:2847   */\n      add\n        /* \"#utility.yul\":2829:2857   */\n      and\n        /* \"#utility.yul\":2819:2857   */\n      swap1\n      pop\n        /* \"#utility.yul\":2761:2863   */\n      swap2\n      swap1\n      pop\n      jump\t// out\n        /* \"#utility.yul\":2869:3049   */\n    tag_78:\n        /* \"#utility.yul\":2917:2994   */\n      0x4e487b7100000000000000000000000000000000000000000000000000000000\n        /* \"#utility.yul\":2914:2915   */\n      0x00\n        /* \"#utility.yul\":2907:2995   */\n      mstore\n        /* \"#utility.yul\":3014:3018   */\n      0x41\n        /* \"#utility.yul\":3011:3012   */\n      0x04\n        /* \"#utility.yul\":3004:3019   */\n      mstore\n        /* \"#utility.yul\":3038:3042   */\n      0x24\n        /* \"#utility.yul\":3035:3036   */\n      0x00\n        /* \"#utility.yul\":3028:3043   */\n      revert\n        /* \"#utility.yul\":3055:3336   */\n    tag_79:\n        /* \"#utility.yul\":3138:3165   */\n      tag_132\n        /* \"#utility.yul\":3160:3164   */\n      dup3\n        /* \"#utility.yul\":3138:3165   */\n      tag_77\n      jump\t// in\n    tag_132:\n        /* \"#utility.yul\":3130:3136   */\n      dup2\n        /* \"#utility.yul\":3126:3166   */\n      add\n        /* \"#utility.yul\":3268:3274   */\n      dup2\n        /* \"#utility.yul\":3256:3266   */\n      dup2\n        /* \"#utility.yul\":3253:3275   */\n      lt\n        /* \"#utility.yul\":3232:3250   */\n      0xffffffffffffffff\n        /* \"#utility.yul\":3220:3230   */\n      dup3\n        /* \"#utility.yul\":3217:3251   */\n      gt\n        /* \"#utility.yul\":3214:3276   */\n      or\n        /* \"#utility.yul\":3211:3299   */\n      iszero\n      tag_133\n      jumpi\n        /* \"#utility.yul\":3279:3297   */\n      tag_134\n      tag_78\n      jump\t// in\n    tag_134:\n        /* \"#utility.yul\":3211:3299   */\n    tag_133:\n        /* \"#utility.yul\":3319:3329   */\n      dup1\n        /* \"#utility.yul\":3315:3317   */\n      0x40\n        /* \"#utility.yul\":3308:3330   */\n      mstore\n        /* \"#utility.yul\":3098:3336   */\n      pop\n        /* \"#utility.yul\":3055:3336   */\n      pop\n      pop\n      jump\t// out\n        /* \"#utility.yul\":3342:3471   */\n    tag_80:\n        /* \"#utility.yul\":3376:3382   */\n      0x00\n        /* \"#utility.yul\":3403:3423   */\n      tag_136\n      tag_67\n      jump\t// in\n    tag_136:\n        /* \"#utility.yul\":3393:3423   */\n      swap1\n      pop\n        /* \"#utility.yul\":3432:3465   */\n      tag_137\n        /* \"#utility.yul\":3460:3464   */\n      dup3\n        /* \"#utility.yul\":3452:3458   */\n      dup3\n        /* \"#utility.yul\":3432:3465   */\n      tag_79\n      jump\t// in\n    tag_137:\n        /* \"#utility.yul\":3342:3471   */\n      swap2\n      swap1\n      pop\n      jump\t// out\n        /* \"#utility.yul\":3477:3726   */\n    tag_81:\n        /* \"#utility.yul\":3552:3556   */\n      0x00\n        /* \"#utility.yul\":3642:3660   */\n      0xffffffffffffffff\n        /* \"#utility.yul\":3634:3640   */\n      dup3\n        /* \"#utility.yul\":3631:3661   */\n      gt\n        /* \"#utility.yul\":3628:3684   */\n      iszero\n      tag_139\n      jumpi\n        /* \"#utility.yul\":3664:3682   */\n      tag_140\n      tag_78\n      jump\t// in\n    tag_140:\n        /* \"#utility.yul\":3628:3684   */\n    tag_139:\n        /* \"#utility.yul\":3714:3718   */\n      0x20\n        /* \"#utility.yul\":3706:3712   */\n      dup3\n        /* \"#utility.yul\":3702:3719   */\n      mul\n        /* \"#utility.yul\":3694:3719   */\n      swap1\n      pop\n        /* \"#utility.yul\":3477:3726   */\n      swap2\n      swap1\n      pop\n      jump\t// out\n        /* \"#utility.yul\":3750:4393   */\n    tag_82:\n        /* \"#utility.yul\":3844:3849   */\n      0x00\n        /* \"#utility.yul\":3869:3948   */\n      tag_142\n        /* \"#utility.yul\":3885:3947   */\n      tag_143\n        /* \"#utility.yul\":3940:3946   */\n      dup5\n        /* \"#utility.yul\":3885:3947   */\n      tag_81\n      jump\t// in\n    tag_143:\n        /* \"#utility.yul\":3869:3948   */\n      tag_80\n      jump\t// in\n    tag_142:\n        /* \"#utility.yul\":3860:3948   */\n      swap1\n      pop\n        /* \"#utility.yul\":3968:3973   */\n      dup1\n        /* \"#utility.yul\":4021:4025   */\n      0x20\n        /* \"#utility.yul\":4013:4019   */\n      dup5\n        /* \"#utility.yul\":4009:4026   */\n      mul\n        /* \"#utility.yul\":4001:4007   */\n      dup4\n        /* \"#utility.yul\":3997:4027   */\n      add\n        /* \"#utility.yul\":4050:4053   */\n      dup6\n        /* \"#utility.yul\":4042:4048   */\n      dup2\n        /* \"#utility.yul\":4039:4054   */\n      gt\n        /* \"#utility.yul\":4036:4158   */\n      iszero\n      tag_144\n      jumpi\n        /* \"#utility.yul\":4069:4148   */\n      tag_145\n      tag_74\n      jump\t// in\n    tag_145:\n        /* \"#utility.yul\":4036:4158   */\n    tag_144:\n        /* \"#utility.yul\":4184:4190   */\n      dup4\n        /* \"#utility.yul\":4167:4387   */\n    tag_146:\n        /* \"#utility.yul\":4201:4207   */\n      dup2\n        /* \"#utility.yul\":4196:4199   */\n      dup2\n        /* \"#utility.yul\":4193:4208   */\n      lt\n        /* \"#utility.yul\":4167:4387   */\n      iszero\n      tag_148\n      jumpi\n        /* \"#utility.yul\":4276:4279   */\n      dup1\n        /* \"#utility.yul\":4305:4342   */\n      tag_149\n        /* \"#utility.yul\":4338:4341   */\n      dup9\n        /* \"#utility.yul\":4326:4336   */\n      dup3\n        /* \"#utility.yul\":4305:4342   */\n      tag_72\n      jump\t// in\n    tag_149:\n        /* \"#utility.yul\":4300:4303   */\n      dup5\n        /* \"#utility.yul\":4293:4343   */\n      mstore\n        /* \"#utility.yul\":4372:4376   */\n      0x20\n        /* \"#utility.yul\":4367:4370   */\n      dup5\n        /* \"#utility.yul\":4363:4377   */\n      add\n        /* \"#utility.yul\":4356:4377   */\n      swap4\n      pop\n        /* \"#utility.yul\":4243:4387   */\n      pop\n        /* \"#utility.yul\":4227:4231   */\n      0x20\n        /* \"#utility.yul\":4222:4225   */\n      dup2\n        /* \"#utility.yul\":4218:4232   */\n      add\n        /* \"#utility.yul\":4211:4232   */\n      swap1\n      pop\n        /* \"#utility.yul\":4167:4387   */\n      jump(tag_146)\n    tag_148:\n        /* \"#utility.yul\":4171:4192   */\n      pop\n        /* \"#utility.yul\":3850:4393   */\n      pop\n      pop\n        /* \"#utility.yul\":3750:4393   */\n      swap4\n      swap3\n      pop\n      pop\n      pop\n      jump\t// out\n        /* \"#utility.yul\":4417:4756   */\n    tag_83:\n        /* \"#utility.yul\":4486:4491   */\n      0x00\n        /* \"#utility.yul\":4535:4538   */\n      dup3\n        /* \"#utility.yul\":4528:4532   */\n      0x1f\n        /* \"#utility.yul\":4520:4526   */\n      dup4\n        /* \"#utility.yul\":4516:4533   */\n      add\n        /* \"#utility.yul\":4512:4539   */\n      slt\n        /* \"#utility.yul\":4502:4624   */\n      tag_151\n      jumpi\n        /* \"#utility.yul\":4543:4622   */\n      tag_152\n      tag_76\n      jump\t// in\n    tag_152:\n        /* \"#utility.yul\":4502:4624   */\n    tag_151:\n        /* \"#utility.yul\":4647:4651   */\n      0x03\n        /* \"#utility.yul\":4669:4750   */\n      tag_153\n        /* \"#utility.yul\":4746:4749   */\n      dup5\n        /* \"#utility.yul\":4738:4744   */\n      dup3\n        /* \"#utility.yul\":4730:4736   */\n      dup6\n        /* \"#utility.yul\":4669:4750   */\n      tag_82\n      jump\t// in\n    tag_153:\n        /* \"#utility.yul\":4660:4750   */\n      swap2\n      pop\n        /* \"#utility.yul\":4492:4756   */\n      pop\n        /* \"#utility.yul\":4417:4756   */\n      swap3\n      swap2\n      pop\n      pop\n      jump\t// out\n        /* \"#utility.yul\":4762:5137   */\n    tag_30:\n        /* \"#utility.yul\":4844:4850   */\n      0x00\n        /* \"#utility.yul\":4893:4895   */\n      0x60\n        /* \"#utility.yul\":4881:4890   */\n      dup3\n        /* \"#utility.yul\":4872:4879   */\n      dup5\n        /* \"#utility.yul\":4868:4891   */\n      sub\n        /* \"#utility.yul\":4864:4896   */\n      slt\n        /* \"#utility.yul\":4861:4980   */\n      iszero\n      tag_155\n      jumpi\n        /* \"#utility.yul\":4899:4978   */\n      tag_156\n      tag_68\n      jump\t// in\n    tag_156:\n        /* \"#utility.yul\":4861:4980   */\n    tag_155:\n        /* \"#utility.yul\":5019:5020   */\n      0x00\n        /* \"#utility.yul\":5044:5120   */\n      tag_157\n        /* \"#utility.yul\":5112:5119   */\n      dup5\n        /* \"#utility.yul\":5103:5109   */\n      dup3\n        /* \"#utility.yul\":5092:5101   */\n      dup6\n        /* \"#utility.yul\":5088:5110   */\n      add\n        /* \"#utility.yul\":5044:5120   */\n      tag_83\n      jump\t// in\n    tag_157:\n        /* \"#utility.yul\":5034:5120   */\n      swap2\n      pop\n        /* \"#utility.yul\":4990:5130   */\n      pop\n        /* \"#utility.yul\":4762:5137   */\n      swap3\n      swap2\n      pop\n      pop\n      jump\t// out\n        /* \"#utility.yul\":5143:5247   */\n    tag_84:\n        /* \"#utility.yul\":5208:5214   */\n      0x00\n        /* \"#utility.yul\":5236:5240   */\n      0x03\n        /* \"#utility.yul\":5226:5240   */\n      swap1\n      pop\n        /* \"#utility.yul\":5143:5247   */\n      swap2\n      swap1\n      pop\n      jump\t// out\n        /* \"#utility.yul\":5253:5396   */\n    tag_85:\n        /* \"#utility.yul\":5350:5361   */\n      0x00\n        /* \"#utility.yul\":5387:5390   */\n      dup2\n        /* \"#utility.yul\":5372:5390   */\n      swap1\n      pop\n        /* \"#utility.yul\":5253:5396   */\n      swap3\n      swap2\n      pop\n      pop\n      jump\t// out\n        /* \"#utility.yul\":5402:5500   */\n    tag_86:\n        /* \"#utility.yul\":5467:5471   */\n      0x00\n        /* \"#utility.yul\":5490:5493   */\n      dup2\n        /* \"#utility.yul\":5482:5493   */\n      swap1\n      pop\n        /* \"#utility.yul\":5402:5500   */\n      swap2\n      swap1\n      pop\n      jump\t// out\n        /* \"#utility.yul\":5506:5614   */\n    tag_87:\n        /* \"#utility.yul\":5583:5607   */\n      tag_162\n        /* \"#utility.yul\":5601:5606   */\n      dup2\n        /* \"#utility.yul\":5583:5607   */\n      tag_70\n      jump\t// in\n    tag_162:\n        /* \"#utility.yul\":5578:5581   */\n      dup3\n        /* \"#utility.yul\":5571:5608   */\n      mstore\n        /* \"#utility.yul\":5506:5614   */\n      pop\n      pop\n      jump\t// out\n        /* \"#utility.yul\":5620:5799   */\n    tag_88:\n        /* \"#utility.yul\":5689:5699   */\n      0x00\n        /* \"#utility.yul\":5710:5756   */\n      tag_164\n        /* \"#utility.yul\":5752:5755   */\n      dup4\n        /* \"#utility.yul\":5744:5750   */\n      dup4\n        /* \"#utility.yul\":5710:5756   */\n      tag_87\n      jump\t// in\n    tag_164:\n        /* \"#utility.yul\":5788:5792   */\n      0x20\n        /* \"#utility.yul\":5783:5786   */\n      dup4\n        /* \"#utility.yul\":5779:5793   */\n      add\n        /* \"#utility.yul\":5765:5793   */\n      swap1\n      pop\n        /* \"#utility.yul\":5620:5799   */\n      swap3\n      swap2\n      pop\n      pop\n      jump\t// out\n        /* \"#utility.yul\":5805:5916   */\n    tag_89:\n        /* \"#utility.yul\":5873:5877   */\n      0x00\n        /* \"#utility.yul\":5905:5909   */\n      0x20\n        /* \"#utility.yul\":5900:5903   */\n      dup3\n        /* \"#utility.yul\":5896:5910   */\n      add\n        /* \"#utility.yul\":5888:5910   */\n      swap1\n      pop\n        /* \"#utility.yul\":5805:5916   */\n      swap2\n      swap1\n      pop\n      jump\t// out\n        /* \"#utility.yul\":5954:6648   */\n    tag_90:\n        /* \"#utility.yul\":6090:6142   */\n      tag_167\n        /* \"#utility.yul\":6136:6141   */\n      dup2\n        /* \"#utility.yul\":6090:6142   */\n      tag_84\n      jump\t// in\n    tag_167:\n        /* \"#utility.yul\":6158:6242   */\n      tag_168\n        /* \"#utility.yul\":6235:6241   */\n      dup2\n        /* \"#utility.yul\":6230:6233   */\n      dup5\n        /* \"#utility.yul\":6158:6242   */\n      tag_85\n      jump\t// in\n    tag_168:\n        /* \"#utility.yul\":6151:6242   */\n      swap3\n      pop\n        /* \"#utility.yul\":6266:6320   */\n      tag_169\n        /* \"#utility.yul\":6314:6319   */\n      dup3\n        /* \"#utility.yul\":6266:6320   */\n      tag_86\n      jump\t// in\n    tag_169:\n        /* \"#utility.yul\":6343:6350   */\n      dup1\n        /* \"#utility.yul\":6374:6375   */\n      0x00\n        /* \"#utility.yul\":6359:6641   */\n    tag_170:\n        /* \"#utility.yul\":6384:6390   */\n      dup4\n        /* \"#utility.yul\":6381:6382   */\n      dup2\n        /* \"#utility.yul\":6378:6391   */\n      lt\n        /* \"#utility.yul\":6359:6641   */\n      iszero\n      tag_172\n      jumpi\n        /* \"#utility.yul\":6460:6466   */\n      dup2\n        /* \"#utility.yul\":6454:6467   */\n      mload\n        /* \"#utility.yul\":6487:6550   */\n      tag_173\n        /* \"#utility.yul\":6546:6549   */\n      dup8\n        /* \"#utility.yul\":6531:6544   */\n      dup3\n        /* \"#utility.yul\":6487:6550   */\n      tag_88\n      jump\t// in\n    tag_173:\n        /* \"#utility.yul\":6480:6550   */\n      swap7\n      pop\n        /* \"#utility.yul\":6573:6631   */\n      tag_174\n        /* \"#utility.yul\":6624:6630   */\n      dup4\n        /* \"#utility.yul\":6573:6631   */\n      tag_89\n      jump\t// in\n    tag_174:\n        /* \"#utility.yul\":6563:6631   */\n      swap3\n      pop\n        /* \"#utility.yul\":6419:6641   */\n      pop\n        /* \"#utility.yul\":6406:6407   */\n      0x01\n        /* \"#utility.yul\":6403:6404   */\n      dup2\n        /* \"#utility.yul\":6399:6408   */\n      add\n        /* \"#utility.yul\":6394:6408   */\n      swap1\n      pop\n        /* \"#utility.yul\":6359:6641   */\n      jump(tag_170)\n    tag_172:\n        /* \"#utility.yul\":6363:6377   */\n      pop\n        /* \"#utility.yul\":6066:6648   */\n      pop\n      pop\n      pop\n        /* \"#utility.yul\":5954:6648   */\n      pop\n      pop\n      jump\t// out\n        /* \"#utility.yul\":6654:6968   */\n    tag_33:\n        /* \"#utility.yul\":6793:6797   */\n      0x00\n        /* \"#utility.yul\":6831:6833   */\n      0x60\n        /* \"#utility.yul\":6820:6829   */\n      dup3\n        /* \"#utility.yul\":6816:6834   */\n      add\n        /* \"#utility.yul\":6808:6834   */\n      swap1\n      pop\n        /* \"#utility.yul\":6844:6961   */\n      tag_176\n        /* \"#utility.yul\":6958:6959   */\n      0x00\n        /* \"#utility.yul\":6947:6956   */\n      dup4\n        /* \"#utility.yul\":6943:6960   */\n      add\n        /* \"#utility.yul\":6934:6940   */\n      dup5\n        /* \"#utility.yul\":6844:6961   */\n      tag_90\n      jump\t// in\n    tag_176:\n        /* \"#utility.yul\":6654:6968   */\n      swap3\n      swap2\n      pop\n      pop\n      jump\t// out\n        /* \"#utility.yul\":6974:7078   */\n    tag_91:\n        /* \"#utility.yul\":7039:7045   */\n      0x00\n        /* \"#utility.yul\":7067:7071   */\n      0x05\n        /* \"#utility.yul\":7057:7071   */\n      swap1\n      pop\n        /* \"#utility.yul\":6974:7078   */\n      swap2\n      swap1\n      pop\n      jump\t// out\n        /* \"#utility.yul\":7084:7227   */\n    tag_92:\n        /* \"#utility.yul\":7181:7192   */\n      0x00\n        /* \"#utility.yul\":7218:7221   */\n      dup2\n        /* \"#utility.yul\":7203:7221   */\n      swap1\n      pop\n        /* \"#utility.yul\":7084:7227   */\n      swap3\n      swap2\n      pop\n      pop\n      jump\t// out\n        /* \"#utility.yul\":7233:7331   */\n    tag_93:\n        /* \"#utility.yul\":7298:7302   */\n      0x00\n        /* \"#utility.yul\":7321:7324   */\n      dup2\n        /* \"#utility.yul\":7313:7324   */\n      swap1\n      pop\n        /* \"#utility.yul\":7233:7331   */\n      swap2\n      swap1\n      pop\n      jump\t// out\n        /* \"#utility.yul\":7337:7448   */\n    tag_94:\n        /* \"#utility.yul\":7405:7409   */\n      0x00\n        /* \"#utility.yul\":7437:7441   */\n      0x20\n        /* \"#utility.yul\":7432:7435   */\n      dup3\n        /* \"#utility.yul\":7428:7442   */\n      add\n        /* \"#utility.yul\":7420:7442   */\n      swap1\n      pop\n        /* \"#utility.yul\":7337:7448   */\n      swap2\n      swap1\n      pop\n      jump\t// out\n        /* \"#utility.yul\":7486:8180   */\n    tag_95:\n        /* \"#utility.yul\":7622:7674   */\n      tag_182\n        /* \"#utility.yul\":7668:7673   */\n      dup2\n        /* \"#utility.yul\":7622:7674   */\n      tag_91\n      jump\t// in\n    tag_182:\n        /* \"#utility.yul\":7690:7774   */\n      tag_183\n        /* \"#utility.yul\":7767:7773   */\n      dup2\n        /* \"#utility.yul\":7762:7765   */\n      dup5\n        /* \"#utility.yul\":7690:7774   */\n      tag_92\n      jump\t// in\n    tag_183:\n        /* \"#utility.yul\":7683:7774   */\n      swap3\n      pop\n        /* \"#utility.yul\":7798:7852   */\n      tag_184\n        /* \"#utility.yul\":7846:7851   */\n      dup3\n        /* \"#utility.yul\":7798:7852   */\n      tag_93\n      jump\t// in\n    tag_184:\n        /* \"#utility.yul\":7875:7882   */\n      dup1\n        /* \"#utility.yul\":7906:7907   */\n      0x00\n        /* \"#utility.yul\":7891:8173   */\n    tag_185:\n        /* \"#utility.yul\":7916:7922   */\n      dup4\n        /* \"#utility.yul\":7913:7914   */\n      dup2\n        /* \"#utility.yul\":7910:7923   */\n      lt\n        /* \"#utility.yul\":7891:8173   */\n      iszero\n      tag_187\n      jumpi\n        /* \"#utility.yul\":7992:7998   */\n      dup2\n        /* \"#utility.yul\":7986:7999   */\n      mload\n        /* \"#utility.yul\":8019:8082   */\n      tag_188\n        /* \"#utility.yul\":8078:8081   */\n      dup8\n        /* \"#utility.yul\":8063:8076   */\n      dup3\n        /* \"#utility.yul\":8019:8082   */\n      tag_88\n      jump\t// in\n    tag_188:\n        /* \"#utility.yul\":8012:8082   */\n      swap7\n      pop\n        /* \"#utility.yul\":8105:8163   */\n      tag_189\n        /* \"#utility.yul\":8156:8162   */\n      dup4\n        /* \"#utility.yul\":8105:8163   */\n      tag_94\n      jump\t// in\n    tag_189:\n        /* \"#utility.yul\":8095:8163   */\n      swap3\n      pop\n        /* \"#utility.yul\":7951:8173   */\n      pop\n        /* \"#utility.yul\":7938:7939   */\n      0x01\n        /* \"#utility.yul\":7935:7936   */\n      dup2\n        /* \"#utility.yul\":7931:7940   */\n      add\n        /* \"#utility.yul\":7926:7940   */\n      swap1\n      pop\n        /* \"#utility.yul\":7891:8173   */\n      jump(tag_185)\n    tag_187:\n        /* \"#utility.yul\":7895:7909   */\n      pop\n        /* \"#utility.yul\":7598:8180   */\n      pop\n      pop\n      pop\n        /* \"#utility.yul\":7486:8180   */\n      pop\n      pop\n      jump\t// out\n        /* \"#utility.yul\":8186:8501   */\n    tag_37:\n        /* \"#utility.yul\":8325:8329   */\n      0x00\n        /* \"#utility.yul\":8363:8366   */\n      0xa0\n        /* \"#utility.yul\":8352:8361   */\n      dup3\n        /* \"#utility.yul\":8348:8367   */\n      add\n        /* \"#utility.yul\":8340:8367   */\n      swap1\n      pop\n        /* \"#utility.yul\":8377:8494   */\n      tag_191\n        /* \"#utility.yul\":8491:8492   */\n      0x00\n        /* \"#utility.yul\":8480:8489   */\n      dup4\n        /* \"#utility.yul\":8476:8493   */\n      add\n        /* \"#utility.yul\":8467:8473   */\n      dup5\n        /* \"#utility.yul\":8377:8494   */\n      tag_95\n      jump\t// in\n    tag_191:\n        /* \"#utility.yul\":8186:8501   */\n      swap3\n      swap2\n      pop\n      pop\n      jump\t// out\n        /* \"#utility.yul\":8507:8687   */\n    tag_41:\n        /* \"#utility.yul\":8555:8632   */\n      0x4e487b7100000000000000000000000000000000000000000000000000000000\n        /* \"#utility.yul\":8552:8553   */\n      0x00\n        /* \"#utility.yul\":8545:8633   */\n      mstore\n        /* \"#utility.yul\":8652:8656   */\n      0x32\n        /* \"#utility.yul\":8649:8650   */\n      0x04\n        /* \"#utility.yul\":8642:8657   */\n      mstore\n        /* \"#utility.yul\":8676:8680   */\n      0x24\n        /* \"#utility.yul\":8673:8674   */\n      0x00\n        /* \"#utility.yul\":8666:8681   */\n      revert\n        /* \"#utility.yul\":8693:8873   */\n    tag_96:\n        /* \"#utility.yul\":8741:8818   */\n      0x4e487b7100000000000000000000000000000000000000000000000000000000\n        /* \"#utility.yul\":8738:8739   */\n      0x00\n        /* \"#utility.yul\":8731:8819   */\n      mstore\n        /* \"#utility.yul\":8838:8842   */\n      0x11\n        /* \"#utility.yul\":8835:8836   */\n      0x04\n        /* \"#utility.yul\":8828:8843   */\n      mstore\n        /* \"#utility.yul\":8862:8866   */\n      0x24\n        /* \"#utility.yul\":8859:8860   */\n      0x00\n        /* \"#utility.yul\":8852:8867   */\n      revert\n        /* \"#utility.yul\":8879:9289   */\n    tag_53:\n        /* \"#utility.yul\":8919:8926   */\n      0x00\n        /* \"#utility.yul\":8942:8962   */\n      tag_195\n        /* \"#utility.yul\":8960:8961   */\n      dup3\n        /* \"#utility.yul\":8942:8962   */\n      tag_70\n      jump\t// in\n    tag_195:\n        /* \"#utility.yul\":8937:8962   */\n      swap2\n      pop\n        /* \"#utility.yul\":8976:8996   */\n      tag_196\n        /* \"#utility.yul\":8994:8995   */\n      dup4\n        /* \"#utility.yul\":8976:8996   */\n      tag_70\n      jump\t// in\n    tag_196:\n        /* \"#utility.yul\":8971:8996   */\n      swap3\n      pop\n        /* \"#utility.yul\":9031:9032   */\n      dup3\n        /* \"#utility.yul\":9028:9029   */\n      dup3\n        /* \"#utility.yul\":9024:9033   */\n      mul\n        /* \"#utility.yul\":9053:9083   */\n      tag_197\n        /* \"#utility.yul\":9071:9082   */\n      dup2\n        /* \"#utility.yul\":9053:9083   */\n      tag_70\n      jump\t// in\n    tag_197:\n        /* \"#utility.yul\":9042:9083   */\n      swap2\n      pop\n        /* \"#utility.yul\":9232:9233   */\n      dup3\n        /* \"#utility.yul\":9223:9230   */\n      dup3\n        /* \"#utility.yul\":9219:9234   */\n      div\n        /* \"#utility.yul\":9216:9217   */\n      dup5\n        /* \"#utility.yul\":9213:9235   */\n      eq\n        /* \"#utility.yul\":9193:9194   */\n      dup4\n        /* \"#utility.yul\":9186:9195   */\n      iszero\n        /* \"#utility.yul\":9166:9249   */\n      or\n        /* \"#utility.yul\":9143:9282   */\n      tag_198\n      jumpi\n        /* \"#utility.yul\":9262:9280   */\n      tag_199\n      tag_96\n      jump\t// in\n    tag_199:\n        /* \"#utility.yul\":9143:9282   */\n    tag_198:\n        /* \"#utility.yul\":8927:9289   */\n      pop\n        /* \"#utility.yul\":8879:9289   */\n      swap3\n      swap2\n      pop\n      pop\n      jump\t// out\n\n    auxdata: 0xa26469706673582212205f2120820a323f188b33c6fd4cc94a3a5c1144647ddd18bb6b6552906142901b64736f6c634300081a0033\n}\n",
				"bytecode": {
					"linkReferences": {},
					"object": "60806040526040518060600160405280600160ff168152602001600260ff168152602001600360ff168152505f90600360389291906048565b503480156043575f80fd5b5060a1565b82600581019282156079579160200282015b828111156078578251829060ff16905591602001919060010190605a565b5b509050608491906088565b5090565b5b80821115609d575f815f9055506001016089565b5090565b61076f806100ae5f395ff3fe608060405234801561000f575f80fd5b5060043610610060575f3560e01c806310db3c9f146100645780635c269bcc1461008057806371e5ee5f146100b05780639a288ce0146100e05780639bd232d214610110578063aa05852014610140575b5f80fd5b61007e60048036038101906100799190610302565b61015e565b005b61009a60048036038101906100959190610340565b61017b565b6040516100a7919061037a565b60405180910390f35b6100ca60048036038101906100c59190610340565b610198565b6040516100d7919061037a565b60405180910390f35b6100fa60048036038101906100f591906103b8565b6101b0565b604051610107919061037a565b60405180910390f35b61012a6004803603810190610125919061051d565b6101e4565b60405161013791906105ed565b60405180910390f35b610148610234565b6040516101559190610685565b60405180910390f35b805f83600581106101725761017161069e565b5b01819055505050565b5f80826005811061018f5761018e61069e565b5b01549050919050565b5f81600581106101a6575f80fd5b015f915090505481565b5f80825f600381106101c5576101c461069e565b5b602002013590506002816101d991906106f8565b905080915050919050565b6101ec61027e565b6002825f600381106102015761020061069e565b5b602002015161021091906106f8565b825f600381106102235761022261069e565b5b602002018181525050819050919050565b61023c6102a0565b5f600580602002604051908101604052809291908260058015610274576020028201915b815481526020019060010190808311610260575b5050505050905090565b6040518060600160405280600390602082028036833780820191505090505090565b6040518060a00160405280600590602082028036833780820191505090505090565b5f604051905090565b5f80fd5b5f819050919050565b6102e1816102cf565b81146102eb575f80fd5b50565b5f813590506102fc816102d8565b92915050565b5f8060408385031215610318576103176102cb565b5b5f610325858286016102ee565b9250506020610336858286016102ee565b9150509250929050565b5f60208284031215610355576103546102cb565b5b5f610362848285016102ee565b91505092915050565b610374816102cf565b82525050565b5f60208201905061038d5f83018461036b565b92915050565b5f80fd5b5f819050826020600302820111156103b2576103b1610393565b5b92915050565b5f606082840312156103cd576103cc6102cb565b5b5f6103da84828501610397565b91505092915050565b5f80fd5b5f601f19601f8301169050919050565b7f4e487b71000000000000000000000000000000000000000000000000000000005f52604160045260245ffd5b61042d826103e7565b810181811067ffffffffffffffff8211171561044c5761044b6103f7565b5b80604052505050565b5f61045e6102c2565b905061046a8282610424565b919050565b5f67ffffffffffffffff821115610489576104886103f7565b5b602082029050919050565b5f6104a66104a18461046f565b610455565b905080602084028301858111156104c0576104bf610393565b5b835b818110156104e957806104d588826102ee565b8452602084019350506020810190506104c2565b5050509392505050565b5f82601f830112610507576105066103e3565b5b6003610514848285610494565b91505092915050565b5f60608284031215610532576105316102cb565b5b5f61053f848285016104f3565b91505092915050565b5f60039050919050565b5f81905092915050565b5f819050919050565b61056e816102cf565b82525050565b5f61057f8383610565565b60208301905092915050565b5f602082019050919050565b6105a081610548565b6105aa8184610552565b92506105b58261055c565b805f5b838110156105e55781516105cc8782610574565b96506105d78361058b565b9250506001810190506105b8565b505050505050565b5f6060820190506106005f830184610597565b92915050565b5f60059050919050565b5f81905092915050565b5f819050919050565b5f602082019050919050565b61063881610606565b6106428184610610565b925061064d8261061a565b805f5b8381101561067d5781516106648782610574565b965061066f83610623565b925050600181019050610650565b505050505050565b5f60a0820190506106985f83018461062f565b92915050565b7f4e487b71000000000000000000000000000000000000000000000000000000005f52603260045260245ffd5b7f4e487b71000000000000000000000000000000000000000000000000000000005f52601160045260245ffd5b5f610702826102cf565b915061070d836102cf565b925082820261071b816102cf565b91508282048414831517610732576107316106cb565b5b509291505056fea26469706673582212205f2120820a323f188b33c6fd4cc94a3a5c1144647ddd18bb6b6552906142901b64736f6c634300081a0033",
					"opcodes": "PUSH1 0x80 PUSH1 0x40 MSTORE PUSH1 0x40 MLOAD DUP1 PUSH1 0x60 ADD PUSH1 0x40 MSTORE DUP1 PUSH1 0x1 PUSH1 0xFF AND DUP2 MSTORE PUSH1 0x20 ADD PUSH1 0x2 PUSH1 0xFF AND DUP2 MSTORE PUSH1 0x20 ADD PUSH1 0x3 PUSH1 0xFF AND DUP2 MSTORE POP PUSH0 SWAP1 PUSH1 0x3 PUSH1 0x38 SWAP3 SWAP2 SWAP1 PUSH1 0x48 JUMP JUMPDEST POP CALLVALUE DUP1 ISZERO PUSH1 0x43 JUMPI PUSH0 DUP1 REVERT JUMPDEST POP PUSH1 0xA1 JUMP JUMPDEST DUP3 PUSH1 0x5 DUP2 ADD SWAP3 DUP3 ISZERO PUSH1 0x79 JUMPI SWAP2 PUSH1 0x20 MUL DUP3 ADD JUMPDEST DUP3 DUP2 GT ISZERO PUSH1 0x78 JUMPI DUP3 MLOAD DUP3 SWAP1 PUSH1 0xFF AND SWAP1 SSTORE SWAP2 PUSH1 0x20 ADD SWAP2 SWAP1 PUSH1 0x1 ADD SWAP1 PUSH1 0x5A JUMP JUMPDEST JUMPDEST POP SWAP1 POP PUSH1 0x84 SWAP2 SWAP1 PUSH1 0x88 JUMP JUMPDEST POP SWAP1 JUMP JUMPDEST JUMPDEST DUP1 DUP3 GT ISZERO PUSH1 0x9D JUMPI PUSH0 DUP2 PUSH0 SWAP1 SSTORE POP PUSH1 0x1 ADD PUSH1 0x89 JUMP JUMPDEST POP SWAP1 JUMP JUMPDEST PUSH2 0x76F DUP1 PUSH2 0xAE PUSH0 CODECOPY PUSH0 RETURN INVALID PUSH1 0x80 PUSH1 0x40 MSTORE CALLVALUE DUP1 ISZERO PUSH2 0xF JUMPI PUSH0 DUP1 REVERT JUMPDEST POP PUSH1 0x4 CALLDATASIZE LT PUSH2 0x60 JUMPI PUSH0 CALLDATALOAD PUSH1 0xE0 SHR DUP1 PUSH4 0x10DB3C9F EQ PUSH2 0x64 JUMPI DUP1 PUSH4 0x5C269BCC EQ PUSH2 0x80 JUMPI DUP1 PUSH4 0x71E5EE5F EQ PUSH2 0xB0 JUMPI DUP1 PUSH4 0x9A288CE0 EQ PUSH2 0xE0 JUMPI DUP1 PUSH4 0x9BD232D2 EQ PUSH2 0x110 JUMPI DUP1 PUSH4 0xAA058520 EQ PUSH2 0x140 JUMPI JUMPDEST PUSH0 DUP1 REVERT JUMPDEST PUSH2 0x7E PUSH1 0x4 DUP1 CALLDATASIZE SUB DUP2 ADD SWAP1 PUSH2 0x79 SWAP2 SWAP1 PUSH2 0x302 JUMP JUMPDEST PUSH2 0x15E JUMP JUMPDEST STOP JUMPDEST PUSH2 0x9A PUSH1 0x4 DUP1 CALLDATASIZE SUB DUP2 ADD SWAP1 PUSH2 0x95 SWAP2 SWAP1 PUSH2 0x340 JUMP JUMPDEST PUSH2 0x17B JUMP JUMPDEST PUSH1 0x40 MLOAD PUSH2 0xA7 SWAP2 SWAP1 PUSH2 0x37A JUMP JUMPDEST PUSH1 0x40 MLOAD DUP1 SWAP2 SUB SWAP1 RETURN JUMPDEST PUSH2 0xCA PUSH1 0x4 DUP1 CALLDATASIZE SUB DUP2 ADD SWAP1 PUSH2 0xC5 SWAP2 SWAP1 PUSH2 0x340 JUMP JUMPDEST PUSH2 0x198 JUMP JUMPDEST PUSH1 0x40 MLOAD PUSH2 0xD7 SWAP2 SWAP1 PUSH2 0x37A JUMP JUMPDEST PUSH1 0x40 MLOAD DUP1 SWAP2 SUB SWAP1 RETURN JUMPDEST PUSH2 0xFA PUSH1 0x4 DUP1 CALLDATASIZE SUB DUP2 ADD SWAP1 PUSH2 0xF5 SWAP2 SWAP1 PUSH2 0x3B8 JUMP JUMPDEST PUSH2 0x1B0 JUMP JUMPDEST PUSH1 0x40 MLOAD PUSH2 0x107 SWAP2 SWAP1 PUSH2 0x37A JUMP JUMPDEST PUSH1 0x40 MLOAD DUP1 SWAP2 SUB SWAP1 RETURN JUMPDEST PUSH2 0x12A PUSH1 0x4 DUP1 CALLDATASIZE SUB DUP2 ADD SWAP1 PUSH2 0x125 SWAP2 SWAP1 PUSH2 0x51D JUMP JUMPDEST PUSH2 0x1E4 JUMP JUMPDEST PUSH1 0x40 MLOAD PUSH2 0x137 SWAP2 SWAP1 PUSH2 0x5ED JUMP JUMPDEST PUSH1 0x40 MLOAD DUP1 SWAP2 SUB SWAP1 RETURN JUMPDEST PUSH2 0x148 PUSH2 0x234 JUMP JUMPDEST PUSH1 0x40 MLOAD PUSH2 0x155 SWAP2 SWAP1 PUSH2 0x685 JUMP JUMPDEST PUSH1 0x40 MLOAD DUP1 SWAP2 SUB SWAP1 RETURN JUMPDEST DUP1 PUSH0 DUP4 PUSH1 0x5 DUP2 LT PUSH2 0x172 JUMPI PUSH2 0x171 PUSH2 0x69E JUMP JUMPDEST JUMPDEST ADD DUP2 SWAP1 SSTORE POP POP POP JUMP JUMPDEST PUSH0 DUP1 DUP3 PUSH1 0x5 DUP2 LT PUSH2 0x18F JUMPI PUSH2 0x18E PUSH2 0x69E JUMP JUMPDEST JUMPDEST ADD SLOAD SWAP1 POP SWAP2 SWAP1 POP JUMP JUMPDEST PUSH0 DUP2 PUSH1 0x5 DUP2 LT PUSH2 0x1A6 JUMPI PUSH0 DUP1 REVERT JUMPDEST ADD PUSH0 SWAP2 POP SWAP1 POP SLOAD DUP2 JUMP JUMPDEST PUSH0 DUP1 DUP3 PUSH0 PUSH1 0x3 DUP2 LT PUSH2 0x1C5 JUMPI PUSH2 0x1C4 PUSH2 0x69E JUMP JUMPDEST JUMPDEST PUSH1 0x20 MUL ADD CALLDATALOAD SWAP1 POP PUSH1 0x2 DUP2 PUSH2 0x1D9 SWAP2 SWAP1 PUSH2 0x6F8 JUMP JUMPDEST SWAP1 POP DUP1 SWAP2 POP POP SWAP2 SWAP1 POP JUMP JUMPDEST PUSH2 0x1EC PUSH2 0x27E JUMP JUMPDEST PUSH1 0x2 DUP3 PUSH0 PUSH1 0x3 DUP2 LT PUSH2 0x201 JUMPI PUSH2 0x200 PUSH2 0x69E JUMP JUMPDEST JUMPDEST PUSH1 0x20 MUL ADD MLOAD PUSH2 0x210 SWAP2 SWAP1 PUSH2 0x6F8 JUMP JUMPDEST DUP3 PUSH0 PUSH1 0x3 DUP2 LT PUSH2 0x223 JUMPI PUSH2 0x222 PUSH2 0x69E JUMP JUMPDEST JUMPDEST PUSH1 0x20 MUL ADD DUP2 DUP2 MSTORE POP POP DUP2 SWAP1 POP SWAP2 SWAP1 POP JUMP JUMPDEST PUSH2 0x23C PUSH2 0x2A0 JUMP JUMPDEST PUSH0 PUSH1 0x5 DUP1 PUSH1 0x20 MUL PUSH1 0x40 MLOAD SWAP1 DUP2 ADD PUSH1 0x40 MSTORE DUP1 SWAP3 SWAP2 SWAP1 DUP3 PUSH1 0x5 DUP1 ISZERO PUSH2 0x274 JUMPI PUSH1 0x20 MUL DUP3 ADD SWAP2 JUMPDEST DUP2 SLOAD DUP2 MSTORE PUSH1 0x20 ADD SWAP1 PUSH1 0x1 ADD SWAP1 DUP1 DUP4 GT PUSH2 0x260 JUMPI JUMPDEST POP POP POP POP POP SWAP1 POP SWAP1 JUMP JUMPDEST PUSH1 0x40 MLOAD DUP1 PUSH1 0x60 ADD PUSH1 0x40 MSTORE DUP1 PUSH1 0x3 SWAP1 PUSH1 0x20 DUP3 MUL DUP1 CALLDATASIZE DUP4 CALLDATACOPY DUP1 DUP3 ADD SWAP2 POP POP SWAP1 POP POP SWAP1 JUMP JUMPDEST PUSH1 0x40 MLOAD DUP1 PUSH1 0xA0 ADD PUSH1 0x40 MSTORE DUP1 PUSH1 0x5 SWAP1 PUSH1 0x20 DUP3 MUL DUP1 CALLDATASIZE DUP4 CALLDATACOPY DUP1 DUP3 ADD SWAP2 POP POP SWAP1 POP POP SWAP1 JUMP JUMPDEST PUSH0 PUSH1 0x40 MLOAD SWAP1 POP SWAP1 JUMP JUMPDEST PUSH0 DUP1 REVERT JUMPDEST PUSH0 DUP2 SWAP1 POP SWAP2 SWAP1 POP JUMP JUMPDEST PUSH2 0x2E1 DUP2 PUSH2 0x2CF JUMP JUMPDEST DUP2 EQ PUSH2 0x2EB JUMPI PUSH0 DUP1 REVERT JUMPDEST POP JUMP JUMPDEST PUSH0 DUP2 CALLDATALOAD SWAP1 POP PUSH2 0x2FC DUP2 PUSH2 0x2D8 JUMP JUMPDEST SWAP3 SWAP2 POP POP JUMP JUMPDEST PUSH0 DUP1 PUSH1 0x40 DUP4 DUP6 SUB SLT ISZERO PUSH2 0x318 JUMPI PUSH2 0x317 PUSH2 0x2CB JUMP JUMPDEST JUMPDEST PUSH0 PUSH2 0x325 DUP6 DUP3 DUP7 ADD PUSH2 0x2EE JUMP JUMPDEST SWAP3 POP POP PUSH1 0x20 PUSH2 0x336 DUP6 DUP3 DUP7 ADD PUSH2 0x2EE JUMP JUMPDEST SWAP2 POP POP SWAP3 POP SWAP3 SWAP1 POP JUMP JUMPDEST PUSH0 PUSH1 0x20 DUP3 DUP5 SUB SLT ISZERO PUSH2 0x355 JUMPI PUSH2 0x354 PUSH2 0x2CB JUMP JUMPDEST JUMPDEST PUSH0 PUSH2 0x362 DUP5 DUP3 DUP6 ADD PUSH2 0x2EE JUMP JUMPDEST SWAP2 POP POP SWAP3 SWAP2 POP POP JUMP JUMPDEST PUSH2 0x374 DUP2 PUSH2 0x2CF JUMP JUMPDEST DUP3 MSTORE POP POP JUMP JUMPDEST PUSH0 PUSH1 0x20 DUP3 ADD SWAP1 POP PUSH2 0x38D PUSH0 DUP4 ADD DUP5 PUSH2 0x36B JUMP JUMPDEST SWAP3 SWAP2 POP POP JUMP JUMPDEST PUSH0 DUP1 REVERT JUMPDEST PUSH0 DUP2 SWAP1 POP DUP3 PUSH1 0x20 PUSH1 0x3 MUL DUP3 ADD GT ISZERO PUSH2 0x3B2 JUMPI PUSH2 0x3B1 PUSH2 0x393 JUMP JUMPDEST JUMPDEST SWAP3 SWAP2 POP POP JUMP JUMPDEST PUSH0 PUSH1 0x60 DUP3 DUP5 SUB SLT ISZERO PUSH2 0x3CD JUMPI PUSH2 0x3CC PUSH2 0x2CB JUMP JUMPDEST JUMPDEST PUSH0 PUSH2 0x3DA DUP5 DUP3 DUP6 ADD PUSH2 0x397 JUMP JUMPDEST SWAP2 POP POP SWAP3 SWAP2 POP POP JUMP JUMPDEST PUSH0 DUP1 REVERT JUMPDEST PUSH0 PUSH1 0x1F NOT PUSH1 0x1F DUP4 ADD AND SWAP1 POP SWAP2 SWAP1 POP JUMP JUMPDEST PUSH32 0x4E487B7100000000000000000000000000000000000000000000000000000000 PUSH0 MSTORE PUSH1 0x41 PUSH1 0x4 MSTORE PUSH1 0x24 PUSH0 REVERT JUMPDEST PUSH2 0x42D DUP3 PUSH2 0x3E7 JUMP JUMPDEST DUP2 ADD DUP2 DUP2 LT PUSH8 0xFFFFFFFFFFFFFFFF DUP3 GT OR ISZERO PUSH2 0x44C JUMPI PUSH2 0x44B PUSH2 0x3F7 JUMP JUMPDEST JUMPDEST DUP1 PUSH1 0x40 MSTORE POP POP POP JUMP JUMPDEST PUSH0 PUSH2 0x45E PUSH2 0x2C2 JUMP JUMPDEST SWAP1 POP PUSH2 0x46A DUP3 DUP3 PUSH2 0x424 JUMP JUMPDEST SWAP2 SWAP1 POP JUMP JUMPDEST PUSH0 PUSH8 0xFFFFFFFFFFFFFFFF DUP3 GT ISZERO PUSH2 0x489 JUMPI PUSH2 0x488 PUSH2 0x3F7 JUMP JUMPDEST JUMPDEST PUSH1 0x20 DUP3 MUL SWAP1 POP SWAP2 SWAP1 POP JUMP JUMPDEST PUSH0 PUSH2 0x4A6 PUSH2 0x4A1 DUP5 PUSH2 0x46F JUMP JUMPDEST PUSH2 0x455 JUMP JUMPDEST SWAP1 POP DUP1 PUSH1 0x20 DUP5 MUL DUP4 ADD DUP6 DUP2 GT ISZERO PUSH2 0x4C0 JUMPI PUSH2 0x4BF PUSH2 0x393 JUMP JUMPDEST JUMPDEST DUP4 JUMPDEST DUP2 DUP2 LT ISZERO PUSH2 0x4E9 JUMPI DUP1 PUSH2 0x4D5 DUP9 DUP3 PUSH2 0x2EE JUMP JUMPDEST DUP5 MSTORE PUSH1 0x20 DUP5 ADD SWAP4 POP POP PUSH1 0x20 DUP2 ADD SWAP1 POP PUSH2 0x4C2 JUMP JUMPDEST POP POP POP SWAP4 SWAP3 POP POP POP JUMP JUMPDEST PUSH0 DUP3 PUSH1 0x1F DUP4 ADD SLT PUSH2 0x507 JUMPI PUSH2 0x506 PUSH2 0x3E3 JUMP JUMPDEST JUMPDEST PUSH1 0x3 PUSH2 0x514 DUP5 DUP3 DUP6 PUSH2 0x494 JUMP JUMPDEST SWAP2 POP POP SWAP3 SWAP2 POP POP JUMP JUMPDEST PUSH0 PUSH1 0x60 DUP3 DUP5 SUB SLT ISZERO PUSH2 0x532 JUMPI PUSH2 0x531 PUSH2 0x2CB JUMP JUMPDEST JUMPDEST PUSH0 PUSH2 0x53F DUP5 DUP3 DUP6 ADD PUSH2 0x4F3 JUMP JUMPDEST SWAP2 POP POP SWAP3 SWAP2 POP POP JUMP JUMPDEST PUSH0 PUSH1 0x3 SWAP1 POP SWAP2 SWAP1 POP JUMP JUMPDEST PUSH0 DUP2 SWAP1 POP SWAP3 SWAP2 POP POP JUMP JUMPDEST PUSH0 DUP2 SWAP1 POP SWAP2 SWAP1 POP JUMP JUMPDEST PUSH2 0x56E DUP2 PUSH2 0x2CF JUMP JUMPDEST DUP3 MSTORE POP POP JUMP JUMPDEST PUSH0 PUSH2 0x57F DUP4 DUP4 PUSH2 0x565 JUMP JUMPDEST PUSH1 0x20 DUP4 ADD SWAP1 POP SWAP3 SWAP2 POP POP JUMP JUMPDEST PUSH0 PUSH1 0x20 DUP3 ADD SWAP1 POP SWAP2 SWAP1 POP JUMP JUMPDEST PUSH2 0x5A0 DUP2 PUSH2 0x548 JUMP JUMPDEST PUSH2 0x5AA DUP2 DUP5 PUSH2 0x552 JUMP JUMPDEST SWAP3 POP PUSH2 0x5B5 DUP3 PUSH2 0x55C JUMP JUMPDEST DUP1 PUSH0 JUMPDEST DUP4 DUP2 LT ISZERO PUSH2 0x5E5 JUMPI DUP2 MLOAD PUSH2 0x5CC DUP8 DUP3 PUSH2 0x574 JUMP JUMPDEST SWAP7 POP PUSH2 0x5D7 DUP4 PUSH2 0x58B JUMP JUMPDEST SWAP3 POP POP PUSH1 0x1 DUP2 ADD SWAP1 POP PUSH2 0x5B8 JUMP JUMPDEST POP POP POP POP POP POP JUMP JUMPDEST PUSH0 PUSH1 0x60 DUP3 ADD SWAP1 POP PUSH2 0x600 PUSH0 DUP4 ADD DUP5 PUSH2 0x597 JUMP JUMPDEST SWAP3 SWAP2 POP POP JUMP JUMPDEST PUSH0 PUSH1 0x5 SWAP1 POP SWAP2 SWAP1 POP JUMP JUMPDEST PUSH0 DUP2 SWAP1 POP SWAP3 SWAP2 POP POP JUMP JUMPDEST PUSH0 DUP2 SWAP1 POP SWAP2 SWAP1 POP JUMP JUMPDEST PUSH0 PUSH1 0x20 DUP3 ADD SWAP1 POP SWAP2 SWAP1 POP JUMP JUMPDEST PUSH2 0x638 DUP2 PUSH2 0x606 JUMP JUMPDEST PUSH2 0x642 DUP2 DUP5 PUSH2 0x610 JUMP JUMPDEST SWAP3 POP PUSH2 0x64D DUP3 PUSH2 0x61A JUMP JUMPDEST DUP1 PUSH0 JUMPDEST DUP4 DUP2 LT ISZERO PUSH2 0x67D JUMPI DUP2 MLOAD PUSH2 0x664 DUP8 DUP3 PUSH2 0x574 JUMP JUMPDEST SWAP7 POP PUSH2 0x66F DUP4 PUSH2 0x623 JUMP JUMPDEST SWAP3 POP POP PUSH1 0x1 DUP2 ADD SWAP1 POP PUSH2 0x650 JUMP JUMPDEST POP POP POP POP POP POP JUMP JUMPDEST PUSH0 PUSH1 0xA0 DUP3 ADD SWAP1 POP PUSH2 0x698 PUSH0 DUP4 ADD DUP5 PUSH2 0x62F JUMP JUMPDEST SWAP3 SWAP2 POP POP JUMP JUMPDEST PUSH32 0x4E487B7100000000000000000000000000000000000000000000000000000000 PUSH0 MSTORE PUSH1 0x32 PUSH1 0x4 MSTORE PUSH1 0x24 PUSH0 REVERT JUMPDEST PUSH32 0x4E487B7100000000000000000000000000000000000000000000000000000000 PUSH0 MSTORE PUSH1 0x11 PUSH1 0x4 MSTORE PUSH1 0x24 PUSH0 REVERT JUMPDEST PUSH0 PUSH2 0x702 DUP3 PUSH2 0x2CF JUMP JUMPDEST SWAP2 POP PUSH2 0x70D DUP4 PUSH2 0x2CF JUMP JUMPDEST SWAP3 POP DUP3 DUP3 MUL PUSH2 0x71B DUP2 PUSH2 0x2CF JUMP JUMPDEST SWAP2 POP DUP3 DUP3 DIV DUP5 EQ DUP4 ISZERO OR PUSH2 0x732 JUMPI PUSH2 0x731 PUSH2 0x6CB JUMP JUMPDEST JUMPDEST POP SWAP3 SWAP2 POP POP JUMP INVALID LOG2 PUSH5 0x6970667358 0x22 SLT KECCAK256 PUSH0 0x21 KECCAK256 DUP3 EXP ORIGIN EXTCODEHASH XOR DUP12 CALLER 0xC6 REVERT 0x4C 0xC9 BLOBBASEFEE GASPRICE TLOAD GT PREVRANDAO PUSH5 0x7DDD18BB6B PUSH6 0x52906142901B PUSH5 0x736F6C6343 STOP ADDMOD BYTE STOP CALLER "
				},
				"gasEstimates": {
					"creation": {
						"codeDepositCost": "380600",
						"executionCost": "infinite",
						"totalCost": "infinite"
					},
					"external": {
						"arr(uint256)": "infinite",
						"insertElement(uint256,uint256)": "infinite",
						"multiplyby2Index0(uint256[3])": "infinite",
						"passingArray(uint256[3])": "infinite",
						"returnAllElements()": "infinite",
						"returnElement(uint256)": "infinite"
					}
				},
				"methodIdentifiers": {
					"arr(uint256)": "71e5ee5f",
					"insertElement(uint256,uint256)": "10db3c9f",
					"multiplyby2Index0(uint256[3])": "9bd232d2",
					"passingArray(uint256[3])": "9a288ce0",
					"returnAllElements()": "aa058520",
					"returnElement(uint256)": "5c269bcc"
				}
			},
			"storageLayout": {
				"storage": [
					{
						"astId": 9,
						"contract": "contracts/MemoryVsCalldata_16.sol:Array",
						"label": "arr",
						"offset": 0,
						"slot": "0",
						"type": "t_array(t_uint256)5_storage"
					}
				],
				"types": {
					"t_array(t_uint256)5_storage": {
						"base": "t_uint256",
						"encoding": "inplace",
						"label": "uint256[5]",
						"numberOfBytes": "160"
					},
					"t_uint256": {
						"encoding": "inplace",
						"label": "uint256",
						"numberOfBytes": "32"
					}
				}
			},
			"userdoc": {
				"kind": "user",
				"methods": {},
				"version": 1
			}
		}
	}
}