{
	"contracts/MemoryVsCalldata_15.sol": {
		"Array": {
			"abi": [
				{
					"inputs": [
						{
							"internalType": "uint256",
							"name": "",
							"type": "uint256"
						}
					],
					"name": "arr",
					"outputs": [
						{
							"internalType": "uint256",
							"name": "",
							"type": "uint256"
						}
					],
					"stateMutability": "view",
					"type": "function"
				},
				{
					"inputs": [
						{
							"internalType": "uint256",
							"name": "index",
							"type": "uint256"
						},
						{
							"internalType": "uint256",
							"name": "element",
							"type": "uint256"
						}
					],
					"name": "insertElement",
					"outputs": [],
					"stateMutability": "nonpayable",
					"type": "function"
				},
				{
					"inputs": [
						{
							"internalType": "uint256[3]",
							"name": "num",
							"type": "uint256[3]"
						}
					],
					"name": "multiplyby2Index0",
					"outputs": [
						{
							"internalType": "uint256[3]",
							"name": "",
							"type": "uint256[3]"
						}
					],
					"stateMutability": "pure",
					"type": "function"
				},
				{
					"inputs": [
						{
							"internalType": "uint256[3]",
							"name": "num",
							"type": "uint256[3]"
						}
					],
					"name": "passingArray",
					"outputs": [
						{
							"internalType": "uint256",
							"name": "",
							"type": "uint256"
						}
					],
					"stateMutability": "pure",
					"type": "function"
				},
				{
					"inputs": [],
					"name": "returnAllElements",
					"outputs": [
						{
							"internalType": "uint256[5]",
							"name": "",
							"type": "uint256[5]"
						}
					],
					"stateMutability": "view",
					"type": "function"
				},
				{
					"inputs": [
						{
							"internalType": "uint256",
							"name": "index",
							"type": "uint256"
						}
					],
					"name": "returnElement",
					"outputs": [
						{
							"internalType": "uint256",
							"name": "",
							"type": "uint256"
						}
					],
					"stateMutability": "view",
					"type": "function"
				}
			],
			"devdoc": {
				"kind": "dev",
				"methods": {},
				"version": 1
			},
			"evm": {
				"assembly": "    /* \"contracts/MemoryVsCalldata_15.sol\":72:796  contract Array{\r... */\n  mstore(0x40, 0x80)\n    /* \"contracts/MemoryVsCalldata_15.sol\":93:119  uint[5] public arr=[1,2,3] */\n  mload(0x40)\n  dup1\n  0x60\n  add\n  0x40\n  mstore\n  dup1\n    /* \"contracts/MemoryVsCalldata_15.sol\":113:114  1 */\n  0x01\n    /* \"contracts/MemoryVsCalldata_15.sol\":93:119  uint[5] public arr=[1,2,3] */\n  0xff\n  and\n  dup2\n  mstore\n  0x20\n  add\n    /* \"contracts/MemoryVsCalldata_15.sol\":115:116  2 */\n  0x02\n    /* \"contracts/MemoryVsCalldata_15.sol\":93:119  uint[5] public arr=[1,2,3] */\n  0xff\n  and\n  dup2\n  mstore\n  0x20\n  add\n    /* \"contracts/MemoryVsCalldata_15.sol\":117:118  3 */\n  0x03\n    /* \"contracts/MemoryVsCalldata_15.sol\":93:119  uint[5] public arr=[1,2,3] */\n  0xff\n  and\n  dup2\n  mstore\n  pop\n  0x00\n  swap1\n  0x03\n  tag_1\n  swap3\n  swap2\n  swap1\n  tag_2\n  jump\t// in\ntag_1:\n  pop\n    /* \"contracts/MemoryVsCalldata_15.sol\":72:796  contract Array{\r... */\n  callvalue\n  dup1\n  iszero\n  tag_3\n  jumpi\n  0x00\n  dup1\n  revert\ntag_3:\n  pop\n  jump(tag_4)\ntag_2:\n  dup3\n  0x05\n  dup2\n  add\n  swap3\n  dup3\n  iszero\n  tag_5\n  jumpi\n  swap2\n  0x20\n  mul\n  dup3\n  add\ntag_6:\n  dup3\n  dup2\n  gt\n  iszero\n  tag_7\n  jumpi\n  dup3\n  mload\n  dup3\n  swap1\n  0xff\n  and\n  swap1\n  sstore\n  swap2\n  0x20\n  add\n  swap2\n  swap1\n  0x01\n  add\n  swap1\n  jump(tag_6)\ntag_7:\ntag_5:\n  pop\n  swap1\n  pop\n  tag_8\n  swap2\n  swap1\n  tag_9\n  jump\t// in\ntag_8:\n  pop\n  swap1\n  jump\t// out\ntag_9:\ntag_10:\n  dup1\n  dup3\n  gt\n  iszero\n  tag_11\n  jumpi\n  0x00\n  dup2\n  0x00\n  swap1\n  sstore\n  pop\n  0x01\n  add\n  jump(tag_10)\ntag_11:\n  pop\n  swap1\n  jump\t// out\ntag_4:\n  dataSize(sub_0)\n  dup1\n  dataOffset(sub_0)\n  0x00\n  codecopy\n  0x00\n  return\nstop\n\nsub_0: assembly {\n        /* \"contracts/MemoryVsCalldata_15.sol\":72:796  contract Array{\r... */\n      mstore(0x40, 0x80)\n      callvalue\n      dup1\n      iszero\n      tag_1\n      jumpi\n      0x00\n      dup1\n      revert\n    tag_1:\n      pop\n      jumpi(tag_2, lt(calldatasize, 0x04))\n      shr(0xe0, calldataload(0x00))\n      dup1\n      0x10db3c9f\n      eq\n      tag_3\n      jumpi\n      dup1\n      0x5c269bcc\n      eq\n      tag_4\n      jumpi\n      dup1\n      0x71e5ee5f\n      eq\n      tag_5\n      jumpi\n      dup1\n      0x9a288ce0\n      eq\n      tag_6\n      jumpi\n      dup1\n      0x9bd232d2\n      eq\n      tag_7\n      jumpi\n      dup1\n      0xaa058520\n      eq\n      tag_8\n      jumpi\n    tag_2:\n      0x00\n      dup1\n      revert\n        /* \"contracts/MemoryVsCalldata_15.sol\":498:587  function insertElement(uint index,uint element) public{\r... */\n    tag_3:\n      tag_9\n      0x04\n      dup1\n      calldatasize\n      sub\n      0x40\n      dup2\n      lt\n      iszero\n      tag_10\n      jumpi\n      0x00\n      dup1\n      revert\n    tag_10:\n      dup2\n      add\n      swap1\n      dup1\n      dup1\n      calldataload\n      swap1\n      0x20\n      add\n      swap1\n      swap3\n      swap2\n      swap1\n      dup1\n      calldataload\n      swap1\n      0x20\n      add\n      swap1\n      swap3\n      swap2\n      swap1\n      pop\n      pop\n      pop\n      tag_11\n      jump\t// in\n    tag_9:\n      stop\n        /* \"contracts/MemoryVsCalldata_15.sol\":595:691  function returnElement(uint index) public view returns(uint){\r... */\n    tag_4:\n      tag_12\n      0x04\n      dup1\n      calldatasize\n      sub\n      0x20\n      dup2\n      lt\n      iszero\n      tag_13\n      jumpi\n      0x00\n      dup1\n      revert\n    tag_13:\n      dup2\n      add\n      swap1\n      dup1\n      dup1\n      calldataload\n      swap1\n      0x20\n      add\n      swap1\n      swap3\n      swap2\n      swap1\n      pop\n      pop\n      pop\n      tag_14\n      jump\t// in\n    tag_12:\n      mload(0x40)\n      dup1\n      dup3\n      dup2\n      mstore\n      0x20\n      add\n      swap2\n      pop\n      pop\n      mload(0x40)\n      dup1\n      swap2\n      sub\n      swap1\n      return\n        /* \"contracts/MemoryVsCalldata_15.sol\":93:119  uint[5] public arr=[1,2,3] */\n    tag_5:\n      tag_15\n      0x04\n      dup1\n      calldatasize\n      sub\n      0x20\n      dup2\n      lt\n      iszero\n      tag_16\n      jumpi\n      0x00\n      dup1\n      revert\n    tag_16:\n      dup2\n      add\n      swap1\n      dup1\n      dup1\n      calldataload\n      swap1\n      0x20\n      add\n      swap1\n      swap3\n      swap2\n      swap1\n      pop\n      pop\n      pop\n      tag_17\n      jump\t// in\n    tag_15:\n      mload(0x40)\n      dup1\n      dup3\n      dup2\n      mstore\n      0x20\n      add\n      swap2\n      pop\n      pop\n      mload(0x40)\n      dup1\n      swap2\n      sub\n      swap1\n      return\n        /* \"contracts/MemoryVsCalldata_15.sol\":354:490  function passingArray(uint[3] calldata num) public pure returns(uint){\r... */\n    tag_6:\n      tag_18\n      0x04\n      dup1\n      calldatasize\n      sub\n      0x60\n      dup2\n      lt\n      iszero\n      tag_19\n      jumpi\n      0x00\n      dup1\n      revert\n    tag_19:\n      dup2\n      add\n      swap1\n      dup1\n      dup1\n      0x60\n      add\n      swap1\n      swap2\n      swap3\n      swap2\n      swap3\n      swap1\n      pop\n      pop\n      pop\n      tag_20\n      jump\t// in\n    tag_18:\n      mload(0x40)\n      dup1\n      dup3\n      dup2\n      mstore\n      0x20\n      add\n      swap2\n      pop\n      pop\n      mload(0x40)\n      dup1\n      swap2\n      sub\n      swap1\n      return\n        /* \"contracts/MemoryVsCalldata_15.sol\":176:313  function multiplyby2Index0(uint[3] memory num) public pure returns(uint[3] memory){\r... */\n    tag_7:\n      tag_21\n      0x04\n      dup1\n      calldatasize\n      sub\n      0x60\n      dup2\n      lt\n      iszero\n      tag_22\n      jumpi\n      0x00\n      dup1\n      revert\n    tag_22:\n      dup2\n      add\n      swap1\n      dup1\n      dup1\n      0x60\n      add\n      swap1\n      0x03\n      dup1\n      0x20\n      mul\n      mload(0x40)\n      swap1\n      dup2\n      add\n      0x40\n      mstore\n      dup1\n      swap3\n      swap2\n      swap1\n      dup3\n      mul(0x20, 0x03)\n      dup1\n      dup3\n      dup5\n      calldatacopy\n      0x00\n      dup2\n      dup5\n      add\n      mstore\n      not(0x1f)\n      0x1f\n      dup3\n      add\n      and\n      swap1\n      pop\n      dup1\n      dup4\n      add\n      swap3\n      pop\n      pop\n      pop\n      pop\n      pop\n      pop\n      swap2\n      swap3\n      swap2\n      swap3\n      swap1\n      pop\n      pop\n      pop\n      tag_23\n      jump\t// in\n    tag_21:\n      mload(0x40)\n      dup1\n      dup3\n      mul(0x20, 0x03)\n      dup1\n      dup4\n      dup4\n      0x00\n    tag_24:\n      dup4\n      dup2\n      lt\n      iszero\n      tag_26\n      jumpi\n      dup1\n      dup3\n      add\n      mload\n      dup2\n      dup5\n      add\n      mstore\n      0x20\n      dup2\n      add\n      swap1\n      pop\n      jump(tag_24)\n    tag_26:\n      pop\n      pop\n      pop\n      pop\n      swap1\n      pop\n      add\n      swap2\n      pop\n      pop\n      mload(0x40)\n      dup1\n      swap2\n      sub\n      swap1\n      return\n        /* \"contracts/MemoryVsCalldata_15.sol\":699:793  function returnAllElements() public view returns (uint[5] memory){\r... */\n    tag_8:\n      tag_27\n      tag_28\n      jump\t// in\n    tag_27:\n      mload(0x40)\n      dup1\n      dup3\n      mul(0x20, 0x05)\n      dup1\n      dup4\n      dup4\n      0x00\n    tag_29:\n      dup4\n      dup2\n      lt\n      iszero\n      tag_31\n      jumpi\n      dup1\n      dup3\n      add\n      mload\n      dup2\n      dup5\n      add\n      mstore\n      0x20\n      dup2\n      add\n      swap1\n      pop\n      jump(tag_29)\n    tag_31:\n      pop\n      pop\n      pop\n      pop\n      swap1\n      pop\n      add\n      swap2\n      pop\n      pop\n      mload(0x40)\n      dup1\n      swap2\n      sub\n      swap1\n      return\n        /* \"contracts/MemoryVsCalldata_15.sol\":498:587  function insertElement(uint index,uint element) public{\r... */\n    tag_11:\n        /* \"contracts/MemoryVsCalldata_15.sol\":572:579  element */\n      dup1\n        /* \"contracts/MemoryVsCalldata_15.sol\":561:564  arr */\n      0x00\n        /* \"contracts/MemoryVsCalldata_15.sol\":565:570  index */\n      dup4\n        /* \"contracts/MemoryVsCalldata_15.sol\":561:571  arr[index] */\n      0x05\n      dup2\n      lt\n      tag_33\n      jumpi\n      invalid\n    tag_33:\n      add\n        /* \"contracts/MemoryVsCalldata_15.sol\":561:579  arr[index]=element */\n      dup2\n      swap1\n      sstore\n      pop\n        /* \"contracts/MemoryVsCalldata_15.sol\":498:587  function insertElement(uint index,uint element) public{\r... */\n      pop\n      pop\n      jump\t// out\n        /* \"contracts/MemoryVsCalldata_15.sol\":595:691  function returnElement(uint index) public view returns(uint){\r... */\n    tag_14:\n        /* \"contracts/MemoryVsCalldata_15.sol\":650:654  uint */\n      0x00\n        /* \"contracts/MemoryVsCalldata_15.sol\":673:676  arr */\n      dup1\n        /* \"contracts/MemoryVsCalldata_15.sol\":677:682  index */\n      dup3\n        /* \"contracts/MemoryVsCalldata_15.sol\":673:683  arr[index] */\n      0x05\n      dup2\n      lt\n      tag_36\n      jumpi\n      invalid\n    tag_36:\n      add\n      sload\n        /* \"contracts/MemoryVsCalldata_15.sol\":666:683  return arr[index] */\n      swap1\n      pop\n        /* \"contracts/MemoryVsCalldata_15.sol\":595:691  function returnElement(uint index) public view returns(uint){\r... */\n      swap2\n      swap1\n      pop\n      jump\t// out\n        /* \"contracts/MemoryVsCalldata_15.sol\":93:119  uint[5] public arr=[1,2,3] */\n    tag_17:\n      0x00\n      dup2\n      0x05\n      dup2\n      lt\n      tag_38\n      jumpi\n      invalid\n    tag_38:\n      add\n      0x00\n      swap2\n      pop\n      swap1\n      pop\n      sload\n      dup2\n      jump\t// out\n        /* \"contracts/MemoryVsCalldata_15.sol\":354:490  function passingArray(uint[3] calldata num) public pure returns(uint){\r... */\n    tag_20:\n        /* \"contracts/MemoryVsCalldata_15.sol\":418:422  uint */\n      0x00\n        /* \"contracts/MemoryVsCalldata_15.sol\":434:440  uint a */\n      dup1\n        /* \"contracts/MemoryVsCalldata_15.sol\":441:444  num */\n      dup3\n        /* \"contracts/MemoryVsCalldata_15.sol\":445:446  0 */\n      0x00\n        /* \"contracts/MemoryVsCalldata_15.sol\":441:447  num[0] */\n      0x03\n      dup2\n      lt\n      tag_41\n      jumpi\n      invalid\n    tag_41:\n      0x20\n      mul\n      add\n      calldataload\n        /* \"contracts/MemoryVsCalldata_15.sol\":434:447  uint a=num[0] */\n      swap1\n      pop\n        /* \"contracts/MemoryVsCalldata_15.sol\":462:463  2 */\n      0x02\n        /* \"contracts/MemoryVsCalldata_15.sol\":460:461  a */\n      dup2\n        /* \"contracts/MemoryVsCalldata_15.sol\":460:463  a*2 */\n      mul\n        /* \"contracts/MemoryVsCalldata_15.sol\":458:463  a=a*2 */\n      swap1\n      pop\n        /* \"contracts/MemoryVsCalldata_15.sol\":481:482  a */\n      dup1\n        /* \"contracts/MemoryVsCalldata_15.sol\":474:482  return a */\n      swap2\n      pop\n      pop\n        /* \"contracts/MemoryVsCalldata_15.sol\":354:490  function passingArray(uint[3] calldata num) public pure returns(uint){\r... */\n      swap2\n      swap1\n      pop\n      jump\t// out\n        /* \"contracts/MemoryVsCalldata_15.sol\":176:313  function multiplyby2Index0(uint[3] memory num) public pure returns(uint[3] memory){\r... */\n    tag_23:\n        /* \"contracts/MemoryVsCalldata_15.sol\":243:257  uint[3] memory */\n      tag_42\n      tag_43\n      jump\t// in\n    tag_42:\n        /* \"contracts/MemoryVsCalldata_15.sol\":283:284  2 */\n      0x02\n        /* \"contracts/MemoryVsCalldata_15.sol\":276:279  num */\n      dup3\n        /* \"contracts/MemoryVsCalldata_15.sol\":280:281  0 */\n      0x00\n        /* \"contracts/MemoryVsCalldata_15.sol\":276:282  num[0] */\n      0x03\n      dup2\n      lt\n      tag_45\n      jumpi\n      invalid\n    tag_45:\n      0x20\n      mul\n      add\n      mload\n        /* \"contracts/MemoryVsCalldata_15.sol\":276:284  num[0]*2 */\n      mul\n        /* \"contracts/MemoryVsCalldata_15.sol\":269:272  num */\n      dup3\n        /* \"contracts/MemoryVsCalldata_15.sol\":273:274  0 */\n      0x00\n        /* \"contracts/MemoryVsCalldata_15.sol\":269:275  num[0] */\n      0x03\n      dup2\n      lt\n      tag_46\n      jumpi\n      invalid\n    tag_46:\n      0x20\n      mul\n      add\n        /* \"contracts/MemoryVsCalldata_15.sol\":269:284  num[0]=num[0]*2 */\n      dup2\n      dup2\n      mstore\n      pop\n      pop\n        /* \"contracts/MemoryVsCalldata_15.sol\":302:305  num */\n      dup2\n        /* \"contracts/MemoryVsCalldata_15.sol\":295:305  return num */\n      swap1\n      pop\n        /* \"contracts/MemoryVsCalldata_15.sol\":176:313  function multiplyby2Index0(uint[3] memory num) public pure returns(uint[3] memory){\r... */\n      swap2\n      swap1\n      pop\n      jump\t// out\n        /* \"contracts/MemoryVsCalldata_15.sol\":699:793  function returnAllElements() public view returns (uint[5] memory){\r... */\n    tag_28:\n        /* \"contracts/MemoryVsCalldata_15.sol\":749:763  uint[5] memory */\n      tag_47\n      tag_48\n      jump\t// in\n    tag_47:\n        /* \"contracts/MemoryVsCalldata_15.sol\":782:785  arr */\n      0x00\n        /* \"contracts/MemoryVsCalldata_15.sol\":775:785  return arr */\n      0x05\n      dup1\n      0x20\n      mul\n      mload(0x40)\n      swap1\n      dup2\n      add\n      0x40\n      mstore\n      dup1\n      swap3\n      swap2\n      swap1\n      dup3\n      0x05\n      dup1\n      iszero\n      tag_50\n      jumpi\n      0x20\n      mul\n      dup3\n      add\n      swap2\n    tag_51:\n      dup2\n      sload\n      dup2\n      mstore\n      0x20\n      add\n      swap1\n      0x01\n      add\n      swap1\n      dup1\n      dup4\n      gt\n      tag_51\n      jumpi\n    tag_50:\n      pop\n      pop\n      pop\n      pop\n      pop\n      swap1\n      pop\n        /* \"contracts/MemoryVsCalldata_15.sol\":699:793  function returnAllElements() public view returns (uint[5] memory){\r... */\n      swap1\n      jump\t// out\n    tag_43:\n      mload(0x40)\n      dup1\n      0x60\n      add\n      0x40\n      mstore\n      dup1\n      0x03\n      swap1\n      0x20\n      dup3\n      mul\n      dup1\n      calldatasize\n      dup4\n      calldatacopy\n      dup1\n      dup3\n      add\n      swap2\n      pop\n      pop\n      swap1\n      pop\n      pop\n      swap1\n      jump\t// out\n    tag_48:\n      mload(0x40)\n      dup1\n      0xa0\n      add\n      0x40\n      mstore\n      dup1\n      0x05\n      swap1\n      0x20\n      dup3\n      mul\n      dup1\n      calldatasize\n      dup4\n      calldatacopy\n      dup1\n      dup3\n      add\n      swap2\n      pop\n      pop\n      swap1\n      pop\n      pop\n      swap1\n      jump\t// out\n\n    auxdata: 0xa26469706673582212207fc38d075c0898b02b4797d29a243bb1d4da49546cd7f17f1fd0d4fad78d194964736f6c63430007000033\n}\n",
				"bytecode": {
					"linkReferences": {},
					"object": "60806040526040518060600160405280600160ff168152602001600260ff168152602001600360ff16815250600090600361003b92919061004e565b5034801561004857600080fd5b506100b0565b8260058101928215610082579160200282015b82811115610081578251829060ff16905591602001919060010190610061565b5b50905061008f9190610093565b5090565b5b808211156100ac576000816000905550600101610094565b5090565b6103b8806100bf6000396000f3fe608060405234801561001057600080fd5b50600436106100625760003560e01c806310db3c9f146100675780635c269bcc1461009f57806371e5ee5f146100e15780639a288ce0146101235780639bd232d214610165578063aa05852014610206575b600080fd5b61009d6004803603604081101561007d57600080fd5b81019080803590602001909291908035906020019092919050505061024c565b005b6100cb600480360360208110156100b557600080fd5b8101908080359060200190929190505050610263565b6040518082815260200191505060405180910390f35b61010d600480360360208110156100f757600080fd5b810190808035906020019092919050505061027a565b6040518082815260200191505060405180910390f35b61014f6004803603606081101561013957600080fd5b8101908080606001909192919290505050610292565b6040518082815260200191505060405180910390f35b6101c86004803603606081101561017b57600080fd5b8101908080606001906003806020026040519081016040528092919082600360200280828437600081840152601f19601f82011690508083019250505050505091929192905050506102b8565b6040518082600360200280838360005b838110156101f35780820151818401526020810190506101d8565b5050505090500191505060405180910390f35b61020e6102f3565b6040518082600560200280838360005b8381101561023957808201518184015260208101905061021e565b5050505090500191505060405180910390f35b806000836005811061025a57fe5b01819055505050565b600080826005811061027157fe5b01549050919050565b6000816005811061028757fe5b016000915090505481565b600080826000600381106102a257fe5b6020020135905060028102905080915050919050565b6102c061033e565b6002826000600381106102cf57fe5b602002015102826000600381106102e257fe5b602002018181525050819050919050565b6102fb610360565b6000600580602002604051908101604052809291908260058015610334576020028201915b815481526020019060010190808311610320575b5050505050905090565b6040518060600160405280600390602082028036833780820191505090505090565b6040518060a0016040528060059060208202803683378082019150509050509056fea26469706673582212207fc38d075c0898b02b4797d29a243bb1d4da49546cd7f17f1fd0d4fad78d194964736f6c63430007000033",
					"opcodes": "PUSH1 0x80 PUSH1 0x40 MSTORE PUSH1 0x40 MLOAD DUP1 PUSH1 0x60 ADD PUSH1 0x40 MSTORE DUP1 PUSH1 0x1 PUSH1 0xFF AND DUP2 MSTORE PUSH1 0x20 ADD PUSH1 0x2 PUSH1 0xFF AND DUP2 MSTORE PUSH1 0x20 ADD PUSH1 0x3 PUSH1 0xFF AND DUP2 MSTORE POP PUSH1 0x0 SWAP1 PUSH1 0x3 PUSH2 0x3B SWAP3 SWAP2 SWAP1 PUSH2 0x4E JUMP JUMPDEST POP CALLVALUE DUP1 ISZERO PUSH2 0x48 JUMPI PUSH1 0x0 DUP1 REVERT JUMPDEST POP PUSH2 0xB0 JUMP JUMPDEST DUP3 PUSH1 0x5 DUP2 ADD SWAP3 DUP3 ISZERO PUSH2 0x82 JUMPI SWAP2 PUSH1 0x20 MUL DUP3 ADD JUMPDEST DUP3 DUP2 GT ISZERO PUSH2 0x81 JUMPI DUP3 MLOAD DUP3 SWAP1 PUSH1 0xFF AND SWAP1 SSTORE SWAP2 PUSH1 0x20 ADD SWAP2 SWAP1 PUSH1 0x1 ADD SWAP1 PUSH2 0x61 JUMP JUMPDEST JUMPDEST POP SWAP1 POP PUSH2 0x8F SWAP2 SWAP1 PUSH2 0x93 JUMP JUMPDEST POP SWAP1 JUMP JUMPDEST JUMPDEST DUP1 DUP3 GT ISZERO PUSH2 0xAC JUMPI PUSH1 0x0 DUP2 PUSH1 0x0 SWAP1 SSTORE POP PUSH1 0x1 ADD PUSH2 0x94 JUMP JUMPDEST POP SWAP1 JUMP JUMPDEST PUSH2 0x3B8 DUP1 PUSH2 0xBF PUSH1 0x0 CODECOPY PUSH1 0x0 RETURN INVALID PUSH1 0x80 PUSH1 0x40 MSTORE CALLVALUE DUP1 ISZERO PUSH2 0x10 JUMPI PUSH1 0x0 DUP1 REVERT JUMPDEST POP PUSH1 0x4 CALLDATASIZE LT PUSH2 0x62 JUMPI PUSH1 0x0 CALLDATALOAD PUSH1 0xE0 SHR DUP1 PUSH4 0x10DB3C9F EQ PUSH2 0x67 JUMPI DUP1 PUSH4 0x5C269BCC EQ PUSH2 0x9F JUMPI DUP1 PUSH4 0x71E5EE5F EQ PUSH2 0xE1 JUMPI DUP1 PUSH4 0x9A288CE0 EQ PUSH2 0x123 JUMPI DUP1 PUSH4 0x9BD232D2 EQ PUSH2 0x165 JUMPI DUP1 PUSH4 0xAA058520 EQ PUSH2 0x206 JUMPI JUMPDEST PUSH1 0x0 DUP1 REVERT JUMPDEST PUSH2 0x9D PUSH1 0x4 DUP1 CALLDATASIZE SUB PUSH1 0x40 DUP2 LT ISZERO PUSH2 0x7D JUMPI PUSH1 0x0 DUP1 REVERT JUMPDEST DUP2 ADD SWAP1 DUP1 DUP1 CALLDATALOAD SWAP1 PUSH1 0x20 ADD SWAP1 SWAP3 SWAP2 SWAP1 DUP1 CALLDATALOAD SWAP1 PUSH1 0x20 ADD SWAP1 SWAP3 SWAP2 SWAP1 POP POP POP PUSH2 0x24C JUMP JUMPDEST STOP JUMPDEST PUSH2 0xCB PUSH1 0x4 DUP1 CALLDATASIZE SUB PUSH1 0x20 DUP2 LT ISZERO PUSH2 0xB5 JUMPI PUSH1 0x0 DUP1 REVERT JUMPDEST DUP2 ADD SWAP1 DUP1 DUP1 CALLDATALOAD SWAP1 PUSH1 0x20 ADD SWAP1 SWAP3 SWAP2 SWAP1 POP POP POP PUSH2 0x263 JUMP JUMPDEST PUSH1 0x40 MLOAD DUP1 DUP3 DUP2 MSTORE PUSH1 0x20 ADD SWAP2 POP POP PUSH1 0x40 MLOAD DUP1 SWAP2 SUB SWAP1 RETURN JUMPDEST PUSH2 0x10D PUSH1 0x4 DUP1 CALLDATASIZE SUB PUSH1 0x20 DUP2 LT ISZERO PUSH2 0xF7 JUMPI PUSH1 0x0 DUP1 REVERT JUMPDEST DUP2 ADD SWAP1 DUP1 DUP1 CALLDATALOAD SWAP1 PUSH1 0x20 ADD SWAP1 SWAP3 SWAP2 SWAP1 POP POP POP PUSH2 0x27A JUMP JUMPDEST PUSH1 0x40 MLOAD DUP1 DUP3 DUP2 MSTORE PUSH1 0x20 ADD SWAP2 POP POP PUSH1 0x40 MLOAD DUP1 SWAP2 SUB SWAP1 RETURN JUMPDEST PUSH2 0x14F PUSH1 0x4 DUP1 CALLDATASIZE SUB PUSH1 0x60 DUP2 LT ISZERO PUSH2 0x139 JUMPI PUSH1 0x0 DUP1 REVERT JUMPDEST DUP2 ADD SWAP1 DUP1 DUP1 PUSH1 0x60 ADD SWAP1 SWAP2 SWAP3 SWAP2 SWAP3 SWAP1 POP POP POP PUSH2 0x292 JUMP JUMPDEST PUSH1 0x40 MLOAD DUP1 DUP3 DUP2 MSTORE PUSH1 0x20 ADD SWAP2 POP POP PUSH1 0x40 MLOAD DUP1 SWAP2 SUB SWAP1 RETURN JUMPDEST PUSH2 0x1C8 PUSH1 0x4 DUP1 CALLDATASIZE SUB PUSH1 0x60 DUP2 LT ISZERO PUSH2 0x17B JUMPI PUSH1 0x0 DUP1 REVERT JUMPDEST DUP2 ADD SWAP1 DUP1 DUP1 PUSH1 0x60 ADD SWAP1 PUSH1 0x3 DUP1 PUSH1 0x20 MUL PUSH1 0x40 MLOAD SWAP1 DUP2 ADD PUSH1 0x40 MSTORE DUP1 SWAP3 SWAP2 SWAP1 DUP3 PUSH1 0x3 PUSH1 0x20 MUL DUP1 DUP3 DUP5 CALLDATACOPY PUSH1 0x0 DUP2 DUP5 ADD MSTORE PUSH1 0x1F NOT PUSH1 0x1F DUP3 ADD AND SWAP1 POP DUP1 DUP4 ADD SWAP3 POP POP POP POP POP POP SWAP2 SWAP3 SWAP2 SWAP3 SWAP1 POP POP POP PUSH2 0x2B8 JUMP JUMPDEST PUSH1 0x40 MLOAD DUP1 DUP3 PUSH1 0x3 PUSH1 0x20 MUL DUP1 DUP4 DUP4 PUSH1 0x0 JUMPDEST DUP4 DUP2 LT ISZERO PUSH2 0x1F3 JUMPI DUP1 DUP3 ADD MLOAD DUP2 DUP5 ADD MSTORE PUSH1 0x20 DUP2 ADD SWAP1 POP PUSH2 0x1D8 JUMP JUMPDEST POP POP POP POP SWAP1 POP ADD SWAP2 POP POP PUSH1 0x40 MLOAD DUP1 SWAP2 SUB SWAP1 RETURN JUMPDEST PUSH2 0x20E PUSH2 0x2F3 JUMP JUMPDEST PUSH1 0x40 MLOAD DUP1 DUP3 PUSH1 0x5 PUSH1 0x20 MUL DUP1 DUP4 DUP4 PUSH1 0x0 JUMPDEST DUP4 DUP2 LT ISZERO PUSH2 0x239 JUMPI DUP1 DUP3 ADD MLOAD DUP2 DUP5 ADD MSTORE PUSH1 0x20 DUP2 ADD SWAP1 POP PUSH2 0x21E JUMP JUMPDEST POP POP POP POP SWAP1 POP ADD SWAP2 POP POP PUSH1 0x40 MLOAD DUP1 SWAP2 SUB SWAP1 RETURN JUMPDEST DUP1 PUSH1 0x0 DUP4 PUSH1 0x5 DUP2 LT PUSH2 0x25A JUMPI INVALID JUMPDEST ADD DUP2 SWAP1 SSTORE POP POP POP JUMP JUMPDEST PUSH1 0x0 DUP1 DUP3 PUSH1 0x5 DUP2 LT PUSH2 0x271 JUMPI INVALID JUMPDEST ADD SLOAD SWAP1 POP SWAP2 SWAP1 POP JUMP JUMPDEST PUSH1 0x0 DUP2 PUSH1 0x5 DUP2 LT PUSH2 0x287 JUMPI INVALID JUMPDEST ADD PUSH1 0x0 SWAP2 POP SWAP1 POP SLOAD DUP2 JUMP JUMPDEST PUSH1 0x0 DUP1 DUP3 PUSH1 0x0 PUSH1 0x3 DUP2 LT PUSH2 0x2A2 JUMPI INVALID JUMPDEST PUSH1 0x20 MUL ADD CALLDATALOAD SWAP1 POP PUSH1 0x2 DUP2 MUL SWAP1 POP DUP1 SWAP2 POP POP SWAP2 SWAP1 POP JUMP JUMPDEST PUSH2 0x2C0 PUSH2 0x33E JUMP JUMPDEST PUSH1 0x2 DUP3 PUSH1 0x0 PUSH1 0x3 DUP2 LT PUSH2 0x2CF JUMPI INVALID JUMPDEST PUSH1 0x20 MUL ADD MLOAD MUL DUP3 PUSH1 0x0 PUSH1 0x3 DUP2 LT PUSH2 0x2E2 JUMPI INVALID JUMPDEST PUSH1 0x20 MUL ADD DUP2 DUP2 MSTORE POP POP DUP2 SWAP1 POP SWAP2 SWAP1 POP JUMP JUMPDEST PUSH2 0x2FB PUSH2 0x360 JUMP JUMPDEST PUSH1 0x0 PUSH1 0x5 DUP1 PUSH1 0x20 MUL PUSH1 0x40 MLOAD SWAP1 DUP2 ADD PUSH1 0x40 MSTORE DUP1 SWAP3 SWAP2 SWAP1 DUP3 PUSH1 0x5 DUP1 ISZERO PUSH2 0x334 JUMPI PUSH1 0x20 MUL DUP3 ADD SWAP2 JUMPDEST DUP2 SLOAD DUP2 MSTORE PUSH1 0x20 ADD SWAP1 PUSH1 0x1 ADD SWAP1 DUP1 DUP4 GT PUSH2 0x320 JUMPI JUMPDEST POP POP POP POP POP SWAP1 POP SWAP1 JUMP JUMPDEST PUSH1 0x40 MLOAD DUP1 PUSH1 0x60 ADD PUSH1 0x40 MSTORE DUP1 PUSH1 0x3 SWAP1 PUSH1 0x20 DUP3 MUL DUP1 CALLDATASIZE DUP4 CALLDATACOPY DUP1 DUP3 ADD SWAP2 POP POP SWAP1 POP POP SWAP1 JUMP JUMPDEST PUSH1 0x40 MLOAD DUP1 PUSH1 0xA0 ADD PUSH1 0x40 MSTORE DUP1 PUSH1 0x5 SWAP1 PUSH1 0x20 DUP3 MUL DUP1 CALLDATASIZE DUP4 CALLDATACOPY DUP1 DUP3 ADD SWAP2 POP POP SWAP1 POP POP SWAP1 JUMP INVALID LOG2 PUSH5 0x6970667358 0x22 SLT KECCAK256 PUSH32 0xC38D075C0898B02B4797D29A243BB1D4DA49546CD7F17F1FD0D4FAD78D194964 PUSH20 0x6F6C634300070000330000000000000000000000 "
				},
				"gasEstimates": {
					"creation": {
						"codeDepositCost": "190400",
						"executionCost": "infinite",
						"totalCost": "infinite"
					},
					"external": {
						"arr(uint256)": "1151",
						"insertElement(uint256,uint256)": "20278",
						"multiplyby2Index0(uint256[3])": "infinite",
						"passingArray(uint256[3])": "413",
						"returnAllElements()": "infinite",
						"returnElement(uint256)": "1129"
					}
				},
				"methodIdentifiers": {
					"arr(uint256)": "71e5ee5f",
					"insertElement(uint256,uint256)": "10db3c9f",
					"multiplyby2Index0(uint256[3])": "9bd232d2",
					"passingArray(uint256[3])": "9a288ce0",
					"returnAllElements()": "aa058520",
					"returnElement(uint256)": "5c269bcc"
				}
			},
			"storageLayout": {
				"storage": [
					{
						"astId": 9,
						"contract": "contracts/MemoryVsCalldata_15.sol:Array",
						"label": "arr",
						"offset": 0,
						"slot": "0",
						"type": "t_array(t_uint256)5_storage"
					}
				],
				"types": {
					"t_array(t_uint256)5_storage": {
						"base": "t_uint256",
						"encoding": "inplace",
						"label": "uint256[5]",
						"numberOfBytes": "160"
					},
					"t_uint256": {
						"encoding": "inplace",
						"label": "uint256",
						"numberOfBytes": "32"
					}
				}
			},
			"userdoc": {
				"kind": "user",
				"methods": {},
				"version": 1
			}
		}
	}
}