{
	"contracts/Conditional.sol": {
		"Conditional": {
			"abi": [
				{
					"inputs": [
						{
							"internalType": "bool",
							"name": "value",
							"type": "bool"
						}
					],
					"name": "check1",
					"outputs": [],
					"stateMutability": "nonpayable",
					"type": "function"
				},
				{
					"inputs": [
						{
							"internalType": "bool",
							"name": "value",
							"type": "bool"
						}
					],
					"name": "check2",
					"outputs": [
						{
							"internalType": "string",
							"name": "",
							"type": "string"
						}
					],
					"stateMutability": "nonpayable",
					"type": "function"
				},
				{
					"inputs": [],
					"name": "num",
					"outputs": [
						{
							"internalType": "uint256",
							"name": "",
							"type": "uint256"
						}
					],
					"stateMutability": "view",
					"type": "function"
				}
			],
			"devdoc": {
				"kind": "dev",
				"methods": {},
				"version": 1
			},
			"evm": {
				"assembly": "    /* \"contracts/Conditional.sol\":67:403  contract Conditional{\r... */\n  mstore(0x40, 0x80)\n  callvalue\n  dup1\n  iszero\n  tag_1\n  jumpi\n  0x00\n  dup1\n  revert\ntag_1:\n  pop\n  dataSize(sub_0)\n  dup1\n  dataOffset(sub_0)\n  0x00\n  codecopy\n  0x00\n  return\nstop\n\nsub_0: assembly {\n        /* \"contracts/Conditional.sol\":67:403  contract Conditional{\r... */\n      mstore(0x40, 0x80)\n      callvalue\n      dup1\n      iszero\n      tag_1\n      jumpi\n      0x00\n      dup1\n      revert\n    tag_1:\n      pop\n      jumpi(tag_2, lt(calldatasize, 0x04))\n      shr(0xe0, calldataload(0x00))\n      dup1\n      0x281dd794\n      eq\n      tag_3\n      jumpi\n      dup1\n      0x4e70b1dc\n      eq\n      tag_4\n      jumpi\n      dup1\n      0x620f25ce\n      eq\n      tag_5\n      jumpi\n    tag_2:\n      0x00\n      dup1\n      revert\n        /* \"contracts/Conditional.sol\":118:220  function check1(bool value) public{\r... */\n    tag_3:\n      tag_6\n      0x04\n      dup1\n      calldatasize\n      sub\n      dup2\n      add\n      swap1\n      tag_7\n      swap2\n      swap1\n      tag_8\n      jump\t// in\n    tag_7:\n      tag_9\n      jump\t// in\n    tag_6:\n      stop\n        /* \"contracts/Conditional.sol\":94:109  uint public num */\n    tag_4:\n      tag_10\n      tag_11\n      jump\t// in\n    tag_10:\n      mload(0x40)\n      tag_12\n      swap2\n      swap1\n      tag_13\n      jump\t// in\n    tag_12:\n      mload(0x40)\n      dup1\n      swap2\n      sub\n      swap1\n      return\n        /* \"contracts/Conditional.sol\":228:400  function check2(bool value) public returns(string memory){\r... */\n    tag_5:\n      tag_14\n      0x04\n      dup1\n      calldatasize\n      sub\n      dup2\n      add\n      swap1\n      tag_15\n      swap2\n      swap1\n      tag_8\n      jump\t// in\n    tag_15:\n      tag_16\n      jump\t// in\n    tag_14:\n      mload(0x40)\n      tag_17\n      swap2\n      swap1\n      tag_18\n      jump\t// in\n    tag_17:\n      mload(0x40)\n      dup1\n      swap2\n      sub\n      swap1\n      return\n        /* \"contracts/Conditional.sol\":118:220  function check1(bool value) public{\r... */\n    tag_9:\n        /* \"contracts/Conditional.sol\":178:182  true */\n      0x01\n        /* \"contracts/Conditional.sol\":171:182  value==true */\n      iszero\n      iszero\n        /* \"contracts/Conditional.sol\":171:176  value */\n      dup2\n        /* \"contracts/Conditional.sol\":171:182  value==true */\n      iszero\n      iszero\n      eq\n        /* \"contracts/Conditional.sol\":163:194  require(value==true,\"Not true\") */\n      tag_20\n      jumpi\n      mload(0x40)\n      0x08c379a000000000000000000000000000000000000000000000000000000000\n      dup2\n      mstore\n      0x04\n      add\n      tag_21\n      swap1\n      tag_22\n      jump\t// in\n    tag_21:\n      mload(0x40)\n      dup1\n      swap2\n      sub\n      swap1\n      revert\n    tag_20:\n        /* \"contracts/Conditional.sol\":209:212  100 */\n      0x64\n        /* \"contracts/Conditional.sol\":205:208  num */\n      0x00\n        /* \"contracts/Conditional.sol\":205:212  num=100 */\n      dup2\n      swap1\n      sstore\n      pop\n        /* \"contracts/Conditional.sol\":118:220  function check1(bool value) public{\r... */\n      pop\n      jump\t// out\n        /* \"contracts/Conditional.sol\":94:109  uint public num */\n    tag_11:\n      sload(0x00)\n      dup2\n      jump\t// out\n        /* \"contracts/Conditional.sol\":228:400  function check2(bool value) public returns(string memory){\r... */\n    tag_16:\n        /* \"contracts/Conditional.sol\":271:284  string memory */\n      0x60\n        /* \"contracts/Conditional.sol\":306:310  true */\n      0x01\n        /* \"contracts/Conditional.sol\":299:310  value==true */\n      iszero\n      iszero\n        /* \"contracts/Conditional.sol\":299:304  value */\n      dup3\n        /* \"contracts/Conditional.sol\":299:310  value==true */\n      iszero\n      iszero\n      eq\n        /* \"contracts/Conditional.sol\":296:393  if(value==true){\r... */\n      iszero\n      tag_24\n      jumpi\n        /* \"contracts/Conditional.sol\":330:333  100 */\n      0x64\n        /* \"contracts/Conditional.sol\":326:329  num */\n      0x00\n        /* \"contracts/Conditional.sol\":326:333  num=100 */\n      dup2\n      swap1\n      sstore\n      pop\n        /* \"contracts/Conditional.sol\":296:393  if(value==true){\r... */\n      jump(tag_25)\n    tag_24:\n        /* \"contracts/Conditional.sol\":364:381  return \"Not true\" */\n      mload(0x40)\n      dup1\n      0x40\n      add\n      0x40\n      mstore\n      dup1\n      0x08\n      dup2\n      mstore\n      0x20\n      add\n      0x4e6f742074727565000000000000000000000000000000000000000000000000\n      dup2\n      mstore\n      pop\n      swap1\n      pop\n      jump(tag_23)\n        /* \"contracts/Conditional.sol\":296:393  if(value==true){\r... */\n    tag_25:\n        /* \"contracts/Conditional.sol\":228:400  function check2(bool value) public returns(string memory){\r... */\n    tag_23:\n      swap2\n      swap1\n      pop\n      jump\t// out\n        /* \"#utility.yul\":7:140   */\n    tag_27:\n      0x00\n        /* \"#utility.yul\":88:94   */\n      dup2\n        /* \"#utility.yul\":75:95   */\n      calldataload\n        /* \"#utility.yul\":66:95   */\n      swap1\n      pop\n        /* \"#utility.yul\":104:134   */\n      tag_29\n        /* \"#utility.yul\":128:133   */\n      dup2\n        /* \"#utility.yul\":104:134   */\n      tag_30\n      jump\t// in\n    tag_29:\n        /* \"#utility.yul\":56:140   */\n      swap3\n      swap2\n      pop\n      pop\n      jump\t// out\n        /* \"#utility.yul\":146:402   */\n    tag_8:\n      0x00\n        /* \"#utility.yul\":251:253   */\n      0x20\n        /* \"#utility.yul\":239:248   */\n      dup3\n        /* \"#utility.yul\":230:237   */\n      dup5\n        /* \"#utility.yul\":226:249   */\n      sub\n        /* \"#utility.yul\":222:254   */\n      slt\n        /* \"#utility.yul\":219:221   */\n      iszero\n      tag_32\n      jumpi\n        /* \"#utility.yul\":267:268   */\n      0x00\n        /* \"#utility.yul\":264:265   */\n      dup1\n        /* \"#utility.yul\":257:269   */\n      revert\n        /* \"#utility.yul\":219:221   */\n    tag_32:\n        /* \"#utility.yul\":310:311   */\n      0x00\n        /* \"#utility.yul\":335:385   */\n      tag_33\n        /* \"#utility.yul\":377:384   */\n      dup5\n        /* \"#utility.yul\":368:374   */\n      dup3\n        /* \"#utility.yul\":357:366   */\n      dup6\n        /* \"#utility.yul\":353:375   */\n      add\n        /* \"#utility.yul\":335:385   */\n      tag_27\n      jump\t// in\n    tag_33:\n        /* \"#utility.yul\":325:385   */\n      swap2\n      pop\n        /* \"#utility.yul\":281:395   */\n      pop\n        /* \"#utility.yul\":209:402   */\n      swap3\n      swap2\n      pop\n      pop\n      jump\t// out\n        /* \"#utility.yul\":408:772   */\n    tag_34:\n      0x00\n        /* \"#utility.yul\":524:563   */\n      tag_36\n        /* \"#utility.yul\":557:562   */\n      dup3\n        /* \"#utility.yul\":524:563   */\n      tag_37\n      jump\t// in\n    tag_36:\n        /* \"#utility.yul\":579:650   */\n      tag_38\n        /* \"#utility.yul\":643:649   */\n      dup2\n        /* \"#utility.yul\":638:641   */\n      dup6\n        /* \"#utility.yul\":579:650   */\n      tag_39\n      jump\t// in\n    tag_38:\n        /* \"#utility.yul\":572:650   */\n      swap4\n      pop\n        /* \"#utility.yul\":659:711   */\n      tag_40\n        /* \"#utility.yul\":704:710   */\n      dup2\n        /* \"#utility.yul\":699:702   */\n      dup6\n        /* \"#utility.yul\":692:696   */\n      0x20\n        /* \"#utility.yul\":685:690   */\n      dup7\n        /* \"#utility.yul\":681:697   */\n      add\n        /* \"#utility.yul\":659:711   */\n      tag_41\n      jump\t// in\n    tag_40:\n        /* \"#utility.yul\":736:765   */\n      tag_42\n        /* \"#utility.yul\":758:764   */\n      dup2\n        /* \"#utility.yul\":736:765   */\n      tag_43\n      jump\t// in\n    tag_42:\n        /* \"#utility.yul\":731:734   */\n      dup5\n        /* \"#utility.yul\":727:766   */\n      add\n        /* \"#utility.yul\":720:766   */\n      swap2\n      pop\n        /* \"#utility.yul\":500:772   */\n      pop\n      swap3\n      swap2\n      pop\n      pop\n      jump\t// out\n        /* \"#utility.yul\":778:1083   */\n    tag_44:\n      0x00\n        /* \"#utility.yul\":941:1007   */\n      tag_46\n        /* \"#utility.yul\":1005:1006   */\n      0x08\n        /* \"#utility.yul\":1000:1003   */\n      dup4\n        /* \"#utility.yul\":941:1007   */\n      tag_39\n      jump\t// in\n    tag_46:\n        /* \"#utility.yul\":934:1007   */\n      swap2\n      pop\n        /* \"#utility.yul\":1037:1047   */\n      0x4e6f742074727565000000000000000000000000000000000000000000000000\n        /* \"#utility.yul\":1033:1034   */\n      0x00\n        /* \"#utility.yul\":1028:1031   */\n      dup4\n        /* \"#utility.yul\":1024:1035   */\n      add\n        /* \"#utility.yul\":1017:1048   */\n      mstore\n        /* \"#utility.yul\":1074:1076   */\n      0x20\n        /* \"#utility.yul\":1069:1072   */\n      dup3\n        /* \"#utility.yul\":1065:1077   */\n      add\n        /* \"#utility.yul\":1058:1077   */\n      swap1\n      pop\n        /* \"#utility.yul\":924:1083   */\n      swap2\n      swap1\n      pop\n      jump\t// out\n        /* \"#utility.yul\":1089:1207   */\n    tag_47:\n        /* \"#utility.yul\":1176:1200   */\n      tag_49\n        /* \"#utility.yul\":1194:1199   */\n      dup2\n        /* \"#utility.yul\":1176:1200   */\n      tag_50\n      jump\t// in\n    tag_49:\n        /* \"#utility.yul\":1171:1174   */\n      dup3\n        /* \"#utility.yul\":1164:1201   */\n      mstore\n        /* \"#utility.yul\":1154:1207   */\n      pop\n      pop\n      jump\t// out\n        /* \"#utility.yul\":1213:1526   */\n    tag_18:\n      0x00\n        /* \"#utility.yul\":1364:1366   */\n      0x20\n        /* \"#utility.yul\":1353:1362   */\n      dup3\n        /* \"#utility.yul\":1349:1367   */\n      add\n        /* \"#utility.yul\":1341:1367   */\n      swap1\n      pop\n        /* \"#utility.yul\":1413:1422   */\n      dup2\n        /* \"#utility.yul\":1407:1411   */\n      dup2\n        /* \"#utility.yul\":1403:1423   */\n      sub\n        /* \"#utility.yul\":1399:1400   */\n      0x00\n        /* \"#utility.yul\":1388:1397   */\n      dup4\n        /* \"#utility.yul\":1384:1401   */\n      add\n        /* \"#utility.yul\":1377:1424   */\n      mstore\n        /* \"#utility.yul\":1441:1519   */\n      tag_52\n        /* \"#utility.yul\":1514:1518   */\n      dup2\n        /* \"#utility.yul\":1505:1511   */\n      dup5\n        /* \"#utility.yul\":1441:1519   */\n      tag_34\n      jump\t// in\n    tag_52:\n        /* \"#utility.yul\":1433:1519   */\n      swap1\n      pop\n        /* \"#utility.yul\":1331:1526   */\n      swap3\n      swap2\n      pop\n      pop\n      jump\t// out\n        /* \"#utility.yul\":1532:1951   */\n    tag_22:\n      0x00\n        /* \"#utility.yul\":1736:1738   */\n      0x20\n        /* \"#utility.yul\":1725:1734   */\n      dup3\n        /* \"#utility.yul\":1721:1739   */\n      add\n        /* \"#utility.yul\":1713:1739   */\n      swap1\n      pop\n        /* \"#utility.yul\":1785:1794   */\n      dup2\n        /* \"#utility.yul\":1779:1783   */\n      dup2\n        /* \"#utility.yul\":1775:1795   */\n      sub\n        /* \"#utility.yul\":1771:1772   */\n      0x00\n        /* \"#utility.yul\":1760:1769   */\n      dup4\n        /* \"#utility.yul\":1756:1773   */\n      add\n        /* \"#utility.yul\":1749:1796   */\n      mstore\n        /* \"#utility.yul\":1813:1944   */\n      tag_54\n        /* \"#utility.yul\":1939:1943   */\n      dup2\n        /* \"#utility.yul\":1813:1944   */\n      tag_44\n      jump\t// in\n    tag_54:\n        /* \"#utility.yul\":1805:1944   */\n      swap1\n      pop\n        /* \"#utility.yul\":1703:1951   */\n      swap2\n      swap1\n      pop\n      jump\t// out\n        /* \"#utility.yul\":1957:2179   */\n    tag_13:\n      0x00\n        /* \"#utility.yul\":2088:2090   */\n      0x20\n        /* \"#utility.yul\":2077:2086   */\n      dup3\n        /* \"#utility.yul\":2073:2091   */\n      add\n        /* \"#utility.yul\":2065:2091   */\n      swap1\n      pop\n        /* \"#utility.yul\":2101:2172   */\n      tag_56\n        /* \"#utility.yul\":2169:2170   */\n      0x00\n        /* \"#utility.yul\":2158:2167   */\n      dup4\n        /* \"#utility.yul\":2154:2171   */\n      add\n        /* \"#utility.yul\":2145:2151   */\n      dup5\n        /* \"#utility.yul\":2101:2172   */\n      tag_47\n      jump\t// in\n    tag_56:\n        /* \"#utility.yul\":2055:2179   */\n      swap3\n      swap2\n      pop\n      pop\n      jump\t// out\n        /* \"#utility.yul\":2185:2284   */\n    tag_37:\n      0x00\n        /* \"#utility.yul\":2271:2276   */\n      dup2\n        /* \"#utility.yul\":2265:2277   */\n      mload\n        /* \"#utility.yul\":2255:2277   */\n      swap1\n      pop\n        /* \"#utility.yul\":2244:2284   */\n      swap2\n      swap1\n      pop\n      jump\t// out\n        /* \"#utility.yul\":2290:2459   */\n    tag_39:\n      0x00\n        /* \"#utility.yul\":2408:2414   */\n      dup3\n        /* \"#utility.yul\":2403:2406   */\n      dup3\n        /* \"#utility.yul\":2396:2415   */\n      mstore\n        /* \"#utility.yul\":2448:2452   */\n      0x20\n        /* \"#utility.yul\":2443:2446   */\n      dup3\n        /* \"#utility.yul\":2439:2453   */\n      add\n        /* \"#utility.yul\":2424:2453   */\n      swap1\n      pop\n        /* \"#utility.yul\":2386:2459   */\n      swap3\n      swap2\n      pop\n      pop\n      jump\t// out\n        /* \"#utility.yul\":2465:2555   */\n    tag_59:\n      0x00\n        /* \"#utility.yul\":2542:2547   */\n      dup2\n        /* \"#utility.yul\":2535:2548   */\n      iszero\n        /* \"#utility.yul\":2528:2549   */\n      iszero\n        /* \"#utility.yul\":2517:2549   */\n      swap1\n      pop\n        /* \"#utility.yul\":2507:2555   */\n      swap2\n      swap1\n      pop\n      jump\t// out\n        /* \"#utility.yul\":2561:2638   */\n    tag_50:\n      0x00\n        /* \"#utility.yul\":2627:2632   */\n      dup2\n        /* \"#utility.yul\":2616:2632   */\n      swap1\n      pop\n        /* \"#utility.yul\":2606:2638   */\n      swap2\n      swap1\n      pop\n      jump\t// out\n        /* \"#utility.yul\":2644:2951   */\n    tag_41:\n        /* \"#utility.yul\":2712:2713   */\n      0x00\n        /* \"#utility.yul\":2722:2835   */\n    tag_63:\n        /* \"#utility.yul\":2736:2742   */\n      dup4\n        /* \"#utility.yul\":2733:2734   */\n      dup2\n        /* \"#utility.yul\":2730:2743   */\n      lt\n        /* \"#utility.yul\":2722:2835   */\n      iszero\n      tag_65\n      jumpi\n        /* \"#utility.yul\":2821:2822   */\n      dup1\n        /* \"#utility.yul\":2816:2819   */\n      dup3\n        /* \"#utility.yul\":2812:2823   */\n      add\n        /* \"#utility.yul\":2806:2824   */\n      mload\n        /* \"#utility.yul\":2802:2803   */\n      dup2\n        /* \"#utility.yul\":2797:2800   */\n      dup5\n        /* \"#utility.yul\":2793:2804   */\n      add\n        /* \"#utility.yul\":2786:2825   */\n      mstore\n        /* \"#utility.yul\":2758:2760   */\n      0x20\n        /* \"#utility.yul\":2755:2756   */\n      dup2\n        /* \"#utility.yul\":2751:2761   */\n      add\n        /* \"#utility.yul\":2746:2761   */\n      swap1\n      pop\n        /* \"#utility.yul\":2722:2835   */\n      jump(tag_63)\n    tag_65:\n        /* \"#utility.yul\":2853:2859   */\n      dup4\n        /* \"#utility.yul\":2850:2851   */\n      dup2\n        /* \"#utility.yul\":2847:2860   */\n      gt\n        /* \"#utility.yul\":2844:2846   */\n      iszero\n      tag_66\n      jumpi\n        /* \"#utility.yul\":2933:2934   */\n      0x00\n        /* \"#utility.yul\":2924:2930   */\n      dup5\n        /* \"#utility.yul\":2919:2922   */\n      dup5\n        /* \"#utility.yul\":2915:2931   */\n      add\n        /* \"#utility.yul\":2908:2935   */\n      mstore\n        /* \"#utility.yul\":2844:2846   */\n    tag_66:\n        /* \"#utility.yul\":2693:2951   */\n      pop\n      pop\n      pop\n      pop\n      jump\t// out\n        /* \"#utility.yul\":2957:3059   */\n    tag_43:\n      0x00\n        /* \"#utility.yul\":3049:3051   */\n      0x1f\n        /* \"#utility.yul\":3045:3052   */\n      not\n        /* \"#utility.yul\":3040:3042   */\n      0x1f\n        /* \"#utility.yul\":3033:3038   */\n      dup4\n        /* \"#utility.yul\":3029:3043   */\n      add\n        /* \"#utility.yul\":3025:3053   */\n      and\n        /* \"#utility.yul\":3015:3053   */\n      swap1\n      pop\n        /* \"#utility.yul\":3005:3059   */\n      swap2\n      swap1\n      pop\n      jump\t// out\n        /* \"#utility.yul\":3065:3181   */\n    tag_30:\n        /* \"#utility.yul\":3135:3156   */\n      tag_69\n        /* \"#utility.yul\":3150:3155   */\n      dup2\n        /* \"#utility.yul\":3135:3156   */\n      tag_59\n      jump\t// in\n    tag_69:\n        /* \"#utility.yul\":3128:3133   */\n      dup2\n        /* \"#utility.yul\":3125:3157   */\n      eq\n        /* \"#utility.yul\":3115:3117   */\n      tag_70\n      jumpi\n        /* \"#utility.yul\":3171:3172   */\n      0x00\n        /* \"#utility.yul\":3168:3169   */\n      dup1\n        /* \"#utility.yul\":3161:3173   */\n      revert\n        /* \"#utility.yul\":3115:3117   */\n    tag_70:\n        /* \"#utility.yul\":3105:3181   */\n      pop\n      jump\t// out\n\n    auxdata: 0xa2646970667358221220379df92300b6eb03d0f0325165a70755d2fa5915df6766f0067bfa9d602aa87d64736f6c63430008000033\n}\n",
				"bytecode": {
					"linkReferences": {},
					"object": "608060405234801561001057600080fd5b5061034d806100206000396000f3fe608060405234801561001057600080fd5b50600436106100415760003560e01c8063281dd794146100465780634e70b1dc14610062578063620f25ce14610080575b600080fd5b610060600480360381019061005b919061017c565b6100b0565b005b61006a610102565b604051610077919061026f565b60405180910390f35b61009a6004803603810190610095919061017c565b610108565b6040516100a7919061022d565b60405180910390f35b60011515811515146100f7576040517f08c379a00000000000000000000000000000000000000000000000000000000081526004016100ee9061024f565b60405180910390fd5b606460008190555050565b60005481565b6060600115158215151415610124576064600081905550610161565b6040518060400160405280600881526020017f4e6f7420747275650000000000000000000000000000000000000000000000008152509050610162565b5b919050565b60008135905061017681610300565b92915050565b60006020828403121561018e57600080fd5b600061019c84828501610167565b91505092915050565b60006101b08261028a565b6101ba8185610295565b93506101ca8185602086016102bc565b6101d3816102ef565b840191505092915050565b60006101eb600883610295565b91507f4e6f7420747275650000000000000000000000000000000000000000000000006000830152602082019050919050565b610227816102b2565b82525050565b6000602082019050818103600083015261024781846101a5565b905092915050565b60006020820190508181036000830152610268816101de565b9050919050565b6000602082019050610284600083018461021e565b92915050565b600081519050919050565b600082825260208201905092915050565b60008115159050919050565b6000819050919050565b60005b838110156102da5780820151818401526020810190506102bf565b838111156102e9576000848401525b50505050565b6000601f19601f8301169050919050565b610309816102a6565b811461031457600080fd5b5056fea2646970667358221220379df92300b6eb03d0f0325165a70755d2fa5915df6766f0067bfa9d602aa87d64736f6c63430008000033",
					"opcodes": "PUSH1 0x80 PUSH1 0x40 MSTORE CALLVALUE DUP1 ISZERO PUSH2 0x10 JUMPI PUSH1 0x0 DUP1 REVERT JUMPDEST POP PUSH2 0x34D DUP1 PUSH2 0x20 PUSH1 0x0 CODECOPY PUSH1 0x0 RETURN INVALID PUSH1 0x80 PUSH1 0x40 MSTORE CALLVALUE DUP1 ISZERO PUSH2 0x10 JUMPI PUSH1 0x0 DUP1 REVERT JUMPDEST POP PUSH1 0x4 CALLDATASIZE LT PUSH2 0x41 JUMPI PUSH1 0x0 CALLDATALOAD PUSH1 0xE0 SHR DUP1 PUSH4 0x281DD794 EQ PUSH2 0x46 JUMPI DUP1 PUSH4 0x4E70B1DC EQ PUSH2 0x62 JUMPI DUP1 PUSH4 0x620F25CE EQ PUSH2 0x80 JUMPI JUMPDEST PUSH1 0x0 DUP1 REVERT JUMPDEST PUSH2 0x60 PUSH1 0x4 DUP1 CALLDATASIZE SUB DUP2 ADD SWAP1 PUSH2 0x5B SWAP2 SWAP1 PUSH2 0x17C JUMP JUMPDEST PUSH2 0xB0 JUMP JUMPDEST STOP JUMPDEST PUSH2 0x6A PUSH2 0x102 JUMP JUMPDEST PUSH1 0x40 MLOAD PUSH2 0x77 SWAP2 SWAP1 PUSH2 0x26F JUMP JUMPDEST PUSH1 0x40 MLOAD DUP1 SWAP2 SUB SWAP1 RETURN JUMPDEST PUSH2 0x9A PUSH1 0x4 DUP1 CALLDATASIZE SUB DUP2 ADD SWAP1 PUSH2 0x95 SWAP2 SWAP1 PUSH2 0x17C JUMP JUMPDEST PUSH2 0x108 JUMP JUMPDEST PUSH1 0x40 MLOAD PUSH2 0xA7 SWAP2 SWAP1 PUSH2 0x22D JUMP JUMPDEST PUSH1 0x40 MLOAD DUP1 SWAP2 SUB SWAP1 RETURN JUMPDEST PUSH1 0x1 ISZERO ISZERO DUP2 ISZERO ISZERO EQ PUSH2 0xF7 JUMPI PUSH1 0x40 MLOAD PUSH32 0x8C379A000000000000000000000000000000000000000000000000000000000 DUP2 MSTORE PUSH1 0x4 ADD PUSH2 0xEE SWAP1 PUSH2 0x24F JUMP JUMPDEST PUSH1 0x40 MLOAD DUP1 SWAP2 SUB SWAP1 REVERT JUMPDEST PUSH1 0x64 PUSH1 0x0 DUP2 SWAP1 SSTORE POP POP JUMP JUMPDEST PUSH1 0x0 SLOAD DUP2 JUMP JUMPDEST PUSH1 0x60 PUSH1 0x1 ISZERO ISZERO DUP3 ISZERO ISZERO EQ ISZERO PUSH2 0x124 JUMPI PUSH1 0x64 PUSH1 0x0 DUP2 SWAP1 SSTORE POP PUSH2 0x161 JUMP JUMPDEST PUSH1 0x40 MLOAD DUP1 PUSH1 0x40 ADD PUSH1 0x40 MSTORE DUP1 PUSH1 0x8 DUP2 MSTORE PUSH1 0x20 ADD PUSH32 0x4E6F742074727565000000000000000000000000000000000000000000000000 DUP2 MSTORE POP SWAP1 POP PUSH2 0x162 JUMP JUMPDEST JUMPDEST SWAP2 SWAP1 POP JUMP JUMPDEST PUSH1 0x0 DUP2 CALLDATALOAD SWAP1 POP PUSH2 0x176 DUP2 PUSH2 0x300 JUMP JUMPDEST SWAP3 SWAP2 POP POP JUMP JUMPDEST PUSH1 0x0 PUSH1 0x20 DUP3 DUP5 SUB SLT ISZERO PUSH2 0x18E JUMPI PUSH1 0x0 DUP1 REVERT JUMPDEST PUSH1 0x0 PUSH2 0x19C DUP5 DUP3 DUP6 ADD PUSH2 0x167 JUMP JUMPDEST SWAP2 POP POP SWAP3 SWAP2 POP POP JUMP JUMPDEST PUSH1 0x0 PUSH2 0x1B0 DUP3 PUSH2 0x28A JUMP JUMPDEST PUSH2 0x1BA DUP2 DUP6 PUSH2 0x295 JUMP JUMPDEST SWAP4 POP PUSH2 0x1CA DUP2 DUP6 PUSH1 0x20 DUP7 ADD PUSH2 0x2BC JUMP JUMPDEST PUSH2 0x1D3 DUP2 PUSH2 0x2EF JUMP JUMPDEST DUP5 ADD SWAP2 POP POP SWAP3 SWAP2 POP POP JUMP JUMPDEST PUSH1 0x0 PUSH2 0x1EB PUSH1 0x8 DUP4 PUSH2 0x295 JUMP JUMPDEST SWAP2 POP PUSH32 0x4E6F742074727565000000000000000000000000000000000000000000000000 PUSH1 0x0 DUP4 ADD MSTORE PUSH1 0x20 DUP3 ADD SWAP1 POP SWAP2 SWAP1 POP JUMP JUMPDEST PUSH2 0x227 DUP2 PUSH2 0x2B2 JUMP JUMPDEST DUP3 MSTORE POP POP JUMP JUMPDEST PUSH1 0x0 PUSH1 0x20 DUP3 ADD SWAP1 POP DUP2 DUP2 SUB PUSH1 0x0 DUP4 ADD MSTORE PUSH2 0x247 DUP2 DUP5 PUSH2 0x1A5 JUMP JUMPDEST SWAP1 POP SWAP3 SWAP2 POP POP JUMP JUMPDEST PUSH1 0x0 PUSH1 0x20 DUP3 ADD SWAP1 POP DUP2 DUP2 SUB PUSH1 0x0 DUP4 ADD MSTORE PUSH2 0x268 DUP2 PUSH2 0x1DE JUMP JUMPDEST SWAP1 POP SWAP2 SWAP1 POP JUMP JUMPDEST PUSH1 0x0 PUSH1 0x20 DUP3 ADD SWAP1 POP PUSH2 0x284 PUSH1 0x0 DUP4 ADD DUP5 PUSH2 0x21E JUMP JUMPDEST SWAP3 SWAP2 POP POP JUMP JUMPDEST PUSH1 0x0 DUP2 MLOAD SWAP1 POP SWAP2 SWAP1 POP JUMP JUMPDEST PUSH1 0x0 DUP3 DUP3 MSTORE PUSH1 0x20 DUP3 ADD SWAP1 POP SWAP3 SWAP2 POP POP JUMP JUMPDEST PUSH1 0x0 DUP2 ISZERO ISZERO SWAP1 POP SWAP2 SWAP1 POP JUMP JUMPDEST PUSH1 0x0 DUP2 SWAP1 POP SWAP2 SWAP1 POP JUMP JUMPDEST PUSH1 0x0 JUMPDEST DUP4 DUP2 LT ISZERO PUSH2 0x2DA JUMPI DUP1 DUP3 ADD MLOAD DUP2 DUP5 ADD MSTORE PUSH1 0x20 DUP2 ADD SWAP1 POP PUSH2 0x2BF JUMP JUMPDEST DUP4 DUP2 GT ISZERO PUSH2 0x2E9 JUMPI PUSH1 0x0 DUP5 DUP5 ADD MSTORE JUMPDEST POP POP POP POP JUMP JUMPDEST PUSH1 0x0 PUSH1 0x1F NOT PUSH1 0x1F DUP4 ADD AND SWAP1 POP SWAP2 SWAP1 POP JUMP JUMPDEST PUSH2 0x309 DUP2 PUSH2 0x2A6 JUMP JUMPDEST DUP2 EQ PUSH2 0x314 JUMPI PUSH1 0x0 DUP1 REVERT JUMPDEST POP JUMP INVALID LOG2 PUSH5 0x6970667358 0x22 SLT KECCAK256 CALLDATACOPY SWAP14 0xF9 0x23 STOP 0xB6 0xEB SUB 0xD0 CREATE ORIGIN MLOAD PUSH6 0xA70755D2FA59 ISZERO 0xDF PUSH8 0x66F0067BFA9D602A 0xA8 PUSH30 0x64736F6C6343000800003300000000000000000000000000000000000000 "
				},
				"gasEstimates": {
					"creation": {
						"codeDepositCost": "169000",
						"executionCost": "214",
						"totalCost": "169214"
					},
					"external": {
						"check1(bool)": "20439",
						"check2(bool)": "infinite",
						"num()": "1129"
					}
				},
				"methodIdentifiers": {
					"check1(bool)": "281dd794",
					"check2(bool)": "620f25ce",
					"num()": "4e70b1dc"
				}
			},
			"storageLayout": {
				"storage": [
					{
						"astId": 3,
						"contract": "contracts/Conditional.sol:Conditional",
						"label": "num",
						"offset": 0,
						"slot": "0",
						"type": "t_uint256"
					}
				],
				"types": {
					"t_uint256": {
						"encoding": "inplace",
						"label": "uint256",
						"numberOfBytes": "32"
					}
				}
			},
			"userdoc": {
				"kind": "user",
				"methods": {},
				"version": 1
			}
		}
	}
}