{
	"contracts/Function_2.sol": {
		"Function": {
			"abi": [
				{
					"inputs": [],
					"name": "addition",
					"outputs": [],
					"stateMutability": "pure",
					"type": "function"
				},
				{
					"inputs": [],
					"name": "changeState",
					"outputs": [],
					"stateMutability": "nonpayable",
					"type": "function"
				},
				{
					"inputs": [
						{
							"internalType": "uint256",
							"name": "a",
							"type": "uint256"
						},
						{
							"internalType": "uint256",
							"name": "b",
							"type": "uint256"
						}
					],
					"name": "div",
					"outputs": [
						{
							"internalType": "uint256",
							"name": "",
							"type": "uint256"
						}
					],
					"stateMutability": "pure",
					"type": "function"
				},
				{
					"inputs": [],
					"name": "multiplication",
					"outputs": [
						{
							"internalType": "uint256",
							"name": "",
							"type": "uint256"
						}
					],
					"stateMutability": "view",
					"type": "function"
				},
				{
					"inputs": [],
					"name": "randomValue",
					"outputs": [
						{
							"internalType": "uint256",
							"name": "",
							"type": "uint256"
						}
					],
					"stateMutability": "view",
					"type": "function"
				},
				{
					"inputs": [],
					"name": "subtraction",
					"outputs": [
						{
							"internalType": "uint256",
							"name": "",
							"type": "uint256"
						}
					],
					"stateMutability": "pure",
					"type": "function"
				},
				{
					"inputs": [],
					"name": "value",
					"outputs": [
						{
							"internalType": "uint256",
							"name": "",
							"type": "uint256"
						}
					],
					"stateMutability": "view",
					"type": "function"
				}
			],
			"devdoc": {
				"kind": "dev",
				"methods": {},
				"version": 1
			},
			"evm": {
				"assembly": "    /* \"contracts/Function_2.sol\":67:902  contract Function{\r... */\n  mstore(0x40, 0x80)\n    /* \"contracts/Function_2.sol\":113:115  10 */\n  0x0a\n    /* \"contracts/Function_2.sol\":103:115  uint num1=10 */\n  0x00\n  sstore\n    /* \"contracts/Function_2.sol\":132:134  20 */\n  0x14\n    /* \"contracts/Function_2.sol\":122:134  uint num2=20 */\n  0x01\n  sstore\n    /* \"contracts/Function_2.sol\":163:165  10 */\n  0x0a\n    /* \"contracts/Function_2.sol\":145:165  uint public value=10 */\n  0x02\n  sstore\n    /* \"contracts/Function_2.sol\":257:260  100 */\n  0x64\n    /* \"contracts/Function_2.sol\":233:260  uint public randomValue=100 */\n  0x03\n  sstore\n    /* \"contracts/Function_2.sol\":67:902  contract Function{\r... */\n  callvalue\n  dup1\n  iszero\n  tag_1\n  jumpi\n  0x00\n  dup1\n  revert\ntag_1:\n  pop\n  dataSize(sub_0)\n  dup1\n  dataOffset(sub_0)\n  0x00\n  codecopy\n  0x00\n  return\nstop\n\nsub_0: assembly {\n        /* \"contracts/Function_2.sol\":67:902  contract Function{\r... */\n      mstore(0x40, 0x80)\n      callvalue\n      dup1\n      iszero\n      tag_1\n      jumpi\n      0x00\n      dup1\n      revert\n    tag_1:\n      pop\n      jumpi(tag_2, lt(calldatasize, 0x04))\n      shr(0xe0, calldataload(0x00))\n      dup1\n      0x8412e667\n      gt\n      tag_10\n      jumpi\n      dup1\n      0x8412e667\n      eq\n      tag_6\n      jumpi\n      dup1\n      0xa391c15b\n      eq\n      tag_7\n      jumpi\n      dup1\n      0xe3ec0251\n      eq\n      tag_8\n      jumpi\n      dup1\n      0xec597128\n      eq\n      tag_9\n      jumpi\n      jump(tag_2)\n    tag_10:\n      dup1\n      0x011285da\n      eq\n      tag_3\n      jumpi\n      dup1\n      0x276801ec\n      eq\n      tag_4\n      jumpi\n      dup1\n      0x3fa4f245\n      eq\n      tag_5\n      jumpi\n    tag_2:\n      0x00\n      dup1\n      revert\n        /* \"contracts/Function_2.sol\":547:633  function multiplication() public view returns(uint){\r... */\n    tag_3:\n      tag_11\n      tag_12\n      jump\t// in\n    tag_11:\n      mload(0x40)\n      dup1\n      dup3\n      dup2\n      mstore\n      0x20\n      add\n      swap2\n      pop\n      pop\n      mload(0x40)\n      dup1\n      swap2\n      sub\n      swap1\n      return\n        /* \"contracts/Function_2.sol\":233:260  uint public randomValue=100 */\n    tag_4:\n      tag_13\n      tag_14\n      jump\t// in\n    tag_13:\n      mload(0x40)\n      dup1\n      dup3\n      dup2\n      mstore\n      0x20\n      add\n      swap2\n      pop\n      pop\n      mload(0x40)\n      dup1\n      swap2\n      sub\n      swap1\n      return\n        /* \"contracts/Function_2.sol\":145:165  uint public value=10 */\n    tag_5:\n      tag_15\n      tag_16\n      jump\t// in\n    tag_15:\n      mload(0x40)\n      dup1\n      dup3\n      dup2\n      mstore\n      0x20\n      add\n      swap2\n      pop\n      pop\n      mload(0x40)\n      dup1\n      swap2\n      sub\n      swap1\n      return\n        /* \"contracts/Function_2.sol\":835:899  function changeState() public {\r... */\n    tag_6:\n      tag_17\n      tag_18\n      jump\t// in\n    tag_17:\n      stop\n        /* \"contracts/Function_2.sol\":685:767  function div(uint a,uint b) public pure returns(uint){\r... */\n    tag_7:\n      tag_19\n      0x04\n      dup1\n      calldatasize\n      sub\n      0x40\n      dup2\n      lt\n      iszero\n      tag_20\n      jumpi\n      0x00\n      dup1\n      revert\n    tag_20:\n      dup2\n      add\n      swap1\n      dup1\n      dup1\n      calldataload\n      swap1\n      0x20\n      add\n      swap1\n      swap3\n      swap2\n      swap1\n      dup1\n      calldataload\n      swap1\n      0x20\n      add\n      swap1\n      swap3\n      swap2\n      swap1\n      pop\n      pop\n      pop\n      tag_21\n      jump\t// in\n    tag_19:\n      mload(0x40)\n      dup1\n      dup3\n      dup2\n      mstore\n      0x20\n      add\n      swap2\n      pop\n      pop\n      mload(0x40)\n      dup1\n      swap2\n      sub\n      swap1\n      return\n        /* \"contracts/Function_2.sol\":387:504  function subtraction() public pure returns(uint){\r... */\n    tag_8:\n      tag_22\n      tag_23\n      jump\t// in\n    tag_22:\n      mload(0x40)\n      dup1\n      dup3\n      dup2\n      mstore\n      0x20\n      add\n      swap2\n      pop\n      pop\n      mload(0x40)\n      dup1\n      swap2\n      sub\n      swap1\n      return\n        /* \"contracts/Function_2.sol\":267:379  function addition() public pure{\r... */\n    tag_9:\n      tag_24\n      tag_25\n      jump\t// in\n    tag_24:\n      stop\n        /* \"contracts/Function_2.sol\":547:633  function multiplication() public view returns(uint){\r... */\n    tag_12:\n        /* \"contracts/Function_2.sol\":593:597  uint */\n      0x00\n        /* \"contracts/Function_2.sol\":621:625  num2 */\n      sload(0x01)\n        /* \"contracts/Function_2.sol\":616:620  num1 */\n      sload(0x00)\n        /* \"contracts/Function_2.sol\":616:625  num1*num2 */\n      mul\n        /* \"contracts/Function_2.sol\":609:625  return num1*num2 */\n      swap1\n      pop\n        /* \"contracts/Function_2.sol\":547:633  function multiplication() public view returns(uint){\r... */\n      swap1\n      jump\t// out\n        /* \"contracts/Function_2.sol\":233:260  uint public randomValue=100 */\n    tag_14:\n      sload(0x03)\n      dup2\n      jump\t// out\n        /* \"contracts/Function_2.sol\":145:165  uint public value=10 */\n    tag_16:\n      sload(0x02)\n      dup2\n      jump\t// out\n        /* \"contracts/Function_2.sol\":835:899  function changeState() public {\r... */\n    tag_18:\n        /* \"contracts/Function_2.sol\":881:884  100 */\n      0x64\n        /* \"contracts/Function_2.sol\":876:880  num1 */\n      0x00\n        /* \"contracts/Function_2.sol\":876:884  num1=100 */\n      dup2\n      swap1\n      sstore\n      pop\n        /* \"contracts/Function_2.sol\":835:899  function changeState() public {\r... */\n      jump\t// out\n        /* \"contracts/Function_2.sol\":685:767  function div(uint a,uint b) public pure returns(uint){\r... */\n    tag_21:\n        /* \"contracts/Function_2.sol\":733:737  uint */\n      0x00\n        /* \"contracts/Function_2.sol\":758:759  b */\n      dup2\n        /* \"contracts/Function_2.sol\":756:757  a */\n      dup4\n        /* \"contracts/Function_2.sol\":756:759  a/b */\n      dup2\n      tag_29\n      jumpi\n      invalid\n    tag_29:\n      div\n        /* \"contracts/Function_2.sol\":749:759  return a/b */\n      swap1\n      pop\n        /* \"contracts/Function_2.sol\":685:767  function div(uint a,uint b) public pure returns(uint){\r... */\n      swap3\n      swap2\n      pop\n      pop\n      jump\t// out\n        /* \"contracts/Function_2.sol\":387:504  function subtraction() public pure returns(uint){\r... */\n    tag_23:\n        /* \"contracts/Function_2.sol\":430:434  uint */\n      0x00\n        /* \"contracts/Function_2.sol\":446:452  uint a */\n      dup1\n        /* \"contracts/Function_2.sol\":453:455  10 */\n      0x0a\n        /* \"contracts/Function_2.sol\":446:455  uint a=10 */\n      swap1\n      pop\n        /* \"contracts/Function_2.sol\":466:472  uint b */\n      0x00\n        /* \"contracts/Function_2.sol\":473:475  20 */\n      0x14\n        /* \"contracts/Function_2.sol\":466:475  uint b=20 */\n      swap1\n      pop\n        /* \"contracts/Function_2.sol\":495:496  a */\n      dup2\n        /* \"contracts/Function_2.sol\":493:494  b */\n      dup2\n        /* \"contracts/Function_2.sol\":493:496  b-a */\n      sub\n        /* \"contracts/Function_2.sol\":486:496  return b-a */\n      swap3\n      pop\n      pop\n      pop\n        /* \"contracts/Function_2.sol\":387:504  function subtraction() public pure returns(uint){\r... */\n      swap1\n      jump\t// out\n        /* \"contracts/Function_2.sol\":267:379  function addition() public pure{\r... */\n    tag_25:\n        /* \"contracts/Function_2.sol\":309:315  uint a */\n      0x00\n        /* \"contracts/Function_2.sol\":316:318  10 */\n      0x0a\n        /* \"contracts/Function_2.sol\":309:318  uint a=10 */\n      swap1\n      pop\n        /* \"contracts/Function_2.sol\":329:335  uint b */\n      0x00\n        /* \"contracts/Function_2.sol\":336:338  20 */\n      0x14\n        /* \"contracts/Function_2.sol\":329:338  uint b=20 */\n      swap1\n      pop\n        /* \"contracts/Function_2.sol\":349:355  uint c */\n      0x00\n        /* \"contracts/Function_2.sol\":370:371  b */\n      dup2\n        /* \"contracts/Function_2.sol\":368:369  a */\n      dup4\n        /* \"contracts/Function_2.sol\":368:371  a+b */\n      add\n        /* \"contracts/Function_2.sol\":366:371  c=a+b */\n      swap1\n      pop\n        /* \"contracts/Function_2.sol\":267:379  function addition() public pure{\r... */\n      pop\n      pop\n      pop\n      jump\t// out\n\n    auxdata: 0xa264697066735822122000c577eeecd97b8b209f011447482ecf3fd2e3e0dfb61f127959cf4973acf44164736f6c63430007000033\n}\n",
				"bytecode": {
					"linkReferences": {},
					"object": "6080604052600a6000556014600155600a600255606460035534801561002457600080fd5b506101f7806100346000396000f3fe608060405234801561001057600080fd5b506004361061007d5760003560e01c80638412e6671161005b5780638412e667146100dc578063a391c15b146100e6578063e3ec025114610132578063ec597128146101505761007d565b8063011285da14610082578063276801ec146100a05780633fa4f245146100be575b600080fd5b61008a61015a565b6040518082815260200191505060405180910390f35b6100a8610168565b6040518082815260200191505060405180910390f35b6100c661016e565b6040518082815260200191505060405180910390f35b6100e4610174565b005b61011c600480360360408110156100fc57600080fd5b81019080803590602001909291908035906020019092919050505061017e565b6040518082815260200191505060405180910390f35b61013a610192565b6040518082815260200191505060405180910390f35b6101586101a9565b005b600060015460005402905090565b60035481565b60025481565b6064600081905550565b600081838161018957fe5b04905092915050565b600080600a90506000601490508181039250505090565b6000600a90506000601490506000818301905050505056fea264697066735822122000c577eeecd97b8b209f011447482ecf3fd2e3e0dfb61f127959cf4973acf44164736f6c63430007000033",
					"opcodes": "PUSH1 0x80 PUSH1 0x40 MSTORE PUSH1 0xA PUSH1 0x0 SSTORE PUSH1 0x14 PUSH1 0x1 SSTORE PUSH1 0xA PUSH1 0x2 SSTORE PUSH1 0x64 PUSH1 0x3 SSTORE CALLVALUE DUP1 ISZERO PUSH2 0x24 JUMPI PUSH1 0x0 DUP1 REVERT JUMPDEST POP PUSH2 0x1F7 DUP1 PUSH2 0x34 PUSH1 0x0 CODECOPY PUSH1 0x0 RETURN INVALID PUSH1 0x80 PUSH1 0x40 MSTORE CALLVALUE DUP1 ISZERO PUSH2 0x10 JUMPI PUSH1 0x0 DUP1 REVERT JUMPDEST POP PUSH1 0x4 CALLDATASIZE LT PUSH2 0x7D JUMPI PUSH1 0x0 CALLDATALOAD PUSH1 0xE0 SHR DUP1 PUSH4 0x8412E667 GT PUSH2 0x5B JUMPI DUP1 PUSH4 0x8412E667 EQ PUSH2 0xDC JUMPI DUP1 PUSH4 0xA391C15B EQ PUSH2 0xE6 JUMPI DUP1 PUSH4 0xE3EC0251 EQ PUSH2 0x132 JUMPI DUP1 PUSH4 0xEC597128 EQ PUSH2 0x150 JUMPI PUSH2 0x7D JUMP JUMPDEST DUP1 PUSH4 0x11285DA EQ PUSH2 0x82 JUMPI DUP1 PUSH4 0x276801EC EQ PUSH2 0xA0 JUMPI DUP1 PUSH4 0x3FA4F245 EQ PUSH2 0xBE JUMPI JUMPDEST PUSH1 0x0 DUP1 REVERT JUMPDEST PUSH2 0x8A PUSH2 0x15A JUMP JUMPDEST PUSH1 0x40 MLOAD DUP1 DUP3 DUP2 MSTORE PUSH1 0x20 ADD SWAP2 POP POP PUSH1 0x40 MLOAD DUP1 SWAP2 SUB SWAP1 RETURN JUMPDEST PUSH2 0xA8 PUSH2 0x168 JUMP JUMPDEST PUSH1 0x40 MLOAD DUP1 DUP3 DUP2 MSTORE PUSH1 0x20 ADD SWAP2 POP POP PUSH1 0x40 MLOAD DUP1 SWAP2 SUB SWAP1 RETURN JUMPDEST PUSH2 0xC6 PUSH2 0x16E JUMP JUMPDEST PUSH1 0x40 MLOAD DUP1 DUP3 DUP2 MSTORE PUSH1 0x20 ADD SWAP2 POP POP PUSH1 0x40 MLOAD DUP1 SWAP2 SUB SWAP1 RETURN JUMPDEST PUSH2 0xE4 PUSH2 0x174 JUMP JUMPDEST STOP JUMPDEST PUSH2 0x11C PUSH1 0x4 DUP1 CALLDATASIZE SUB PUSH1 0x40 DUP2 LT ISZERO PUSH2 0xFC JUMPI PUSH1 0x0 DUP1 REVERT JUMPDEST DUP2 ADD SWAP1 DUP1 DUP1 CALLDATALOAD SWAP1 PUSH1 0x20 ADD SWAP1 SWAP3 SWAP2 SWAP1 DUP1 CALLDATALOAD SWAP1 PUSH1 0x20 ADD SWAP1 SWAP3 SWAP2 SWAP1 POP POP POP PUSH2 0x17E JUMP JUMPDEST PUSH1 0x40 MLOAD DUP1 DUP3 DUP2 MSTORE PUSH1 0x20 ADD SWAP2 POP POP PUSH1 0x40 MLOAD DUP1 SWAP2 SUB SWAP1 RETURN JUMPDEST PUSH2 0x13A PUSH2 0x192 JUMP JUMPDEST PUSH1 0x40 MLOAD DUP1 DUP3 DUP2 MSTORE PUSH1 0x20 ADD SWAP2 POP POP PUSH1 0x40 MLOAD DUP1 SWAP2 SUB SWAP1 RETURN JUMPDEST PUSH2 0x158 PUSH2 0x1A9 JUMP JUMPDEST STOP JUMPDEST PUSH1 0x0 PUSH1 0x1 SLOAD PUSH1 0x0 SLOAD MUL SWAP1 POP SWAP1 JUMP JUMPDEST PUSH1 0x3 SLOAD DUP2 JUMP JUMPDEST PUSH1 0x2 SLOAD DUP2 JUMP JUMPDEST PUSH1 0x64 PUSH1 0x0 DUP2 SWAP1 SSTORE POP JUMP JUMPDEST PUSH1 0x0 DUP2 DUP4 DUP2 PUSH2 0x189 JUMPI INVALID JUMPDEST DIV SWAP1 POP SWAP3 SWAP2 POP POP JUMP JUMPDEST PUSH1 0x0 DUP1 PUSH1 0xA SWAP1 POP PUSH1 0x0 PUSH1 0x14 SWAP1 POP DUP2 DUP2 SUB SWAP3 POP POP POP SWAP1 JUMP JUMPDEST PUSH1 0x0 PUSH1 0xA SWAP1 POP PUSH1 0x0 PUSH1 0x14 SWAP1 POP PUSH1 0x0 DUP2 DUP4 ADD SWAP1 POP POP POP POP JUMP INVALID LOG2 PUSH5 0x6970667358 0x22 SLT KECCAK256 STOP 0xC5 PUSH24 0xEEECD97B8B209F011447482ECF3FD2E3E0DFB61F127959CF 0x49 PUSH20 0xACF44164736F6C63430007000033000000000000 "
				},
				"gasEstimates": {
					"creation": {
						"codeDepositCost": "100600",
						"executionCost": "80171",
						"totalCost": "180771"
					},
					"external": {
						"addition()": "255",
						"changeState()": "20158",
						"div(uint256,uint256)": "376",
						"multiplication()": "1822",
						"randomValue()": "1028",
						"subtraction()": "289",
						"value()": "1050"
					}
				},
				"methodIdentifiers": {
					"addition()": "ec597128",
					"changeState()": "8412e667",
					"div(uint256,uint256)": "a391c15b",
					"multiplication()": "011285da",
					"randomValue()": "276801ec",
					"subtraction()": "e3ec0251",
					"value()": "3fa4f245"
				}
			},
			"storageLayout": {
				"storage": [
					{
						"astId": 4,
						"contract": "contracts/Function_2.sol:Function",
						"label": "num1",
						"offset": 0,
						"slot": "0",
						"type": "t_uint256"
					},
					{
						"astId": 7,
						"contract": "contracts/Function_2.sol:Function",
						"label": "num2",
						"offset": 0,
						"slot": "1",
						"type": "t_uint256"
					},
					{
						"astId": 10,
						"contract": "contracts/Function_2.sol:Function",
						"label": "value",
						"offset": 0,
						"slot": "2",
						"type": "t_uint256"
					},
					{
						"astId": 13,
						"contract": "contracts/Function_2.sol:Function",
						"label": "randomValue",
						"offset": 0,
						"slot": "3",
						"type": "t_uint256"
					}
				],
				"types": {
					"t_uint256": {
						"encoding": "inplace",
						"label": "uint256",
						"numberOfBytes": "32"
					}
				}
			},
			"userdoc": {
				"kind": "user",
				"methods": {},
				"version": 1
			}
		}
	}
}