{
	"contracts/Twitter_29.sol": {
		"Twitter": {
			"abi": [
				{
					"inputs": [
						{
							"internalType": "uint256",
							"name": "",
							"type": "uint256"
						}
					],
					"name": "Tweets",
					"outputs": [
						{
							"internalType": "uint256",
							"name": "id",
							"type": "uint256"
						},
						{
							"internalType": "address",
							"name": "author",
							"type": "address"
						},
						{
							"internalType": "string",
							"name": "content",
							"type": "string"
						},
						{
							"internalType": "uint256",
							"name": "createdAt",
							"type": "uint256"
						}
					],
					"stateMutability": "view",
					"type": "function"
				},
				{
					"inputs": [
						{
							"internalType": "address",
							"name": "",
							"type": "address"
						},
						{
							"internalType": "uint256",
							"name": "",
							"type": "uint256"
						}
					],
					"name": "TweetsOf",
					"outputs": [
						{
							"internalType": "uint256",
							"name": "",
							"type": "uint256"
						}
					],
					"stateMutability": "view",
					"type": "function"
				},
				{
					"inputs": [
						{
							"internalType": "address",
							"name": "_operator",
							"type": "address"
						}
					],
					"name": "allow",
					"outputs": [],
					"stateMutability": "nonpayable",
					"type": "function"
				},
				{
					"inputs": [
						{
							"internalType": "address",
							"name": "_operator",
							"type": "address"
						}
					],
					"name": "disallow",
					"outputs": [],
					"stateMutability": "nonpayable",
					"type": "function"
				},
				{
					"inputs": [
						{
							"internalType": "address",
							"name": "_followee",
							"type": "address"
						}
					],
					"name": "follow",
					"outputs": [],
					"stateMutability": "nonpayable",
					"type": "function"
				},
				{
					"inputs": [
						{
							"internalType": "address",
							"name": "_follower",
							"type": "address"
						},
						{
							"internalType": "address",
							"name": "_followee",
							"type": "address"
						}
					],
					"name": "follow",
					"outputs": [],
					"stateMutability": "nonpayable",
					"type": "function"
				},
				{
					"inputs": [
						{
							"internalType": "address",
							"name": "",
							"type": "address"
						},
						{
							"internalType": "uint256",
							"name": "",
							"type": "uint256"
						}
					],
					"name": "followers",
					"outputs": [
						{
							"internalType": "address",
							"name": "",
							"type": "address"
						}
					],
					"stateMutability": "view",
					"type": "function"
				},
				{
					"inputs": [
						{
							"internalType": "address",
							"name": "",
							"type": "address"
						},
						{
							"internalType": "uint256",
							"name": "",
							"type": "uint256"
						}
					],
					"name": "following",
					"outputs": [
						{
							"internalType": "address",
							"name": "",
							"type": "address"
						}
					],
					"stateMutability": "view",
					"type": "function"
				},
				{
					"inputs": [
						{
							"internalType": "uint256",
							"name": "count",
							"type": "uint256"
						}
					],
					"name": "getLatestTweets",
					"outputs": [
						{
							"components": [
								{
									"internalType": "uint256",
									"name": "id",
									"type": "uint256"
								},
								{
									"internalType": "address",
									"name": "author",
									"type": "address"
								},
								{
									"internalType": "string",
									"name": "content",
									"type": "string"
								},
								{
									"internalType": "uint256",
									"name": "createdAt",
									"type": "uint256"
								}
							],
							"internalType": "struct Twitter.Tweet[]",
							"name": "",
							"type": "tuple[]"
						}
					],
					"stateMutability": "view",
					"type": "function"
				},
				{
					"inputs": [
						{
							"internalType": "address",
							"name": "_user",
							"type": "address"
						},
						{
							"internalType": "uint256",
							"name": "count",
							"type": "uint256"
						}
					],
					"name": "getLatestTweetsOfUser",
					"outputs": [
						{
							"components": [
								{
									"internalType": "uint256",
									"name": "id",
									"type": "uint256"
								},
								{
									"internalType": "address",
									"name": "author",
									"type": "address"
								},
								{
									"internalType": "string",
									"name": "content",
									"type": "string"
								},
								{
									"internalType": "uint256",
									"name": "createdAt",
									"type": "uint256"
								}
							],
							"internalType": "struct Twitter.Tweet[]",
							"name": "",
							"type": "tuple[]"
						}
					],
					"stateMutability": "view",
					"type": "function"
				},
				{
					"inputs": [
						{
							"internalType": "address",
							"name": "",
							"type": "address"
						},
						{
							"internalType": "uint256",
							"name": "",
							"type": "uint256"
						}
					],
					"name": "messages",
					"outputs": [
						{
							"internalType": "uint256",
							"name": "id",
							"type": "uint256"
						},
						{
							"internalType": "string",
							"name": "content",
							"type": "string"
						},
						{
							"internalType": "address",
							"name": "from",
							"type": "address"
						},
						{
							"internalType": "address",
							"name": "to",
							"type": "address"
						},
						{
							"internalType": "uint256",
							"name": "createdAt",
							"type": "uint256"
						}
					],
					"stateMutability": "view",
					"type": "function"
				},
				{
					"inputs": [
						{
							"internalType": "address",
							"name": "",
							"type": "address"
						},
						{
							"internalType": "address",
							"name": "",
							"type": "address"
						}
					],
					"name": "operators",
					"outputs": [
						{
							"internalType": "bool",
							"name": "",
							"type": "bool"
						}
					],
					"stateMutability": "view",
					"type": "function"
				},
				{
					"inputs": [
						{
							"internalType": "address",
							"name": "_from",
							"type": "address"
						},
						{
							"internalType": "address",
							"name": "_to",
							"type": "address"
						},
						{
							"internalType": "string",
							"name": "_content",
							"type": "string"
						}
					],
					"name": "sendMessage",
					"outputs": [],
					"stateMutability": "nonpayable",
					"type": "function"
				},
				{
					"inputs": [
						{
							"internalType": "address",
							"name": "_to",
							"type": "address"
						},
						{
							"internalType": "string",
							"name": "_content",
							"type": "string"
						}
					],
					"name": "sendMessage",
					"outputs": [],
					"stateMutability": "nonpayable",
					"type": "function"
				},
				{
					"inputs": [
						{
							"internalType": "address",
							"name": "_from",
							"type": "address"
						},
						{
							"internalType": "string",
							"name": "_content",
							"type": "string"
						}
					],
					"name": "tweet",
					"outputs": [],
					"stateMutability": "nonpayable",
					"type": "function"
				},
				{
					"inputs": [
						{
							"internalType": "string",
							"name": "_content",
							"type": "string"
						}
					],
					"name": "tweet",
					"outputs": [],
					"stateMutability": "nonpayable",
					"type": "function"
				}
			],
			"devdoc": {
				"kind": "dev",
				"methods": {},
				"version": 1
			},
			"evm": {
				"assembly": "    /* \"contracts/Twitter_29.sol\":73:3280  contract Twitter{... */\n  mstore(0x40, 0x80)\n  callvalue\n  dup1\n  iszero\n  tag_1\n  jumpi\n  0x00\n  dup1\n  revert\ntag_1:\n  pop\n  dataSize(sub_0)\n  dup1\n  dataOffset(sub_0)\n  0x00\n  codecopy\n  0x00\n  return\nstop\n\nsub_0: assembly {\n        /* \"contracts/Twitter_29.sol\":73:3280  contract Twitter{... */\n      mstore(0x40, 0x80)\n      callvalue\n      dup1\n      iszero\n      tag_1\n      jumpi\n      0x00\n      dup1\n      revert\n    tag_1:\n      pop\n      jumpi(tag_2, lt(calldatasize, 0x04))\n      shr(0xe0, calldataload(0x00))\n      dup1\n      0xc45d9bea\n      gt\n      tag_19\n      jumpi\n      dup1\n      0xebd009d3\n      gt\n      tag_20\n      jumpi\n      dup1\n      0xebd009d3\n      eq\n      tag_15\n      jumpi\n      dup1\n      0xf7bf1c12\n      eq\n      tag_16\n      jumpi\n      dup1\n      0xfb46d4c5\n      eq\n      tag_17\n      jumpi\n      dup1\n      0xff9913e8\n      eq\n      tag_18\n      jumpi\n      jump(tag_2)\n    tag_20:\n      dup1\n      0xc45d9bea\n      eq\n      tag_11\n      jumpi\n      dup1\n      0xce336dad\n      eq\n      tag_12\n      jumpi\n      dup1\n      0xd21d1596\n      eq\n      tag_13\n      jumpi\n      dup1\n      0xde6f24bb\n      eq\n      tag_14\n      jumpi\n      jump(tag_2)\n    tag_19:\n      dup1\n      0x97443ce1\n      gt\n      tag_21\n      jumpi\n      dup1\n      0x97443ce1\n      eq\n      tag_7\n      jumpi\n      dup1\n      0x99d147c2\n      eq\n      tag_8\n      jumpi\n      dup1\n      0xa9ed9cb8\n      eq\n      tag_9\n      jumpi\n      dup1\n      0xb88e318d\n      eq\n      tag_10\n      jumpi\n      jump(tag_2)\n    tag_21:\n      dup1\n      0x2637588e\n      eq\n      tag_3\n      jumpi\n      dup1\n      0x4dbf27cc\n      eq\n      tag_4\n      jumpi\n      dup1\n      0x4dc0a687\n      eq\n      tag_5\n      jumpi\n      dup1\n      0x9139cda5\n      eq\n      tag_6\n      jumpi\n    tag_2:\n      0x00\n      dup1\n      revert\n        /* \"contracts/Twitter_29.sol\":599:656  mapping(address=>mapping(address=>bool)) public operators */\n    tag_3:\n      tag_22\n      0x04\n      dup1\n      calldatasize\n      sub\n      dup2\n      add\n      swap1\n      tag_23\n      swap2\n      swap1\n      tag_24\n      jump\t// in\n    tag_23:\n      tag_25\n      jump\t// in\n    tag_22:\n      mload(0x40)\n      tag_26\n      swap2\n      swap1\n      tag_27\n      jump\t// in\n    tag_26:\n      mload(0x40)\n      dup1\n      swap2\n      sub\n      swap1\n      return\n        /* \"contracts/Twitter_29.sol\":1665:1811  function  follow(address _followee) public{... */\n    tag_4:\n      tag_28\n      0x04\n      dup1\n      calldatasize\n      sub\n      dup2\n      add\n      swap1\n      tag_29\n      swap2\n      swap1\n      tag_30\n      jump\t// in\n    tag_29:\n      tag_31\n      jump\t// in\n    tag_28:\n      stop\n        /* \"contracts/Twitter_29.sol\":2200:2675  function getLatestTweets(uint count) public view returns (Tweet[] memory){... */\n    tag_5:\n      tag_32\n      0x04\n      dup1\n      calldatasize\n      sub\n      dup2\n      add\n      swap1\n      tag_33\n      swap2\n      swap1\n      tag_34\n      jump\t// in\n    tag_33:\n      tag_35\n      jump\t// in\n    tag_32:\n      mload(0x40)\n      tag_36\n      swap2\n      swap1\n      tag_37\n      jump\t// in\n    tag_36:\n      mload(0x40)\n      dup1\n      swap2\n      sub\n      swap1\n      return\n        /* \"contracts/Twitter_29.sol\":497:541  mapping(address=>address[]) public following */\n    tag_6:\n      tag_38\n      0x04\n      dup1\n      calldatasize\n      sub\n      dup2\n      add\n      swap1\n      tag_39\n      swap2\n      swap1\n      tag_40\n      jump\t// in\n    tag_39:\n      tag_41\n      jump\t// in\n    tag_38:\n      mload(0x40)\n      tag_42\n      swap2\n      swap1\n      tag_43\n      jump\t// in\n    tag_42:\n      mload(0x40)\n      dup1\n      swap2\n      sub\n      swap1\n      return\n        /* \"contracts/Twitter_29.sol\":359:393  mapping(uint=>Tweet) public Tweets */\n    tag_7:\n      tag_44\n      0x04\n      dup1\n      calldatasize\n      sub\n      dup2\n      add\n      swap1\n      tag_45\n      swap2\n      swap1\n      tag_34\n      jump\t// in\n    tag_45:\n      tag_46\n      jump\t// in\n    tag_44:\n      mload(0x40)\n      tag_47\n      swap5\n      swap4\n      swap3\n      swap2\n      swap1\n      tag_48\n      jump\t// in\n    tag_47:\n      mload(0x40)\n      dup1\n      swap2\n      sub\n      swap1\n      return\n        /* \"contracts/Twitter_29.sol\":1819:1981  function  follow(address _follower,address _followee) public{... */\n    tag_8:\n      tag_49\n      0x04\n      dup1\n      calldatasize\n      sub\n      dup2\n      add\n      swap1\n      tag_50\n      swap2\n      swap1\n      tag_24\n      jump\t// in\n    tag_50:\n      tag_51\n      jump\t// in\n    tag_49:\n      stop\n        /* \"contracts/Twitter_29.sol\":2093:2192  function disallow(address _operator)public{... */\n    tag_9:\n      tag_52\n      0x04\n      dup1\n      calldatasize\n      sub\n      dup2\n      add\n      swap1\n      tag_53\n      swap2\n      swap1\n      tag_30\n      jump\t// in\n    tag_53:\n      tag_54\n      jump\t// in\n    tag_52:\n      stop\n        /* \"contracts/Twitter_29.sol\":1503:1657  function sendMessage(address _from,address _to,string memory _content) public{//owner -> address access... */\n    tag_10:\n      tag_55\n      0x04\n      dup1\n      calldatasize\n      sub\n      dup2\n      add\n      swap1\n      tag_56\n      swap2\n      swap1\n      tag_57\n      jump\t// in\n    tag_56:\n      tag_58\n      jump\t// in\n    tag_55:\n      stop\n        /* \"contracts/Twitter_29.sol\":400:443  mapping(address=>message[]) public messages */\n    tag_11:\n      tag_59\n      0x04\n      dup1\n      calldatasize\n      sub\n      dup2\n      add\n      swap1\n      tag_60\n      swap2\n      swap1\n      tag_40\n      jump\t// in\n    tag_60:\n      tag_61\n      jump\t// in\n    tag_59:\n      mload(0x40)\n      tag_62\n      swap6\n      swap5\n      swap4\n      swap3\n      swap2\n      swap1\n      tag_63\n      jump\t// in\n    tag_62:\n      mload(0x40)\n      dup1\n      swap2\n      sub\n      swap1\n      return\n        /* \"contracts/Twitter_29.sol\":2683:3270  function getLatestTweetsOfUser(address _user,uint count) public view returns(Tweet[] memory){... */\n    tag_12:\n      tag_64\n      0x04\n      dup1\n      calldatasize\n      sub\n      dup2\n      add\n      swap1\n      tag_65\n      swap2\n      swap1\n      tag_40\n      jump\t// in\n    tag_65:\n      tag_66\n      jump\t// in\n    tag_64:\n      mload(0x40)\n      tag_67\n      swap2\n      swap1\n      tag_37\n      jump\t// in\n    tag_67:\n      mload(0x40)\n      dup1\n      swap2\n      sub\n      swap1\n      return\n        /* \"contracts/Twitter_29.sol\":1236:1361  function tweet(address _from,string memory _content) public{//owner -> address access... */\n    tag_13:\n      tag_68\n      0x04\n      dup1\n      calldatasize\n      sub\n      dup2\n      add\n      swap1\n      tag_69\n      swap2\n      swap1\n      tag_70\n      jump\t// in\n    tag_69:\n      tag_71\n      jump\t// in\n    tag_68:\n      stop\n        /* \"contracts/Twitter_29.sol\":1369:1495  function sendMessage(address _to,string memory _content) public{//owner... */\n    tag_14:\n      tag_72\n      0x04\n      dup1\n      calldatasize\n      sub\n      dup2\n      add\n      swap1\n      tag_73\n      swap2\n      swap1\n      tag_70\n      jump\t// in\n    tag_73:\n      tag_74\n      jump\t// in\n    tag_72:\n      stop\n        /* \"contracts/Twitter_29.sol\":548:592  mapping(address=>address[]) public followers */\n    tag_15:\n      tag_75\n      0x04\n      dup1\n      calldatasize\n      sub\n      dup2\n      add\n      swap1\n      tag_76\n      swap2\n      swap1\n      tag_40\n      jump\t// in\n    tag_76:\n      tag_77\n      jump\t// in\n    tag_75:\n      mload(0x40)\n      tag_78\n      swap2\n      swap1\n      tag_43\n      jump\t// in\n    tag_78:\n      mload(0x40)\n      dup1\n      swap2\n      sub\n      swap1\n      return\n        /* \"contracts/Twitter_29.sol\":450:490  mapping(address=>uint[]) public TweetsOf */\n    tag_16:\n      tag_79\n      0x04\n      dup1\n      calldatasize\n      sub\n      dup2\n      add\n      swap1\n      tag_80\n      swap2\n      swap1\n      tag_40\n      jump\t// in\n    tag_80:\n      tag_81\n      jump\t// in\n    tag_79:\n      mload(0x40)\n      tag_82\n      swap2\n      swap1\n      tag_83\n      jump\t// in\n    tag_82:\n      mload(0x40)\n      dup1\n      swap2\n      sub\n      swap1\n      return\n        /* \"contracts/Twitter_29.sol\":1130:1228  function tweet(string memory _content) public{//owner... */\n    tag_17:\n      tag_84\n      0x04\n      dup1\n      calldatasize\n      sub\n      dup2\n      add\n      swap1\n      tag_85\n      swap2\n      swap1\n      tag_86\n      jump\t// in\n    tag_85:\n      tag_87\n      jump\t// in\n    tag_84:\n      stop\n        /* \"contracts/Twitter_29.sol\":1989:2085  function allow(address _operator)public{... */\n    tag_18:\n      tag_88\n      0x04\n      dup1\n      calldatasize\n      sub\n      dup2\n      add\n      swap1\n      tag_89\n      swap2\n      swap1\n      tag_30\n      jump\t// in\n    tag_89:\n      tag_90\n      jump\t// in\n    tag_88:\n      stop\n        /* \"contracts/Twitter_29.sol\":599:656  mapping(address=>mapping(address=>bool)) public operators */\n    tag_25:\n      mstore(0x20, 0x05)\n      dup2\n      0x00\n      mstore\n      mstore(0x20, keccak256(0x00, 0x40))\n      dup1\n      0x00\n      mstore\n      keccak256(0x00, 0x40)\n      0x00\n      swap2\n      pop\n      swap2\n      pop\n      swap1\n      sload\n      swap1\n      0x0100\n      exp\n      swap1\n      div\n      0xff\n      and\n      dup2\n      jump\t// out\n        /* \"contracts/Twitter_29.sol\":1665:1811  function  follow(address _followee) public{... */\n    tag_31:\n        /* \"contracts/Twitter_29.sol\":1718:1727  followers */\n      0x04\n        /* \"contracts/Twitter_29.sol\":1718:1738  followers[_followee] */\n      0x00\n        /* \"contracts/Twitter_29.sol\":1728:1737  _followee */\n      dup3\n        /* \"contracts/Twitter_29.sol\":1718:1738  followers[_followee] */\n      0xffffffffffffffffffffffffffffffffffffffff\n      and\n      0xffffffffffffffffffffffffffffffffffffffff\n      and\n      dup2\n      mstore\n      0x20\n      add\n      swap1\n      dup2\n      mstore\n      0x20\n      add\n      0x00\n      keccak256\n        /* \"contracts/Twitter_29.sol\":1744:1754  msg.sender */\n      caller\n        /* \"contracts/Twitter_29.sol\":1718:1755  followers[_followee].push(msg.sender) */\n      swap1\n      dup1\n      0x01\n      dup2\n      sload\n      add\n      dup1\n      dup3\n      sstore\n      dup1\n      swap2\n      pop\n      pop\n      0x01\n      swap1\n      sub\n      swap1\n      0x00\n      mstore\n      keccak256(0x00, 0x20)\n      add\n      0x00\n      swap1\n      swap2\n      swap1\n      swap2\n      swap1\n      swap2\n      0x0100\n      exp\n      dup2\n      sload\n      dup2\n      0xffffffffffffffffffffffffffffffffffffffff\n      mul\n      not\n      and\n      swap1\n      dup4\n      0xffffffffffffffffffffffffffffffffffffffff\n      and\n      mul\n      or\n      swap1\n      sstore\n      pop\n        /* \"contracts/Twitter_29.sol\":1766:1775  following */\n      0x03\n        /* \"contracts/Twitter_29.sol\":1766:1787  following[msg.sender] */\n      0x00\n        /* \"contracts/Twitter_29.sol\":1776:1786  msg.sender */\n      caller\n        /* \"contracts/Twitter_29.sol\":1766:1787  following[msg.sender] */\n      0xffffffffffffffffffffffffffffffffffffffff\n      and\n      0xffffffffffffffffffffffffffffffffffffffff\n      and\n      dup2\n      mstore\n      0x20\n      add\n      swap1\n      dup2\n      mstore\n      0x20\n      add\n      0x00\n      keccak256\n        /* \"contracts/Twitter_29.sol\":1793:1802  _followee */\n      dup2\n        /* \"contracts/Twitter_29.sol\":1766:1803  following[msg.sender].push(_followee) */\n      swap1\n      dup1\n      0x01\n      dup2\n      sload\n      add\n      dup1\n      dup3\n      sstore\n      dup1\n      swap2\n      pop\n      pop\n      0x01\n      swap1\n      sub\n      swap1\n      0x00\n      mstore\n      keccak256(0x00, 0x20)\n      add\n      0x00\n      swap1\n      swap2\n      swap1\n      swap2\n      swap1\n      swap2\n      0x0100\n      exp\n      dup2\n      sload\n      dup2\n      0xffffffffffffffffffffffffffffffffffffffff\n      mul\n      not\n      and\n      swap1\n      dup4\n      0xffffffffffffffffffffffffffffffffffffffff\n      and\n      mul\n      or\n      swap1\n      sstore\n      pop\n        /* \"contracts/Twitter_29.sol\":1665:1811  function  follow(address _followee) public{... */\n      pop\n      jump\t// out\n        /* \"contracts/Twitter_29.sol\":2200:2675  function getLatestTweets(uint count) public view returns (Tweet[] memory){... */\n    tag_35:\n        /* \"contracts/Twitter_29.sol\":2258:2272  Tweet[] memory */\n      0x60\n        /* \"contracts/Twitter_29.sol\":2298:2299  0 */\n      0x00\n        /* \"contracts/Twitter_29.sol\":2292:2297  count */\n      dup3\n        /* \"contracts/Twitter_29.sol\":2292:2299  count>0 */\n      gt\n        /* \"contracts/Twitter_29.sol\":2292:2316  count>0 && count<=nextId */\n      dup1\n      iszero\n      tag_95\n      jumpi\n      pop\n        /* \"contracts/Twitter_29.sol\":2310:2316  nextId */\n      sload(0x06)\n        /* \"contracts/Twitter_29.sol\":2303:2308  count */\n      dup3\n        /* \"contracts/Twitter_29.sol\":2303:2316  count<=nextId */\n      gt\n      iszero\n        /* \"contracts/Twitter_29.sol\":2292:2316  count>0 && count<=nextId */\n    tag_95:\n        /* \"contracts/Twitter_29.sol\":2284:2339  require(count>0 && count<=nextId,\"Count is not proper\") */\n      tag_96\n      jumpi\n      mload(0x40)\n      0x08c379a000000000000000000000000000000000000000000000000000000000\n      dup2\n      mstore\n      0x04\n      add\n      tag_97\n      swap1\n      tag_98\n      jump\t// in\n    tag_97:\n      mload(0x40)\n      dup1\n      swap2\n      sub\n      swap1\n      revert\n    tag_96:\n        /* \"contracts/Twitter_29.sol\":2350:2372  Tweet[] memory _tweets */\n      0x00\n        /* \"contracts/Twitter_29.sol\":2385:2390  count */\n      dup3\n        /* \"contracts/Twitter_29.sol\":2373:2391  new Tweet[](count) */\n      0xffffffffffffffff\n      dup2\n      gt\n      iszero\n      tag_99\n      jumpi\n      tag_100\n      tag_101\n      jump\t// in\n    tag_100:\n    tag_99:\n      mload(0x40)\n      swap1\n      dup1\n      dup3\n      mstore\n      dup1\n      0x20\n      mul\n      0x20\n      add\n      dup3\n      add\n      0x40\n      mstore\n      dup1\n      iszero\n      tag_102\n      jumpi\n      dup2\n      0x20\n      add\n    tag_103:\n      tag_104\n      tag_105\n      jump\t// in\n    tag_104:\n      dup2\n      mstore\n      0x20\n      add\n      swap1\n      0x01\n      swap1\n      sub\n      swap1\n      dup2\n      tag_103\n      jumpi\n      swap1\n      pop\n    tag_102:\n      pop\n        /* \"contracts/Twitter_29.sol\":2350:2391  Tweet[] memory _tweets=new Tweet[](count) */\n      swap1\n      pop\n        /* \"contracts/Twitter_29.sol\":2404:2410  uint j */\n      0x00\n        /* \"contracts/Twitter_29.sol\":2427:2433  uint i */\n      dup1\n        /* \"contracts/Twitter_29.sol\":2441:2446  count */\n      dup5\n        /* \"contracts/Twitter_29.sol\":2434:2440  nextId */\n      sload(0x06)\n        /* \"contracts/Twitter_29.sol\":2434:2446  nextId-count */\n      tag_109\n      swap2\n      swap1\n      tag_110\n      jump\t// in\n    tag_109:\n        /* \"contracts/Twitter_29.sol\":2427:2446  uint i=nextId-count */\n      swap1\n      pop\n        /* \"contracts/Twitter_29.sol\":2423:2643  for(uint i=nextId-count;i<nextId;i++){... */\n    tag_106:\n        /* \"contracts/Twitter_29.sol\":2449:2455  nextId */\n      sload(0x06)\n        /* \"contracts/Twitter_29.sol\":2447:2448  i */\n      dup2\n        /* \"contracts/Twitter_29.sol\":2447:2455  i<nextId */\n      lt\n        /* \"contracts/Twitter_29.sol\":2423:2643  for(uint i=nextId-count;i<nextId;i++){... */\n      iszero\n      tag_107\n      jumpi\n        /* \"contracts/Twitter_29.sol\":2475:2499  Tweet storage _structure */\n      0x00\n        /* \"contracts/Twitter_29.sol\":2500:2506  Tweets */\n      dup1\n        /* \"contracts/Twitter_29.sol\":2500:2509  Tweets[i] */\n      0x00\n        /* \"contracts/Twitter_29.sol\":2507:2508  i */\n      dup4\n        /* \"contracts/Twitter_29.sol\":2500:2509  Tweets[i] */\n      dup2\n      mstore\n      0x20\n      add\n      swap1\n      dup2\n      mstore\n      0x20\n      add\n      0x00\n      keccak256\n        /* \"contracts/Twitter_29.sol\":2475:2509  Tweet storage _structure=Tweets[i] */\n      swap1\n      pop\n        /* \"contracts/Twitter_29.sol\":2535:2613  Tweet(_structure.id,_structure.author,_structure.content,_structure.createdAt) */\n      mload(0x40)\n      dup1\n      0x80\n      add\n      0x40\n      mstore\n      dup1\n        /* \"contracts/Twitter_29.sol\":2541:2551  _structure */\n      dup3\n        /* \"contracts/Twitter_29.sol\":2541:2554  _structure.id */\n      0x00\n      add\n      sload\n        /* \"contracts/Twitter_29.sol\":2535:2613  Tweet(_structure.id,_structure.author,_structure.content,_structure.createdAt) */\n      dup2\n      mstore\n      0x20\n      add\n        /* \"contracts/Twitter_29.sol\":2555:2565  _structure */\n      dup3\n        /* \"contracts/Twitter_29.sol\":2555:2572  _structure.author */\n      0x01\n      add\n      0x00\n      swap1\n      sload\n      swap1\n      0x0100\n      exp\n      swap1\n      div\n      0xffffffffffffffffffffffffffffffffffffffff\n      and\n        /* \"contracts/Twitter_29.sol\":2535:2613  Tweet(_structure.id,_structure.author,_structure.content,_structure.createdAt) */\n      0xffffffffffffffffffffffffffffffffffffffff\n      and\n      dup2\n      mstore\n      0x20\n      add\n        /* \"contracts/Twitter_29.sol\":2573:2583  _structure */\n      dup3\n        /* \"contracts/Twitter_29.sol\":2573:2591  _structure.content */\n      0x02\n      add\n        /* \"contracts/Twitter_29.sol\":2535:2613  Tweet(_structure.id,_structure.author,_structure.content,_structure.createdAt) */\n      dup1\n      sload\n      tag_111\n      swap1\n      tag_112\n      jump\t// in\n    tag_111:\n      dup1\n      0x1f\n      add\n      0x20\n      dup1\n      swap2\n      div\n      mul\n      0x20\n      add\n      mload(0x40)\n      swap1\n      dup2\n      add\n      0x40\n      mstore\n      dup1\n      swap3\n      swap2\n      swap1\n      dup2\n      dup2\n      mstore\n      0x20\n      add\n      dup3\n      dup1\n      sload\n      tag_113\n      swap1\n      tag_112\n      jump\t// in\n    tag_113:\n      dup1\n      iszero\n      tag_114\n      jumpi\n      dup1\n      0x1f\n      lt\n      tag_115\n      jumpi\n      0x0100\n      dup1\n      dup4\n      sload\n      div\n      mul\n      dup4\n      mstore\n      swap2\n      0x20\n      add\n      swap2\n      jump(tag_114)\n    tag_115:\n      dup3\n      add\n      swap2\n      swap1\n      0x00\n      mstore\n      keccak256(0x00, 0x20)\n      swap1\n    tag_116:\n      dup2\n      sload\n      dup2\n      mstore\n      swap1\n      0x01\n      add\n      swap1\n      0x20\n      add\n      dup1\n      dup4\n      gt\n      tag_116\n      jumpi\n      dup3\n      swap1\n      sub\n      0x1f\n      and\n      dup3\n      add\n      swap2\n    tag_114:\n      pop\n      pop\n      pop\n      pop\n      pop\n      dup2\n      mstore\n      0x20\n      add\n        /* \"contracts/Twitter_29.sol\":2592:2602  _structure */\n      dup3\n        /* \"contracts/Twitter_29.sol\":2592:2612  _structure.createdAt */\n      0x03\n      add\n      sload\n        /* \"contracts/Twitter_29.sol\":2535:2613  Tweet(_structure.id,_structure.author,_structure.content,_structure.createdAt) */\n      dup2\n      mstore\n      pop\n        /* \"contracts/Twitter_29.sol\":2524:2531  _tweets */\n      dup5\n        /* \"contracts/Twitter_29.sol\":2532:2533  j */\n      dup5\n        /* \"contracts/Twitter_29.sol\":2524:2534  _tweets[j] */\n      dup2\n      mload\n      dup2\n      lt\n      tag_117\n      jumpi\n      tag_118\n      tag_119\n      jump\t// in\n    tag_118:\n    tag_117:\n      0x20\n      mul\n      0x20\n      add\n      add\n        /* \"contracts/Twitter_29.sol\":2524:2613  _tweets[j]=Tweet(_structure.id,_structure.author,_structure.content,_structure.createdAt) */\n      dup2\n      swap1\n      mstore\n      pop\n        /* \"contracts/Twitter_29.sol\":2628:2631  j++ */\n      dup3\n      dup1\n      tag_120\n      swap1\n      tag_121\n      jump\t// in\n    tag_120:\n      swap4\n      pop\n      pop\n        /* \"contracts/Twitter_29.sol\":2460:2643  {... */\n      pop\n        /* \"contracts/Twitter_29.sol\":2456:2459  i++ */\n      dup1\n      dup1\n      0x01\n      add\n      swap2\n      pop\n      pop\n        /* \"contracts/Twitter_29.sol\":2423:2643  for(uint i=nextId-count;i<nextId;i++){... */\n      jump(tag_106)\n    tag_107:\n      pop\n        /* \"contracts/Twitter_29.sol\":2660:2667  _tweets */\n      dup2\n        /* \"contracts/Twitter_29.sol\":2653:2667  return _tweets */\n      swap3\n      pop\n      pop\n      pop\n        /* \"contracts/Twitter_29.sol\":2200:2675  function getLatestTweets(uint count) public view returns (Tweet[] memory){... */\n      swap2\n      swap1\n      pop\n      jump\t// out\n        /* \"contracts/Twitter_29.sol\":497:541  mapping(address=>address[]) public following */\n    tag_41:\n      mstore(0x20, 0x03)\n      dup2\n      0x00\n      mstore\n      keccak256(0x00, 0x40)\n      dup2\n      dup2\n      sload\n      dup2\n      lt\n      tag_122\n      jumpi\n      0x00\n      dup1\n      revert\n    tag_122:\n      swap1\n      0x00\n      mstore\n      keccak256(0x00, 0x20)\n      add\n      0x00\n      swap2\n      pop\n      swap2\n      pop\n      swap1\n      sload\n      swap1\n      0x0100\n      exp\n      swap1\n      div\n      0xffffffffffffffffffffffffffffffffffffffff\n      and\n      dup2\n      jump\t// out\n        /* \"contracts/Twitter_29.sol\":359:393  mapping(uint=>Tweet) public Tweets */\n    tag_46:\n      mstore(0x20, 0x00)\n      dup1\n      0x00\n      mstore\n      keccak256(0x00, 0x40)\n      0x00\n      swap2\n      pop\n      swap1\n      pop\n      dup1\n      0x00\n      add\n      sload\n      swap1\n      dup1\n      0x01\n      add\n      0x00\n      swap1\n      sload\n      swap1\n      0x0100\n      exp\n      swap1\n      div\n      0xffffffffffffffffffffffffffffffffffffffff\n      and\n      swap1\n      dup1\n      0x02\n      add\n      dup1\n      sload\n      tag_124\n      swap1\n      tag_112\n      jump\t// in\n    tag_124:\n      dup1\n      0x1f\n      add\n      0x20\n      dup1\n      swap2\n      div\n      mul\n      0x20\n      add\n      mload(0x40)\n      swap1\n      dup2\n      add\n      0x40\n      mstore\n      dup1\n      swap3\n      swap2\n      swap1\n      dup2\n      dup2\n      mstore\n      0x20\n      add\n      dup3\n      dup1\n      sload\n      tag_125\n      swap1\n      tag_112\n      jump\t// in\n    tag_125:\n      dup1\n      iszero\n      tag_126\n      jumpi\n      dup1\n      0x1f\n      lt\n      tag_127\n      jumpi\n      0x0100\n      dup1\n      dup4\n      sload\n      div\n      mul\n      dup4\n      mstore\n      swap2\n      0x20\n      add\n      swap2\n      jump(tag_126)\n    tag_127:\n      dup3\n      add\n      swap2\n      swap1\n      0x00\n      mstore\n      keccak256(0x00, 0x20)\n      swap1\n    tag_128:\n      dup2\n      sload\n      dup2\n      mstore\n      swap1\n      0x01\n      add\n      swap1\n      0x20\n      add\n      dup1\n      dup4\n      gt\n      tag_128\n      jumpi\n      dup3\n      swap1\n      sub\n      0x1f\n      and\n      dup3\n      add\n      swap2\n    tag_126:\n      pop\n      pop\n      pop\n      pop\n      pop\n      swap1\n      dup1\n      0x03\n      add\n      sload\n      swap1\n      pop\n      dup5\n      jump\t// out\n        /* \"contracts/Twitter_29.sol\":1819:1981  function  follow(address _follower,address _followee) public{... */\n    tag_51:\n        /* \"contracts/Twitter_29.sol\":1890:1899  followers */\n      0x04\n        /* \"contracts/Twitter_29.sol\":1890:1910  followers[_followee] */\n      0x00\n        /* \"contracts/Twitter_29.sol\":1900:1909  _followee */\n      dup3\n        /* \"contracts/Twitter_29.sol\":1890:1910  followers[_followee] */\n      0xffffffffffffffffffffffffffffffffffffffff\n      and\n      0xffffffffffffffffffffffffffffffffffffffff\n      and\n      dup2\n      mstore\n      0x20\n      add\n      swap1\n      dup2\n      mstore\n      0x20\n      add\n      0x00\n      keccak256\n        /* \"contracts/Twitter_29.sol\":1916:1925  _follower */\n      dup3\n        /* \"contracts/Twitter_29.sol\":1890:1926  followers[_followee].push(_follower) */\n      swap1\n      dup1\n      0x01\n      dup2\n      sload\n      add\n      dup1\n      dup3\n      sstore\n      dup1\n      swap2\n      pop\n      pop\n      0x01\n      swap1\n      sub\n      swap1\n      0x00\n      mstore\n      keccak256(0x00, 0x20)\n      add\n      0x00\n      swap1\n      swap2\n      swap1\n      swap2\n      swap1\n      swap2\n      0x0100\n      exp\n      dup2\n      sload\n      dup2\n      0xffffffffffffffffffffffffffffffffffffffff\n      mul\n      not\n      and\n      swap1\n      dup4\n      0xffffffffffffffffffffffffffffffffffffffff\n      and\n      mul\n      or\n      swap1\n      sstore\n      pop\n        /* \"contracts/Twitter_29.sol\":1937:1946  following */\n      0x03\n        /* \"contracts/Twitter_29.sol\":1937:1957  following[_follower] */\n      0x00\n        /* \"contracts/Twitter_29.sol\":1947:1956  _follower */\n      dup4\n        /* \"contracts/Twitter_29.sol\":1937:1957  following[_follower] */\n      0xffffffffffffffffffffffffffffffffffffffff\n      and\n      0xffffffffffffffffffffffffffffffffffffffff\n      and\n      dup2\n      mstore\n      0x20\n      add\n      swap1\n      dup2\n      mstore\n      0x20\n      add\n      0x00\n      keccak256\n        /* \"contracts/Twitter_29.sol\":1963:1972  _followee */\n      dup2\n        /* \"contracts/Twitter_29.sol\":1937:1973  following[_follower].push(_followee) */\n      swap1\n      dup1\n      0x01\n      dup2\n      sload\n      add\n      dup1\n      dup3\n      sstore\n      dup1\n      swap2\n      pop\n      pop\n      0x01\n      swap1\n      sub\n      swap1\n      0x00\n      mstore\n      keccak256(0x00, 0x20)\n      add\n      0x00\n      swap1\n      swap2\n      swap1\n      swap2\n      swap1\n      swap2\n      0x0100\n      exp\n      dup2\n      sload\n      dup2\n      0xffffffffffffffffffffffffffffffffffffffff\n      mul\n      not\n      and\n      swap1\n      dup4\n      0xffffffffffffffffffffffffffffffffffffffff\n      and\n      mul\n      or\n      swap1\n      sstore\n      pop\n        /* \"contracts/Twitter_29.sol\":1819:1981  function  follow(address _follower,address _followee) public{... */\n      pop\n      pop\n      jump\t// out\n        /* \"contracts/Twitter_29.sol\":2093:2192  function disallow(address _operator)public{... */\n    tag_54:\n        /* \"contracts/Twitter_29.sol\":2179:2184  false */\n      0x00\n        /* \"contracts/Twitter_29.sol\":2146:2155  operators */\n      0x05\n        /* \"contracts/Twitter_29.sol\":2146:2167  operators[msg.sender] */\n      0x00\n        /* \"contracts/Twitter_29.sol\":2156:2166  msg.sender */\n      caller\n        /* \"contracts/Twitter_29.sol\":2146:2167  operators[msg.sender] */\n      0xffffffffffffffffffffffffffffffffffffffff\n      and\n      0xffffffffffffffffffffffffffffffffffffffff\n      and\n      dup2\n      mstore\n      0x20\n      add\n      swap1\n      dup2\n      mstore\n      0x20\n      add\n      0x00\n      keccak256\n        /* \"contracts/Twitter_29.sol\":2146:2178  operators[msg.sender][_operator] */\n      0x00\n        /* \"contracts/Twitter_29.sol\":2168:2177  _operator */\n      dup4\n        /* \"contracts/Twitter_29.sol\":2146:2178  operators[msg.sender][_operator] */\n      0xffffffffffffffffffffffffffffffffffffffff\n      and\n      0xffffffffffffffffffffffffffffffffffffffff\n      and\n      dup2\n      mstore\n      0x20\n      add\n      swap1\n      dup2\n      mstore\n      0x20\n      add\n      0x00\n      keccak256\n      0x00\n        /* \"contracts/Twitter_29.sol\":2146:2184  operators[msg.sender][_operator]=false */\n      0x0100\n      exp\n      dup2\n      sload\n      dup2\n      0xff\n      mul\n      not\n      and\n      swap1\n      dup4\n      iszero\n      iszero\n      mul\n      or\n      swap1\n      sstore\n      pop\n        /* \"contracts/Twitter_29.sol\":2093:2192  function disallow(address _operator)public{... */\n      pop\n      jump\t// out\n        /* \"contracts/Twitter_29.sol\":1503:1657  function sendMessage(address _from,address _to,string memory _content) public{//owner -> address access... */\n    tag_58:\n        /* \"contracts/Twitter_29.sol\":1615:1649  _sendMessage(_from, _to, _content) */\n      tag_134\n        /* \"contracts/Twitter_29.sol\":1628:1633  _from */\n      dup4\n        /* \"contracts/Twitter_29.sol\":1635:1638  _to */\n      dup4\n        /* \"contracts/Twitter_29.sol\":1640:1648  _content */\n      dup4\n        /* \"contracts/Twitter_29.sol\":1615:1627  _sendMessage */\n      tag_135\n        /* \"contracts/Twitter_29.sol\":1615:1649  _sendMessage(_from, _to, _content) */\n      jump\t// in\n    tag_134:\n        /* \"contracts/Twitter_29.sol\":1503:1657  function sendMessage(address _from,address _to,string memory _content) public{//owner -> address access... */\n      pop\n      pop\n      pop\n      jump\t// out\n        /* \"contracts/Twitter_29.sol\":400:443  mapping(address=>message[]) public messages */\n    tag_61:\n      mstore(0x20, 0x01)\n      dup2\n      0x00\n      mstore\n      keccak256(0x00, 0x40)\n      dup2\n      dup2\n      sload\n      dup2\n      lt\n      tag_136\n      jumpi\n      0x00\n      dup1\n      revert\n    tag_136:\n      swap1\n      0x00\n      mstore\n      keccak256(0x00, 0x20)\n      swap1\n      0x05\n      mul\n      add\n      0x00\n      swap2\n      pop\n      swap2\n      pop\n      pop\n      dup1\n      0x00\n      add\n      sload\n      swap1\n      dup1\n      0x01\n      add\n      dup1\n      sload\n      tag_138\n      swap1\n      tag_112\n      jump\t// in\n    tag_138:\n      dup1\n      0x1f\n      add\n      0x20\n      dup1\n      swap2\n      div\n      mul\n      0x20\n      add\n      mload(0x40)\n      swap1\n      dup2\n      add\n      0x40\n      mstore\n      dup1\n      swap3\n      swap2\n      swap1\n      dup2\n      dup2\n      mstore\n      0x20\n      add\n      dup3\n      dup1\n      sload\n      tag_139\n      swap1\n      tag_112\n      jump\t// in\n    tag_139:\n      dup1\n      iszero\n      tag_140\n      jumpi\n      dup1\n      0x1f\n      lt\n      tag_141\n      jumpi\n      0x0100\n      dup1\n      dup4\n      sload\n      div\n      mul\n      dup4\n      mstore\n      swap2\n      0x20\n      add\n      swap2\n      jump(tag_140)\n    tag_141:\n      dup3\n      add\n      swap2\n      swap1\n      0x00\n      mstore\n      keccak256(0x00, 0x20)\n      swap1\n    tag_142:\n      dup2\n      sload\n      dup2\n      mstore\n      swap1\n      0x01\n      add\n      swap1\n      0x20\n      add\n      dup1\n      dup4\n      gt\n      tag_142\n      jumpi\n      dup3\n      swap1\n      sub\n      0x1f\n      and\n      dup3\n      add\n      swap2\n    tag_140:\n      pop\n      pop\n      pop\n      pop\n      pop\n      swap1\n      dup1\n      0x02\n      add\n      0x00\n      swap1\n      sload\n      swap1\n      0x0100\n      exp\n      swap1\n      div\n      0xffffffffffffffffffffffffffffffffffffffff\n      and\n      swap1\n      dup1\n      0x03\n      add\n      0x00\n      swap1\n      sload\n      swap1\n      0x0100\n      exp\n      swap1\n      div\n      0xffffffffffffffffffffffffffffffffffffffff\n      and\n      swap1\n      dup1\n      0x04\n      add\n      sload\n      swap1\n      pop\n      dup6\n      jump\t// out\n        /* \"contracts/Twitter_29.sol\":2683:3270  function getLatestTweetsOfUser(address _user,uint count) public view returns(Tweet[] memory){... */\n    tag_66:\n        /* \"contracts/Twitter_29.sol\":2760:2774  Tweet[] memory */\n      0x60\n        /* \"contracts/Twitter_29.sol\":2800:2801  0 */\n      0x00\n        /* \"contracts/Twitter_29.sol\":2794:2799  count */\n      dup3\n        /* \"contracts/Twitter_29.sol\":2794:2801  count>0 */\n      gt\n        /* \"contracts/Twitter_29.sol\":2794:2835  count>0 && count<= TweetsOf[_user].length */\n      dup1\n      iszero\n      tag_144\n      jumpi\n      pop\n        /* \"contracts/Twitter_29.sol\":2813:2821  TweetsOf */\n      0x02\n        /* \"contracts/Twitter_29.sol\":2813:2828  TweetsOf[_user] */\n      0x00\n        /* \"contracts/Twitter_29.sol\":2822:2827  _user */\n      dup5\n        /* \"contracts/Twitter_29.sol\":2813:2828  TweetsOf[_user] */\n      0xffffffffffffffffffffffffffffffffffffffff\n      and\n      0xffffffffffffffffffffffffffffffffffffffff\n      and\n      dup2\n      mstore\n      0x20\n      add\n      swap1\n      dup2\n      mstore\n      0x20\n      add\n      0x00\n      keccak256\n        /* \"contracts/Twitter_29.sol\":2813:2835  TweetsOf[_user].length */\n      dup1\n      sload\n      swap1\n      pop\n        /* \"contracts/Twitter_29.sol\":2805:2810  count */\n      dup3\n        /* \"contracts/Twitter_29.sol\":2805:2835  count<= TweetsOf[_user].length */\n      gt\n      iszero\n        /* \"contracts/Twitter_29.sol\":2794:2835  count>0 && count<= TweetsOf[_user].length */\n    tag_144:\n        /* \"contracts/Twitter_29.sol\":2786:2858  require(count>0 && count<= TweetsOf[_user].length,\"Count is not proper\") */\n      tag_145\n      jumpi\n      mload(0x40)\n      0x08c379a000000000000000000000000000000000000000000000000000000000\n      dup2\n      mstore\n      0x04\n      add\n      tag_146\n      swap1\n      tag_98\n      jump\t// in\n    tag_146:\n      mload(0x40)\n      dup1\n      swap2\n      sub\n      swap1\n      revert\n    tag_145:\n        /* \"contracts/Twitter_29.sol\":2869:2891  Tweet[] memory _tweets */\n      0x00\n        /* \"contracts/Twitter_29.sol\":2904:2909  count */\n      dup3\n        /* \"contracts/Twitter_29.sol\":2892:2910  new Tweet[](count) */\n      0xffffffffffffffff\n      dup2\n      gt\n      iszero\n      tag_147\n      jumpi\n      tag_148\n      tag_101\n      jump\t// in\n    tag_148:\n    tag_147:\n      mload(0x40)\n      swap1\n      dup1\n      dup3\n      mstore\n      dup1\n      0x20\n      mul\n      0x20\n      add\n      dup3\n      add\n      0x40\n      mstore\n      dup1\n      iszero\n      tag_149\n      jumpi\n      dup2\n      0x20\n      add\n    tag_150:\n      tag_151\n      tag_105\n      jump\t// in\n    tag_151:\n      dup2\n      mstore\n      0x20\n      add\n      swap1\n      0x01\n      swap1\n      sub\n      swap1\n      dup2\n      tag_150\n      jumpi\n      swap1\n      pop\n    tag_149:\n      pop\n        /* \"contracts/Twitter_29.sol\":2869:2910  Tweet[] memory _tweets=new Tweet[](count) */\n      swap1\n      pop\n        /* \"contracts/Twitter_29.sol\":2924:2930  uint j */\n      0x00\n        /* \"contracts/Twitter_29.sol\":2947:2953  uint i */\n      dup1\n        /* \"contracts/Twitter_29.sol\":2977:2982  count */\n      dup5\n        /* \"contracts/Twitter_29.sol\":2954:2962  TweetsOf */\n      0x02\n        /* \"contracts/Twitter_29.sol\":2954:2969  TweetsOf[_user] */\n      0x00\n        /* \"contracts/Twitter_29.sol\":2963:2968  _user */\n      dup9\n        /* \"contracts/Twitter_29.sol\":2954:2969  TweetsOf[_user] */\n      0xffffffffffffffffffffffffffffffffffffffff\n      and\n      0xffffffffffffffffffffffffffffffffffffffff\n      and\n      dup2\n      mstore\n      0x20\n      add\n      swap1\n      dup2\n      mstore\n      0x20\n      add\n      0x00\n      keccak256\n        /* \"contracts/Twitter_29.sol\":2954:2976  TweetsOf[_user].length */\n      dup1\n      sload\n      swap1\n      pop\n        /* \"contracts/Twitter_29.sol\":2954:2982  TweetsOf[_user].length-count */\n      tag_155\n      swap2\n      swap1\n      tag_110\n      jump\t// in\n    tag_155:\n        /* \"contracts/Twitter_29.sol\":2947:2982  uint i=TweetsOf[_user].length-count */\n      swap1\n      pop\n        /* \"contracts/Twitter_29.sol\":2943:3236  for(uint i=TweetsOf[_user].length-count;i<TweetsOf[_user].length;i++){... */\n    tag_152:\n        /* \"contracts/Twitter_29.sol\":2985:2993  TweetsOf */\n      0x02\n        /* \"contracts/Twitter_29.sol\":2985:3000  TweetsOf[_user] */\n      0x00\n        /* \"contracts/Twitter_29.sol\":2994:2999  _user */\n      dup8\n        /* \"contracts/Twitter_29.sol\":2985:3000  TweetsOf[_user] */\n      0xffffffffffffffffffffffffffffffffffffffff\n      and\n      0xffffffffffffffffffffffffffffffffffffffff\n      and\n      dup2\n      mstore\n      0x20\n      add\n      swap1\n      dup2\n      mstore\n      0x20\n      add\n      0x00\n      keccak256\n        /* \"contracts/Twitter_29.sol\":2985:3007  TweetsOf[_user].length */\n      dup1\n      sload\n      swap1\n      pop\n        /* \"contracts/Twitter_29.sol\":2983:2984  i */\n      dup2\n        /* \"contracts/Twitter_29.sol\":2983:3007  i<TweetsOf[_user].length */\n      lt\n        /* \"contracts/Twitter_29.sol\":2943:3236  for(uint i=TweetsOf[_user].length-count;i<TweetsOf[_user].length;i++){... */\n      iszero\n      tag_153\n      jumpi\n        /* \"contracts/Twitter_29.sol\":3029:3041  uint tweetId */\n      0x00\n        /* \"contracts/Twitter_29.sol\":3042:3050  TweetsOf */\n      0x02\n        /* \"contracts/Twitter_29.sol\":3042:3057  TweetsOf[_user] */\n      0x00\n        /* \"contracts/Twitter_29.sol\":3051:3056  _user */\n      dup9\n        /* \"contracts/Twitter_29.sol\":3042:3057  TweetsOf[_user] */\n      0xffffffffffffffffffffffffffffffffffffffff\n      and\n      0xffffffffffffffffffffffffffffffffffffffff\n      and\n      dup2\n      mstore\n      0x20\n      add\n      swap1\n      dup2\n      mstore\n      0x20\n      add\n      0x00\n      keccak256\n        /* \"contracts/Twitter_29.sol\":3058:3059  i */\n      dup3\n        /* \"contracts/Twitter_29.sol\":3042:3060  TweetsOf[_user][i] */\n      dup2\n      sload\n      dup2\n      lt\n      tag_156\n      jumpi\n      tag_157\n      tag_119\n      jump\t// in\n    tag_157:\n    tag_156:\n      swap1\n      0x00\n      mstore\n      keccak256(0x00, 0x20)\n      add\n      sload\n        /* \"contracts/Twitter_29.sol\":3029:3060  uint tweetId=TweetsOf[_user][i] */\n      swap1\n      pop\n        /* \"contracts/Twitter_29.sol\":3077:3101  Tweet storage _structure */\n      0x00\n        /* \"contracts/Twitter_29.sol\":3102:3108  Tweets */\n      dup1\n        /* \"contracts/Twitter_29.sol\":3102:3117  Tweets[tweetId] */\n      0x00\n        /* \"contracts/Twitter_29.sol\":3109:3116  tweetId */\n      dup4\n        /* \"contracts/Twitter_29.sol\":3102:3117  Tweets[tweetId] */\n      dup2\n      mstore\n      0x20\n      add\n      swap1\n      dup2\n      mstore\n      0x20\n      add\n      0x00\n      keccak256\n        /* \"contracts/Twitter_29.sol\":3077:3117  Tweet storage _structure=Tweets[tweetId] */\n      swap1\n      pop\n        /* \"contracts/Twitter_29.sol\":3146:3224  Tweet(_structure.id,_structure.author,_structure.content,_structure.createdAt) */\n      mload(0x40)\n      dup1\n      0x80\n      add\n      0x40\n      mstore\n      dup1\n        /* \"contracts/Twitter_29.sol\":3152:3162  _structure */\n      dup3\n        /* \"contracts/Twitter_29.sol\":3152:3165  _structure.id */\n      0x00\n      add\n      sload\n        /* \"contracts/Twitter_29.sol\":3146:3224  Tweet(_structure.id,_structure.author,_structure.content,_structure.createdAt) */\n      dup2\n      mstore\n      0x20\n      add\n        /* \"contracts/Twitter_29.sol\":3166:3176  _structure */\n      dup3\n        /* \"contracts/Twitter_29.sol\":3166:3183  _structure.author */\n      0x01\n      add\n      0x00\n      swap1\n      sload\n      swap1\n      0x0100\n      exp\n      swap1\n      div\n      0xffffffffffffffffffffffffffffffffffffffff\n      and\n        /* \"contracts/Twitter_29.sol\":3146:3224  Tweet(_structure.id,_structure.author,_structure.content,_structure.createdAt) */\n      0xffffffffffffffffffffffffffffffffffffffff\n      and\n      dup2\n      mstore\n      0x20\n      add\n        /* \"contracts/Twitter_29.sol\":3184:3194  _structure */\n      dup3\n        /* \"contracts/Twitter_29.sol\":3184:3202  _structure.content */\n      0x02\n      add\n        /* \"contracts/Twitter_29.sol\":3146:3224  Tweet(_structure.id,_structure.author,_structure.content,_structure.createdAt) */\n      dup1\n      sload\n      tag_159\n      swap1\n      tag_112\n      jump\t// in\n    tag_159:\n      dup1\n      0x1f\n      add\n      0x20\n      dup1\n      swap2\n      div\n      mul\n      0x20\n      add\n      mload(0x40)\n      swap1\n      dup2\n      add\n      0x40\n      mstore\n      dup1\n      swap3\n      swap2\n      swap1\n      dup2\n      dup2\n      mstore\n      0x20\n      add\n      dup3\n      dup1\n      sload\n      tag_160\n      swap1\n      tag_112\n      jump\t// in\n    tag_160:\n      dup1\n      iszero\n      tag_161\n      jumpi\n      dup1\n      0x1f\n      lt\n      tag_162\n      jumpi\n      0x0100\n      dup1\n      dup4\n      sload\n      div\n      mul\n      dup4\n      mstore\n      swap2\n      0x20\n      add\n      swap2\n      jump(tag_161)\n    tag_162:\n      dup3\n      add\n      swap2\n      swap1\n      0x00\n      mstore\n      keccak256(0x00, 0x20)\n      swap1\n    tag_163:\n      dup2\n      sload\n      dup2\n      mstore\n      swap1\n      0x01\n      add\n      swap1\n      0x20\n      add\n      dup1\n      dup4\n      gt\n      tag_163\n      jumpi\n      dup3\n      swap1\n      sub\n      0x1f\n      and\n      dup3\n      add\n      swap2\n    tag_161:\n      pop\n      pop\n      pop\n      pop\n      pop\n      dup2\n      mstore\n      0x20\n      add\n        /* \"contracts/Twitter_29.sol\":3203:3213  _structure */\n      dup3\n        /* \"contracts/Twitter_29.sol\":3203:3223  _structure.createdAt */\n      0x03\n      add\n      sload\n        /* \"contracts/Twitter_29.sol\":3146:3224  Tweet(_structure.id,_structure.author,_structure.content,_structure.createdAt) */\n      dup2\n      mstore\n      pop\n        /* \"contracts/Twitter_29.sol\":3133:3140  _tweets */\n      dup6\n        /* \"contracts/Twitter_29.sol\":3141:3144  j++ */\n      dup6\n      dup1\n      tag_164\n      swap1\n      tag_121\n      jump\t// in\n    tag_164:\n      swap7\n      pop\n        /* \"contracts/Twitter_29.sol\":3133:3145  _tweets[j++] */\n      dup2\n      mload\n      dup2\n      lt\n      tag_165\n      jumpi\n      tag_166\n      tag_119\n      jump\t// in\n    tag_166:\n    tag_165:\n      0x20\n      mul\n      0x20\n      add\n      add\n        /* \"contracts/Twitter_29.sol\":3133:3224  _tweets[j++]=Tweet(_structure.id,_structure.author,_structure.content,_structure.createdAt) */\n      dup2\n      swap1\n      mstore\n      pop\n        /* \"contracts/Twitter_29.sol\":3012:3236  {... */\n      pop\n      pop\n        /* \"contracts/Twitter_29.sol\":3008:3011  i++ */\n      dup1\n      dup1\n      0x01\n      add\n      swap2\n      pop\n      pop\n        /* \"contracts/Twitter_29.sol\":2943:3236  for(uint i=TweetsOf[_user].length-count;i<TweetsOf[_user].length;i++){... */\n      jump(tag_152)\n    tag_153:\n      pop\n        /* \"contracts/Twitter_29.sol\":3255:3262  _tweets */\n      dup2\n        /* \"contracts/Twitter_29.sol\":3248:3262  return _tweets */\n      swap3\n      pop\n      pop\n      pop\n        /* \"contracts/Twitter_29.sol\":2683:3270  function getLatestTweetsOfUser(address _user,uint count) public view returns(Tweet[] memory){... */\n      swap3\n      swap2\n      pop\n      pop\n      jump\t// out\n        /* \"contracts/Twitter_29.sol\":1236:1361  function tweet(address _from,string memory _content) public{//owner -> address access... */\n    tag_71:\n        /* \"contracts/Twitter_29.sol\":1331:1353  _tweet(_from,_content) */\n      tag_168\n        /* \"contracts/Twitter_29.sol\":1338:1343  _from */\n      dup3\n        /* \"contracts/Twitter_29.sol\":1344:1352  _content */\n      dup3\n        /* \"contracts/Twitter_29.sol\":1331:1337  _tweet */\n      tag_169\n        /* \"contracts/Twitter_29.sol\":1331:1353  _tweet(_from,_content) */\n      jump\t// in\n    tag_168:\n        /* \"contracts/Twitter_29.sol\":1236:1361  function tweet(address _from,string memory _content) public{//owner -> address access... */\n      pop\n      pop\n      jump\t// out\n        /* \"contracts/Twitter_29.sol\":1369:1495  function sendMessage(address _to,string memory _content) public{//owner... */\n    tag_74:\n        /* \"contracts/Twitter_29.sol\":1450:1487  _sendMessage(msg.sender,_to,_content) */\n      tag_171\n        /* \"contracts/Twitter_29.sol\":1463:1473  msg.sender */\n      caller\n        /* \"contracts/Twitter_29.sol\":1474:1477  _to */\n      dup4\n        /* \"contracts/Twitter_29.sol\":1478:1486  _content */\n      dup4\n        /* \"contracts/Twitter_29.sol\":1450:1462  _sendMessage */\n      tag_135\n        /* \"contracts/Twitter_29.sol\":1450:1487  _sendMessage(msg.sender,_to,_content) */\n      jump\t// in\n    tag_171:\n        /* \"contracts/Twitter_29.sol\":1369:1495  function sendMessage(address _to,string memory _content) public{//owner... */\n      pop\n      pop\n      jump\t// out\n        /* \"contracts/Twitter_29.sol\":548:592  mapping(address=>address[]) public followers */\n    tag_77:\n      mstore(0x20, 0x04)\n      dup2\n      0x00\n      mstore\n      keccak256(0x00, 0x40)\n      dup2\n      dup2\n      sload\n      dup2\n      lt\n      tag_172\n      jumpi\n      0x00\n      dup1\n      revert\n    tag_172:\n      swap1\n      0x00\n      mstore\n      keccak256(0x00, 0x20)\n      add\n      0x00\n      swap2\n      pop\n      swap2\n      pop\n      swap1\n      sload\n      swap1\n      0x0100\n      exp\n      swap1\n      div\n      0xffffffffffffffffffffffffffffffffffffffff\n      and\n      dup2\n      jump\t// out\n        /* \"contracts/Twitter_29.sol\":450:490  mapping(address=>uint[]) public TweetsOf */\n    tag_81:\n      mstore(0x20, 0x02)\n      dup2\n      0x00\n      mstore\n      keccak256(0x00, 0x40)\n      dup2\n      dup2\n      sload\n      dup2\n      lt\n      tag_174\n      jumpi\n      0x00\n      dup1\n      revert\n    tag_174:\n      swap1\n      0x00\n      mstore\n      keccak256(0x00, 0x20)\n      add\n      0x00\n      swap2\n      pop\n      swap2\n      pop\n      pop\n      sload\n      dup2\n      jump\t// out\n        /* \"contracts/Twitter_29.sol\":1130:1228  function tweet(string memory _content) public{//owner... */\n    tag_87:\n        /* \"contracts/Twitter_29.sol\":1193:1220  _tweet(msg.sender,_content) */\n      tag_177\n        /* \"contracts/Twitter_29.sol\":1200:1210  msg.sender */\n      caller\n        /* \"contracts/Twitter_29.sol\":1211:1219  _content */\n      dup3\n        /* \"contracts/Twitter_29.sol\":1193:1199  _tweet */\n      tag_169\n        /* \"contracts/Twitter_29.sol\":1193:1220  _tweet(msg.sender,_content) */\n      jump\t// in\n    tag_177:\n        /* \"contracts/Twitter_29.sol\":1130:1228  function tweet(string memory _content) public{//owner... */\n      pop\n      jump\t// out\n        /* \"contracts/Twitter_29.sol\":1989:2085  function allow(address _operator)public{... */\n    tag_90:\n        /* \"contracts/Twitter_29.sol\":2073:2077  true */\n      0x01\n        /* \"contracts/Twitter_29.sol\":2040:2049  operators */\n      0x05\n        /* \"contracts/Twitter_29.sol\":2040:2061  operators[msg.sender] */\n      0x00\n        /* \"contracts/Twitter_29.sol\":2050:2060  msg.sender */\n      caller\n        /* \"contracts/Twitter_29.sol\":2040:2061  operators[msg.sender] */\n      0xffffffffffffffffffffffffffffffffffffffff\n      and\n      0xffffffffffffffffffffffffffffffffffffffff\n      and\n      dup2\n      mstore\n      0x20\n      add\n      swap1\n      dup2\n      mstore\n      0x20\n      add\n      0x00\n      keccak256\n        /* \"contracts/Twitter_29.sol\":2040:2072  operators[msg.sender][_operator] */\n      0x00\n        /* \"contracts/Twitter_29.sol\":2062:2071  _operator */\n      dup4\n        /* \"contracts/Twitter_29.sol\":2040:2072  operators[msg.sender][_operator] */\n      0xffffffffffffffffffffffffffffffffffffffff\n      and\n      0xffffffffffffffffffffffffffffffffffffffff\n      and\n      dup2\n      mstore\n      0x20\n      add\n      swap1\n      dup2\n      mstore\n      0x20\n      add\n      0x00\n      keccak256\n      0x00\n        /* \"contracts/Twitter_29.sol\":2040:2077  operators[msg.sender][_operator]=true */\n      0x0100\n      exp\n      dup2\n      sload\n      dup2\n      0xff\n      mul\n      not\n      and\n      swap1\n      dup4\n      iszero\n      iszero\n      mul\n      or\n      swap1\n      sstore\n      pop\n        /* \"contracts/Twitter_29.sol\":1989:2085  function allow(address _operator)public{... */\n      pop\n      jump\t// out\n        /* \"contracts/Twitter_29.sol\":918:1122  function _sendMessage(address _from,address _to,string memory _content) internal{... */\n    tag_135:\n        /* \"contracts/Twitter_29.sol\":1009:1017  messages */\n      0x01\n        /* \"contracts/Twitter_29.sol\":1009:1024  messages[_from] */\n      0x00\n        /* \"contracts/Twitter_29.sol\":1018:1023  _from */\n      dup5\n        /* \"contracts/Twitter_29.sol\":1009:1024  messages[_from] */\n      0xffffffffffffffffffffffffffffffffffffffff\n      and\n      0xffffffffffffffffffffffffffffffffffffffff\n      and\n      dup2\n      mstore\n      0x20\n      add\n      swap1\n      dup2\n      mstore\n      0x20\n      add\n      0x00\n      keccak256\n        /* \"contracts/Twitter_29.sol\":1030:1087  message(nextMessageId,_content,_from,_to,block.timestamp) */\n      mload(0x40)\n      dup1\n      0xa0\n      add\n      0x40\n      mstore\n      dup1\n        /* \"contracts/Twitter_29.sol\":1038:1051  nextMessageId */\n      sload(0x07)\n        /* \"contracts/Twitter_29.sol\":1030:1087  message(nextMessageId,_content,_from,_to,block.timestamp) */\n      dup2\n      mstore\n      0x20\n      add\n        /* \"contracts/Twitter_29.sol\":1052:1060  _content */\n      dup4\n        /* \"contracts/Twitter_29.sol\":1030:1087  message(nextMessageId,_content,_from,_to,block.timestamp) */\n      dup2\n      mstore\n      0x20\n      add\n        /* \"contracts/Twitter_29.sol\":1061:1066  _from */\n      dup6\n        /* \"contracts/Twitter_29.sol\":1030:1087  message(nextMessageId,_content,_from,_to,block.timestamp) */\n      0xffffffffffffffffffffffffffffffffffffffff\n      and\n      dup2\n      mstore\n      0x20\n      add\n        /* \"contracts/Twitter_29.sol\":1067:1070  _to */\n      dup5\n        /* \"contracts/Twitter_29.sol\":1030:1087  message(nextMessageId,_content,_from,_to,block.timestamp) */\n      0xffffffffffffffffffffffffffffffffffffffff\n      and\n      dup2\n      mstore\n      0x20\n      add\n        /* \"contracts/Twitter_29.sol\":1071:1086  block.timestamp */\n      timestamp\n        /* \"contracts/Twitter_29.sol\":1030:1087  message(nextMessageId,_content,_from,_to,block.timestamp) */\n      dup2\n      mstore\n      pop\n        /* \"contracts/Twitter_29.sol\":1009:1088  messages[_from].push(message(nextMessageId,_content,_from,_to,block.timestamp)) */\n      swap1\n      dup1\n      0x01\n      dup2\n      sload\n      add\n      dup1\n      dup3\n      sstore\n      dup1\n      swap2\n      pop\n      pop\n      0x01\n      swap1\n      sub\n      swap1\n      0x00\n      mstore\n      keccak256(0x00, 0x20)\n      swap1\n      0x05\n      mul\n      add\n      0x00\n      swap1\n      swap2\n      swap1\n      swap2\n      swap1\n      swap2\n      pop\n      0x00\n      dup3\n      add\n      mload\n      dup2\n      0x00\n      add\n      sstore\n      0x20\n      dup3\n      add\n      mload\n      dup2\n      0x01\n      add\n      swap1\n      dup2\n      tag_181\n      swap2\n      swap1\n      tag_182\n      jump\t// in\n    tag_181:\n      pop\n      0x40\n      dup3\n      add\n      mload\n      dup2\n      0x02\n      add\n      exp(0x0100, 0x00)\n      dup2\n      sload\n      dup2\n      0xffffffffffffffffffffffffffffffffffffffff\n      mul\n      not\n      and\n      swap1\n      dup4\n      0xffffffffffffffffffffffffffffffffffffffff\n      and\n      mul\n      or\n      swap1\n      sstore\n      pop\n      0x60\n      dup3\n      add\n      mload\n      dup2\n      0x03\n      add\n      exp(0x0100, 0x00)\n      dup2\n      sload\n      dup2\n      0xffffffffffffffffffffffffffffffffffffffff\n      mul\n      not\n      and\n      swap1\n      dup4\n      0xffffffffffffffffffffffffffffffffffffffff\n      and\n      mul\n      or\n      swap1\n      sstore\n      pop\n      0x80\n      dup3\n      add\n      mload\n      dup2\n      0x04\n      add\n      sstore\n      pop\n      pop\n        /* \"contracts/Twitter_29.sol\":1099:1112  nextMessageId */\n      0x07\n      0x00\n        /* \"contracts/Twitter_29.sol\":1099:1114  nextMessageId++ */\n      dup2\n      sload\n      dup1\n      swap3\n      swap2\n      swap1\n      tag_183\n      swap1\n      tag_121\n      jump\t// in\n    tag_183:\n      swap2\n      swap1\n      pop\n      sstore\n      pop\n        /* \"contracts/Twitter_29.sol\":918:1122  function _sendMessage(address _from,address _to,string memory _content) internal{... */\n      pop\n      pop\n      pop\n      jump\t// out\n        /* \"contracts/Twitter_29.sol\":710:910  function _tweet(address _from,string memory _content) internal{... */\n    tag_169:\n        /* \"contracts/Twitter_29.sol\":799:843  Tweet(nextId,_from,_content,block.timestamp) */\n      mload(0x40)\n      dup1\n      0x80\n      add\n      0x40\n      mstore\n      dup1\n        /* \"contracts/Twitter_29.sol\":805:811  nextId */\n      sload(0x06)\n        /* \"contracts/Twitter_29.sol\":799:843  Tweet(nextId,_from,_content,block.timestamp) */\n      dup2\n      mstore\n      0x20\n      add\n        /* \"contracts/Twitter_29.sol\":812:817  _from */\n      dup4\n        /* \"contracts/Twitter_29.sol\":799:843  Tweet(nextId,_from,_content,block.timestamp) */\n      0xffffffffffffffffffffffffffffffffffffffff\n      and\n      dup2\n      mstore\n      0x20\n      add\n        /* \"contracts/Twitter_29.sol\":818:826  _content */\n      dup3\n        /* \"contracts/Twitter_29.sol\":799:843  Tweet(nextId,_from,_content,block.timestamp) */\n      dup2\n      mstore\n      0x20\n      add\n        /* \"contracts/Twitter_29.sol\":827:842  block.timestamp */\n      timestamp\n        /* \"contracts/Twitter_29.sol\":799:843  Tweet(nextId,_from,_content,block.timestamp) */\n      dup2\n      mstore\n      pop\n        /* \"contracts/Twitter_29.sol\":783:789  Tweets */\n      0x00\n        /* \"contracts/Twitter_29.sol\":783:797  Tweets[nextId] */\n      dup1\n        /* \"contracts/Twitter_29.sol\":790:796  nextId */\n      sload(0x06)\n        /* \"contracts/Twitter_29.sol\":783:797  Tweets[nextId] */\n      dup2\n      mstore\n      0x20\n      add\n      swap1\n      dup2\n      mstore\n      0x20\n      add\n      0x00\n      keccak256\n        /* \"contracts/Twitter_29.sol\":783:844  Tweets[nextId]=(Tweet(nextId,_from,_content,block.timestamp)) */\n      0x00\n      dup3\n      add\n      mload\n      dup2\n      0x00\n      add\n      sstore\n      0x20\n      dup3\n      add\n      mload\n      dup2\n      0x01\n      add\n      exp(0x0100, 0x00)\n      dup2\n      sload\n      dup2\n      0xffffffffffffffffffffffffffffffffffffffff\n      mul\n      not\n      and\n      swap1\n      dup4\n      0xffffffffffffffffffffffffffffffffffffffff\n      and\n      mul\n      or\n      swap1\n      sstore\n      pop\n      0x40\n      dup3\n      add\n      mload\n      dup2\n      0x02\n      add\n      swap1\n      dup2\n      tag_185\n      swap2\n      swap1\n      tag_182\n      jump\t// in\n    tag_185:\n      pop\n      0x60\n      dup3\n      add\n      mload\n      dup2\n      0x03\n      add\n      sstore\n      swap1\n      pop\n      pop\n        /* \"contracts/Twitter_29.sol\":855:863  TweetsOf */\n      0x02\n        /* \"contracts/Twitter_29.sol\":855:870  TweetsOf[_from] */\n      0x00\n        /* \"contracts/Twitter_29.sol\":864:869  _from */\n      dup4\n        /* \"contracts/Twitter_29.sol\":855:870  TweetsOf[_from] */\n      0xffffffffffffffffffffffffffffffffffffffff\n      and\n      0xffffffffffffffffffffffffffffffffffffffff\n      and\n      dup2\n      mstore\n      0x20\n      add\n      swap1\n      dup2\n      mstore\n      0x20\n      add\n      0x00\n      keccak256\n        /* \"contracts/Twitter_29.sol\":876:882  nextId */\n      sload(0x06)\n        /* \"contracts/Twitter_29.sol\":855:883  TweetsOf[_from].push(nextId) */\n      swap1\n      dup1\n      0x01\n      dup2\n      sload\n      add\n      dup1\n      dup3\n      sstore\n      dup1\n      swap2\n      pop\n      pop\n      0x01\n      swap1\n      sub\n      swap1\n      0x00\n      mstore\n      keccak256(0x00, 0x20)\n      add\n      0x00\n      swap1\n      swap2\n      swap1\n      swap2\n      swap1\n      swap2\n      pop\n      sstore\n        /* \"contracts/Twitter_29.sol\":894:900  nextId */\n      0x06\n      0x00\n        /* \"contracts/Twitter_29.sol\":894:902  nextId++ */\n      dup2\n      sload\n      dup1\n      swap3\n      swap2\n      swap1\n      tag_187\n      swap1\n      tag_121\n      jump\t// in\n    tag_187:\n      swap2\n      swap1\n      pop\n      sstore\n      pop\n        /* \"contracts/Twitter_29.sol\":710:910  function _tweet(address _from,string memory _content) internal{... */\n      pop\n      pop\n      jump\t// out\n    tag_105:\n      mload(0x40)\n      dup1\n      0x80\n      add\n      0x40\n      mstore\n      dup1\n      0x00\n      dup2\n      mstore\n      0x20\n      add\n      and(0xffffffffffffffffffffffffffffffffffffffff, 0x00)\n      dup2\n      mstore\n      0x20\n      add\n      0x60\n      dup2\n      mstore\n      0x20\n      add\n      0x00\n      dup2\n      mstore\n      pop\n      swap1\n      jump\t// out\n        /* \"#utility.yul\":7:82   */\n    tag_188:\n        /* \"#utility.yul\":40:46   */\n      0x00\n        /* \"#utility.yul\":73:75   */\n      0x40\n        /* \"#utility.yul\":67:76   */\n      mload\n        /* \"#utility.yul\":57:76   */\n      swap1\n      pop\n        /* \"#utility.yul\":7:82   */\n      swap1\n      jump\t// out\n        /* \"#utility.yul\":88:205   */\n    tag_189:\n        /* \"#utility.yul\":197:198   */\n      0x00\n        /* \"#utility.yul\":194:195   */\n      dup1\n        /* \"#utility.yul\":187:199   */\n      revert\n        /* \"#utility.yul\":211:328   */\n    tag_190:\n        /* \"#utility.yul\":320:321   */\n      0x00\n        /* \"#utility.yul\":317:318   */\n      dup1\n        /* \"#utility.yul\":310:322   */\n      revert\n        /* \"#utility.yul\":334:460   */\n    tag_191:\n        /* \"#utility.yul\":371:378   */\n      0x00\n        /* \"#utility.yul\":411:453   */\n      0xffffffffffffffffffffffffffffffffffffffff\n        /* \"#utility.yul\":404:409   */\n      dup3\n        /* \"#utility.yul\":400:454   */\n      and\n        /* \"#utility.yul\":389:454   */\n      swap1\n      pop\n        /* \"#utility.yul\":334:460   */\n      swap2\n      swap1\n      pop\n      jump\t// out\n        /* \"#utility.yul\":466:562   */\n    tag_192:\n        /* \"#utility.yul\":503:510   */\n      0x00\n        /* \"#utility.yul\":532:556   */\n      tag_251\n        /* \"#utility.yul\":550:555   */\n      dup3\n        /* \"#utility.yul\":532:556   */\n      tag_191\n      jump\t// in\n    tag_251:\n        /* \"#utility.yul\":521:556   */\n      swap1\n      pop\n        /* \"#utility.yul\":466:562   */\n      swap2\n      swap1\n      pop\n      jump\t// out\n        /* \"#utility.yul\":568:690   */\n    tag_193:\n        /* \"#utility.yul\":641:665   */\n      tag_253\n        /* \"#utility.yul\":659:664   */\n      dup2\n        /* \"#utility.yul\":641:665   */\n      tag_192\n      jump\t// in\n    tag_253:\n        /* \"#utility.yul\":634:639   */\n      dup2\n        /* \"#utility.yul\":631:666   */\n      eq\n        /* \"#utility.yul\":621:684   */\n      tag_254\n      jumpi\n        /* \"#utility.yul\":680:681   */\n      0x00\n        /* \"#utility.yul\":677:678   */\n      dup1\n        /* \"#utility.yul\":670:682   */\n      revert\n        /* \"#utility.yul\":621:684   */\n    tag_254:\n        /* \"#utility.yul\":568:690   */\n      pop\n      jump\t// out\n        /* \"#utility.yul\":696:835   */\n    tag_194:\n        /* \"#utility.yul\":742:747   */\n      0x00\n        /* \"#utility.yul\":780:786   */\n      dup2\n        /* \"#utility.yul\":767:787   */\n      calldataload\n        /* \"#utility.yul\":758:787   */\n      swap1\n      pop\n        /* \"#utility.yul\":796:829   */\n      tag_256\n        /* \"#utility.yul\":823:828   */\n      dup2\n        /* \"#utility.yul\":796:829   */\n      tag_193\n      jump\t// in\n    tag_256:\n        /* \"#utility.yul\":696:835   */\n      swap3\n      swap2\n      pop\n      pop\n      jump\t// out\n        /* \"#utility.yul\":841:1315   */\n    tag_24:\n        /* \"#utility.yul\":909:915   */\n      0x00\n        /* \"#utility.yul\":917:923   */\n      dup1\n        /* \"#utility.yul\":966:968   */\n      0x40\n        /* \"#utility.yul\":954:963   */\n      dup4\n        /* \"#utility.yul\":945:952   */\n      dup6\n        /* \"#utility.yul\":941:964   */\n      sub\n        /* \"#utility.yul\":937:969   */\n      slt\n        /* \"#utility.yul\":934:1053   */\n      iszero\n      tag_258\n      jumpi\n        /* \"#utility.yul\":972:1051   */\n      tag_259\n      tag_189\n      jump\t// in\n    tag_259:\n        /* \"#utility.yul\":934:1053   */\n    tag_258:\n        /* \"#utility.yul\":1092:1093   */\n      0x00\n        /* \"#utility.yul\":1117:1170   */\n      tag_260\n        /* \"#utility.yul\":1162:1169   */\n      dup6\n        /* \"#utility.yul\":1153:1159   */\n      dup3\n        /* \"#utility.yul\":1142:1151   */\n      dup7\n        /* \"#utility.yul\":1138:1160   */\n      add\n        /* \"#utility.yul\":1117:1170   */\n      tag_194\n      jump\t// in\n    tag_260:\n        /* \"#utility.yul\":1107:1170   */\n      swap3\n      pop\n        /* \"#utility.yul\":1063:1180   */\n      pop\n        /* \"#utility.yul\":1219:1221   */\n      0x20\n        /* \"#utility.yul\":1245:1298   */\n      tag_261\n        /* \"#utility.yul\":1290:1297   */\n      dup6\n        /* \"#utility.yul\":1281:1287   */\n      dup3\n        /* \"#utility.yul\":1270:1279   */\n      dup7\n        /* \"#utility.yul\":1266:1288   */\n      add\n        /* \"#utility.yul\":1245:1298   */\n      tag_194\n      jump\t// in\n    tag_261:\n        /* \"#utility.yul\":1235:1298   */\n      swap2\n      pop\n        /* \"#utility.yul\":1190:1308   */\n      pop\n        /* \"#utility.yul\":841:1315   */\n      swap3\n      pop\n      swap3\n      swap1\n      pop\n      jump\t// out\n        /* \"#utility.yul\":1321:1411   */\n    tag_195:\n        /* \"#utility.yul\":1355:1362   */\n      0x00\n        /* \"#utility.yul\":1398:1403   */\n      dup2\n        /* \"#utility.yul\":1391:1404   */\n      iszero\n        /* \"#utility.yul\":1384:1405   */\n      iszero\n        /* \"#utility.yul\":1373:1405   */\n      swap1\n      pop\n        /* \"#utility.yul\":1321:1411   */\n      swap2\n      swap1\n      pop\n      jump\t// out\n        /* \"#utility.yul\":1417:1526   */\n    tag_196:\n        /* \"#utility.yul\":1498:1519   */\n      tag_264\n        /* \"#utility.yul\":1513:1518   */\n      dup2\n        /* \"#utility.yul\":1498:1519   */\n      tag_195\n      jump\t// in\n    tag_264:\n        /* \"#utility.yul\":1493:1496   */\n      dup3\n        /* \"#utility.yul\":1486:1520   */\n      mstore\n        /* \"#utility.yul\":1417:1526   */\n      pop\n      pop\n      jump\t// out\n        /* \"#utility.yul\":1532:1742   */\n    tag_27:\n        /* \"#utility.yul\":1619:1623   */\n      0x00\n        /* \"#utility.yul\":1657:1659   */\n      0x20\n        /* \"#utility.yul\":1646:1655   */\n      dup3\n        /* \"#utility.yul\":1642:1660   */\n      add\n        /* \"#utility.yul\":1634:1660   */\n      swap1\n      pop\n        /* \"#utility.yul\":1670:1735   */\n      tag_266\n        /* \"#utility.yul\":1732:1733   */\n      0x00\n        /* \"#utility.yul\":1721:1730   */\n      dup4\n        /* \"#utility.yul\":1717:1734   */\n      add\n        /* \"#utility.yul\":1708:1714   */\n      dup5\n        /* \"#utility.yul\":1670:1735   */\n      tag_196\n      jump\t// in\n    tag_266:\n        /* \"#utility.yul\":1532:1742   */\n      swap3\n      swap2\n      pop\n      pop\n      jump\t// out\n        /* \"#utility.yul\":1748:2077   */\n    tag_30:\n        /* \"#utility.yul\":1807:1813   */\n      0x00\n        /* \"#utility.yul\":1856:1858   */\n      0x20\n        /* \"#utility.yul\":1844:1853   */\n      dup3\n        /* \"#utility.yul\":1835:1842   */\n      dup5\n        /* \"#utility.yul\":1831:1854   */\n      sub\n        /* \"#utility.yul\":1827:1859   */\n      slt\n        /* \"#utility.yul\":1824:1943   */\n      iszero\n      tag_268\n      jumpi\n        /* \"#utility.yul\":1862:1941   */\n      tag_269\n      tag_189\n      jump\t// in\n    tag_269:\n        /* \"#utility.yul\":1824:1943   */\n    tag_268:\n        /* \"#utility.yul\":1982:1983   */\n      0x00\n        /* \"#utility.yul\":2007:2060   */\n      tag_270\n        /* \"#utility.yul\":2052:2059   */\n      dup5\n        /* \"#utility.yul\":2043:2049   */\n      dup3\n        /* \"#utility.yul\":2032:2041   */\n      dup6\n        /* \"#utility.yul\":2028:2050   */\n      add\n        /* \"#utility.yul\":2007:2060   */\n      tag_194\n      jump\t// in\n    tag_270:\n        /* \"#utility.yul\":1997:2060   */\n      swap2\n      pop\n        /* \"#utility.yul\":1953:2070   */\n      pop\n        /* \"#utility.yul\":1748:2077   */\n      swap3\n      swap2\n      pop\n      pop\n      jump\t// out\n        /* \"#utility.yul\":2083:2160   */\n    tag_197:\n        /* \"#utility.yul\":2120:2127   */\n      0x00\n        /* \"#utility.yul\":2149:2154   */\n      dup2\n        /* \"#utility.yul\":2138:2154   */\n      swap1\n      pop\n        /* \"#utility.yul\":2083:2160   */\n      swap2\n      swap1\n      pop\n      jump\t// out\n        /* \"#utility.yul\":2166:2288   */\n    tag_198:\n        /* \"#utility.yul\":2239:2263   */\n      tag_273\n        /* \"#utility.yul\":2257:2262   */\n      dup2\n        /* \"#utility.yul\":2239:2263   */\n      tag_197\n      jump\t// in\n    tag_273:\n        /* \"#utility.yul\":2232:2237   */\n      dup2\n        /* \"#utility.yul\":2229:2264   */\n      eq\n        /* \"#utility.yul\":2219:2282   */\n      tag_274\n      jumpi\n        /* \"#utility.yul\":2278:2279   */\n      0x00\n        /* \"#utility.yul\":2275:2276   */\n      dup1\n        /* \"#utility.yul\":2268:2280   */\n      revert\n        /* \"#utility.yul\":2219:2282   */\n    tag_274:\n        /* \"#utility.yul\":2166:2288   */\n      pop\n      jump\t// out\n        /* \"#utility.yul\":2294:2433   */\n    tag_199:\n        /* \"#utility.yul\":2340:2345   */\n      0x00\n        /* \"#utility.yul\":2378:2384   */\n      dup2\n        /* \"#utility.yul\":2365:2385   */\n      calldataload\n        /* \"#utility.yul\":2356:2385   */\n      swap1\n      pop\n        /* \"#utility.yul\":2394:2427   */\n      tag_276\n        /* \"#utility.yul\":2421:2426   */\n      dup2\n        /* \"#utility.yul\":2394:2427   */\n      tag_198\n      jump\t// in\n    tag_276:\n        /* \"#utility.yul\":2294:2433   */\n      swap3\n      swap2\n      pop\n      pop\n      jump\t// out\n        /* \"#utility.yul\":2439:2768   */\n    tag_34:\n        /* \"#utility.yul\":2498:2504   */\n      0x00\n        /* \"#utility.yul\":2547:2549   */\n      0x20\n        /* \"#utility.yul\":2535:2544   */\n      dup3\n        /* \"#utility.yul\":2526:2533   */\n      dup5\n        /* \"#utility.yul\":2522:2545   */\n      sub\n        /* \"#utility.yul\":2518:2550   */\n      slt\n        /* \"#utility.yul\":2515:2634   */\n      iszero\n      tag_278\n      jumpi\n        /* \"#utility.yul\":2553:2632   */\n      tag_279\n      tag_189\n      jump\t// in\n    tag_279:\n        /* \"#utility.yul\":2515:2634   */\n    tag_278:\n        /* \"#utility.yul\":2673:2674   */\n      0x00\n        /* \"#utility.yul\":2698:2751   */\n      tag_280\n        /* \"#utility.yul\":2743:2750   */\n      dup5\n        /* \"#utility.yul\":2734:2740   */\n      dup3\n        /* \"#utility.yul\":2723:2732   */\n      dup6\n        /* \"#utility.yul\":2719:2741   */\n      add\n        /* \"#utility.yul\":2698:2751   */\n      tag_199\n      jump\t// in\n    tag_280:\n        /* \"#utility.yul\":2688:2751   */\n      swap2\n      pop\n        /* \"#utility.yul\":2644:2761   */\n      pop\n        /* \"#utility.yul\":2439:2768   */\n      swap3\n      swap2\n      pop\n      pop\n      jump\t// out\n        /* \"#utility.yul\":2774:2909   */\n    tag_200:\n        /* \"#utility.yul\":2862:2868   */\n      0x00\n        /* \"#utility.yul\":2896:2901   */\n      dup2\n        /* \"#utility.yul\":2890:2902   */\n      mload\n        /* \"#utility.yul\":2880:2902   */\n      swap1\n      pop\n        /* \"#utility.yul\":2774:2909   */\n      swap2\n      swap1\n      pop\n      jump\t// out\n        /* \"#utility.yul\":2915:3120   */\n    tag_201:\n        /* \"#utility.yul\":3035:3046   */\n      0x00\n        /* \"#utility.yul\":3069:3075   */\n      dup3\n        /* \"#utility.yul\":3064:3067   */\n      dup3\n        /* \"#utility.yul\":3057:3076   */\n      mstore\n        /* \"#utility.yul\":3109:3113   */\n      0x20\n        /* \"#utility.yul\":3104:3107   */\n      dup3\n        /* \"#utility.yul\":3100:3114   */\n      add\n        /* \"#utility.yul\":3085:3114   */\n      swap1\n      pop\n        /* \"#utility.yul\":2915:3120   */\n      swap3\n      swap2\n      pop\n      pop\n      jump\t// out\n        /* \"#utility.yul\":3126:3279   */\n    tag_202:\n        /* \"#utility.yul\":3214:3218   */\n      0x00\n        /* \"#utility.yul\":3237:3240   */\n      dup2\n        /* \"#utility.yul\":3229:3240   */\n      swap1\n      pop\n        /* \"#utility.yul\":3267:3271   */\n      0x20\n        /* \"#utility.yul\":3262:3265   */\n      dup3\n        /* \"#utility.yul\":3258:3272   */\n      add\n        /* \"#utility.yul\":3250:3272   */\n      swap1\n      pop\n        /* \"#utility.yul\":3126:3279   */\n      swap2\n      swap1\n      pop\n      jump\t// out\n        /* \"#utility.yul\":3285:3393   */\n    tag_203:\n        /* \"#utility.yul\":3362:3386   */\n      tag_285\n        /* \"#utility.yul\":3380:3385   */\n      dup2\n        /* \"#utility.yul\":3362:3386   */\n      tag_197\n      jump\t// in\n    tag_285:\n        /* \"#utility.yul\":3357:3360   */\n      dup3\n        /* \"#utility.yul\":3350:3387   */\n      mstore\n        /* \"#utility.yul\":3285:3393   */\n      pop\n      pop\n      jump\t// out\n        /* \"#utility.yul\":3399:3507   */\n    tag_204:\n        /* \"#utility.yul\":3476:3500   */\n      tag_287\n        /* \"#utility.yul\":3494:3499   */\n      dup2\n        /* \"#utility.yul\":3476:3500   */\n      tag_192\n      jump\t// in\n    tag_287:\n        /* \"#utility.yul\":3471:3474   */\n      dup3\n        /* \"#utility.yul\":3464:3501   */\n      mstore\n        /* \"#utility.yul\":3399:3507   */\n      pop\n      pop\n      jump\t// out\n        /* \"#utility.yul\":3513:3612   */\n    tag_205:\n        /* \"#utility.yul\":3565:3571   */\n      0x00\n        /* \"#utility.yul\":3599:3604   */\n      dup2\n        /* \"#utility.yul\":3593:3605   */\n      mload\n        /* \"#utility.yul\":3583:3605   */\n      swap1\n      pop\n        /* \"#utility.yul\":3513:3612   */\n      swap2\n      swap1\n      pop\n      jump\t// out\n        /* \"#utility.yul\":3618:3777   */\n    tag_206:\n        /* \"#utility.yul\":3692:3703   */\n      0x00\n        /* \"#utility.yul\":3726:3732   */\n      dup3\n        /* \"#utility.yul\":3721:3724   */\n      dup3\n        /* \"#utility.yul\":3714:3733   */\n      mstore\n        /* \"#utility.yul\":3766:3770   */\n      0x20\n        /* \"#utility.yul\":3761:3764   */\n      dup3\n        /* \"#utility.yul\":3757:3771   */\n      add\n        /* \"#utility.yul\":3742:3771   */\n      swap1\n      pop\n        /* \"#utility.yul\":3618:3777   */\n      swap3\n      swap2\n      pop\n      pop\n      jump\t// out\n        /* \"#utility.yul\":3783:3922   */\n    tag_207:\n        /* \"#utility.yul\":3872:3878   */\n      dup3\n        /* \"#utility.yul\":3867:3870   */\n      dup2\n        /* \"#utility.yul\":3862:3865   */\n      dup4\n        /* \"#utility.yul\":3856:3879   */\n      mcopy\n        /* \"#utility.yul\":3913:3914   */\n      0x00\n        /* \"#utility.yul\":3904:3910   */\n      dup4\n        /* \"#utility.yul\":3899:3902   */\n      dup4\n        /* \"#utility.yul\":3895:3911   */\n      add\n        /* \"#utility.yul\":3888:3915   */\n      mstore\n        /* \"#utility.yul\":3783:3922   */\n      pop\n      pop\n      pop\n      jump\t// out\n        /* \"#utility.yul\":3928:4030   */\n    tag_208:\n        /* \"#utility.yul\":3969:3975   */\n      0x00\n        /* \"#utility.yul\":4020:4022   */\n      0x1f\n        /* \"#utility.yul\":4016:4023   */\n      not\n        /* \"#utility.yul\":4011:4013   */\n      0x1f\n        /* \"#utility.yul\":4004:4009   */\n      dup4\n        /* \"#utility.yul\":4000:4014   */\n      add\n        /* \"#utility.yul\":3996:4024   */\n      and\n        /* \"#utility.yul\":3986:4024   */\n      swap1\n      pop\n        /* \"#utility.yul\":3928:4030   */\n      swap2\n      swap1\n      pop\n      jump\t// out\n        /* \"#utility.yul\":4036:4393   */\n    tag_209:\n        /* \"#utility.yul\":4114:4117   */\n      0x00\n        /* \"#utility.yul\":4142:4181   */\n      tag_293\n        /* \"#utility.yul\":4175:4180   */\n      dup3\n        /* \"#utility.yul\":4142:4181   */\n      tag_205\n      jump\t// in\n    tag_293:\n        /* \"#utility.yul\":4197:4258   */\n      tag_294\n        /* \"#utility.yul\":4251:4257   */\n      dup2\n        /* \"#utility.yul\":4246:4249   */\n      dup6\n        /* \"#utility.yul\":4197:4258   */\n      tag_206\n      jump\t// in\n    tag_294:\n        /* \"#utility.yul\":4190:4258   */\n      swap4\n      pop\n        /* \"#utility.yul\":4267:4332   */\n      tag_295\n        /* \"#utility.yul\":4325:4331   */\n      dup2\n        /* \"#utility.yul\":4320:4323   */\n      dup6\n        /* \"#utility.yul\":4313:4317   */\n      0x20\n        /* \"#utility.yul\":4306:4311   */\n      dup7\n        /* \"#utility.yul\":4302:4318   */\n      add\n        /* \"#utility.yul\":4267:4332   */\n      tag_207\n      jump\t// in\n    tag_295:\n        /* \"#utility.yul\":4357:4386   */\n      tag_296\n        /* \"#utility.yul\":4379:4385   */\n      dup2\n        /* \"#utility.yul\":4357:4386   */\n      tag_208\n      jump\t// in\n    tag_296:\n        /* \"#utility.yul\":4352:4355   */\n      dup5\n        /* \"#utility.yul\":4348:4387   */\n      add\n        /* \"#utility.yul\":4341:4387   */\n      swap2\n      pop\n        /* \"#utility.yul\":4118:4393   */\n      pop\n        /* \"#utility.yul\":4036:4393   */\n      swap3\n      swap2\n      pop\n      pop\n      jump\t// out\n        /* \"#utility.yul\":4451:5395   */\n    tag_210:\n        /* \"#utility.yul\":4552:4555   */\n      0x00\n        /* \"#utility.yul\":4588:4592   */\n      0x80\n        /* \"#utility.yul\":4583:4586   */\n      dup4\n        /* \"#utility.yul\":4579:4593   */\n      add\n        /* \"#utility.yul\":4673:4677   */\n      0x00\n        /* \"#utility.yul\":4666:4671   */\n      dup4\n        /* \"#utility.yul\":4662:4678   */\n      add\n        /* \"#utility.yul\":4656:4679   */\n      mload\n        /* \"#utility.yul\":4692:4755   */\n      tag_298\n        /* \"#utility.yul\":4749:4753   */\n      0x00\n        /* \"#utility.yul\":4744:4747   */\n      dup7\n        /* \"#utility.yul\":4740:4754   */\n      add\n        /* \"#utility.yul\":4726:4738   */\n      dup3\n        /* \"#utility.yul\":4692:4755   */\n      tag_203\n      jump\t// in\n    tag_298:\n        /* \"#utility.yul\":4603:4765   */\n      pop\n        /* \"#utility.yul\":4849:4853   */\n      0x20\n        /* \"#utility.yul\":4842:4847   */\n      dup4\n        /* \"#utility.yul\":4838:4854   */\n      add\n        /* \"#utility.yul\":4832:4855   */\n      mload\n        /* \"#utility.yul\":4868:4931   */\n      tag_299\n        /* \"#utility.yul\":4925:4929   */\n      0x20\n        /* \"#utility.yul\":4920:4923   */\n      dup7\n        /* \"#utility.yul\":4916:4930   */\n      add\n        /* \"#utility.yul\":4902:4914   */\n      dup3\n        /* \"#utility.yul\":4868:4931   */\n      tag_204\n      jump\t// in\n    tag_299:\n        /* \"#utility.yul\":4775:4941   */\n      pop\n        /* \"#utility.yul\":5026:5030   */\n      0x40\n        /* \"#utility.yul\":5019:5024   */\n      dup4\n        /* \"#utility.yul\":5015:5031   */\n      add\n        /* \"#utility.yul\":5009:5032   */\n      mload\n        /* \"#utility.yul\":5079:5082   */\n      dup5\n        /* \"#utility.yul\":5073:5077   */\n      dup3\n        /* \"#utility.yul\":5069:5083   */\n      sub\n        /* \"#utility.yul\":5062:5066   */\n      0x40\n        /* \"#utility.yul\":5057:5060   */\n      dup7\n        /* \"#utility.yul\":5053:5067   */\n      add\n        /* \"#utility.yul\":5046:5084   */\n      mstore\n        /* \"#utility.yul\":5105:5178   */\n      tag_300\n        /* \"#utility.yul\":5173:5177   */\n      dup3\n        /* \"#utility.yul\":5159:5171   */\n      dup3\n        /* \"#utility.yul\":5105:5178   */\n      tag_209\n      jump\t// in\n    tag_300:\n        /* \"#utility.yul\":5097:5178   */\n      swap2\n      pop\n        /* \"#utility.yul\":4951:5189   */\n      pop\n        /* \"#utility.yul\":5276:5280   */\n      0x60\n        /* \"#utility.yul\":5269:5274   */\n      dup4\n        /* \"#utility.yul\":5265:5281   */\n      add\n        /* \"#utility.yul\":5259:5282   */\n      mload\n        /* \"#utility.yul\":5295:5358   */\n      tag_301\n        /* \"#utility.yul\":5352:5356   */\n      0x60\n        /* \"#utility.yul\":5347:5350   */\n      dup7\n        /* \"#utility.yul\":5343:5357   */\n      add\n        /* \"#utility.yul\":5329:5341   */\n      dup3\n        /* \"#utility.yul\":5295:5358   */\n      tag_203\n      jump\t// in\n    tag_301:\n        /* \"#utility.yul\":5199:5368   */\n      pop\n        /* \"#utility.yul\":5385:5389   */\n      dup1\n        /* \"#utility.yul\":5378:5389   */\n      swap2\n      pop\n        /* \"#utility.yul\":4557:5395   */\n      pop\n        /* \"#utility.yul\":4451:5395   */\n      swap3\n      swap2\n      pop\n      pop\n      jump\t// out\n        /* \"#utility.yul\":5401:5641   */\n    tag_211:\n        /* \"#utility.yul\":5512:5522   */\n      0x00\n        /* \"#utility.yul\":5547:5635   */\n      tag_303\n        /* \"#utility.yul\":5631:5634   */\n      dup4\n        /* \"#utility.yul\":5623:5629   */\n      dup4\n        /* \"#utility.yul\":5547:5635   */\n      tag_210\n      jump\t// in\n    tag_303:\n        /* \"#utility.yul\":5533:5635   */\n      swap1\n      pop\n        /* \"#utility.yul\":5401:5641   */\n      swap3\n      swap2\n      pop\n      pop\n      jump\t// out\n        /* \"#utility.yul\":5647:5781   */\n    tag_212:\n        /* \"#utility.yul\":5738:5742   */\n      0x00\n        /* \"#utility.yul\":5770:5774   */\n      0x20\n        /* \"#utility.yul\":5765:5768   */\n      dup3\n        /* \"#utility.yul\":5761:5775   */\n      add\n        /* \"#utility.yul\":5753:5775   */\n      swap1\n      pop\n        /* \"#utility.yul\":5647:5781   */\n      swap2\n      swap1\n      pop\n      jump\t// out\n        /* \"#utility.yul\":5843:6922   */\n    tag_213:\n        /* \"#utility.yul\":6004:6007   */\n      0x00\n        /* \"#utility.yul\":6033:6108   */\n      tag_306\n        /* \"#utility.yul\":6102:6107   */\n      dup3\n        /* \"#utility.yul\":6033:6108   */\n      tag_200\n      jump\t// in\n    tag_306:\n        /* \"#utility.yul\":6124:6231   */\n      tag_307\n        /* \"#utility.yul\":6224:6230   */\n      dup2\n        /* \"#utility.yul\":6219:6222   */\n      dup6\n        /* \"#utility.yul\":6124:6231   */\n      tag_201\n      jump\t// in\n    tag_307:\n        /* \"#utility.yul\":6117:6231   */\n      swap4\n      pop\n        /* \"#utility.yul\":6257:6260   */\n      dup4\n        /* \"#utility.yul\":6302:6306   */\n      0x20\n        /* \"#utility.yul\":6294:6300   */\n      dup3\n        /* \"#utility.yul\":6290:6307   */\n      mul\n        /* \"#utility.yul\":6285:6288   */\n      dup6\n        /* \"#utility.yul\":6281:6308   */\n      add\n        /* \"#utility.yul\":6332:6409   */\n      tag_308\n        /* \"#utility.yul\":6403:6408   */\n      dup6\n        /* \"#utility.yul\":6332:6409   */\n      tag_202\n      jump\t// in\n    tag_308:\n        /* \"#utility.yul\":6432:6439   */\n      dup1\n        /* \"#utility.yul\":6463:6464   */\n      0x00\n        /* \"#utility.yul\":6448:6877   */\n    tag_309:\n        /* \"#utility.yul\":6473:6479   */\n      dup6\n        /* \"#utility.yul\":6470:6471   */\n      dup2\n        /* \"#utility.yul\":6467:6480   */\n      lt\n        /* \"#utility.yul\":6448:6877   */\n      iszero\n      tag_311\n      jumpi\n        /* \"#utility.yul\":6544:6553   */\n      dup5\n        /* \"#utility.yul\":6538:6542   */\n      dup5\n        /* \"#utility.yul\":6534:6554   */\n      sub\n        /* \"#utility.yul\":6529:6532   */\n      dup10\n        /* \"#utility.yul\":6522:6555   */\n      mstore\n        /* \"#utility.yul\":6595:6601   */\n      dup2\n        /* \"#utility.yul\":6589:6602   */\n      mload\n        /* \"#utility.yul\":6623:6729   */\n      tag_312\n        /* \"#utility.yul\":6724:6728   */\n      dup6\n        /* \"#utility.yul\":6709:6722   */\n      dup3\n        /* \"#utility.yul\":6623:6729   */\n      tag_211\n      jump\t// in\n    tag_312:\n        /* \"#utility.yul\":6615:6729   */\n      swap5\n      pop\n        /* \"#utility.yul\":6752:6833   */\n      tag_313\n        /* \"#utility.yul\":6826:6832   */\n      dup4\n        /* \"#utility.yul\":6752:6833   */\n      tag_212\n      jump\t// in\n    tag_313:\n        /* \"#utility.yul\":6742:6833   */\n      swap3\n      pop\n        /* \"#utility.yul\":6862:6866   */\n      0x20\n        /* \"#utility.yul\":6857:6860   */\n      dup11\n        /* \"#utility.yul\":6853:6867   */\n      add\n        /* \"#utility.yul\":6846:6867   */\n      swap10\n      pop\n        /* \"#utility.yul\":6508:6877   */\n      pop\n        /* \"#utility.yul\":6495:6496   */\n      0x01\n        /* \"#utility.yul\":6492:6493   */\n      dup2\n        /* \"#utility.yul\":6488:6497   */\n      add\n        /* \"#utility.yul\":6483:6497   */\n      swap1\n      pop\n        /* \"#utility.yul\":6448:6877   */\n      jump(tag_309)\n    tag_311:\n        /* \"#utility.yul\":6452:6466   */\n      pop\n        /* \"#utility.yul\":6893:6897   */\n      dup3\n        /* \"#utility.yul\":6886:6897   */\n      swap8\n      pop\n        /* \"#utility.yul\":6913:6916   */\n      dup8\n        /* \"#utility.yul\":6906:6916   */\n      swap6\n      pop\n        /* \"#utility.yul\":6009:6922   */\n      pop\n      pop\n      pop\n      pop\n      pop\n        /* \"#utility.yul\":5843:6922   */\n      swap3\n      swap2\n      pop\n      pop\n      jump\t// out\n        /* \"#utility.yul\":6928:7385   */\n    tag_37:\n        /* \"#utility.yul\":7113:7117   */\n      0x00\n        /* \"#utility.yul\":7151:7153   */\n      0x20\n        /* \"#utility.yul\":7140:7149   */\n      dup3\n        /* \"#utility.yul\":7136:7154   */\n      add\n        /* \"#utility.yul\":7128:7154   */\n      swap1\n      pop\n        /* \"#utility.yul\":7200:7209   */\n      dup2\n        /* \"#utility.yul\":7194:7198   */\n      dup2\n        /* \"#utility.yul\":7190:7210   */\n      sub\n        /* \"#utility.yul\":7186:7187   */\n      0x00\n        /* \"#utility.yul\":7175:7184   */\n      dup4\n        /* \"#utility.yul\":7171:7188   */\n      add\n        /* \"#utility.yul\":7164:7211   */\n      mstore\n        /* \"#utility.yul\":7228:7378   */\n      tag_315\n        /* \"#utility.yul\":7373:7377   */\n      dup2\n        /* \"#utility.yul\":7364:7370   */\n      dup5\n        /* \"#utility.yul\":7228:7378   */\n      tag_213\n      jump\t// in\n    tag_315:\n        /* \"#utility.yul\":7220:7378   */\n      swap1\n      pop\n        /* \"#utility.yul\":6928:7385   */\n      swap3\n      swap2\n      pop\n      pop\n      jump\t// out\n        /* \"#utility.yul\":7391:7865   */\n    tag_40:\n        /* \"#utility.yul\":7459:7465   */\n      0x00\n        /* \"#utility.yul\":7467:7473   */\n      dup1\n        /* \"#utility.yul\":7516:7518   */\n      0x40\n        /* \"#utility.yul\":7504:7513   */\n      dup4\n        /* \"#utility.yul\":7495:7502   */\n      dup6\n        /* \"#utility.yul\":7491:7514   */\n      sub\n        /* \"#utility.yul\":7487:7519   */\n      slt\n        /* \"#utility.yul\":7484:7603   */\n      iszero\n      tag_317\n      jumpi\n        /* \"#utility.yul\":7522:7601   */\n      tag_318\n      tag_189\n      jump\t// in\n    tag_318:\n        /* \"#utility.yul\":7484:7603   */\n    tag_317:\n        /* \"#utility.yul\":7642:7643   */\n      0x00\n        /* \"#utility.yul\":7667:7720   */\n      tag_319\n        /* \"#utility.yul\":7712:7719   */\n      dup6\n        /* \"#utility.yul\":7703:7709   */\n      dup3\n        /* \"#utility.yul\":7692:7701   */\n      dup7\n        /* \"#utility.yul\":7688:7710   */\n      add\n        /* \"#utility.yul\":7667:7720   */\n      tag_194\n      jump\t// in\n    tag_319:\n        /* \"#utility.yul\":7657:7720   */\n      swap3\n      pop\n        /* \"#utility.yul\":7613:7730   */\n      pop\n        /* \"#utility.yul\":7769:7771   */\n      0x20\n        /* \"#utility.yul\":7795:7848   */\n      tag_320\n        /* \"#utility.yul\":7840:7847   */\n      dup6\n        /* \"#utility.yul\":7831:7837   */\n      dup3\n        /* \"#utility.yul\":7820:7829   */\n      dup7\n        /* \"#utility.yul\":7816:7838   */\n      add\n        /* \"#utility.yul\":7795:7848   */\n      tag_199\n      jump\t// in\n    tag_320:\n        /* \"#utility.yul\":7785:7848   */\n      swap2\n      pop\n        /* \"#utility.yul\":7740:7858   */\n      pop\n        /* \"#utility.yul\":7391:7865   */\n      swap3\n      pop\n      swap3\n      swap1\n      pop\n      jump\t// out\n        /* \"#utility.yul\":7871:7989   */\n    tag_214:\n        /* \"#utility.yul\":7958:7982   */\n      tag_322\n        /* \"#utility.yul\":7976:7981   */\n      dup2\n        /* \"#utility.yul\":7958:7982   */\n      tag_192\n      jump\t// in\n    tag_322:\n        /* \"#utility.yul\":7953:7956   */\n      dup3\n        /* \"#utility.yul\":7946:7983   */\n      mstore\n        /* \"#utility.yul\":7871:7989   */\n      pop\n      pop\n      jump\t// out\n        /* \"#utility.yul\":7995:8217   */\n    tag_43:\n        /* \"#utility.yul\":8088:8092   */\n      0x00\n        /* \"#utility.yul\":8126:8128   */\n      0x20\n        /* \"#utility.yul\":8115:8124   */\n      dup3\n        /* \"#utility.yul\":8111:8129   */\n      add\n        /* \"#utility.yul\":8103:8129   */\n      swap1\n      pop\n        /* \"#utility.yul\":8139:8210   */\n      tag_324\n        /* \"#utility.yul\":8207:8208   */\n      0x00\n        /* \"#utility.yul\":8196:8205   */\n      dup4\n        /* \"#utility.yul\":8192:8209   */\n      add\n        /* \"#utility.yul\":8183:8189   */\n      dup5\n        /* \"#utility.yul\":8139:8210   */\n      tag_214\n      jump\t// in\n    tag_324:\n        /* \"#utility.yul\":7995:8217   */\n      swap3\n      swap2\n      pop\n      pop\n      jump\t// out\n        /* \"#utility.yul\":8223:8341   */\n    tag_215:\n        /* \"#utility.yul\":8310:8334   */\n      tag_326\n        /* \"#utility.yul\":8328:8333   */\n      dup2\n        /* \"#utility.yul\":8310:8334   */\n      tag_197\n      jump\t// in\n    tag_326:\n        /* \"#utility.yul\":8305:8308   */\n      dup3\n        /* \"#utility.yul\":8298:8335   */\n      mstore\n        /* \"#utility.yul\":8223:8341   */\n      pop\n      pop\n      jump\t// out\n        /* \"#utility.yul\":8347:8516   */\n    tag_216:\n        /* \"#utility.yul\":8431:8442   */\n      0x00\n        /* \"#utility.yul\":8465:8471   */\n      dup3\n        /* \"#utility.yul\":8460:8463   */\n      dup3\n        /* \"#utility.yul\":8453:8472   */\n      mstore\n        /* \"#utility.yul\":8505:8509   */\n      0x20\n        /* \"#utility.yul\":8500:8503   */\n      dup3\n        /* \"#utility.yul\":8496:8510   */\n      add\n        /* \"#utility.yul\":8481:8510   */\n      swap1\n      pop\n        /* \"#utility.yul\":8347:8516   */\n      swap3\n      swap2\n      pop\n      pop\n      jump\t// out\n        /* \"#utility.yul\":8522:8899   */\n    tag_217:\n        /* \"#utility.yul\":8610:8613   */\n      0x00\n        /* \"#utility.yul\":8638:8677   */\n      tag_329\n        /* \"#utility.yul\":8671:8676   */\n      dup3\n        /* \"#utility.yul\":8638:8677   */\n      tag_205\n      jump\t// in\n    tag_329:\n        /* \"#utility.yul\":8693:8764   */\n      tag_330\n        /* \"#utility.yul\":8757:8763   */\n      dup2\n        /* \"#utility.yul\":8752:8755   */\n      dup6\n        /* \"#utility.yul\":8693:8764   */\n      tag_216\n      jump\t// in\n    tag_330:\n        /* \"#utility.yul\":8686:8764   */\n      swap4\n      pop\n        /* \"#utility.yul\":8773:8838   */\n      tag_331\n        /* \"#utility.yul\":8831:8837   */\n      dup2\n        /* \"#utility.yul\":8826:8829   */\n      dup6\n        /* \"#utility.yul\":8819:8823   */\n      0x20\n        /* \"#utility.yul\":8812:8817   */\n      dup7\n        /* \"#utility.yul\":8808:8824   */\n      add\n        /* \"#utility.yul\":8773:8838   */\n      tag_207\n      jump\t// in\n    tag_331:\n        /* \"#utility.yul\":8863:8892   */\n      tag_332\n        /* \"#utility.yul\":8885:8891   */\n      dup2\n        /* \"#utility.yul\":8863:8892   */\n      tag_208\n      jump\t// in\n    tag_332:\n        /* \"#utility.yul\":8858:8861   */\n      dup5\n        /* \"#utility.yul\":8854:8893   */\n      add\n        /* \"#utility.yul\":8847:8893   */\n      swap2\n      pop\n        /* \"#utility.yul\":8614:8899   */\n      pop\n        /* \"#utility.yul\":8522:8899   */\n      swap3\n      swap2\n      pop\n      pop\n      jump\t// out\n        /* \"#utility.yul\":8905:9549   */\n    tag_48:\n        /* \"#utility.yul\":9102:9106   */\n      0x00\n        /* \"#utility.yul\":9140:9143   */\n      0x80\n        /* \"#utility.yul\":9129:9138   */\n      dup3\n        /* \"#utility.yul\":9125:9144   */\n      add\n        /* \"#utility.yul\":9117:9144   */\n      swap1\n      pop\n        /* \"#utility.yul\":9154:9225   */\n      tag_334\n        /* \"#utility.yul\":9222:9223   */\n      0x00\n        /* \"#utility.yul\":9211:9220   */\n      dup4\n        /* \"#utility.yul\":9207:9224   */\n      add\n        /* \"#utility.yul\":9198:9204   */\n      dup8\n        /* \"#utility.yul\":9154:9225   */\n      tag_215\n      jump\t// in\n    tag_334:\n        /* \"#utility.yul\":9235:9307   */\n      tag_335\n        /* \"#utility.yul\":9303:9305   */\n      0x20\n        /* \"#utility.yul\":9292:9301   */\n      dup4\n        /* \"#utility.yul\":9288:9306   */\n      add\n        /* \"#utility.yul\":9279:9285   */\n      dup7\n        /* \"#utility.yul\":9235:9307   */\n      tag_214\n      jump\t// in\n    tag_335:\n        /* \"#utility.yul\":9354:9363   */\n      dup2\n        /* \"#utility.yul\":9348:9352   */\n      dup2\n        /* \"#utility.yul\":9344:9364   */\n      sub\n        /* \"#utility.yul\":9339:9341   */\n      0x40\n        /* \"#utility.yul\":9328:9337   */\n      dup4\n        /* \"#utility.yul\":9324:9342   */\n      add\n        /* \"#utility.yul\":9317:9365   */\n      mstore\n        /* \"#utility.yul\":9382:9460   */\n      tag_336\n        /* \"#utility.yul\":9455:9459   */\n      dup2\n        /* \"#utility.yul\":9446:9452   */\n      dup6\n        /* \"#utility.yul\":9382:9460   */\n      tag_217\n      jump\t// in\n    tag_336:\n        /* \"#utility.yul\":9374:9460   */\n      swap1\n      pop\n        /* \"#utility.yul\":9470:9542   */\n      tag_337\n        /* \"#utility.yul\":9538:9540   */\n      0x60\n        /* \"#utility.yul\":9527:9536   */\n      dup4\n        /* \"#utility.yul\":9523:9541   */\n      add\n        /* \"#utility.yul\":9514:9520   */\n      dup5\n        /* \"#utility.yul\":9470:9542   */\n      tag_215\n      jump\t// in\n    tag_337:\n        /* \"#utility.yul\":8905:9549   */\n      swap6\n      swap5\n      pop\n      pop\n      pop\n      pop\n      pop\n      jump\t// out\n        /* \"#utility.yul\":9555:9672   */\n    tag_218:\n        /* \"#utility.yul\":9664:9665   */\n      0x00\n        /* \"#utility.yul\":9661:9662   */\n      dup1\n        /* \"#utility.yul\":9654:9666   */\n      revert\n        /* \"#utility.yul\":9678:9795   */\n    tag_219:\n        /* \"#utility.yul\":9787:9788   */\n      0x00\n        /* \"#utility.yul\":9784:9785   */\n      dup1\n        /* \"#utility.yul\":9777:9789   */\n      revert\n        /* \"#utility.yul\":9801:9981   */\n    tag_101:\n        /* \"#utility.yul\":9849:9926   */\n      0x4e487b7100000000000000000000000000000000000000000000000000000000\n        /* \"#utility.yul\":9846:9847   */\n      0x00\n        /* \"#utility.yul\":9839:9927   */\n      mstore\n        /* \"#utility.yul\":9946:9950   */\n      0x41\n        /* \"#utility.yul\":9943:9944   */\n      0x04\n        /* \"#utility.yul\":9936:9951   */\n      mstore\n        /* \"#utility.yul\":9970:9974   */\n      0x24\n        /* \"#utility.yul\":9967:9968   */\n      0x00\n        /* \"#utility.yul\":9960:9975   */\n      revert\n        /* \"#utility.yul\":9987:10268   */\n    tag_220:\n        /* \"#utility.yul\":10070:10097   */\n      tag_342\n        /* \"#utility.yul\":10092:10096   */\n      dup3\n        /* \"#utility.yul\":10070:10097   */\n      tag_208\n      jump\t// in\n    tag_342:\n        /* \"#utility.yul\":10062:10068   */\n      dup2\n        /* \"#utility.yul\":10058:10098   */\n      add\n        /* \"#utility.yul\":10200:10206   */\n      dup2\n        /* \"#utility.yul\":10188:10198   */\n      dup2\n        /* \"#utility.yul\":10185:10207   */\n      lt\n        /* \"#utility.yul\":10164:10182   */\n      0xffffffffffffffff\n        /* \"#utility.yul\":10152:10162   */\n      dup3\n        /* \"#utility.yul\":10149:10183   */\n      gt\n        /* \"#utility.yul\":10146:10208   */\n      or\n        /* \"#utility.yul\":10143:10231   */\n      iszero\n      tag_343\n      jumpi\n        /* \"#utility.yul\":10211:10229   */\n      tag_344\n      tag_101\n      jump\t// in\n    tag_344:\n        /* \"#utility.yul\":10143:10231   */\n    tag_343:\n        /* \"#utility.yul\":10251:10261   */\n      dup1\n        /* \"#utility.yul\":10247:10249   */\n      0x40\n        /* \"#utility.yul\":10240:10262   */\n      mstore\n        /* \"#utility.yul\":10030:10268   */\n      pop\n        /* \"#utility.yul\":9987:10268   */\n      pop\n      pop\n      jump\t// out\n        /* \"#utility.yul\":10274:10403   */\n    tag_221:\n        /* \"#utility.yul\":10308:10314   */\n      0x00\n        /* \"#utility.yul\":10335:10355   */\n      tag_346\n      tag_188\n      jump\t// in\n    tag_346:\n        /* \"#utility.yul\":10325:10355   */\n      swap1\n      pop\n        /* \"#utility.yul\":10364:10397   */\n      tag_347\n        /* \"#utility.yul\":10392:10396   */\n      dup3\n        /* \"#utility.yul\":10384:10390   */\n      dup3\n        /* \"#utility.yul\":10364:10397   */\n      tag_220\n      jump\t// in\n    tag_347:\n        /* \"#utility.yul\":10274:10403   */\n      swap2\n      swap1\n      pop\n      jump\t// out\n        /* \"#utility.yul\":10409:10717   */\n    tag_222:\n        /* \"#utility.yul\":10471:10475   */\n      0x00\n        /* \"#utility.yul\":10561:10579   */\n      0xffffffffffffffff\n        /* \"#utility.yul\":10553:10559   */\n      dup3\n        /* \"#utility.yul\":10550:10580   */\n      gt\n        /* \"#utility.yul\":10547:10603   */\n      iszero\n      tag_349\n      jumpi\n        /* \"#utility.yul\":10583:10601   */\n      tag_350\n      tag_101\n      jump\t// in\n    tag_350:\n        /* \"#utility.yul\":10547:10603   */\n    tag_349:\n        /* \"#utility.yul\":10621:10650   */\n      tag_351\n        /* \"#utility.yul\":10643:10649   */\n      dup3\n        /* \"#utility.yul\":10621:10650   */\n      tag_208\n      jump\t// in\n    tag_351:\n        /* \"#utility.yul\":10613:10650   */\n      swap1\n      pop\n        /* \"#utility.yul\":10705:10709   */\n      0x20\n        /* \"#utility.yul\":10699:10703   */\n      dup2\n        /* \"#utility.yul\":10695:10710   */\n      add\n        /* \"#utility.yul\":10687:10710   */\n      swap1\n      pop\n        /* \"#utility.yul\":10409:10717   */\n      swap2\n      swap1\n      pop\n      jump\t// out\n        /* \"#utility.yul\":10723:10871   */\n    tag_223:\n        /* \"#utility.yul\":10821:10827   */\n      dup3\n        /* \"#utility.yul\":10816:10819   */\n      dup2\n        /* \"#utility.yul\":10811:10814   */\n      dup4\n        /* \"#utility.yul\":10798:10828   */\n      calldatacopy\n        /* \"#utility.yul\":10862:10863   */\n      0x00\n        /* \"#utility.yul\":10853:10859   */\n      dup4\n        /* \"#utility.yul\":10848:10851   */\n      dup4\n        /* \"#utility.yul\":10844:10860   */\n      add\n        /* \"#utility.yul\":10837:10864   */\n      mstore\n        /* \"#utility.yul\":10723:10871   */\n      pop\n      pop\n      pop\n      jump\t// out\n        /* \"#utility.yul\":10877:11302   */\n    tag_224:\n        /* \"#utility.yul\":10955:10960   */\n      0x00\n        /* \"#utility.yul\":10980:11046   */\n      tag_354\n        /* \"#utility.yul\":10996:11045   */\n      tag_355\n        /* \"#utility.yul\":11038:11044   */\n      dup5\n        /* \"#utility.yul\":10996:11045   */\n      tag_222\n      jump\t// in\n    tag_355:\n        /* \"#utility.yul\":10980:11046   */\n      tag_221\n      jump\t// in\n    tag_354:\n        /* \"#utility.yul\":10971:11046   */\n      swap1\n      pop\n        /* \"#utility.yul\":11069:11075   */\n      dup3\n        /* \"#utility.yul\":11062:11067   */\n      dup2\n        /* \"#utility.yul\":11055:11076   */\n      mstore\n        /* \"#utility.yul\":11107:11111   */\n      0x20\n        /* \"#utility.yul\":11100:11105   */\n      dup2\n        /* \"#utility.yul\":11096:11112   */\n      add\n        /* \"#utility.yul\":11145:11148   */\n      dup5\n        /* \"#utility.yul\":11136:11142   */\n      dup5\n        /* \"#utility.yul\":11131:11134   */\n      dup5\n        /* \"#utility.yul\":11127:11143   */\n      add\n        /* \"#utility.yul\":11124:11149   */\n      gt\n        /* \"#utility.yul\":11121:11233   */\n      iszero\n      tag_356\n      jumpi\n        /* \"#utility.yul\":11152:11231   */\n      tag_357\n      tag_219\n      jump\t// in\n    tag_357:\n        /* \"#utility.yul\":11121:11233   */\n    tag_356:\n        /* \"#utility.yul\":11242:11296   */\n      tag_358\n        /* \"#utility.yul\":11289:11295   */\n      dup5\n        /* \"#utility.yul\":11284:11287   */\n      dup3\n        /* \"#utility.yul\":11279:11282   */\n      dup6\n        /* \"#utility.yul\":11242:11296   */\n      tag_223\n      jump\t// in\n    tag_358:\n        /* \"#utility.yul\":10961:11302   */\n      pop\n        /* \"#utility.yul\":10877:11302   */\n      swap4\n      swap3\n      pop\n      pop\n      pop\n      jump\t// out\n        /* \"#utility.yul\":11322:11662   */\n    tag_225:\n        /* \"#utility.yul\":11378:11383   */\n      0x00\n        /* \"#utility.yul\":11427:11430   */\n      dup3\n        /* \"#utility.yul\":11420:11424   */\n      0x1f\n        /* \"#utility.yul\":11412:11418   */\n      dup4\n        /* \"#utility.yul\":11408:11425   */\n      add\n        /* \"#utility.yul\":11404:11431   */\n      slt\n        /* \"#utility.yul\":11394:11516   */\n      tag_360\n      jumpi\n        /* \"#utility.yul\":11435:11514   */\n      tag_361\n      tag_218\n      jump\t// in\n    tag_361:\n        /* \"#utility.yul\":11394:11516   */\n    tag_360:\n        /* \"#utility.yul\":11552:11558   */\n      dup2\n        /* \"#utility.yul\":11539:11559   */\n      calldataload\n        /* \"#utility.yul\":11577:11656   */\n      tag_362\n        /* \"#utility.yul\":11652:11655   */\n      dup5\n        /* \"#utility.yul\":11644:11650   */\n      dup3\n        /* \"#utility.yul\":11637:11641   */\n      0x20\n        /* \"#utility.yul\":11629:11635   */\n      dup7\n        /* \"#utility.yul\":11625:11642   */\n      add\n        /* \"#utility.yul\":11577:11656   */\n      tag_224\n      jump\t// in\n    tag_362:\n        /* \"#utility.yul\":11568:11656   */\n      swap2\n      pop\n        /* \"#utility.yul\":11384:11662   */\n      pop\n        /* \"#utility.yul\":11322:11662   */\n      swap3\n      swap2\n      pop\n      pop\n      jump\t// out\n        /* \"#utility.yul\":11668:12467   */\n    tag_57:\n        /* \"#utility.yul\":11755:11761   */\n      0x00\n        /* \"#utility.yul\":11763:11769   */\n      dup1\n        /* \"#utility.yul\":11771:11777   */\n      0x00\n        /* \"#utility.yul\":11820:11822   */\n      0x60\n        /* \"#utility.yul\":11808:11817   */\n      dup5\n        /* \"#utility.yul\":11799:11806   */\n      dup7\n        /* \"#utility.yul\":11795:11818   */\n      sub\n        /* \"#utility.yul\":11791:11823   */\n      slt\n        /* \"#utility.yul\":11788:11907   */\n      iszero\n      tag_364\n      jumpi\n        /* \"#utility.yul\":11826:11905   */\n      tag_365\n      tag_189\n      jump\t// in\n    tag_365:\n        /* \"#utility.yul\":11788:11907   */\n    tag_364:\n        /* \"#utility.yul\":11946:11947   */\n      0x00\n        /* \"#utility.yul\":11971:12024   */\n      tag_366\n        /* \"#utility.yul\":12016:12023   */\n      dup7\n        /* \"#utility.yul\":12007:12013   */\n      dup3\n        /* \"#utility.yul\":11996:12005   */\n      dup8\n        /* \"#utility.yul\":11992:12014   */\n      add\n        /* \"#utility.yul\":11971:12024   */\n      tag_194\n      jump\t// in\n    tag_366:\n        /* \"#utility.yul\":11961:12024   */\n      swap4\n      pop\n        /* \"#utility.yul\":11917:12034   */\n      pop\n        /* \"#utility.yul\":12073:12075   */\n      0x20\n        /* \"#utility.yul\":12099:12152   */\n      tag_367\n        /* \"#utility.yul\":12144:12151   */\n      dup7\n        /* \"#utility.yul\":12135:12141   */\n      dup3\n        /* \"#utility.yul\":12124:12133   */\n      dup8\n        /* \"#utility.yul\":12120:12142   */\n      add\n        /* \"#utility.yul\":12099:12152   */\n      tag_194\n      jump\t// in\n    tag_367:\n        /* \"#utility.yul\":12089:12152   */\n      swap3\n      pop\n        /* \"#utility.yul\":12044:12162   */\n      pop\n        /* \"#utility.yul\":12229:12231   */\n      0x40\n        /* \"#utility.yul\":12218:12227   */\n      dup5\n        /* \"#utility.yul\":12214:12232   */\n      add\n        /* \"#utility.yul\":12201:12233   */\n      calldataload\n        /* \"#utility.yul\":12260:12278   */\n      0xffffffffffffffff\n        /* \"#utility.yul\":12252:12258   */\n      dup2\n        /* \"#utility.yul\":12249:12279   */\n      gt\n        /* \"#utility.yul\":12246:12363   */\n      iszero\n      tag_368\n      jumpi\n        /* \"#utility.yul\":12282:12361   */\n      tag_369\n      tag_190\n      jump\t// in\n    tag_369:\n        /* \"#utility.yul\":12246:12363   */\n    tag_368:\n        /* \"#utility.yul\":12387:12450   */\n      tag_370\n        /* \"#utility.yul\":12442:12449   */\n      dup7\n        /* \"#utility.yul\":12433:12439   */\n      dup3\n        /* \"#utility.yul\":12422:12431   */\n      dup8\n        /* \"#utility.yul\":12418:12440   */\n      add\n        /* \"#utility.yul\":12387:12450   */\n      tag_225\n      jump\t// in\n    tag_370:\n        /* \"#utility.yul\":12377:12450   */\n      swap2\n      pop\n        /* \"#utility.yul\":12172:12460   */\n      pop\n        /* \"#utility.yul\":11668:12467   */\n      swap3\n      pop\n      swap3\n      pop\n      swap3\n      jump\t// out\n        /* \"#utility.yul\":12473:13228   */\n    tag_63:\n        /* \"#utility.yul\":12698:12702   */\n      0x00\n        /* \"#utility.yul\":12736:12739   */\n      0xa0\n        /* \"#utility.yul\":12725:12734   */\n      dup3\n        /* \"#utility.yul\":12721:12740   */\n      add\n        /* \"#utility.yul\":12713:12740   */\n      swap1\n      pop\n        /* \"#utility.yul\":12750:12821   */\n      tag_372\n        /* \"#utility.yul\":12818:12819   */\n      0x00\n        /* \"#utility.yul\":12807:12816   */\n      dup4\n        /* \"#utility.yul\":12803:12820   */\n      add\n        /* \"#utility.yul\":12794:12800   */\n      dup9\n        /* \"#utility.yul\":12750:12821   */\n      tag_215\n      jump\t// in\n    tag_372:\n        /* \"#utility.yul\":12868:12877   */\n      dup2\n        /* \"#utility.yul\":12862:12866   */\n      dup2\n        /* \"#utility.yul\":12858:12878   */\n      sub\n        /* \"#utility.yul\":12853:12855   */\n      0x20\n        /* \"#utility.yul\":12842:12851   */\n      dup4\n        /* \"#utility.yul\":12838:12856   */\n      add\n        /* \"#utility.yul\":12831:12879   */\n      mstore\n        /* \"#utility.yul\":12896:12974   */\n      tag_373\n        /* \"#utility.yul\":12969:12973   */\n      dup2\n        /* \"#utility.yul\":12960:12966   */\n      dup8\n        /* \"#utility.yul\":12896:12974   */\n      tag_217\n      jump\t// in\n    tag_373:\n        /* \"#utility.yul\":12888:12974   */\n      swap1\n      pop\n        /* \"#utility.yul\":12984:13056   */\n      tag_374\n        /* \"#utility.yul\":13052:13054   */\n      0x40\n        /* \"#utility.yul\":13041:13050   */\n      dup4\n        /* \"#utility.yul\":13037:13055   */\n      add\n        /* \"#utility.yul\":13028:13034   */\n      dup7\n        /* \"#utility.yul\":12984:13056   */\n      tag_214\n      jump\t// in\n    tag_374:\n        /* \"#utility.yul\":13066:13138   */\n      tag_375\n        /* \"#utility.yul\":13134:13136   */\n      0x60\n        /* \"#utility.yul\":13123:13132   */\n      dup4\n        /* \"#utility.yul\":13119:13137   */\n      add\n        /* \"#utility.yul\":13110:13116   */\n      dup6\n        /* \"#utility.yul\":13066:13138   */\n      tag_214\n      jump\t// in\n    tag_375:\n        /* \"#utility.yul\":13148:13221   */\n      tag_376\n        /* \"#utility.yul\":13216:13219   */\n      0x80\n        /* \"#utility.yul\":13205:13214   */\n      dup4\n        /* \"#utility.yul\":13201:13220   */\n      add\n        /* \"#utility.yul\":13192:13198   */\n      dup5\n        /* \"#utility.yul\":13148:13221   */\n      tag_215\n      jump\t// in\n    tag_376:\n        /* \"#utility.yul\":12473:13228   */\n      swap7\n      swap6\n      pop\n      pop\n      pop\n      pop\n      pop\n      pop\n      jump\t// out\n        /* \"#utility.yul\":13234:13888   */\n    tag_70:\n        /* \"#utility.yul\":13312:13318   */\n      0x00\n        /* \"#utility.yul\":13320:13326   */\n      dup1\n        /* \"#utility.yul\":13369:13371   */\n      0x40\n        /* \"#utility.yul\":13357:13366   */\n      dup4\n        /* \"#utility.yul\":13348:13355   */\n      dup6\n        /* \"#utility.yul\":13344:13367   */\n      sub\n        /* \"#utility.yul\":13340:13372   */\n      slt\n        /* \"#utility.yul\":13337:13456   */\n      iszero\n      tag_378\n      jumpi\n        /* \"#utility.yul\":13375:13454   */\n      tag_379\n      tag_189\n      jump\t// in\n    tag_379:\n        /* \"#utility.yul\":13337:13456   */\n    tag_378:\n        /* \"#utility.yul\":13495:13496   */\n      0x00\n        /* \"#utility.yul\":13520:13573   */\n      tag_380\n        /* \"#utility.yul\":13565:13572   */\n      dup6\n        /* \"#utility.yul\":13556:13562   */\n      dup3\n        /* \"#utility.yul\":13545:13554   */\n      dup7\n        /* \"#utility.yul\":13541:13563   */\n      add\n        /* \"#utility.yul\":13520:13573   */\n      tag_194\n      jump\t// in\n    tag_380:\n        /* \"#utility.yul\":13510:13573   */\n      swap3\n      pop\n        /* \"#utility.yul\":13466:13583   */\n      pop\n        /* \"#utility.yul\":13650:13652   */\n      0x20\n        /* \"#utility.yul\":13639:13648   */\n      dup4\n        /* \"#utility.yul\":13635:13653   */\n      add\n        /* \"#utility.yul\":13622:13654   */\n      calldataload\n        /* \"#utility.yul\":13681:13699   */\n      0xffffffffffffffff\n        /* \"#utility.yul\":13673:13679   */\n      dup2\n        /* \"#utility.yul\":13670:13700   */\n      gt\n        /* \"#utility.yul\":13667:13784   */\n      iszero\n      tag_381\n      jumpi\n        /* \"#utility.yul\":13703:13782   */\n      tag_382\n      tag_190\n      jump\t// in\n    tag_382:\n        /* \"#utility.yul\":13667:13784   */\n    tag_381:\n        /* \"#utility.yul\":13808:13871   */\n      tag_383\n        /* \"#utility.yul\":13863:13870   */\n      dup6\n        /* \"#utility.yul\":13854:13860   */\n      dup3\n        /* \"#utility.yul\":13843:13852   */\n      dup7\n        /* \"#utility.yul\":13839:13861   */\n      add\n        /* \"#utility.yul\":13808:13871   */\n      tag_225\n      jump\t// in\n    tag_383:\n        /* \"#utility.yul\":13798:13871   */\n      swap2\n      pop\n        /* \"#utility.yul\":13593:13881   */\n      pop\n        /* \"#utility.yul\":13234:13888   */\n      swap3\n      pop\n      swap3\n      swap1\n      pop\n      jump\t// out\n        /* \"#utility.yul\":13894:14116   */\n    tag_83:\n        /* \"#utility.yul\":13987:13991   */\n      0x00\n        /* \"#utility.yul\":14025:14027   */\n      0x20\n        /* \"#utility.yul\":14014:14023   */\n      dup3\n        /* \"#utility.yul\":14010:14028   */\n      add\n        /* \"#utility.yul\":14002:14028   */\n      swap1\n      pop\n        /* \"#utility.yul\":14038:14109   */\n      tag_385\n        /* \"#utility.yul\":14106:14107   */\n      0x00\n        /* \"#utility.yul\":14095:14104   */\n      dup4\n        /* \"#utility.yul\":14091:14108   */\n      add\n        /* \"#utility.yul\":14082:14088   */\n      dup5\n        /* \"#utility.yul\":14038:14109   */\n      tag_215\n      jump\t// in\n    tag_385:\n        /* \"#utility.yul\":13894:14116   */\n      swap3\n      swap2\n      pop\n      pop\n      jump\t// out\n        /* \"#utility.yul\":14122:14631   */\n    tag_86:\n        /* \"#utility.yul\":14191:14197   */\n      0x00\n        /* \"#utility.yul\":14240:14242   */\n      0x20\n        /* \"#utility.yul\":14228:14237   */\n      dup3\n        /* \"#utility.yul\":14219:14226   */\n      dup5\n        /* \"#utility.yul\":14215:14238   */\n      sub\n        /* \"#utility.yul\":14211:14243   */\n      slt\n        /* \"#utility.yul\":14208:14327   */\n      iszero\n      tag_387\n      jumpi\n        /* \"#utility.yul\":14246:14325   */\n      tag_388\n      tag_189\n      jump\t// in\n    tag_388:\n        /* \"#utility.yul\":14208:14327   */\n    tag_387:\n        /* \"#utility.yul\":14394:14395   */\n      0x00\n        /* \"#utility.yul\":14383:14392   */\n      dup3\n        /* \"#utility.yul\":14379:14396   */\n      add\n        /* \"#utility.yul\":14366:14397   */\n      calldataload\n        /* \"#utility.yul\":14424:14442   */\n      0xffffffffffffffff\n        /* \"#utility.yul\":14416:14422   */\n      dup2\n        /* \"#utility.yul\":14413:14443   */\n      gt\n        /* \"#utility.yul\":14410:14527   */\n      iszero\n      tag_389\n      jumpi\n        /* \"#utility.yul\":14446:14525   */\n      tag_390\n      tag_190\n      jump\t// in\n    tag_390:\n        /* \"#utility.yul\":14410:14527   */\n    tag_389:\n        /* \"#utility.yul\":14551:14614   */\n      tag_391\n        /* \"#utility.yul\":14606:14613   */\n      dup5\n        /* \"#utility.yul\":14597:14603   */\n      dup3\n        /* \"#utility.yul\":14586:14595   */\n      dup6\n        /* \"#utility.yul\":14582:14604   */\n      add\n        /* \"#utility.yul\":14551:14614   */\n      tag_225\n      jump\t// in\n    tag_391:\n        /* \"#utility.yul\":14541:14614   */\n      swap2\n      pop\n        /* \"#utility.yul\":14337:14624   */\n      pop\n        /* \"#utility.yul\":14122:14631   */\n      swap3\n      swap2\n      pop\n      pop\n      jump\t// out\n        /* \"#utility.yul\":14637:14806   */\n    tag_226:\n        /* \"#utility.yul\":14777:14798   */\n      0x436f756e74206973206e6f742070726f70657200000000000000000000000000\n        /* \"#utility.yul\":14773:14774   */\n      0x00\n        /* \"#utility.yul\":14765:14771   */\n      dup3\n        /* \"#utility.yul\":14761:14775   */\n      add\n        /* \"#utility.yul\":14754:14799   */\n      mstore\n        /* \"#utility.yul\":14637:14806   */\n      pop\n      jump\t// out\n        /* \"#utility.yul\":14812:15178   */\n    tag_227:\n        /* \"#utility.yul\":14954:14957   */\n      0x00\n        /* \"#utility.yul\":14975:15042   */\n      tag_394\n        /* \"#utility.yul\":15039:15041   */\n      0x13\n        /* \"#utility.yul\":15034:15037   */\n      dup4\n        /* \"#utility.yul\":14975:15042   */\n      tag_216\n      jump\t// in\n    tag_394:\n        /* \"#utility.yul\":14968:15042   */\n      swap2\n      pop\n        /* \"#utility.yul\":15051:15144   */\n      tag_395\n        /* \"#utility.yul\":15140:15143   */\n      dup3\n        /* \"#utility.yul\":15051:15144   */\n      tag_226\n      jump\t// in\n    tag_395:\n        /* \"#utility.yul\":15169:15171   */\n      0x20\n        /* \"#utility.yul\":15164:15167   */\n      dup3\n        /* \"#utility.yul\":15160:15172   */\n      add\n        /* \"#utility.yul\":15153:15172   */\n      swap1\n      pop\n        /* \"#utility.yul\":14812:15178   */\n      swap2\n      swap1\n      pop\n      jump\t// out\n        /* \"#utility.yul\":15184:15603   */\n    tag_98:\n        /* \"#utility.yul\":15350:15354   */\n      0x00\n        /* \"#utility.yul\":15388:15390   */\n      0x20\n        /* \"#utility.yul\":15377:15386   */\n      dup3\n        /* \"#utility.yul\":15373:15391   */\n      add\n        /* \"#utility.yul\":15365:15391   */\n      swap1\n      pop\n        /* \"#utility.yul\":15437:15446   */\n      dup2\n        /* \"#utility.yul\":15431:15435   */\n      dup2\n        /* \"#utility.yul\":15427:15447   */\n      sub\n        /* \"#utility.yul\":15423:15424   */\n      0x00\n        /* \"#utility.yul\":15412:15421   */\n      dup4\n        /* \"#utility.yul\":15408:15425   */\n      add\n        /* \"#utility.yul\":15401:15448   */\n      mstore\n        /* \"#utility.yul\":15465:15596   */\n      tag_397\n        /* \"#utility.yul\":15591:15595   */\n      dup2\n        /* \"#utility.yul\":15465:15596   */\n      tag_227\n      jump\t// in\n    tag_397:\n        /* \"#utility.yul\":15457:15596   */\n      swap1\n      pop\n        /* \"#utility.yul\":15184:15603   */\n      swap2\n      swap1\n      pop\n      jump\t// out\n        /* \"#utility.yul\":15609:15789   */\n    tag_228:\n        /* \"#utility.yul\":15657:15734   */\n      0x4e487b7100000000000000000000000000000000000000000000000000000000\n        /* \"#utility.yul\":15654:15655   */\n      0x00\n        /* \"#utility.yul\":15647:15735   */\n      mstore\n        /* \"#utility.yul\":15754:15758   */\n      0x11\n        /* \"#utility.yul\":15751:15752   */\n      0x04\n        /* \"#utility.yul\":15744:15759   */\n      mstore\n        /* \"#utility.yul\":15778:15782   */\n      0x24\n        /* \"#utility.yul\":15775:15776   */\n      0x00\n        /* \"#utility.yul\":15768:15783   */\n      revert\n        /* \"#utility.yul\":15795:15989   */\n    tag_110:\n        /* \"#utility.yul\":15835:15839   */\n      0x00\n        /* \"#utility.yul\":15855:15875   */\n      tag_400\n        /* \"#utility.yul\":15873:15874   */\n      dup3\n        /* \"#utility.yul\":15855:15875   */\n      tag_197\n      jump\t// in\n    tag_400:\n        /* \"#utility.yul\":15850:15875   */\n      swap2\n      pop\n        /* \"#utility.yul\":15889:15909   */\n      tag_401\n        /* \"#utility.yul\":15907:15908   */\n      dup4\n        /* \"#utility.yul\":15889:15909   */\n      tag_197\n      jump\t// in\n    tag_401:\n        /* \"#utility.yul\":15884:15909   */\n      swap3\n      pop\n        /* \"#utility.yul\":15933:15934   */\n      dup3\n        /* \"#utility.yul\":15930:15931   */\n      dup3\n        /* \"#utility.yul\":15926:15935   */\n      sub\n        /* \"#utility.yul\":15918:15935   */\n      swap1\n      pop\n        /* \"#utility.yul\":15957:15958   */\n      dup2\n        /* \"#utility.yul\":15951:15955   */\n      dup2\n        /* \"#utility.yul\":15948:15959   */\n      gt\n        /* \"#utility.yul\":15945:15982   */\n      iszero\n      tag_402\n      jumpi\n        /* \"#utility.yul\":15962:15980   */\n      tag_403\n      tag_228\n      jump\t// in\n    tag_403:\n        /* \"#utility.yul\":15945:15982   */\n    tag_402:\n        /* \"#utility.yul\":15795:15989   */\n      swap3\n      swap2\n      pop\n      pop\n      jump\t// out\n        /* \"#utility.yul\":15995:16175   */\n    tag_229:\n        /* \"#utility.yul\":16043:16120   */\n      0x4e487b7100000000000000000000000000000000000000000000000000000000\n        /* \"#utility.yul\":16040:16041   */\n      0x00\n        /* \"#utility.yul\":16033:16121   */\n      mstore\n        /* \"#utility.yul\":16140:16144   */\n      0x22\n        /* \"#utility.yul\":16137:16138   */\n      0x04\n        /* \"#utility.yul\":16130:16145   */\n      mstore\n        /* \"#utility.yul\":16164:16168   */\n      0x24\n        /* \"#utility.yul\":16161:16162   */\n      0x00\n        /* \"#utility.yul\":16154:16169   */\n      revert\n        /* \"#utility.yul\":16181:16501   */\n    tag_112:\n        /* \"#utility.yul\":16225:16231   */\n      0x00\n        /* \"#utility.yul\":16262:16263   */\n      0x02\n        /* \"#utility.yul\":16256:16260   */\n      dup3\n        /* \"#utility.yul\":16252:16264   */\n      div\n        /* \"#utility.yul\":16242:16264   */\n      swap1\n      pop\n        /* \"#utility.yul\":16309:16310   */\n      0x01\n        /* \"#utility.yul\":16303:16307   */\n      dup3\n        /* \"#utility.yul\":16299:16311   */\n      and\n        /* \"#utility.yul\":16330:16348   */\n      dup1\n        /* \"#utility.yul\":16320:16401   */\n      tag_406\n      jumpi\n        /* \"#utility.yul\":16386:16390   */\n      0x7f\n        /* \"#utility.yul\":16378:16384   */\n      dup3\n        /* \"#utility.yul\":16374:16391   */\n      and\n        /* \"#utility.yul\":16364:16391   */\n      swap2\n      pop\n        /* \"#utility.yul\":16320:16401   */\n    tag_406:\n        /* \"#utility.yul\":16448:16450   */\n      0x20\n        /* \"#utility.yul\":16440:16446   */\n      dup3\n        /* \"#utility.yul\":16437:16451   */\n      lt\n        /* \"#utility.yul\":16417:16435   */\n      dup2\n        /* \"#utility.yul\":16414:16452   */\n      sub\n        /* \"#utility.yul\":16411:16495   */\n      tag_407\n      jumpi\n        /* \"#utility.yul\":16467:16485   */\n      tag_408\n      tag_229\n      jump\t// in\n    tag_408:\n        /* \"#utility.yul\":16411:16495   */\n    tag_407:\n        /* \"#utility.yul\":16232:16501   */\n      pop\n        /* \"#utility.yul\":16181:16501   */\n      swap2\n      swap1\n      pop\n      jump\t// out\n        /* \"#utility.yul\":16507:16687   */\n    tag_119:\n        /* \"#utility.yul\":16555:16632   */\n      0x4e487b7100000000000000000000000000000000000000000000000000000000\n        /* \"#utility.yul\":16552:16553   */\n      0x00\n        /* \"#utility.yul\":16545:16633   */\n      mstore\n        /* \"#utility.yul\":16652:16656   */\n      0x32\n        /* \"#utility.yul\":16649:16650   */\n      0x04\n        /* \"#utility.yul\":16642:16657   */\n      mstore\n        /* \"#utility.yul\":16676:16680   */\n      0x24\n        /* \"#utility.yul\":16673:16674   */\n      0x00\n        /* \"#utility.yul\":16666:16681   */\n      revert\n        /* \"#utility.yul\":16693:16926   */\n    tag_121:\n        /* \"#utility.yul\":16732:16735   */\n      0x00\n        /* \"#utility.yul\":16755:16779   */\n      tag_411\n        /* \"#utility.yul\":16773:16778   */\n      dup3\n        /* \"#utility.yul\":16755:16779   */\n      tag_197\n      jump\t// in\n    tag_411:\n        /* \"#utility.yul\":16746:16779   */\n      swap2\n      pop\n        /* \"#utility.yul\":16801:16867   */\n      0xffffffffffffffffffffffffffffffffffffffffffffffffffffffffffffffff\n        /* \"#utility.yul\":16794:16799   */\n      dup3\n        /* \"#utility.yul\":16791:16868   */\n      sub\n        /* \"#utility.yul\":16788:16891   */\n      tag_412\n      jumpi\n        /* \"#utility.yul\":16871:16889   */\n      tag_413\n      tag_228\n      jump\t// in\n    tag_413:\n        /* \"#utility.yul\":16788:16891   */\n    tag_412:\n        /* \"#utility.yul\":16918:16919   */\n      0x01\n        /* \"#utility.yul\":16911:16916   */\n      dup3\n        /* \"#utility.yul\":16907:16920   */\n      add\n        /* \"#utility.yul\":16900:16920   */\n      swap1\n      pop\n        /* \"#utility.yul\":16693:16926   */\n      swap2\n      swap1\n      pop\n      jump\t// out\n        /* \"#utility.yul\":16932:17073   */\n    tag_230:\n        /* \"#utility.yul\":16981:16985   */\n      0x00\n        /* \"#utility.yul\":17004:17007   */\n      dup2\n        /* \"#utility.yul\":16996:17007   */\n      swap1\n      pop\n        /* \"#utility.yul\":17027:17030   */\n      dup2\n        /* \"#utility.yul\":17024:17025   */\n      0x00\n        /* \"#utility.yul\":17017:17031   */\n      mstore\n        /* \"#utility.yul\":17061:17065   */\n      0x20\n        /* \"#utility.yul\":17058:17059   */\n      0x00\n        /* \"#utility.yul\":17048:17066   */\n      keccak256\n        /* \"#utility.yul\":17040:17066   */\n      swap1\n      pop\n        /* \"#utility.yul\":16932:17073   */\n      swap2\n      swap1\n      pop\n      jump\t// out\n        /* \"#utility.yul\":17079:17172   */\n    tag_231:\n        /* \"#utility.yul\":17116:17122   */\n      0x00\n        /* \"#utility.yul\":17163:17165   */\n      0x20\n        /* \"#utility.yul\":17158:17160   */\n      0x1f\n        /* \"#utility.yul\":17151:17156   */\n      dup4\n        /* \"#utility.yul\":17147:17161   */\n      add\n        /* \"#utility.yul\":17143:17166   */\n      div\n        /* \"#utility.yul\":17133:17166   */\n      swap1\n      pop\n        /* \"#utility.yul\":17079:17172   */\n      swap2\n      swap1\n      pop\n      jump\t// out\n        /* \"#utility.yul\":17178:17285   */\n    tag_232:\n        /* \"#utility.yul\":17222:17230   */\n      0x00\n        /* \"#utility.yul\":17272:17277   */\n      dup3\n        /* \"#utility.yul\":17266:17270   */\n      dup3\n        /* \"#utility.yul\":17262:17278   */\n      shl\n        /* \"#utility.yul\":17241:17278   */\n      swap1\n      pop\n        /* \"#utility.yul\":17178:17285   */\n      swap3\n      swap2\n      pop\n      pop\n      jump\t// out\n        /* \"#utility.yul\":17291:17684   */\n    tag_233:\n        /* \"#utility.yul\":17360:17366   */\n      0x00\n        /* \"#utility.yul\":17410:17411   */\n      0x08\n        /* \"#utility.yul\":17398:17408   */\n      dup4\n        /* \"#utility.yul\":17394:17412   */\n      mul\n        /* \"#utility.yul\":17433:17530   */\n      tag_418\n        /* \"#utility.yul\":17463:17529   */\n      0xffffffffffffffffffffffffffffffffffffffffffffffffffffffffffffffff\n        /* \"#utility.yul\":17452:17461   */\n      dup3\n        /* \"#utility.yul\":17433:17530   */\n      tag_232\n      jump\t// in\n    tag_418:\n        /* \"#utility.yul\":17551:17590   */\n      tag_419\n        /* \"#utility.yul\":17581:17589   */\n      dup7\n        /* \"#utility.yul\":17570:17579   */\n      dup4\n        /* \"#utility.yul\":17551:17590   */\n      tag_232\n      jump\t// in\n    tag_419:\n        /* \"#utility.yul\":17539:17590   */\n      swap6\n      pop\n        /* \"#utility.yul\":17623:17627   */\n      dup1\n        /* \"#utility.yul\":17619:17628   */\n      not\n        /* \"#utility.yul\":17612:17617   */\n      dup5\n        /* \"#utility.yul\":17608:17629   */\n      and\n        /* \"#utility.yul\":17599:17629   */\n      swap4\n      pop\n        /* \"#utility.yul\":17672:17676   */\n      dup1\n        /* \"#utility.yul\":17662:17670   */\n      dup7\n        /* \"#utility.yul\":17658:17677   */\n      and\n        /* \"#utility.yul\":17651:17656   */\n      dup5\n        /* \"#utility.yul\":17648:17678   */\n      or\n        /* \"#utility.yul\":17638:17678   */\n      swap3\n      pop\n        /* \"#utility.yul\":17367:17684   */\n      pop\n      pop\n        /* \"#utility.yul\":17291:17684   */\n      swap4\n      swap3\n      pop\n      pop\n      pop\n      jump\t// out\n        /* \"#utility.yul\":17690:17750   */\n    tag_234:\n        /* \"#utility.yul\":17718:17721   */\n      0x00\n        /* \"#utility.yul\":17739:17744   */\n      dup2\n        /* \"#utility.yul\":17732:17744   */\n      swap1\n      pop\n        /* \"#utility.yul\":17690:17750   */\n      swap2\n      swap1\n      pop\n      jump\t// out\n        /* \"#utility.yul\":17756:17898   */\n    tag_235:\n        /* \"#utility.yul\":17806:17815   */\n      0x00\n        /* \"#utility.yul\":17839:17892   */\n      tag_422\n        /* \"#utility.yul\":17857:17891   */\n      tag_423\n        /* \"#utility.yul\":17866:17890   */\n      tag_424\n        /* \"#utility.yul\":17884:17889   */\n      dup5\n        /* \"#utility.yul\":17866:17890   */\n      tag_197\n      jump\t// in\n    tag_424:\n        /* \"#utility.yul\":17857:17891   */\n      tag_234\n      jump\t// in\n    tag_423:\n        /* \"#utility.yul\":17839:17892   */\n      tag_197\n      jump\t// in\n    tag_422:\n        /* \"#utility.yul\":17826:17892   */\n      swap1\n      pop\n        /* \"#utility.yul\":17756:17898   */\n      swap2\n      swap1\n      pop\n      jump\t// out\n        /* \"#utility.yul\":17904:17979   */\n    tag_236:\n        /* \"#utility.yul\":17947:17950   */\n      0x00\n        /* \"#utility.yul\":17968:17973   */\n      dup2\n        /* \"#utility.yul\":17961:17973   */\n      swap1\n      pop\n        /* \"#utility.yul\":17904:17979   */\n      swap2\n      swap1\n      pop\n      jump\t// out\n        /* \"#utility.yul\":17985:18254   */\n    tag_237:\n        /* \"#utility.yul\":18095:18134   */\n      tag_427\n        /* \"#utility.yul\":18126:18133   */\n      dup4\n        /* \"#utility.yul\":18095:18134   */\n      tag_235\n      jump\t// in\n    tag_427:\n        /* \"#utility.yul\":18156:18247   */\n      tag_428\n        /* \"#utility.yul\":18205:18246   */\n      tag_429\n        /* \"#utility.yul\":18229:18245   */\n      dup3\n        /* \"#utility.yul\":18205:18246   */\n      tag_236\n      jump\t// in\n    tag_429:\n        /* \"#utility.yul\":18197:18203   */\n      dup5\n        /* \"#utility.yul\":18190:18194   */\n      dup5\n        /* \"#utility.yul\":18184:18195   */\n      sload\n        /* \"#utility.yul\":18156:18247   */\n      tag_233\n      jump\t// in\n    tag_428:\n        /* \"#utility.yul\":18150:18154   */\n      dup3\n        /* \"#utility.yul\":18143:18248   */\n      sstore\n        /* \"#utility.yul\":18061:18254   */\n      pop\n        /* \"#utility.yul\":17985:18254   */\n      pop\n      pop\n      pop\n      jump\t// out\n        /* \"#utility.yul\":18260:18333   */\n    tag_238:\n        /* \"#utility.yul\":18305:18308   */\n      0x00\n        /* \"#utility.yul\":18260:18333   */\n      swap1\n      jump\t// out\n        /* \"#utility.yul\":18339:18528   */\n    tag_239:\n        /* \"#utility.yul\":18416:18448   */\n      tag_432\n      tag_238\n      jump\t// in\n    tag_432:\n        /* \"#utility.yul\":18457:18522   */\n      tag_433\n        /* \"#utility.yul\":18515:18521   */\n      dup2\n        /* \"#utility.yul\":18507:18513   */\n      dup5\n        /* \"#utility.yul\":18501:18505   */\n      dup5\n        /* \"#utility.yul\":18457:18522   */\n      tag_237\n      jump\t// in\n    tag_433:\n        /* \"#utility.yul\":18392:18528   */\n      pop\n        /* \"#utility.yul\":18339:18528   */\n      pop\n      pop\n      jump\t// out\n        /* \"#utility.yul\":18534:18720   */\n    tag_240:\n        /* \"#utility.yul\":18594:18714   */\n    tag_435:\n        /* \"#utility.yul\":18611:18614   */\n      dup2\n        /* \"#utility.yul\":18604:18609   */\n      dup2\n        /* \"#utility.yul\":18601:18615   */\n      lt\n        /* \"#utility.yul\":18594:18714   */\n      iszero\n      tag_437\n      jumpi\n        /* \"#utility.yul\":18665:18704   */\n      tag_438\n        /* \"#utility.yul\":18702:18703   */\n      0x00\n        /* \"#utility.yul\":18695:18700   */\n      dup3\n        /* \"#utility.yul\":18665:18704   */\n      tag_239\n      jump\t// in\n    tag_438:\n        /* \"#utility.yul\":18638:18639   */\n      0x01\n        /* \"#utility.yul\":18631:18636   */\n      dup2\n        /* \"#utility.yul\":18627:18640   */\n      add\n        /* \"#utility.yul\":18618:18640   */\n      swap1\n      pop\n        /* \"#utility.yul\":18594:18714   */\n      jump(tag_435)\n    tag_437:\n        /* \"#utility.yul\":18534:18720   */\n      pop\n      pop\n      jump\t// out\n        /* \"#utility.yul\":18726:19269   */\n    tag_241:\n        /* \"#utility.yul\":18827:18829   */\n      0x1f\n        /* \"#utility.yul\":18822:18825   */\n      dup3\n        /* \"#utility.yul\":18819:18830   */\n      gt\n        /* \"#utility.yul\":18816:19262   */\n      iszero\n      tag_440\n      jumpi\n        /* \"#utility.yul\":18861:18899   */\n      tag_441\n        /* \"#utility.yul\":18893:18898   */\n      dup2\n        /* \"#utility.yul\":18861:18899   */\n      tag_230\n      jump\t// in\n    tag_441:\n        /* \"#utility.yul\":18945:18974   */\n      tag_442\n        /* \"#utility.yul\":18963:18973   */\n      dup5\n        /* \"#utility.yul\":18945:18974   */\n      tag_231\n      jump\t// in\n    tag_442:\n        /* \"#utility.yul\":18935:18943   */\n      dup2\n        /* \"#utility.yul\":18931:18975   */\n      add\n        /* \"#utility.yul\":19128:19130   */\n      0x20\n        /* \"#utility.yul\":19116:19126   */\n      dup6\n        /* \"#utility.yul\":19113:19131   */\n      lt\n        /* \"#utility.yul\":19110:19159   */\n      iszero\n      tag_443\n      jumpi\n        /* \"#utility.yul\":19149:19157   */\n      dup2\n        /* \"#utility.yul\":19134:19157   */\n      swap1\n      pop\n        /* \"#utility.yul\":19110:19159   */\n    tag_443:\n        /* \"#utility.yul\":19172:19252   */\n      tag_444\n        /* \"#utility.yul\":19228:19250   */\n      tag_445\n        /* \"#utility.yul\":19246:19249   */\n      dup6\n        /* \"#utility.yul\":19228:19250   */\n      tag_231\n      jump\t// in\n    tag_445:\n        /* \"#utility.yul\":19218:19226   */\n      dup4\n        /* \"#utility.yul\":19214:19251   */\n      add\n        /* \"#utility.yul\":19201:19212   */\n      dup3\n        /* \"#utility.yul\":19172:19252   */\n      tag_240\n      jump\t// in\n    tag_444:\n        /* \"#utility.yul\":18831:19262   */\n      pop\n      pop\n        /* \"#utility.yul\":18816:19262   */\n    tag_440:\n        /* \"#utility.yul\":18726:19269   */\n      pop\n      pop\n      pop\n      jump\t// out\n        /* \"#utility.yul\":19275:19392   */\n    tag_242:\n        /* \"#utility.yul\":19329:19337   */\n      0x00\n        /* \"#utility.yul\":19379:19384   */\n      dup3\n        /* \"#utility.yul\":19373:19377   */\n      dup3\n        /* \"#utility.yul\":19369:19385   */\n      shr\n        /* \"#utility.yul\":19348:19385   */\n      swap1\n      pop\n        /* \"#utility.yul\":19275:19392   */\n      swap3\n      swap2\n      pop\n      pop\n      jump\t// out\n        /* \"#utility.yul\":19398:19567   */\n    tag_243:\n        /* \"#utility.yul\":19442:19448   */\n      0x00\n        /* \"#utility.yul\":19475:19526   */\n      tag_448\n        /* \"#utility.yul\":19523:19524   */\n      0x00\n        /* \"#utility.yul\":19519:19525   */\n      not\n        /* \"#utility.yul\":19511:19516   */\n      dup5\n        /* \"#utility.yul\":19508:19509   */\n      0x08\n        /* \"#utility.yul\":19504:19517   */\n      mul\n        /* \"#utility.yul\":19475:19526   */\n      tag_242\n      jump\t// in\n    tag_448:\n        /* \"#utility.yul\":19471:19527   */\n      not\n        /* \"#utility.yul\":19556:19560   */\n      dup1\n        /* \"#utility.yul\":19550:19554   */\n      dup4\n        /* \"#utility.yul\":19546:19561   */\n      and\n        /* \"#utility.yul\":19536:19561   */\n      swap2\n      pop\n        /* \"#utility.yul\":19449:19567   */\n      pop\n        /* \"#utility.yul\":19398:19567   */\n      swap3\n      swap2\n      pop\n      pop\n      jump\t// out\n        /* \"#utility.yul\":19572:19867   */\n    tag_244:\n        /* \"#utility.yul\":19648:19652   */\n      0x00\n        /* \"#utility.yul\":19794:19823   */\n      tag_450\n        /* \"#utility.yul\":19819:19822   */\n      dup4\n        /* \"#utility.yul\":19813:19817   */\n      dup4\n        /* \"#utility.yul\":19794:19823   */\n      tag_243\n      jump\t// in\n    tag_450:\n        /* \"#utility.yul\":19786:19823   */\n      swap2\n      pop\n        /* \"#utility.yul\":19856:19859   */\n      dup3\n        /* \"#utility.yul\":19853:19854   */\n      0x02\n        /* \"#utility.yul\":19849:19860   */\n      mul\n        /* \"#utility.yul\":19843:19847   */\n      dup3\n        /* \"#utility.yul\":19840:19861   */\n      or\n        /* \"#utility.yul\":19832:19861   */\n      swap1\n      pop\n        /* \"#utility.yul\":19572:19867   */\n      swap3\n      swap2\n      pop\n      pop\n      jump\t// out\n        /* \"#utility.yul\":19872:21267   */\n    tag_182:\n        /* \"#utility.yul\":19989:20026   */\n      tag_452\n        /* \"#utility.yul\":20022:20025   */\n      dup3\n        /* \"#utility.yul\":19989:20026   */\n      tag_205\n      jump\t// in\n    tag_452:\n        /* \"#utility.yul\":20091:20109   */\n      0xffffffffffffffff\n        /* \"#utility.yul\":20083:20089   */\n      dup2\n        /* \"#utility.yul\":20080:20110   */\n      gt\n        /* \"#utility.yul\":20077:20133   */\n      iszero\n      tag_453\n      jumpi\n        /* \"#utility.yul\":20113:20131   */\n      tag_454\n      tag_101\n      jump\t// in\n    tag_454:\n        /* \"#utility.yul\":20077:20133   */\n    tag_453:\n        /* \"#utility.yul\":20157:20195   */\n      tag_455\n        /* \"#utility.yul\":20189:20193   */\n      dup3\n        /* \"#utility.yul\":20183:20194   */\n      sload\n        /* \"#utility.yul\":20157:20195   */\n      tag_112\n      jump\t// in\n    tag_455:\n        /* \"#utility.yul\":20242:20309   */\n      tag_456\n        /* \"#utility.yul\":20302:20308   */\n      dup3\n        /* \"#utility.yul\":20294:20300   */\n      dup3\n        /* \"#utility.yul\":20288:20292   */\n      dup6\n        /* \"#utility.yul\":20242:20309   */\n      tag_241\n      jump\t// in\n    tag_456:\n        /* \"#utility.yul\":20336:20337   */\n      0x00\n        /* \"#utility.yul\":20360:20364   */\n      0x20\n        /* \"#utility.yul\":20347:20364   */\n      swap1\n      pop\n        /* \"#utility.yul\":20392:20394   */\n      0x1f\n        /* \"#utility.yul\":20384:20390   */\n      dup4\n        /* \"#utility.yul\":20381:20395   */\n      gt\n        /* \"#utility.yul\":20409:20410   */\n      0x01\n        /* \"#utility.yul\":20404:21022   */\n      dup2\n      eq\n      tag_458\n      jumpi\n        /* \"#utility.yul\":21066:21067   */\n      0x00\n        /* \"#utility.yul\":21083:21089   */\n      dup5\n        /* \"#utility.yul\":21080:21157   */\n      iszero\n      tag_459\n      jumpi\n        /* \"#utility.yul\":21132:21141   */\n      dup3\n        /* \"#utility.yul\":21127:21130   */\n      dup8\n        /* \"#utility.yul\":21123:21142   */\n      add\n        /* \"#utility.yul\":21117:21143   */\n      mload\n        /* \"#utility.yul\":21108:21143   */\n      swap1\n      pop\n        /* \"#utility.yul\":21080:21157   */\n    tag_459:\n        /* \"#utility.yul\":21183:21250   */\n      tag_460\n        /* \"#utility.yul\":21243:21249   */\n      dup6\n        /* \"#utility.yul\":21236:21241   */\n      dup3\n        /* \"#utility.yul\":21183:21250   */\n      tag_244\n      jump\t// in\n    tag_460:\n        /* \"#utility.yul\":21177:21181   */\n      dup7\n        /* \"#utility.yul\":21170:21251   */\n      sstore\n        /* \"#utility.yul\":21039:21261   */\n      pop\n        /* \"#utility.yul\":20374:21261   */\n      jump(tag_457)\n        /* \"#utility.yul\":20404:21022   */\n    tag_458:\n        /* \"#utility.yul\":20456:20460   */\n      0x1f\n        /* \"#utility.yul\":20452:20461   */\n      not\n        /* \"#utility.yul\":20444:20450   */\n      dup5\n        /* \"#utility.yul\":20440:20462   */\n      and\n        /* \"#utility.yul\":20490:20527   */\n      tag_461\n        /* \"#utility.yul\":20522:20526   */\n      dup7\n        /* \"#utility.yul\":20490:20527   */\n      tag_230\n      jump\t// in\n    tag_461:\n        /* \"#utility.yul\":20549:20550   */\n      0x00\n        /* \"#utility.yul\":20563:20771   */\n    tag_462:\n        /* \"#utility.yul\":20577:20584   */\n      dup3\n        /* \"#utility.yul\":20574:20575   */\n      dup2\n        /* \"#utility.yul\":20571:20585   */\n      lt\n        /* \"#utility.yul\":20563:20771   */\n      iszero\n      tag_464\n      jumpi\n        /* \"#utility.yul\":20656:20665   */\n      dup5\n        /* \"#utility.yul\":20651:20654   */\n      dup10\n        /* \"#utility.yul\":20647:20666   */\n      add\n        /* \"#utility.yul\":20641:20667   */\n      mload\n        /* \"#utility.yul\":20633:20639   */\n      dup3\n        /* \"#utility.yul\":20626:20668   */\n      sstore\n        /* \"#utility.yul\":20707:20708   */\n      0x01\n        /* \"#utility.yul\":20699:20705   */\n      dup3\n        /* \"#utility.yul\":20695:20709   */\n      add\n        /* \"#utility.yul\":20685:20709   */\n      swap2\n      pop\n        /* \"#utility.yul\":20754:20756   */\n      0x20\n        /* \"#utility.yul\":20743:20752   */\n      dup6\n        /* \"#utility.yul\":20739:20757   */\n      add\n        /* \"#utility.yul\":20726:20757   */\n      swap5\n      pop\n        /* \"#utility.yul\":20600:20604   */\n      0x20\n        /* \"#utility.yul\":20597:20598   */\n      dup2\n        /* \"#utility.yul\":20593:20605   */\n      add\n        /* \"#utility.yul\":20588:20605   */\n      swap1\n      pop\n        /* \"#utility.yul\":20563:20771   */\n      jump(tag_462)\n    tag_464:\n        /* \"#utility.yul\":20799:20805   */\n      dup7\n        /* \"#utility.yul\":20790:20797   */\n      dup4\n        /* \"#utility.yul\":20787:20806   */\n      lt\n        /* \"#utility.yul\":20784:20963   */\n      iszero\n      tag_465\n      jumpi\n        /* \"#utility.yul\":20857:20866   */\n      dup5\n        /* \"#utility.yul\":20852:20855   */\n      dup10\n        /* \"#utility.yul\":20848:20867   */\n      add\n        /* \"#utility.yul\":20842:20868   */\n      mload\n        /* \"#utility.yul\":20900:20948   */\n      tag_466\n        /* \"#utility.yul\":20942:20946   */\n      0x1f\n        /* \"#utility.yul\":20934:20940   */\n      dup10\n        /* \"#utility.yul\":20930:20947   */\n      and\n        /* \"#utility.yul\":20919:20928   */\n      dup3\n        /* \"#utility.yul\":20900:20948   */\n      tag_243\n      jump\t// in\n    tag_466:\n        /* \"#utility.yul\":20892:20898   */\n      dup4\n        /* \"#utility.yul\":20885:20949   */\n      sstore\n        /* \"#utility.yul\":20807:20963   */\n      pop\n        /* \"#utility.yul\":20784:20963   */\n    tag_465:\n        /* \"#utility.yul\":21009:21010   */\n      0x01\n        /* \"#utility.yul\":21005:21006   */\n      0x02\n        /* \"#utility.yul\":20997:21003   */\n      dup9\n        /* \"#utility.yul\":20993:21007   */\n      mul\n        /* \"#utility.yul\":20989:21011   */\n      add\n        /* \"#utility.yul\":20983:20987   */\n      dup9\n        /* \"#utility.yul\":20976:21012   */\n      sstore\n        /* \"#utility.yul\":20411:21022   */\n      pop\n      pop\n      pop\n        /* \"#utility.yul\":20374:21261   */\n    tag_457:\n      pop\n        /* \"#utility.yul\":19964:21267   */\n      pop\n      pop\n      pop\n        /* \"#utility.yul\":19872:21267   */\n      pop\n      pop\n      jump\t// out\n\n    auxdata: 0xa26469706673582212200e188948c9175512a42d4559eb9201cfbee5064032c0aecd24781a825e7a229364736f6c634300081a0033\n}\n",
				"bytecode": {
					"linkReferences": {},
					"object": "6080604052348015600e575f80fd5b50611d408061001c5f395ff3fe608060405234801561000f575f80fd5b50600436106100fe575f3560e01c8063c45d9bea11610095578063ebd009d311610064578063ebd009d3146102d1578063f7bf1c1214610301578063fb46d4c514610331578063ff9913e81461034d576100fe565b8063c45d9bea14610235578063ce336dad14610269578063d21d159614610299578063de6f24bb146102b5576100fe565b806397443ce1116100d157806397443ce1146101ae57806399d147c2146101e1578063a9ed9cb8146101fd578063b88e318d14610219576100fe565b80632637588e146101025780634dbf27cc146101325780634dc0a6871461014e5780639139cda51461017e575b5f80fd5b61011c60048036038101906101179190611291565b610369565b60405161012991906112e9565b60405180910390f35b61014c60048036038101906101479190611302565b610393565b005b61016860048036038101906101639190611360565b6104cc565b6040516101759190611534565b60405180910390f35b61019860048036038101906101939190611554565b6106d5565b6040516101a591906115a1565b60405180910390f35b6101c860048036038101906101c39190611360565b61071d565b6040516101d89493929190611611565b60405180910390f35b6101fb60048036038101906101f69190611291565b6107ed565b005b61021760048036038101906102129190611302565b610927565b005b610233600480360381019061022e9190611787565b6109b9565b005b61024f600480360381019061024a9190611554565b6109c9565b6040516102609594939291906117f3565b60405180910390f35b610283600480360381019061027e9190611554565b610ad9565b6040516102909190611534565b60405180910390f35b6102b360048036038101906102ae919061184b565b610df7565b005b6102cf60048036038101906102ca919061184b565b610e05565b005b6102eb60048036038101906102e69190611554565b610e14565b6040516102f891906115a1565b60405180910390f35b61031b60048036038101906103169190611554565b610e5c565b60405161032891906118a5565b60405180910390f35b61034b600480360381019061034691906118be565b610e87565b005b61036760048036038101906103629190611302565b610e94565b005b6005602052815f5260405f20602052805f5260405f205f915091509054906101000a900460ff1681565b60045f8273ffffffffffffffffffffffffffffffffffffffff1673ffffffffffffffffffffffffffffffffffffffff1681526020019081526020015f2033908060018154018082558091505060019003905f5260205f20015f9091909190916101000a81548173ffffffffffffffffffffffffffffffffffffffff021916908373ffffffffffffffffffffffffffffffffffffffff16021790555060035f3373ffffffffffffffffffffffffffffffffffffffff1673ffffffffffffffffffffffffffffffffffffffff1681526020019081526020015f2081908060018154018082558091505060019003905f5260205f20015f9091909190916101000a81548173ffffffffffffffffffffffffffffffffffffffff021916908373ffffffffffffffffffffffffffffffffffffffff16021790555050565b60605f821180156104df57506006548211155b61051e576040517f08c379a00000000000000000000000000000000000000000000000000000000081526004016105159061194f565b60405180910390fd5b5f8267ffffffffffffffff81111561053957610538611663565b5b60405190808252806020026020018201604052801561057257816020015b61055f6111eb565b8152602001906001900390816105575790505b5090505f8084600654610585919061199a565b90505b6006548110156106ca575f805f8381526020019081526020015f2090506040518060800160405280825f01548152602001826001015f9054906101000a900473ffffffffffffffffffffffffffffffffffffffff1673ffffffffffffffffffffffffffffffffffffffff168152602001826002018054610607906119fa565b80601f0160208091040260200160405190810160405280929190818152602001828054610633906119fa565b801561067e5780601f106106555761010080835404028352916020019161067e565b820191905f5260205f20905b81548152906001019060200180831161066157829003601f168201915b5050505050815260200182600301548152508484815181106106a3576106a2611a2a565b5b602002602001018190525082806106b990611a57565b935050508080600101915050610588565b508192505050919050565b6003602052815f5260405f2081815481106106ee575f80fd5b905f5260205f20015f915091509054906101000a900473ffffffffffffffffffffffffffffffffffffffff1681565b5f602052805f5260405f205f91509050805f015490806001015f9054906101000a900473ffffffffffffffffffffffffffffffffffffffff1690806002018054610766906119fa565b80601f0160208091040260200160405190810160405280929190818152602001828054610792906119fa565b80156107dd5780601f106107b4576101008083540402835291602001916107dd565b820191905f5260205f20905b8154815290600101906020018083116107c057829003601f168201915b5050505050908060030154905084565b60045f8273ffffffffffffffffffffffffffffffffffffffff1673ffffffffffffffffffffffffffffffffffffffff1681526020019081526020015f2082908060018154018082558091505060019003905f5260205f20015f9091909190916101000a81548173ffffffffffffffffffffffffffffffffffffffff021916908373ffffffffffffffffffffffffffffffffffffffff16021790555060035f8373ffffffffffffffffffffffffffffffffffffffff1673ffffffffffffffffffffffffffffffffffffffff1681526020019081526020015f2081908060018154018082558091505060019003905f5260205f20015f9091909190916101000a81548173ffffffffffffffffffffffffffffffffffffffff021916908373ffffffffffffffffffffffffffffffffffffffff1602179055505050565b5f60055f3373ffffffffffffffffffffffffffffffffffffffff1673ffffffffffffffffffffffffffffffffffffffff1681526020019081526020015f205f8373ffffffffffffffffffffffffffffffffffffffff1673ffffffffffffffffffffffffffffffffffffffff1681526020019081526020015f205f6101000a81548160ff02191690831515021790555050565b6109c4838383610f27565b505050565b6001602052815f5260405f2081815481106109e2575f80fd5b905f5260205f2090600502015f9150915050805f015490806001018054610a08906119fa565b80601f0160208091040260200160405190810160405280929190818152602001828054610a34906119fa565b8015610a7f5780601f10610a5657610100808354040283529160200191610a7f565b820191905f5260205f20905b815481529060010190602001808311610a6257829003601f168201915b505050505090806002015f9054906101000a900473ffffffffffffffffffffffffffffffffffffffff1690806003015f9054906101000a900473ffffffffffffffffffffffffffffffffffffffff16908060040154905085565b60605f82118015610b2a575060025f8473ffffffffffffffffffffffffffffffffffffffff1673ffffffffffffffffffffffffffffffffffffffff1681526020019081526020015f20805490508211155b610b69576040517f08c379a0000000000000000000000000000000000000000000000000000000008152600401610b609061194f565b60405180910390fd5b5f8267ffffffffffffffff811115610b8457610b83611663565b5b604051908082528060200260200182016040528015610bbd57816020015b610baa6111eb565b815260200190600190039081610ba25790505b5090505f808460025f8873ffffffffffffffffffffffffffffffffffffffff1673ffffffffffffffffffffffffffffffffffffffff1681526020019081526020015f2080549050610c0e919061199a565b90505b60025f8773ffffffffffffffffffffffffffffffffffffffff1673ffffffffffffffffffffffffffffffffffffffff1681526020019081526020015f2080549050811015610deb575f60025f8873ffffffffffffffffffffffffffffffffffffffff1673ffffffffffffffffffffffffffffffffffffffff1681526020019081526020015f208281548110610ca957610ca8611a2a565b5b905f5260205f20015490505f805f8381526020019081526020015f2090506040518060800160405280825f01548152602001826001015f9054906101000a900473ffffffffffffffffffffffffffffffffffffffff1673ffffffffffffffffffffffffffffffffffffffff168152602001826002018054610d29906119fa565b80601f0160208091040260200160405190810160405280929190818152602001828054610d55906119fa565b8015610da05780601f10610d7757610100808354040283529160200191610da0565b820191905f5260205f20905b815481529060010190602001808311610d8357829003601f168201915b505050505081526020018260030154815250858580610dbe90611a57565b965081518110610dd157610dd0611a2a565b5b602002602001018190525050508080600101915050610c11565b50819250505092915050565b610e0182826110b1565b5050565b610e10338383610f27565b5050565b6004602052815f5260405f208181548110610e2d575f80fd5b905f5260205f20015f915091509054906101000a900473ffffffffffffffffffffffffffffffffffffffff1681565b6002602052815f5260405f208181548110610e75575f80fd5b905f5260205f20015f91509150505481565b610e9133826110b1565b50565b600160055f3373ffffffffffffffffffffffffffffffffffffffff1673ffffffffffffffffffffffffffffffffffffffff1681526020019081526020015f205f8373ffffffffffffffffffffffffffffffffffffffff1673ffffffffffffffffffffffffffffffffffffffff1681526020019081526020015f205f6101000a81548160ff02191690831515021790555050565b60015f8473ffffffffffffffffffffffffffffffffffffffff1673ffffffffffffffffffffffffffffffffffffffff1681526020019081526020015f206040518060a0016040528060075481526020018381526020018573ffffffffffffffffffffffffffffffffffffffff1681526020018473ffffffffffffffffffffffffffffffffffffffff16815260200142815250908060018154018082558091505060019003905f5260205f2090600502015f909190919091505f820151815f01556020820151816001019081610ffc9190611c3b565b506040820151816002015f6101000a81548173ffffffffffffffffffffffffffffffffffffffff021916908373ffffffffffffffffffffffffffffffffffffffff1602179055506060820151816003015f6101000a81548173ffffffffffffffffffffffffffffffffffffffff021916908373ffffffffffffffffffffffffffffffffffffffff16021790555060808201518160040155505060075f8154809291906110a790611a57565b9190505550505050565b604051806080016040528060065481526020018373ffffffffffffffffffffffffffffffffffffffff168152602001828152602001428152505f8060065481526020019081526020015f205f820151815f01556020820151816001015f6101000a81548173ffffffffffffffffffffffffffffffffffffffff021916908373ffffffffffffffffffffffffffffffffffffffff160217905550604082015181600201908161115f9190611c3b565b506060820151816003015590505060025f8373ffffffffffffffffffffffffffffffffffffffff1673ffffffffffffffffffffffffffffffffffffffff1681526020019081526020015f20600654908060018154018082558091505060019003905f5260205f20015f909190919091505560065f8154809291906111e290611a57565b91905055505050565b60405180608001604052805f81526020015f73ffffffffffffffffffffffffffffffffffffffff168152602001606081526020015f81525090565b5f604051905090565b5f80fd5b5f80fd5b5f73ffffffffffffffffffffffffffffffffffffffff82169050919050565b5f61126082611237565b9050919050565b61127081611256565b811461127a575f80fd5b50565b5f8135905061128b81611267565b92915050565b5f80604083850312156112a7576112a661122f565b5b5f6112b48582860161127d565b92505060206112c58582860161127d565b9150509250929050565b5f8115159050919050565b6112e3816112cf565b82525050565b5f6020820190506112fc5f8301846112da565b92915050565b5f602082840312156113175761131661122f565b5b5f6113248482850161127d565b91505092915050565b5f819050919050565b61133f8161132d565b8114611349575f80fd5b50565b5f8135905061135a81611336565b92915050565b5f602082840312156113755761137461122f565b5b5f6113828482850161134c565b91505092915050565b5f81519050919050565b5f82825260208201905092915050565b5f819050602082019050919050565b6113bd8161132d565b82525050565b6113cc81611256565b82525050565b5f81519050919050565b5f82825260208201905092915050565b8281835e5f83830152505050565b5f601f19601f8301169050919050565b5f611414826113d2565b61141e81856113dc565b935061142e8185602086016113ec565b611437816113fa565b840191505092915050565b5f608083015f8301516114575f8601826113b4565b50602083015161146a60208601826113c3565b5060408301518482036040860152611482828261140a565b915050606083015161149760608601826113b4565b508091505092915050565b5f6114ad8383611442565b905092915050565b5f602082019050919050565b5f6114cb8261138b565b6114d58185611395565b9350836020820285016114e7856113a5565b805f5b85811015611522578484038952815161150385826114a2565b945061150e836114b5565b925060208a019950506001810190506114ea565b50829750879550505050505092915050565b5f6020820190508181035f83015261154c81846114c1565b905092915050565b5f806040838503121561156a5761156961122f565b5b5f6115778582860161127d565b92505060206115888582860161134c565b9150509250929050565b61159b81611256565b82525050565b5f6020820190506115b45f830184611592565b92915050565b6115c38161132d565b82525050565b5f82825260208201905092915050565b5f6115e3826113d2565b6115ed81856115c9565b93506115fd8185602086016113ec565b611606816113fa565b840191505092915050565b5f6080820190506116245f8301876115ba565b6116316020830186611592565b818103604083015261164381856115d9565b905061165260608301846115ba565b95945050505050565b5f80fd5b5f80fd5b7f4e487b71000000000000000000000000000000000000000000000000000000005f52604160045260245ffd5b611699826113fa565b810181811067ffffffffffffffff821117156116b8576116b7611663565b5b80604052505050565b5f6116ca611226565b90506116d68282611690565b919050565b5f67ffffffffffffffff8211156116f5576116f4611663565b5b6116fe826113fa565b9050602081019050919050565b828183375f83830152505050565b5f61172b611726846116db565b6116c1565b9050828152602081018484840111156117475761174661165f565b5b61175284828561170b565b509392505050565b5f82601f83011261176e5761176d61165b565b5b813561177e848260208601611719565b91505092915050565b5f805f6060848603121561179e5761179d61122f565b5b5f6117ab8682870161127d565b93505060206117bc8682870161127d565b925050604084013567ffffffffffffffff8111156117dd576117dc611233565b5b6117e98682870161175a565b9150509250925092565b5f60a0820190506118065f8301886115ba565b818103602083015261181881876115d9565b90506118276040830186611592565b6118346060830185611592565b61184160808301846115ba565b9695505050505050565b5f80604083850312156118615761186061122f565b5b5f61186e8582860161127d565b925050602083013567ffffffffffffffff81111561188f5761188e611233565b5b61189b8582860161175a565b9150509250929050565b5f6020820190506118b85f8301846115ba565b92915050565b5f602082840312156118d3576118d261122f565b5b5f82013567ffffffffffffffff8111156118f0576118ef611233565b5b6118fc8482850161175a565b91505092915050565b7f436f756e74206973206e6f742070726f706572000000000000000000000000005f82015250565b5f6119396013836115c9565b915061194482611905565b602082019050919050565b5f6020820190508181035f8301526119668161192d565b9050919050565b7f4e487b71000000000000000000000000000000000000000000000000000000005f52601160045260245ffd5b5f6119a48261132d565b91506119af8361132d565b92508282039050818111156119c7576119c661196d565b5b92915050565b7f4e487b71000000000000000000000000000000000000000000000000000000005f52602260045260245ffd5b5f6002820490506001821680611a1157607f821691505b602082108103611a2457611a236119cd565b5b50919050565b7f4e487b71000000000000000000000000000000000000000000000000000000005f52603260045260245ffd5b5f611a618261132d565b91507fffffffffffffffffffffffffffffffffffffffffffffffffffffffffffffffff8203611a9357611a9261196d565b5b600182019050919050565b5f819050815f5260205f209050919050565b5f6020601f8301049050919050565b5f82821b905092915050565b5f60088302611afa7fffffffffffffffffffffffffffffffffffffffffffffffffffffffffffffffff82611abf565b611b048683611abf565b95508019841693508086168417925050509392505050565b5f819050919050565b5f611b3f611b3a611b358461132d565b611b1c565b61132d565b9050919050565b5f819050919050565b611b5883611b25565b611b6c611b6482611b46565b848454611acb565b825550505050565b5f90565b611b80611b74565b611b8b818484611b4f565b505050565b5b81811015611bae57611ba35f82611b78565b600181019050611b91565b5050565b601f821115611bf357611bc481611a9e565b611bcd84611ab0565b81016020851015611bdc578190505b611bf0611be885611ab0565b830182611b90565b50505b505050565b5f82821c905092915050565b5f611c135f1984600802611bf8565b1980831691505092915050565b5f611c2b8383611c04565b9150826002028217905092915050565b611c44826113d2565b67ffffffffffffffff811115611c5d57611c5c611663565b5b611c6782546119fa565b611c72828285611bb2565b5f60209050601f831160018114611ca3575f8415611c91578287015190505b611c9b8582611c20565b865550611d02565b601f198416611cb186611a9e565b5f5b82811015611cd857848901518255600182019150602085019450602081019050611cb3565b86831015611cf55784890151611cf1601f891682611c04565b8355505b6001600288020188555050505b50505050505056fea26469706673582212200e188948c9175512a42d4559eb9201cfbee5064032c0aecd24781a825e7a229364736f6c634300081a0033",
					"opcodes": "PUSH1 0x80 PUSH1 0x40 MSTORE CALLVALUE DUP1 ISZERO PUSH1 0xE JUMPI PUSH0 DUP1 REVERT JUMPDEST POP PUSH2 0x1D40 DUP1 PUSH2 0x1C PUSH0 CODECOPY PUSH0 RETURN INVALID PUSH1 0x80 PUSH1 0x40 MSTORE CALLVALUE DUP1 ISZERO PUSH2 0xF JUMPI PUSH0 DUP1 REVERT JUMPDEST POP PUSH1 0x4 CALLDATASIZE LT PUSH2 0xFE JUMPI PUSH0 CALLDATALOAD PUSH1 0xE0 SHR DUP1 PUSH4 0xC45D9BEA GT PUSH2 0x95 JUMPI DUP1 PUSH4 0xEBD009D3 GT PUSH2 0x64 JUMPI DUP1 PUSH4 0xEBD009D3 EQ PUSH2 0x2D1 JUMPI DUP1 PUSH4 0xF7BF1C12 EQ PUSH2 0x301 JUMPI DUP1 PUSH4 0xFB46D4C5 EQ PUSH2 0x331 JUMPI DUP1 PUSH4 0xFF9913E8 EQ PUSH2 0x34D JUMPI PUSH2 0xFE JUMP JUMPDEST DUP1 PUSH4 0xC45D9BEA EQ PUSH2 0x235 JUMPI DUP1 PUSH4 0xCE336DAD EQ PUSH2 0x269 JUMPI DUP1 PUSH4 0xD21D1596 EQ PUSH2 0x299 JUMPI DUP1 PUSH4 0xDE6F24BB EQ PUSH2 0x2B5 JUMPI PUSH2 0xFE JUMP JUMPDEST DUP1 PUSH4 0x97443CE1 GT PUSH2 0xD1 JUMPI DUP1 PUSH4 0x97443CE1 EQ PUSH2 0x1AE JUMPI DUP1 PUSH4 0x99D147C2 EQ PUSH2 0x1E1 JUMPI DUP1 PUSH4 0xA9ED9CB8 EQ PUSH2 0x1FD JUMPI DUP1 PUSH4 0xB88E318D EQ PUSH2 0x219 JUMPI PUSH2 0xFE JUMP JUMPDEST DUP1 PUSH4 0x2637588E EQ PUSH2 0x102 JUMPI DUP1 PUSH4 0x4DBF27CC EQ PUSH2 0x132 JUMPI DUP1 PUSH4 0x4DC0A687 EQ PUSH2 0x14E JUMPI DUP1 PUSH4 0x9139CDA5 EQ PUSH2 0x17E JUMPI JUMPDEST PUSH0 DUP1 REVERT JUMPDEST PUSH2 0x11C PUSH1 0x4 DUP1 CALLDATASIZE SUB DUP2 ADD SWAP1 PUSH2 0x117 SWAP2 SWAP1 PUSH2 0x1291 JUMP JUMPDEST PUSH2 0x369 JUMP JUMPDEST PUSH1 0x40 MLOAD PUSH2 0x129 SWAP2 SWAP1 PUSH2 0x12E9 JUMP JUMPDEST PUSH1 0x40 MLOAD DUP1 SWAP2 SUB SWAP1 RETURN JUMPDEST PUSH2 0x14C PUSH1 0x4 DUP1 CALLDATASIZE SUB DUP2 ADD SWAP1 PUSH2 0x147 SWAP2 SWAP1 PUSH2 0x1302 JUMP JUMPDEST PUSH2 0x393 JUMP JUMPDEST STOP JUMPDEST PUSH2 0x168 PUSH1 0x4 DUP1 CALLDATASIZE SUB DUP2 ADD SWAP1 PUSH2 0x163 SWAP2 SWAP1 PUSH2 0x1360 JUMP JUMPDEST PUSH2 0x4CC JUMP JUMPDEST PUSH1 0x40 MLOAD PUSH2 0x175 SWAP2 SWAP1 PUSH2 0x1534 JUMP JUMPDEST PUSH1 0x40 MLOAD DUP1 SWAP2 SUB SWAP1 RETURN JUMPDEST PUSH2 0x198 PUSH1 0x4 DUP1 CALLDATASIZE SUB DUP2 ADD SWAP1 PUSH2 0x193 SWAP2 SWAP1 PUSH2 0x1554 JUMP JUMPDEST PUSH2 0x6D5 JUMP JUMPDEST PUSH1 0x40 MLOAD PUSH2 0x1A5 SWAP2 SWAP1 PUSH2 0x15A1 JUMP JUMPDEST PUSH1 0x40 MLOAD DUP1 SWAP2 SUB SWAP1 RETURN JUMPDEST PUSH2 0x1C8 PUSH1 0x4 DUP1 CALLDATASIZE SUB DUP2 ADD SWAP1 PUSH2 0x1C3 SWAP2 SWAP1 PUSH2 0x1360 JUMP JUMPDEST PUSH2 0x71D JUMP JUMPDEST PUSH1 0x40 MLOAD PUSH2 0x1D8 SWAP5 SWAP4 SWAP3 SWAP2 SWAP1 PUSH2 0x1611 JUMP JUMPDEST PUSH1 0x40 MLOAD DUP1 SWAP2 SUB SWAP1 RETURN JUMPDEST PUSH2 0x1FB PUSH1 0x4 DUP1 CALLDATASIZE SUB DUP2 ADD SWAP1 PUSH2 0x1F6 SWAP2 SWAP1 PUSH2 0x1291 JUMP JUMPDEST PUSH2 0x7ED JUMP JUMPDEST STOP JUMPDEST PUSH2 0x217 PUSH1 0x4 DUP1 CALLDATASIZE SUB DUP2 ADD SWAP1 PUSH2 0x212 SWAP2 SWAP1 PUSH2 0x1302 JUMP JUMPDEST PUSH2 0x927 JUMP JUMPDEST STOP JUMPDEST PUSH2 0x233 PUSH1 0x4 DUP1 CALLDATASIZE SUB DUP2 ADD SWAP1 PUSH2 0x22E SWAP2 SWAP1 PUSH2 0x1787 JUMP JUMPDEST PUSH2 0x9B9 JUMP JUMPDEST STOP JUMPDEST PUSH2 0x24F PUSH1 0x4 DUP1 CALLDATASIZE SUB DUP2 ADD SWAP1 PUSH2 0x24A SWAP2 SWAP1 PUSH2 0x1554 JUMP JUMPDEST PUSH2 0x9C9 JUMP JUMPDEST PUSH1 0x40 MLOAD PUSH2 0x260 SWAP6 SWAP5 SWAP4 SWAP3 SWAP2 SWAP1 PUSH2 0x17F3 JUMP JUMPDEST PUSH1 0x40 MLOAD DUP1 SWAP2 SUB SWAP1 RETURN JUMPDEST PUSH2 0x283 PUSH1 0x4 DUP1 CALLDATASIZE SUB DUP2 ADD SWAP1 PUSH2 0x27E SWAP2 SWAP1 PUSH2 0x1554 JUMP JUMPDEST PUSH2 0xAD9 JUMP JUMPDEST PUSH1 0x40 MLOAD PUSH2 0x290 SWAP2 SWAP1 PUSH2 0x1534 JUMP JUMPDEST PUSH1 0x40 MLOAD DUP1 SWAP2 SUB SWAP1 RETURN JUMPDEST PUSH2 0x2B3 PUSH1 0x4 DUP1 CALLDATASIZE SUB DUP2 ADD SWAP1 PUSH2 0x2AE SWAP2 SWAP1 PUSH2 0x184B JUMP JUMPDEST PUSH2 0xDF7 JUMP JUMPDEST STOP JUMPDEST PUSH2 0x2CF PUSH1 0x4 DUP1 CALLDATASIZE SUB DUP2 ADD SWAP1 PUSH2 0x2CA SWAP2 SWAP1 PUSH2 0x184B JUMP JUMPDEST PUSH2 0xE05 JUMP JUMPDEST STOP JUMPDEST PUSH2 0x2EB PUSH1 0x4 DUP1 CALLDATASIZE SUB DUP2 ADD SWAP1 PUSH2 0x2E6 SWAP2 SWAP1 PUSH2 0x1554 JUMP JUMPDEST PUSH2 0xE14 JUMP JUMPDEST PUSH1 0x40 MLOAD PUSH2 0x2F8 SWAP2 SWAP1 PUSH2 0x15A1 JUMP JUMPDEST PUSH1 0x40 MLOAD DUP1 SWAP2 SUB SWAP1 RETURN JUMPDEST PUSH2 0x31B PUSH1 0x4 DUP1 CALLDATASIZE SUB DUP2 ADD SWAP1 PUSH2 0x316 SWAP2 SWAP1 PUSH2 0x1554 JUMP JUMPDEST PUSH2 0xE5C JUMP JUMPDEST PUSH1 0x40 MLOAD PUSH2 0x328 SWAP2 SWAP1 PUSH2 0x18A5 JUMP JUMPDEST PUSH1 0x40 MLOAD DUP1 SWAP2 SUB SWAP1 RETURN JUMPDEST PUSH2 0x34B PUSH1 0x4 DUP1 CALLDATASIZE SUB DUP2 ADD SWAP1 PUSH2 0x346 SWAP2 SWAP1 PUSH2 0x18BE JUMP JUMPDEST PUSH2 0xE87 JUMP JUMPDEST STOP JUMPDEST PUSH2 0x367 PUSH1 0x4 DUP1 CALLDATASIZE SUB DUP2 ADD SWAP1 PUSH2 0x362 SWAP2 SWAP1 PUSH2 0x1302 JUMP JUMPDEST PUSH2 0xE94 JUMP JUMPDEST STOP JUMPDEST PUSH1 0x5 PUSH1 0x20 MSTORE DUP2 PUSH0 MSTORE PUSH1 0x40 PUSH0 KECCAK256 PUSH1 0x20 MSTORE DUP1 PUSH0 MSTORE PUSH1 0x40 PUSH0 KECCAK256 PUSH0 SWAP2 POP SWAP2 POP SWAP1 SLOAD SWAP1 PUSH2 0x100 EXP SWAP1 DIV PUSH1 0xFF AND DUP2 JUMP JUMPDEST PUSH1 0x4 PUSH0 DUP3 PUSH20 0xFFFFFFFFFFFFFFFFFFFFFFFFFFFFFFFFFFFFFFFF AND PUSH20 0xFFFFFFFFFFFFFFFFFFFFFFFFFFFFFFFFFFFFFFFF AND DUP2 MSTORE PUSH1 0x20 ADD SWAP1 DUP2 MSTORE PUSH1 0x20 ADD PUSH0 KECCAK256 CALLER SWAP1 DUP1 PUSH1 0x1 DUP2 SLOAD ADD DUP1 DUP3 SSTORE DUP1 SWAP2 POP POP PUSH1 0x1 SWAP1 SUB SWAP1 PUSH0 MSTORE PUSH1 0x20 PUSH0 KECCAK256 ADD PUSH0 SWAP1 SWAP2 SWAP1 SWAP2 SWAP1 SWAP2 PUSH2 0x100 EXP DUP2 SLOAD DUP2 PUSH20 0xFFFFFFFFFFFFFFFFFFFFFFFFFFFFFFFFFFFFFFFF MUL NOT AND SWAP1 DUP4 PUSH20 0xFFFFFFFFFFFFFFFFFFFFFFFFFFFFFFFFFFFFFFFF AND MUL OR SWAP1 SSTORE POP PUSH1 0x3 PUSH0 CALLER PUSH20 0xFFFFFFFFFFFFFFFFFFFFFFFFFFFFFFFFFFFFFFFF AND PUSH20 0xFFFFFFFFFFFFFFFFFFFFFFFFFFFFFFFFFFFFFFFF AND DUP2 MSTORE PUSH1 0x20 ADD SWAP1 DUP2 MSTORE PUSH1 0x20 ADD PUSH0 KECCAK256 DUP2 SWAP1 DUP1 PUSH1 0x1 DUP2 SLOAD ADD DUP1 DUP3 SSTORE DUP1 SWAP2 POP POP PUSH1 0x1 SWAP1 SUB SWAP1 PUSH0 MSTORE PUSH1 0x20 PUSH0 KECCAK256 ADD PUSH0 SWAP1 SWAP2 SWAP1 SWAP2 SWAP1 SWAP2 PUSH2 0x100 EXP DUP2 SLOAD DUP2 PUSH20 0xFFFFFFFFFFFFFFFFFFFFFFFFFFFFFFFFFFFFFFFF MUL NOT AND SWAP1 DUP4 PUSH20 0xFFFFFFFFFFFFFFFFFFFFFFFFFFFFFFFFFFFFFFFF AND MUL OR SWAP1 SSTORE POP POP JUMP JUMPDEST PUSH1 0x60 PUSH0 DUP3 GT DUP1 ISZERO PUSH2 0x4DF JUMPI POP PUSH1 0x6 SLOAD DUP3 GT ISZERO JUMPDEST PUSH2 0x51E JUMPI PUSH1 0x40 MLOAD PUSH32 0x8C379A000000000000000000000000000000000000000000000000000000000 DUP2 MSTORE PUSH1 0x4 ADD PUSH2 0x515 SWAP1 PUSH2 0x194F JUMP JUMPDEST PUSH1 0x40 MLOAD DUP1 SWAP2 SUB SWAP1 REVERT JUMPDEST PUSH0 DUP3 PUSH8 0xFFFFFFFFFFFFFFFF DUP2 GT ISZERO PUSH2 0x539 JUMPI PUSH2 0x538 PUSH2 0x1663 JUMP JUMPDEST JUMPDEST PUSH1 0x40 MLOAD SWAP1 DUP1 DUP3 MSTORE DUP1 PUSH1 0x20 MUL PUSH1 0x20 ADD DUP3 ADD PUSH1 0x40 MSTORE DUP1 ISZERO PUSH2 0x572 JUMPI DUP2 PUSH1 0x20 ADD JUMPDEST PUSH2 0x55F PUSH2 0x11EB JUMP JUMPDEST DUP2 MSTORE PUSH1 0x20 ADD SWAP1 PUSH1 0x1 SWAP1 SUB SWAP1 DUP2 PUSH2 0x557 JUMPI SWAP1 POP JUMPDEST POP SWAP1 POP PUSH0 DUP1 DUP5 PUSH1 0x6 SLOAD PUSH2 0x585 SWAP2 SWAP1 PUSH2 0x199A JUMP JUMPDEST SWAP1 POP JUMPDEST PUSH1 0x6 SLOAD DUP2 LT ISZERO PUSH2 0x6CA JUMPI PUSH0 DUP1 PUSH0 DUP4 DUP2 MSTORE PUSH1 0x20 ADD SWAP1 DUP2 MSTORE PUSH1 0x20 ADD PUSH0 KECCAK256 SWAP1 POP PUSH1 0x40 MLOAD DUP1 PUSH1 0x80 ADD PUSH1 0x40 MSTORE DUP1 DUP3 PUSH0 ADD SLOAD DUP2 MSTORE PUSH1 0x20 ADD DUP3 PUSH1 0x1 ADD PUSH0 SWAP1 SLOAD SWAP1 PUSH2 0x100 EXP SWAP1 DIV PUSH20 0xFFFFFFFFFFFFFFFFFFFFFFFFFFFFFFFFFFFFFFFF AND PUSH20 0xFFFFFFFFFFFFFFFFFFFFFFFFFFFFFFFFFFFFFFFF AND DUP2 MSTORE PUSH1 0x20 ADD DUP3 PUSH1 0x2 ADD DUP1 SLOAD PUSH2 0x607 SWAP1 PUSH2 0x19FA JUMP JUMPDEST DUP1 PUSH1 0x1F ADD PUSH1 0x20 DUP1 SWAP2 DIV MUL PUSH1 0x20 ADD PUSH1 0x40 MLOAD SWAP1 DUP2 ADD PUSH1 0x40 MSTORE DUP1 SWAP3 SWAP2 SWAP1 DUP2 DUP2 MSTORE PUSH1 0x20 ADD DUP3 DUP1 SLOAD PUSH2 0x633 SWAP1 PUSH2 0x19FA JUMP JUMPDEST DUP1 ISZERO PUSH2 0x67E JUMPI DUP1 PUSH1 0x1F LT PUSH2 0x655 JUMPI PUSH2 0x100 DUP1 DUP4 SLOAD DIV MUL DUP4 MSTORE SWAP2 PUSH1 0x20 ADD SWAP2 PUSH2 0x67E JUMP JUMPDEST DUP3 ADD SWAP2 SWAP1 PUSH0 MSTORE PUSH1 0x20 PUSH0 KECCAK256 SWAP1 JUMPDEST DUP2 SLOAD DUP2 MSTORE SWAP1 PUSH1 0x1 ADD SWAP1 PUSH1 0x20 ADD DUP1 DUP4 GT PUSH2 0x661 JUMPI DUP3 SWAP1 SUB PUSH1 0x1F AND DUP3 ADD SWAP2 JUMPDEST POP POP POP POP POP DUP2 MSTORE PUSH1 0x20 ADD DUP3 PUSH1 0x3 ADD SLOAD DUP2 MSTORE POP DUP5 DUP5 DUP2 MLOAD DUP2 LT PUSH2 0x6A3 JUMPI PUSH2 0x6A2 PUSH2 0x1A2A JUMP JUMPDEST JUMPDEST PUSH1 0x20 MUL PUSH1 0x20 ADD ADD DUP2 SWAP1 MSTORE POP DUP3 DUP1 PUSH2 0x6B9 SWAP1 PUSH2 0x1A57 JUMP JUMPDEST SWAP4 POP POP POP DUP1 DUP1 PUSH1 0x1 ADD SWAP2 POP POP PUSH2 0x588 JUMP JUMPDEST POP DUP2 SWAP3 POP POP POP SWAP2 SWAP1 POP JUMP JUMPDEST PUSH1 0x3 PUSH1 0x20 MSTORE DUP2 PUSH0 MSTORE PUSH1 0x40 PUSH0 KECCAK256 DUP2 DUP2 SLOAD DUP2 LT PUSH2 0x6EE JUMPI PUSH0 DUP1 REVERT JUMPDEST SWAP1 PUSH0 MSTORE PUSH1 0x20 PUSH0 KECCAK256 ADD PUSH0 SWAP2 POP SWAP2 POP SWAP1 SLOAD SWAP1 PUSH2 0x100 EXP SWAP1 DIV PUSH20 0xFFFFFFFFFFFFFFFFFFFFFFFFFFFFFFFFFFFFFFFF AND DUP2 JUMP JUMPDEST PUSH0 PUSH1 0x20 MSTORE DUP1 PUSH0 MSTORE PUSH1 0x40 PUSH0 KECCAK256 PUSH0 SWAP2 POP SWAP1 POP DUP1 PUSH0 ADD SLOAD SWAP1 DUP1 PUSH1 0x1 ADD PUSH0 SWAP1 SLOAD SWAP1 PUSH2 0x100 EXP SWAP1 DIV PUSH20 0xFFFFFFFFFFFFFFFFFFFFFFFFFFFFFFFFFFFFFFFF AND SWAP1 DUP1 PUSH1 0x2 ADD DUP1 SLOAD PUSH2 0x766 SWAP1 PUSH2 0x19FA JUMP JUMPDEST DUP1 PUSH1 0x1F ADD PUSH1 0x20 DUP1 SWAP2 DIV MUL PUSH1 0x20 ADD PUSH1 0x40 MLOAD SWAP1 DUP2 ADD PUSH1 0x40 MSTORE DUP1 SWAP3 SWAP2 SWAP1 DUP2 DUP2 MSTORE PUSH1 0x20 ADD DUP3 DUP1 SLOAD PUSH2 0x792 SWAP1 PUSH2 0x19FA JUMP JUMPDEST DUP1 ISZERO PUSH2 0x7DD JUMPI DUP1 PUSH1 0x1F LT PUSH2 0x7B4 JUMPI PUSH2 0x100 DUP1 DUP4 SLOAD DIV MUL DUP4 MSTORE SWAP2 PUSH1 0x20 ADD SWAP2 PUSH2 0x7DD JUMP JUMPDEST DUP3 ADD SWAP2 SWAP1 PUSH0 MSTORE PUSH1 0x20 PUSH0 KECCAK256 SWAP1 JUMPDEST DUP2 SLOAD DUP2 MSTORE SWAP1 PUSH1 0x1 ADD SWAP1 PUSH1 0x20 ADD DUP1 DUP4 GT PUSH2 0x7C0 JUMPI DUP3 SWAP1 SUB PUSH1 0x1F AND DUP3 ADD SWAP2 JUMPDEST POP POP POP POP POP SWAP1 DUP1 PUSH1 0x3 ADD SLOAD SWAP1 POP DUP5 JUMP JUMPDEST PUSH1 0x4 PUSH0 DUP3 PUSH20 0xFFFFFFFFFFFFFFFFFFFFFFFFFFFFFFFFFFFFFFFF AND PUSH20 0xFFFFFFFFFFFFFFFFFFFFFFFFFFFFFFFFFFFFFFFF AND DUP2 MSTORE PUSH1 0x20 ADD SWAP1 DUP2 MSTORE PUSH1 0x20 ADD PUSH0 KECCAK256 DUP3 SWAP1 DUP1 PUSH1 0x1 DUP2 SLOAD ADD DUP1 DUP3 SSTORE DUP1 SWAP2 POP POP PUSH1 0x1 SWAP1 SUB SWAP1 PUSH0 MSTORE PUSH1 0x20 PUSH0 KECCAK256 ADD PUSH0 SWAP1 SWAP2 SWAP1 SWAP2 SWAP1 SWAP2 PUSH2 0x100 EXP DUP2 SLOAD DUP2 PUSH20 0xFFFFFFFFFFFFFFFFFFFFFFFFFFFFFFFFFFFFFFFF MUL NOT AND SWAP1 DUP4 PUSH20 0xFFFFFFFFFFFFFFFFFFFFFFFFFFFFFFFFFFFFFFFF AND MUL OR SWAP1 SSTORE POP PUSH1 0x3 PUSH0 DUP4 PUSH20 0xFFFFFFFFFFFFFFFFFFFFFFFFFFFFFFFFFFFFFFFF AND PUSH20 0xFFFFFFFFFFFFFFFFFFFFFFFFFFFFFFFFFFFFFFFF AND DUP2 MSTORE PUSH1 0x20 ADD SWAP1 DUP2 MSTORE PUSH1 0x20 ADD PUSH0 KECCAK256 DUP2 SWAP1 DUP1 PUSH1 0x1 DUP2 SLOAD ADD DUP1 DUP3 SSTORE DUP1 SWAP2 POP POP PUSH1 0x1 SWAP1 SUB SWAP1 PUSH0 MSTORE PUSH1 0x20 PUSH0 KECCAK256 ADD PUSH0 SWAP1 SWAP2 SWAP1 SWAP2 SWAP1 SWAP2 PUSH2 0x100 EXP DUP2 SLOAD DUP2 PUSH20 0xFFFFFFFFFFFFFFFFFFFFFFFFFFFFFFFFFFFFFFFF MUL NOT AND SWAP1 DUP4 PUSH20 0xFFFFFFFFFFFFFFFFFFFFFFFFFFFFFFFFFFFFFFFF AND MUL OR SWAP1 SSTORE POP POP POP JUMP JUMPDEST PUSH0 PUSH1 0x5 PUSH0 CALLER PUSH20 0xFFFFFFFFFFFFFFFFFFFFFFFFFFFFFFFFFFFFFFFF AND PUSH20 0xFFFFFFFFFFFFFFFFFFFFFFFFFFFFFFFFFFFFFFFF AND DUP2 MSTORE PUSH1 0x20 ADD SWAP1 DUP2 MSTORE PUSH1 0x20 ADD PUSH0 KECCAK256 PUSH0 DUP4 PUSH20 0xFFFFFFFFFFFFFFFFFFFFFFFFFFFFFFFFFFFFFFFF AND PUSH20 0xFFFFFFFFFFFFFFFFFFFFFFFFFFFFFFFFFFFFFFFF AND DUP2 MSTORE PUSH1 0x20 ADD SWAP1 DUP2 MSTORE PUSH1 0x20 ADD PUSH0 KECCAK256 PUSH0 PUSH2 0x100 EXP DUP2 SLOAD DUP2 PUSH1 0xFF MUL NOT AND SWAP1 DUP4 ISZERO ISZERO MUL OR SWAP1 SSTORE POP POP JUMP JUMPDEST PUSH2 0x9C4 DUP4 DUP4 DUP4 PUSH2 0xF27 JUMP JUMPDEST POP POP POP JUMP JUMPDEST PUSH1 0x1 PUSH1 0x20 MSTORE DUP2 PUSH0 MSTORE PUSH1 0x40 PUSH0 KECCAK256 DUP2 DUP2 SLOAD DUP2 LT PUSH2 0x9E2 JUMPI PUSH0 DUP1 REVERT JUMPDEST SWAP1 PUSH0 MSTORE PUSH1 0x20 PUSH0 KECCAK256 SWAP1 PUSH1 0x5 MUL ADD PUSH0 SWAP2 POP SWAP2 POP POP DUP1 PUSH0 ADD SLOAD SWAP1 DUP1 PUSH1 0x1 ADD DUP1 SLOAD PUSH2 0xA08 SWAP1 PUSH2 0x19FA JUMP JUMPDEST DUP1 PUSH1 0x1F ADD PUSH1 0x20 DUP1 SWAP2 DIV MUL PUSH1 0x20 ADD PUSH1 0x40 MLOAD SWAP1 DUP2 ADD PUSH1 0x40 MSTORE DUP1 SWAP3 SWAP2 SWAP1 DUP2 DUP2 MSTORE PUSH1 0x20 ADD DUP3 DUP1 SLOAD PUSH2 0xA34 SWAP1 PUSH2 0x19FA JUMP JUMPDEST DUP1 ISZERO PUSH2 0xA7F JUMPI DUP1 PUSH1 0x1F LT PUSH2 0xA56 JUMPI PUSH2 0x100 DUP1 DUP4 SLOAD DIV MUL DUP4 MSTORE SWAP2 PUSH1 0x20 ADD SWAP2 PUSH2 0xA7F JUMP JUMPDEST DUP3 ADD SWAP2 SWAP1 PUSH0 MSTORE PUSH1 0x20 PUSH0 KECCAK256 SWAP1 JUMPDEST DUP2 SLOAD DUP2 MSTORE SWAP1 PUSH1 0x1 ADD SWAP1 PUSH1 0x20 ADD DUP1 DUP4 GT PUSH2 0xA62 JUMPI DUP3 SWAP1 SUB PUSH1 0x1F AND DUP3 ADD SWAP2 JUMPDEST POP POP POP POP POP SWAP1 DUP1 PUSH1 0x2 ADD PUSH0 SWAP1 SLOAD SWAP1 PUSH2 0x100 EXP SWAP1 DIV PUSH20 0xFFFFFFFFFFFFFFFFFFFFFFFFFFFFFFFFFFFFFFFF AND SWAP1 DUP1 PUSH1 0x3 ADD PUSH0 SWAP1 SLOAD SWAP1 PUSH2 0x100 EXP SWAP1 DIV PUSH20 0xFFFFFFFFFFFFFFFFFFFFFFFFFFFFFFFFFFFFFFFF AND SWAP1 DUP1 PUSH1 0x4 ADD SLOAD SWAP1 POP DUP6 JUMP JUMPDEST PUSH1 0x60 PUSH0 DUP3 GT DUP1 ISZERO PUSH2 0xB2A JUMPI POP PUSH1 0x2 PUSH0 DUP5 PUSH20 0xFFFFFFFFFFFFFFFFFFFFFFFFFFFFFFFFFFFFFFFF AND PUSH20 0xFFFFFFFFFFFFFFFFFFFFFFFFFFFFFFFFFFFFFFFF AND DUP2 MSTORE PUSH1 0x20 ADD SWAP1 DUP2 MSTORE PUSH1 0x20 ADD PUSH0 KECCAK256 DUP1 SLOAD SWAP1 POP DUP3 GT ISZERO JUMPDEST PUSH2 0xB69 JUMPI PUSH1 0x40 MLOAD PUSH32 0x8C379A000000000000000000000000000000000000000000000000000000000 DUP2 MSTORE PUSH1 0x4 ADD PUSH2 0xB60 SWAP1 PUSH2 0x194F JUMP JUMPDEST PUSH1 0x40 MLOAD DUP1 SWAP2 SUB SWAP1 REVERT JUMPDEST PUSH0 DUP3 PUSH8 0xFFFFFFFFFFFFFFFF DUP2 GT ISZERO PUSH2 0xB84 JUMPI PUSH2 0xB83 PUSH2 0x1663 JUMP JUMPDEST JUMPDEST PUSH1 0x40 MLOAD SWAP1 DUP1 DUP3 MSTORE DUP1 PUSH1 0x20 MUL PUSH1 0x20 ADD DUP3 ADD PUSH1 0x40 MSTORE DUP1 ISZERO PUSH2 0xBBD JUMPI DUP2 PUSH1 0x20 ADD JUMPDEST PUSH2 0xBAA PUSH2 0x11EB JUMP JUMPDEST DUP2 MSTORE PUSH1 0x20 ADD SWAP1 PUSH1 0x1 SWAP1 SUB SWAP1 DUP2 PUSH2 0xBA2 JUMPI SWAP1 POP JUMPDEST POP SWAP1 POP PUSH0 DUP1 DUP5 PUSH1 0x2 PUSH0 DUP9 PUSH20 0xFFFFFFFFFFFFFFFFFFFFFFFFFFFFFFFFFFFFFFFF AND PUSH20 0xFFFFFFFFFFFFFFFFFFFFFFFFFFFFFFFFFFFFFFFF AND DUP2 MSTORE PUSH1 0x20 ADD SWAP1 DUP2 MSTORE PUSH1 0x20 ADD PUSH0 KECCAK256 DUP1 SLOAD SWAP1 POP PUSH2 0xC0E SWAP2 SWAP1 PUSH2 0x199A JUMP JUMPDEST SWAP1 POP JUMPDEST PUSH1 0x2 PUSH0 DUP8 PUSH20 0xFFFFFFFFFFFFFFFFFFFFFFFFFFFFFFFFFFFFFFFF AND PUSH20 0xFFFFFFFFFFFFFFFFFFFFFFFFFFFFFFFFFFFFFFFF AND DUP2 MSTORE PUSH1 0x20 ADD SWAP1 DUP2 MSTORE PUSH1 0x20 ADD PUSH0 KECCAK256 DUP1 SLOAD SWAP1 POP DUP2 LT ISZERO PUSH2 0xDEB JUMPI PUSH0 PUSH1 0x2 PUSH0 DUP9 PUSH20 0xFFFFFFFFFFFFFFFFFFFFFFFFFFFFFFFFFFFFFFFF AND PUSH20 0xFFFFFFFFFFFFFFFFFFFFFFFFFFFFFFFFFFFFFFFF AND DUP2 MSTORE PUSH1 0x20 ADD SWAP1 DUP2 MSTORE PUSH1 0x20 ADD PUSH0 KECCAK256 DUP3 DUP2 SLOAD DUP2 LT PUSH2 0xCA9 JUMPI PUSH2 0xCA8 PUSH2 0x1A2A JUMP JUMPDEST JUMPDEST SWAP1 PUSH0 MSTORE PUSH1 0x20 PUSH0 KECCAK256 ADD SLOAD SWAP1 POP PUSH0 DUP1 PUSH0 DUP4 DUP2 MSTORE PUSH1 0x20 ADD SWAP1 DUP2 MSTORE PUSH1 0x20 ADD PUSH0 KECCAK256 SWAP1 POP PUSH1 0x40 MLOAD DUP1 PUSH1 0x80 ADD PUSH1 0x40 MSTORE DUP1 DUP3 PUSH0 ADD SLOAD DUP2 MSTORE PUSH1 0x20 ADD DUP3 PUSH1 0x1 ADD PUSH0 SWAP1 SLOAD SWAP1 PUSH2 0x100 EXP SWAP1 DIV PUSH20 0xFFFFFFFFFFFFFFFFFFFFFFFFFFFFFFFFFFFFFFFF AND PUSH20 0xFFFFFFFFFFFFFFFFFFFFFFFFFFFFFFFFFFFFFFFF AND DUP2 MSTORE PUSH1 0x20 ADD DUP3 PUSH1 0x2 ADD DUP1 SLOAD PUSH2 0xD29 SWAP1 PUSH2 0x19FA JUMP JUMPDEST DUP1 PUSH1 0x1F ADD PUSH1 0x20 DUP1 SWAP2 DIV MUL PUSH1 0x20 ADD PUSH1 0x40 MLOAD SWAP1 DUP2 ADD PUSH1 0x40 MSTORE DUP1 SWAP3 SWAP2 SWAP1 DUP2 DUP2 MSTORE PUSH1 0x20 ADD DUP3 DUP1 SLOAD PUSH2 0xD55 SWAP1 PUSH2 0x19FA JUMP JUMPDEST DUP1 ISZERO PUSH2 0xDA0 JUMPI DUP1 PUSH1 0x1F LT PUSH2 0xD77 JUMPI PUSH2 0x100 DUP1 DUP4 SLOAD DIV MUL DUP4 MSTORE SWAP2 PUSH1 0x20 ADD SWAP2 PUSH2 0xDA0 JUMP JUMPDEST DUP3 ADD SWAP2 SWAP1 PUSH0 MSTORE PUSH1 0x20 PUSH0 KECCAK256 SWAP1 JUMPDEST DUP2 SLOAD DUP2 MSTORE SWAP1 PUSH1 0x1 ADD SWAP1 PUSH1 0x20 ADD DUP1 DUP4 GT PUSH2 0xD83 JUMPI DUP3 SWAP1 SUB PUSH1 0x1F AND DUP3 ADD SWAP2 JUMPDEST POP POP POP POP POP DUP2 MSTORE PUSH1 0x20 ADD DUP3 PUSH1 0x3 ADD SLOAD DUP2 MSTORE POP DUP6 DUP6 DUP1 PUSH2 0xDBE SWAP1 PUSH2 0x1A57 JUMP JUMPDEST SWAP7 POP DUP2 MLOAD DUP2 LT PUSH2 0xDD1 JUMPI PUSH2 0xDD0 PUSH2 0x1A2A JUMP JUMPDEST JUMPDEST PUSH1 0x20 MUL PUSH1 0x20 ADD ADD DUP2 SWAP1 MSTORE POP POP POP DUP1 DUP1 PUSH1 0x1 ADD SWAP2 POP POP PUSH2 0xC11 JUMP JUMPDEST POP DUP2 SWAP3 POP POP POP SWAP3 SWAP2 POP POP JUMP JUMPDEST PUSH2 0xE01 DUP3 DUP3 PUSH2 0x10B1 JUMP JUMPDEST POP POP JUMP JUMPDEST PUSH2 0xE10 CALLER DUP4 DUP4 PUSH2 0xF27 JUMP JUMPDEST POP POP JUMP JUMPDEST PUSH1 0x4 PUSH1 0x20 MSTORE DUP2 PUSH0 MSTORE PUSH1 0x40 PUSH0 KECCAK256 DUP2 DUP2 SLOAD DUP2 LT PUSH2 0xE2D JUMPI PUSH0 DUP1 REVERT JUMPDEST SWAP1 PUSH0 MSTORE PUSH1 0x20 PUSH0 KECCAK256 ADD PUSH0 SWAP2 POP SWAP2 POP SWAP1 SLOAD SWAP1 PUSH2 0x100 EXP SWAP1 DIV PUSH20 0xFFFFFFFFFFFFFFFFFFFFFFFFFFFFFFFFFFFFFFFF AND DUP2 JUMP JUMPDEST PUSH1 0x2 PUSH1 0x20 MSTORE DUP2 PUSH0 MSTORE PUSH1 0x40 PUSH0 KECCAK256 DUP2 DUP2 SLOAD DUP2 LT PUSH2 0xE75 JUMPI PUSH0 DUP1 REVERT JUMPDEST SWAP1 PUSH0 MSTORE PUSH1 0x20 PUSH0 KECCAK256 ADD PUSH0 SWAP2 POP SWAP2 POP POP SLOAD DUP2 JUMP JUMPDEST PUSH2 0xE91 CALLER DUP3 PUSH2 0x10B1 JUMP JUMPDEST POP JUMP JUMPDEST PUSH1 0x1 PUSH1 0x5 PUSH0 CALLER PUSH20 0xFFFFFFFFFFFFFFFFFFFFFFFFFFFFFFFFFFFFFFFF AND PUSH20 0xFFFFFFFFFFFFFFFFFFFFFFFFFFFFFFFFFFFFFFFF AND DUP2 MSTORE PUSH1 0x20 ADD SWAP1 DUP2 MSTORE PUSH1 0x20 ADD PUSH0 KECCAK256 PUSH0 DUP4 PUSH20 0xFFFFFFFFFFFFFFFFFFFFFFFFFFFFFFFFFFFFFFFF AND PUSH20 0xFFFFFFFFFFFFFFFFFFFFFFFFFFFFFFFFFFFFFFFF AND DUP2 MSTORE PUSH1 0x20 ADD SWAP1 DUP2 MSTORE PUSH1 0x20 ADD PUSH0 KECCAK256 PUSH0 PUSH2 0x100 EXP DUP2 SLOAD DUP2 PUSH1 0xFF MUL NOT AND SWAP1 DUP4 ISZERO ISZERO MUL OR SWAP1 SSTORE POP POP JUMP JUMPDEST PUSH1 0x1 PUSH0 DUP5 PUSH20 0xFFFFFFFFFFFFFFFFFFFFFFFFFFFFFFFFFFFFFFFF AND PUSH20 0xFFFFFFFFFFFFFFFFFFFFFFFFFFFFFFFFFFFFFFFF AND DUP2 MSTORE PUSH1 0x20 ADD SWAP1 DUP2 MSTORE PUSH1 0x20 ADD PUSH0 KECCAK256 PUSH1 0x40 MLOAD DUP1 PUSH1 0xA0 ADD PUSH1 0x40 MSTORE DUP1 PUSH1 0x7 SLOAD DUP2 MSTORE PUSH1 0x20 ADD DUP4 DUP2 MSTORE PUSH1 0x20 ADD DUP6 PUSH20 0xFFFFFFFFFFFFFFFFFFFFFFFFFFFFFFFFFFFFFFFF AND DUP2 MSTORE PUSH1 0x20 ADD DUP5 PUSH20 0xFFFFFFFFFFFFFFFFFFFFFFFFFFFFFFFFFFFFFFFF AND DUP2 MSTORE PUSH1 0x20 ADD TIMESTAMP DUP2 MSTORE POP SWAP1 DUP1 PUSH1 0x1 DUP2 SLOAD ADD DUP1 DUP3 SSTORE DUP1 SWAP2 POP POP PUSH1 0x1 SWAP1 SUB SWAP1 PUSH0 MSTORE PUSH1 0x20 PUSH0 KECCAK256 SWAP1 PUSH1 0x5 MUL ADD PUSH0 SWAP1 SWAP2 SWAP1 SWAP2 SWAP1 SWAP2 POP PUSH0 DUP3 ADD MLOAD DUP2 PUSH0 ADD SSTORE PUSH1 0x20 DUP3 ADD MLOAD DUP2 PUSH1 0x1 ADD SWAP1 DUP2 PUSH2 0xFFC SWAP2 SWAP1 PUSH2 0x1C3B JUMP JUMPDEST POP PUSH1 0x40 DUP3 ADD MLOAD DUP2 PUSH1 0x2 ADD PUSH0 PUSH2 0x100 EXP DUP2 SLOAD DUP2 PUSH20 0xFFFFFFFFFFFFFFFFFFFFFFFFFFFFFFFFFFFFFFFF MUL NOT AND SWAP1 DUP4 PUSH20 0xFFFFFFFFFFFFFFFFFFFFFFFFFFFFFFFFFFFFFFFF AND MUL OR SWAP1 SSTORE POP PUSH1 0x60 DUP3 ADD MLOAD DUP2 PUSH1 0x3 ADD PUSH0 PUSH2 0x100 EXP DUP2 SLOAD DUP2 PUSH20 0xFFFFFFFFFFFFFFFFFFFFFFFFFFFFFFFFFFFFFFFF MUL NOT AND SWAP1 DUP4 PUSH20 0xFFFFFFFFFFFFFFFFFFFFFFFFFFFFFFFFFFFFFFFF AND MUL OR SWAP1 SSTORE POP PUSH1 0x80 DUP3 ADD MLOAD DUP2 PUSH1 0x4 ADD SSTORE POP POP PUSH1 0x7 PUSH0 DUP2 SLOAD DUP1 SWAP3 SWAP2 SWAP1 PUSH2 0x10A7 SWAP1 PUSH2 0x1A57 JUMP JUMPDEST SWAP2 SWAP1 POP SSTORE POP POP POP POP JUMP JUMPDEST PUSH1 0x40 MLOAD DUP1 PUSH1 0x80 ADD PUSH1 0x40 MSTORE DUP1 PUSH1 0x6 SLOAD DUP2 MSTORE PUSH1 0x20 ADD DUP4 PUSH20 0xFFFFFFFFFFFFFFFFFFFFFFFFFFFFFFFFFFFFFFFF AND DUP2 MSTORE PUSH1 0x20 ADD DUP3 DUP2 MSTORE PUSH1 0x20 ADD TIMESTAMP DUP2 MSTORE POP PUSH0 DUP1 PUSH1 0x6 SLOAD DUP2 MSTORE PUSH1 0x20 ADD SWAP1 DUP2 MSTORE PUSH1 0x20 ADD PUSH0 KECCAK256 PUSH0 DUP3 ADD MLOAD DUP2 PUSH0 ADD SSTORE PUSH1 0x20 DUP3 ADD MLOAD DUP2 PUSH1 0x1 ADD PUSH0 PUSH2 0x100 EXP DUP2 SLOAD DUP2 PUSH20 0xFFFFFFFFFFFFFFFFFFFFFFFFFFFFFFFFFFFFFFFF MUL NOT AND SWAP1 DUP4 PUSH20 0xFFFFFFFFFFFFFFFFFFFFFFFFFFFFFFFFFFFFFFFF AND MUL OR SWAP1 SSTORE POP PUSH1 0x40 DUP3 ADD MLOAD DUP2 PUSH1 0x2 ADD SWAP1 DUP2 PUSH2 0x115F SWAP2 SWAP1 PUSH2 0x1C3B JUMP JUMPDEST POP PUSH1 0x60 DUP3 ADD MLOAD DUP2 PUSH1 0x3 ADD SSTORE SWAP1 POP POP PUSH1 0x2 PUSH0 DUP4 PUSH20 0xFFFFFFFFFFFFFFFFFFFFFFFFFFFFFFFFFFFFFFFF AND PUSH20 0xFFFFFFFFFFFFFFFFFFFFFFFFFFFFFFFFFFFFFFFF AND DUP2 MSTORE PUSH1 0x20 ADD SWAP1 DUP2 MSTORE PUSH1 0x20 ADD PUSH0 KECCAK256 PUSH1 0x6 SLOAD SWAP1 DUP1 PUSH1 0x1 DUP2 SLOAD ADD DUP1 DUP3 SSTORE DUP1 SWAP2 POP POP PUSH1 0x1 SWAP1 SUB SWAP1 PUSH0 MSTORE PUSH1 0x20 PUSH0 KECCAK256 ADD PUSH0 SWAP1 SWAP2 SWAP1 SWAP2 SWAP1 SWAP2 POP SSTORE PUSH1 0x6 PUSH0 DUP2 SLOAD DUP1 SWAP3 SWAP2 SWAP1 PUSH2 0x11E2 SWAP1 PUSH2 0x1A57 JUMP JUMPDEST SWAP2 SWAP1 POP SSTORE POP POP POP JUMP JUMPDEST PUSH1 0x40 MLOAD DUP1 PUSH1 0x80 ADD PUSH1 0x40 MSTORE DUP1 PUSH0 DUP2 MSTORE PUSH1 0x20 ADD PUSH0 PUSH20 0xFFFFFFFFFFFFFFFFFFFFFFFFFFFFFFFFFFFFFFFF AND DUP2 MSTORE PUSH1 0x20 ADD PUSH1 0x60 DUP2 MSTORE PUSH1 0x20 ADD PUSH0 DUP2 MSTORE POP SWAP1 JUMP JUMPDEST PUSH0 PUSH1 0x40 MLOAD SWAP1 POP SWAP1 JUMP JUMPDEST PUSH0 DUP1 REVERT JUMPDEST PUSH0 DUP1 REVERT JUMPDEST PUSH0 PUSH20 0xFFFFFFFFFFFFFFFFFFFFFFFFFFFFFFFFFFFFFFFF DUP3 AND SWAP1 POP SWAP2 SWAP1 POP JUMP JUMPDEST PUSH0 PUSH2 0x1260 DUP3 PUSH2 0x1237 JUMP JUMPDEST SWAP1 POP SWAP2 SWAP1 POP JUMP JUMPDEST PUSH2 0x1270 DUP2 PUSH2 0x1256 JUMP JUMPDEST DUP2 EQ PUSH2 0x127A JUMPI PUSH0 DUP1 REVERT JUMPDEST POP JUMP JUMPDEST PUSH0 DUP2 CALLDATALOAD SWAP1 POP PUSH2 0x128B DUP2 PUSH2 0x1267 JUMP JUMPDEST SWAP3 SWAP2 POP POP JUMP JUMPDEST PUSH0 DUP1 PUSH1 0x40 DUP4 DUP6 SUB SLT ISZERO PUSH2 0x12A7 JUMPI PUSH2 0x12A6 PUSH2 0x122F JUMP JUMPDEST JUMPDEST PUSH0 PUSH2 0x12B4 DUP6 DUP3 DUP7 ADD PUSH2 0x127D JUMP JUMPDEST SWAP3 POP POP PUSH1 0x20 PUSH2 0x12C5 DUP6 DUP3 DUP7 ADD PUSH2 0x127D JUMP JUMPDEST SWAP2 POP POP SWAP3 POP SWAP3 SWAP1 POP JUMP JUMPDEST PUSH0 DUP2 ISZERO ISZERO SWAP1 POP SWAP2 SWAP1 POP JUMP JUMPDEST PUSH2 0x12E3 DUP2 PUSH2 0x12CF JUMP JUMPDEST DUP3 MSTORE POP POP JUMP JUMPDEST PUSH0 PUSH1 0x20 DUP3 ADD SWAP1 POP PUSH2 0x12FC PUSH0 DUP4 ADD DUP5 PUSH2 0x12DA JUMP JUMPDEST SWAP3 SWAP2 POP POP JUMP JUMPDEST PUSH0 PUSH1 0x20 DUP3 DUP5 SUB SLT ISZERO PUSH2 0x1317 JUMPI PUSH2 0x1316 PUSH2 0x122F JUMP JUMPDEST JUMPDEST PUSH0 PUSH2 0x1324 DUP5 DUP3 DUP6 ADD PUSH2 0x127D JUMP JUMPDEST SWAP2 POP POP SWAP3 SWAP2 POP POP JUMP JUMPDEST PUSH0 DUP2 SWAP1 POP SWAP2 SWAP1 POP JUMP JUMPDEST PUSH2 0x133F DUP2 PUSH2 0x132D JUMP JUMPDEST DUP2 EQ PUSH2 0x1349 JUMPI PUSH0 DUP1 REVERT JUMPDEST POP JUMP JUMPDEST PUSH0 DUP2 CALLDATALOAD SWAP1 POP PUSH2 0x135A DUP2 PUSH2 0x1336 JUMP JUMPDEST SWAP3 SWAP2 POP POP JUMP JUMPDEST PUSH0 PUSH1 0x20 DUP3 DUP5 SUB SLT ISZERO PUSH2 0x1375 JUMPI PUSH2 0x1374 PUSH2 0x122F JUMP JUMPDEST JUMPDEST PUSH0 PUSH2 0x1382 DUP5 DUP3 DUP6 ADD PUSH2 0x134C JUMP JUMPDEST SWAP2 POP POP SWAP3 SWAP2 POP POP JUMP JUMPDEST PUSH0 DUP2 MLOAD SWAP1 POP SWAP2 SWAP1 POP JUMP JUMPDEST PUSH0 DUP3 DUP3 MSTORE PUSH1 0x20 DUP3 ADD SWAP1 POP SWAP3 SWAP2 POP POP JUMP JUMPDEST PUSH0 DUP2 SWAP1 POP PUSH1 0x20 DUP3 ADD SWAP1 POP SWAP2 SWAP1 POP JUMP JUMPDEST PUSH2 0x13BD DUP2 PUSH2 0x132D JUMP JUMPDEST DUP3 MSTORE POP POP JUMP JUMPDEST PUSH2 0x13CC DUP2 PUSH2 0x1256 JUMP JUMPDEST DUP3 MSTORE POP POP JUMP JUMPDEST PUSH0 DUP2 MLOAD SWAP1 POP SWAP2 SWAP1 POP JUMP JUMPDEST PUSH0 DUP3 DUP3 MSTORE PUSH1 0x20 DUP3 ADD SWAP1 POP SWAP3 SWAP2 POP POP JUMP JUMPDEST DUP3 DUP2 DUP4 MCOPY PUSH0 DUP4 DUP4 ADD MSTORE POP POP POP JUMP JUMPDEST PUSH0 PUSH1 0x1F NOT PUSH1 0x1F DUP4 ADD AND SWAP1 POP SWAP2 SWAP1 POP JUMP JUMPDEST PUSH0 PUSH2 0x1414 DUP3 PUSH2 0x13D2 JUMP JUMPDEST PUSH2 0x141E DUP2 DUP6 PUSH2 0x13DC JUMP JUMPDEST SWAP4 POP PUSH2 0x142E DUP2 DUP6 PUSH1 0x20 DUP7 ADD PUSH2 0x13EC JUMP JUMPDEST PUSH2 0x1437 DUP2 PUSH2 0x13FA JUMP JUMPDEST DUP5 ADD SWAP2 POP POP SWAP3 SWAP2 POP POP JUMP JUMPDEST PUSH0 PUSH1 0x80 DUP4 ADD PUSH0 DUP4 ADD MLOAD PUSH2 0x1457 PUSH0 DUP7 ADD DUP3 PUSH2 0x13B4 JUMP JUMPDEST POP PUSH1 0x20 DUP4 ADD MLOAD PUSH2 0x146A PUSH1 0x20 DUP7 ADD DUP3 PUSH2 0x13C3 JUMP JUMPDEST POP PUSH1 0x40 DUP4 ADD MLOAD DUP5 DUP3 SUB PUSH1 0x40 DUP7 ADD MSTORE PUSH2 0x1482 DUP3 DUP3 PUSH2 0x140A JUMP JUMPDEST SWAP2 POP POP PUSH1 0x60 DUP4 ADD MLOAD PUSH2 0x1497 PUSH1 0x60 DUP7 ADD DUP3 PUSH2 0x13B4 JUMP JUMPDEST POP DUP1 SWAP2 POP POP SWAP3 SWAP2 POP POP JUMP JUMPDEST PUSH0 PUSH2 0x14AD DUP4 DUP4 PUSH2 0x1442 JUMP JUMPDEST SWAP1 POP SWAP3 SWAP2 POP POP JUMP JUMPDEST PUSH0 PUSH1 0x20 DUP3 ADD SWAP1 POP SWAP2 SWAP1 POP JUMP JUMPDEST PUSH0 PUSH2 0x14CB DUP3 PUSH2 0x138B JUMP JUMPDEST PUSH2 0x14D5 DUP2 DUP6 PUSH2 0x1395 JUMP JUMPDEST SWAP4 POP DUP4 PUSH1 0x20 DUP3 MUL DUP6 ADD PUSH2 0x14E7 DUP6 PUSH2 0x13A5 JUMP JUMPDEST DUP1 PUSH0 JUMPDEST DUP6 DUP2 LT ISZERO PUSH2 0x1522 JUMPI DUP5 DUP5 SUB DUP10 MSTORE DUP2 MLOAD PUSH2 0x1503 DUP6 DUP3 PUSH2 0x14A2 JUMP JUMPDEST SWAP5 POP PUSH2 0x150E DUP4 PUSH2 0x14B5 JUMP JUMPDEST SWAP3 POP PUSH1 0x20 DUP11 ADD SWAP10 POP POP PUSH1 0x1 DUP2 ADD SWAP1 POP PUSH2 0x14EA JUMP JUMPDEST POP DUP3 SWAP8 POP DUP8 SWAP6 POP POP POP POP POP POP SWAP3 SWAP2 POP POP JUMP JUMPDEST PUSH0 PUSH1 0x20 DUP3 ADD SWAP1 POP DUP2 DUP2 SUB PUSH0 DUP4 ADD MSTORE PUSH2 0x154C DUP2 DUP5 PUSH2 0x14C1 JUMP JUMPDEST SWAP1 POP SWAP3 SWAP2 POP POP JUMP JUMPDEST PUSH0 DUP1 PUSH1 0x40 DUP4 DUP6 SUB SLT ISZERO PUSH2 0x156A JUMPI PUSH2 0x1569 PUSH2 0x122F JUMP JUMPDEST JUMPDEST PUSH0 PUSH2 0x1577 DUP6 DUP3 DUP7 ADD PUSH2 0x127D JUMP JUMPDEST SWAP3 POP POP PUSH1 0x20 PUSH2 0x1588 DUP6 DUP3 DUP7 ADD PUSH2 0x134C JUMP JUMPDEST SWAP2 POP POP SWAP3 POP SWAP3 SWAP1 POP JUMP JUMPDEST PUSH2 0x159B DUP2 PUSH2 0x1256 JUMP JUMPDEST DUP3 MSTORE POP POP JUMP JUMPDEST PUSH0 PUSH1 0x20 DUP3 ADD SWAP1 POP PUSH2 0x15B4 PUSH0 DUP4 ADD DUP5 PUSH2 0x1592 JUMP JUMPDEST SWAP3 SWAP2 POP POP JUMP JUMPDEST PUSH2 0x15C3 DUP2 PUSH2 0x132D JUMP JUMPDEST DUP3 MSTORE POP POP JUMP JUMPDEST PUSH0 DUP3 DUP3 MSTORE PUSH1 0x20 DUP3 ADD SWAP1 POP SWAP3 SWAP2 POP POP JUMP JUMPDEST PUSH0 PUSH2 0x15E3 DUP3 PUSH2 0x13D2 JUMP JUMPDEST PUSH2 0x15ED DUP2 DUP6 PUSH2 0x15C9 JUMP JUMPDEST SWAP4 POP PUSH2 0x15FD DUP2 DUP6 PUSH1 0x20 DUP7 ADD PUSH2 0x13EC JUMP JUMPDEST PUSH2 0x1606 DUP2 PUSH2 0x13FA JUMP JUMPDEST DUP5 ADD SWAP2 POP POP SWAP3 SWAP2 POP POP JUMP JUMPDEST PUSH0 PUSH1 0x80 DUP3 ADD SWAP1 POP PUSH2 0x1624 PUSH0 DUP4 ADD DUP8 PUSH2 0x15BA JUMP JUMPDEST PUSH2 0x1631 PUSH1 0x20 DUP4 ADD DUP7 PUSH2 0x1592 JUMP JUMPDEST DUP2 DUP2 SUB PUSH1 0x40 DUP4 ADD MSTORE PUSH2 0x1643 DUP2 DUP6 PUSH2 0x15D9 JUMP JUMPDEST SWAP1 POP PUSH2 0x1652 PUSH1 0x60 DUP4 ADD DUP5 PUSH2 0x15BA JUMP JUMPDEST SWAP6 SWAP5 POP POP POP POP POP JUMP JUMPDEST PUSH0 DUP1 REVERT JUMPDEST PUSH0 DUP1 REVERT JUMPDEST PUSH32 0x4E487B7100000000000000000000000000000000000000000000000000000000 PUSH0 MSTORE PUSH1 0x41 PUSH1 0x4 MSTORE PUSH1 0x24 PUSH0 REVERT JUMPDEST PUSH2 0x1699 DUP3 PUSH2 0x13FA JUMP JUMPDEST DUP2 ADD DUP2 DUP2 LT PUSH8 0xFFFFFFFFFFFFFFFF DUP3 GT OR ISZERO PUSH2 0x16B8 JUMPI PUSH2 0x16B7 PUSH2 0x1663 JUMP JUMPDEST JUMPDEST DUP1 PUSH1 0x40 MSTORE POP POP POP JUMP JUMPDEST PUSH0 PUSH2 0x16CA PUSH2 0x1226 JUMP JUMPDEST SWAP1 POP PUSH2 0x16D6 DUP3 DUP3 PUSH2 0x1690 JUMP JUMPDEST SWAP2 SWAP1 POP JUMP JUMPDEST PUSH0 PUSH8 0xFFFFFFFFFFFFFFFF DUP3 GT ISZERO PUSH2 0x16F5 JUMPI PUSH2 0x16F4 PUSH2 0x1663 JUMP JUMPDEST JUMPDEST PUSH2 0x16FE DUP3 PUSH2 0x13FA JUMP JUMPDEST SWAP1 POP PUSH1 0x20 DUP2 ADD SWAP1 POP SWAP2 SWAP1 POP JUMP JUMPDEST DUP3 DUP2 DUP4 CALLDATACOPY PUSH0 DUP4 DUP4 ADD MSTORE POP POP POP JUMP JUMPDEST PUSH0 PUSH2 0x172B PUSH2 0x1726 DUP5 PUSH2 0x16DB JUMP JUMPDEST PUSH2 0x16C1 JUMP JUMPDEST SWAP1 POP DUP3 DUP2 MSTORE PUSH1 0x20 DUP2 ADD DUP5 DUP5 DUP5 ADD GT ISZERO PUSH2 0x1747 JUMPI PUSH2 0x1746 PUSH2 0x165F JUMP JUMPDEST JUMPDEST PUSH2 0x1752 DUP5 DUP3 DUP6 PUSH2 0x170B JUMP JUMPDEST POP SWAP4 SWAP3 POP POP POP JUMP JUMPDEST PUSH0 DUP3 PUSH1 0x1F DUP4 ADD SLT PUSH2 0x176E JUMPI PUSH2 0x176D PUSH2 0x165B JUMP JUMPDEST JUMPDEST DUP2 CALLDATALOAD PUSH2 0x177E DUP5 DUP3 PUSH1 0x20 DUP7 ADD PUSH2 0x1719 JUMP JUMPDEST SWAP2 POP POP SWAP3 SWAP2 POP POP JUMP JUMPDEST PUSH0 DUP1 PUSH0 PUSH1 0x60 DUP5 DUP7 SUB SLT ISZERO PUSH2 0x179E JUMPI PUSH2 0x179D PUSH2 0x122F JUMP JUMPDEST JUMPDEST PUSH0 PUSH2 0x17AB DUP7 DUP3 DUP8 ADD PUSH2 0x127D JUMP JUMPDEST SWAP4 POP POP PUSH1 0x20 PUSH2 0x17BC DUP7 DUP3 DUP8 ADD PUSH2 0x127D JUMP JUMPDEST SWAP3 POP POP PUSH1 0x40 DUP5 ADD CALLDATALOAD PUSH8 0xFFFFFFFFFFFFFFFF DUP2 GT ISZERO PUSH2 0x17DD JUMPI PUSH2 0x17DC PUSH2 0x1233 JUMP JUMPDEST JUMPDEST PUSH2 0x17E9 DUP7 DUP3 DUP8 ADD PUSH2 0x175A JUMP JUMPDEST SWAP2 POP POP SWAP3 POP SWAP3 POP SWAP3 JUMP JUMPDEST PUSH0 PUSH1 0xA0 DUP3 ADD SWAP1 POP PUSH2 0x1806 PUSH0 DUP4 ADD DUP9 PUSH2 0x15BA JUMP JUMPDEST DUP2 DUP2 SUB PUSH1 0x20 DUP4 ADD MSTORE PUSH2 0x1818 DUP2 DUP8 PUSH2 0x15D9 JUMP JUMPDEST SWAP1 POP PUSH2 0x1827 PUSH1 0x40 DUP4 ADD DUP7 PUSH2 0x1592 JUMP JUMPDEST PUSH2 0x1834 PUSH1 0x60 DUP4 ADD DUP6 PUSH2 0x1592 JUMP JUMPDEST PUSH2 0x1841 PUSH1 0x80 DUP4 ADD DUP5 PUSH2 0x15BA JUMP JUMPDEST SWAP7 SWAP6 POP POP POP POP POP POP JUMP JUMPDEST PUSH0 DUP1 PUSH1 0x40 DUP4 DUP6 SUB SLT ISZERO PUSH2 0x1861 JUMPI PUSH2 0x1860 PUSH2 0x122F JUMP JUMPDEST JUMPDEST PUSH0 PUSH2 0x186E DUP6 DUP3 DUP7 ADD PUSH2 0x127D JUMP JUMPDEST SWAP3 POP POP PUSH1 0x20 DUP4 ADD CALLDATALOAD PUSH8 0xFFFFFFFFFFFFFFFF DUP2 GT ISZERO PUSH2 0x188F JUMPI PUSH2 0x188E PUSH2 0x1233 JUMP JUMPDEST JUMPDEST PUSH2 0x189B DUP6 DUP3 DUP7 ADD PUSH2 0x175A JUMP JUMPDEST SWAP2 POP POP SWAP3 POP SWAP3 SWAP1 POP JUMP JUMPDEST PUSH0 PUSH1 0x20 DUP3 ADD SWAP1 POP PUSH2 0x18B8 PUSH0 DUP4 ADD DUP5 PUSH2 0x15BA JUMP JUMPDEST SWAP3 SWAP2 POP POP JUMP JUMPDEST PUSH0 PUSH1 0x20 DUP3 DUP5 SUB SLT ISZERO PUSH2 0x18D3 JUMPI PUSH2 0x18D2 PUSH2 0x122F JUMP JUMPDEST JUMPDEST PUSH0 DUP3 ADD CALLDATALOAD PUSH8 0xFFFFFFFFFFFFFFFF DUP2 GT ISZERO PUSH2 0x18F0 JUMPI PUSH2 0x18EF PUSH2 0x1233 JUMP JUMPDEST JUMPDEST PUSH2 0x18FC DUP5 DUP3 DUP6 ADD PUSH2 0x175A JUMP JUMPDEST SWAP2 POP POP SWAP3 SWAP2 POP POP JUMP JUMPDEST PUSH32 0x436F756E74206973206E6F742070726F70657200000000000000000000000000 PUSH0 DUP3 ADD MSTORE POP JUMP JUMPDEST PUSH0 PUSH2 0x1939 PUSH1 0x13 DUP4 PUSH2 0x15C9 JUMP JUMPDEST SWAP2 POP PUSH2 0x1944 DUP3 PUSH2 0x1905 JUMP JUMPDEST PUSH1 0x20 DUP3 ADD SWAP1 POP SWAP2 SWAP1 POP JUMP JUMPDEST PUSH0 PUSH1 0x20 DUP3 ADD SWAP1 POP DUP2 DUP2 SUB PUSH0 DUP4 ADD MSTORE PUSH2 0x1966 DUP2 PUSH2 0x192D JUMP JUMPDEST SWAP1 POP SWAP2 SWAP1 POP JUMP JUMPDEST PUSH32 0x4E487B7100000000000000000000000000000000000000000000000000000000 PUSH0 MSTORE PUSH1 0x11 PUSH1 0x4 MSTORE PUSH1 0x24 PUSH0 REVERT JUMPDEST PUSH0 PUSH2 0x19A4 DUP3 PUSH2 0x132D JUMP JUMPDEST SWAP2 POP PUSH2 0x19AF DUP4 PUSH2 0x132D JUMP JUMPDEST SWAP3 POP DUP3 DUP3 SUB SWAP1 POP DUP2 DUP2 GT ISZERO PUSH2 0x19C7 JUMPI PUSH2 0x19C6 PUSH2 0x196D JUMP JUMPDEST JUMPDEST SWAP3 SWAP2 POP POP JUMP JUMPDEST PUSH32 0x4E487B7100000000000000000000000000000000000000000000000000000000 PUSH0 MSTORE PUSH1 0x22 PUSH1 0x4 MSTORE PUSH1 0x24 PUSH0 REVERT JUMPDEST PUSH0 PUSH1 0x2 DUP3 DIV SWAP1 POP PUSH1 0x1 DUP3 AND DUP1 PUSH2 0x1A11 JUMPI PUSH1 0x7F DUP3 AND SWAP2 POP JUMPDEST PUSH1 0x20 DUP3 LT DUP2 SUB PUSH2 0x1A24 JUMPI PUSH2 0x1A23 PUSH2 0x19CD JUMP JUMPDEST JUMPDEST POP SWAP2 SWAP1 POP JUMP JUMPDEST PUSH32 0x4E487B7100000000000000000000000000000000000000000000000000000000 PUSH0 MSTORE PUSH1 0x32 PUSH1 0x4 MSTORE PUSH1 0x24 PUSH0 REVERT JUMPDEST PUSH0 PUSH2 0x1A61 DUP3 PUSH2 0x132D JUMP JUMPDEST SWAP2 POP PUSH32 0xFFFFFFFFFFFFFFFFFFFFFFFFFFFFFFFFFFFFFFFFFFFFFFFFFFFFFFFFFFFFFFFF DUP3 SUB PUSH2 0x1A93 JUMPI PUSH2 0x1A92 PUSH2 0x196D JUMP JUMPDEST JUMPDEST PUSH1 0x1 DUP3 ADD SWAP1 POP SWAP2 SWAP1 POP JUMP JUMPDEST PUSH0 DUP2 SWAP1 POP DUP2 PUSH0 MSTORE PUSH1 0x20 PUSH0 KECCAK256 SWAP1 POP SWAP2 SWAP1 POP JUMP JUMPDEST PUSH0 PUSH1 0x20 PUSH1 0x1F DUP4 ADD DIV SWAP1 POP SWAP2 SWAP1 POP JUMP JUMPDEST PUSH0 DUP3 DUP3 SHL SWAP1 POP SWAP3 SWAP2 POP POP JUMP JUMPDEST PUSH0 PUSH1 0x8 DUP4 MUL PUSH2 0x1AFA PUSH32 0xFFFFFFFFFFFFFFFFFFFFFFFFFFFFFFFFFFFFFFFFFFFFFFFFFFFFFFFFFFFFFFFF DUP3 PUSH2 0x1ABF JUMP JUMPDEST PUSH2 0x1B04 DUP7 DUP4 PUSH2 0x1ABF JUMP JUMPDEST SWAP6 POP DUP1 NOT DUP5 AND SWAP4 POP DUP1 DUP7 AND DUP5 OR SWAP3 POP POP POP SWAP4 SWAP3 POP POP POP JUMP JUMPDEST PUSH0 DUP2 SWAP1 POP SWAP2 SWAP1 POP JUMP JUMPDEST PUSH0 PUSH2 0x1B3F PUSH2 0x1B3A PUSH2 0x1B35 DUP5 PUSH2 0x132D JUMP JUMPDEST PUSH2 0x1B1C JUMP JUMPDEST PUSH2 0x132D JUMP JUMPDEST SWAP1 POP SWAP2 SWAP1 POP JUMP JUMPDEST PUSH0 DUP2 SWAP1 POP SWAP2 SWAP1 POP JUMP JUMPDEST PUSH2 0x1B58 DUP4 PUSH2 0x1B25 JUMP JUMPDEST PUSH2 0x1B6C PUSH2 0x1B64 DUP3 PUSH2 0x1B46 JUMP JUMPDEST DUP5 DUP5 SLOAD PUSH2 0x1ACB JUMP JUMPDEST DUP3 SSTORE POP POP POP POP JUMP JUMPDEST PUSH0 SWAP1 JUMP JUMPDEST PUSH2 0x1B80 PUSH2 0x1B74 JUMP JUMPDEST PUSH2 0x1B8B DUP2 DUP5 DUP5 PUSH2 0x1B4F JUMP JUMPDEST POP POP POP JUMP JUMPDEST JUMPDEST DUP2 DUP2 LT ISZERO PUSH2 0x1BAE JUMPI PUSH2 0x1BA3 PUSH0 DUP3 PUSH2 0x1B78 JUMP JUMPDEST PUSH1 0x1 DUP2 ADD SWAP1 POP PUSH2 0x1B91 JUMP JUMPDEST POP POP JUMP JUMPDEST PUSH1 0x1F DUP3 GT ISZERO PUSH2 0x1BF3 JUMPI PUSH2 0x1BC4 DUP2 PUSH2 0x1A9E JUMP JUMPDEST PUSH2 0x1BCD DUP5 PUSH2 0x1AB0 JUMP JUMPDEST DUP2 ADD PUSH1 0x20 DUP6 LT ISZERO PUSH2 0x1BDC JUMPI DUP2 SWAP1 POP JUMPDEST PUSH2 0x1BF0 PUSH2 0x1BE8 DUP6 PUSH2 0x1AB0 JUMP JUMPDEST DUP4 ADD DUP3 PUSH2 0x1B90 JUMP JUMPDEST POP POP JUMPDEST POP POP POP JUMP JUMPDEST PUSH0 DUP3 DUP3 SHR SWAP1 POP SWAP3 SWAP2 POP POP JUMP JUMPDEST PUSH0 PUSH2 0x1C13 PUSH0 NOT DUP5 PUSH1 0x8 MUL PUSH2 0x1BF8 JUMP JUMPDEST NOT DUP1 DUP4 AND SWAP2 POP POP SWAP3 SWAP2 POP POP JUMP JUMPDEST PUSH0 PUSH2 0x1C2B DUP4 DUP4 PUSH2 0x1C04 JUMP JUMPDEST SWAP2 POP DUP3 PUSH1 0x2 MUL DUP3 OR SWAP1 POP SWAP3 SWAP2 POP POP JUMP JUMPDEST PUSH2 0x1C44 DUP3 PUSH2 0x13D2 JUMP JUMPDEST PUSH8 0xFFFFFFFFFFFFFFFF DUP2 GT ISZERO PUSH2 0x1C5D JUMPI PUSH2 0x1C5C PUSH2 0x1663 JUMP JUMPDEST JUMPDEST PUSH2 0x1C67 DUP3 SLOAD PUSH2 0x19FA JUMP JUMPDEST PUSH2 0x1C72 DUP3 DUP3 DUP6 PUSH2 0x1BB2 JUMP JUMPDEST PUSH0 PUSH1 0x20 SWAP1 POP PUSH1 0x1F DUP4 GT PUSH1 0x1 DUP2 EQ PUSH2 0x1CA3 JUMPI PUSH0 DUP5 ISZERO PUSH2 0x1C91 JUMPI DUP3 DUP8 ADD MLOAD SWAP1 POP JUMPDEST PUSH2 0x1C9B DUP6 DUP3 PUSH2 0x1C20 JUMP JUMPDEST DUP7 SSTORE POP PUSH2 0x1D02 JUMP JUMPDEST PUSH1 0x1F NOT DUP5 AND PUSH2 0x1CB1 DUP7 PUSH2 0x1A9E JUMP JUMPDEST PUSH0 JUMPDEST DUP3 DUP2 LT ISZERO PUSH2 0x1CD8 JUMPI DUP5 DUP10 ADD MLOAD DUP3 SSTORE PUSH1 0x1 DUP3 ADD SWAP2 POP PUSH1 0x20 DUP6 ADD SWAP5 POP PUSH1 0x20 DUP2 ADD SWAP1 POP PUSH2 0x1CB3 JUMP JUMPDEST DUP7 DUP4 LT ISZERO PUSH2 0x1CF5 JUMPI DUP5 DUP10 ADD MLOAD PUSH2 0x1CF1 PUSH1 0x1F DUP10 AND DUP3 PUSH2 0x1C04 JUMP JUMPDEST DUP4 SSTORE POP JUMPDEST PUSH1 0x1 PUSH1 0x2 DUP9 MUL ADD DUP9 SSTORE POP POP POP JUMPDEST POP POP POP POP POP POP JUMP INVALID LOG2 PUSH5 0x6970667358 0x22 SLT KECCAK256 0xE XOR DUP10 BASEFEE 0xC9 OR SSTORE SLT LOG4 0x2D GASLIMIT MSIZE 0xEB SWAP3 ADD 0xCF 0xBE 0xE5 MOD BLOCKHASH ORIGIN 0xC0 0xAE 0xCD 0x24 PUSH25 0x1A825E7A229364736F6C634300081A00330000000000000000 "
				},
				"gasEstimates": {
					"creation": {
						"codeDepositCost": "1497600",
						"executionCost": "1559",
						"totalCost": "1499159"
					},
					"external": {
						"Tweets(uint256)": "infinite",
						"TweetsOf(address,uint256)": "infinite",
						"allow(address)": "24978",
						"disallow(address)": "24956",
						"follow(address)": "97821",
						"follow(address,address)": "infinite",
						"followers(address,uint256)": "infinite",
						"following(address,uint256)": "infinite",
						"getLatestTweets(uint256)": "infinite",
						"getLatestTweetsOfUser(address,uint256)": "infinite",
						"messages(address,uint256)": "infinite",
						"operators(address,address)": "infinite",
						"sendMessage(address,address,string)": "infinite",
						"sendMessage(address,string)": "infinite",
						"tweet(address,string)": "infinite",
						"tweet(string)": "infinite"
					},
					"internal": {
						"_sendMessage(address,address,string memory)": "infinite",
						"_tweet(address,string memory)": "infinite"
					}
				},
				"methodIdentifiers": {
					"Tweets(uint256)": "97443ce1",
					"TweetsOf(address,uint256)": "f7bf1c12",
					"allow(address)": "ff9913e8",
					"disallow(address)": "a9ed9cb8",
					"follow(address)": "4dbf27cc",
					"follow(address,address)": "99d147c2",
					"followers(address,uint256)": "ebd009d3",
					"following(address,uint256)": "9139cda5",
					"getLatestTweets(uint256)": "4dc0a687",
					"getLatestTweetsOfUser(address,uint256)": "ce336dad",
					"messages(address,uint256)": "c45d9bea",
					"operators(address,address)": "2637588e",
					"sendMessage(address,address,string)": "b88e318d",
					"sendMessage(address,string)": "de6f24bb",
					"tweet(address,string)": "d21d1596",
					"tweet(string)": "fb46d4c5"
				}
			},
			"storageLayout": {
				"storage": [
					{
						"astId": 26,
						"contract": "contracts/Twitter_29.sol:Twitter",
						"label": "Tweets",
						"offset": 0,
						"slot": "0",
						"type": "t_mapping(t_uint256,t_struct(Tweet)10_storage)"
					},
					{
						"astId": 32,
						"contract": "contracts/Twitter_29.sol:Twitter",
						"label": "messages",
						"offset": 0,
						"slot": "1",
						"type": "t_mapping(t_address,t_array(t_struct(message)21_storage)dyn_storage)"
					},
					{
						"astId": 37,
						"contract": "contracts/Twitter_29.sol:Twitter",
						"label": "TweetsOf",
						"offset": 0,
						"slot": "2",
						"type": "t_mapping(t_address,t_array(t_uint256)dyn_storage)"
					},
					{
						"astId": 42,
						"contract": "contracts/Twitter_29.sol:Twitter",
						"label": "following",
						"offset": 0,
						"slot": "3",
						"type": "t_mapping(t_address,t_array(t_address)dyn_storage)"
					},
					{
						"astId": 47,
						"contract": "contracts/Twitter_29.sol:Twitter",
						"label": "followers",
						"offset": 0,
						"slot": "4",
						"type": "t_mapping(t_address,t_array(t_address)dyn_storage)"
					},
					{
						"astId": 53,
						"contract": "contracts/Twitter_29.sol:Twitter",
						"label": "operators",
						"offset": 0,
						"slot": "5",
						"type": "t_mapping(t_address,t_mapping(t_address,t_bool))"
					},
					{
						"astId": 55,
						"contract": "contracts/Twitter_29.sol:Twitter",
						"label": "nextId",
						"offset": 0,
						"slot": "6",
						"type": "t_uint256"
					},
					{
						"astId": 57,
						"contract": "contracts/Twitter_29.sol:Twitter",
						"label": "nextMessageId",
						"offset": 0,
						"slot": "7",
						"type": "t_uint256"
					}
				],
				"types": {
					"t_address": {
						"encoding": "inplace",
						"label": "address",
						"numberOfBytes": "20"
					},
					"t_array(t_address)dyn_storage": {
						"base": "t_address",
						"encoding": "dynamic_array",
						"label": "address[]",
						"numberOfBytes": "32"
					},
					"t_array(t_struct(message)21_storage)dyn_storage": {
						"base": "t_struct(message)21_storage",
						"encoding": "dynamic_array",
						"label": "struct Twitter.message[]",
						"numberOfBytes": "32"
					},
					"t_array(t_uint256)dyn_storage": {
						"base": "t_uint256",
						"encoding": "dynamic_array",
						"label": "uint256[]",
						"numberOfBytes": "32"
					},
					"t_bool": {
						"encoding": "inplace",
						"label": "bool",
						"numberOfBytes": "1"
					},
					"t_mapping(t_address,t_array(t_address)dyn_storage)": {
						"encoding": "mapping",
						"key": "t_address",
						"label": "mapping(address => address[])",
						"numberOfBytes": "32",
						"value": "t_array(t_address)dyn_storage"
					},
					"t_mapping(t_address,t_array(t_struct(message)21_storage)dyn_storage)": {
						"encoding": "mapping",
						"key": "t_address",
						"label": "mapping(address => struct Twitter.message[])",
						"numberOfBytes": "32",
						"value": "t_array(t_struct(message)21_storage)dyn_storage"
					},
					"t_mapping(t_address,t_array(t_uint256)dyn_storage)": {
						"encoding": "mapping",
						"key": "t_address",
						"label": "mapping(address => uint256[])",
						"numberOfBytes": "32",
						"value": "t_array(t_uint256)dyn_storage"
					},
					"t_mapping(t_address,t_bool)": {
						"encoding": "mapping",
						"key": "t_address",
						"label": "mapping(address => bool)",
						"numberOfBytes": "32",
						"value": "t_bool"
					},
					"t_mapping(t_address,t_mapping(t_address,t_bool))": {
						"encoding": "mapping",
						"key": "t_address",
						"label": "mapping(address => mapping(address => bool))",
						"numberOfBytes": "32",
						"value": "t_mapping(t_address,t_bool)"
					},
					"t_mapping(t_uint256,t_struct(Tweet)10_storage)": {
						"encoding": "mapping",
						"key": "t_uint256",
						"label": "mapping(uint256 => struct Twitter.Tweet)",
						"numberOfBytes": "32",
						"value": "t_struct(Tweet)10_storage"
					},
					"t_string_storage": {
						"encoding": "bytes",
						"label": "string",
						"numberOfBytes": "32"
					},
					"t_struct(Tweet)10_storage": {
						"encoding": "inplace",
						"label": "struct Twitter.Tweet",
						"members": [
							{
								"astId": 3,
								"contract": "contracts/Twitter_29.sol:Twitter",
								"label": "id",
								"offset": 0,
								"slot": "0",
								"type": "t_uint256"
							},
							{
								"astId": 5,
								"contract": "contracts/Twitter_29.sol:Twitter",
								"label": "author",
								"offset": 0,
								"slot": "1",
								"type": "t_address"
							},
							{
								"astId": 7,
								"contract": "contracts/Twitter_29.sol:Twitter",
								"label": "content",
								"offset": 0,
								"slot": "2",
								"type": "t_string_storage"
							},
							{
								"astId": 9,
								"contract": "contracts/Twitter_29.sol:Twitter",
								"label": "createdAt",
								"offset": 0,
								"slot": "3",
								"type": "t_uint256"
							}
						],
						"numberOfBytes": "128"
					},
					"t_struct(message)21_storage": {
						"encoding": "inplace",
						"label": "struct Twitter.message",
						"members": [
							{
								"astId": 12,
								"contract": "contracts/Twitter_29.sol:Twitter",
								"label": "id",
								"offset": 0,
								"slot": "0",
								"type": "t_uint256"
							},
							{
								"astId": 14,
								"contract": "contracts/Twitter_29.sol:Twitter",
								"label": "content",
								"offset": 0,
								"slot": "1",
								"type": "t_string_storage"
							},
							{
								"astId": 16,
								"contract": "contracts/Twitter_29.sol:Twitter",
								"label": "from",
								"offset": 0,
								"slot": "2",
								"type": "t_address"
							},
							{
								"astId": 18,
								"contract": "contracts/Twitter_29.sol:Twitter",
								"label": "to",
								"offset": 0,
								"slot": "3",
								"type": "t_address"
							},
							{
								"astId": 20,
								"contract": "contracts/Twitter_29.sol:Twitter",
								"label": "createdAt",
								"offset": 0,
								"slot": "4",
								"type": "t_uint256"
							}
						],
						"numberOfBytes": "160"
					},
					"t_uint256": {
						"encoding": "inplace",
						"label": "uint256",
						"numberOfBytes": "32"
					}
				}
			},
			"userdoc": {
				"kind": "user",
				"methods": {},
				"version": 1
			}
		}
	}
}