{
	"contracts/MemoryVsStorageKeywords_17.sol": {
		"MemVsSto": {
			"abi": [
				{
					"inputs": [],
					"name": "MemoryKeyword",
					"outputs": [],
					"stateMutability": "view",
					"type": "function"
				},
				{
					"inputs": [],
					"name": "StorageKeyword",
					"outputs": [],
					"stateMutability": "nonpayable",
					"type": "function"
				},
				{
					"inputs": [
						{
							"internalType": "uint256",
							"name": "",
							"type": "uint256"
						}
					],
					"name": "arr",
					"outputs": [
						{
							"internalType": "uint256",
							"name": "",
							"type": "uint256"
						}
					],
					"stateMutability": "view",
					"type": "function"
				},
				{
					"inputs": [],
					"name": "searchElement",
					"outputs": [
						{
							"internalType": "bool",
							"name": "",
							"type": "bool"
						}
					],
					"stateMutability": "view",
					"type": "function"
				}
			],
			"devdoc": {
				"kind": "dev",
				"methods": {},
				"version": 1
			},
			"evm": {
				"assembly": "    /* \"contracts/MemoryVsStorageKeywords_17.sol\":72:638  contract MemVsSto{\r... */\n  mstore(0x40, 0x80)\n    /* \"contracts/MemoryVsStorageKeywords_17.sol\":96:126  uint[5] public arr=[1,2,3,4,5] */\n  mload(0x40)\n  dup1\n  0xa0\n  add\n  0x40\n  mstore\n  dup1\n    /* \"contracts/MemoryVsStorageKeywords_17.sol\":116:117  1 */\n  0x01\n    /* \"contracts/MemoryVsStorageKeywords_17.sol\":96:126  uint[5] public arr=[1,2,3,4,5] */\n  0xff\n  and\n  dup2\n  mstore\n  0x20\n  add\n    /* \"contracts/MemoryVsStorageKeywords_17.sol\":118:119  2 */\n  0x02\n    /* \"contracts/MemoryVsStorageKeywords_17.sol\":96:126  uint[5] public arr=[1,2,3,4,5] */\n  0xff\n  and\n  dup2\n  mstore\n  0x20\n  add\n    /* \"contracts/MemoryVsStorageKeywords_17.sol\":120:121  3 */\n  0x03\n    /* \"contracts/MemoryVsStorageKeywords_17.sol\":96:126  uint[5] public arr=[1,2,3,4,5] */\n  0xff\n  and\n  dup2\n  mstore\n  0x20\n  add\n    /* \"contracts/MemoryVsStorageKeywords_17.sol\":122:123  4 */\n  0x04\n    /* \"contracts/MemoryVsStorageKeywords_17.sol\":96:126  uint[5] public arr=[1,2,3,4,5] */\n  0xff\n  and\n  dup2\n  mstore\n  0x20\n  add\n    /* \"contracts/MemoryVsStorageKeywords_17.sol\":124:125  5 */\n  0x05\n    /* \"contracts/MemoryVsStorageKeywords_17.sol\":96:126  uint[5] public arr=[1,2,3,4,5] */\n  0xff\n  and\n  dup2\n  mstore\n  pop\n  0x00\n  swap1\n  0x05\n  tag_1\n  swap3\n  swap2\n  swap1\n  tag_2\n  jump\t// in\ntag_1:\n  pop\n    /* \"contracts/MemoryVsStorageKeywords_17.sol\":72:638  contract MemVsSto{\r... */\n  callvalue\n  dup1\n  iszero\n  tag_3\n  jumpi\n  0x00\n  dup1\n  revert\ntag_3:\n  pop\n  jump(tag_4)\ntag_2:\n  dup3\n  0x05\n  dup2\n  add\n  swap3\n  dup3\n  iszero\n  tag_5\n  jumpi\n  swap2\n  0x20\n  mul\n  dup3\n  add\ntag_6:\n  dup3\n  dup2\n  gt\n  iszero\n  tag_7\n  jumpi\n  dup3\n  mload\n  dup3\n  swap1\n  0xff\n  and\n  swap1\n  sstore\n  swap2\n  0x20\n  add\n  swap2\n  swap1\n  0x01\n  add\n  swap1\n  jump(tag_6)\ntag_7:\ntag_5:\n  pop\n  swap1\n  pop\n  tag_8\n  swap2\n  swap1\n  tag_9\n  jump\t// in\ntag_8:\n  pop\n  swap1\n  jump\t// out\ntag_9:\ntag_10:\n  dup1\n  dup3\n  gt\n  iszero\n  tag_11\n  jumpi\n  0x00\n  dup2\n  0x00\n  swap1\n  sstore\n  pop\n  0x01\n  add\n  jump(tag_10)\ntag_11:\n  pop\n  swap1\n  jump\t// out\ntag_4:\n  dataSize(sub_0)\n  dup1\n  dataOffset(sub_0)\n  0x00\n  codecopy\n  0x00\n  return\nstop\n\nsub_0: assembly {\n        /* \"contracts/MemoryVsStorageKeywords_17.sol\":72:638  contract MemVsSto{\r... */\n      mstore(0x40, 0x80)\n      callvalue\n      dup1\n      iszero\n      tag_1\n      jumpi\n      0x00\n      dup1\n      revert\n    tag_1:\n      pop\n      jumpi(tag_2, lt(calldatasize, 0x04))\n      shr(0xe0, calldataload(0x00))\n      dup1\n      0x3c93b1d6\n      eq\n      tag_3\n      jumpi\n      dup1\n      0x4ae73baa\n      eq\n      tag_4\n      jumpi\n      dup1\n      0x71e5ee5f\n      eq\n      tag_5\n      jumpi\n      dup1\n      0xa9302708\n      eq\n      tag_6\n      jumpi\n    tag_2:\n      0x00\n      dup1\n      revert\n        /* \"contracts/MemoryVsStorageKeywords_17.sol\":135:270  function StorageKeyword() public {\r... */\n    tag_3:\n      tag_7\n      tag_8\n      jump\t// in\n    tag_7:\n      stop\n        /* \"contracts/MemoryVsStorageKeywords_17.sol\":423:635  function searchElement() public view returns(bool){\r... */\n    tag_4:\n      tag_9\n      tag_10\n      jump\t// in\n    tag_9:\n      mload(0x40)\n      tag_11\n      swap2\n      swap1\n      tag_12\n      jump\t// in\n    tag_11:\n      mload(0x40)\n      dup1\n      swap2\n      sub\n      swap1\n      return\n        /* \"contracts/MemoryVsStorageKeywords_17.sol\":96:126  uint[5] public arr=[1,2,3,4,5] */\n    tag_5:\n      tag_13\n      0x04\n      dup1\n      calldatasize\n      sub\n      dup2\n      add\n      swap1\n      tag_14\n      swap2\n      swap1\n      tag_15\n      jump\t// in\n    tag_14:\n      tag_16\n      jump\t// in\n    tag_13:\n      mload(0x40)\n      tag_17\n      swap2\n      swap1\n      tag_18\n      jump\t// in\n    tag_17:\n      mload(0x40)\n      dup1\n      swap2\n      sub\n      swap1\n      return\n        /* \"contracts/MemoryVsStorageKeywords_17.sol\":278:415  function MemoryKeyword() public view{\r... */\n    tag_6:\n      tag_19\n      tag_20\n      jump\t// in\n    tag_19:\n      stop\n        /* \"contracts/MemoryVsStorageKeywords_17.sol\":135:270  function StorageKeyword() public {\r... */\n    tag_8:\n        /* \"contracts/MemoryVsStorageKeywords_17.sol\":179:198  uint[5] storage brr */\n      0x00\n        /* \"contracts/MemoryVsStorageKeywords_17.sol\":261:262  6 */\n      0x06\n        /* \"contracts/MemoryVsStorageKeywords_17.sol\":254:257  brr */\n      dup2\n        /* \"contracts/MemoryVsStorageKeywords_17.sol\":258:259  0 */\n      0x00\n        /* \"contracts/MemoryVsStorageKeywords_17.sol\":254:260  brr[0] */\n      0x05\n      dup2\n      lt\n      tag_22\n      jumpi\n      mstore(0x00, 0x4e487b7100000000000000000000000000000000000000000000000000000000)\n      mstore(0x04, 0x32)\n      revert(0x00, 0x24)\n    tag_22:\n      add\n        /* \"contracts/MemoryVsStorageKeywords_17.sol\":254:262  brr[0]=6 */\n      dup2\n      swap1\n      sstore\n      pop\n        /* \"contracts/MemoryVsStorageKeywords_17.sol\":135:270  function StorageKeyword() public {\r... */\n      pop\n      jump\t// out\n        /* \"contracts/MemoryVsStorageKeywords_17.sol\":423:635  function searchElement() public view returns(bool){\r... */\n    tag_10:\n        /* \"contracts/MemoryVsStorageKeywords_17.sol\":468:472  bool */\n      0x00\n        /* \"contracts/MemoryVsStorageKeywords_17.sol\":484:502  uint[5] memory brr */\n      dup1\n        /* \"contracts/MemoryVsStorageKeywords_17.sol\":503:506  arr */\n      0x00\n        /* \"contracts/MemoryVsStorageKeywords_17.sol\":484:506  uint[5] memory brr=arr */\n      0x05\n      dup1\n      0x20\n      mul\n      mload(0x40)\n      swap1\n      dup2\n      add\n      0x40\n      mstore\n      dup1\n      swap3\n      swap2\n      swap1\n      dup3\n      0x05\n      dup1\n      iszero\n      tag_25\n      jumpi\n      0x20\n      mul\n      dup3\n      add\n      swap2\n    tag_26:\n      dup2\n      sload\n      dup2\n      mstore\n      0x20\n      add\n      swap1\n      0x01\n      add\n      swap1\n      dup1\n      dup4\n      gt\n      tag_26\n      jumpi\n    tag_25:\n      pop\n      pop\n      pop\n      pop\n      pop\n      swap1\n      pop\n        /* \"contracts/MemoryVsStorageKeywords_17.sol\":521:527  uint i */\n      0x00\n        /* \"contracts/MemoryVsStorageKeywords_17.sol\":517:605  for(uint i=0;i<5;i++){\r... */\n    tag_27:\n        /* \"contracts/MemoryVsStorageKeywords_17.sol\":532:533  5 */\n      0x05\n        /* \"contracts/MemoryVsStorageKeywords_17.sol\":530:531  i */\n      dup2\n        /* \"contracts/MemoryVsStorageKeywords_17.sol\":530:533  i<5 */\n      lt\n        /* \"contracts/MemoryVsStorageKeywords_17.sol\":517:605  for(uint i=0;i<5;i++){\r... */\n      iszero\n      tag_28\n      jumpi\n        /* \"contracts/MemoryVsStorageKeywords_17.sol\":564:565  5 */\n      0x05\n        /* \"contracts/MemoryVsStorageKeywords_17.sol\":556:559  brr */\n      dup3\n        /* \"contracts/MemoryVsStorageKeywords_17.sol\":560:561  i */\n      dup3\n        /* \"contracts/MemoryVsStorageKeywords_17.sol\":556:562  brr[i] */\n      0x05\n      dup2\n      lt\n      tag_30\n      jumpi\n      mstore(0x00, 0x4e487b7100000000000000000000000000000000000000000000000000000000)\n      mstore(0x04, 0x32)\n      revert(0x00, 0x24)\n    tag_30:\n      0x20\n      mul\n      add\n      mload\n        /* \"contracts/MemoryVsStorageKeywords_17.sol\":556:565  brr[i]==5 */\n      eq\n        /* \"contracts/MemoryVsStorageKeywords_17.sol\":553:593  if(brr[i]==5)\r... */\n      iszero\n      tag_31\n      jumpi\n        /* \"contracts/MemoryVsStorageKeywords_17.sol\":589:593  true */\n      0x01\n        /* \"contracts/MemoryVsStorageKeywords_17.sol\":582:593  return true */\n      swap3\n      pop\n      pop\n      pop\n      jump(tag_24)\n        /* \"contracts/MemoryVsStorageKeywords_17.sol\":553:593  if(brr[i]==5)\r... */\n    tag_31:\n        /* \"contracts/MemoryVsStorageKeywords_17.sol\":534:537  i++ */\n      dup1\n      dup1\n      tag_32\n      swap1\n      tag_33\n      jump\t// in\n    tag_32:\n      swap2\n      pop\n      pop\n        /* \"contracts/MemoryVsStorageKeywords_17.sol\":517:605  for(uint i=0;i<5;i++){\r... */\n      jump(tag_27)\n    tag_28:\n      pop\n        /* \"contracts/MemoryVsStorageKeywords_17.sol\":622:627  false */\n      0x00\n        /* \"contracts/MemoryVsStorageKeywords_17.sol\":615:627  return false */\n      swap2\n      pop\n      pop\n        /* \"contracts/MemoryVsStorageKeywords_17.sol\":423:635  function searchElement() public view returns(bool){\r... */\n    tag_24:\n      swap1\n      jump\t// out\n        /* \"contracts/MemoryVsStorageKeywords_17.sol\":96:126  uint[5] public arr=[1,2,3,4,5] */\n    tag_16:\n      0x00\n      dup2\n      0x05\n      dup2\n      lt\n      tag_34\n      jumpi\n      0x00\n      dup1\n      revert\n    tag_34:\n      add\n      0x00\n      swap2\n      pop\n      swap1\n      pop\n      sload\n      dup2\n      jump\t// out\n        /* \"contracts/MemoryVsStorageKeywords_17.sol\":278:415  function MemoryKeyword() public view{\r... */\n    tag_20:\n        /* \"contracts/MemoryVsStorageKeywords_17.sol\":325:343  uint[5] memory crr */\n      tag_37\n      tag_38\n      jump\t// in\n    tag_37:\n        /* \"contracts/MemoryVsStorageKeywords_17.sol\":358:361  arr */\n      0x00\n        /* \"contracts/MemoryVsStorageKeywords_17.sol\":354:361  crr=arr */\n      0x05\n      dup1\n      0x20\n      mul\n      mload(0x40)\n      swap1\n      dup2\n      add\n      0x40\n      mstore\n      dup1\n      swap3\n      swap2\n      swap1\n      dup3\n      0x05\n      dup1\n      iszero\n      tag_39\n      jumpi\n      0x20\n      mul\n      dup3\n      add\n      swap2\n    tag_40:\n      dup2\n      sload\n      dup2\n      mstore\n      0x20\n      add\n      swap1\n      0x01\n      add\n      swap1\n      dup1\n      dup4\n      gt\n      tag_40\n      jumpi\n    tag_39:\n      pop\n      pop\n      pop\n      pop\n      pop\n      swap1\n      pop\n        /* \"contracts/MemoryVsStorageKeywords_17.sol\":406:407  6 */\n      0x06\n        /* \"contracts/MemoryVsStorageKeywords_17.sol\":399:402  crr */\n      dup2\n        /* \"contracts/MemoryVsStorageKeywords_17.sol\":403:404  0 */\n      0x00\n        /* \"contracts/MemoryVsStorageKeywords_17.sol\":399:405  crr[0] */\n      0x05\n      dup2\n      lt\n      tag_41\n      jumpi\n      mstore(0x00, 0x4e487b7100000000000000000000000000000000000000000000000000000000)\n      mstore(0x04, 0x32)\n      revert(0x00, 0x24)\n    tag_41:\n      0x20\n      mul\n      add\n        /* \"contracts/MemoryVsStorageKeywords_17.sol\":399:407  crr[0]=6 */\n      dup2\n      dup2\n      mstore\n      pop\n      pop\n        /* \"contracts/MemoryVsStorageKeywords_17.sol\":278:415  function MemoryKeyword() public view{\r... */\n      pop\n      jump\t// out\n    tag_38:\n      mload(0x40)\n      dup1\n      0xa0\n      add\n      0x40\n      mstore\n      dup1\n      0x05\n      swap1\n      0x20\n      dup3\n      mul\n      dup1\n      calldatasize\n      dup4\n      calldatacopy\n      dup1\n      dup3\n      add\n      swap2\n      pop\n      pop\n      swap1\n      pop\n      pop\n      swap1\n      jump\t// out\n        /* \"#utility.yul\":7:146   */\n    tag_43:\n      0x00\n        /* \"#utility.yul\":91:97   */\n      dup2\n        /* \"#utility.yul\":78:98   */\n      calldataload\n        /* \"#utility.yul\":69:98   */\n      swap1\n      pop\n        /* \"#utility.yul\":107:140   */\n      tag_45\n        /* \"#utility.yul\":134:139   */\n      dup2\n        /* \"#utility.yul\":107:140   */\n      tag_46\n      jump\t// in\n    tag_45:\n        /* \"#utility.yul\":59:146   */\n      swap3\n      swap2\n      pop\n      pop\n      jump\t// out\n        /* \"#utility.yul\":152:414   */\n    tag_15:\n      0x00\n        /* \"#utility.yul\":260:262   */\n      0x20\n        /* \"#utility.yul\":248:257   */\n      dup3\n        /* \"#utility.yul\":239:246   */\n      dup5\n        /* \"#utility.yul\":235:258   */\n      sub\n        /* \"#utility.yul\":231:263   */\n      slt\n        /* \"#utility.yul\":228:230   */\n      iszero\n      tag_48\n      jumpi\n        /* \"#utility.yul\":276:277   */\n      0x00\n        /* \"#utility.yul\":273:274   */\n      dup1\n        /* \"#utility.yul\":266:278   */\n      revert\n        /* \"#utility.yul\":228:230   */\n    tag_48:\n        /* \"#utility.yul\":319:320   */\n      0x00\n        /* \"#utility.yul\":344:397   */\n      tag_49\n        /* \"#utility.yul\":389:396   */\n      dup5\n        /* \"#utility.yul\":380:386   */\n      dup3\n        /* \"#utility.yul\":369:378   */\n      dup6\n        /* \"#utility.yul\":365:387   */\n      add\n        /* \"#utility.yul\":344:397   */\n      tag_43\n      jump\t// in\n    tag_49:\n        /* \"#utility.yul\":334:397   */\n      swap2\n      pop\n        /* \"#utility.yul\":290:407   */\n      pop\n        /* \"#utility.yul\":218:414   */\n      swap3\n      swap2\n      pop\n      pop\n      jump\t// out\n        /* \"#utility.yul\":420:529   */\n    tag_50:\n        /* \"#utility.yul\":501:522   */\n      tag_52\n        /* \"#utility.yul\":516:521   */\n      dup2\n        /* \"#utility.yul\":501:522   */\n      tag_53\n      jump\t// in\n    tag_52:\n        /* \"#utility.yul\":496:499   */\n      dup3\n        /* \"#utility.yul\":489:523   */\n      mstore\n        /* \"#utility.yul\":479:529   */\n      pop\n      pop\n      jump\t// out\n        /* \"#utility.yul\":535:653   */\n    tag_54:\n        /* \"#utility.yul\":622:646   */\n      tag_56\n        /* \"#utility.yul\":640:645   */\n      dup2\n        /* \"#utility.yul\":622:646   */\n      tag_57\n      jump\t// in\n    tag_56:\n        /* \"#utility.yul\":617:620   */\n      dup3\n        /* \"#utility.yul\":610:647   */\n      mstore\n        /* \"#utility.yul\":600:653   */\n      pop\n      pop\n      jump\t// out\n        /* \"#utility.yul\":659:869   */\n    tag_12:\n      0x00\n        /* \"#utility.yul\":784:786   */\n      0x20\n        /* \"#utility.yul\":773:782   */\n      dup3\n        /* \"#utility.yul\":769:787   */\n      add\n        /* \"#utility.yul\":761:787   */\n      swap1\n      pop\n        /* \"#utility.yul\":797:862   */\n      tag_59\n        /* \"#utility.yul\":859:860   */\n      0x00\n        /* \"#utility.yul\":848:857   */\n      dup4\n        /* \"#utility.yul\":844:861   */\n      add\n        /* \"#utility.yul\":835:841   */\n      dup5\n        /* \"#utility.yul\":797:862   */\n      tag_50\n      jump\t// in\n    tag_59:\n        /* \"#utility.yul\":751:869   */\n      swap3\n      swap2\n      pop\n      pop\n      jump\t// out\n        /* \"#utility.yul\":875:1097   */\n    tag_18:\n      0x00\n        /* \"#utility.yul\":1006:1008   */\n      0x20\n        /* \"#utility.yul\":995:1004   */\n      dup3\n        /* \"#utility.yul\":991:1009   */\n      add\n        /* \"#utility.yul\":983:1009   */\n      swap1\n      pop\n        /* \"#utility.yul\":1019:1090   */\n      tag_61\n        /* \"#utility.yul\":1087:1088   */\n      0x00\n        /* \"#utility.yul\":1076:1085   */\n      dup4\n        /* \"#utility.yul\":1072:1089   */\n      add\n        /* \"#utility.yul\":1063:1069   */\n      dup5\n        /* \"#utility.yul\":1019:1090   */\n      tag_54\n      jump\t// in\n    tag_61:\n        /* \"#utility.yul\":973:1097   */\n      swap3\n      swap2\n      pop\n      pop\n      jump\t// out\n        /* \"#utility.yul\":1103:1193   */\n    tag_53:\n      0x00\n        /* \"#utility.yul\":1180:1185   */\n      dup2\n        /* \"#utility.yul\":1173:1186   */\n      iszero\n        /* \"#utility.yul\":1166:1187   */\n      iszero\n        /* \"#utility.yul\":1155:1187   */\n      swap1\n      pop\n        /* \"#utility.yul\":1145:1193   */\n      swap2\n      swap1\n      pop\n      jump\t// out\n        /* \"#utility.yul\":1199:1276   */\n    tag_57:\n      0x00\n        /* \"#utility.yul\":1265:1270   */\n      dup2\n        /* \"#utility.yul\":1254:1270   */\n      swap1\n      pop\n        /* \"#utility.yul\":1244:1276   */\n      swap2\n      swap1\n      pop\n      jump\t// out\n        /* \"#utility.yul\":1282:1515   */\n    tag_33:\n      0x00\n        /* \"#utility.yul\":1344:1368   */\n      tag_65\n        /* \"#utility.yul\":1362:1367   */\n      dup3\n        /* \"#utility.yul\":1344:1368   */\n      tag_57\n      jump\t// in\n    tag_65:\n        /* \"#utility.yul\":1335:1368   */\n      swap2\n      pop\n        /* \"#utility.yul\":1390:1456   */\n      0xffffffffffffffffffffffffffffffffffffffffffffffffffffffffffffffff\n        /* \"#utility.yul\":1383:1388   */\n      dup3\n        /* \"#utility.yul\":1380:1457   */\n      eq\n        /* \"#utility.yul\":1377:1379   */\n      iszero\n      tag_66\n      jumpi\n        /* \"#utility.yul\":1460:1478   */\n      tag_67\n      tag_68\n      jump\t// in\n    tag_67:\n        /* \"#utility.yul\":1377:1379   */\n    tag_66:\n        /* \"#utility.yul\":1507:1508   */\n      0x01\n        /* \"#utility.yul\":1500:1505   */\n      dup3\n        /* \"#utility.yul\":1496:1509   */\n      add\n        /* \"#utility.yul\":1489:1509   */\n      swap1\n      pop\n        /* \"#utility.yul\":1325:1515   */\n      swap2\n      swap1\n      pop\n      jump\t// out\n        /* \"#utility.yul\":1521:1701   */\n    tag_68:\n        /* \"#utility.yul\":1569:1646   */\n      0x4e487b7100000000000000000000000000000000000000000000000000000000\n        /* \"#utility.yul\":1566:1567   */\n      0x00\n        /* \"#utility.yul\":1559:1647   */\n      mstore\n        /* \"#utility.yul\":1666:1670   */\n      0x11\n        /* \"#utility.yul\":1663:1664   */\n      0x04\n        /* \"#utility.yul\":1656:1671   */\n      mstore\n        /* \"#utility.yul\":1690:1694   */\n      0x24\n        /* \"#utility.yul\":1687:1688   */\n      0x00\n        /* \"#utility.yul\":1680:1695   */\n      revert\n        /* \"#utility.yul\":1707:1829   */\n    tag_46:\n        /* \"#utility.yul\":1780:1804   */\n      tag_71\n        /* \"#utility.yul\":1798:1803   */\n      dup2\n        /* \"#utility.yul\":1780:1804   */\n      tag_57\n      jump\t// in\n    tag_71:\n        /* \"#utility.yul\":1773:1778   */\n      dup2\n        /* \"#utility.yul\":1770:1805   */\n      eq\n        /* \"#utility.yul\":1760:1762   */\n      tag_72\n      jumpi\n        /* \"#utility.yul\":1819:1820   */\n      0x00\n        /* \"#utility.yul\":1816:1817   */\n      dup1\n        /* \"#utility.yul\":1809:1821   */\n      revert\n        /* \"#utility.yul\":1760:1762   */\n    tag_72:\n        /* \"#utility.yul\":1750:1829   */\n      pop\n      jump\t// out\n\n    auxdata: 0xa2646970667358221220d435ea20e624ce75085c21e8c9f9d5f2ed3279e7a00d0d0b8ab985567a9620cf64736f6c63430008000033\n}\n",
				"bytecode": {
					"linkReferences": {},
					"object": "60806040526040518060a00160405280600160ff168152602001600260ff168152602001600360ff168152602001600460ff168152602001600560ff16815250600090600561004f929190610062565b5034801561005c57600080fd5b506100c4565b8260058101928215610096579160200282015b82811115610095578251829060ff16905591602001919060010190610075565b5b5090506100a391906100a7565b5090565b5b808211156100c05760008160009055506001016100a8565b5090565b6103f0806100d36000396000f3fe608060405234801561001057600080fd5b506004361061004c5760003560e01c80633c93b1d6146100515780634ae73baa1461005b57806371e5ee5f14610079578063a9302708146100a9575b600080fd5b6100596100b3565b005b6100636100f9565b60405161007091906102df565b60405180910390f35b610093600480360381019061008e9190610298565b6101b6565b6040516100a091906102fa565b60405180910390f35b6100b16101d1565b005b60006006816000600581106100f1577f4e487b7100000000000000000000000000000000000000000000000000000000600052603260045260246000fd5b018190555050565b6000806000600580602002604051908101604052809291908260058015610135576020028201915b815481526020019060010190808311610121575b5050505050905060005b60058110156101ac576005828260058110610183577f4e487b7100000000000000000000000000000000000000000000000000000000600052603260045260246000fd5b60200201511415610199576001925050506101b3565b80806101a49061032b565b91505061013f565b5060009150505b90565b600081600581106101c657600080fd5b016000915090505481565b6101d9610261565b6000600580602002604051908101604052809291908260058015610212576020028201915b8154815260200190600101908083116101fe575b50505050509050600681600060058110610255577f4e487b7100000000000000000000000000000000000000000000000000000000600052603260045260246000fd5b60200201818152505050565b6040518060a00160405280600590602082028036833780820191505090505090565b600081359050610292816103a3565b92915050565b6000602082840312156102aa57600080fd5b60006102b884828501610283565b91505092915050565b6102ca81610315565b82525050565b6102d981610321565b82525050565b60006020820190506102f460008301846102c1565b92915050565b600060208201905061030f60008301846102d0565b92915050565b60008115159050919050565b6000819050919050565b600061033682610321565b91507fffffffffffffffffffffffffffffffffffffffffffffffffffffffffffffffff82141561036957610368610374565b5b600182019050919050565b7f4e487b7100000000000000000000000000000000000000000000000000000000600052601160045260246000fd5b6103ac81610321565b81146103b757600080fd5b5056fea2646970667358221220d435ea20e624ce75085c21e8c9f9d5f2ed3279e7a00d0d0b8ab985567a9620cf64736f6c63430008000033",
					"opcodes": "PUSH1 0x80 PUSH1 0x40 MSTORE PUSH1 0x40 MLOAD DUP1 PUSH1 0xA0 ADD PUSH1 0x40 MSTORE DUP1 PUSH1 0x1 PUSH1 0xFF AND DUP2 MSTORE PUSH1 0x20 ADD PUSH1 0x2 PUSH1 0xFF AND DUP2 MSTORE PUSH1 0x20 ADD PUSH1 0x3 PUSH1 0xFF AND DUP2 MSTORE PUSH1 0x20 ADD PUSH1 0x4 PUSH1 0xFF AND DUP2 MSTORE PUSH1 0x20 ADD PUSH1 0x5 PUSH1 0xFF AND DUP2 MSTORE POP PUSH1 0x0 SWAP1 PUSH1 0x5 PUSH2 0x4F SWAP3 SWAP2 SWAP1 PUSH2 0x62 JUMP JUMPDEST POP CALLVALUE DUP1 ISZERO PUSH2 0x5C JUMPI PUSH1 0x0 DUP1 REVERT JUMPDEST POP PUSH2 0xC4 JUMP JUMPDEST DUP3 PUSH1 0x5 DUP2 ADD SWAP3 DUP3 ISZERO PUSH2 0x96 JUMPI SWAP2 PUSH1 0x20 MUL DUP3 ADD JUMPDEST DUP3 DUP2 GT ISZERO PUSH2 0x95 JUMPI DUP3 MLOAD DUP3 SWAP1 PUSH1 0xFF AND SWAP1 SSTORE SWAP2 PUSH1 0x20 ADD SWAP2 SWAP1 PUSH1 0x1 ADD SWAP1 PUSH2 0x75 JUMP JUMPDEST JUMPDEST POP SWAP1 POP PUSH2 0xA3 SWAP2 SWAP1 PUSH2 0xA7 JUMP JUMPDEST POP SWAP1 JUMP JUMPDEST JUMPDEST DUP1 DUP3 GT ISZERO PUSH2 0xC0 JUMPI PUSH1 0x0 DUP2 PUSH1 0x0 SWAP1 SSTORE POP PUSH1 0x1 ADD PUSH2 0xA8 JUMP JUMPDEST POP SWAP1 JUMP JUMPDEST PUSH2 0x3F0 DUP1 PUSH2 0xD3 PUSH1 0x0 CODECOPY PUSH1 0x0 RETURN INVALID PUSH1 0x80 PUSH1 0x40 MSTORE CALLVALUE DUP1 ISZERO PUSH2 0x10 JUMPI PUSH1 0x0 DUP1 REVERT JUMPDEST POP PUSH1 0x4 CALLDATASIZE LT PUSH2 0x4C JUMPI PUSH1 0x0 CALLDATALOAD PUSH1 0xE0 SHR DUP1 PUSH4 0x3C93B1D6 EQ PUSH2 0x51 JUMPI DUP1 PUSH4 0x4AE73BAA EQ PUSH2 0x5B JUMPI DUP1 PUSH4 0x71E5EE5F EQ PUSH2 0x79 JUMPI DUP1 PUSH4 0xA9302708 EQ PUSH2 0xA9 JUMPI JUMPDEST PUSH1 0x0 DUP1 REVERT JUMPDEST PUSH2 0x59 PUSH2 0xB3 JUMP JUMPDEST STOP JUMPDEST PUSH2 0x63 PUSH2 0xF9 JUMP JUMPDEST PUSH1 0x40 MLOAD PUSH2 0x70 SWAP2 SWAP1 PUSH2 0x2DF JUMP JUMPDEST PUSH1 0x40 MLOAD DUP1 SWAP2 SUB SWAP1 RETURN JUMPDEST PUSH2 0x93 PUSH1 0x4 DUP1 CALLDATASIZE SUB DUP2 ADD SWAP1 PUSH2 0x8E SWAP2 SWAP1 PUSH2 0x298 JUMP JUMPDEST PUSH2 0x1B6 JUMP JUMPDEST PUSH1 0x40 MLOAD PUSH2 0xA0 SWAP2 SWAP1 PUSH2 0x2FA JUMP JUMPDEST PUSH1 0x40 MLOAD DUP1 SWAP2 SUB SWAP1 RETURN JUMPDEST PUSH2 0xB1 PUSH2 0x1D1 JUMP JUMPDEST STOP JUMPDEST PUSH1 0x0 PUSH1 0x6 DUP2 PUSH1 0x0 PUSH1 0x5 DUP2 LT PUSH2 0xF1 JUMPI PUSH32 0x4E487B7100000000000000000000000000000000000000000000000000000000 PUSH1 0x0 MSTORE PUSH1 0x32 PUSH1 0x4 MSTORE PUSH1 0x24 PUSH1 0x0 REVERT JUMPDEST ADD DUP2 SWAP1 SSTORE POP POP JUMP JUMPDEST PUSH1 0x0 DUP1 PUSH1 0x0 PUSH1 0x5 DUP1 PUSH1 0x20 MUL PUSH1 0x40 MLOAD SWAP1 DUP2 ADD PUSH1 0x40 MSTORE DUP1 SWAP3 SWAP2 SWAP1 DUP3 PUSH1 0x5 DUP1 ISZERO PUSH2 0x135 JUMPI PUSH1 0x20 MUL DUP3 ADD SWAP2 JUMPDEST DUP2 SLOAD DUP2 MSTORE PUSH1 0x20 ADD SWAP1 PUSH1 0x1 ADD SWAP1 DUP1 DUP4 GT PUSH2 0x121 JUMPI JUMPDEST POP POP POP POP POP SWAP1 POP PUSH1 0x0 JUMPDEST PUSH1 0x5 DUP2 LT ISZERO PUSH2 0x1AC JUMPI PUSH1 0x5 DUP3 DUP3 PUSH1 0x5 DUP2 LT PUSH2 0x183 JUMPI PUSH32 0x4E487B7100000000000000000000000000000000000000000000000000000000 PUSH1 0x0 MSTORE PUSH1 0x32 PUSH1 0x4 MSTORE PUSH1 0x24 PUSH1 0x0 REVERT JUMPDEST PUSH1 0x20 MUL ADD MLOAD EQ ISZERO PUSH2 0x199 JUMPI PUSH1 0x1 SWAP3 POP POP POP PUSH2 0x1B3 JUMP JUMPDEST DUP1 DUP1 PUSH2 0x1A4 SWAP1 PUSH2 0x32B JUMP JUMPDEST SWAP2 POP POP PUSH2 0x13F JUMP JUMPDEST POP PUSH1 0x0 SWAP2 POP POP JUMPDEST SWAP1 JUMP JUMPDEST PUSH1 0x0 DUP2 PUSH1 0x5 DUP2 LT PUSH2 0x1C6 JUMPI PUSH1 0x0 DUP1 REVERT JUMPDEST ADD PUSH1 0x0 SWAP2 POP SWAP1 POP SLOAD DUP2 JUMP JUMPDEST PUSH2 0x1D9 PUSH2 0x261 JUMP JUMPDEST PUSH1 0x0 PUSH1 0x5 DUP1 PUSH1 0x20 MUL PUSH1 0x40 MLOAD SWAP1 DUP2 ADD PUSH1 0x40 MSTORE DUP1 SWAP3 SWAP2 SWAP1 DUP3 PUSH1 0x5 DUP1 ISZERO PUSH2 0x212 JUMPI PUSH1 0x20 MUL DUP3 ADD SWAP2 JUMPDEST DUP2 SLOAD DUP2 MSTORE PUSH1 0x20 ADD SWAP1 PUSH1 0x1 ADD SWAP1 DUP1 DUP4 GT PUSH2 0x1FE JUMPI JUMPDEST POP POP POP POP POP SWAP1 POP PUSH1 0x6 DUP2 PUSH1 0x0 PUSH1 0x5 DUP2 LT PUSH2 0x255 JUMPI PUSH32 0x4E487B7100000000000000000000000000000000000000000000000000000000 PUSH1 0x0 MSTORE PUSH1 0x32 PUSH1 0x4 MSTORE PUSH1 0x24 PUSH1 0x0 REVERT JUMPDEST PUSH1 0x20 MUL ADD DUP2 DUP2 MSTORE POP POP POP JUMP JUMPDEST PUSH1 0x40 MLOAD DUP1 PUSH1 0xA0 ADD PUSH1 0x40 MSTORE DUP1 PUSH1 0x5 SWAP1 PUSH1 0x20 DUP3 MUL DUP1 CALLDATASIZE DUP4 CALLDATACOPY DUP1 DUP3 ADD SWAP2 POP POP SWAP1 POP POP SWAP1 JUMP JUMPDEST PUSH1 0x0 DUP2 CALLDATALOAD SWAP1 POP PUSH2 0x292 DUP2 PUSH2 0x3A3 JUMP JUMPDEST SWAP3 SWAP2 POP POP JUMP JUMPDEST PUSH1 0x0 PUSH1 0x20 DUP3 DUP5 SUB SLT ISZERO PUSH2 0x2AA JUMPI PUSH1 0x0 DUP1 REVERT JUMPDEST PUSH1 0x0 PUSH2 0x2B8 DUP5 DUP3 DUP6 ADD PUSH2 0x283 JUMP JUMPDEST SWAP2 POP POP SWAP3 SWAP2 POP POP JUMP JUMPDEST PUSH2 0x2CA DUP2 PUSH2 0x315 JUMP JUMPDEST DUP3 MSTORE POP POP JUMP JUMPDEST PUSH2 0x2D9 DUP2 PUSH2 0x321 JUMP JUMPDEST DUP3 MSTORE POP POP JUMP JUMPDEST PUSH1 0x0 PUSH1 0x20 DUP3 ADD SWAP1 POP PUSH2 0x2F4 PUSH1 0x0 DUP4 ADD DUP5 PUSH2 0x2C1 JUMP JUMPDEST SWAP3 SWAP2 POP POP JUMP JUMPDEST PUSH1 0x0 PUSH1 0x20 DUP3 ADD SWAP1 POP PUSH2 0x30F PUSH1 0x0 DUP4 ADD DUP5 PUSH2 0x2D0 JUMP JUMPDEST SWAP3 SWAP2 POP POP JUMP JUMPDEST PUSH1 0x0 DUP2 ISZERO ISZERO SWAP1 POP SWAP2 SWAP1 POP JUMP JUMPDEST PUSH1 0x0 DUP2 SWAP1 POP SWAP2 SWAP1 POP JUMP JUMPDEST PUSH1 0x0 PUSH2 0x336 DUP3 PUSH2 0x321 JUMP JUMPDEST SWAP2 POP PUSH32 0xFFFFFFFFFFFFFFFFFFFFFFFFFFFFFFFFFFFFFFFFFFFFFFFFFFFFFFFFFFFFFFFF DUP3 EQ ISZERO PUSH2 0x369 JUMPI PUSH2 0x368 PUSH2 0x374 JUMP JUMPDEST JUMPDEST PUSH1 0x1 DUP3 ADD SWAP1 POP SWAP2 SWAP1 POP JUMP JUMPDEST PUSH32 0x4E487B7100000000000000000000000000000000000000000000000000000000 PUSH1 0x0 MSTORE PUSH1 0x11 PUSH1 0x4 MSTORE PUSH1 0x24 PUSH1 0x0 REVERT JUMPDEST PUSH2 0x3AC DUP2 PUSH2 0x321 JUMP JUMPDEST DUP2 EQ PUSH2 0x3B7 JUMPI PUSH1 0x0 DUP1 REVERT JUMPDEST POP JUMP INVALID LOG2 PUSH5 0x6970667358 0x22 SLT KECCAK256 0xD4 CALLDATALOAD 0xEA KECCAK256 0xE6 0x24 0xCE PUSH22 0x85C21E8C9F9D5F2ED3279E7A00D0D0B8AB985567A96 KECCAK256 0xCF PUSH5 0x736F6C6343 STOP ADDMOD STOP STOP CALLER "
				},
				"gasEstimates": {
					"creation": {
						"codeDepositCost": "201600",
						"executionCost": "infinite",
						"totalCost": "infinite"
					},
					"external": {
						"MemoryKeyword()": "infinite",
						"StorageKeyword()": "20170",
						"arr(uint256)": "infinite",
						"searchElement()": "infinite"
					}
				},
				"methodIdentifiers": {
					"MemoryKeyword()": "a9302708",
					"StorageKeyword()": "3c93b1d6",
					"arr(uint256)": "71e5ee5f",
					"searchElement()": "4ae73baa"
				}
			},
			"storageLayout": {
				"storage": [
					{
						"astId": 11,
						"contract": "contracts/MemoryVsStorageKeywords_17.sol:MemVsSto",
						"label": "arr",
						"offset": 0,
						"slot": "0",
						"type": "t_array(t_uint256)5_storage"
					}
				],
				"types": {
					"t_array(t_uint256)5_storage": {
						"base": "t_uint256",
						"encoding": "inplace",
						"label": "uint256[5]",
						"numberOfBytes": "160"
					},
					"t_uint256": {
						"encoding": "inplace",
						"label": "uint256",
						"numberOfBytes": "32"
					}
				}
			},
			"userdoc": {
				"kind": "user",
				"methods": {},
				"version": 1
			}
		}
	}
}