{
	"contracts/33_Polymorphism.sol": {
		"Demo": {
			"abi": [
				{
					"inputs": [
						{
							"internalType": "uint256",
							"name": "a",
							"type": "uint256"
						},
						{
							"internalType": "uint256",
							"name": "b",
							"type": "uint256"
						}
					],
					"name": "addition",
					"outputs": [
						{
							"internalType": "uint256",
							"name": "",
							"type": "uint256"
						}
					],
					"stateMutability": "pure",
					"type": "function"
				},
				{
					"inputs": [
						{
							"internalType": "uint256",
							"name": "a",
							"type": "uint256"
						},
						{
							"internalType": "string",
							"name": "b",
							"type": "string"
						}
					],
					"name": "addition",
					"outputs": [
						{
							"internalType": "uint256",
							"name": "",
							"type": "uint256"
						}
					],
					"stateMutability": "pure",
					"type": "function"
				}
			],
			"devdoc": {
				"kind": "dev",
				"methods": {},
				"version": 1
			},
			"evm": {
				"assembly": "    /* \"contracts/33_Polymorphism.sol\":74:286  contract Demo{... */\n  mstore(0x40, 0x80)\n  callvalue\n  dup1\n  iszero\n  tag_1\n  jumpi\n  0x00\n  dup1\n  revert\ntag_1:\n  pop\n  dataSize(sub_0)\n  dup1\n  dataOffset(sub_0)\n  0x00\n  codecopy\n  0x00\n  return\nstop\n\nsub_0: assembly {\n        /* \"contracts/33_Polymorphism.sol\":74:286  contract Demo{... */\n      mstore(0x40, 0x80)\n      callvalue\n      dup1\n      iszero\n      tag_1\n      jumpi\n      0x00\n      dup1\n      revert\n    tag_1:\n      pop\n      jumpi(tag_2, lt(calldatasize, 0x04))\n      shr(0xe0, calldataload(0x00))\n      dup1\n      0x54f363a3\n      eq\n      tag_3\n      jumpi\n      dup1\n      0x84320073\n      eq\n      tag_4\n      jumpi\n    tag_2:\n      0x00\n      dup1\n      revert\n        /* \"contracts/33_Polymorphism.sol\":94:181  function addition(uint a,uint b) public pure returns(uint){... */\n    tag_3:\n      tag_5\n      0x04\n      dup1\n      calldatasize\n      sub\n      dup2\n      add\n      swap1\n      tag_6\n      swap2\n      swap1\n      tag_7\n      jump\t// in\n    tag_6:\n      tag_8\n      jump\t// in\n    tag_5:\n      mload(0x40)\n      tag_9\n      swap2\n      swap1\n      tag_10\n      jump\t// in\n    tag_9:\n      mload(0x40)\n      dup1\n      swap2\n      sub\n      swap1\n      return\n        /* \"contracts/33_Polymorphism.sol\":187:283  function addition(uint a,string calldata b) public pure returns(uint){... */\n    tag_4:\n      tag_11\n      0x04\n      dup1\n      calldatasize\n      sub\n      dup2\n      add\n      swap1\n      tag_12\n      swap2\n      swap1\n      tag_13\n      jump\t// in\n    tag_12:\n      tag_14\n      jump\t// in\n    tag_11:\n      mload(0x40)\n      tag_15\n      swap2\n      swap1\n      tag_10\n      jump\t// in\n    tag_15:\n      mload(0x40)\n      dup1\n      swap2\n      sub\n      swap1\n      return\n        /* \"contracts/33_Polymorphism.sol\":94:181  function addition(uint a,uint b) public pure returns(uint){... */\n    tag_8:\n        /* \"contracts/33_Polymorphism.sol\":147:151  uint */\n      0x00\n        /* \"contracts/33_Polymorphism.sol\":172:173  b */\n      dup2\n        /* \"contracts/33_Polymorphism.sol\":170:171  a */\n      dup4\n        /* \"contracts/33_Polymorphism.sol\":170:173  a+b */\n      tag_17\n      swap2\n      swap1\n      tag_18\n      jump\t// in\n    tag_17:\n        /* \"contracts/33_Polymorphism.sol\":163:173  return a+b */\n      swap1\n      pop\n        /* \"contracts/33_Polymorphism.sol\":94:181  function addition(uint a,uint b) public pure returns(uint){... */\n      swap3\n      swap2\n      pop\n      pop\n      jump\t// out\n        /* \"contracts/33_Polymorphism.sol\":187:283  function addition(uint a,string calldata b) public pure returns(uint){... */\n    tag_14:\n        /* \"contracts/33_Polymorphism.sol\":251:255  uint */\n      0x00\n        /* \"contracts/33_Polymorphism.sol\":274:275  a */\n      dup4\n        /* \"contracts/33_Polymorphism.sol\":267:275  return a */\n      swap1\n      pop\n        /* \"contracts/33_Polymorphism.sol\":187:283  function addition(uint a,string calldata b) public pure returns(uint){... */\n      swap4\n      swap3\n      pop\n      pop\n      pop\n      jump\t// out\n        /* \"#utility.yul\":88:205   */\n    tag_21:\n        /* \"#utility.yul\":197:198   */\n      0x00\n        /* \"#utility.yul\":194:195   */\n      dup1\n        /* \"#utility.yul\":187:199   */\n      revert\n        /* \"#utility.yul\":211:328   */\n    tag_22:\n        /* \"#utility.yul\":320:321   */\n      0x00\n        /* \"#utility.yul\":317:318   */\n      dup1\n        /* \"#utility.yul\":310:322   */\n      revert\n        /* \"#utility.yul\":334:411   */\n    tag_23:\n        /* \"#utility.yul\":371:378   */\n      0x00\n        /* \"#utility.yul\":400:405   */\n      dup2\n        /* \"#utility.yul\":389:405   */\n      swap1\n      pop\n        /* \"#utility.yul\":334:411   */\n      swap2\n      swap1\n      pop\n      jump\t// out\n        /* \"#utility.yul\":417:539   */\n    tag_24:\n        /* \"#utility.yul\":490:514   */\n      tag_38\n        /* \"#utility.yul\":508:513   */\n      dup2\n        /* \"#utility.yul\":490:514   */\n      tag_23\n      jump\t// in\n    tag_38:\n        /* \"#utility.yul\":483:488   */\n      dup2\n        /* \"#utility.yul\":480:515   */\n      eq\n        /* \"#utility.yul\":470:533   */\n      tag_39\n      jumpi\n        /* \"#utility.yul\":529:530   */\n      0x00\n        /* \"#utility.yul\":526:527   */\n      dup1\n        /* \"#utility.yul\":519:531   */\n      revert\n        /* \"#utility.yul\":470:533   */\n    tag_39:\n        /* \"#utility.yul\":417:539   */\n      pop\n      jump\t// out\n        /* \"#utility.yul\":545:684   */\n    tag_25:\n        /* \"#utility.yul\":591:596   */\n      0x00\n        /* \"#utility.yul\":629:635   */\n      dup2\n        /* \"#utility.yul\":616:636   */\n      calldataload\n        /* \"#utility.yul\":607:636   */\n      swap1\n      pop\n        /* \"#utility.yul\":645:678   */\n      tag_41\n        /* \"#utility.yul\":672:677   */\n      dup2\n        /* \"#utility.yul\":645:678   */\n      tag_24\n      jump\t// in\n    tag_41:\n        /* \"#utility.yul\":545:684   */\n      swap3\n      swap2\n      pop\n      pop\n      jump\t// out\n        /* \"#utility.yul\":690:1164   */\n    tag_7:\n        /* \"#utility.yul\":758:764   */\n      0x00\n        /* \"#utility.yul\":766:772   */\n      dup1\n        /* \"#utility.yul\":815:817   */\n      0x40\n        /* \"#utility.yul\":803:812   */\n      dup4\n        /* \"#utility.yul\":794:801   */\n      dup6\n        /* \"#utility.yul\":790:813   */\n      sub\n        /* \"#utility.yul\":786:818   */\n      slt\n        /* \"#utility.yul\":783:902   */\n      iszero\n      tag_43\n      jumpi\n        /* \"#utility.yul\":821:900   */\n      tag_44\n      tag_21\n      jump\t// in\n    tag_44:\n        /* \"#utility.yul\":783:902   */\n    tag_43:\n        /* \"#utility.yul\":941:942   */\n      0x00\n        /* \"#utility.yul\":966:1019   */\n      tag_45\n        /* \"#utility.yul\":1011:1018   */\n      dup6\n        /* \"#utility.yul\":1002:1008   */\n      dup3\n        /* \"#utility.yul\":991:1000   */\n      dup7\n        /* \"#utility.yul\":987:1009   */\n      add\n        /* \"#utility.yul\":966:1019   */\n      tag_25\n      jump\t// in\n    tag_45:\n        /* \"#utility.yul\":956:1019   */\n      swap3\n      pop\n        /* \"#utility.yul\":912:1029   */\n      pop\n        /* \"#utility.yul\":1068:1070   */\n      0x20\n        /* \"#utility.yul\":1094:1147   */\n      tag_46\n        /* \"#utility.yul\":1139:1146   */\n      dup6\n        /* \"#utility.yul\":1130:1136   */\n      dup3\n        /* \"#utility.yul\":1119:1128   */\n      dup7\n        /* \"#utility.yul\":1115:1137   */\n      add\n        /* \"#utility.yul\":1094:1147   */\n      tag_25\n      jump\t// in\n    tag_46:\n        /* \"#utility.yul\":1084:1147   */\n      swap2\n      pop\n        /* \"#utility.yul\":1039:1157   */\n      pop\n        /* \"#utility.yul\":690:1164   */\n      swap3\n      pop\n      swap3\n      swap1\n      pop\n      jump\t// out\n        /* \"#utility.yul\":1170:1288   */\n    tag_26:\n        /* \"#utility.yul\":1257:1281   */\n      tag_48\n        /* \"#utility.yul\":1275:1280   */\n      dup2\n        /* \"#utility.yul\":1257:1281   */\n      tag_23\n      jump\t// in\n    tag_48:\n        /* \"#utility.yul\":1252:1255   */\n      dup3\n        /* \"#utility.yul\":1245:1282   */\n      mstore\n        /* \"#utility.yul\":1170:1288   */\n      pop\n      pop\n      jump\t// out\n        /* \"#utility.yul\":1294:1516   */\n    tag_10:\n        /* \"#utility.yul\":1387:1391   */\n      0x00\n        /* \"#utility.yul\":1425:1427   */\n      0x20\n        /* \"#utility.yul\":1414:1423   */\n      dup3\n        /* \"#utility.yul\":1410:1428   */\n      add\n        /* \"#utility.yul\":1402:1428   */\n      swap1\n      pop\n        /* \"#utility.yul\":1438:1509   */\n      tag_50\n        /* \"#utility.yul\":1506:1507   */\n      0x00\n        /* \"#utility.yul\":1495:1504   */\n      dup4\n        /* \"#utility.yul\":1491:1508   */\n      add\n        /* \"#utility.yul\":1482:1488   */\n      dup5\n        /* \"#utility.yul\":1438:1509   */\n      tag_26\n      jump\t// in\n    tag_50:\n        /* \"#utility.yul\":1294:1516   */\n      swap3\n      swap2\n      pop\n      pop\n      jump\t// out\n        /* \"#utility.yul\":1522:1639   */\n    tag_27:\n        /* \"#utility.yul\":1631:1632   */\n      0x00\n        /* \"#utility.yul\":1628:1629   */\n      dup1\n        /* \"#utility.yul\":1621:1633   */\n      revert\n        /* \"#utility.yul\":1645:1762   */\n    tag_28:\n        /* \"#utility.yul\":1754:1755   */\n      0x00\n        /* \"#utility.yul\":1751:1752   */\n      dup1\n        /* \"#utility.yul\":1744:1756   */\n      revert\n        /* \"#utility.yul\":1768:1885   */\n    tag_29:\n        /* \"#utility.yul\":1877:1878   */\n      0x00\n        /* \"#utility.yul\":1874:1875   */\n      dup1\n        /* \"#utility.yul\":1867:1879   */\n      revert\n        /* \"#utility.yul\":1905:2458   */\n    tag_30:\n        /* \"#utility.yul\":1963:1971   */\n      0x00\n        /* \"#utility.yul\":1973:1979   */\n      dup1\n        /* \"#utility.yul\":2023:2026   */\n      dup4\n        /* \"#utility.yul\":2016:2020   */\n      0x1f\n        /* \"#utility.yul\":2008:2014   */\n      dup5\n        /* \"#utility.yul\":2004:2021   */\n      add\n        /* \"#utility.yul\":2000:2027   */\n      slt\n        /* \"#utility.yul\":1990:2112   */\n      tag_55\n      jumpi\n        /* \"#utility.yul\":2031:2110   */\n      tag_56\n      tag_27\n      jump\t// in\n    tag_56:\n        /* \"#utility.yul\":1990:2112   */\n    tag_55:\n        /* \"#utility.yul\":2144:2150   */\n      dup3\n        /* \"#utility.yul\":2131:2151   */\n      calldataload\n        /* \"#utility.yul\":2121:2151   */\n      swap1\n      pop\n        /* \"#utility.yul\":2174:2192   */\n      0xffffffffffffffff\n        /* \"#utility.yul\":2166:2172   */\n      dup2\n        /* \"#utility.yul\":2163:2193   */\n      gt\n        /* \"#utility.yul\":2160:2277   */\n      iszero\n      tag_57\n      jumpi\n        /* \"#utility.yul\":2196:2275   */\n      tag_58\n      tag_28\n      jump\t// in\n    tag_58:\n        /* \"#utility.yul\":2160:2277   */\n    tag_57:\n        /* \"#utility.yul\":2310:2314   */\n      0x20\n        /* \"#utility.yul\":2302:2308   */\n      dup4\n        /* \"#utility.yul\":2298:2315   */\n      add\n        /* \"#utility.yul\":2286:2315   */\n      swap2\n      pop\n        /* \"#utility.yul\":2364:2367   */\n      dup4\n        /* \"#utility.yul\":2356:2360   */\n      0x01\n        /* \"#utility.yul\":2348:2354   */\n      dup3\n        /* \"#utility.yul\":2344:2361   */\n      mul\n        /* \"#utility.yul\":2334:2342   */\n      dup4\n        /* \"#utility.yul\":2330:2362   */\n      add\n        /* \"#utility.yul\":2327:2368   */\n      gt\n        /* \"#utility.yul\":2324:2452   */\n      iszero\n      tag_59\n      jumpi\n        /* \"#utility.yul\":2371:2450   */\n      tag_60\n      tag_29\n      jump\t// in\n    tag_60:\n        /* \"#utility.yul\":2324:2452   */\n    tag_59:\n        /* \"#utility.yul\":1905:2458   */\n      swap3\n      pop\n      swap3\n      swap1\n      pop\n      jump\t// out\n        /* \"#utility.yul\":2464:3138   */\n    tag_13:\n        /* \"#utility.yul\":2544:2550   */\n      0x00\n        /* \"#utility.yul\":2552:2558   */\n      dup1\n        /* \"#utility.yul\":2560:2566   */\n      0x00\n        /* \"#utility.yul\":2609:2611   */\n      0x40\n        /* \"#utility.yul\":2597:2606   */\n      dup5\n        /* \"#utility.yul\":2588:2595   */\n      dup7\n        /* \"#utility.yul\":2584:2607   */\n      sub\n        /* \"#utility.yul\":2580:2612   */\n      slt\n        /* \"#utility.yul\":2577:2696   */\n      iszero\n      tag_62\n      jumpi\n        /* \"#utility.yul\":2615:2694   */\n      tag_63\n      tag_21\n      jump\t// in\n    tag_63:\n        /* \"#utility.yul\":2577:2696   */\n    tag_62:\n        /* \"#utility.yul\":2735:2736   */\n      0x00\n        /* \"#utility.yul\":2760:2813   */\n      tag_64\n        /* \"#utility.yul\":2805:2812   */\n      dup7\n        /* \"#utility.yul\":2796:2802   */\n      dup3\n        /* \"#utility.yul\":2785:2794   */\n      dup8\n        /* \"#utility.yul\":2781:2803   */\n      add\n        /* \"#utility.yul\":2760:2813   */\n      tag_25\n      jump\t// in\n    tag_64:\n        /* \"#utility.yul\":2750:2813   */\n      swap4\n      pop\n        /* \"#utility.yul\":2706:2823   */\n      pop\n        /* \"#utility.yul\":2890:2892   */\n      0x20\n        /* \"#utility.yul\":2879:2888   */\n      dup5\n        /* \"#utility.yul\":2875:2893   */\n      add\n        /* \"#utility.yul\":2862:2894   */\n      calldataload\n        /* \"#utility.yul\":2921:2939   */\n      0xffffffffffffffff\n        /* \"#utility.yul\":2913:2919   */\n      dup2\n        /* \"#utility.yul\":2910:2940   */\n      gt\n        /* \"#utility.yul\":2907:3024   */\n      iszero\n      tag_65\n      jumpi\n        /* \"#utility.yul\":2943:3022   */\n      tag_66\n      tag_22\n      jump\t// in\n    tag_66:\n        /* \"#utility.yul\":2907:3024   */\n    tag_65:\n        /* \"#utility.yul\":3056:3121   */\n      tag_67\n        /* \"#utility.yul\":3113:3120   */\n      dup7\n        /* \"#utility.yul\":3104:3110   */\n      dup3\n        /* \"#utility.yul\":3093:3102   */\n      dup8\n        /* \"#utility.yul\":3089:3111   */\n      add\n        /* \"#utility.yul\":3056:3121   */\n      tag_30\n      jump\t// in\n    tag_67:\n        /* \"#utility.yul\":3038:3121   */\n      swap3\n      pop\n      swap3\n      pop\n        /* \"#utility.yul\":2833:3131   */\n      pop\n        /* \"#utility.yul\":2464:3138   */\n      swap3\n      pop\n      swap3\n      pop\n      swap3\n      jump\t// out\n        /* \"#utility.yul\":3144:3324   */\n    tag_31:\n        /* \"#utility.yul\":3192:3269   */\n      0x4e487b7100000000000000000000000000000000000000000000000000000000\n        /* \"#utility.yul\":3189:3190   */\n      0x00\n        /* \"#utility.yul\":3182:3270   */\n      mstore\n        /* \"#utility.yul\":3289:3293   */\n      0x11\n        /* \"#utility.yul\":3286:3287   */\n      0x04\n        /* \"#utility.yul\":3279:3294   */\n      mstore\n        /* \"#utility.yul\":3313:3317   */\n      0x24\n        /* \"#utility.yul\":3310:3311   */\n      0x00\n        /* \"#utility.yul\":3303:3318   */\n      revert\n        /* \"#utility.yul\":3330:3521   */\n    tag_18:\n        /* \"#utility.yul\":3370:3373   */\n      0x00\n        /* \"#utility.yul\":3389:3409   */\n      tag_70\n        /* \"#utility.yul\":3407:3408   */\n      dup3\n        /* \"#utility.yul\":3389:3409   */\n      tag_23\n      jump\t// in\n    tag_70:\n        /* \"#utility.yul\":3384:3409   */\n      swap2\n      pop\n        /* \"#utility.yul\":3423:3443   */\n      tag_71\n        /* \"#utility.yul\":3441:3442   */\n      dup4\n        /* \"#utility.yul\":3423:3443   */\n      tag_23\n      jump\t// in\n    tag_71:\n        /* \"#utility.yul\":3418:3443   */\n      swap3\n      pop\n        /* \"#utility.yul\":3466:3467   */\n      dup3\n        /* \"#utility.yul\":3463:3464   */\n      dup3\n        /* \"#utility.yul\":3459:3468   */\n      add\n        /* \"#utility.yul\":3452:3468   */\n      swap1\n      pop\n        /* \"#utility.yul\":3487:3490   */\n      dup1\n        /* \"#utility.yul\":3484:3485   */\n      dup3\n        /* \"#utility.yul\":3481:3491   */\n      gt\n        /* \"#utility.yul\":3478:3514   */\n      iszero\n      tag_72\n      jumpi\n        /* \"#utility.yul\":3494:3512   */\n      tag_73\n      tag_31\n      jump\t// in\n    tag_73:\n        /* \"#utility.yul\":3478:3514   */\n    tag_72:\n        /* \"#utility.yul\":3330:3521   */\n      swap3\n      swap2\n      pop\n      pop\n      jump\t// out\n\n    auxdata: 0xa2646970667358221220674f4f69ed842396779dd99ba8ca032225521ee153c4b9a876046d733e52dc4f64736f6c634300081a0033\n}\n",
				"bytecode": {
					"linkReferences": {},
					"object": "6080604052348015600e575f80fd5b506102ad8061001c5f395ff3fe608060405234801561000f575f80fd5b5060043610610034575f3560e01c806354f363a3146100385780638432007314610068575b5f80fd5b610052600480360381019061004d91906100f3565b610098565b60405161005f9190610140565b60405180910390f35b610082600480360381019061007d91906101ba565b6100ad565b60405161008f9190610140565b60405180910390f35b5f81836100a59190610244565b905092915050565b5f8390509392505050565b5f80fd5b5f80fd5b5f819050919050565b6100d2816100c0565b81146100dc575f80fd5b50565b5f813590506100ed816100c9565b92915050565b5f8060408385031215610109576101086100b8565b5b5f610116858286016100df565b9250506020610127858286016100df565b9150509250929050565b61013a816100c0565b82525050565b5f6020820190506101535f830184610131565b92915050565b5f80fd5b5f80fd5b5f80fd5b5f8083601f84011261017a57610179610159565b5b8235905067ffffffffffffffff8111156101975761019661015d565b5b6020830191508360018202830111156101b3576101b2610161565b5b9250929050565b5f805f604084860312156101d1576101d06100b8565b5b5f6101de868287016100df565b935050602084013567ffffffffffffffff8111156101ff576101fe6100bc565b5b61020b86828701610165565b92509250509250925092565b7f4e487b71000000000000000000000000000000000000000000000000000000005f52601160045260245ffd5b5f61024e826100c0565b9150610259836100c0565b925082820190508082111561027157610270610217565b5b9291505056fea2646970667358221220674f4f69ed842396779dd99ba8ca032225521ee153c4b9a876046d733e52dc4f64736f6c634300081a0033",
					"opcodes": "PUSH1 0x80 PUSH1 0x40 MSTORE CALLVALUE DUP1 ISZERO PUSH1 0xE JUMPI PUSH0 DUP1 REVERT JUMPDEST POP PUSH2 0x2AD DUP1 PUSH2 0x1C PUSH0 CODECOPY PUSH0 RETURN INVALID PUSH1 0x80 PUSH1 0x40 MSTORE CALLVALUE DUP1 ISZERO PUSH2 0xF JUMPI PUSH0 DUP1 REVERT JUMPDEST POP PUSH1 0x4 CALLDATASIZE LT PUSH2 0x34 JUMPI PUSH0 CALLDATALOAD PUSH1 0xE0 SHR DUP1 PUSH4 0x54F363A3 EQ PUSH2 0x38 JUMPI DUP1 PUSH4 0x84320073 EQ PUSH2 0x68 JUMPI JUMPDEST PUSH0 DUP1 REVERT JUMPDEST PUSH2 0x52 PUSH1 0x4 DUP1 CALLDATASIZE SUB DUP2 ADD SWAP1 PUSH2 0x4D SWAP2 SWAP1 PUSH2 0xF3 JUMP JUMPDEST PUSH2 0x98 JUMP JUMPDEST PUSH1 0x40 MLOAD PUSH2 0x5F SWAP2 SWAP1 PUSH2 0x140 JUMP JUMPDEST PUSH1 0x40 MLOAD DUP1 SWAP2 SUB SWAP1 RETURN JUMPDEST PUSH2 0x82 PUSH1 0x4 DUP1 CALLDATASIZE SUB DUP2 ADD SWAP1 PUSH2 0x7D SWAP2 SWAP1 PUSH2 0x1BA JUMP JUMPDEST PUSH2 0xAD JUMP JUMPDEST PUSH1 0x40 MLOAD PUSH2 0x8F SWAP2 SWAP1 PUSH2 0x140 JUMP JUMPDEST PUSH1 0x40 MLOAD DUP1 SWAP2 SUB SWAP1 RETURN JUMPDEST PUSH0 DUP2 DUP4 PUSH2 0xA5 SWAP2 SWAP1 PUSH2 0x244 JUMP JUMPDEST SWAP1 POP SWAP3 SWAP2 POP POP JUMP JUMPDEST PUSH0 DUP4 SWAP1 POP SWAP4 SWAP3 POP POP POP JUMP JUMPDEST PUSH0 DUP1 REVERT JUMPDEST PUSH0 DUP1 REVERT JUMPDEST PUSH0 DUP2 SWAP1 POP SWAP2 SWAP1 POP JUMP JUMPDEST PUSH2 0xD2 DUP2 PUSH2 0xC0 JUMP JUMPDEST DUP2 EQ PUSH2 0xDC JUMPI PUSH0 DUP1 REVERT JUMPDEST POP JUMP JUMPDEST PUSH0 DUP2 CALLDATALOAD SWAP1 POP PUSH2 0xED DUP2 PUSH2 0xC9 JUMP JUMPDEST SWAP3 SWAP2 POP POP JUMP JUMPDEST PUSH0 DUP1 PUSH1 0x40 DUP4 DUP6 SUB SLT ISZERO PUSH2 0x109 JUMPI PUSH2 0x108 PUSH2 0xB8 JUMP JUMPDEST JUMPDEST PUSH0 PUSH2 0x116 DUP6 DUP3 DUP7 ADD PUSH2 0xDF JUMP JUMPDEST SWAP3 POP POP PUSH1 0x20 PUSH2 0x127 DUP6 DUP3 DUP7 ADD PUSH2 0xDF JUMP JUMPDEST SWAP2 POP POP SWAP3 POP SWAP3 SWAP1 POP JUMP JUMPDEST PUSH2 0x13A DUP2 PUSH2 0xC0 JUMP JUMPDEST DUP3 MSTORE POP POP JUMP JUMPDEST PUSH0 PUSH1 0x20 DUP3 ADD SWAP1 POP PUSH2 0x153 PUSH0 DUP4 ADD DUP5 PUSH2 0x131 JUMP JUMPDEST SWAP3 SWAP2 POP POP JUMP JUMPDEST PUSH0 DUP1 REVERT JUMPDEST PUSH0 DUP1 REVERT JUMPDEST PUSH0 DUP1 REVERT JUMPDEST PUSH0 DUP1 DUP4 PUSH1 0x1F DUP5 ADD SLT PUSH2 0x17A JUMPI PUSH2 0x179 PUSH2 0x159 JUMP JUMPDEST JUMPDEST DUP3 CALLDATALOAD SWAP1 POP PUSH8 0xFFFFFFFFFFFFFFFF DUP2 GT ISZERO PUSH2 0x197 JUMPI PUSH2 0x196 PUSH2 0x15D JUMP JUMPDEST JUMPDEST PUSH1 0x20 DUP4 ADD SWAP2 POP DUP4 PUSH1 0x1 DUP3 MUL DUP4 ADD GT ISZERO PUSH2 0x1B3 JUMPI PUSH2 0x1B2 PUSH2 0x161 JUMP JUMPDEST JUMPDEST SWAP3 POP SWAP3 SWAP1 POP JUMP JUMPDEST PUSH0 DUP1 PUSH0 PUSH1 0x40 DUP5 DUP7 SUB SLT ISZERO PUSH2 0x1D1 JUMPI PUSH2 0x1D0 PUSH2 0xB8 JUMP JUMPDEST JUMPDEST PUSH0 PUSH2 0x1DE DUP7 DUP3 DUP8 ADD PUSH2 0xDF JUMP JUMPDEST SWAP4 POP POP PUSH1 0x20 DUP5 ADD CALLDATALOAD PUSH8 0xFFFFFFFFFFFFFFFF DUP2 GT ISZERO PUSH2 0x1FF JUMPI PUSH2 0x1FE PUSH2 0xBC JUMP JUMPDEST JUMPDEST PUSH2 0x20B DUP7 DUP3 DUP8 ADD PUSH2 0x165 JUMP JUMPDEST SWAP3 POP SWAP3 POP POP SWAP3 POP SWAP3 POP SWAP3 JUMP JUMPDEST PUSH32 0x4E487B7100000000000000000000000000000000000000000000000000000000 PUSH0 MSTORE PUSH1 0x11 PUSH1 0x4 MSTORE PUSH1 0x24 PUSH0 REVERT JUMPDEST PUSH0 PUSH2 0x24E DUP3 PUSH2 0xC0 JUMP JUMPDEST SWAP2 POP PUSH2 0x259 DUP4 PUSH2 0xC0 JUMP JUMPDEST SWAP3 POP DUP3 DUP3 ADD SWAP1 POP DUP1 DUP3 GT ISZERO PUSH2 0x271 JUMPI PUSH2 0x270 PUSH2 0x217 JUMP JUMPDEST JUMPDEST SWAP3 SWAP2 POP POP JUMP INVALID LOG2 PUSH5 0x6970667358 0x22 SLT KECCAK256 PUSH8 0x4F4F69ED84239677 SWAP14 0xD9 SWAP12 0xA8 0xCA SUB 0x22 0x25 MSTORE 0x1E 0xE1 MSTORE8 0xC4 0xB9 0xA8 PUSH23 0x46D733E52DC4F64736F6C634300081A00330000000000 "
				},
				"gasEstimates": {
					"creation": {
						"codeDepositCost": "137000",
						"executionCost": "181",
						"totalCost": "137181"
					},
					"external": {
						"addition(uint256,string)": "infinite",
						"addition(uint256,uint256)": "infinite"
					}
				},
				"methodIdentifiers": {
					"addition(uint256,string)": "84320073",
					"addition(uint256,uint256)": "54f363a3"
				}
			},
			"storageLayout": {
				"storage": [],
				"types": null
			},
			"userdoc": {
				"kind": "user",
				"methods": {},
				"version": 1
			}
		}
	}
}