{
	"contracts/MemoryVsStorageKeywords.sol": {
		"MemVsSto": {
			"abi": [
				{
					"inputs": [],
					"name": "MemoryKeyword",
					"outputs": [],
					"stateMutability": "view",
					"type": "function"
				},
				{
					"inputs": [],
					"name": "StorageKeyword",
					"outputs": [],
					"stateMutability": "nonpayable",
					"type": "function"
				},
				{
					"inputs": [
						{
							"internalType": "uint256",
							"name": "",
							"type": "uint256"
						}
					],
					"name": "arr",
					"outputs": [
						{
							"internalType": "uint256",
							"name": "",
							"type": "uint256"
						}
					],
					"stateMutability": "view",
					"type": "function"
				},
				{
					"inputs": [],
					"name": "searchElement",
					"outputs": [
						{
							"internalType": "bool",
							"name": "",
							"type": "bool"
						}
					],
					"stateMutability": "view",
					"type": "function"
				}
			],
			"devdoc": {
				"kind": "dev",
				"methods": {},
				"version": 1
			},
			"evm": {
				"assembly": "    /* \"contracts/MemoryVsStorageKeywords.sol\":72:638  contract MemVsSto{\r... */\n  mstore(0x40, 0x80)\n    /* \"contracts/MemoryVsStorageKeywords.sol\":96:126  uint[5] public arr=[1,2,3,4,5] */\n  mload(0x40)\n  dup1\n  0xa0\n  add\n  0x40\n  mstore\n  dup1\n    /* \"contracts/MemoryVsStorageKeywords.sol\":116:117  1 */\n  0x01\n    /* \"contracts/MemoryVsStorageKeywords.sol\":96:126  uint[5] public arr=[1,2,3,4,5] */\n  0xff\n  and\n  dup2\n  mstore\n  0x20\n  add\n    /* \"contracts/MemoryVsStorageKeywords.sol\":118:119  2 */\n  0x02\n    /* \"contracts/MemoryVsStorageKeywords.sol\":96:126  uint[5] public arr=[1,2,3,4,5] */\n  0xff\n  and\n  dup2\n  mstore\n  0x20\n  add\n    /* \"contracts/MemoryVsStorageKeywords.sol\":120:121  3 */\n  0x03\n    /* \"contracts/MemoryVsStorageKeywords.sol\":96:126  uint[5] public arr=[1,2,3,4,5] */\n  0xff\n  and\n  dup2\n  mstore\n  0x20\n  add\n    /* \"contracts/MemoryVsStorageKeywords.sol\":122:123  4 */\n  0x04\n    /* \"contracts/MemoryVsStorageKeywords.sol\":96:126  uint[5] public arr=[1,2,3,4,5] */\n  0xff\n  and\n  dup2\n  mstore\n  0x20\n  add\n    /* \"contracts/MemoryVsStorageKeywords.sol\":124:125  5 */\n  0x05\n    /* \"contracts/MemoryVsStorageKeywords.sol\":96:126  uint[5] public arr=[1,2,3,4,5] */\n  0xff\n  and\n  dup2\n  mstore\n  pop\n  0x00\n  swap1\n  0x05\n  tag_1\n  swap3\n  swap2\n  swap1\n  tag_2\n  jump\t// in\ntag_1:\n  pop\n    /* \"contracts/MemoryVsStorageKeywords.sol\":72:638  contract MemVsSto{\r... */\n  callvalue\n  dup1\n  iszero\n  tag_3\n  jumpi\n  0x00\n  dup1\n  revert\ntag_3:\n  pop\n  jump(tag_4)\ntag_2:\n  dup3\n  0x05\n  dup2\n  add\n  swap3\n  dup3\n  iszero\n  tag_5\n  jumpi\n  swap2\n  0x20\n  mul\n  dup3\n  add\ntag_6:\n  dup3\n  dup2\n  gt\n  iszero\n  tag_7\n  jumpi\n  dup3\n  mload\n  dup3\n  swap1\n  0xff\n  and\n  swap1\n  sstore\n  swap2\n  0x20\n  add\n  swap2\n  swap1\n  0x01\n  add\n  swap1\n  jump(tag_6)\ntag_7:\ntag_5:\n  pop\n  swap1\n  pop\n  tag_8\n  swap2\n  swap1\n  tag_9\n  jump\t// in\ntag_8:\n  pop\n  swap1\n  jump\t// out\ntag_9:\ntag_10:\n  dup1\n  dup3\n  gt\n  iszero\n  tag_11\n  jumpi\n  0x00\n  dup2\n  0x00\n  swap1\n  sstore\n  pop\n  0x01\n  add\n  jump(tag_10)\ntag_11:\n  pop\n  swap1\n  jump\t// out\ntag_4:\n  dataSize(sub_0)\n  dup1\n  dataOffset(sub_0)\n  0x00\n  codecopy\n  0x00\n  return\nstop\n\nsub_0: assembly {\n        /* \"contracts/MemoryVsStorageKeywords.sol\":72:638  contract MemVsSto{\r... */\n      mstore(0x40, 0x80)\n      callvalue\n      dup1\n      iszero\n      tag_1\n      jumpi\n      0x00\n      dup1\n      revert\n    tag_1:\n      pop\n      jumpi(tag_2, lt(calldatasize, 0x04))\n      shr(0xe0, calldataload(0x00))\n      dup1\n      0x3c93b1d6\n      eq\n      tag_3\n      jumpi\n      dup1\n      0x4ae73baa\n      eq\n      tag_4\n      jumpi\n      dup1\n      0x71e5ee5f\n      eq\n      tag_5\n      jumpi\n      dup1\n      0xa9302708\n      eq\n      tag_6\n      jumpi\n    tag_2:\n      0x00\n      dup1\n      revert\n        /* \"contracts/MemoryVsStorageKeywords.sol\":135:270  function StorageKeyword() public {\r... */\n    tag_3:\n      tag_7\n      tag_8\n      jump\t// in\n    tag_7:\n      stop\n        /* \"contracts/MemoryVsStorageKeywords.sol\":423:635  function searchElement() public view returns(bool){\r... */\n    tag_4:\n      tag_9\n      tag_10\n      jump\t// in\n    tag_9:\n      mload(0x40)\n      dup1\n      dup3\n      iszero\n      iszero\n      dup2\n      mstore\n      0x20\n      add\n      swap2\n      pop\n      pop\n      mload(0x40)\n      dup1\n      swap2\n      sub\n      swap1\n      return\n        /* \"contracts/MemoryVsStorageKeywords.sol\":96:126  uint[5] public arr=[1,2,3,4,5] */\n    tag_5:\n      tag_11\n      0x04\n      dup1\n      calldatasize\n      sub\n      0x20\n      dup2\n      lt\n      iszero\n      tag_12\n      jumpi\n      0x00\n      dup1\n      revert\n    tag_12:\n      dup2\n      add\n      swap1\n      dup1\n      dup1\n      calldataload\n      swap1\n      0x20\n      add\n      swap1\n      swap3\n      swap2\n      swap1\n      pop\n      pop\n      pop\n      tag_13\n      jump\t// in\n    tag_11:\n      mload(0x40)\n      dup1\n      dup3\n      dup2\n      mstore\n      0x20\n      add\n      swap2\n      pop\n      pop\n      mload(0x40)\n      dup1\n      swap2\n      sub\n      swap1\n      return\n        /* \"contracts/MemoryVsStorageKeywords.sol\":278:415  function MemoryKeyword() public view{\r... */\n    tag_6:\n      tag_14\n      tag_15\n      jump\t// in\n    tag_14:\n      stop\n        /* \"contracts/MemoryVsStorageKeywords.sol\":135:270  function StorageKeyword() public {\r... */\n    tag_8:\n        /* \"contracts/MemoryVsStorageKeywords.sol\":179:198  uint[5] storage brr */\n      0x00\n        /* \"contracts/MemoryVsStorageKeywords.sol\":261:262  6 */\n      0x06\n        /* \"contracts/MemoryVsStorageKeywords.sol\":254:257  brr */\n      dup2\n        /* \"contracts/MemoryVsStorageKeywords.sol\":258:259  0 */\n      0x00\n        /* \"contracts/MemoryVsStorageKeywords.sol\":254:260  brr[0] */\n      0x05\n      dup2\n      lt\n      tag_17\n      jumpi\n      invalid\n    tag_17:\n      add\n        /* \"contracts/MemoryVsStorageKeywords.sol\":254:262  brr[0]=6 */\n      dup2\n      swap1\n      sstore\n      pop\n        /* \"contracts/MemoryVsStorageKeywords.sol\":135:270  function StorageKeyword() public {\r... */\n      pop\n      jump\t// out\n        /* \"contracts/MemoryVsStorageKeywords.sol\":423:635  function searchElement() public view returns(bool){\r... */\n    tag_10:\n        /* \"contracts/MemoryVsStorageKeywords.sol\":468:472  bool */\n      0x00\n        /* \"contracts/MemoryVsStorageKeywords.sol\":484:502  uint[5] memory brr */\n      tag_20\n      tag_21\n      jump\t// in\n    tag_20:\n        /* \"contracts/MemoryVsStorageKeywords.sol\":503:506  arr */\n      0x00\n        /* \"contracts/MemoryVsStorageKeywords.sol\":484:506  uint[5] memory brr=arr */\n      0x05\n      dup1\n      0x20\n      mul\n      mload(0x40)\n      swap1\n      dup2\n      add\n      0x40\n      mstore\n      dup1\n      swap3\n      swap2\n      swap1\n      dup3\n      0x05\n      dup1\n      iszero\n      tag_22\n      jumpi\n      0x20\n      mul\n      dup3\n      add\n      swap2\n    tag_23:\n      dup2\n      sload\n      dup2\n      mstore\n      0x20\n      add\n      swap1\n      0x01\n      add\n      swap1\n      dup1\n      dup4\n      gt\n      tag_23\n      jumpi\n    tag_22:\n      pop\n      pop\n      pop\n      pop\n      pop\n      swap1\n      pop\n        /* \"contracts/MemoryVsStorageKeywords.sol\":521:527  uint i */\n      0x00\n        /* \"contracts/MemoryVsStorageKeywords.sol\":517:605  for(uint i=0;i<5;i++){\r... */\n    tag_24:\n        /* \"contracts/MemoryVsStorageKeywords.sol\":532:533  5 */\n      0x05\n        /* \"contracts/MemoryVsStorageKeywords.sol\":530:531  i */\n      dup2\n        /* \"contracts/MemoryVsStorageKeywords.sol\":530:533  i<5 */\n      lt\n        /* \"contracts/MemoryVsStorageKeywords.sol\":517:605  for(uint i=0;i<5;i++){\r... */\n      iszero\n      tag_25\n      jumpi\n        /* \"contracts/MemoryVsStorageKeywords.sol\":564:565  5 */\n      0x05\n        /* \"contracts/MemoryVsStorageKeywords.sol\":556:559  brr */\n      dup3\n        /* \"contracts/MemoryVsStorageKeywords.sol\":560:561  i */\n      dup3\n        /* \"contracts/MemoryVsStorageKeywords.sol\":556:562  brr[i] */\n      0x05\n      dup2\n      lt\n      tag_27\n      jumpi\n      invalid\n    tag_27:\n      0x20\n      mul\n      add\n      mload\n        /* \"contracts/MemoryVsStorageKeywords.sol\":556:565  brr[i]==5 */\n      eq\n        /* \"contracts/MemoryVsStorageKeywords.sol\":553:593  if(brr[i]==5)\r... */\n      iszero\n      tag_28\n      jumpi\n        /* \"contracts/MemoryVsStorageKeywords.sol\":589:593  true */\n      0x01\n        /* \"contracts/MemoryVsStorageKeywords.sol\":582:593  return true */\n      swap3\n      pop\n      pop\n      pop\n      jump(tag_19)\n        /* \"contracts/MemoryVsStorageKeywords.sol\":553:593  if(brr[i]==5)\r... */\n    tag_28:\n        /* \"contracts/MemoryVsStorageKeywords.sol\":534:537  i++ */\n      dup1\n      dup1\n      0x01\n      add\n      swap2\n      pop\n      pop\n        /* \"contracts/MemoryVsStorageKeywords.sol\":517:605  for(uint i=0;i<5;i++){\r... */\n      jump(tag_24)\n    tag_25:\n      pop\n        /* \"contracts/MemoryVsStorageKeywords.sol\":622:627  false */\n      0x00\n        /* \"contracts/MemoryVsStorageKeywords.sol\":615:627  return false */\n      swap2\n      pop\n      pop\n        /* \"contracts/MemoryVsStorageKeywords.sol\":423:635  function searchElement() public view returns(bool){\r... */\n    tag_19:\n      swap1\n      jump\t// out\n        /* \"contracts/MemoryVsStorageKeywords.sol\":96:126  uint[5] public arr=[1,2,3,4,5] */\n    tag_13:\n      0x00\n      dup2\n      0x05\n      dup2\n      lt\n      tag_29\n      jumpi\n      invalid\n    tag_29:\n      add\n      0x00\n      swap2\n      pop\n      swap1\n      pop\n      sload\n      dup2\n      jump\t// out\n        /* \"contracts/MemoryVsStorageKeywords.sol\":278:415  function MemoryKeyword() public view{\r... */\n    tag_15:\n        /* \"contracts/MemoryVsStorageKeywords.sol\":325:343  uint[5] memory crr */\n      tag_32\n      tag_21\n      jump\t// in\n    tag_32:\n        /* \"contracts/MemoryVsStorageKeywords.sol\":358:361  arr */\n      0x00\n        /* \"contracts/MemoryVsStorageKeywords.sol\":354:361  crr=arr */\n      0x05\n      dup1\n      0x20\n      mul\n      mload(0x40)\n      swap1\n      dup2\n      add\n      0x40\n      mstore\n      dup1\n      swap3\n      swap2\n      swap1\n      dup3\n      0x05\n      dup1\n      iszero\n      tag_33\n      jumpi\n      0x20\n      mul\n      dup3\n      add\n      swap2\n    tag_34:\n      dup2\n      sload\n      dup2\n      mstore\n      0x20\n      add\n      swap1\n      0x01\n      add\n      swap1\n      dup1\n      dup4\n      gt\n      tag_34\n      jumpi\n    tag_33:\n      pop\n      pop\n      pop\n      pop\n      pop\n      swap1\n      pop\n        /* \"contracts/MemoryVsStorageKeywords.sol\":406:407  6 */\n      0x06\n        /* \"contracts/MemoryVsStorageKeywords.sol\":399:402  crr */\n      dup2\n        /* \"contracts/MemoryVsStorageKeywords.sol\":403:404  0 */\n      0x00\n        /* \"contracts/MemoryVsStorageKeywords.sol\":399:405  crr[0] */\n      0x05\n      dup2\n      lt\n      tag_35\n      jumpi\n      invalid\n    tag_35:\n      0x20\n      mul\n      add\n        /* \"contracts/MemoryVsStorageKeywords.sol\":399:407  crr[0]=6 */\n      dup2\n      dup2\n      mstore\n      pop\n      pop\n        /* \"contracts/MemoryVsStorageKeywords.sol\":278:415  function MemoryKeyword() public view{\r... */\n      pop\n      jump\t// out\n    tag_21:\n      mload(0x40)\n      dup1\n      0xa0\n      add\n      0x40\n      mstore\n      dup1\n      0x05\n      swap1\n      0x20\n      dup3\n      mul\n      dup1\n      calldatasize\n      dup4\n      calldatacopy\n      dup1\n      dup3\n      add\n      swap2\n      pop\n      pop\n      swap1\n      pop\n      pop\n      swap1\n      jump\t// out\n\n    auxdata: 0xa2646970667358221220c1746d1c3d4b1898d39fdbb26358fe4f55cd004b3ecb7b86723fa001fe3e472364736f6c63430007000033\n}\n",
				"bytecode": {
					"linkReferences": {},
					"object": "60806040526040518060a00160405280600160ff168152602001600260ff168152602001600360ff168152602001600460ff168152602001600560ff16815250600090600561004f929190610062565b5034801561005c57600080fd5b506100c4565b8260058101928215610096579160200282015b82811115610095578251829060ff16905591602001919060010190610075565b5b5090506100a391906100a7565b5090565b5b808211156100c05760008160009055506001016100a8565b5090565b610244806100d36000396000f3fe608060405234801561001057600080fd5b506004361061004c5760003560e01c80633c93b1d6146100515780634ae73baa1461005b57806371e5ee5f1461007b578063a9302708146100bd575b600080fd5b6100596100c7565b005b6100636100e0565b60405180821515815260200191505060405180910390f35b6100a76004803603602081101561009157600080fd5b8101908080359060200190929190505050610171565b6040518082815260200191505060405180910390f35b6100c5610189565b005b60006006816000600581106100d857fe5b018190555050565b60006100ea6101ec565b6000600580602002604051908101604052809291908260058015610123576020028201915b81548152602001906001019080831161010f575b5050505050905060005b600581101561016757600582826005811061014457fe5b6020020151141561015a5760019250505061016e565b808060010191505061012d565b5060009150505b90565b6000816005811061017e57fe5b016000915090505481565b6101916101ec565b60006005806020026040519081016040528092919082600580156101ca576020028201915b8154815260200190600101908083116101b6575b505050505090506006816000600581106101e057fe5b60200201818152505050565b6040518060a0016040528060059060208202803683378082019150509050509056fea2646970667358221220c1746d1c3d4b1898d39fdbb26358fe4f55cd004b3ecb7b86723fa001fe3e472364736f6c63430007000033",
					"opcodes": "PUSH1 0x80 PUSH1 0x40 MSTORE PUSH1 0x40 MLOAD DUP1 PUSH1 0xA0 ADD PUSH1 0x40 MSTORE DUP1 PUSH1 0x1 PUSH1 0xFF AND DUP2 MSTORE PUSH1 0x20 ADD PUSH1 0x2 PUSH1 0xFF AND DUP2 MSTORE PUSH1 0x20 ADD PUSH1 0x3 PUSH1 0xFF AND DUP2 MSTORE PUSH1 0x20 ADD PUSH1 0x4 PUSH1 0xFF AND DUP2 MSTORE PUSH1 0x20 ADD PUSH1 0x5 PUSH1 0xFF AND DUP2 MSTORE POP PUSH1 0x0 SWAP1 PUSH1 0x5 PUSH2 0x4F SWAP3 SWAP2 SWAP1 PUSH2 0x62 JUMP JUMPDEST POP CALLVALUE DUP1 ISZERO PUSH2 0x5C JUMPI PUSH1 0x0 DUP1 REVERT JUMPDEST POP PUSH2 0xC4 JUMP JUMPDEST DUP3 PUSH1 0x5 DUP2 ADD SWAP3 DUP3 ISZERO PUSH2 0x96 JUMPI SWAP2 PUSH1 0x20 MUL DUP3 ADD JUMPDEST DUP3 DUP2 GT ISZERO PUSH2 0x95 JUMPI DUP3 MLOAD DUP3 SWAP1 PUSH1 0xFF AND SWAP1 SSTORE SWAP2 PUSH1 0x20 ADD SWAP2 SWAP1 PUSH1 0x1 ADD SWAP1 PUSH2 0x75 JUMP JUMPDEST JUMPDEST POP SWAP1 POP PUSH2 0xA3 SWAP2 SWAP1 PUSH2 0xA7 JUMP JUMPDEST POP SWAP1 JUMP JUMPDEST JUMPDEST DUP1 DUP3 GT ISZERO PUSH2 0xC0 JUMPI PUSH1 0x0 DUP2 PUSH1 0x0 SWAP1 SSTORE POP PUSH1 0x1 ADD PUSH2 0xA8 JUMP JUMPDEST POP SWAP1 JUMP JUMPDEST PUSH2 0x244 DUP1 PUSH2 0xD3 PUSH1 0x0 CODECOPY PUSH1 0x0 RETURN INVALID PUSH1 0x80 PUSH1 0x40 MSTORE CALLVALUE DUP1 ISZERO PUSH2 0x10 JUMPI PUSH1 0x0 DUP1 REVERT JUMPDEST POP PUSH1 0x4 CALLDATASIZE LT PUSH2 0x4C JUMPI PUSH1 0x0 CALLDATALOAD PUSH1 0xE0 SHR DUP1 PUSH4 0x3C93B1D6 EQ PUSH2 0x51 JUMPI DUP1 PUSH4 0x4AE73BAA EQ PUSH2 0x5B JUMPI DUP1 PUSH4 0x71E5EE5F EQ PUSH2 0x7B JUMPI DUP1 PUSH4 0xA9302708 EQ PUSH2 0xBD JUMPI JUMPDEST PUSH1 0x0 DUP1 REVERT JUMPDEST PUSH2 0x59 PUSH2 0xC7 JUMP JUMPDEST STOP JUMPDEST PUSH2 0x63 PUSH2 0xE0 JUMP JUMPDEST PUSH1 0x40 MLOAD DUP1 DUP3 ISZERO ISZERO DUP2 MSTORE PUSH1 0x20 ADD SWAP2 POP POP PUSH1 0x40 MLOAD DUP1 SWAP2 SUB SWAP1 RETURN JUMPDEST PUSH2 0xA7 PUSH1 0x4 DUP1 CALLDATASIZE SUB PUSH1 0x20 DUP2 LT ISZERO PUSH2 0x91 JUMPI PUSH1 0x0 DUP1 REVERT JUMPDEST DUP2 ADD SWAP1 DUP1 DUP1 CALLDATALOAD SWAP1 PUSH1 0x20 ADD SWAP1 SWAP3 SWAP2 SWAP1 POP POP POP PUSH2 0x171 JUMP JUMPDEST PUSH1 0x40 MLOAD DUP1 DUP3 DUP2 MSTORE PUSH1 0x20 ADD SWAP2 POP POP PUSH1 0x40 MLOAD DUP1 SWAP2 SUB SWAP1 RETURN JUMPDEST PUSH2 0xC5 PUSH2 0x189 JUMP JUMPDEST STOP JUMPDEST PUSH1 0x0 PUSH1 0x6 DUP2 PUSH1 0x0 PUSH1 0x5 DUP2 LT PUSH2 0xD8 JUMPI INVALID JUMPDEST ADD DUP2 SWAP1 SSTORE POP POP JUMP JUMPDEST PUSH1 0x0 PUSH2 0xEA PUSH2 0x1EC JUMP JUMPDEST PUSH1 0x0 PUSH1 0x5 DUP1 PUSH1 0x20 MUL PUSH1 0x40 MLOAD SWAP1 DUP2 ADD PUSH1 0x40 MSTORE DUP1 SWAP3 SWAP2 SWAP1 DUP3 PUSH1 0x5 DUP1 ISZERO PUSH2 0x123 JUMPI PUSH1 0x20 MUL DUP3 ADD SWAP2 JUMPDEST DUP2 SLOAD DUP2 MSTORE PUSH1 0x20 ADD SWAP1 PUSH1 0x1 ADD SWAP1 DUP1 DUP4 GT PUSH2 0x10F JUMPI JUMPDEST POP POP POP POP POP SWAP1 POP PUSH1 0x0 JUMPDEST PUSH1 0x5 DUP2 LT ISZERO PUSH2 0x167 JUMPI PUSH1 0x5 DUP3 DUP3 PUSH1 0x5 DUP2 LT PUSH2 0x144 JUMPI INVALID JUMPDEST PUSH1 0x20 MUL ADD MLOAD EQ ISZERO PUSH2 0x15A JUMPI PUSH1 0x1 SWAP3 POP POP POP PUSH2 0x16E JUMP JUMPDEST DUP1 DUP1 PUSH1 0x1 ADD SWAP2 POP POP PUSH2 0x12D JUMP JUMPDEST POP PUSH1 0x0 SWAP2 POP POP JUMPDEST SWAP1 JUMP JUMPDEST PUSH1 0x0 DUP2 PUSH1 0x5 DUP2 LT PUSH2 0x17E JUMPI INVALID JUMPDEST ADD PUSH1 0x0 SWAP2 POP SWAP1 POP SLOAD DUP2 JUMP JUMPDEST PUSH2 0x191 PUSH2 0x1EC JUMP JUMPDEST PUSH1 0x0 PUSH1 0x5 DUP1 PUSH1 0x20 MUL PUSH1 0x40 MLOAD SWAP1 DUP2 ADD PUSH1 0x40 MSTORE DUP1 SWAP3 SWAP2 SWAP1 DUP3 PUSH1 0x5 DUP1 ISZERO PUSH2 0x1CA JUMPI PUSH1 0x20 MUL DUP3 ADD SWAP2 JUMPDEST DUP2 SLOAD DUP2 MSTORE PUSH1 0x20 ADD SWAP1 PUSH1 0x1 ADD SWAP1 DUP1 DUP4 GT PUSH2 0x1B6 JUMPI JUMPDEST POP POP POP POP POP SWAP1 POP PUSH1 0x6 DUP2 PUSH1 0x0 PUSH1 0x5 DUP2 LT PUSH2 0x1E0 JUMPI INVALID JUMPDEST PUSH1 0x20 MUL ADD DUP2 DUP2 MSTORE POP POP POP JUMP JUMPDEST PUSH1 0x40 MLOAD DUP1 PUSH1 0xA0 ADD PUSH1 0x40 MSTORE DUP1 PUSH1 0x5 SWAP1 PUSH1 0x20 DUP3 MUL DUP1 CALLDATASIZE DUP4 CALLDATACOPY DUP1 DUP3 ADD SWAP2 POP POP SWAP1 POP POP SWAP1 JUMP INVALID LOG2 PUSH5 0x6970667358 0x22 SLT KECCAK256 0xC1 PUSH21 0x6D1C3D4B1898D39FDBB26358FE4F55CD004B3ECB7B DUP7 PUSH19 0x3FA001FE3E472364736F6C6343000700003300 "
				},
				"gasEstimates": {
					"creation": {
						"codeDepositCost": "116000",
						"executionCost": "infinite",
						"totalCost": "infinite"
					},
					"external": {
						"MemoryKeyword()": "infinite",
						"StorageKeyword()": "20170",
						"arr(uint256)": "1151",
						"searchElement()": "infinite"
					}
				},
				"methodIdentifiers": {
					"MemoryKeyword()": "a9302708",
					"StorageKeyword()": "3c93b1d6",
					"arr(uint256)": "71e5ee5f",
					"searchElement()": "4ae73baa"
				}
			},
			"storageLayout": {
				"storage": [
					{
						"astId": 11,
						"contract": "contracts/MemoryVsStorageKeywords.sol:MemVsSto",
						"label": "arr",
						"offset": 0,
						"slot": "0",
						"type": "t_array(t_uint256)5_storage"
					}
				],
				"types": {
					"t_array(t_uint256)5_storage": {
						"base": "t_uint256",
						"encoding": "inplace",
						"label": "uint256[5]",
						"numberOfBytes": "160"
					},
					"t_uint256": {
						"encoding": "inplace",
						"label": "uint256",
						"numberOfBytes": "32"
					}
				}
			},
			"userdoc": {
				"kind": "user",
				"methods": {},
				"version": 1
			}
		}
	}
}