{
	"contracts/struct_21.sol": {
		"Struct": {
			"abi": [
				{
					"inputs": [],
					"name": "getter",
					"outputs": [
						{
							"components": [
								{
									"internalType": "string",
									"name": "name",
									"type": "string"
								},
								{
									"internalType": "uint256",
									"name": "roll",
									"type": "uint256"
								},
								{
									"internalType": "bool",
									"name": "pass",
									"type": "bool"
								}
							],
							"internalType": "struct Struct.Student",
							"name": "",
							"type": "tuple"
						}
					],
					"stateMutability": "view",
					"type": "function"
				},
				{
					"inputs": [],
					"name": "getterName",
					"outputs": [
						{
							"internalType": "string",
							"name": "",
							"type": "string"
						}
					],
					"stateMutability": "view",
					"type": "function"
				},
				{
					"inputs": [],
					"name": "getterRoll",
					"outputs": [
						{
							"internalType": "uint256",
							"name": "",
							"type": "uint256"
						}
					],
					"stateMutability": "view",
					"type": "function"
				},
				{
					"inputs": [
						{
							"internalType": "string",
							"name": "_name",
							"type": "string"
						},
						{
							"internalType": "uint256",
							"name": "_roll",
							"type": "uint256"
						},
						{
							"internalType": "bool",
							"name": "_pass",
							"type": "bool"
						}
					],
					"name": "insert",
					"outputs": [],
					"stateMutability": "nonpayable",
					"type": "function"
				},
				{
					"inputs": [],
					"name": "s1",
					"outputs": [
						{
							"internalType": "string",
							"name": "name",
							"type": "string"
						},
						{
							"internalType": "uint256",
							"name": "roll",
							"type": "uint256"
						},
						{
							"internalType": "bool",
							"name": "pass",
							"type": "bool"
						}
					],
					"stateMutability": "view",
					"type": "function"
				}
			],
			"devdoc": {
				"kind": "dev",
				"methods": {},
				"version": 1
			},
			"evm": {
				"assembly": "    /* \"contracts/struct_21.sol\":73:648  contract Struct{... */\n  mstore(0x40, 0x80)\n  callvalue\n  dup1\n  iszero\n  tag_1\n  jumpi\n  0x00\n  dup1\n  revert\ntag_1:\n  pop\n  dataSize(sub_0)\n  dup1\n  dataOffset(sub_0)\n  0x00\n  codecopy\n  0x00\n  return\nstop\n\nsub_0: assembly {\n        /* \"contracts/struct_21.sol\":73:648  contract Struct{... */\n      mstore(0x40, 0x80)\n      callvalue\n      dup1\n      iszero\n      tag_1\n      jumpi\n      0x00\n      dup1\n      revert\n    tag_1:\n      pop\n      jumpi(tag_2, lt(calldatasize, 0x04))\n      shr(0xe0, calldataload(0x00))\n      dup1\n      0x32ef371a\n      eq\n      tag_3\n      jumpi\n      dup1\n      0x6cc014de\n      eq\n      tag_4\n      jumpi\n      dup1\n      0x993a04b7\n      eq\n      tag_5\n      jumpi\n      dup1\n      0xb923a9fc\n      eq\n      tag_6\n      jumpi\n      dup1\n      0xc30655a2\n      eq\n      tag_7\n      jumpi\n    tag_2:\n      0x00\n      dup1\n      revert\n        /* \"contracts/struct_21.sol\":367:456  function getterName() public view returns(string memory){... */\n    tag_3:\n      tag_8\n      tag_9\n      jump\t// in\n    tag_8:\n      mload(0x40)\n      tag_10\n      swap2\n      swap1\n      tag_11\n      jump\t// in\n    tag_10:\n      mload(0x40)\n      dup1\n      swap2\n      sub\n      swap1\n      return\n        /* \"contracts/struct_21.sol\":187:204  Student public s1 */\n    tag_4:\n      tag_12\n      tag_13\n      jump\t// in\n    tag_12:\n      mload(0x40)\n      tag_14\n      swap4\n      swap3\n      swap2\n      swap1\n      tag_15\n      jump\t// in\n    tag_14:\n      mload(0x40)\n      dup1\n      swap2\n      sub\n      swap1\n      return\n        /* \"contracts/struct_21.sol\":564:645  function getter() public view returns(Student memory){... */\n    tag_5:\n      tag_16\n      tag_17\n      jump\t// in\n    tag_16:\n      mload(0x40)\n      tag_18\n      swap2\n      swap1\n      tag_19\n      jump\t// in\n    tag_18:\n      mload(0x40)\n      dup1\n      swap2\n      sub\n      swap1\n      return\n        /* \"contracts/struct_21.sol\":469:549  function getterRoll() public view returns(uint){... */\n    tag_6:\n      tag_20\n      tag_21\n      jump\t// in\n    tag_20:\n      mload(0x40)\n      tag_22\n      swap2\n      swap1\n      tag_23\n      jump\t// in\n    tag_22:\n      mload(0x40)\n      dup1\n      swap2\n      sub\n      swap1\n      return\n        /* \"contracts/struct_21.sol\":213:359  function insert(string calldata _name,uint _roll,bool _pass)public{... */\n    tag_7:\n      tag_24\n      0x04\n      dup1\n      calldatasize\n      sub\n      dup2\n      add\n      swap1\n      tag_25\n      swap2\n      swap1\n      tag_26\n      jump\t// in\n    tag_25:\n      tag_27\n      jump\t// in\n    tag_24:\n      stop\n        /* \"contracts/struct_21.sol\":367:456  function getterName() public view returns(string memory){... */\n    tag_9:\n        /* \"contracts/struct_21.sol\":409:422  string memory */\n      0x60\n        /* \"contracts/struct_21.sol\":441:443  s1 */\n      0x00\n        /* \"contracts/struct_21.sol\":441:448  s1.name */\n      dup1\n      add\n        /* \"contracts/struct_21.sol\":434:448  return s1.name */\n      dup1\n      sload\n      tag_29\n      swap1\n      tag_30\n      jump\t// in\n    tag_29:\n      dup1\n      0x1f\n      add\n      0x20\n      dup1\n      swap2\n      div\n      mul\n      0x20\n      add\n      mload(0x40)\n      swap1\n      dup2\n      add\n      0x40\n      mstore\n      dup1\n      swap3\n      swap2\n      swap1\n      dup2\n      dup2\n      mstore\n      0x20\n      add\n      dup3\n      dup1\n      sload\n      tag_31\n      swap1\n      tag_30\n      jump\t// in\n    tag_31:\n      dup1\n      iszero\n      tag_32\n      jumpi\n      dup1\n      0x1f\n      lt\n      tag_33\n      jumpi\n      0x0100\n      dup1\n      dup4\n      sload\n      div\n      mul\n      dup4\n      mstore\n      swap2\n      0x20\n      add\n      swap2\n      jump(tag_32)\n    tag_33:\n      dup3\n      add\n      swap2\n      swap1\n      0x00\n      mstore\n      keccak256(0x00, 0x20)\n      swap1\n    tag_34:\n      dup2\n      sload\n      dup2\n      mstore\n      swap1\n      0x01\n      add\n      swap1\n      0x20\n      add\n      dup1\n      dup4\n      gt\n      tag_34\n      jumpi\n      dup3\n      swap1\n      sub\n      0x1f\n      and\n      dup3\n      add\n      swap2\n    tag_32:\n      pop\n      pop\n      pop\n      pop\n      pop\n      swap1\n      pop\n        /* \"contracts/struct_21.sol\":367:456  function getterName() public view returns(string memory){... */\n      swap1\n      jump\t// out\n        /* \"contracts/struct_21.sol\":187:204  Student public s1 */\n    tag_13:\n      0x00\n      dup1\n      0x00\n      add\n      dup1\n      sload\n      tag_35\n      swap1\n      tag_30\n      jump\t// in\n    tag_35:\n      dup1\n      0x1f\n      add\n      0x20\n      dup1\n      swap2\n      div\n      mul\n      0x20\n      add\n      mload(0x40)\n      swap1\n      dup2\n      add\n      0x40\n      mstore\n      dup1\n      swap3\n      swap2\n      swap1\n      dup2\n      dup2\n      mstore\n      0x20\n      add\n      dup3\n      dup1\n      sload\n      tag_36\n      swap1\n      tag_30\n      jump\t// in\n    tag_36:\n      dup1\n      iszero\n      tag_37\n      jumpi\n      dup1\n      0x1f\n      lt\n      tag_38\n      jumpi\n      0x0100\n      dup1\n      dup4\n      sload\n      div\n      mul\n      dup4\n      mstore\n      swap2\n      0x20\n      add\n      swap2\n      jump(tag_37)\n    tag_38:\n      dup3\n      add\n      swap2\n      swap1\n      0x00\n      mstore\n      keccak256(0x00, 0x20)\n      swap1\n    tag_39:\n      dup2\n      sload\n      dup2\n      mstore\n      swap1\n      0x01\n      add\n      swap1\n      0x20\n      add\n      dup1\n      dup4\n      gt\n      tag_39\n      jumpi\n      dup3\n      swap1\n      sub\n      0x1f\n      and\n      dup3\n      add\n      swap2\n    tag_37:\n      pop\n      pop\n      pop\n      pop\n      pop\n      swap1\n      dup1\n      0x01\n      add\n      sload\n      swap1\n      dup1\n      0x02\n      add\n      0x00\n      swap1\n      sload\n      swap1\n      0x0100\n      exp\n      swap1\n      div\n      0xff\n      and\n      swap1\n      pop\n      dup4\n      jump\t// out\n        /* \"contracts/struct_21.sol\":564:645  function getter() public view returns(Student memory){... */\n    tag_17:\n        /* \"contracts/struct_21.sol\":602:616  Student memory */\n      tag_40\n      tag_41\n      jump\t// in\n    tag_40:\n        /* \"contracts/struct_21.sol\":635:637  s1 */\n      0x00\n        /* \"contracts/struct_21.sol\":628:637  return s1 */\n      mload(0x40)\n      dup1\n      0x60\n      add\n      0x40\n      mstore\n      swap1\n      dup2\n      0x00\n      dup3\n      add\n      dup1\n      sload\n      tag_43\n      swap1\n      tag_30\n      jump\t// in\n    tag_43:\n      dup1\n      0x1f\n      add\n      0x20\n      dup1\n      swap2\n      div\n      mul\n      0x20\n      add\n      mload(0x40)\n      swap1\n      dup2\n      add\n      0x40\n      mstore\n      dup1\n      swap3\n      swap2\n      swap1\n      dup2\n      dup2\n      mstore\n      0x20\n      add\n      dup3\n      dup1\n      sload\n      tag_44\n      swap1\n      tag_30\n      jump\t// in\n    tag_44:\n      dup1\n      iszero\n      tag_45\n      jumpi\n      dup1\n      0x1f\n      lt\n      tag_46\n      jumpi\n      0x0100\n      dup1\n      dup4\n      sload\n      div\n      mul\n      dup4\n      mstore\n      swap2\n      0x20\n      add\n      swap2\n      jump(tag_45)\n    tag_46:\n      dup3\n      add\n      swap2\n      swap1\n      0x00\n      mstore\n      keccak256(0x00, 0x20)\n      swap1\n    tag_47:\n      dup2\n      sload\n      dup2\n      mstore\n      swap1\n      0x01\n      add\n      swap1\n      0x20\n      add\n      dup1\n      dup4\n      gt\n      tag_47\n      jumpi\n      dup3\n      swap1\n      sub\n      0x1f\n      and\n      dup3\n      add\n      swap2\n    tag_45:\n      pop\n      pop\n      pop\n      pop\n      pop\n      dup2\n      mstore\n      0x20\n      add\n      0x01\n      dup3\n      add\n      sload\n      dup2\n      mstore\n      0x20\n      add\n      0x02\n      dup3\n      add\n      0x00\n      swap1\n      sload\n      swap1\n      0x0100\n      exp\n      swap1\n      div\n      0xff\n      and\n      iszero\n      iszero\n      iszero\n      iszero\n      dup2\n      mstore\n      pop\n      pop\n      swap1\n      pop\n        /* \"contracts/struct_21.sol\":564:645  function getter() public view returns(Student memory){... */\n      swap1\n      jump\t// out\n        /* \"contracts/struct_21.sol\":469:549  function getterRoll() public view returns(uint){... */\n    tag_21:\n        /* \"contracts/struct_21.sol\":511:515  uint */\n      0x00\n        /* \"contracts/struct_21.sol\":534:536  s1 */\n      dup1\n        /* \"contracts/struct_21.sol\":534:541  s1.roll */\n      0x01\n      add\n      sload\n        /* \"contracts/struct_21.sol\":527:541  return s1.roll */\n      swap1\n      pop\n        /* \"contracts/struct_21.sol\":469:549  function getterRoll() public view returns(uint){... */\n      swap1\n      jump\t// out\n        /* \"contracts/struct_21.sol\":213:359  function insert(string calldata _name,uint _roll,bool _pass)public{... */\n    tag_27:\n        /* \"contracts/struct_21.sol\":298:303  _name */\n      dup4\n      dup4\n        /* \"contracts/struct_21.sol\":290:292  s1 */\n      0x00\n        /* \"contracts/struct_21.sol\":290:297  s1.name */\n      dup1\n      add\n        /* \"contracts/struct_21.sol\":290:303  s1.name=_name */\n      swap2\n      dup3\n      tag_50\n      swap3\n      swap2\n      swap1\n      tag_51\n      jump\t// in\n    tag_50:\n      pop\n        /* \"contracts/struct_21.sol\":322:327  _roll */\n      dup2\n        /* \"contracts/struct_21.sol\":314:316  s1 */\n      0x00\n        /* \"contracts/struct_21.sol\":314:321  s1.roll */\n      0x01\n      add\n        /* \"contracts/struct_21.sol\":314:327  s1.roll=_roll */\n      dup2\n      swap1\n      sstore\n      pop\n        /* \"contracts/struct_21.sol\":346:351  _pass */\n      dup1\n        /* \"contracts/struct_21.sol\":338:340  s1 */\n      0x00\n        /* \"contracts/struct_21.sol\":338:345  s1.pass */\n      0x02\n      add\n      0x00\n        /* \"contracts/struct_21.sol\":338:351  s1.pass=_pass */\n      0x0100\n      exp\n      dup2\n      sload\n      dup2\n      0xff\n      mul\n      not\n      and\n      swap1\n      dup4\n      iszero\n      iszero\n      mul\n      or\n      swap1\n      sstore\n      pop\n        /* \"contracts/struct_21.sol\":213:359  function insert(string calldata _name,uint _roll,bool _pass)public{... */\n      pop\n      pop\n      pop\n      pop\n      jump\t// out\n    tag_41:\n      mload(0x40)\n      dup1\n      0x60\n      add\n      0x40\n      mstore\n      dup1\n      0x60\n      dup2\n      mstore\n      0x20\n      add\n      0x00\n      dup2\n      mstore\n      0x20\n      add\n      iszero(iszero(0x00))\n      dup2\n      mstore\n      pop\n      swap1\n      jump\t// out\n        /* \"#utility.yul\":7:106   */\n    tag_52:\n        /* \"#utility.yul\":59:65   */\n      0x00\n        /* \"#utility.yul\":93:98   */\n      dup2\n        /* \"#utility.yul\":87:99   */\n      mload\n        /* \"#utility.yul\":77:99   */\n      swap1\n      pop\n        /* \"#utility.yul\":7:106   */\n      swap2\n      swap1\n      pop\n      jump\t// out\n        /* \"#utility.yul\":112:281   */\n    tag_53:\n        /* \"#utility.yul\":196:207   */\n      0x00\n        /* \"#utility.yul\":230:236   */\n      dup3\n        /* \"#utility.yul\":225:228   */\n      dup3\n        /* \"#utility.yul\":218:237   */\n      mstore\n        /* \"#utility.yul\":270:274   */\n      0x20\n        /* \"#utility.yul\":265:268   */\n      dup3\n        /* \"#utility.yul\":261:275   */\n      add\n        /* \"#utility.yul\":246:275   */\n      swap1\n      pop\n        /* \"#utility.yul\":112:281   */\n      swap3\n      swap2\n      pop\n      pop\n      jump\t// out\n        /* \"#utility.yul\":287:426   */\n    tag_54:\n        /* \"#utility.yul\":376:382   */\n      dup3\n        /* \"#utility.yul\":371:374   */\n      dup2\n        /* \"#utility.yul\":366:369   */\n      dup4\n        /* \"#utility.yul\":360:383   */\n      mcopy\n        /* \"#utility.yul\":417:418   */\n      0x00\n        /* \"#utility.yul\":408:414   */\n      dup4\n        /* \"#utility.yul\":403:406   */\n      dup4\n        /* \"#utility.yul\":399:415   */\n      add\n        /* \"#utility.yul\":392:419   */\n      mstore\n        /* \"#utility.yul\":287:426   */\n      pop\n      pop\n      pop\n      jump\t// out\n        /* \"#utility.yul\":432:534   */\n    tag_55:\n        /* \"#utility.yul\":473:479   */\n      0x00\n        /* \"#utility.yul\":524:526   */\n      0x1f\n        /* \"#utility.yul\":520:527   */\n      not\n        /* \"#utility.yul\":515:517   */\n      0x1f\n        /* \"#utility.yul\":508:513   */\n      dup4\n        /* \"#utility.yul\":504:518   */\n      add\n        /* \"#utility.yul\":500:528   */\n      and\n        /* \"#utility.yul\":490:528   */\n      swap1\n      pop\n        /* \"#utility.yul\":432:534   */\n      swap2\n      swap1\n      pop\n      jump\t// out\n        /* \"#utility.yul\":540:917   */\n    tag_56:\n        /* \"#utility.yul\":628:631   */\n      0x00\n        /* \"#utility.yul\":656:695   */\n      tag_101\n        /* \"#utility.yul\":689:694   */\n      dup3\n        /* \"#utility.yul\":656:695   */\n      tag_52\n      jump\t// in\n    tag_101:\n        /* \"#utility.yul\":711:782   */\n      tag_102\n        /* \"#utility.yul\":775:781   */\n      dup2\n        /* \"#utility.yul\":770:773   */\n      dup6\n        /* \"#utility.yul\":711:782   */\n      tag_53\n      jump\t// in\n    tag_102:\n        /* \"#utility.yul\":704:782   */\n      swap4\n      pop\n        /* \"#utility.yul\":791:856   */\n      tag_103\n        /* \"#utility.yul\":849:855   */\n      dup2\n        /* \"#utility.yul\":844:847   */\n      dup6\n        /* \"#utility.yul\":837:841   */\n      0x20\n        /* \"#utility.yul\":830:835   */\n      dup7\n        /* \"#utility.yul\":826:842   */\n      add\n        /* \"#utility.yul\":791:856   */\n      tag_54\n      jump\t// in\n    tag_103:\n        /* \"#utility.yul\":881:910   */\n      tag_104\n        /* \"#utility.yul\":903:909   */\n      dup2\n        /* \"#utility.yul\":881:910   */\n      tag_55\n      jump\t// in\n    tag_104:\n        /* \"#utility.yul\":876:879   */\n      dup5\n        /* \"#utility.yul\":872:911   */\n      add\n        /* \"#utility.yul\":865:911   */\n      swap2\n      pop\n        /* \"#utility.yul\":632:917   */\n      pop\n        /* \"#utility.yul\":540:917   */\n      swap3\n      swap2\n      pop\n      pop\n      jump\t// out\n        /* \"#utility.yul\":923:1236   */\n    tag_11:\n        /* \"#utility.yul\":1036:1040   */\n      0x00\n        /* \"#utility.yul\":1074:1076   */\n      0x20\n        /* \"#utility.yul\":1063:1072   */\n      dup3\n        /* \"#utility.yul\":1059:1077   */\n      add\n        /* \"#utility.yul\":1051:1077   */\n      swap1\n      pop\n        /* \"#utility.yul\":1123:1132   */\n      dup2\n        /* \"#utility.yul\":1117:1121   */\n      dup2\n        /* \"#utility.yul\":1113:1133   */\n      sub\n        /* \"#utility.yul\":1109:1110   */\n      0x00\n        /* \"#utility.yul\":1098:1107   */\n      dup4\n        /* \"#utility.yul\":1094:1111   */\n      add\n        /* \"#utility.yul\":1087:1134   */\n      mstore\n        /* \"#utility.yul\":1151:1229   */\n      tag_106\n        /* \"#utility.yul\":1224:1228   */\n      dup2\n        /* \"#utility.yul\":1215:1221   */\n      dup5\n        /* \"#utility.yul\":1151:1229   */\n      tag_56\n      jump\t// in\n    tag_106:\n        /* \"#utility.yul\":1143:1229   */\n      swap1\n      pop\n        /* \"#utility.yul\":923:1236   */\n      swap3\n      swap2\n      pop\n      pop\n      jump\t// out\n        /* \"#utility.yul\":1242:1319   */\n    tag_57:\n        /* \"#utility.yul\":1279:1286   */\n      0x00\n        /* \"#utility.yul\":1308:1313   */\n      dup2\n        /* \"#utility.yul\":1297:1313   */\n      swap1\n      pop\n        /* \"#utility.yul\":1242:1319   */\n      swap2\n      swap1\n      pop\n      jump\t// out\n        /* \"#utility.yul\":1325:1443   */\n    tag_58:\n        /* \"#utility.yul\":1412:1436   */\n      tag_109\n        /* \"#utility.yul\":1430:1435   */\n      dup2\n        /* \"#utility.yul\":1412:1436   */\n      tag_57\n      jump\t// in\n    tag_109:\n        /* \"#utility.yul\":1407:1410   */\n      dup3\n        /* \"#utility.yul\":1400:1437   */\n      mstore\n        /* \"#utility.yul\":1325:1443   */\n      pop\n      pop\n      jump\t// out\n        /* \"#utility.yul\":1449:1539   */\n    tag_59:\n        /* \"#utility.yul\":1483:1490   */\n      0x00\n        /* \"#utility.yul\":1526:1531   */\n      dup2\n        /* \"#utility.yul\":1519:1532   */\n      iszero\n        /* \"#utility.yul\":1512:1533   */\n      iszero\n        /* \"#utility.yul\":1501:1533   */\n      swap1\n      pop\n        /* \"#utility.yul\":1449:1539   */\n      swap2\n      swap1\n      pop\n      jump\t// out\n        /* \"#utility.yul\":1545:1654   */\n    tag_60:\n        /* \"#utility.yul\":1626:1647   */\n      tag_112\n        /* \"#utility.yul\":1641:1646   */\n      dup2\n        /* \"#utility.yul\":1626:1647   */\n      tag_59\n      jump\t// in\n    tag_112:\n        /* \"#utility.yul\":1621:1624   */\n      dup3\n        /* \"#utility.yul\":1614:1648   */\n      mstore\n        /* \"#utility.yul\":1545:1654   */\n      pop\n      pop\n      jump\t// out\n        /* \"#utility.yul\":1660:2181   */\n    tag_15:\n        /* \"#utility.yul\":1823:1827   */\n      0x00\n        /* \"#utility.yul\":1861:1863   */\n      0x60\n        /* \"#utility.yul\":1850:1859   */\n      dup3\n        /* \"#utility.yul\":1846:1864   */\n      add\n        /* \"#utility.yul\":1838:1864   */\n      swap1\n      pop\n        /* \"#utility.yul\":1910:1919   */\n      dup2\n        /* \"#utility.yul\":1904:1908   */\n      dup2\n        /* \"#utility.yul\":1900:1920   */\n      sub\n        /* \"#utility.yul\":1896:1897   */\n      0x00\n        /* \"#utility.yul\":1885:1894   */\n      dup4\n        /* \"#utility.yul\":1881:1898   */\n      add\n        /* \"#utility.yul\":1874:1921   */\n      mstore\n        /* \"#utility.yul\":1938:2016   */\n      tag_114\n        /* \"#utility.yul\":2011:2015   */\n      dup2\n        /* \"#utility.yul\":2002:2008   */\n      dup7\n        /* \"#utility.yul\":1938:2016   */\n      tag_56\n      jump\t// in\n    tag_114:\n        /* \"#utility.yul\":1930:2016   */\n      swap1\n      pop\n        /* \"#utility.yul\":2026:2098   */\n      tag_115\n        /* \"#utility.yul\":2094:2096   */\n      0x20\n        /* \"#utility.yul\":2083:2092   */\n      dup4\n        /* \"#utility.yul\":2079:2097   */\n      add\n        /* \"#utility.yul\":2070:2076   */\n      dup6\n        /* \"#utility.yul\":2026:2098   */\n      tag_58\n      jump\t// in\n    tag_115:\n        /* \"#utility.yul\":2108:2174   */\n      tag_116\n        /* \"#utility.yul\":2170:2172   */\n      0x40\n        /* \"#utility.yul\":2159:2168   */\n      dup4\n        /* \"#utility.yul\":2155:2173   */\n      add\n        /* \"#utility.yul\":2146:2152   */\n      dup5\n        /* \"#utility.yul\":2108:2174   */\n      tag_60\n      jump\t// in\n    tag_116:\n        /* \"#utility.yul\":1660:2181   */\n      swap5\n      swap4\n      pop\n      pop\n      pop\n      pop\n      jump\t// out\n        /* \"#utility.yul\":2187:2346   */\n    tag_61:\n        /* \"#utility.yul\":2261:2272   */\n      0x00\n        /* \"#utility.yul\":2295:2301   */\n      dup3\n        /* \"#utility.yul\":2290:2293   */\n      dup3\n        /* \"#utility.yul\":2283:2302   */\n      mstore\n        /* \"#utility.yul\":2335:2339   */\n      0x20\n        /* \"#utility.yul\":2330:2333   */\n      dup3\n        /* \"#utility.yul\":2326:2340   */\n      add\n        /* \"#utility.yul\":2311:2340   */\n      swap1\n      pop\n        /* \"#utility.yul\":2187:2346   */\n      swap3\n      swap2\n      pop\n      pop\n      jump\t// out\n        /* \"#utility.yul\":2352:2709   */\n    tag_62:\n        /* \"#utility.yul\":2430:2433   */\n      0x00\n        /* \"#utility.yul\":2458:2497   */\n      tag_119\n        /* \"#utility.yul\":2491:2496   */\n      dup3\n        /* \"#utility.yul\":2458:2497   */\n      tag_52\n      jump\t// in\n    tag_119:\n        /* \"#utility.yul\":2513:2574   */\n      tag_120\n        /* \"#utility.yul\":2567:2573   */\n      dup2\n        /* \"#utility.yul\":2562:2565   */\n      dup6\n        /* \"#utility.yul\":2513:2574   */\n      tag_61\n      jump\t// in\n    tag_120:\n        /* \"#utility.yul\":2506:2574   */\n      swap4\n      pop\n        /* \"#utility.yul\":2583:2648   */\n      tag_121\n        /* \"#utility.yul\":2641:2647   */\n      dup2\n        /* \"#utility.yul\":2636:2639   */\n      dup6\n        /* \"#utility.yul\":2629:2633   */\n      0x20\n        /* \"#utility.yul\":2622:2627   */\n      dup7\n        /* \"#utility.yul\":2618:2634   */\n      add\n        /* \"#utility.yul\":2583:2648   */\n      tag_54\n      jump\t// in\n    tag_121:\n        /* \"#utility.yul\":2673:2702   */\n      tag_122\n        /* \"#utility.yul\":2695:2701   */\n      dup2\n        /* \"#utility.yul\":2673:2702   */\n      tag_55\n      jump\t// in\n    tag_122:\n        /* \"#utility.yul\":2668:2671   */\n      dup5\n        /* \"#utility.yul\":2664:2703   */\n      add\n        /* \"#utility.yul\":2657:2703   */\n      swap2\n      pop\n        /* \"#utility.yul\":2434:2709   */\n      pop\n        /* \"#utility.yul\":2352:2709   */\n      swap3\n      swap2\n      pop\n      pop\n      jump\t// out\n        /* \"#utility.yul\":2715:2823   */\n    tag_63:\n        /* \"#utility.yul\":2792:2816   */\n      tag_124\n        /* \"#utility.yul\":2810:2815   */\n      dup2\n        /* \"#utility.yul\":2792:2816   */\n      tag_57\n      jump\t// in\n    tag_124:\n        /* \"#utility.yul\":2787:2790   */\n      dup3\n        /* \"#utility.yul\":2780:2817   */\n      mstore\n        /* \"#utility.yul\":2715:2823   */\n      pop\n      pop\n      jump\t// out\n        /* \"#utility.yul\":2829:2928   */\n    tag_64:\n        /* \"#utility.yul\":2900:2921   */\n      tag_126\n        /* \"#utility.yul\":2915:2920   */\n      dup2\n        /* \"#utility.yul\":2900:2921   */\n      tag_59\n      jump\t// in\n    tag_126:\n        /* \"#utility.yul\":2895:2898   */\n      dup3\n        /* \"#utility.yul\":2888:2922   */\n      mstore\n        /* \"#utility.yul\":2829:2928   */\n      pop\n      pop\n      jump\t// out\n        /* \"#utility.yul\":2988:3756   */\n    tag_65:\n        /* \"#utility.yul\":3101:3104   */\n      0x00\n        /* \"#utility.yul\":3137:3141   */\n      0x60\n        /* \"#utility.yul\":3132:3135   */\n      dup4\n        /* \"#utility.yul\":3128:3142   */\n      add\n        /* \"#utility.yul\":3224:3228   */\n      0x00\n        /* \"#utility.yul\":3217:3222   */\n      dup4\n        /* \"#utility.yul\":3213:3229   */\n      add\n        /* \"#utility.yul\":3207:3230   */\n      mload\n        /* \"#utility.yul\":3277:3280   */\n      dup5\n        /* \"#utility.yul\":3271:3275   */\n      dup3\n        /* \"#utility.yul\":3267:3281   */\n      sub\n        /* \"#utility.yul\":3260:3264   */\n      0x00\n        /* \"#utility.yul\":3255:3258   */\n      dup7\n        /* \"#utility.yul\":3251:3265   */\n      add\n        /* \"#utility.yul\":3244:3282   */\n      mstore\n        /* \"#utility.yul\":3303:3376   */\n      tag_128\n        /* \"#utility.yul\":3371:3375   */\n      dup3\n        /* \"#utility.yul\":3357:3369   */\n      dup3\n        /* \"#utility.yul\":3303:3376   */\n      tag_62\n      jump\t// in\n    tag_128:\n        /* \"#utility.yul\":3295:3376   */\n      swap2\n      pop\n        /* \"#utility.yul\":3152:3387   */\n      pop\n        /* \"#utility.yul\":3469:3473   */\n      0x20\n        /* \"#utility.yul\":3462:3467   */\n      dup4\n        /* \"#utility.yul\":3458:3474   */\n      add\n        /* \"#utility.yul\":3452:3475   */\n      mload\n        /* \"#utility.yul\":3488:3551   */\n      tag_129\n        /* \"#utility.yul\":3545:3549   */\n      0x20\n        /* \"#utility.yul\":3540:3543   */\n      dup7\n        /* \"#utility.yul\":3536:3550   */\n      add\n        /* \"#utility.yul\":3522:3534   */\n      dup3\n        /* \"#utility.yul\":3488:3551   */\n      tag_63\n      jump\t// in\n    tag_129:\n        /* \"#utility.yul\":3397:3561   */\n      pop\n        /* \"#utility.yul\":3643:3647   */\n      0x40\n        /* \"#utility.yul\":3636:3641   */\n      dup4\n        /* \"#utility.yul\":3632:3648   */\n      add\n        /* \"#utility.yul\":3626:3649   */\n      mload\n        /* \"#utility.yul\":3662:3719   */\n      tag_130\n        /* \"#utility.yul\":3713:3717   */\n      0x40\n        /* \"#utility.yul\":3708:3711   */\n      dup7\n        /* \"#utility.yul\":3704:3718   */\n      add\n        /* \"#utility.yul\":3690:3702   */\n      dup3\n        /* \"#utility.yul\":3662:3719   */\n      tag_64\n      jump\t// in\n    tag_130:\n        /* \"#utility.yul\":3571:3729   */\n      pop\n        /* \"#utility.yul\":3746:3750   */\n      dup1\n        /* \"#utility.yul\":3739:3750   */\n      swap2\n      pop\n        /* \"#utility.yul\":3106:3756   */\n      pop\n        /* \"#utility.yul\":2988:3756   */\n      swap3\n      swap2\n      pop\n      pop\n      jump\t// out\n        /* \"#utility.yul\":3762:4123   */\n    tag_19:\n        /* \"#utility.yul\":3899:3903   */\n      0x00\n        /* \"#utility.yul\":3937:3939   */\n      0x20\n        /* \"#utility.yul\":3926:3935   */\n      dup3\n        /* \"#utility.yul\":3922:3940   */\n      add\n        /* \"#utility.yul\":3914:3940   */\n      swap1\n      pop\n        /* \"#utility.yul\":3986:3995   */\n      dup2\n        /* \"#utility.yul\":3980:3984   */\n      dup2\n        /* \"#utility.yul\":3976:3996   */\n      sub\n        /* \"#utility.yul\":3972:3973   */\n      0x00\n        /* \"#utility.yul\":3961:3970   */\n      dup4\n        /* \"#utility.yul\":3957:3974   */\n      add\n        /* \"#utility.yul\":3950:3997   */\n      mstore\n        /* \"#utility.yul\":4014:4116   */\n      tag_132\n        /* \"#utility.yul\":4111:4115   */\n      dup2\n        /* \"#utility.yul\":4102:4108   */\n      dup5\n        /* \"#utility.yul\":4014:4116   */\n      tag_65\n      jump\t// in\n    tag_132:\n        /* \"#utility.yul\":4006:4116   */\n      swap1\n      pop\n        /* \"#utility.yul\":3762:4123   */\n      swap3\n      swap2\n      pop\n      pop\n      jump\t// out\n        /* \"#utility.yul\":4129:4351   */\n    tag_23:\n        /* \"#utility.yul\":4222:4226   */\n      0x00\n        /* \"#utility.yul\":4260:4262   */\n      0x20\n        /* \"#utility.yul\":4249:4258   */\n      dup3\n        /* \"#utility.yul\":4245:4263   */\n      add\n        /* \"#utility.yul\":4237:4263   */\n      swap1\n      pop\n        /* \"#utility.yul\":4273:4344   */\n      tag_134\n        /* \"#utility.yul\":4341:4342   */\n      0x00\n        /* \"#utility.yul\":4330:4339   */\n      dup4\n        /* \"#utility.yul\":4326:4343   */\n      add\n        /* \"#utility.yul\":4317:4323   */\n      dup5\n        /* \"#utility.yul\":4273:4344   */\n      tag_58\n      jump\t// in\n    tag_134:\n        /* \"#utility.yul\":4129:4351   */\n      swap3\n      swap2\n      pop\n      pop\n      jump\t// out\n        /* \"#utility.yul\":4438:4555   */\n    tag_67:\n        /* \"#utility.yul\":4547:4548   */\n      0x00\n        /* \"#utility.yul\":4544:4545   */\n      dup1\n        /* \"#utility.yul\":4537:4549   */\n      revert\n        /* \"#utility.yul\":4561:4678   */\n    tag_68:\n        /* \"#utility.yul\":4670:4671   */\n      0x00\n        /* \"#utility.yul\":4667:4668   */\n      dup1\n        /* \"#utility.yul\":4660:4672   */\n      revert\n        /* \"#utility.yul\":4684:4801   */\n    tag_69:\n        /* \"#utility.yul\":4793:4794   */\n      0x00\n        /* \"#utility.yul\":4790:4791   */\n      dup1\n        /* \"#utility.yul\":4783:4795   */\n      revert\n        /* \"#utility.yul\":4807:4924   */\n    tag_70:\n        /* \"#utility.yul\":4916:4917   */\n      0x00\n        /* \"#utility.yul\":4913:4914   */\n      dup1\n        /* \"#utility.yul\":4906:4918   */\n      revert\n        /* \"#utility.yul\":4930:5047   */\n    tag_71:\n        /* \"#utility.yul\":5039:5040   */\n      0x00\n        /* \"#utility.yul\":5036:5037   */\n      dup1\n        /* \"#utility.yul\":5029:5041   */\n      revert\n        /* \"#utility.yul\":5067:5620   */\n    tag_72:\n        /* \"#utility.yul\":5125:5133   */\n      0x00\n        /* \"#utility.yul\":5135:5141   */\n      dup1\n        /* \"#utility.yul\":5185:5188   */\n      dup4\n        /* \"#utility.yul\":5178:5182   */\n      0x1f\n        /* \"#utility.yul\":5170:5176   */\n      dup5\n        /* \"#utility.yul\":5166:5183   */\n      add\n        /* \"#utility.yul\":5162:5189   */\n      slt\n        /* \"#utility.yul\":5152:5274   */\n      tag_142\n      jumpi\n        /* \"#utility.yul\":5193:5272   */\n      tag_143\n      tag_69\n      jump\t// in\n    tag_143:\n        /* \"#utility.yul\":5152:5274   */\n    tag_142:\n        /* \"#utility.yul\":5306:5312   */\n      dup3\n        /* \"#utility.yul\":5293:5313   */\n      calldataload\n        /* \"#utility.yul\":5283:5313   */\n      swap1\n      pop\n        /* \"#utility.yul\":5336:5354   */\n      0xffffffffffffffff\n        /* \"#utility.yul\":5328:5334   */\n      dup2\n        /* \"#utility.yul\":5325:5355   */\n      gt\n        /* \"#utility.yul\":5322:5439   */\n      iszero\n      tag_144\n      jumpi\n        /* \"#utility.yul\":5358:5437   */\n      tag_145\n      tag_70\n      jump\t// in\n    tag_145:\n        /* \"#utility.yul\":5322:5439   */\n    tag_144:\n        /* \"#utility.yul\":5472:5476   */\n      0x20\n        /* \"#utility.yul\":5464:5470   */\n      dup4\n        /* \"#utility.yul\":5460:5477   */\n      add\n        /* \"#utility.yul\":5448:5477   */\n      swap2\n      pop\n        /* \"#utility.yul\":5526:5529   */\n      dup4\n        /* \"#utility.yul\":5518:5522   */\n      0x01\n        /* \"#utility.yul\":5510:5516   */\n      dup3\n        /* \"#utility.yul\":5506:5523   */\n      mul\n        /* \"#utility.yul\":5496:5504   */\n      dup4\n        /* \"#utility.yul\":5492:5524   */\n      add\n        /* \"#utility.yul\":5489:5530   */\n      gt\n        /* \"#utility.yul\":5486:5614   */\n      iszero\n      tag_146\n      jumpi\n        /* \"#utility.yul\":5533:5612   */\n      tag_147\n      tag_71\n      jump\t// in\n    tag_147:\n        /* \"#utility.yul\":5486:5614   */\n    tag_146:\n        /* \"#utility.yul\":5067:5620   */\n      swap3\n      pop\n      swap3\n      swap1\n      pop\n      jump\t// out\n        /* \"#utility.yul\":5626:5748   */\n    tag_73:\n        /* \"#utility.yul\":5699:5723   */\n      tag_149\n        /* \"#utility.yul\":5717:5722   */\n      dup2\n        /* \"#utility.yul\":5699:5723   */\n      tag_57\n      jump\t// in\n    tag_149:\n        /* \"#utility.yul\":5692:5697   */\n      dup2\n        /* \"#utility.yul\":5689:5724   */\n      eq\n        /* \"#utility.yul\":5679:5742   */\n      tag_150\n      jumpi\n        /* \"#utility.yul\":5738:5739   */\n      0x00\n        /* \"#utility.yul\":5735:5736   */\n      dup1\n        /* \"#utility.yul\":5728:5740   */\n      revert\n        /* \"#utility.yul\":5679:5742   */\n    tag_150:\n        /* \"#utility.yul\":5626:5748   */\n      pop\n      jump\t// out\n        /* \"#utility.yul\":5754:5893   */\n    tag_74:\n        /* \"#utility.yul\":5800:5805   */\n      0x00\n        /* \"#utility.yul\":5838:5844   */\n      dup2\n        /* \"#utility.yul\":5825:5845   */\n      calldataload\n        /* \"#utility.yul\":5816:5845   */\n      swap1\n      pop\n        /* \"#utility.yul\":5854:5887   */\n      tag_152\n        /* \"#utility.yul\":5881:5886   */\n      dup2\n        /* \"#utility.yul\":5854:5887   */\n      tag_73\n      jump\t// in\n    tag_152:\n        /* \"#utility.yul\":5754:5893   */\n      swap3\n      swap2\n      pop\n      pop\n      jump\t// out\n        /* \"#utility.yul\":5899:6015   */\n    tag_75:\n        /* \"#utility.yul\":5969:5990   */\n      tag_154\n        /* \"#utility.yul\":5984:5989   */\n      dup2\n        /* \"#utility.yul\":5969:5990   */\n      tag_59\n      jump\t// in\n    tag_154:\n        /* \"#utility.yul\":5962:5967   */\n      dup2\n        /* \"#utility.yul\":5959:5991   */\n      eq\n        /* \"#utility.yul\":5949:6009   */\n      tag_155\n      jumpi\n        /* \"#utility.yul\":6005:6006   */\n      0x00\n        /* \"#utility.yul\":6002:6003   */\n      dup1\n        /* \"#utility.yul\":5995:6007   */\n      revert\n        /* \"#utility.yul\":5949:6009   */\n    tag_155:\n        /* \"#utility.yul\":5899:6015   */\n      pop\n      jump\t// out\n        /* \"#utility.yul\":6021:6154   */\n    tag_76:\n        /* \"#utility.yul\":6064:6069   */\n      0x00\n        /* \"#utility.yul\":6102:6108   */\n      dup2\n        /* \"#utility.yul\":6089:6109   */\n      calldataload\n        /* \"#utility.yul\":6080:6109   */\n      swap1\n      pop\n        /* \"#utility.yul\":6118:6148   */\n      tag_157\n        /* \"#utility.yul\":6142:6147   */\n      dup2\n        /* \"#utility.yul\":6118:6148   */\n      tag_75\n      jump\t// in\n    tag_157:\n        /* \"#utility.yul\":6021:6154   */\n      swap3\n      swap2\n      pop\n      pop\n      jump\t// out\n        /* \"#utility.yul\":6160:6973   */\n    tag_26:\n        /* \"#utility.yul\":6246:6252   */\n      0x00\n        /* \"#utility.yul\":6254:6260   */\n      dup1\n        /* \"#utility.yul\":6262:6268   */\n      0x00\n        /* \"#utility.yul\":6270:6276   */\n      dup1\n        /* \"#utility.yul\":6319:6321   */\n      0x60\n        /* \"#utility.yul\":6307:6316   */\n      dup6\n        /* \"#utility.yul\":6298:6305   */\n      dup8\n        /* \"#utility.yul\":6294:6317   */\n      sub\n        /* \"#utility.yul\":6290:6322   */\n      slt\n        /* \"#utility.yul\":6287:6406   */\n      iszero\n      tag_159\n      jumpi\n        /* \"#utility.yul\":6325:6404   */\n      tag_160\n      tag_67\n      jump\t// in\n    tag_160:\n        /* \"#utility.yul\":6287:6406   */\n    tag_159:\n        /* \"#utility.yul\":6473:6474   */\n      0x00\n        /* \"#utility.yul\":6462:6471   */\n      dup6\n        /* \"#utility.yul\":6458:6475   */\n      add\n        /* \"#utility.yul\":6445:6476   */\n      calldataload\n        /* \"#utility.yul\":6503:6521   */\n      0xffffffffffffffff\n        /* \"#utility.yul\":6495:6501   */\n      dup2\n        /* \"#utility.yul\":6492:6522   */\n      gt\n        /* \"#utility.yul\":6489:6606   */\n      iszero\n      tag_161\n      jumpi\n        /* \"#utility.yul\":6525:6604   */\n      tag_162\n      tag_68\n      jump\t// in\n    tag_162:\n        /* \"#utility.yul\":6489:6606   */\n    tag_161:\n        /* \"#utility.yul\":6638:6703   */\n      tag_163\n        /* \"#utility.yul\":6695:6702   */\n      dup8\n        /* \"#utility.yul\":6686:6692   */\n      dup3\n        /* \"#utility.yul\":6675:6684   */\n      dup9\n        /* \"#utility.yul\":6671:6693   */\n      add\n        /* \"#utility.yul\":6638:6703   */\n      tag_72\n      jump\t// in\n    tag_163:\n        /* \"#utility.yul\":6620:6703   */\n      swap5\n      pop\n      swap5\n      pop\n        /* \"#utility.yul\":6416:6713   */\n      pop\n        /* \"#utility.yul\":6752:6754   */\n      0x20\n        /* \"#utility.yul\":6778:6831   */\n      tag_164\n        /* \"#utility.yul\":6823:6830   */\n      dup8\n        /* \"#utility.yul\":6814:6820   */\n      dup3\n        /* \"#utility.yul\":6803:6812   */\n      dup9\n        /* \"#utility.yul\":6799:6821   */\n      add\n        /* \"#utility.yul\":6778:6831   */\n      tag_74\n      jump\t// in\n    tag_164:\n        /* \"#utility.yul\":6768:6831   */\n      swap3\n      pop\n        /* \"#utility.yul\":6723:6841   */\n      pop\n        /* \"#utility.yul\":6880:6882   */\n      0x40\n        /* \"#utility.yul\":6906:6956   */\n      tag_165\n        /* \"#utility.yul\":6948:6955   */\n      dup8\n        /* \"#utility.yul\":6939:6945   */\n      dup3\n        /* \"#utility.yul\":6928:6937   */\n      dup9\n        /* \"#utility.yul\":6924:6946   */\n      add\n        /* \"#utility.yul\":6906:6956   */\n      tag_76\n      jump\t// in\n    tag_165:\n        /* \"#utility.yul\":6896:6956   */\n      swap2\n      pop\n        /* \"#utility.yul\":6851:6966   */\n      pop\n        /* \"#utility.yul\":6160:6973   */\n      swap3\n      swap6\n      swap2\n      swap5\n      pop\n      swap3\n      pop\n      jump\t// out\n        /* \"#utility.yul\":6979:7159   */\n    tag_77:\n        /* \"#utility.yul\":7027:7104   */\n      0x4e487b7100000000000000000000000000000000000000000000000000000000\n        /* \"#utility.yul\":7024:7025   */\n      0x00\n        /* \"#utility.yul\":7017:7105   */\n      mstore\n        /* \"#utility.yul\":7124:7128   */\n      0x22\n        /* \"#utility.yul\":7121:7122   */\n      0x04\n        /* \"#utility.yul\":7114:7129   */\n      mstore\n        /* \"#utility.yul\":7148:7152   */\n      0x24\n        /* \"#utility.yul\":7145:7146   */\n      0x00\n        /* \"#utility.yul\":7138:7153   */\n      revert\n        /* \"#utility.yul\":7165:7485   */\n    tag_30:\n        /* \"#utility.yul\":7209:7215   */\n      0x00\n        /* \"#utility.yul\":7246:7247   */\n      0x02\n        /* \"#utility.yul\":7240:7244   */\n      dup3\n        /* \"#utility.yul\":7236:7248   */\n      div\n        /* \"#utility.yul\":7226:7248   */\n      swap1\n      pop\n        /* \"#utility.yul\":7293:7294   */\n      0x01\n        /* \"#utility.yul\":7287:7291   */\n      dup3\n        /* \"#utility.yul\":7283:7295   */\n      and\n        /* \"#utility.yul\":7314:7332   */\n      dup1\n        /* \"#utility.yul\":7304:7385   */\n      tag_168\n      jumpi\n        /* \"#utility.yul\":7370:7374   */\n      0x7f\n        /* \"#utility.yul\":7362:7368   */\n      dup3\n        /* \"#utility.yul\":7358:7375   */\n      and\n        /* \"#utility.yul\":7348:7375   */\n      swap2\n      pop\n        /* \"#utility.yul\":7304:7385   */\n    tag_168:\n        /* \"#utility.yul\":7432:7434   */\n      0x20\n        /* \"#utility.yul\":7424:7430   */\n      dup3\n        /* \"#utility.yul\":7421:7435   */\n      lt\n        /* \"#utility.yul\":7401:7419   */\n      dup2\n        /* \"#utility.yul\":7398:7436   */\n      sub\n        /* \"#utility.yul\":7395:7479   */\n      tag_169\n      jumpi\n        /* \"#utility.yul\":7451:7469   */\n      tag_170\n      tag_77\n      jump\t// in\n    tag_170:\n        /* \"#utility.yul\":7395:7479   */\n    tag_169:\n        /* \"#utility.yul\":7216:7485   */\n      pop\n        /* \"#utility.yul\":7165:7485   */\n      swap2\n      swap1\n      pop\n      jump\t// out\n        /* \"#utility.yul\":7491:7588   */\n    tag_78:\n        /* \"#utility.yul\":7550:7556   */\n      0x00\n        /* \"#utility.yul\":7578:7581   */\n      dup3\n        /* \"#utility.yul\":7568:7581   */\n      swap1\n      pop\n        /* \"#utility.yul\":7491:7588   */\n      swap3\n      swap2\n      pop\n      pop\n      jump\t// out\n        /* \"#utility.yul\":7594:7774   */\n    tag_79:\n        /* \"#utility.yul\":7642:7719   */\n      0x4e487b7100000000000000000000000000000000000000000000000000000000\n        /* \"#utility.yul\":7639:7640   */\n      0x00\n        /* \"#utility.yul\":7632:7720   */\n      mstore\n        /* \"#utility.yul\":7739:7743   */\n      0x41\n        /* \"#utility.yul\":7736:7737   */\n      0x04\n        /* \"#utility.yul\":7729:7744   */\n      mstore\n        /* \"#utility.yul\":7763:7767   */\n      0x24\n        /* \"#utility.yul\":7760:7761   */\n      0x00\n        /* \"#utility.yul\":7753:7768   */\n      revert\n        /* \"#utility.yul\":7780:7921   */\n    tag_80:\n        /* \"#utility.yul\":7829:7833   */\n      0x00\n        /* \"#utility.yul\":7852:7855   */\n      dup2\n        /* \"#utility.yul\":7844:7855   */\n      swap1\n      pop\n        /* \"#utility.yul\":7875:7878   */\n      dup2\n        /* \"#utility.yul\":7872:7873   */\n      0x00\n        /* \"#utility.yul\":7865:7879   */\n      mstore\n        /* \"#utility.yul\":7909:7913   */\n      0x20\n        /* \"#utility.yul\":7906:7907   */\n      0x00\n        /* \"#utility.yul\":7896:7914   */\n      keccak256\n        /* \"#utility.yul\":7888:7914   */\n      swap1\n      pop\n        /* \"#utility.yul\":7780:7921   */\n      swap2\n      swap1\n      pop\n      jump\t// out\n        /* \"#utility.yul\":7927:8020   */\n    tag_81:\n        /* \"#utility.yul\":7964:7970   */\n      0x00\n        /* \"#utility.yul\":8011:8013   */\n      0x20\n        /* \"#utility.yul\":8006:8008   */\n      0x1f\n        /* \"#utility.yul\":7999:8004   */\n      dup4\n        /* \"#utility.yul\":7995:8009   */\n      add\n        /* \"#utility.yul\":7991:8014   */\n      div\n        /* \"#utility.yul\":7981:8014   */\n      swap1\n      pop\n        /* \"#utility.yul\":7927:8020   */\n      swap2\n      swap1\n      pop\n      jump\t// out\n        /* \"#utility.yul\":8026:8133   */\n    tag_82:\n        /* \"#utility.yul\":8070:8078   */\n      0x00\n        /* \"#utility.yul\":8120:8125   */\n      dup3\n        /* \"#utility.yul\":8114:8118   */\n      dup3\n        /* \"#utility.yul\":8110:8126   */\n      shl\n        /* \"#utility.yul\":8089:8126   */\n      swap1\n      pop\n        /* \"#utility.yul\":8026:8133   */\n      swap3\n      swap2\n      pop\n      pop\n      jump\t// out\n        /* \"#utility.yul\":8139:8532   */\n    tag_83:\n        /* \"#utility.yul\":8208:8214   */\n      0x00\n        /* \"#utility.yul\":8258:8259   */\n      0x08\n        /* \"#utility.yul\":8246:8256   */\n      dup4\n        /* \"#utility.yul\":8242:8260   */\n      mul\n        /* \"#utility.yul\":8281:8378   */\n      tag_177\n        /* \"#utility.yul\":8311:8377   */\n      0xffffffffffffffffffffffffffffffffffffffffffffffffffffffffffffffff\n        /* \"#utility.yul\":8300:8309   */\n      dup3\n        /* \"#utility.yul\":8281:8378   */\n      tag_82\n      jump\t// in\n    tag_177:\n        /* \"#utility.yul\":8399:8438   */\n      tag_178\n        /* \"#utility.yul\":8429:8437   */\n      dup7\n        /* \"#utility.yul\":8418:8427   */\n      dup4\n        /* \"#utility.yul\":8399:8438   */\n      tag_82\n      jump\t// in\n    tag_178:\n        /* \"#utility.yul\":8387:8438   */\n      swap6\n      pop\n        /* \"#utility.yul\":8471:8475   */\n      dup1\n        /* \"#utility.yul\":8467:8476   */\n      not\n        /* \"#utility.yul\":8460:8465   */\n      dup5\n        /* \"#utility.yul\":8456:8477   */\n      and\n        /* \"#utility.yul\":8447:8477   */\n      swap4\n      pop\n        /* \"#utility.yul\":8520:8524   */\n      dup1\n        /* \"#utility.yul\":8510:8518   */\n      dup7\n        /* \"#utility.yul\":8506:8525   */\n      and\n        /* \"#utility.yul\":8499:8504   */\n      dup5\n        /* \"#utility.yul\":8496:8526   */\n      or\n        /* \"#utility.yul\":8486:8526   */\n      swap3\n      pop\n        /* \"#utility.yul\":8215:8532   */\n      pop\n      pop\n        /* \"#utility.yul\":8139:8532   */\n      swap4\n      swap3\n      pop\n      pop\n      pop\n      jump\t// out\n        /* \"#utility.yul\":8538:8598   */\n    tag_84:\n        /* \"#utility.yul\":8566:8569   */\n      0x00\n        /* \"#utility.yul\":8587:8592   */\n      dup2\n        /* \"#utility.yul\":8580:8592   */\n      swap1\n      pop\n        /* \"#utility.yul\":8538:8598   */\n      swap2\n      swap1\n      pop\n      jump\t// out\n        /* \"#utility.yul\":8604:8746   */\n    tag_85:\n        /* \"#utility.yul\":8654:8663   */\n      0x00\n        /* \"#utility.yul\":8687:8740   */\n      tag_181\n        /* \"#utility.yul\":8705:8739   */\n      tag_182\n        /* \"#utility.yul\":8714:8738   */\n      tag_183\n        /* \"#utility.yul\":8732:8737   */\n      dup5\n        /* \"#utility.yul\":8714:8738   */\n      tag_57\n      jump\t// in\n    tag_183:\n        /* \"#utility.yul\":8705:8739   */\n      tag_84\n      jump\t// in\n    tag_182:\n        /* \"#utility.yul\":8687:8740   */\n      tag_57\n      jump\t// in\n    tag_181:\n        /* \"#utility.yul\":8674:8740   */\n      swap1\n      pop\n        /* \"#utility.yul\":8604:8746   */\n      swap2\n      swap1\n      pop\n      jump\t// out\n        /* \"#utility.yul\":8752:8827   */\n    tag_86:\n        /* \"#utility.yul\":8795:8798   */\n      0x00\n        /* \"#utility.yul\":8816:8821   */\n      dup2\n        /* \"#utility.yul\":8809:8821   */\n      swap1\n      pop\n        /* \"#utility.yul\":8752:8827   */\n      swap2\n      swap1\n      pop\n      jump\t// out\n        /* \"#utility.yul\":8833:9102   */\n    tag_87:\n        /* \"#utility.yul\":8943:8982   */\n      tag_186\n        /* \"#utility.yul\":8974:8981   */\n      dup4\n        /* \"#utility.yul\":8943:8982   */\n      tag_85\n      jump\t// in\n    tag_186:\n        /* \"#utility.yul\":9004:9095   */\n      tag_187\n        /* \"#utility.yul\":9053:9094   */\n      tag_188\n        /* \"#utility.yul\":9077:9093   */\n      dup3\n        /* \"#utility.yul\":9053:9094   */\n      tag_86\n      jump\t// in\n    tag_188:\n        /* \"#utility.yul\":9045:9051   */\n      dup5\n        /* \"#utility.yul\":9038:9042   */\n      dup5\n        /* \"#utility.yul\":9032:9043   */\n      sload\n        /* \"#utility.yul\":9004:9095   */\n      tag_83\n      jump\t// in\n    tag_187:\n        /* \"#utility.yul\":8998:9002   */\n      dup3\n        /* \"#utility.yul\":8991:9096   */\n      sstore\n        /* \"#utility.yul\":8909:9102   */\n      pop\n        /* \"#utility.yul\":8833:9102   */\n      pop\n      pop\n      pop\n      jump\t// out\n        /* \"#utility.yul\":9108:9181   */\n    tag_88:\n        /* \"#utility.yul\":9153:9156   */\n      0x00\n        /* \"#utility.yul\":9108:9181   */\n      swap1\n      jump\t// out\n        /* \"#utility.yul\":9187:9376   */\n    tag_89:\n        /* \"#utility.yul\":9264:9296   */\n      tag_191\n      tag_88\n      jump\t// in\n    tag_191:\n        /* \"#utility.yul\":9305:9370   */\n      tag_192\n        /* \"#utility.yul\":9363:9369   */\n      dup2\n        /* \"#utility.yul\":9355:9361   */\n      dup5\n        /* \"#utility.yul\":9349:9353   */\n      dup5\n        /* \"#utility.yul\":9305:9370   */\n      tag_87\n      jump\t// in\n    tag_192:\n        /* \"#utility.yul\":9240:9376   */\n      pop\n        /* \"#utility.yul\":9187:9376   */\n      pop\n      pop\n      jump\t// out\n        /* \"#utility.yul\":9382:9568   */\n    tag_90:\n        /* \"#utility.yul\":9442:9562   */\n    tag_194:\n        /* \"#utility.yul\":9459:9462   */\n      dup2\n        /* \"#utility.yul\":9452:9457   */\n      dup2\n        /* \"#utility.yul\":9449:9463   */\n      lt\n        /* \"#utility.yul\":9442:9562   */\n      iszero\n      tag_196\n      jumpi\n        /* \"#utility.yul\":9513:9552   */\n      tag_197\n        /* \"#utility.yul\":9550:9551   */\n      0x00\n        /* \"#utility.yul\":9543:9548   */\n      dup3\n        /* \"#utility.yul\":9513:9552   */\n      tag_89\n      jump\t// in\n    tag_197:\n        /* \"#utility.yul\":9486:9487   */\n      0x01\n        /* \"#utility.yul\":9479:9484   */\n      dup2\n        /* \"#utility.yul\":9475:9488   */\n      add\n        /* \"#utility.yul\":9466:9488   */\n      swap1\n      pop\n        /* \"#utility.yul\":9442:9562   */\n      jump(tag_194)\n    tag_196:\n        /* \"#utility.yul\":9382:9568   */\n      pop\n      pop\n      jump\t// out\n        /* \"#utility.yul\":9574:10117   */\n    tag_91:\n        /* \"#utility.yul\":9675:9677   */\n      0x1f\n        /* \"#utility.yul\":9670:9673   */\n      dup3\n        /* \"#utility.yul\":9667:9678   */\n      gt\n        /* \"#utility.yul\":9664:10110   */\n      iszero\n      tag_199\n      jumpi\n        /* \"#utility.yul\":9709:9747   */\n      tag_200\n        /* \"#utility.yul\":9741:9746   */\n      dup2\n        /* \"#utility.yul\":9709:9747   */\n      tag_80\n      jump\t// in\n    tag_200:\n        /* \"#utility.yul\":9793:9822   */\n      tag_201\n        /* \"#utility.yul\":9811:9821   */\n      dup5\n        /* \"#utility.yul\":9793:9822   */\n      tag_81\n      jump\t// in\n    tag_201:\n        /* \"#utility.yul\":9783:9791   */\n      dup2\n        /* \"#utility.yul\":9779:9823   */\n      add\n        /* \"#utility.yul\":9976:9978   */\n      0x20\n        /* \"#utility.yul\":9964:9974   */\n      dup6\n        /* \"#utility.yul\":9961:9979   */\n      lt\n        /* \"#utility.yul\":9958:10007   */\n      iszero\n      tag_202\n      jumpi\n        /* \"#utility.yul\":9997:10005   */\n      dup2\n        /* \"#utility.yul\":9982:10005   */\n      swap1\n      pop\n        /* \"#utility.yul\":9958:10007   */\n    tag_202:\n        /* \"#utility.yul\":10020:10100   */\n      tag_203\n        /* \"#utility.yul\":10076:10098   */\n      tag_204\n        /* \"#utility.yul\":10094:10097   */\n      dup6\n        /* \"#utility.yul\":10076:10098   */\n      tag_81\n      jump\t// in\n    tag_204:\n        /* \"#utility.yul\":10066:10074   */\n      dup4\n        /* \"#utility.yul\":10062:10099   */\n      add\n        /* \"#utility.yul\":10049:10060   */\n      dup3\n        /* \"#utility.yul\":10020:10100   */\n      tag_90\n      jump\t// in\n    tag_203:\n        /* \"#utility.yul\":9679:10110   */\n      pop\n      pop\n        /* \"#utility.yul\":9664:10110   */\n    tag_199:\n        /* \"#utility.yul\":9574:10117   */\n      pop\n      pop\n      pop\n      jump\t// out\n        /* \"#utility.yul\":10123:10240   */\n    tag_92:\n        /* \"#utility.yul\":10177:10185   */\n      0x00\n        /* \"#utility.yul\":10227:10232   */\n      dup3\n        /* \"#utility.yul\":10221:10225   */\n      dup3\n        /* \"#utility.yul\":10217:10233   */\n      shr\n        /* \"#utility.yul\":10196:10233   */\n      swap1\n      pop\n        /* \"#utility.yul\":10123:10240   */\n      swap3\n      swap2\n      pop\n      pop\n      jump\t// out\n        /* \"#utility.yul\":10246:10415   */\n    tag_93:\n        /* \"#utility.yul\":10290:10296   */\n      0x00\n        /* \"#utility.yul\":10323:10374   */\n      tag_207\n        /* \"#utility.yul\":10371:10372   */\n      0x00\n        /* \"#utility.yul\":10367:10373   */\n      not\n        /* \"#utility.yul\":10359:10364   */\n      dup5\n        /* \"#utility.yul\":10356:10357   */\n      0x08\n        /* \"#utility.yul\":10352:10365   */\n      mul\n        /* \"#utility.yul\":10323:10374   */\n      tag_92\n      jump\t// in\n    tag_207:\n        /* \"#utility.yul\":10319:10375   */\n      not\n        /* \"#utility.yul\":10404:10408   */\n      dup1\n        /* \"#utility.yul\":10398:10402   */\n      dup4\n        /* \"#utility.yul\":10394:10409   */\n      and\n        /* \"#utility.yul\":10384:10409   */\n      swap2\n      pop\n        /* \"#utility.yul\":10297:10415   */\n      pop\n        /* \"#utility.yul\":10246:10415   */\n      swap3\n      swap2\n      pop\n      pop\n      jump\t// out\n        /* \"#utility.yul\":10420:10715   */\n    tag_94:\n        /* \"#utility.yul\":10496:10500   */\n      0x00\n        /* \"#utility.yul\":10642:10671   */\n      tag_209\n        /* \"#utility.yul\":10667:10670   */\n      dup4\n        /* \"#utility.yul\":10661:10665   */\n      dup4\n        /* \"#utility.yul\":10642:10671   */\n      tag_93\n      jump\t// in\n    tag_209:\n        /* \"#utility.yul\":10634:10671   */\n      swap2\n      pop\n        /* \"#utility.yul\":10704:10707   */\n      dup3\n        /* \"#utility.yul\":10701:10702   */\n      0x02\n        /* \"#utility.yul\":10697:10708   */\n      mul\n        /* \"#utility.yul\":10691:10695   */\n      dup3\n        /* \"#utility.yul\":10688:10709   */\n      or\n        /* \"#utility.yul\":10680:10709   */\n      swap1\n      pop\n        /* \"#utility.yul\":10420:10715   */\n      swap3\n      swap2\n      pop\n      pop\n      jump\t// out\n        /* \"#utility.yul\":10720:12123   */\n    tag_51:\n        /* \"#utility.yul\":10844:10888   */\n      tag_211\n        /* \"#utility.yul\":10884:10887   */\n      dup4\n        /* \"#utility.yul\":10879:10882   */\n      dup4\n        /* \"#utility.yul\":10844:10888   */\n      tag_78\n      jump\t// in\n    tag_211:\n        /* \"#utility.yul\":10953:10971   */\n      0xffffffffffffffff\n        /* \"#utility.yul\":10945:10951   */\n      dup2\n        /* \"#utility.yul\":10942:10972   */\n      gt\n        /* \"#utility.yul\":10939:10995   */\n      iszero\n      tag_212\n      jumpi\n        /* \"#utility.yul\":10975:10993   */\n      tag_213\n      tag_79\n      jump\t// in\n    tag_213:\n        /* \"#utility.yul\":10939:10995   */\n    tag_212:\n        /* \"#utility.yul\":11019:11057   */\n      tag_214\n        /* \"#utility.yul\":11051:11055   */\n      dup3\n        /* \"#utility.yul\":11045:11056   */\n      sload\n        /* \"#utility.yul\":11019:11057   */\n      tag_30\n      jump\t// in\n    tag_214:\n        /* \"#utility.yul\":11104:11171   */\n      tag_215\n        /* \"#utility.yul\":11164:11170   */\n      dup3\n        /* \"#utility.yul\":11156:11162   */\n      dup3\n        /* \"#utility.yul\":11150:11154   */\n      dup6\n        /* \"#utility.yul\":11104:11171   */\n      tag_91\n      jump\t// in\n    tag_215:\n        /* \"#utility.yul\":11198:11199   */\n      0x00\n        /* \"#utility.yul\":11227:11229   */\n      0x1f\n        /* \"#utility.yul\":11219:11225   */\n      dup4\n        /* \"#utility.yul\":11216:11230   */\n      gt\n        /* \"#utility.yul\":11244:11245   */\n      0x01\n        /* \"#utility.yul\":11239:11871   */\n      dup2\n      eq\n      tag_217\n      jumpi\n        /* \"#utility.yul\":11915:11916   */\n      0x00\n        /* \"#utility.yul\":11932:11938   */\n      dup5\n        /* \"#utility.yul\":11929:12013   */\n      iszero\n      tag_218\n      jumpi\n        /* \"#utility.yul\":11988:11997   */\n      dup3\n        /* \"#utility.yul\":11983:11986   */\n      dup8\n        /* \"#utility.yul\":11979:11998   */\n      add\n        /* \"#utility.yul\":11966:11999   */\n      calldataload\n        /* \"#utility.yul\":11957:11999   */\n      swap1\n      pop\n        /* \"#utility.yul\":11929:12013   */\n    tag_218:\n        /* \"#utility.yul\":12039:12106   */\n      tag_219\n        /* \"#utility.yul\":12099:12105   */\n      dup6\n        /* \"#utility.yul\":12092:12097   */\n      dup3\n        /* \"#utility.yul\":12039:12106   */\n      tag_94\n      jump\t// in\n    tag_219:\n        /* \"#utility.yul\":12033:12037   */\n      dup7\n        /* \"#utility.yul\":12026:12107   */\n      sstore\n        /* \"#utility.yul\":11888:12117   */\n      pop\n        /* \"#utility.yul\":11209:12117   */\n      jump(tag_216)\n        /* \"#utility.yul\":11239:11871   */\n    tag_217:\n        /* \"#utility.yul\":11291:11295   */\n      0x1f\n        /* \"#utility.yul\":11287:11296   */\n      not\n        /* \"#utility.yul\":11279:11285   */\n      dup5\n        /* \"#utility.yul\":11275:11297   */\n      and\n        /* \"#utility.yul\":11325:11362   */\n      tag_220\n        /* \"#utility.yul\":11357:11361   */\n      dup7\n        /* \"#utility.yul\":11325:11362   */\n      tag_80\n      jump\t// in\n    tag_220:\n        /* \"#utility.yul\":11384:11385   */\n      0x00\n        /* \"#utility.yul\":11398:11613   */\n    tag_221:\n        /* \"#utility.yul\":11412:11419   */\n      dup3\n        /* \"#utility.yul\":11409:11410   */\n      dup2\n        /* \"#utility.yul\":11406:11420   */\n      lt\n        /* \"#utility.yul\":11398:11613   */\n      iszero\n      tag_223\n      jumpi\n        /* \"#utility.yul\":11498:11507   */\n      dup5\n        /* \"#utility.yul\":11493:11496   */\n      dup10\n        /* \"#utility.yul\":11489:11508   */\n      add\n        /* \"#utility.yul\":11476:11509   */\n      calldataload\n        /* \"#utility.yul\":11468:11474   */\n      dup3\n        /* \"#utility.yul\":11461:11510   */\n      sstore\n        /* \"#utility.yul\":11549:11550   */\n      0x01\n        /* \"#utility.yul\":11541:11547   */\n      dup3\n        /* \"#utility.yul\":11537:11551   */\n      add\n        /* \"#utility.yul\":11527:11551   */\n      swap2\n      pop\n        /* \"#utility.yul\":11596:11598   */\n      0x20\n        /* \"#utility.yul\":11585:11594   */\n      dup6\n        /* \"#utility.yul\":11581:11599   */\n      add\n        /* \"#utility.yul\":11568:11599   */\n      swap5\n      pop\n        /* \"#utility.yul\":11435:11439   */\n      0x20\n        /* \"#utility.yul\":11432:11433   */\n      dup2\n        /* \"#utility.yul\":11428:11440   */\n      add\n        /* \"#utility.yul\":11423:11440   */\n      swap1\n      pop\n        /* \"#utility.yul\":11398:11613   */\n      jump(tag_221)\n    tag_223:\n        /* \"#utility.yul\":11641:11647   */\n      dup7\n        /* \"#utility.yul\":11632:11639   */\n      dup4\n        /* \"#utility.yul\":11629:11648   */\n      lt\n        /* \"#utility.yul\":11626:11812   */\n      iszero\n      tag_224\n      jumpi\n        /* \"#utility.yul\":11706:11715   */\n      dup5\n        /* \"#utility.yul\":11701:11704   */\n      dup10\n        /* \"#utility.yul\":11697:11716   */\n      add\n        /* \"#utility.yul\":11684:11717   */\n      calldataload\n        /* \"#utility.yul\":11749:11797   */\n      tag_225\n        /* \"#utility.yul\":11791:11795   */\n      0x1f\n        /* \"#utility.yul\":11783:11789   */\n      dup10\n        /* \"#utility.yul\":11779:11796   */\n      and\n        /* \"#utility.yul\":11768:11777   */\n      dup3\n        /* \"#utility.yul\":11749:11797   */\n      tag_93\n      jump\t// in\n    tag_225:\n        /* \"#utility.yul\":11741:11747   */\n      dup4\n        /* \"#utility.yul\":11734:11798   */\n      sstore\n        /* \"#utility.yul\":11649:11812   */\n      pop\n        /* \"#utility.yul\":11626:11812   */\n    tag_224:\n        /* \"#utility.yul\":11858:11859   */\n      0x01\n        /* \"#utility.yul\":11854:11855   */\n      0x02\n        /* \"#utility.yul\":11846:11852   */\n      dup9\n        /* \"#utility.yul\":11842:11856   */\n      mul\n        /* \"#utility.yul\":11838:11860   */\n      add\n        /* \"#utility.yul\":11832:11836   */\n      dup9\n        /* \"#utility.yul\":11825:11861   */\n      sstore\n        /* \"#utility.yul\":11246:11871   */\n      pop\n      pop\n      pop\n        /* \"#utility.yul\":11209:12117   */\n    tag_216:\n      pop\n        /* \"#utility.yul\":10819:12123   */\n      pop\n      pop\n      pop\n        /* \"#utility.yul\":10720:12123   */\n      pop\n      pop\n      pop\n      jump\t// out\n\n    auxdata: 0xa2646970667358221220281ea7b6f2508ebff39a70937d35ba23ddcdc168f5900162d6937d1034d6a0ab64736f6c634300081a0033\n}\n",
				"bytecode": {
					"linkReferences": {},
					"object": "6080604052348015600e575f80fd5b506109a98061001c5f395ff3fe608060405234801561000f575f80fd5b5060043610610055575f3560e01c806332ef371a146100595780636cc014de14610077578063993a04b714610097578063b923a9fc146100b5578063c30655a2146100d3575b5f80fd5b6100616100ef565b60405161006e91906103cd565b60405180910390f35b61007f610180565b60405161008e9392919061041f565b60405180910390f35b61009f610228565b6040516100ac919061050e565b60405180910390f35b6100bd6102f4565b6040516100ca919061052e565b60405180910390f35b6100ed60048036038101906100e89190610604565b6102ff565b005b60605f800180546100ff906106a2565b80601f016020809104026020016040519081016040528092919081815260200182805461012b906106a2565b80156101765780601f1061014d57610100808354040283529160200191610176565b820191905f5260205f20905b81548152906001019060200180831161015957829003601f168201915b5050505050905090565b5f805f01805461018f906106a2565b80601f01602080910402602001604051908101604052809291908181526020018280546101bb906106a2565b80156102065780601f106101dd57610100808354040283529160200191610206565b820191905f5260205f20905b8154815290600101906020018083116101e957829003601f168201915b505050505090806001015490806002015f9054906101000a900460ff16905083565b61023061033c565b5f6040518060600160405290815f8201805461024b906106a2565b80601f0160208091040260200160405190810160405280929190818152602001828054610277906106a2565b80156102c25780601f10610299576101008083540402835291602001916102c2565b820191905f5260205f20905b8154815290600101906020018083116102a557829003601f168201915b5050505050815260200160018201548152602001600282015f9054906101000a900460ff161515151581525050905090565b5f8060010154905090565b83835f800191826103119291906108a6565b50815f60010181905550805f6002015f6101000a81548160ff02191690831515021790555050505050565b6040518060600160405280606081526020015f81526020015f151581525090565b5f81519050919050565b5f82825260208201905092915050565b8281835e5f83830152505050565b5f601f19601f8301169050919050565b5f61039f8261035d565b6103a98185610367565b93506103b9818560208601610377565b6103c281610385565b840191505092915050565b5f6020820190508181035f8301526103e58184610395565b905092915050565b5f819050919050565b6103ff816103ed565b82525050565b5f8115159050919050565b61041981610405565b82525050565b5f6060820190508181035f8301526104378186610395565b905061044660208301856103f6565b6104536040830184610410565b949350505050565b5f82825260208201905092915050565b5f6104758261035d565b61047f818561045b565b935061048f818560208601610377565b61049881610385565b840191505092915050565b6104ac816103ed565b82525050565b6104bb81610405565b82525050565b5f606083015f8301518482035f8601526104db828261046b565b91505060208301516104f060208601826104a3565b50604083015161050360408601826104b2565b508091505092915050565b5f6020820190508181035f83015261052681846104c1565b905092915050565b5f6020820190506105415f8301846103f6565b92915050565b5f80fd5b5f80fd5b5f80fd5b5f80fd5b5f80fd5b5f8083601f8401126105705761056f61054f565b5b8235905067ffffffffffffffff81111561058d5761058c610553565b5b6020830191508360018202830111156105a9576105a8610557565b5b9250929050565b6105b9816103ed565b81146105c3575f80fd5b50565b5f813590506105d4816105b0565b92915050565b6105e381610405565b81146105ed575f80fd5b50565b5f813590506105fe816105da565b92915050565b5f805f806060858703121561061c5761061b610547565b5b5f85013567ffffffffffffffff8111156106395761063861054b565b5b6106458782880161055b565b94509450506020610658878288016105c6565b9250506040610669878288016105f0565b91505092959194509250565b7f4e487b71000000000000000000000000000000000000000000000000000000005f52602260045260245ffd5b5f60028204905060018216806106b957607f821691505b6020821081036106cc576106cb610675565b5b50919050565b5f82905092915050565b7f4e487b71000000000000000000000000000000000000000000000000000000005f52604160045260245ffd5b5f819050815f5260205f209050919050565b5f6020601f8301049050919050565b5f82821b905092915050565b5f600883026107657fffffffffffffffffffffffffffffffffffffffffffffffffffffffffffffffff8261072a565b61076f868361072a565b95508019841693508086168417925050509392505050565b5f819050919050565b5f6107aa6107a56107a0846103ed565b610787565b6103ed565b9050919050565b5f819050919050565b6107c383610790565b6107d76107cf826107b1565b848454610736565b825550505050565b5f90565b6107eb6107df565b6107f68184846107ba565b505050565b5b818110156108195761080e5f826107e3565b6001810190506107fc565b5050565b601f82111561085e5761082f81610709565b6108388461071b565b81016020851015610847578190505b61085b6108538561071b565b8301826107fb565b50505b505050565b5f82821c905092915050565b5f61087e5f1984600802610863565b1980831691505092915050565b5f610896838361086f565b9150826002028217905092915050565b6108b083836106d2565b67ffffffffffffffff8111156108c9576108c86106dc565b5b6108d382546106a2565b6108de82828561081d565b5f601f83116001811461090b575f84156108f9578287013590505b610903858261088b565b86555061096a565b601f19841661091986610709565b5f5b828110156109405784890135825560018201915060208501945060208101905061091b565b8683101561095d5784890135610959601f89168261086f565b8355505b6001600288020188555050505b5050505050505056fea2646970667358221220281ea7b6f2508ebff39a70937d35ba23ddcdc168f5900162d6937d1034d6a0ab64736f6c634300081a0033",
					"opcodes": "PUSH1 0x80 PUSH1 0x40 MSTORE CALLVALUE DUP1 ISZERO PUSH1 0xE JUMPI PUSH0 DUP1 REVERT JUMPDEST POP PUSH2 0x9A9 DUP1 PUSH2 0x1C PUSH0 CODECOPY PUSH0 RETURN INVALID PUSH1 0x80 PUSH1 0x40 MSTORE CALLVALUE DUP1 ISZERO PUSH2 0xF JUMPI PUSH0 DUP1 REVERT JUMPDEST POP PUSH1 0x4 CALLDATASIZE LT PUSH2 0x55 JUMPI PUSH0 CALLDATALOAD PUSH1 0xE0 SHR DUP1 PUSH4 0x32EF371A EQ PUSH2 0x59 JUMPI DUP1 PUSH4 0x6CC014DE EQ PUSH2 0x77 JUMPI DUP1 PUSH4 0x993A04B7 EQ PUSH2 0x97 JUMPI DUP1 PUSH4 0xB923A9FC EQ PUSH2 0xB5 JUMPI DUP1 PUSH4 0xC30655A2 EQ PUSH2 0xD3 JUMPI JUMPDEST PUSH0 DUP1 REVERT JUMPDEST PUSH2 0x61 PUSH2 0xEF JUMP JUMPDEST PUSH1 0x40 MLOAD PUSH2 0x6E SWAP2 SWAP1 PUSH2 0x3CD JUMP JUMPDEST PUSH1 0x40 MLOAD DUP1 SWAP2 SUB SWAP1 RETURN JUMPDEST PUSH2 0x7F PUSH2 0x180 JUMP JUMPDEST PUSH1 0x40 MLOAD PUSH2 0x8E SWAP4 SWAP3 SWAP2 SWAP1 PUSH2 0x41F JUMP JUMPDEST PUSH1 0x40 MLOAD DUP1 SWAP2 SUB SWAP1 RETURN JUMPDEST PUSH2 0x9F PUSH2 0x228 JUMP JUMPDEST PUSH1 0x40 MLOAD PUSH2 0xAC SWAP2 SWAP1 PUSH2 0x50E JUMP JUMPDEST PUSH1 0x40 MLOAD DUP1 SWAP2 SUB SWAP1 RETURN JUMPDEST PUSH2 0xBD PUSH2 0x2F4 JUMP JUMPDEST PUSH1 0x40 MLOAD PUSH2 0xCA SWAP2 SWAP1 PUSH2 0x52E JUMP JUMPDEST PUSH1 0x40 MLOAD DUP1 SWAP2 SUB SWAP1 RETURN JUMPDEST PUSH2 0xED PUSH1 0x4 DUP1 CALLDATASIZE SUB DUP2 ADD SWAP1 PUSH2 0xE8 SWAP2 SWAP1 PUSH2 0x604 JUMP JUMPDEST PUSH2 0x2FF JUMP JUMPDEST STOP JUMPDEST PUSH1 0x60 PUSH0 DUP1 ADD DUP1 SLOAD PUSH2 0xFF SWAP1 PUSH2 0x6A2 JUMP JUMPDEST DUP1 PUSH1 0x1F ADD PUSH1 0x20 DUP1 SWAP2 DIV MUL PUSH1 0x20 ADD PUSH1 0x40 MLOAD SWAP1 DUP2 ADD PUSH1 0x40 MSTORE DUP1 SWAP3 SWAP2 SWAP1 DUP2 DUP2 MSTORE PUSH1 0x20 ADD DUP3 DUP1 SLOAD PUSH2 0x12B SWAP1 PUSH2 0x6A2 JUMP JUMPDEST DUP1 ISZERO PUSH2 0x176 JUMPI DUP1 PUSH1 0x1F LT PUSH2 0x14D JUMPI PUSH2 0x100 DUP1 DUP4 SLOAD DIV MUL DUP4 MSTORE SWAP2 PUSH1 0x20 ADD SWAP2 PUSH2 0x176 JUMP JUMPDEST DUP3 ADD SWAP2 SWAP1 PUSH0 MSTORE PUSH1 0x20 PUSH0 KECCAK256 SWAP1 JUMPDEST DUP2 SLOAD DUP2 MSTORE SWAP1 PUSH1 0x1 ADD SWAP1 PUSH1 0x20 ADD DUP1 DUP4 GT PUSH2 0x159 JUMPI DUP3 SWAP1 SUB PUSH1 0x1F AND DUP3 ADD SWAP2 JUMPDEST POP POP POP POP POP SWAP1 POP SWAP1 JUMP JUMPDEST PUSH0 DUP1 PUSH0 ADD DUP1 SLOAD PUSH2 0x18F SWAP1 PUSH2 0x6A2 JUMP JUMPDEST DUP1 PUSH1 0x1F ADD PUSH1 0x20 DUP1 SWAP2 DIV MUL PUSH1 0x20 ADD PUSH1 0x40 MLOAD SWAP1 DUP2 ADD PUSH1 0x40 MSTORE DUP1 SWAP3 SWAP2 SWAP1 DUP2 DUP2 MSTORE PUSH1 0x20 ADD DUP3 DUP1 SLOAD PUSH2 0x1BB SWAP1 PUSH2 0x6A2 JUMP JUMPDEST DUP1 ISZERO PUSH2 0x206 JUMPI DUP1 PUSH1 0x1F LT PUSH2 0x1DD JUMPI PUSH2 0x100 DUP1 DUP4 SLOAD DIV MUL DUP4 MSTORE SWAP2 PUSH1 0x20 ADD SWAP2 PUSH2 0x206 JUMP JUMPDEST DUP3 ADD SWAP2 SWAP1 PUSH0 MSTORE PUSH1 0x20 PUSH0 KECCAK256 SWAP1 JUMPDEST DUP2 SLOAD DUP2 MSTORE SWAP1 PUSH1 0x1 ADD SWAP1 PUSH1 0x20 ADD DUP1 DUP4 GT PUSH2 0x1E9 JUMPI DUP3 SWAP1 SUB PUSH1 0x1F AND DUP3 ADD SWAP2 JUMPDEST POP POP POP POP POP SWAP1 DUP1 PUSH1 0x1 ADD SLOAD SWAP1 DUP1 PUSH1 0x2 ADD PUSH0 SWAP1 SLOAD SWAP1 PUSH2 0x100 EXP SWAP1 DIV PUSH1 0xFF AND SWAP1 POP DUP4 JUMP JUMPDEST PUSH2 0x230 PUSH2 0x33C JUMP JUMPDEST PUSH0 PUSH1 0x40 MLOAD DUP1 PUSH1 0x60 ADD PUSH1 0x40 MSTORE SWAP1 DUP2 PUSH0 DUP3 ADD DUP1 SLOAD PUSH2 0x24B SWAP1 PUSH2 0x6A2 JUMP JUMPDEST DUP1 PUSH1 0x1F ADD PUSH1 0x20 DUP1 SWAP2 DIV MUL PUSH1 0x20 ADD PUSH1 0x40 MLOAD SWAP1 DUP2 ADD PUSH1 0x40 MSTORE DUP1 SWAP3 SWAP2 SWAP1 DUP2 DUP2 MSTORE PUSH1 0x20 ADD DUP3 DUP1 SLOAD PUSH2 0x277 SWAP1 PUSH2 0x6A2 JUMP JUMPDEST DUP1 ISZERO PUSH2 0x2C2 JUMPI DUP1 PUSH1 0x1F LT PUSH2 0x299 JUMPI PUSH2 0x100 DUP1 DUP4 SLOAD DIV MUL DUP4 MSTORE SWAP2 PUSH1 0x20 ADD SWAP2 PUSH2 0x2C2 JUMP JUMPDEST DUP3 ADD SWAP2 SWAP1 PUSH0 MSTORE PUSH1 0x20 PUSH0 KECCAK256 SWAP1 JUMPDEST DUP2 SLOAD DUP2 MSTORE SWAP1 PUSH1 0x1 ADD SWAP1 PUSH1 0x20 ADD DUP1 DUP4 GT PUSH2 0x2A5 JUMPI DUP3 SWAP1 SUB PUSH1 0x1F AND DUP3 ADD SWAP2 JUMPDEST POP POP POP POP POP DUP2 MSTORE PUSH1 0x20 ADD PUSH1 0x1 DUP3 ADD SLOAD DUP2 MSTORE PUSH1 0x20 ADD PUSH1 0x2 DUP3 ADD PUSH0 SWAP1 SLOAD SWAP1 PUSH2 0x100 EXP SWAP1 DIV PUSH1 0xFF AND ISZERO ISZERO ISZERO ISZERO DUP2 MSTORE POP POP SWAP1 POP SWAP1 JUMP JUMPDEST PUSH0 DUP1 PUSH1 0x1 ADD SLOAD SWAP1 POP SWAP1 JUMP JUMPDEST DUP4 DUP4 PUSH0 DUP1 ADD SWAP2 DUP3 PUSH2 0x311 SWAP3 SWAP2 SWAP1 PUSH2 0x8A6 JUMP JUMPDEST POP DUP2 PUSH0 PUSH1 0x1 ADD DUP2 SWAP1 SSTORE POP DUP1 PUSH0 PUSH1 0x2 ADD PUSH0 PUSH2 0x100 EXP DUP2 SLOAD DUP2 PUSH1 0xFF MUL NOT AND SWAP1 DUP4 ISZERO ISZERO MUL OR SWAP1 SSTORE POP POP POP POP POP JUMP JUMPDEST PUSH1 0x40 MLOAD DUP1 PUSH1 0x60 ADD PUSH1 0x40 MSTORE DUP1 PUSH1 0x60 DUP2 MSTORE PUSH1 0x20 ADD PUSH0 DUP2 MSTORE PUSH1 0x20 ADD PUSH0 ISZERO ISZERO DUP2 MSTORE POP SWAP1 JUMP JUMPDEST PUSH0 DUP2 MLOAD SWAP1 POP SWAP2 SWAP1 POP JUMP JUMPDEST PUSH0 DUP3 DUP3 MSTORE PUSH1 0x20 DUP3 ADD SWAP1 POP SWAP3 SWAP2 POP POP JUMP JUMPDEST DUP3 DUP2 DUP4 MCOPY PUSH0 DUP4 DUP4 ADD MSTORE POP POP POP JUMP JUMPDEST PUSH0 PUSH1 0x1F NOT PUSH1 0x1F DUP4 ADD AND SWAP1 POP SWAP2 SWAP1 POP JUMP JUMPDEST PUSH0 PUSH2 0x39F DUP3 PUSH2 0x35D JUMP JUMPDEST PUSH2 0x3A9 DUP2 DUP6 PUSH2 0x367 JUMP JUMPDEST SWAP4 POP PUSH2 0x3B9 DUP2 DUP6 PUSH1 0x20 DUP7 ADD PUSH2 0x377 JUMP JUMPDEST PUSH2 0x3C2 DUP2 PUSH2 0x385 JUMP JUMPDEST DUP5 ADD SWAP2 POP POP SWAP3 SWAP2 POP POP JUMP JUMPDEST PUSH0 PUSH1 0x20 DUP3 ADD SWAP1 POP DUP2 DUP2 SUB PUSH0 DUP4 ADD MSTORE PUSH2 0x3E5 DUP2 DUP5 PUSH2 0x395 JUMP JUMPDEST SWAP1 POP SWAP3 SWAP2 POP POP JUMP JUMPDEST PUSH0 DUP2 SWAP1 POP SWAP2 SWAP1 POP JUMP JUMPDEST PUSH2 0x3FF DUP2 PUSH2 0x3ED JUMP JUMPDEST DUP3 MSTORE POP POP JUMP JUMPDEST PUSH0 DUP2 ISZERO ISZERO SWAP1 POP SWAP2 SWAP1 POP JUMP JUMPDEST PUSH2 0x419 DUP2 PUSH2 0x405 JUMP JUMPDEST DUP3 MSTORE POP POP JUMP JUMPDEST PUSH0 PUSH1 0x60 DUP3 ADD SWAP1 POP DUP2 DUP2 SUB PUSH0 DUP4 ADD MSTORE PUSH2 0x437 DUP2 DUP7 PUSH2 0x395 JUMP JUMPDEST SWAP1 POP PUSH2 0x446 PUSH1 0x20 DUP4 ADD DUP6 PUSH2 0x3F6 JUMP JUMPDEST PUSH2 0x453 PUSH1 0x40 DUP4 ADD DUP5 PUSH2 0x410 JUMP JUMPDEST SWAP5 SWAP4 POP POP POP POP JUMP JUMPDEST PUSH0 DUP3 DUP3 MSTORE PUSH1 0x20 DUP3 ADD SWAP1 POP SWAP3 SWAP2 POP POP JUMP JUMPDEST PUSH0 PUSH2 0x475 DUP3 PUSH2 0x35D JUMP JUMPDEST PUSH2 0x47F DUP2 DUP6 PUSH2 0x45B JUMP JUMPDEST SWAP4 POP PUSH2 0x48F DUP2 DUP6 PUSH1 0x20 DUP7 ADD PUSH2 0x377 JUMP JUMPDEST PUSH2 0x498 DUP2 PUSH2 0x385 JUMP JUMPDEST DUP5 ADD SWAP2 POP POP SWAP3 SWAP2 POP POP JUMP JUMPDEST PUSH2 0x4AC DUP2 PUSH2 0x3ED JUMP JUMPDEST DUP3 MSTORE POP POP JUMP JUMPDEST PUSH2 0x4BB DUP2 PUSH2 0x405 JUMP JUMPDEST DUP3 MSTORE POP POP JUMP JUMPDEST PUSH0 PUSH1 0x60 DUP4 ADD PUSH0 DUP4 ADD MLOAD DUP5 DUP3 SUB PUSH0 DUP7 ADD MSTORE PUSH2 0x4DB DUP3 DUP3 PUSH2 0x46B JUMP JUMPDEST SWAP2 POP POP PUSH1 0x20 DUP4 ADD MLOAD PUSH2 0x4F0 PUSH1 0x20 DUP7 ADD DUP3 PUSH2 0x4A3 JUMP JUMPDEST POP PUSH1 0x40 DUP4 ADD MLOAD PUSH2 0x503 PUSH1 0x40 DUP7 ADD DUP3 PUSH2 0x4B2 JUMP JUMPDEST POP DUP1 SWAP2 POP POP SWAP3 SWAP2 POP POP JUMP JUMPDEST PUSH0 PUSH1 0x20 DUP3 ADD SWAP1 POP DUP2 DUP2 SUB PUSH0 DUP4 ADD MSTORE PUSH2 0x526 DUP2 DUP5 PUSH2 0x4C1 JUMP JUMPDEST SWAP1 POP SWAP3 SWAP2 POP POP JUMP JUMPDEST PUSH0 PUSH1 0x20 DUP3 ADD SWAP1 POP PUSH2 0x541 PUSH0 DUP4 ADD DUP5 PUSH2 0x3F6 JUMP JUMPDEST SWAP3 SWAP2 POP POP JUMP JUMPDEST PUSH0 DUP1 REVERT JUMPDEST PUSH0 DUP1 REVERT JUMPDEST PUSH0 DUP1 REVERT JUMPDEST PUSH0 DUP1 REVERT JUMPDEST PUSH0 DUP1 REVERT JUMPDEST PUSH0 DUP1 DUP4 PUSH1 0x1F DUP5 ADD SLT PUSH2 0x570 JUMPI PUSH2 0x56F PUSH2 0x54F JUMP JUMPDEST JUMPDEST DUP3 CALLDATALOAD SWAP1 POP PUSH8 0xFFFFFFFFFFFFFFFF DUP2 GT ISZERO PUSH2 0x58D JUMPI PUSH2 0x58C PUSH2 0x553 JUMP JUMPDEST JUMPDEST PUSH1 0x20 DUP4 ADD SWAP2 POP DUP4 PUSH1 0x1 DUP3 MUL DUP4 ADD GT ISZERO PUSH2 0x5A9 JUMPI PUSH2 0x5A8 PUSH2 0x557 JUMP JUMPDEST JUMPDEST SWAP3 POP SWAP3 SWAP1 POP JUMP JUMPDEST PUSH2 0x5B9 DUP2 PUSH2 0x3ED JUMP JUMPDEST DUP2 EQ PUSH2 0x5C3 JUMPI PUSH0 DUP1 REVERT JUMPDEST POP JUMP JUMPDEST PUSH0 DUP2 CALLDATALOAD SWAP1 POP PUSH2 0x5D4 DUP2 PUSH2 0x5B0 JUMP JUMPDEST SWAP3 SWAP2 POP POP JUMP JUMPDEST PUSH2 0x5E3 DUP2 PUSH2 0x405 JUMP JUMPDEST DUP2 EQ PUSH2 0x5ED JUMPI PUSH0 DUP1 REVERT JUMPDEST POP JUMP JUMPDEST PUSH0 DUP2 CALLDATALOAD SWAP1 POP PUSH2 0x5FE DUP2 PUSH2 0x5DA JUMP JUMPDEST SWAP3 SWAP2 POP POP JUMP JUMPDEST PUSH0 DUP1 PUSH0 DUP1 PUSH1 0x60 DUP6 DUP8 SUB SLT ISZERO PUSH2 0x61C JUMPI PUSH2 0x61B PUSH2 0x547 JUMP JUMPDEST JUMPDEST PUSH0 DUP6 ADD CALLDATALOAD PUSH8 0xFFFFFFFFFFFFFFFF DUP2 GT ISZERO PUSH2 0x639 JUMPI PUSH2 0x638 PUSH2 0x54B JUMP JUMPDEST JUMPDEST PUSH2 0x645 DUP8 DUP3 DUP9 ADD PUSH2 0x55B JUMP JUMPDEST SWAP5 POP SWAP5 POP POP PUSH1 0x20 PUSH2 0x658 DUP8 DUP3 DUP9 ADD PUSH2 0x5C6 JUMP JUMPDEST SWAP3 POP POP PUSH1 0x40 PUSH2 0x669 DUP8 DUP3 DUP9 ADD PUSH2 0x5F0 JUMP JUMPDEST SWAP2 POP POP SWAP3 SWAP6 SWAP2 SWAP5 POP SWAP3 POP JUMP JUMPDEST PUSH32 0x4E487B7100000000000000000000000000000000000000000000000000000000 PUSH0 MSTORE PUSH1 0x22 PUSH1 0x4 MSTORE PUSH1 0x24 PUSH0 REVERT JUMPDEST PUSH0 PUSH1 0x2 DUP3 DIV SWAP1 POP PUSH1 0x1 DUP3 AND DUP1 PUSH2 0x6B9 JUMPI PUSH1 0x7F DUP3 AND SWAP2 POP JUMPDEST PUSH1 0x20 DUP3 LT DUP2 SUB PUSH2 0x6CC JUMPI PUSH2 0x6CB PUSH2 0x675 JUMP JUMPDEST JUMPDEST POP SWAP2 SWAP1 POP JUMP JUMPDEST PUSH0 DUP3 SWAP1 POP SWAP3 SWAP2 POP POP JUMP JUMPDEST PUSH32 0x4E487B7100000000000000000000000000000000000000000000000000000000 PUSH0 MSTORE PUSH1 0x41 PUSH1 0x4 MSTORE PUSH1 0x24 PUSH0 REVERT JUMPDEST PUSH0 DUP2 SWAP1 POP DUP2 PUSH0 MSTORE PUSH1 0x20 PUSH0 KECCAK256 SWAP1 POP SWAP2 SWAP1 POP JUMP JUMPDEST PUSH0 PUSH1 0x20 PUSH1 0x1F DUP4 ADD DIV SWAP1 POP SWAP2 SWAP1 POP JUMP JUMPDEST PUSH0 DUP3 DUP3 SHL SWAP1 POP SWAP3 SWAP2 POP POP JUMP JUMPDEST PUSH0 PUSH1 0x8 DUP4 MUL PUSH2 0x765 PUSH32 0xFFFFFFFFFFFFFFFFFFFFFFFFFFFFFFFFFFFFFFFFFFFFFFFFFFFFFFFFFFFFFFFF DUP3 PUSH2 0x72A JUMP JUMPDEST PUSH2 0x76F DUP7 DUP4 PUSH2 0x72A JUMP JUMPDEST SWAP6 POP DUP1 NOT DUP5 AND SWAP4 POP DUP1 DUP7 AND DUP5 OR SWAP3 POP POP POP SWAP4 SWAP3 POP POP POP JUMP JUMPDEST PUSH0 DUP2 SWAP1 POP SWAP2 SWAP1 POP JUMP JUMPDEST PUSH0 PUSH2 0x7AA PUSH2 0x7A5 PUSH2 0x7A0 DUP5 PUSH2 0x3ED JUMP JUMPDEST PUSH2 0x787 JUMP JUMPDEST PUSH2 0x3ED JUMP JUMPDEST SWAP1 POP SWAP2 SWAP1 POP JUMP JUMPDEST PUSH0 DUP2 SWAP1 POP SWAP2 SWAP1 POP JUMP JUMPDEST PUSH2 0x7C3 DUP4 PUSH2 0x790 JUMP JUMPDEST PUSH2 0x7D7 PUSH2 0x7CF DUP3 PUSH2 0x7B1 JUMP JUMPDEST DUP5 DUP5 SLOAD PUSH2 0x736 JUMP JUMPDEST DUP3 SSTORE POP POP POP POP JUMP JUMPDEST PUSH0 SWAP1 JUMP JUMPDEST PUSH2 0x7EB PUSH2 0x7DF JUMP JUMPDEST PUSH2 0x7F6 DUP2 DUP5 DUP5 PUSH2 0x7BA JUMP JUMPDEST POP POP POP JUMP JUMPDEST JUMPDEST DUP2 DUP2 LT ISZERO PUSH2 0x819 JUMPI PUSH2 0x80E PUSH0 DUP3 PUSH2 0x7E3 JUMP JUMPDEST PUSH1 0x1 DUP2 ADD SWAP1 POP PUSH2 0x7FC JUMP JUMPDEST POP POP JUMP JUMPDEST PUSH1 0x1F DUP3 GT ISZERO PUSH2 0x85E JUMPI PUSH2 0x82F DUP2 PUSH2 0x709 JUMP JUMPDEST PUSH2 0x838 DUP5 PUSH2 0x71B JUMP JUMPDEST DUP2 ADD PUSH1 0x20 DUP6 LT ISZERO PUSH2 0x847 JUMPI DUP2 SWAP1 POP JUMPDEST PUSH2 0x85B PUSH2 0x853 DUP6 PUSH2 0x71B JUMP JUMPDEST DUP4 ADD DUP3 PUSH2 0x7FB JUMP JUMPDEST POP POP JUMPDEST POP POP POP JUMP JUMPDEST PUSH0 DUP3 DUP3 SHR SWAP1 POP SWAP3 SWAP2 POP POP JUMP JUMPDEST PUSH0 PUSH2 0x87E PUSH0 NOT DUP5 PUSH1 0x8 MUL PUSH2 0x863 JUMP JUMPDEST NOT DUP1 DUP4 AND SWAP2 POP POP SWAP3 SWAP2 POP POP JUMP JUMPDEST PUSH0 PUSH2 0x896 DUP4 DUP4 PUSH2 0x86F JUMP JUMPDEST SWAP2 POP DUP3 PUSH1 0x2 MUL DUP3 OR SWAP1 POP SWAP3 SWAP2 POP POP JUMP JUMPDEST PUSH2 0x8B0 DUP4 DUP4 PUSH2 0x6D2 JUMP JUMPDEST PUSH8 0xFFFFFFFFFFFFFFFF DUP2 GT ISZERO PUSH2 0x8C9 JUMPI PUSH2 0x8C8 PUSH2 0x6DC JUMP JUMPDEST JUMPDEST PUSH2 0x8D3 DUP3 SLOAD PUSH2 0x6A2 JUMP JUMPDEST PUSH2 0x8DE DUP3 DUP3 DUP6 PUSH2 0x81D JUMP JUMPDEST PUSH0 PUSH1 0x1F DUP4 GT PUSH1 0x1 DUP2 EQ PUSH2 0x90B JUMPI PUSH0 DUP5 ISZERO PUSH2 0x8F9 JUMPI DUP3 DUP8 ADD CALLDATALOAD SWAP1 POP JUMPDEST PUSH2 0x903 DUP6 DUP3 PUSH2 0x88B JUMP JUMPDEST DUP7 SSTORE POP PUSH2 0x96A JUMP JUMPDEST PUSH1 0x1F NOT DUP5 AND PUSH2 0x919 DUP7 PUSH2 0x709 JUMP JUMPDEST PUSH0 JUMPDEST DUP3 DUP2 LT ISZERO PUSH2 0x940 JUMPI DUP5 DUP10 ADD CALLDATALOAD DUP3 SSTORE PUSH1 0x1 DUP3 ADD SWAP2 POP PUSH1 0x20 DUP6 ADD SWAP5 POP PUSH1 0x20 DUP2 ADD SWAP1 POP PUSH2 0x91B JUMP JUMPDEST DUP7 DUP4 LT ISZERO PUSH2 0x95D JUMPI DUP5 DUP10 ADD CALLDATALOAD PUSH2 0x959 PUSH1 0x1F DUP10 AND DUP3 PUSH2 0x86F JUMP JUMPDEST DUP4 SSTORE POP JUMPDEST PUSH1 0x1 PUSH1 0x2 DUP9 MUL ADD DUP9 SSTORE POP POP POP JUMPDEST POP POP POP POP POP POP POP JUMP INVALID LOG2 PUSH5 0x6970667358 0x22 SLT KECCAK256 0x28 0x1E 0xA7 0xB6 CALLCODE POP DUP15 0xBF RETURN SWAP11 PUSH17 0x937D35BA23DDCDC168F5900162D6937D10 CALLVALUE 0xD6 LOG0 0xAB PUSH5 0x736F6C6343 STOP ADDMOD BYTE STOP CALLER "
				},
				"gasEstimates": {
					"creation": {
						"codeDepositCost": "494600",
						"executionCost": "528",
						"totalCost": "495128"
					},
					"external": {
						"getter()": "infinite",
						"getterName()": "infinite",
						"getterRoll()": "2482",
						"insert(string,uint256,bool)": "infinite",
						"s1()": "infinite"
					}
				},
				"methodIdentifiers": {
					"getter()": "993a04b7",
					"getterName()": "32ef371a",
					"getterRoll()": "b923a9fc",
					"insert(string,uint256,bool)": "c30655a2",
					"s1()": "6cc014de"
				}
			},
			"storageLayout": {
				"storage": [
					{
						"astId": 11,
						"contract": "contracts/struct_21.sol:Struct",
						"label": "s1",
						"offset": 0,
						"slot": "0",
						"type": "t_struct(Student)8_storage"
					}
				],
				"types": {
					"t_bool": {
						"encoding": "inplace",
						"label": "bool",
						"numberOfBytes": "1"
					},
					"t_string_storage": {
						"encoding": "bytes",
						"label": "string",
						"numberOfBytes": "32"
					},
					"t_struct(Student)8_storage": {
						"encoding": "inplace",
						"label": "struct Struct.Student",
						"members": [
							{
								"astId": 3,
								"contract": "contracts/struct_21.sol:Struct",
								"label": "name",
								"offset": 0,
								"slot": "0",
								"type": "t_string_storage"
							},
							{
								"astId": 5,
								"contract": "contracts/struct_21.sol:Struct",
								"label": "roll",
								"offset": 0,
								"slot": "1",
								"type": "t_uint256"
							},
							{
								"astId": 7,
								"contract": "contracts/struct_21.sol:Struct",
								"label": "pass",
								"offset": 0,
								"slot": "2",
								"type": "t_bool"
							}
						],
						"numberOfBytes": "96"
					},
					"t_uint256": {
						"encoding": "inplace",
						"label": "uint256",
						"numberOfBytes": "32"
					}
				}
			},
			"userdoc": {
				"kind": "user",
				"methods": {},
				"version": 1
			}
		}
	}
}