{
	"contracts/DAO.sol": {
		"DA0": {
			"abi": [
				{
					"inputs": [
						{
							"internalType": "uint256",
							"name": "_contributionTimeEnd",
							"type": "uint256"
						},
						{
							"internalType": "uint256",
							"name": "_voteTime",
							"type": "uint256"
						},
						{
							"internalType": "uint256",
							"name": "_quorum",
							"type": "uint256"
						}
					],
					"stateMutability": "nonpayable",
					"type": "constructor"
				},
				{
					"inputs": [],
					"name": "availableFunds",
					"outputs": [
						{
							"internalType": "uint256",
							"name": "",
							"type": "uint256"
						}
					],
					"stateMutability": "view",
					"type": "function"
				},
				{
					"inputs": [],
					"name": "contribution",
					"outputs": [],
					"stateMutability": "payable",
					"type": "function"
				},
				{
					"inputs": [],
					"name": "contributionTimeEnd",
					"outputs": [
						{
							"internalType": "uint256",
							"name": "",
							"type": "uint256"
						}
					],
					"stateMutability": "view",
					"type": "function"
				},
				{
					"inputs": [
						{
							"internalType": "string",
							"name": "description",
							"type": "string"
						},
						{
							"internalType": "uint256",
							"name": "amount",
							"type": "uint256"
						},
						{
							"internalType": "address payable",
							"name": "recepient",
							"type": "address"
						}
					],
					"name": "createProposal",
					"outputs": [],
					"stateMutability": "nonpayable",
					"type": "function"
				},
				{
					"inputs": [
						{
							"internalType": "uint256",
							"name": "ProposalId",
							"type": "uint256"
						}
					],
					"name": "executeProposal",
					"outputs": [],
					"stateMutability": "nonpayable",
					"type": "function"
				},
				{
					"inputs": [
						{
							"internalType": "uint256",
							"name": "",
							"type": "uint256"
						}
					],
					"name": "investorsList",
					"outputs": [
						{
							"internalType": "address",
							"name": "",
							"type": "address"
						}
					],
					"stateMutability": "view",
					"type": "function"
				},
				{
					"inputs": [
						{
							"internalType": "address",
							"name": "",
							"type": "address"
						},
						{
							"internalType": "uint256",
							"name": "",
							"type": "uint256"
						}
					],
					"name": "isVoted",
					"outputs": [
						{
							"internalType": "bool",
							"name": "",
							"type": "bool"
						}
					],
					"stateMutability": "view",
					"type": "function"
				},
				{
					"inputs": [],
					"name": "manager",
					"outputs": [
						{
							"internalType": "address",
							"name": "",
							"type": "address"
						}
					],
					"stateMutability": "view",
					"type": "function"
				},
				{
					"inputs": [],
					"name": "nextProposalId",
					"outputs": [
						{
							"internalType": "uint256",
							"name": "",
							"type": "uint256"
						}
					],
					"stateMutability": "view",
					"type": "function"
				},
				{
					"inputs": [
						{
							"internalType": "address",
							"name": "",
							"type": "address"
						}
					],
					"name": "numOfshares",
					"outputs": [
						{
							"internalType": "uint256",
							"name": "",
							"type": "uint256"
						}
					],
					"stateMutability": "view",
					"type": "function"
				},
				{
					"inputs": [],
					"name": "proposalList",
					"outputs": [
						{
							"components": [
								{
									"internalType": "uint256",
									"name": "id",
									"type": "uint256"
								},
								{
									"internalType": "string",
									"name": "description",
									"type": "string"
								},
								{
									"internalType": "uint256",
									"name": "amount",
									"type": "uint256"
								},
								{
									"internalType": "address payable",
									"name": "recepient",
									"type": "address"
								},
								{
									"internalType": "uint256",
									"name": "votes",
									"type": "uint256"
								},
								{
									"internalType": "uint256",
									"name": "end",
									"type": "uint256"
								},
								{
									"internalType": "bool",
									"name": "isExecuted",
									"type": "bool"
								}
							],
							"internalType": "struct DA0.Proposal[]",
							"name": "",
							"type": "tuple[]"
						}
					],
					"stateMutability": "view",
					"type": "function"
				},
				{
					"inputs": [
						{
							"internalType": "uint256",
							"name": "",
							"type": "uint256"
						}
					],
					"name": "proposals",
					"outputs": [
						{
							"internalType": "uint256",
							"name": "id",
							"type": "uint256"
						},
						{
							"internalType": "string",
							"name": "description",
							"type": "string"
						},
						{
							"internalType": "uint256",
							"name": "amount",
							"type": "uint256"
						},
						{
							"internalType": "address payable",
							"name": "recepient",
							"type": "address"
						},
						{
							"internalType": "uint256",
							"name": "votes",
							"type": "uint256"
						},
						{
							"internalType": "uint256",
							"name": "end",
							"type": "uint256"
						},
						{
							"internalType": "bool",
							"name": "isExecuted",
							"type": "bool"
						}
					],
					"stateMutability": "view",
					"type": "function"
				},
				{
					"inputs": [],
					"name": "quorum",
					"outputs": [
						{
							"internalType": "uint256",
							"name": "",
							"type": "uint256"
						}
					],
					"stateMutability": "view",
					"type": "function"
				},
				{
					"inputs": [
						{
							"internalType": "uint256",
							"name": "amount",
							"type": "uint256"
						}
					],
					"name": "redeemShare",
					"outputs": [],
					"stateMutability": "nonpayable",
					"type": "function"
				},
				{
					"inputs": [],
					"name": "totalShares",
					"outputs": [
						{
							"internalType": "uint256",
							"name": "",
							"type": "uint256"
						}
					],
					"stateMutability": "view",
					"type": "function"
				},
				{
					"inputs": [
						{
							"internalType": "uint256",
							"name": "amount",
							"type": "uint256"
						},
						{
							"internalType": "address",
							"name": "to",
							"type": "address"
						}
					],
					"name": "transferShare",
					"outputs": [],
					"stateMutability": "nonpayable",
					"type": "function"
				},
				{
					"inputs": [
						{
							"internalType": "uint256",
							"name": "proposalId",
							"type": "uint256"
						}
					],
					"name": "voteProposal",
					"outputs": [],
					"stateMutability": "nonpayable",
					"type": "function"
				},
				{
					"inputs": [],
					"name": "voteTime",
					"outputs": [
						{
							"internalType": "uint256",
							"name": "",
							"type": "uint256"
						}
					],
					"stateMutability": "view",
					"type": "function"
				}
			],
			"devdoc": {
				"kind": "dev",
				"methods": {},
				"version": 1
			},
			"evm": {
				"assembly": "    /* \"contracts/DAO.sol\":144:4320  contract DA0{... */\n  mstore(0x40, 0x80)\n    /* \"contracts/DAO.sol\":896:1184  constructor(uint _contributionTimeEnd,uint _voteTime,uint _quorum){... */\n  callvalue\n  dup1\n  iszero\n  tag_1\n  jumpi\n  0x00\n  dup1\n  revert\ntag_1:\n  pop\n  mload(0x40)\n  sub(codesize, bytecodeSize)\n  dup1\n  bytecodeSize\n  dup4\n  codecopy\n  dup2\n  dup2\n  add\n  0x40\n  mstore\n  dup2\n  add\n  swap1\n  tag_2\n  swap2\n  swap1\n  tag_3\n  jump\t// in\ntag_2:\n    /* \"contracts/DAO.sol\":989:990  0 */\n  0x00\n    /* \"contracts/DAO.sol\":981:988  _quorum */\n  dup2\n    /* \"contracts/DAO.sol\":981:990  _quorum>0 */\n  gt\n    /* \"contracts/DAO.sol\":981:1006  _quorum>0 && _quorum<=100 */\n  dup1\n  iszero\n  tag_6\n  jumpi\n  pop\n    /* \"contracts/DAO.sol\":1003:1006  100 */\n  0x64\n    /* \"contracts/DAO.sol\":994:1001  _quorum */\n  dup2\n    /* \"contracts/DAO.sol\":994:1006  _quorum<=100 */\n  gt\n  iszero\n    /* \"contracts/DAO.sol\":981:1006  _quorum>0 && _quorum<=100 */\ntag_6:\n    /* \"contracts/DAO.sol\":973:1026  require(_quorum>0 && _quorum<=100,\"Not valid values\") */\n  tag_7\n  jumpi\n  mload(0x40)\n  0x08c379a000000000000000000000000000000000000000000000000000000000\n  dup2\n  mstore\n  0x04\n  add\n  tag_8\n  swap1\n  tag_9\n  jump\t// in\ntag_8:\n  mload(0x40)\n  dup1\n  swap2\n  sub\n  swap1\n  revert\ntag_7:\n    /* \"contracts/DAO.sol\":1073:1093  _contributionTimeEnd */\n  dup3\n    /* \"contracts/DAO.sol\":1057:1072  block.timestamp */\n  timestamp\n    /* \"contracts/DAO.sol\":1057:1093  block.timestamp+_contributionTimeEnd */\n  tag_10\n  swap2\n  swap1\n  tag_11\n  jump\t// in\ntag_10:\n    /* \"contracts/DAO.sol\":1037:1056  contributionTimeEnd */\n  0x07\n    /* \"contracts/DAO.sol\":1037:1093  contributionTimeEnd=block.timestamp+_contributionTimeEnd */\n  dup2\n  swap1\n  sstore\n  pop\n    /* \"contracts/DAO.sol\":1113:1122  _voteTime */\n  dup2\n    /* \"contracts/DAO.sol\":1104:1112  voteTime */\n  0x09\n    /* \"contracts/DAO.sol\":1104:1122  voteTime=_voteTime */\n  dup2\n  swap1\n  sstore\n  pop\n    /* \"contracts/DAO.sol\":1140:1147  _quorum */\n  dup1\n    /* \"contracts/DAO.sol\":1133:1139  quorum */\n  0x0a\n    /* \"contracts/DAO.sol\":1133:1147  quorum=_quorum */\n  dup2\n  swap1\n  sstore\n  pop\n    /* \"contracts/DAO.sol\":1166:1176  msg.sender */\n  caller\n    /* \"contracts/DAO.sol\":1158:1165  manager */\n  0x0b\n  0x00\n    /* \"contracts/DAO.sol\":1158:1176  manager=msg.sender */\n  0x0100\n  exp\n  dup2\n  sload\n  dup2\n  0xffffffffffffffffffffffffffffffffffffffff\n  mul\n  not\n  and\n  swap1\n  dup4\n  0xffffffffffffffffffffffffffffffffffffffff\n  and\n  mul\n  or\n  swap1\n  sstore\n  pop\n    /* \"contracts/DAO.sol\":896:1184  constructor(uint _contributionTimeEnd,uint _voteTime,uint _quorum){... */\n  pop\n  pop\n  pop\n    /* \"contracts/DAO.sol\":144:4320  contract DA0{... */\n  jump(tag_12)\n    /* \"#utility.yul\":88:205   */\ntag_14:\n    /* \"#utility.yul\":197:198   */\n  0x00\n    /* \"#utility.yul\":194:195   */\n  dup1\n    /* \"#utility.yul\":187:199   */\n  revert\n    /* \"#utility.yul\":334:411   */\ntag_16:\n    /* \"#utility.yul\":371:378   */\n  0x00\n    /* \"#utility.yul\":400:405   */\n  dup2\n    /* \"#utility.yul\":389:405   */\n  swap1\n  pop\n    /* \"#utility.yul\":334:411   */\n  swap2\n  swap1\n  pop\n  jump\t// out\n    /* \"#utility.yul\":417:539   */\ntag_17:\n    /* \"#utility.yul\":490:514   */\n  tag_29\n    /* \"#utility.yul\":508:513   */\n  dup2\n    /* \"#utility.yul\":490:514   */\n  tag_16\n  jump\t// in\ntag_29:\n    /* \"#utility.yul\":483:488   */\n  dup2\n    /* \"#utility.yul\":480:515   */\n  eq\n    /* \"#utility.yul\":470:533   */\n  tag_30\n  jumpi\n    /* \"#utility.yul\":529:530   */\n  0x00\n    /* \"#utility.yul\":526:527   */\n  dup1\n    /* \"#utility.yul\":519:531   */\n  revert\n    /* \"#utility.yul\":470:533   */\ntag_30:\n    /* \"#utility.yul\":417:539   */\n  pop\n  jump\t// out\n    /* \"#utility.yul\":545:688   */\ntag_18:\n    /* \"#utility.yul\":602:607   */\n  0x00\n    /* \"#utility.yul\":633:639   */\n  dup2\n    /* \"#utility.yul\":627:640   */\n  mload\n    /* \"#utility.yul\":618:640   */\n  swap1\n  pop\n    /* \"#utility.yul\":649:682   */\n  tag_32\n    /* \"#utility.yul\":676:681   */\n  dup2\n    /* \"#utility.yul\":649:682   */\n  tag_17\n  jump\t// in\ntag_32:\n    /* \"#utility.yul\":545:688   */\n  swap3\n  swap2\n  pop\n  pop\n  jump\t// out\n    /* \"#utility.yul\":694:1357   */\ntag_3:\n    /* \"#utility.yul\":782:788   */\n  0x00\n    /* \"#utility.yul\":790:796   */\n  dup1\n    /* \"#utility.yul\":798:804   */\n  0x00\n    /* \"#utility.yul\":847:849   */\n  0x60\n    /* \"#utility.yul\":835:844   */\n  dup5\n    /* \"#utility.yul\":826:833   */\n  dup7\n    /* \"#utility.yul\":822:845   */\n  sub\n    /* \"#utility.yul\":818:850   */\n  slt\n    /* \"#utility.yul\":815:934   */\n  iszero\n  tag_34\n  jumpi\n    /* \"#utility.yul\":853:932   */\n  tag_35\n  tag_14\n  jump\t// in\ntag_35:\n    /* \"#utility.yul\":815:934   */\ntag_34:\n    /* \"#utility.yul\":973:974   */\n  0x00\n    /* \"#utility.yul\":998:1062   */\n  tag_36\n    /* \"#utility.yul\":1054:1061   */\n  dup7\n    /* \"#utility.yul\":1045:1051   */\n  dup3\n    /* \"#utility.yul\":1034:1043   */\n  dup8\n    /* \"#utility.yul\":1030:1052   */\n  add\n    /* \"#utility.yul\":998:1062   */\n  tag_18\n  jump\t// in\ntag_36:\n    /* \"#utility.yul\":988:1062   */\n  swap4\n  pop\n    /* \"#utility.yul\":944:1072   */\n  pop\n    /* \"#utility.yul\":1111:1113   */\n  0x20\n    /* \"#utility.yul\":1137:1201   */\n  tag_37\n    /* \"#utility.yul\":1193:1200   */\n  dup7\n    /* \"#utility.yul\":1184:1190   */\n  dup3\n    /* \"#utility.yul\":1173:1182   */\n  dup8\n    /* \"#utility.yul\":1169:1191   */\n  add\n    /* \"#utility.yul\":1137:1201   */\n  tag_18\n  jump\t// in\ntag_37:\n    /* \"#utility.yul\":1127:1201   */\n  swap3\n  pop\n    /* \"#utility.yul\":1082:1211   */\n  pop\n    /* \"#utility.yul\":1250:1252   */\n  0x40\n    /* \"#utility.yul\":1276:1340   */\n  tag_38\n    /* \"#utility.yul\":1332:1339   */\n  dup7\n    /* \"#utility.yul\":1323:1329   */\n  dup3\n    /* \"#utility.yul\":1312:1321   */\n  dup8\n    /* \"#utility.yul\":1308:1330   */\n  add\n    /* \"#utility.yul\":1276:1340   */\n  tag_18\n  jump\t// in\ntag_38:\n    /* \"#utility.yul\":1266:1340   */\n  swap2\n  pop\n    /* \"#utility.yul\":1221:1350   */\n  pop\n    /* \"#utility.yul\":694:1357   */\n  swap3\n  pop\n  swap3\n  pop\n  swap3\n  jump\t// out\n    /* \"#utility.yul\":1363:1532   */\ntag_19:\n    /* \"#utility.yul\":1447:1458   */\n  0x00\n    /* \"#utility.yul\":1481:1487   */\n  dup3\n    /* \"#utility.yul\":1476:1479   */\n  dup3\n    /* \"#utility.yul\":1469:1488   */\n  mstore\n    /* \"#utility.yul\":1521:1525   */\n  0x20\n    /* \"#utility.yul\":1516:1519   */\n  dup3\n    /* \"#utility.yul\":1512:1526   */\n  add\n    /* \"#utility.yul\":1497:1526   */\n  swap1\n  pop\n    /* \"#utility.yul\":1363:1532   */\n  swap3\n  swap2\n  pop\n  pop\n  jump\t// out\n    /* \"#utility.yul\":1538:1704   */\ntag_20:\n    /* \"#utility.yul\":1678:1696   */\n  0x4e6f742076616c69642076616c75657300000000000000000000000000000000\n    /* \"#utility.yul\":1674:1675   */\n  0x00\n    /* \"#utility.yul\":1666:1672   */\n  dup3\n    /* \"#utility.yul\":1662:1676   */\n  add\n    /* \"#utility.yul\":1655:1697   */\n  mstore\n    /* \"#utility.yul\":1538:1704   */\n  pop\n  jump\t// out\n    /* \"#utility.yul\":1710:2076   */\ntag_21:\n    /* \"#utility.yul\":1852:1855   */\n  0x00\n    /* \"#utility.yul\":1873:1940   */\n  tag_42\n    /* \"#utility.yul\":1937:1939   */\n  0x10\n    /* \"#utility.yul\":1932:1935   */\n  dup4\n    /* \"#utility.yul\":1873:1940   */\n  tag_19\n  jump\t// in\ntag_42:\n    /* \"#utility.yul\":1866:1940   */\n  swap2\n  pop\n    /* \"#utility.yul\":1949:2042   */\n  tag_43\n    /* \"#utility.yul\":2038:2041   */\n  dup3\n    /* \"#utility.yul\":1949:2042   */\n  tag_20\n  jump\t// in\ntag_43:\n    /* \"#utility.yul\":2067:2069   */\n  0x20\n    /* \"#utility.yul\":2062:2065   */\n  dup3\n    /* \"#utility.yul\":2058:2070   */\n  add\n    /* \"#utility.yul\":2051:2070   */\n  swap1\n  pop\n    /* \"#utility.yul\":1710:2076   */\n  swap2\n  swap1\n  pop\n  jump\t// out\n    /* \"#utility.yul\":2082:2501   */\ntag_9:\n    /* \"#utility.yul\":2248:2252   */\n  0x00\n    /* \"#utility.yul\":2286:2288   */\n  0x20\n    /* \"#utility.yul\":2275:2284   */\n  dup3\n    /* \"#utility.yul\":2271:2289   */\n  add\n    /* \"#utility.yul\":2263:2289   */\n  swap1\n  pop\n    /* \"#utility.yul\":2335:2344   */\n  dup2\n    /* \"#utility.yul\":2329:2333   */\n  dup2\n    /* \"#utility.yul\":2325:2345   */\n  sub\n    /* \"#utility.yul\":2321:2322   */\n  0x00\n    /* \"#utility.yul\":2310:2319   */\n  dup4\n    /* \"#utility.yul\":2306:2323   */\n  add\n    /* \"#utility.yul\":2299:2346   */\n  mstore\n    /* \"#utility.yul\":2363:2494   */\n  tag_45\n    /* \"#utility.yul\":2489:2493   */\n  dup2\n    /* \"#utility.yul\":2363:2494   */\n  tag_21\n  jump\t// in\ntag_45:\n    /* \"#utility.yul\":2355:2494   */\n  swap1\n  pop\n    /* \"#utility.yul\":2082:2501   */\n  swap2\n  swap1\n  pop\n  jump\t// out\n    /* \"#utility.yul\":2507:2687   */\ntag_22:\n    /* \"#utility.yul\":2555:2632   */\n  0x4e487b7100000000000000000000000000000000000000000000000000000000\n    /* \"#utility.yul\":2552:2553   */\n  0x00\n    /* \"#utility.yul\":2545:2633   */\n  mstore\n    /* \"#utility.yul\":2652:2656   */\n  0x11\n    /* \"#utility.yul\":2649:2650   */\n  0x04\n    /* \"#utility.yul\":2642:2657   */\n  mstore\n    /* \"#utility.yul\":2676:2680   */\n  0x24\n    /* \"#utility.yul\":2673:2674   */\n  0x00\n    /* \"#utility.yul\":2666:2681   */\n  revert\n    /* \"#utility.yul\":2693:2884   */\ntag_11:\n    /* \"#utility.yul\":2733:2736   */\n  0x00\n    /* \"#utility.yul\":2752:2772   */\n  tag_48\n    /* \"#utility.yul\":2770:2771   */\n  dup3\n    /* \"#utility.yul\":2752:2772   */\n  tag_16\n  jump\t// in\ntag_48:\n    /* \"#utility.yul\":2747:2772   */\n  swap2\n  pop\n    /* \"#utility.yul\":2786:2806   */\n  tag_49\n    /* \"#utility.yul\":2804:2805   */\n  dup4\n    /* \"#utility.yul\":2786:2806   */\n  tag_16\n  jump\t// in\ntag_49:\n    /* \"#utility.yul\":2781:2806   */\n  swap3\n  pop\n    /* \"#utility.yul\":2829:2830   */\n  dup3\n    /* \"#utility.yul\":2826:2827   */\n  dup3\n    /* \"#utility.yul\":2822:2831   */\n  add\n    /* \"#utility.yul\":2815:2831   */\n  swap1\n  pop\n    /* \"#utility.yul\":2850:2853   */\n  dup1\n    /* \"#utility.yul\":2847:2848   */\n  dup3\n    /* \"#utility.yul\":2844:2854   */\n  gt\n    /* \"#utility.yul\":2841:2877   */\n  iszero\n  tag_50\n  jumpi\n    /* \"#utility.yul\":2857:2875   */\n  tag_51\n  tag_22\n  jump\t// in\ntag_51:\n    /* \"#utility.yul\":2841:2877   */\ntag_50:\n    /* \"#utility.yul\":2693:2884   */\n  swap3\n  swap2\n  pop\n  pop\n  jump\t// out\n    /* \"contracts/DAO.sol\":144:4320  contract DA0{... */\ntag_12:\n  dataSize(sub_0)\n  dup1\n  dataOffset(sub_0)\n  0x00\n  codecopy\n  0x00\n  return\nstop\n\nsub_0: assembly {\n        /* \"contracts/DAO.sol\":144:4320  contract DA0{... */\n      mstore(0x40, 0x80)\n      jumpi(tag_1, lt(calldatasize, 0x04))\n      shr(0xe0, calldataload(0x00))\n      dup1\n      0x481c6a75\n      gt\n      tag_20\n      jumpi\n      dup1\n      0x868643df\n      gt\n      tag_21\n      jumpi\n      dup1\n      0x868643df\n      eq\n      tag_15\n      jumpi\n      dup1\n      0x8ee36f05\n      eq\n      tag_16\n      jumpi\n      dup1\n      0xafc8275b\n      eq\n      tag_17\n      jumpi\n      dup1\n      0xbcf93dd6\n      eq\n      tag_18\n      jumpi\n      dup1\n      0xe65da429\n      eq\n      tag_19\n      jumpi\n      jump(tag_1)\n    tag_21:\n      dup1\n      0x481c6a75\n      eq\n      tag_11\n      jumpi\n      dup1\n      0x50520b1f\n      eq\n      tag_12\n      jumpi\n      dup1\n      0x6ac1e01f\n      eq\n      tag_13\n      jumpi\n      dup1\n      0x807896d5\n      eq\n      tag_14\n      jumpi\n      jump(tag_1)\n    tag_20:\n      dup1\n      0x2ab09d14\n      gt\n      tag_22\n      jumpi\n      dup1\n      0x2ab09d14\n      eq\n      tag_6\n      jumpi\n      dup1\n      0x2ccc8727\n      eq\n      tag_7\n      jumpi\n      dup1\n      0x3a98ef39\n      eq\n      tag_8\n      jumpi\n      dup1\n      0x44389524\n      eq\n      tag_9\n      jumpi\n      dup1\n      0x46fcff4c\n      eq\n      tag_10\n      jumpi\n      jump(tag_1)\n    tag_22:\n      dup1\n      0x013cf08b\n      eq\n      tag_2\n      jumpi\n      dup1\n      0x039383e6\n      eq\n      tag_3\n      jumpi\n      dup1\n      0x0d61b519\n      eq\n      tag_4\n      jumpi\n      dup1\n      0x1703a018\n      eq\n      tag_5\n      jumpi\n    tag_1:\n      0x00\n      dup1\n      revert\n        /* \"contracts/DAO.sol\":630:670  mapping(uint=>Proposal) public proposals */\n    tag_2:\n      callvalue\n      dup1\n      iszero\n      tag_23\n      jumpi\n      0x00\n      dup1\n      revert\n    tag_23:\n      pop\n      tag_24\n      0x04\n      dup1\n      calldatasize\n      sub\n      dup2\n      add\n      swap1\n      tag_25\n      swap2\n      swap1\n      tag_26\n      jump\t// in\n    tag_25:\n      tag_27\n      jump\t// in\n    tag_24:\n      mload(0x40)\n      tag_28\n      swap8\n      swap7\n      swap6\n      swap5\n      swap4\n      swap3\n      swap2\n      swap1\n      tag_29\n      jump\t// in\n    tag_28:\n      mload(0x40)\n      dup1\n      swap2\n      sub\n      swap1\n      return\n        /* \"contracts/DAO.sol\":2362:2805  function transferShare(uint amount,address to) public onlyInvestor(){... */\n    tag_3:\n      callvalue\n      dup1\n      iszero\n      tag_30\n      jumpi\n      0x00\n      dup1\n      revert\n    tag_30:\n      pop\n      tag_31\n      0x04\n      dup1\n      calldatasize\n      sub\n      dup2\n      add\n      swap1\n      tag_32\n      swap2\n      swap1\n      tag_33\n      jump\t// in\n    tag_32:\n      tag_34\n      jump\t// in\n    tag_31:\n      stop\n        /* \"contracts/DAO.sol\":3635:3945  function executeProposal(uint ProposalId) public onlyManager(){... */\n    tag_4:\n      callvalue\n      dup1\n      iszero\n      tag_35\n      jumpi\n      0x00\n      dup1\n      revert\n    tag_35:\n      pop\n      tag_36\n      0x04\n      dup1\n      calldatasize\n      sub\n      dup2\n      add\n      swap1\n      tag_37\n      swap2\n      swap1\n      tag_26\n      jump\t// in\n    tag_37:\n      tag_38\n      jump\t// in\n    tag_36:\n      stop\n        /* \"contracts/DAO.sol\":840:858  uint public quorum */\n    tag_5:\n      callvalue\n      dup1\n      iszero\n      tag_39\n      jumpi\n      0x00\n      dup1\n      revert\n    tag_39:\n      pop\n      tag_40\n      tag_41\n      jump\t// in\n    tag_40:\n      mload(0x40)\n      tag_42\n      swap2\n      swap1\n      tag_43\n      jump\t// in\n    tag_42:\n      mload(0x40)\n      dup1\n      swap2\n      sub\n      swap1\n      return\n        /* \"contracts/DAO.sol\":780:806  uint public nextProposalId */\n    tag_6:\n      callvalue\n      dup1\n      iszero\n      tag_44\n      jumpi\n      0x00\n      dup1\n      revert\n    tag_44:\n      pop\n      tag_45\n      tag_46\n      jump\t// in\n    tag_45:\n      mload(0x40)\n      tag_47\n      swap2\n      swap1\n      tag_43\n      jump\t// in\n    tag_47:\n      mload(0x40)\n      dup1\n      swap2\n      sub\n      swap1\n      return\n        /* \"contracts/DAO.sol\":593:623  address[] public investorsList */\n    tag_7:\n      callvalue\n      dup1\n      iszero\n      tag_48\n      jumpi\n      0x00\n      dup1\n      revert\n    tag_48:\n      pop\n      tag_49\n      0x04\n      dup1\n      calldatasize\n      sub\n      dup2\n      add\n      swap1\n      tag_50\n      swap2\n      swap1\n      tag_26\n      jump\t// in\n    tag_50:\n      tag_51\n      jump\t// in\n    tag_49:\n      mload(0x40)\n      tag_52\n      swap2\n      swap1\n      tag_53\n      jump\t// in\n    tag_52:\n      mload(0x40)\n      dup1\n      swap2\n      sub\n      swap1\n      return\n        /* \"contracts/DAO.sol\":679:702  uint public totalShares */\n    tag_8:\n      callvalue\n      dup1\n      iszero\n      tag_54\n      jumpi\n      0x00\n      dup1\n      revert\n    tag_54:\n      pop\n      tag_55\n      tag_56\n      jump\t// in\n    tag_55:\n      mload(0x40)\n      tag_57\n      swap2\n      swap1\n      tag_43\n      jump\t// in\n    tag_57:\n      mload(0x40)\n      dup1\n      swap2\n      sub\n      swap1\n      return\n        /* \"contracts/DAO.sol\":4071:4317  function proposalList() public view returns(Proposal[] memory){... */\n    tag_9:\n      callvalue\n      dup1\n      iszero\n      tag_58\n      jumpi\n      0x00\n      dup1\n      revert\n    tag_58:\n      pop\n      tag_59\n      tag_60\n      jump\t// in\n    tag_59:\n      mload(0x40)\n      tag_61\n      swap2\n      swap1\n      tag_62\n      jump\t// in\n    tag_61:\n      mload(0x40)\n      dup1\n      swap2\n      sub\n      swap1\n      return\n        /* \"contracts/DAO.sol\":709:735  uint public availableFunds */\n    tag_10:\n      callvalue\n      dup1\n      iszero\n      tag_63\n      jumpi\n      0x00\n      dup1\n      revert\n    tag_63:\n      pop\n      tag_64\n      tag_65\n      jump\t// in\n    tag_64:\n      mload(0x40)\n      tag_66\n      swap2\n      swap1\n      tag_43\n      jump\t// in\n    tag_66:\n      mload(0x40)\n      dup1\n      swap2\n      sub\n      swap1\n      return\n        /* \"contracts/DAO.sol\":865:887  address public manager */\n    tag_11:\n      callvalue\n      dup1\n      iszero\n      tag_67\n      jumpi\n      0x00\n      dup1\n      revert\n    tag_67:\n      pop\n      tag_68\n      tag_69\n      jump\t// in\n    tag_68:\n      mload(0x40)\n      tag_70\n      swap2\n      swap1\n      tag_53\n      jump\t// in\n    tag_70:\n      mload(0x40)\n      dup1\n      swap2\n      sub\n      swap1\n      return\n        /* \"contracts/DAO.sol\":1433:1810  function contribution() public payable{... */\n    tag_12:\n      tag_71\n      tag_72\n      jump\t// in\n    tag_71:\n      stop\n        /* \"contracts/DAO.sol\":2813:3151  function createProposal(string calldata description,uint amount,address payable recepient) public onlyManager{... */\n    tag_13:\n      callvalue\n      dup1\n      iszero\n      tag_73\n      jumpi\n      0x00\n      dup1\n      revert\n    tag_73:\n      pop\n      tag_74\n      0x04\n      dup1\n      calldatasize\n      sub\n      dup2\n      add\n      swap1\n      tag_75\n      swap2\n      swap1\n      tag_76\n      jump\t// in\n    tag_75:\n      tag_77\n      jump\t// in\n    tag_74:\n      stop\n        /* \"contracts/DAO.sol\":3159:3623  function voteProposal(uint proposalId) public onlyInvestor(){... */\n    tag_14:\n      callvalue\n      dup1\n      iszero\n      tag_78\n      jumpi\n      0x00\n      dup1\n      revert\n    tag_78:\n      pop\n      tag_79\n      0x04\n      dup1\n      calldatasize\n      sub\n      dup2\n      add\n      swap1\n      tag_80\n      swap2\n      swap1\n      tag_26\n      jump\t// in\n    tag_80:\n      tag_81\n      jump\t// in\n    tag_79:\n      stop\n        /* \"contracts/DAO.sol\":1818:2295  function redeemShare(uint amount) public onlyInvestor(){... */\n    tag_15:\n      callvalue\n      dup1\n      iszero\n      tag_82\n      jumpi\n      0x00\n      dup1\n      revert\n    tag_82:\n      pop\n      tag_83\n      0x04\n      dup1\n      calldatasize\n      sub\n      dup2\n      add\n      swap1\n      tag_84\n      swap2\n      swap1\n      tag_26\n      jump\t// in\n    tag_84:\n      tag_85\n      jump\t// in\n    tag_83:\n      stop\n        /* \"contracts/DAO.sol\":461:513  mapping(address=>mapping(uint=>bool)) public isVoted */\n    tag_16:\n      callvalue\n      dup1\n      iszero\n      tag_86\n      jumpi\n      0x00\n      dup1\n      revert\n    tag_86:\n      pop\n      tag_87\n      0x04\n      dup1\n      calldatasize\n      sub\n      dup2\n      add\n      swap1\n      tag_88\n      swap2\n      swap1\n      tag_89\n      jump\t// in\n    tag_88:\n      tag_90\n      jump\t// in\n    tag_87:\n      mload(0x40)\n      tag_91\n      swap2\n      swap1\n      tag_92\n      jump\t// in\n    tag_91:\n      mload(0x40)\n      dup1\n      swap2\n      sub\n      swap1\n      return\n        /* \"contracts/DAO.sol\":742:773  uint public contributionTimeEnd */\n    tag_17:\n      callvalue\n      dup1\n      iszero\n      tag_93\n      jumpi\n      0x00\n      dup1\n      revert\n    tag_93:\n      pop\n      tag_94\n      tag_95\n      jump\t// in\n    tag_94:\n      mload(0x40)\n      tag_96\n      swap2\n      swap1\n      tag_43\n      jump\t// in\n    tag_96:\n      mload(0x40)\n      dup1\n      swap2\n      sub\n      swap1\n      return\n        /* \"contracts/DAO.sol\":813:833  uint public voteTime */\n    tag_18:\n      callvalue\n      dup1\n      iszero\n      tag_97\n      jumpi\n      0x00\n      dup1\n      revert\n    tag_97:\n      pop\n      tag_98\n      tag_99\n      jump\t// in\n    tag_98:\n      mload(0x40)\n      tag_100\n      swap2\n      swap1\n      tag_43\n      jump\t// in\n    tag_100:\n      mload(0x40)\n      dup1\n      swap2\n      sub\n      swap1\n      return\n        /* \"contracts/DAO.sol\":413:454  mapping(address=>uint) public numOfshares */\n    tag_19:\n      callvalue\n      dup1\n      iszero\n      tag_101\n      jumpi\n      0x00\n      dup1\n      revert\n    tag_101:\n      pop\n      tag_102\n      0x04\n      dup1\n      calldatasize\n      sub\n      dup2\n      add\n      swap1\n      tag_103\n      swap2\n      swap1\n      tag_104\n      jump\t// in\n    tag_103:\n      tag_105\n      jump\t// in\n    tag_102:\n      mload(0x40)\n      tag_106\n      swap2\n      swap1\n      tag_43\n      jump\t// in\n    tag_106:\n      mload(0x40)\n      dup1\n      swap2\n      sub\n      swap1\n      return\n        /* \"contracts/DAO.sol\":630:670  mapping(uint=>Proposal) public proposals */\n    tag_27:\n      mstore(0x20, 0x04)\n      dup1\n      0x00\n      mstore\n      keccak256(0x00, 0x40)\n      0x00\n      swap2\n      pop\n      swap1\n      pop\n      dup1\n      0x00\n      add\n      sload\n      swap1\n      dup1\n      0x01\n      add\n      dup1\n      sload\n      tag_107\n      swap1\n      tag_108\n      jump\t// in\n    tag_107:\n      dup1\n      0x1f\n      add\n      0x20\n      dup1\n      swap2\n      div\n      mul\n      0x20\n      add\n      mload(0x40)\n      swap1\n      dup2\n      add\n      0x40\n      mstore\n      dup1\n      swap3\n      swap2\n      swap1\n      dup2\n      dup2\n      mstore\n      0x20\n      add\n      dup3\n      dup1\n      sload\n      tag_109\n      swap1\n      tag_108\n      jump\t// in\n    tag_109:\n      dup1\n      iszero\n      tag_110\n      jumpi\n      dup1\n      0x1f\n      lt\n      tag_111\n      jumpi\n      0x0100\n      dup1\n      dup4\n      sload\n      div\n      mul\n      dup4\n      mstore\n      swap2\n      0x20\n      add\n      swap2\n      jump(tag_110)\n    tag_111:\n      dup3\n      add\n      swap2\n      swap1\n      0x00\n      mstore\n      keccak256(0x00, 0x20)\n      swap1\n    tag_112:\n      dup2\n      sload\n      dup2\n      mstore\n      swap1\n      0x01\n      add\n      swap1\n      0x20\n      add\n      dup1\n      dup4\n      gt\n      tag_112\n      jumpi\n      dup3\n      swap1\n      sub\n      0x1f\n      and\n      dup3\n      add\n      swap2\n    tag_110:\n      pop\n      pop\n      pop\n      pop\n      pop\n      swap1\n      dup1\n      0x02\n      add\n      sload\n      swap1\n      dup1\n      0x03\n      add\n      0x00\n      swap1\n      sload\n      swap1\n      0x0100\n      exp\n      swap1\n      div\n      0xffffffffffffffffffffffffffffffffffffffff\n      and\n      swap1\n      dup1\n      0x04\n      add\n      sload\n      swap1\n      dup1\n      0x05\n      add\n      sload\n      swap1\n      dup1\n      0x06\n      add\n      0x00\n      swap1\n      sload\n      swap1\n      0x0100\n      exp\n      swap1\n      div\n      0xff\n      and\n      swap1\n      pop\n      dup8\n      jump\t// out\n        /* \"contracts/DAO.sol\":2362:2805  function transferShare(uint amount,address to) public onlyInvestor(){... */\n    tag_34:\n        /* \"contracts/DAO.sol\":1258:1262  true */\n      0x01\n        /* \"contracts/DAO.sol\":1234:1262  isInvestor[msg.sender]==true */\n      iszero\n      iszero\n        /* \"contracts/DAO.sol\":1234:1244  isInvestor */\n      0x00\n        /* \"contracts/DAO.sol\":1234:1256  isInvestor[msg.sender] */\n      dup1\n        /* \"contracts/DAO.sol\":1245:1255  msg.sender */\n      caller\n        /* \"contracts/DAO.sol\":1234:1256  isInvestor[msg.sender] */\n      0xffffffffffffffffffffffffffffffffffffffff\n      and\n      0xffffffffffffffffffffffffffffffffffffffff\n      and\n      dup2\n      mstore\n      0x20\n      add\n      swap1\n      dup2\n      mstore\n      0x20\n      add\n      0x00\n      keccak256\n      0x00\n      swap1\n      sload\n      swap1\n      0x0100\n      exp\n      swap1\n      div\n      0xff\n      and\n        /* \"contracts/DAO.sol\":1234:1262  isInvestor[msg.sender]==true */\n      iszero\n      iszero\n      eq\n        /* \"contracts/DAO.sol\":1226:1289  require(isInvestor[msg.sender]==true,\"You are not an investor\") */\n      tag_114\n      jumpi\n      mload(0x40)\n      0x08c379a000000000000000000000000000000000000000000000000000000000\n      dup2\n      mstore\n      0x04\n      add\n      tag_115\n      swap1\n      tag_116\n      jump\t// in\n    tag_115:\n      mload(0x40)\n      dup1\n      swap2\n      sub\n      swap1\n      revert\n    tag_114:\n        /* \"contracts/DAO.sol\":2474:2480  amount */\n      dup2\n        /* \"contracts/DAO.sol\":2449:2460  numOfshares */\n      0x01\n        /* \"contracts/DAO.sol\":2449:2472  numOfshares[msg.sender] */\n      0x00\n        /* \"contracts/DAO.sol\":2461:2471  msg.sender */\n      caller\n        /* \"contracts/DAO.sol\":2449:2472  numOfshares[msg.sender] */\n      0xffffffffffffffffffffffffffffffffffffffff\n      and\n      0xffffffffffffffffffffffffffffffffffffffff\n      and\n      dup2\n      mstore\n      0x20\n      add\n      swap1\n      dup2\n      mstore\n      0x20\n      add\n      0x00\n      keccak256\n      sload\n        /* \"contracts/DAO.sol\":2449:2480  numOfshares[msg.sender]>=amount */\n      lt\n      iszero\n        /* \"contracts/DAO.sol\":2441:2512  require(numOfshares[msg.sender]>=amount,\"Not don't have enough shares\") */\n      tag_118\n      jumpi\n      mload(0x40)\n      0x08c379a000000000000000000000000000000000000000000000000000000000\n      dup2\n      mstore\n      0x04\n      add\n      tag_119\n      swap1\n      tag_120\n      jump\t// in\n    tag_119:\n      mload(0x40)\n      dup1\n      swap2\n      sub\n      swap1\n      revert\n    tag_118:\n        /* \"contracts/DAO.sol\":2548:2554  amount */\n      dup2\n        /* \"contracts/DAO.sol\":2523:2534  numOfshares */\n      0x01\n        /* \"contracts/DAO.sol\":2523:2546  numOfshares[msg.sender] */\n      0x00\n        /* \"contracts/DAO.sol\":2535:2545  msg.sender */\n      caller\n        /* \"contracts/DAO.sol\":2523:2546  numOfshares[msg.sender] */\n      0xffffffffffffffffffffffffffffffffffffffff\n      and\n      0xffffffffffffffffffffffffffffffffffffffff\n      and\n      dup2\n      mstore\n      0x20\n      add\n      swap1\n      dup2\n      mstore\n      0x20\n      add\n      0x00\n      keccak256\n      0x00\n        /* \"contracts/DAO.sol\":2523:2554  numOfshares[msg.sender]-=amount */\n      dup3\n      dup3\n      sload\n      tag_121\n      swap2\n      swap1\n      tag_122\n      jump\t// in\n    tag_121:\n      swap3\n      pop\n      pop\n      dup2\n      swap1\n      sstore\n      pop\n        /* \"contracts/DAO.sol\":2593:2594  0 */\n      0x00\n        /* \"contracts/DAO.sol\":2568:2579  numOfshares */\n      0x01\n        /* \"contracts/DAO.sol\":2568:2591  numOfshares[msg.sender] */\n      0x00\n        /* \"contracts/DAO.sol\":2580:2590  msg.sender */\n      caller\n        /* \"contracts/DAO.sol\":2568:2591  numOfshares[msg.sender] */\n      0xffffffffffffffffffffffffffffffffffffffff\n      and\n      0xffffffffffffffffffffffffffffffffffffffff\n      and\n      dup2\n      mstore\n      0x20\n      add\n      swap1\n      dup2\n      mstore\n      0x20\n      add\n      0x00\n      keccak256\n      sload\n        /* \"contracts/DAO.sol\":2568:2594  numOfshares[msg.sender]==0 */\n      sub\n        /* \"contracts/DAO.sol\":2565:2650  if(numOfshares[msg.sender]==0){... */\n      tag_123\n      jumpi\n        /* \"contracts/DAO.sol\":2633:2638  false */\n      0x00\n        /* \"contracts/DAO.sol\":2610:2620  isInvestor */\n      dup1\n        /* \"contracts/DAO.sol\":2610:2632  isInvestor[msg.sender] */\n      0x00\n        /* \"contracts/DAO.sol\":2621:2631  msg.sender */\n      caller\n        /* \"contracts/DAO.sol\":2610:2632  isInvestor[msg.sender] */\n      0xffffffffffffffffffffffffffffffffffffffff\n      and\n      0xffffffffffffffffffffffffffffffffffffffff\n      and\n      dup2\n      mstore\n      0x20\n      add\n      swap1\n      dup2\n      mstore\n      0x20\n      add\n      0x00\n      keccak256\n      0x00\n        /* \"contracts/DAO.sol\":2610:2638  isInvestor[msg.sender]=false */\n      0x0100\n      exp\n      dup2\n      sload\n      dup2\n      0xff\n      mul\n      not\n      and\n      swap1\n      dup4\n      iszero\n      iszero\n      mul\n      or\n      swap1\n      sstore\n      pop\n        /* \"contracts/DAO.sol\":2565:2650  if(numOfshares[msg.sender]==0){... */\n    tag_123:\n        /* \"contracts/DAO.sol\":2679:2684  false */\n      0x00\n        /* \"contracts/DAO.sol\":2663:2684  isInvestor[to]==false */\n      iszero\n      iszero\n        /* \"contracts/DAO.sol\":2663:2673  isInvestor */\n      0x00\n        /* \"contracts/DAO.sol\":2663:2677  isInvestor[to] */\n      dup1\n        /* \"contracts/DAO.sol\":2674:2676  to */\n      dup4\n        /* \"contracts/DAO.sol\":2663:2677  isInvestor[to] */\n      0xffffffffffffffffffffffffffffffffffffffff\n      and\n      0xffffffffffffffffffffffffffffffffffffffff\n      and\n      dup2\n      mstore\n      0x20\n      add\n      swap1\n      dup2\n      mstore\n      0x20\n      add\n      0x00\n      keccak256\n      0x00\n      swap1\n      sload\n      swap1\n      0x0100\n      exp\n      swap1\n      div\n      0xff\n      and\n        /* \"contracts/DAO.sol\":2663:2684  isInvestor[to]==false */\n      iszero\n      iszero\n      sub\n        /* \"contracts/DAO.sol\":2660:2734  if(isInvestor[to]==false){... */\n      tag_124\n      jumpi\n        /* \"contracts/DAO.sol\":2700:2713  investorsList */\n      0x03\n        /* \"contracts/DAO.sol\":2719:2721  to */\n      dup2\n        /* \"contracts/DAO.sol\":2700:2722  investorsList.push(to) */\n      swap1\n      dup1\n      0x01\n      dup2\n      sload\n      add\n      dup1\n      dup3\n      sstore\n      dup1\n      swap2\n      pop\n      pop\n      0x01\n      swap1\n      sub\n      swap1\n      0x00\n      mstore\n      keccak256(0x00, 0x20)\n      add\n      0x00\n      swap1\n      swap2\n      swap1\n      swap2\n      swap1\n      swap2\n      0x0100\n      exp\n      dup2\n      sload\n      dup2\n      0xffffffffffffffffffffffffffffffffffffffff\n      mul\n      not\n      and\n      swap1\n      dup4\n      0xffffffffffffffffffffffffffffffffffffffff\n      and\n      mul\n      or\n      swap1\n      sstore\n      pop\n        /* \"contracts/DAO.sol\":2660:2734  if(isInvestor[to]==false){... */\n    tag_124:\n        /* \"contracts/DAO.sol\":2759:2763  true */\n      0x01\n        /* \"contracts/DAO.sol\":2744:2754  isInvestor */\n      0x00\n        /* \"contracts/DAO.sol\":2744:2758  isInvestor[to] */\n      dup1\n        /* \"contracts/DAO.sol\":2755:2757  to */\n      dup4\n        /* \"contracts/DAO.sol\":2744:2758  isInvestor[to] */\n      0xffffffffffffffffffffffffffffffffffffffff\n      and\n      0xffffffffffffffffffffffffffffffffffffffff\n      and\n      dup2\n      mstore\n      0x20\n      add\n      swap1\n      dup2\n      mstore\n      0x20\n      add\n      0x00\n      keccak256\n      0x00\n        /* \"contracts/DAO.sol\":2744:2763  isInvestor[to]=true */\n      0x0100\n      exp\n      dup2\n      sload\n      dup2\n      0xff\n      mul\n      not\n      and\n      swap1\n      dup4\n      iszero\n      iszero\n      mul\n      or\n      swap1\n      sstore\n      pop\n        /* \"contracts/DAO.sol\":2791:2797  amount */\n      dup2\n        /* \"contracts/DAO.sol\":2774:2785  numOfshares */\n      0x01\n        /* \"contracts/DAO.sol\":2774:2789  numOfshares[to] */\n      0x00\n        /* \"contracts/DAO.sol\":2786:2788  to */\n      dup4\n        /* \"contracts/DAO.sol\":2774:2789  numOfshares[to] */\n      0xffffffffffffffffffffffffffffffffffffffff\n      and\n      0xffffffffffffffffffffffffffffffffffffffff\n      and\n      dup2\n      mstore\n      0x20\n      add\n      swap1\n      dup2\n      mstore\n      0x20\n      add\n      0x00\n      keccak256\n      0x00\n        /* \"contracts/DAO.sol\":2774:2797  numOfshares[to]+=amount */\n      dup3\n      dup3\n      sload\n      tag_126\n      swap2\n      swap1\n      tag_127\n      jump\t// in\n    tag_126:\n      swap3\n      pop\n      pop\n      dup2\n      swap1\n      sstore\n      pop\n        /* \"contracts/DAO.sol\":2362:2805  function transferShare(uint amount,address to) public onlyInvestor(){... */\n      pop\n      pop\n      jump\t// out\n        /* \"contracts/DAO.sol\":3635:3945  function executeProposal(uint ProposalId) public onlyManager(){... */\n    tag_38:\n        /* \"contracts/DAO.sol\":1367:1377  msg.sender */\n      caller\n        /* \"contracts/DAO.sol\":1358:1377  manager==msg.sender */\n      0xffffffffffffffffffffffffffffffffffffffff\n      and\n        /* \"contracts/DAO.sol\":1358:1365  manager */\n      0x0b\n      0x00\n      swap1\n      sload\n      swap1\n      0x0100\n      exp\n      swap1\n      div\n      0xffffffffffffffffffffffffffffffffffffffff\n      and\n        /* \"contracts/DAO.sol\":1358:1377  manager==msg.sender */\n      0xffffffffffffffffffffffffffffffffffffffff\n      and\n      eq\n        /* \"contracts/DAO.sol\":1350:1404  require(manager==msg.sender,\"You are not the manager\") */\n      tag_129\n      jumpi\n      mload(0x40)\n      0x08c379a000000000000000000000000000000000000000000000000000000000\n      dup2\n      mstore\n      0x04\n      add\n      tag_130\n      swap1\n      tag_131\n      jump\t// in\n    tag_130:\n      mload(0x40)\n      dup1\n      swap2\n      sub\n      swap1\n      revert\n    tag_129:\n        /* \"contracts/DAO.sol\":3708:3733  Proposal storage proposal */\n      0x00\n        /* \"contracts/DAO.sol\":3734:3743  proposals */\n      0x04\n        /* \"contracts/DAO.sol\":3734:3755  proposals[ProposalId] */\n      0x00\n        /* \"contracts/DAO.sol\":3744:3754  ProposalId */\n      dup4\n        /* \"contracts/DAO.sol\":3734:3755  proposals[ProposalId] */\n      dup2\n      mstore\n      0x20\n      add\n      swap1\n      dup2\n      mstore\n      0x20\n      add\n      0x00\n      keccak256\n        /* \"contracts/DAO.sol\":3708:3755  Proposal storage proposal=proposals[ProposalId] */\n      swap1\n      pop\n        /* \"contracts/DAO.sol\":3810:3816  quorum */\n      sload(0x0a)\n        /* \"contracts/DAO.sol\":3796:3807  totalShares */\n      sload(0x05)\n        /* \"contracts/DAO.sol\":3791:3794  100 */\n      0x64\n        /* \"contracts/DAO.sol\":3776:3784  proposal */\n      dup4\n        /* \"contracts/DAO.sol\":3776:3790  proposal.votes */\n      0x04\n      add\n      sload\n        /* \"contracts/DAO.sol\":3776:3794  proposal.votes*100 */\n      tag_133\n      swap2\n      swap1\n      tag_134\n      jump\t// in\n    tag_133:\n        /* \"contracts/DAO.sol\":3775:3807  (proposal.votes*100)/totalShares */\n      tag_135\n      swap2\n      swap1\n      tag_136\n      jump\t// in\n    tag_135:\n        /* \"contracts/DAO.sol\":3774:3816  ((proposal.votes*100)/totalShares)>=quorum */\n      lt\n      iszero\n        /* \"contracts/DAO.sol\":3766:3846  require(((proposal.votes*100)/totalShares)>=quorum,\"Majority does not suppport\") */\n      tag_137\n      jumpi\n      mload(0x40)\n      0x08c379a000000000000000000000000000000000000000000000000000000000\n      dup2\n      mstore\n      0x04\n      add\n      tag_138\n      swap1\n      tag_139\n      jump\t// in\n    tag_138:\n      mload(0x40)\n      dup1\n      swap2\n      sub\n      swap1\n      revert\n    tag_137:\n        /* \"contracts/DAO.sol\":3877:3881  true */\n      0x01\n        /* \"contracts/DAO.sol\":3857:3865  proposal */\n      dup2\n        /* \"contracts/DAO.sol\":3857:3876  proposal.isExecuted */\n      0x06\n      add\n      0x00\n        /* \"contracts/DAO.sol\":3857:3881  proposal.isExecuted=true */\n      0x0100\n      exp\n      dup2\n      sload\n      dup2\n      0xff\n      mul\n      not\n      and\n      swap1\n      dup4\n      iszero\n      iszero\n      mul\n      or\n      swap1\n      sstore\n      pop\n        /* \"contracts/DAO.sol\":3892:3937  _transfer(proposal.amount,proposal.recepient) */\n      tag_140\n        /* \"contracts/DAO.sol\":3902:3910  proposal */\n      dup2\n        /* \"contracts/DAO.sol\":3902:3917  proposal.amount */\n      0x02\n      add\n      sload\n        /* \"contracts/DAO.sol\":3918:3926  proposal */\n      dup3\n        /* \"contracts/DAO.sol\":3918:3936  proposal.recepient */\n      0x03\n      add\n      0x00\n      swap1\n      sload\n      swap1\n      0x0100\n      exp\n      swap1\n      div\n      0xffffffffffffffffffffffffffffffffffffffff\n      and\n        /* \"contracts/DAO.sol\":3892:3901  _transfer */\n      tag_141\n        /* \"contracts/DAO.sol\":3892:3937  _transfer(proposal.amount,proposal.recepient) */\n      jump\t// in\n    tag_140:\n        /* \"contracts/DAO.sol\":3697:3945  {... */\n      pop\n        /* \"contracts/DAO.sol\":3635:3945  function executeProposal(uint ProposalId) public onlyManager(){... */\n      pop\n      jump\t// out\n        /* \"contracts/DAO.sol\":840:858  uint public quorum */\n    tag_41:\n      sload(0x0a)\n      dup2\n      jump\t// out\n        /* \"contracts/DAO.sol\":780:806  uint public nextProposalId */\n    tag_46:\n      sload(0x08)\n      dup2\n      jump\t// out\n        /* \"contracts/DAO.sol\":593:623  address[] public investorsList */\n    tag_51:\n      0x03\n      dup2\n      dup2\n      sload\n      dup2\n      lt\n      tag_142\n      jumpi\n      0x00\n      dup1\n      revert\n    tag_142:\n      swap1\n      0x00\n      mstore\n      keccak256(0x00, 0x20)\n      add\n      0x00\n      swap2\n      pop\n      sload\n      swap1\n      0x0100\n      exp\n      swap1\n      div\n      0xffffffffffffffffffffffffffffffffffffffff\n      and\n      dup2\n      jump\t// out\n        /* \"contracts/DAO.sol\":679:702  uint public totalShares */\n    tag_56:\n      sload(0x05)\n      dup2\n      jump\t// out\n        /* \"contracts/DAO.sol\":4071:4317  function proposalList() public view returns(Proposal[] memory){... */\n    tag_60:\n        /* \"contracts/DAO.sol\":4115:4132  Proposal[] memory */\n      0x60\n        /* \"contracts/DAO.sol\":4144:4165  Proposal[] memory arr */\n      0x00\n        /* \"contracts/DAO.sol\":4196:4197  1 */\n      0x01\n        /* \"contracts/DAO.sol\":4181:4195  nextProposalId */\n      sload(0x08)\n        /* \"contracts/DAO.sol\":4181:4197  nextProposalId-1 */\n      tag_145\n      swap2\n      swap1\n      tag_122\n      jump\t// in\n    tag_145:\n        /* \"contracts/DAO.sol\":4166:4198  new Proposal[](nextProposalId-1) */\n      0xffffffffffffffff\n      dup2\n      gt\n      iszero\n      tag_146\n      jumpi\n      tag_147\n      tag_148\n      jump\t// in\n    tag_147:\n    tag_146:\n      mload(0x40)\n      swap1\n      dup1\n      dup3\n      mstore\n      dup1\n      0x20\n      mul\n      0x20\n      add\n      dup3\n      add\n      0x40\n      mstore\n      dup1\n      iszero\n      tag_149\n      jumpi\n      dup2\n      0x20\n      add\n    tag_150:\n      tag_151\n      tag_152\n      jump\t// in\n    tag_151:\n      dup2\n      mstore\n      0x20\n      add\n      swap1\n      0x01\n      swap1\n      sub\n      swap1\n      dup2\n      tag_150\n      jumpi\n      swap1\n      pop\n    tag_149:\n      pop\n        /* \"contracts/DAO.sol\":4144:4198  Proposal[] memory arr=new Proposal[](nextProposalId-1) */\n      swap1\n      pop\n        /* \"contracts/DAO.sol\":4213:4219  uint i */\n      0x00\n        /* \"contracts/DAO.sol\":4209:4289  for(uint i=0;i<nextProposalId;i++){... */\n    tag_153:\n        /* \"contracts/DAO.sol\":4224:4238  nextProposalId */\n      sload(0x08)\n        /* \"contracts/DAO.sol\":4222:4223  i */\n      dup2\n        /* \"contracts/DAO.sol\":4222:4238  i<nextProposalId */\n      lt\n        /* \"contracts/DAO.sol\":4209:4289  for(uint i=0;i<nextProposalId;i++){... */\n      iszero\n      tag_154\n      jumpi\n        /* \"contracts/DAO.sol\":4265:4274  proposals */\n      0x04\n        /* \"contracts/DAO.sol\":4265:4277  proposals[i] */\n      0x00\n        /* \"contracts/DAO.sol\":4275:4276  i */\n      dup3\n        /* \"contracts/DAO.sol\":4265:4277  proposals[i] */\n      dup2\n      mstore\n      0x20\n      add\n      swap1\n      dup2\n      mstore\n      0x20\n      add\n      0x00\n      keccak256\n        /* \"contracts/DAO.sol\":4258:4277  arr[i]=proposals[i] */\n      mload(0x40)\n      dup1\n      0xe0\n      add\n      0x40\n      mstore\n      swap1\n      dup2\n      0x00\n      dup3\n      add\n      sload\n      dup2\n      mstore\n      0x20\n      add\n      0x01\n      dup3\n      add\n      dup1\n      sload\n      tag_156\n      swap1\n      tag_108\n      jump\t// in\n    tag_156:\n      dup1\n      0x1f\n      add\n      0x20\n      dup1\n      swap2\n      div\n      mul\n      0x20\n      add\n      mload(0x40)\n      swap1\n      dup2\n      add\n      0x40\n      mstore\n      dup1\n      swap3\n      swap2\n      swap1\n      dup2\n      dup2\n      mstore\n      0x20\n      add\n      dup3\n      dup1\n      sload\n      tag_157\n      swap1\n      tag_108\n      jump\t// in\n    tag_157:\n      dup1\n      iszero\n      tag_158\n      jumpi\n      dup1\n      0x1f\n      lt\n      tag_159\n      jumpi\n      0x0100\n      dup1\n      dup4\n      sload\n      div\n      mul\n      dup4\n      mstore\n      swap2\n      0x20\n      add\n      swap2\n      jump(tag_158)\n    tag_159:\n      dup3\n      add\n      swap2\n      swap1\n      0x00\n      mstore\n      keccak256(0x00, 0x20)\n      swap1\n    tag_160:\n      dup2\n      sload\n      dup2\n      mstore\n      swap1\n      0x01\n      add\n      swap1\n      0x20\n      add\n      dup1\n      dup4\n      gt\n      tag_160\n      jumpi\n      dup3\n      swap1\n      sub\n      0x1f\n      and\n      dup3\n      add\n      swap2\n    tag_158:\n      pop\n      pop\n      pop\n      pop\n      pop\n      dup2\n      mstore\n      0x20\n      add\n      0x02\n      dup3\n      add\n      sload\n      dup2\n      mstore\n      0x20\n      add\n      0x03\n      dup3\n      add\n      0x00\n      swap1\n      sload\n      swap1\n      0x0100\n      exp\n      swap1\n      div\n      0xffffffffffffffffffffffffffffffffffffffff\n      and\n      0xffffffffffffffffffffffffffffffffffffffff\n      and\n      0xffffffffffffffffffffffffffffffffffffffff\n      and\n      dup2\n      mstore\n      0x20\n      add\n      0x04\n      dup3\n      add\n      sload\n      dup2\n      mstore\n      0x20\n      add\n      0x05\n      dup3\n      add\n      sload\n      dup2\n      mstore\n      0x20\n      add\n      0x06\n      dup3\n      add\n      0x00\n      swap1\n      sload\n      swap1\n      0x0100\n      exp\n      swap1\n      div\n      0xff\n      and\n      iszero\n      iszero\n      iszero\n      iszero\n      dup2\n      mstore\n      pop\n      pop\n        /* \"contracts/DAO.sol\":4258:4261  arr */\n      dup3\n        /* \"contracts/DAO.sol\":4262:4263  i */\n      dup3\n        /* \"contracts/DAO.sol\":4258:4264  arr[i] */\n      dup2\n      mload\n      dup2\n      lt\n      tag_161\n      jumpi\n      tag_162\n      tag_163\n      jump\t// in\n    tag_162:\n    tag_161:\n      0x20\n      mul\n      0x20\n      add\n      add\n        /* \"contracts/DAO.sol\":4258:4277  arr[i]=proposals[i] */\n      dup2\n      swap1\n      mstore\n      pop\n        /* \"contracts/DAO.sol\":4239:4242  i++ */\n      dup1\n      dup1\n      0x01\n      add\n      swap2\n      pop\n      pop\n        /* \"contracts/DAO.sol\":4209:4289  for(uint i=0;i<nextProposalId;i++){... */\n      jump(tag_153)\n    tag_154:\n      pop\n        /* \"contracts/DAO.sol\":4306:4309  arr */\n      dup1\n        /* \"contracts/DAO.sol\":4299:4309  return arr */\n      swap2\n      pop\n      pop\n        /* \"contracts/DAO.sol\":4071:4317  function proposalList() public view returns(Proposal[] memory){... */\n      swap1\n      jump\t// out\n        /* \"contracts/DAO.sol\":709:735  uint public availableFunds */\n    tag_65:\n      sload(0x06)\n      dup2\n      jump\t// out\n        /* \"contracts/DAO.sol\":865:887  address public manager */\n    tag_69:\n      0x0b\n      0x00\n      swap1\n      sload\n      swap1\n      0x0100\n      exp\n      swap1\n      div\n      0xffffffffffffffffffffffffffffffffffffffff\n      and\n      dup2\n      jump\t// out\n        /* \"contracts/DAO.sol\":1433:1810  function contribution() public payable{... */\n    tag_72:\n        /* \"contracts/DAO.sol\":1507:1526  contributionTimeEnd */\n      sload(0x07)\n        /* \"contracts/DAO.sol\":1490:1505  block.timestamp */\n      timestamp\n        /* \"contracts/DAO.sol\":1490:1526  block.timestamp<=contributionTimeEnd */\n      gt\n      iszero\n        /* \"contracts/DAO.sol\":1482:1553  require(block.timestamp<=contributionTimeEnd,\"Contribution Time Ended\") */\n      tag_165\n      jumpi\n      mload(0x40)\n      0x08c379a000000000000000000000000000000000000000000000000000000000\n      dup2\n      mstore\n      0x04\n      add\n      tag_166\n      swap1\n      tag_167\n      jump\t// in\n    tag_166:\n      mload(0x40)\n      dup1\n      swap2\n      sub\n      swap1\n      revert\n    tag_165:\n        /* \"contracts/DAO.sol\":1582:1583  0 */\n      0x00\n        /* \"contracts/DAO.sol\":1572:1581  msg.value */\n      callvalue\n        /* \"contracts/DAO.sol\":1572:1583  msg.value>0 */\n      gt\n        /* \"contracts/DAO.sol\":1564:1609  require(msg.value>0,\"Send more than 0 ether\") */\n      tag_168\n      jumpi\n      mload(0x40)\n      0x08c379a000000000000000000000000000000000000000000000000000000000\n      dup2\n      mstore\n      0x04\n      add\n      tag_169\n      swap1\n      tag_170\n      jump\t// in\n    tag_169:\n      mload(0x40)\n      dup1\n      swap2\n      sub\n      swap1\n      revert\n    tag_168:\n        /* \"contracts/DAO.sol\":1643:1647  true */\n      0x01\n        /* \"contracts/DAO.sol\":1620:1630  isInvestor */\n      0x00\n        /* \"contracts/DAO.sol\":1620:1642  isInvestor[msg.sender] */\n      dup1\n        /* \"contracts/DAO.sol\":1631:1641  msg.sender */\n      caller\n        /* \"contracts/DAO.sol\":1620:1642  isInvestor[msg.sender] */\n      0xffffffffffffffffffffffffffffffffffffffff\n      and\n      0xffffffffffffffffffffffffffffffffffffffff\n      and\n      dup2\n      mstore\n      0x20\n      add\n      swap1\n      dup2\n      mstore\n      0x20\n      add\n      0x00\n      keccak256\n      0x00\n        /* \"contracts/DAO.sol\":1620:1647  isInvestor[msg.sender]=true */\n      0x0100\n      exp\n      dup2\n      sload\n      dup2\n      0xff\n      mul\n      not\n      and\n      swap1\n      dup4\n      iszero\n      iszero\n      mul\n      or\n      swap1\n      sstore\n      pop\n        /* \"contracts/DAO.sol\":1683:1692  msg.value */\n      callvalue\n        /* \"contracts/DAO.sol\":1658:1669  numOfshares */\n      0x01\n        /* \"contracts/DAO.sol\":1658:1681  numOfshares[msg.sender] */\n      0x00\n        /* \"contracts/DAO.sol\":1670:1680  msg.sender */\n      caller\n        /* \"contracts/DAO.sol\":1658:1681  numOfshares[msg.sender] */\n      0xffffffffffffffffffffffffffffffffffffffff\n      and\n      0xffffffffffffffffffffffffffffffffffffffff\n      and\n      dup2\n      mstore\n      0x20\n      add\n      swap1\n      dup2\n      mstore\n      0x20\n      add\n      0x00\n      keccak256\n      0x00\n        /* \"contracts/DAO.sol\":1658:1692  numOfshares[msg.sender]+=msg.value */\n      dup3\n      dup3\n      sload\n      tag_171\n      swap2\n      swap1\n      tag_127\n      jump\t// in\n    tag_171:\n      swap3\n      pop\n      pop\n      dup2\n      swap1\n      sstore\n      pop\n        /* \"contracts/DAO.sol\":1716:1725  msg.value */\n      callvalue\n        /* \"contracts/DAO.sol\":1703:1714  totalShares */\n      0x05\n      0x00\n        /* \"contracts/DAO.sol\":1703:1725  totalShares+=msg.value */\n      dup3\n      dup3\n      sload\n      tag_172\n      swap2\n      swap1\n      tag_127\n      jump\t// in\n    tag_172:\n      swap3\n      pop\n      pop\n      dup2\n      swap1\n      sstore\n      pop\n        /* \"contracts/DAO.sol\":1752:1761  msg.value */\n      callvalue\n        /* \"contracts/DAO.sol\":1736:1750  availableFunds */\n      0x06\n      0x00\n        /* \"contracts/DAO.sol\":1736:1761  availableFunds+=msg.value */\n      dup3\n      dup3\n      sload\n      tag_173\n      swap2\n      swap1\n      tag_127\n      jump\t// in\n    tag_173:\n      swap3\n      pop\n      pop\n      dup2\n      swap1\n      sstore\n      pop\n        /* \"contracts/DAO.sol\":1772:1785  investorsList */\n      0x03\n        /* \"contracts/DAO.sol\":1791:1801  msg.sender */\n      caller\n        /* \"contracts/DAO.sol\":1772:1802  investorsList.push(msg.sender) */\n      swap1\n      dup1\n      0x01\n      dup2\n      sload\n      add\n      dup1\n      dup3\n      sstore\n      dup1\n      swap2\n      pop\n      pop\n      0x01\n      swap1\n      sub\n      swap1\n      0x00\n      mstore\n      keccak256(0x00, 0x20)\n      add\n      0x00\n      swap1\n      swap2\n      swap1\n      swap2\n      swap1\n      swap2\n      0x0100\n      exp\n      dup2\n      sload\n      dup2\n      0xffffffffffffffffffffffffffffffffffffffff\n      mul\n      not\n      and\n      swap1\n      dup4\n      0xffffffffffffffffffffffffffffffffffffffff\n      and\n      mul\n      or\n      swap1\n      sstore\n      pop\n        /* \"contracts/DAO.sol\":1433:1810  function contribution() public payable{... */\n      jump\t// out\n        /* \"contracts/DAO.sol\":2813:3151  function createProposal(string calldata description,uint amount,address payable recepient) public onlyManager{... */\n    tag_77:\n        /* \"contracts/DAO.sol\":1367:1377  msg.sender */\n      caller\n        /* \"contracts/DAO.sol\":1358:1377  manager==msg.sender */\n      0xffffffffffffffffffffffffffffffffffffffff\n      and\n        /* \"contracts/DAO.sol\":1358:1365  manager */\n      0x0b\n      0x00\n      swap1\n      sload\n      swap1\n      0x0100\n      exp\n      swap1\n      div\n      0xffffffffffffffffffffffffffffffffffffffff\n      and\n        /* \"contracts/DAO.sol\":1358:1377  manager==msg.sender */\n      0xffffffffffffffffffffffffffffffffffffffff\n      and\n      eq\n        /* \"contracts/DAO.sol\":1350:1404  require(manager==msg.sender,\"You are not the manager\") */\n      tag_176\n      jumpi\n      mload(0x40)\n      0x08c379a000000000000000000000000000000000000000000000000000000000\n      dup2\n      mstore\n      0x04\n      add\n      tag_177\n      swap1\n      tag_131\n      jump\t// in\n    tag_177:\n      mload(0x40)\n      dup1\n      swap2\n      sub\n      swap1\n      revert\n    tag_176:\n        /* \"contracts/DAO.sol\":2957:2963  amount */\n      dup2\n        /* \"contracts/DAO.sol\":2941:2955  availableFunds */\n      sload(0x06)\n        /* \"contracts/DAO.sol\":2941:2963  availableFunds>=amount */\n      lt\n      iszero\n        /* \"contracts/DAO.sol\":2933:2983  require(availableFunds>=amount,\"Not enough funds\") */\n      tag_179\n      jumpi\n      mload(0x40)\n      0x08c379a000000000000000000000000000000000000000000000000000000000\n      dup2\n      mstore\n      0x04\n      add\n      tag_180\n      swap1\n      tag_181\n      jump\t// in\n    tag_180:\n      mload(0x40)\n      dup1\n      swap2\n      sub\n      swap1\n      revert\n    tag_179:\n        /* \"contracts/DAO.sol\":3020:3116  Proposal(nextProposalId,description,amount,... */\n      mload(0x40)\n      dup1\n      0xe0\n      add\n      0x40\n      mstore\n      dup1\n        /* \"contracts/DAO.sol\":3029:3043  nextProposalId */\n      sload(0x08)\n        /* \"contracts/DAO.sol\":3020:3116  Proposal(nextProposalId,description,amount,... */\n      dup2\n      mstore\n      0x20\n      add\n        /* \"contracts/DAO.sol\":3044:3055  description */\n      dup6\n      dup6\n        /* \"contracts/DAO.sol\":3020:3116  Proposal(nextProposalId,description,amount,... */\n      dup1\n      dup1\n      0x1f\n      add\n      0x20\n      dup1\n      swap2\n      div\n      mul\n      0x20\n      add\n      mload(0x40)\n      swap1\n      dup2\n      add\n      0x40\n      mstore\n      dup1\n      swap4\n      swap3\n      swap2\n      swap1\n      dup2\n      dup2\n      mstore\n      0x20\n      add\n      dup4\n      dup4\n      dup1\n      dup3\n      dup5\n      calldatacopy\n      0x00\n      dup2\n      dup5\n      add\n      mstore\n      not(0x1f)\n      0x1f\n      dup3\n      add\n      and\n      swap1\n      pop\n      dup1\n      dup4\n      add\n      swap3\n      pop\n      pop\n      pop\n      pop\n      pop\n      pop\n      pop\n      dup2\n      mstore\n      0x20\n      add\n        /* \"contracts/DAO.sol\":3056:3062  amount */\n      dup4\n        /* \"contracts/DAO.sol\":3020:3116  Proposal(nextProposalId,description,amount,... */\n      dup2\n      mstore\n      0x20\n      add\n        /* \"contracts/DAO.sol\":3073:3082  recepient */\n      dup3\n        /* \"contracts/DAO.sol\":3020:3116  Proposal(nextProposalId,description,amount,... */\n      0xffffffffffffffffffffffffffffffffffffffff\n      and\n      dup2\n      mstore\n      0x20\n      add\n        /* \"contracts/DAO.sol\":3083:3084  0 */\n      0x00\n        /* \"contracts/DAO.sol\":3020:3116  Proposal(nextProposalId,description,amount,... */\n      dup2\n      mstore\n      0x20\n      add\n        /* \"contracts/DAO.sol\":3101:3109  voteTime */\n      sload(0x09)\n        /* \"contracts/DAO.sol\":3085:3100  block.timestamp */\n      timestamp\n        /* \"contracts/DAO.sol\":3085:3109  block.timestamp+voteTime */\n      tag_182\n      swap2\n      swap1\n      tag_127\n      jump\t// in\n    tag_182:\n        /* \"contracts/DAO.sol\":3020:3116  Proposal(nextProposalId,description,amount,... */\n      dup2\n      mstore\n      0x20\n      add\n        /* \"contracts/DAO.sol\":3110:3115  false */\n      0x00\n        /* \"contracts/DAO.sol\":3020:3116  Proposal(nextProposalId,description,amount,... */\n      iszero\n      iszero\n      dup2\n      mstore\n      pop\n        /* \"contracts/DAO.sol\":2994:3003  proposals */\n      0x04\n        /* \"contracts/DAO.sol\":2994:3019  proposals[nextProposalId] */\n      0x00\n        /* \"contracts/DAO.sol\":3004:3018  nextProposalId */\n      sload(0x08)\n        /* \"contracts/DAO.sol\":2994:3019  proposals[nextProposalId] */\n      dup2\n      mstore\n      0x20\n      add\n      swap1\n      dup2\n      mstore\n      0x20\n      add\n      0x00\n      keccak256\n        /* \"contracts/DAO.sol\":2994:3116  proposals[nextProposalId]=Proposal(nextProposalId,description,amount,... */\n      0x00\n      dup3\n      add\n      mload\n      dup2\n      0x00\n      add\n      sstore\n      0x20\n      dup3\n      add\n      mload\n      dup2\n      0x01\n      add\n      swap1\n      dup2\n      tag_183\n      swap2\n      swap1\n      tag_184\n      jump\t// in\n    tag_183:\n      pop\n      0x40\n      dup3\n      add\n      mload\n      dup2\n      0x02\n      add\n      sstore\n      0x60\n      dup3\n      add\n      mload\n      dup2\n      0x03\n      add\n      exp(0x0100, 0x00)\n      dup2\n      sload\n      dup2\n      0xffffffffffffffffffffffffffffffffffffffff\n      mul\n      not\n      and\n      swap1\n      dup4\n      0xffffffffffffffffffffffffffffffffffffffff\n      and\n      mul\n      or\n      swap1\n      sstore\n      pop\n      0x80\n      dup3\n      add\n      mload\n      dup2\n      0x04\n      add\n      sstore\n      0xa0\n      dup3\n      add\n      mload\n      dup2\n      0x05\n      add\n      sstore\n      0xc0\n      dup3\n      add\n      mload\n      dup2\n      0x06\n      add\n      exp(0x0100, 0x00)\n      dup2\n      sload\n      dup2\n      0xff\n      mul\n      not\n      and\n      swap1\n      dup4\n      iszero\n      iszero\n      mul\n      or\n      swap1\n      sstore\n      pop\n      swap1\n      pop\n      pop\n        /* \"contracts/DAO.sol\":3127:3141  nextProposalId */\n      0x08\n      0x00\n        /* \"contracts/DAO.sol\":3127:3143  nextProposalId++ */\n      dup2\n      sload\n      dup1\n      swap3\n      swap2\n      swap1\n      tag_185\n      swap1\n      tag_186\n      jump\t// in\n    tag_185:\n      swap2\n      swap1\n      pop\n      sstore\n      pop\n        /* \"contracts/DAO.sol\":2813:3151  function createProposal(string calldata description,uint amount,address payable recepient) public onlyManager{... */\n      pop\n      pop\n      pop\n      pop\n      jump\t// out\n        /* \"contracts/DAO.sol\":3159:3623  function voteProposal(uint proposalId) public onlyInvestor(){... */\n    tag_81:\n        /* \"contracts/DAO.sol\":1258:1262  true */\n      0x01\n        /* \"contracts/DAO.sol\":1234:1262  isInvestor[msg.sender]==true */\n      iszero\n      iszero\n        /* \"contracts/DAO.sol\":1234:1244  isInvestor */\n      0x00\n        /* \"contracts/DAO.sol\":1234:1256  isInvestor[msg.sender] */\n      dup1\n        /* \"contracts/DAO.sol\":1245:1255  msg.sender */\n      caller\n        /* \"contracts/DAO.sol\":1234:1256  isInvestor[msg.sender] */\n      0xffffffffffffffffffffffffffffffffffffffff\n      and\n      0xffffffffffffffffffffffffffffffffffffffff\n      and\n      dup2\n      mstore\n      0x20\n      add\n      swap1\n      dup2\n      mstore\n      0x20\n      add\n      0x00\n      keccak256\n      0x00\n      swap1\n      sload\n      swap1\n      0x0100\n      exp\n      swap1\n      div\n      0xff\n      and\n        /* \"contracts/DAO.sol\":1234:1262  isInvestor[msg.sender]==true */\n      iszero\n      iszero\n      eq\n        /* \"contracts/DAO.sol\":1226:1289  require(isInvestor[msg.sender]==true,\"You are not an investor\") */\n      tag_188\n      jumpi\n      mload(0x40)\n      0x08c379a000000000000000000000000000000000000000000000000000000000\n      dup2\n      mstore\n      0x04\n      add\n      tag_189\n      swap1\n      tag_116\n      jump\t// in\n    tag_189:\n      mload(0x40)\n      dup1\n      swap2\n      sub\n      swap1\n      revert\n    tag_188:\n        /* \"contracts/DAO.sol\":3230:3255  Proposal storage proposal */\n      0x00\n        /* \"contracts/DAO.sol\":3256:3265  proposals */\n      0x04\n        /* \"contracts/DAO.sol\":3256:3277  proposals[proposalId] */\n      0x00\n        /* \"contracts/DAO.sol\":3266:3276  proposalId */\n      dup4\n        /* \"contracts/DAO.sol\":3256:3277  proposals[proposalId] */\n      dup2\n      mstore\n      0x20\n      add\n      swap1\n      dup2\n      mstore\n      0x20\n      add\n      0x00\n      keccak256\n        /* \"contracts/DAO.sol\":3230:3277  Proposal storage proposal=proposals[proposalId] */\n      swap1\n      pop\n        /* \"contracts/DAO.sol\":3329:3334  false */\n      0x00\n        /* \"contracts/DAO.sol\":3296:3334  isVoted[msg.sender][proposalId]==false */\n      iszero\n      iszero\n        /* \"contracts/DAO.sol\":3296:3303  isVoted */\n      0x02\n        /* \"contracts/DAO.sol\":3296:3315  isVoted[msg.sender] */\n      0x00\n        /* \"contracts/DAO.sol\":3304:3314  msg.sender */\n      caller\n        /* \"contracts/DAO.sol\":3296:3315  isVoted[msg.sender] */\n      0xffffffffffffffffffffffffffffffffffffffff\n      and\n      0xffffffffffffffffffffffffffffffffffffffff\n      and\n      dup2\n      mstore\n      0x20\n      add\n      swap1\n      dup2\n      mstore\n      0x20\n      add\n      0x00\n      keccak256\n        /* \"contracts/DAO.sol\":3296:3327  isVoted[msg.sender][proposalId] */\n      0x00\n        /* \"contracts/DAO.sol\":3316:3326  proposalId */\n      dup5\n        /* \"contracts/DAO.sol\":3296:3327  isVoted[msg.sender][proposalId] */\n      dup2\n      mstore\n      0x20\n      add\n      swap1\n      dup2\n      mstore\n      0x20\n      add\n      0x00\n      keccak256\n      0x00\n      swap1\n      sload\n      swap1\n      0x0100\n      exp\n      swap1\n      div\n      0xff\n      and\n        /* \"contracts/DAO.sol\":3296:3334  isVoted[msg.sender][proposalId]==false */\n      iszero\n      iszero\n      eq\n        /* \"contracts/DAO.sol\":3288:3378  require(isVoted[msg.sender][proposalId]==false,\"You have already voted for this proposal\") */\n      tag_191\n      jumpi\n      mload(0x40)\n      0x08c379a000000000000000000000000000000000000000000000000000000000\n      dup2\n      mstore\n      0x04\n      add\n      tag_192\n      swap1\n      tag_193\n      jump\t// in\n    tag_192:\n      mload(0x40)\n      dup1\n      swap2\n      sub\n      swap1\n      revert\n    tag_191:\n        /* \"contracts/DAO.sol\":3411:3426  block.timestamp */\n      timestamp\n        /* \"contracts/DAO.sol\":3397:3405  proposal */\n      dup2\n        /* \"contracts/DAO.sol\":3397:3409  proposal.end */\n      0x05\n      add\n      sload\n        /* \"contracts/DAO.sol\":3397:3426  proposal.end>=block.timestamp */\n      lt\n      iszero\n        /* \"contracts/DAO.sol\":3389:3447  require(proposal.end>=block.timestamp,\"Voting Time Ended\") */\n      tag_194\n      jumpi\n      mload(0x40)\n      0x08c379a000000000000000000000000000000000000000000000000000000000\n      dup2\n      mstore\n      0x04\n      add\n      tag_195\n      swap1\n      tag_196\n      jump\t// in\n    tag_195:\n      mload(0x40)\n      dup1\n      swap2\n      sub\n      swap1\n      revert\n    tag_194:\n        /* \"contracts/DAO.sol\":3487:3492  false */\n      0x00\n        /* \"contracts/DAO.sol\":3466:3492  proposal.isExecuted==false */\n      iszero\n      iszero\n        /* \"contracts/DAO.sol\":3466:3474  proposal */\n      dup2\n        /* \"contracts/DAO.sol\":3466:3485  proposal.isExecuted */\n      0x06\n      add\n      0x00\n      swap1\n      sload\n      swap1\n      0x0100\n      exp\n      swap1\n      div\n      0xff\n      and\n        /* \"contracts/DAO.sol\":3466:3492  proposal.isExecuted==false */\n      iszero\n      iszero\n      eq\n        /* \"contracts/DAO.sol\":3458:3518  require(proposal.isExecuted==false,\"It is already executed\") */\n      tag_197\n      jumpi\n      mload(0x40)\n      0x08c379a000000000000000000000000000000000000000000000000000000000\n      dup2\n      mstore\n      0x04\n      add\n      tag_198\n      swap1\n      tag_199\n      jump\t// in\n    tag_198:\n      mload(0x40)\n      dup1\n      swap2\n      sub\n      swap1\n      revert\n    tag_197:\n        /* \"contracts/DAO.sol\":3561:3565  true */\n      0x01\n        /* \"contracts/DAO.sol\":3529:3536  isVoted */\n      0x02\n        /* \"contracts/DAO.sol\":3529:3548  isVoted[msg.sender] */\n      0x00\n        /* \"contracts/DAO.sol\":3537:3547  msg.sender */\n      caller\n        /* \"contracts/DAO.sol\":3529:3548  isVoted[msg.sender] */\n      0xffffffffffffffffffffffffffffffffffffffff\n      and\n      0xffffffffffffffffffffffffffffffffffffffff\n      and\n      dup2\n      mstore\n      0x20\n      add\n      swap1\n      dup2\n      mstore\n      0x20\n      add\n      0x00\n      keccak256\n        /* \"contracts/DAO.sol\":3529:3560  isVoted[msg.sender][proposalId] */\n      0x00\n        /* \"contracts/DAO.sol\":3549:3559  proposalId */\n      dup5\n        /* \"contracts/DAO.sol\":3529:3560  isVoted[msg.sender][proposalId] */\n      dup2\n      mstore\n      0x20\n      add\n      swap1\n      dup2\n      mstore\n      0x20\n      add\n      0x00\n      keccak256\n      0x00\n        /* \"contracts/DAO.sol\":3529:3565  isVoted[msg.sender][proposalId]=true */\n      0x0100\n      exp\n      dup2\n      sload\n      dup2\n      0xff\n      mul\n      not\n      and\n      swap1\n      dup4\n      iszero\n      iszero\n      mul\n      or\n      swap1\n      sstore\n      pop\n        /* \"contracts/DAO.sol\":3592:3603  numOfshares */\n      0x01\n        /* \"contracts/DAO.sol\":3592:3615  numOfshares[msg.sender] */\n      0x00\n        /* \"contracts/DAO.sol\":3604:3614  msg.sender */\n      caller\n        /* \"contracts/DAO.sol\":3592:3615  numOfshares[msg.sender] */\n      0xffffffffffffffffffffffffffffffffffffffff\n      and\n      0xffffffffffffffffffffffffffffffffffffffff\n      and\n      dup2\n      mstore\n      0x20\n      add\n      swap1\n      dup2\n      mstore\n      0x20\n      add\n      0x00\n      keccak256\n      sload\n        /* \"contracts/DAO.sol\":3576:3584  proposal */\n      dup2\n        /* \"contracts/DAO.sol\":3576:3590  proposal.votes */\n      0x04\n      add\n      0x00\n        /* \"contracts/DAO.sol\":3576:3615  proposal.votes+=numOfshares[msg.sender] */\n      dup3\n      dup3\n      sload\n      tag_200\n      swap2\n      swap1\n      tag_127\n      jump\t// in\n    tag_200:\n      swap3\n      pop\n      pop\n      dup2\n      swap1\n      sstore\n      pop\n        /* \"contracts/DAO.sol\":3219:3623  {... */\n      pop\n        /* \"contracts/DAO.sol\":3159:3623  function voteProposal(uint proposalId) public onlyInvestor(){... */\n      pop\n      jump\t// out\n        /* \"contracts/DAO.sol\":1818:2295  function redeemShare(uint amount) public onlyInvestor(){... */\n    tag_85:\n        /* \"contracts/DAO.sol\":1258:1262  true */\n      0x01\n        /* \"contracts/DAO.sol\":1234:1262  isInvestor[msg.sender]==true */\n      iszero\n      iszero\n        /* \"contracts/DAO.sol\":1234:1244  isInvestor */\n      0x00\n        /* \"contracts/DAO.sol\":1234:1256  isInvestor[msg.sender] */\n      dup1\n        /* \"contracts/DAO.sol\":1245:1255  msg.sender */\n      caller\n        /* \"contracts/DAO.sol\":1234:1256  isInvestor[msg.sender] */\n      0xffffffffffffffffffffffffffffffffffffffff\n      and\n      0xffffffffffffffffffffffffffffffffffffffff\n      and\n      dup2\n      mstore\n      0x20\n      add\n      swap1\n      dup2\n      mstore\n      0x20\n      add\n      0x00\n      keccak256\n      0x00\n      swap1\n      sload\n      swap1\n      0x0100\n      exp\n      swap1\n      div\n      0xff\n      and\n        /* \"contracts/DAO.sol\":1234:1262  isInvestor[msg.sender]==true */\n      iszero\n      iszero\n      eq\n        /* \"contracts/DAO.sol\":1226:1289  require(isInvestor[msg.sender]==true,\"You are not an investor\") */\n      tag_202\n      jumpi\n      mload(0x40)\n      0x08c379a000000000000000000000000000000000000000000000000000000000\n      dup2\n      mstore\n      0x04\n      add\n      tag_203\n      swap1\n      tag_116\n      jump\t// in\n    tag_203:\n      mload(0x40)\n      dup1\n      swap2\n      sub\n      swap1\n      revert\n    tag_202:\n        /* \"contracts/DAO.sol\":1917:1923  amount */\n      dup1\n        /* \"contracts/DAO.sol\":1892:1903  numOfshares */\n      0x01\n        /* \"contracts/DAO.sol\":1892:1915  numOfshares[msg.sender] */\n      0x00\n        /* \"contracts/DAO.sol\":1904:1914  msg.sender */\n      caller\n        /* \"contracts/DAO.sol\":1892:1915  numOfshares[msg.sender] */\n      0xffffffffffffffffffffffffffffffffffffffff\n      and\n      0xffffffffffffffffffffffffffffffffffffffff\n      and\n      dup2\n      mstore\n      0x20\n      add\n      swap1\n      dup2\n      mstore\n      0x20\n      add\n      0x00\n      keccak256\n      sload\n        /* \"contracts/DAO.sol\":1892:1923  numOfshares[msg.sender]>=amount */\n      lt\n      iszero\n        /* \"contracts/DAO.sol\":1884:1955  require(numOfshares[msg.sender]>=amount,\"You don't have enough shares\") */\n      tag_205\n      jumpi\n      mload(0x40)\n      0x08c379a000000000000000000000000000000000000000000000000000000000\n      dup2\n      mstore\n      0x04\n      add\n      tag_206\n      swap1\n      tag_207\n      jump\t// in\n    tag_206:\n      mload(0x40)\n      dup1\n      swap2\n      sub\n      swap1\n      revert\n    tag_205:\n        /* \"contracts/DAO.sol\":1990:1996  amount */\n      dup1\n        /* \"contracts/DAO.sol\":1974:1988  availableFunds */\n      sload(0x06)\n        /* \"contracts/DAO.sol\":1974:1996  availableFunds>=amount */\n      lt\n      iszero\n        /* \"contracts/DAO.sol\":1966:2016  require(availableFunds>=amount,\"Not enough funds\") */\n      tag_208\n      jumpi\n      mload(0x40)\n      0x08c379a000000000000000000000000000000000000000000000000000000000\n      dup2\n      mstore\n      0x04\n      add\n      tag_209\n      swap1\n      tag_181\n      jump\t// in\n    tag_209:\n      mload(0x40)\n      dup1\n      swap2\n      sub\n      swap1\n      revert\n    tag_208:\n        /* \"contracts/DAO.sol\":2052:2058  amount */\n      dup1\n        /* \"contracts/DAO.sol\":2027:2038  numOfshares */\n      0x01\n        /* \"contracts/DAO.sol\":2027:2050  numOfshares[msg.sender] */\n      0x00\n        /* \"contracts/DAO.sol\":2039:2049  msg.sender */\n      caller\n        /* \"contracts/DAO.sol\":2027:2050  numOfshares[msg.sender] */\n      0xffffffffffffffffffffffffffffffffffffffff\n      and\n      0xffffffffffffffffffffffffffffffffffffffff\n      and\n      dup2\n      mstore\n      0x20\n      add\n      swap1\n      dup2\n      mstore\n      0x20\n      add\n      0x00\n      keccak256\n      0x00\n        /* \"contracts/DAO.sol\":2027:2058  numOfshares[msg.sender]-=amount */\n      dup3\n      dup3\n      sload\n      tag_210\n      swap2\n      swap1\n      tag_122\n      jump\t// in\n    tag_210:\n      swap3\n      pop\n      pop\n      dup2\n      swap1\n      sstore\n      pop\n        /* \"contracts/DAO.sol\":2097:2098  0 */\n      0x00\n        /* \"contracts/DAO.sol\":2072:2083  numOfshares */\n      0x01\n        /* \"contracts/DAO.sol\":2072:2095  numOfshares[msg.sender] */\n      0x00\n        /* \"contracts/DAO.sol\":2084:2094  msg.sender */\n      caller\n        /* \"contracts/DAO.sol\":2072:2095  numOfshares[msg.sender] */\n      0xffffffffffffffffffffffffffffffffffffffff\n      and\n      0xffffffffffffffffffffffffffffffffffffffff\n      and\n      dup2\n      mstore\n      0x20\n      add\n      swap1\n      dup2\n      mstore\n      0x20\n      add\n      0x00\n      keccak256\n      sload\n        /* \"contracts/DAO.sol\":2072:2098  numOfshares[msg.sender]==0 */\n      sub\n        /* \"contracts/DAO.sol\":2069:2155  if(numOfshares[msg.sender]==0){... */\n      tag_211\n      jumpi\n        /* \"contracts/DAO.sol\":2138:2143  false */\n      0x00\n        /* \"contracts/DAO.sol\":2114:2143  isInvestor[msg.sender]==false */\n      iszero\n      iszero\n        /* \"contracts/DAO.sol\":2114:2124  isInvestor */\n      0x00\n        /* \"contracts/DAO.sol\":2114:2136  isInvestor[msg.sender] */\n      dup1\n        /* \"contracts/DAO.sol\":2125:2135  msg.sender */\n      caller\n        /* \"contracts/DAO.sol\":2114:2136  isInvestor[msg.sender] */\n      0xffffffffffffffffffffffffffffffffffffffff\n      and\n      0xffffffffffffffffffffffffffffffffffffffff\n      and\n      dup2\n      mstore\n      0x20\n      add\n      swap1\n      dup2\n      mstore\n      0x20\n      add\n      0x00\n      keccak256\n      0x00\n      swap1\n      sload\n      swap1\n      0x0100\n      exp\n      swap1\n      pop\n      pop\n        /* \"contracts/DAO.sol\":2114:2143  isInvestor[msg.sender]==false */\n      pop\n        /* \"contracts/DAO.sol\":2069:2155  if(numOfshares[msg.sender]==0){... */\n    tag_211:\n        /* \"contracts/DAO.sol\":2181:2187  amount */\n      dup1\n        /* \"contracts/DAO.sol\":2165:2179  availableFunds */\n      0x06\n      0x00\n        /* \"contracts/DAO.sol\":2165:2187  availableFunds-=amount */\n      dup3\n      dup3\n      sload\n      tag_212\n      swap2\n      swap1\n      tag_122\n      jump\t// in\n    tag_212:\n      swap3\n      pop\n      pop\n      dup2\n      swap1\n      sstore\n      pop\n        /* \"contracts/DAO.sol\":2211:2217  amount */\n      dup1\n        /* \"contracts/DAO.sol\":2198:2209  totalShares */\n      0x05\n      0x00\n        /* \"contracts/DAO.sol\":2198:2217  totalShares-=amount */\n      dup3\n      dup3\n      sload\n      tag_213\n      swap2\n      swap1\n      tag_122\n      jump\t// in\n    tag_213:\n      swap3\n      pop\n      pop\n      dup2\n      swap1\n      sstore\n      pop\n        /* \"contracts/DAO.sol\":2236:2246  msg.sender */\n      caller\n        /* \"contracts/DAO.sol\":2228:2256  payable(msg.sender).transfer */\n      0xffffffffffffffffffffffffffffffffffffffff\n      and\n        /* \"contracts/DAO.sol\":2228:2264  payable(msg.sender).transfer(amount) */\n      0x08fc\n        /* \"contracts/DAO.sol\":2257:2263  amount */\n      dup3\n        /* \"contracts/DAO.sol\":2228:2264  payable(msg.sender).transfer(amount) */\n      swap1\n      dup2\n      iszero\n      mul\n      swap1\n      mload(0x40)\n      0x00\n      mload(0x40)\n      dup1\n      dup4\n      sub\n      dup2\n      dup6\n      dup9\n      dup9\n      call\n      swap4\n      pop\n      pop\n      pop\n      pop\n      iszero\n      dup1\n      iszero\n      tag_215\n      jumpi\n      returndatasize\n      0x00\n      dup1\n      returndatacopy\n      revert(0x00, returndatasize)\n    tag_215:\n      pop\n        /* \"contracts/DAO.sol\":1818:2295  function redeemShare(uint amount) public onlyInvestor(){... */\n      pop\n      jump\t// out\n        /* \"contracts/DAO.sol\":461:513  mapping(address=>mapping(uint=>bool)) public isVoted */\n    tag_90:\n      mstore(0x20, 0x02)\n      dup2\n      0x00\n      mstore\n      mstore(0x20, keccak256(0x00, 0x40))\n      dup1\n      0x00\n      mstore\n      keccak256(0x00, 0x40)\n      0x00\n      swap2\n      pop\n      swap2\n      pop\n      swap1\n      sload\n      swap1\n      0x0100\n      exp\n      swap1\n      div\n      0xff\n      and\n      dup2\n      jump\t// out\n        /* \"contracts/DAO.sol\":742:773  uint public contributionTimeEnd */\n    tag_95:\n      sload(0x07)\n      dup2\n      jump\t// out\n        /* \"contracts/DAO.sol\":813:833  uint public voteTime */\n    tag_99:\n      sload(0x09)\n      dup2\n      jump\t// out\n        /* \"contracts/DAO.sol\":413:454  mapping(address=>uint) public numOfshares */\n    tag_105:\n      mstore(0x20, 0x01)\n      dup1\n      0x00\n      mstore\n      keccak256(0x00, 0x40)\n      0x00\n      swap2\n      pop\n      swap1\n      pop\n      sload\n      dup2\n      jump\t// out\n        /* \"contracts/DAO.sol\":3953:4063  function _transfer(uint amount,address payable recepient) private{... */\n    tag_141:\n        /* \"contracts/DAO.sol\":4029:4038  recepient */\n      dup1\n        /* \"contracts/DAO.sol\":4029:4047  recepient.transfer */\n      0xffffffffffffffffffffffffffffffffffffffff\n      and\n        /* \"contracts/DAO.sol\":4029:4055  recepient.transfer(amount) */\n      0x08fc\n        /* \"contracts/DAO.sol\":4048:4054  amount */\n      dup4\n        /* \"contracts/DAO.sol\":4029:4055  recepient.transfer(amount) */\n      swap1\n      dup2\n      iszero\n      mul\n      swap1\n      mload(0x40)\n      0x00\n      mload(0x40)\n      dup1\n      dup4\n      sub\n      dup2\n      dup6\n      dup9\n      dup9\n      call\n      swap4\n      pop\n      pop\n      pop\n      pop\n      iszero\n      dup1\n      iszero\n      tag_218\n      jumpi\n      returndatasize\n      0x00\n      dup1\n      returndatacopy\n      revert(0x00, returndatasize)\n    tag_218:\n      pop\n        /* \"contracts/DAO.sol\":3953:4063  function _transfer(uint amount,address payable recepient) private{... */\n      pop\n      pop\n      jump\t// out\n    tag_152:\n      mload(0x40)\n      dup1\n      0xe0\n      add\n      0x40\n      mstore\n      dup1\n      0x00\n      dup2\n      mstore\n      0x20\n      add\n      0x60\n      dup2\n      mstore\n      0x20\n      add\n      0x00\n      dup2\n      mstore\n      0x20\n      add\n      and(0xffffffffffffffffffffffffffffffffffffffff, 0x00)\n      dup2\n      mstore\n      0x20\n      add\n      0x00\n      dup2\n      mstore\n      0x20\n      add\n      0x00\n      dup2\n      mstore\n      0x20\n      add\n      iszero(iszero(0x00))\n      dup2\n      mstore\n      pop\n      swap1\n      jump\t// out\n        /* \"#utility.yul\":88:205   */\n    tag_220:\n        /* \"#utility.yul\":197:198   */\n      0x00\n        /* \"#utility.yul\":194:195   */\n      dup1\n        /* \"#utility.yul\":187:199   */\n      revert\n        /* \"#utility.yul\":211:328   */\n    tag_221:\n        /* \"#utility.yul\":320:321   */\n      0x00\n        /* \"#utility.yul\":317:318   */\n      dup1\n        /* \"#utility.yul\":310:322   */\n      revert\n        /* \"#utility.yul\":334:411   */\n    tag_222:\n        /* \"#utility.yul\":371:378   */\n      0x00\n        /* \"#utility.yul\":400:405   */\n      dup2\n        /* \"#utility.yul\":389:405   */\n      swap1\n      pop\n        /* \"#utility.yul\":334:411   */\n      swap2\n      swap1\n      pop\n      jump\t// out\n        /* \"#utility.yul\":417:539   */\n    tag_223:\n        /* \"#utility.yul\":490:514   */\n      tag_304\n        /* \"#utility.yul\":508:513   */\n      dup2\n        /* \"#utility.yul\":490:514   */\n      tag_222\n      jump\t// in\n    tag_304:\n        /* \"#utility.yul\":483:488   */\n      dup2\n        /* \"#utility.yul\":480:515   */\n      eq\n        /* \"#utility.yul\":470:533   */\n      tag_305\n      jumpi\n        /* \"#utility.yul\":529:530   */\n      0x00\n        /* \"#utility.yul\":526:527   */\n      dup1\n        /* \"#utility.yul\":519:531   */\n      revert\n        /* \"#utility.yul\":470:533   */\n    tag_305:\n        /* \"#utility.yul\":417:539   */\n      pop\n      jump\t// out\n        /* \"#utility.yul\":545:684   */\n    tag_224:\n        /* \"#utility.yul\":591:596   */\n      0x00\n        /* \"#utility.yul\":629:635   */\n      dup2\n        /* \"#utility.yul\":616:636   */\n      calldataload\n        /* \"#utility.yul\":607:636   */\n      swap1\n      pop\n        /* \"#utility.yul\":645:678   */\n      tag_307\n        /* \"#utility.yul\":672:677   */\n      dup2\n        /* \"#utility.yul\":645:678   */\n      tag_223\n      jump\t// in\n    tag_307:\n        /* \"#utility.yul\":545:684   */\n      swap3\n      swap2\n      pop\n      pop\n      jump\t// out\n        /* \"#utility.yul\":690:1019   */\n    tag_26:\n        /* \"#utility.yul\":749:755   */\n      0x00\n        /* \"#utility.yul\":798:800   */\n      0x20\n        /* \"#utility.yul\":786:795   */\n      dup3\n        /* \"#utility.yul\":777:784   */\n      dup5\n        /* \"#utility.yul\":773:796   */\n      sub\n        /* \"#utility.yul\":769:801   */\n      slt\n        /* \"#utility.yul\":766:885   */\n      iszero\n      tag_309\n      jumpi\n        /* \"#utility.yul\":804:883   */\n      tag_310\n      tag_220\n      jump\t// in\n    tag_310:\n        /* \"#utility.yul\":766:885   */\n    tag_309:\n        /* \"#utility.yul\":924:925   */\n      0x00\n        /* \"#utility.yul\":949:1002   */\n      tag_311\n        /* \"#utility.yul\":994:1001   */\n      dup5\n        /* \"#utility.yul\":985:991   */\n      dup3\n        /* \"#utility.yul\":974:983   */\n      dup6\n        /* \"#utility.yul\":970:992   */\n      add\n        /* \"#utility.yul\":949:1002   */\n      tag_224\n      jump\t// in\n    tag_311:\n        /* \"#utility.yul\":939:1002   */\n      swap2\n      pop\n        /* \"#utility.yul\":895:1012   */\n      pop\n        /* \"#utility.yul\":690:1019   */\n      swap3\n      swap2\n      pop\n      pop\n      jump\t// out\n        /* \"#utility.yul\":1025:1143   */\n    tag_225:\n        /* \"#utility.yul\":1112:1136   */\n      tag_313\n        /* \"#utility.yul\":1130:1135   */\n      dup2\n        /* \"#utility.yul\":1112:1136   */\n      tag_222\n      jump\t// in\n    tag_313:\n        /* \"#utility.yul\":1107:1110   */\n      dup3\n        /* \"#utility.yul\":1100:1137   */\n      mstore\n        /* \"#utility.yul\":1025:1143   */\n      pop\n      pop\n      jump\t// out\n        /* \"#utility.yul\":1149:1248   */\n    tag_226:\n        /* \"#utility.yul\":1201:1207   */\n      0x00\n        /* \"#utility.yul\":1235:1240   */\n      dup2\n        /* \"#utility.yul\":1229:1241   */\n      mload\n        /* \"#utility.yul\":1219:1241   */\n      swap1\n      pop\n        /* \"#utility.yul\":1149:1248   */\n      swap2\n      swap1\n      pop\n      jump\t// out\n        /* \"#utility.yul\":1254:1423   */\n    tag_227:\n        /* \"#utility.yul\":1338:1349   */\n      0x00\n        /* \"#utility.yul\":1372:1378   */\n      dup3\n        /* \"#utility.yul\":1367:1370   */\n      dup3\n        /* \"#utility.yul\":1360:1379   */\n      mstore\n        /* \"#utility.yul\":1412:1416   */\n      0x20\n        /* \"#utility.yul\":1407:1410   */\n      dup3\n        /* \"#utility.yul\":1403:1417   */\n      add\n        /* \"#utility.yul\":1388:1417   */\n      swap1\n      pop\n        /* \"#utility.yul\":1254:1423   */\n      swap3\n      swap2\n      pop\n      pop\n      jump\t// out\n        /* \"#utility.yul\":1429:1568   */\n    tag_228:\n        /* \"#utility.yul\":1518:1524   */\n      dup3\n        /* \"#utility.yul\":1513:1516   */\n      dup2\n        /* \"#utility.yul\":1508:1511   */\n      dup4\n        /* \"#utility.yul\":1502:1525   */\n      mcopy\n        /* \"#utility.yul\":1559:1560   */\n      0x00\n        /* \"#utility.yul\":1550:1556   */\n      dup4\n        /* \"#utility.yul\":1545:1548   */\n      dup4\n        /* \"#utility.yul\":1541:1557   */\n      add\n        /* \"#utility.yul\":1534:1561   */\n      mstore\n        /* \"#utility.yul\":1429:1568   */\n      pop\n      pop\n      pop\n      jump\t// out\n        /* \"#utility.yul\":1574:1676   */\n    tag_229:\n        /* \"#utility.yul\":1615:1621   */\n      0x00\n        /* \"#utility.yul\":1666:1668   */\n      0x1f\n        /* \"#utility.yul\":1662:1669   */\n      not\n        /* \"#utility.yul\":1657:1659   */\n      0x1f\n        /* \"#utility.yul\":1650:1655   */\n      dup4\n        /* \"#utility.yul\":1646:1660   */\n      add\n        /* \"#utility.yul\":1642:1670   */\n      and\n        /* \"#utility.yul\":1632:1670   */\n      swap1\n      pop\n        /* \"#utility.yul\":1574:1676   */\n      swap2\n      swap1\n      pop\n      jump\t// out\n        /* \"#utility.yul\":1682:2059   */\n    tag_230:\n        /* \"#utility.yul\":1770:1773   */\n      0x00\n        /* \"#utility.yul\":1798:1837   */\n      tag_319\n        /* \"#utility.yul\":1831:1836   */\n      dup3\n        /* \"#utility.yul\":1798:1837   */\n      tag_226\n      jump\t// in\n    tag_319:\n        /* \"#utility.yul\":1853:1924   */\n      tag_320\n        /* \"#utility.yul\":1917:1923   */\n      dup2\n        /* \"#utility.yul\":1912:1915   */\n      dup6\n        /* \"#utility.yul\":1853:1924   */\n      tag_227\n      jump\t// in\n    tag_320:\n        /* \"#utility.yul\":1846:1924   */\n      swap4\n      pop\n        /* \"#utility.yul\":1933:1998   */\n      tag_321\n        /* \"#utility.yul\":1991:1997   */\n      dup2\n        /* \"#utility.yul\":1986:1989   */\n      dup6\n        /* \"#utility.yul\":1979:1983   */\n      0x20\n        /* \"#utility.yul\":1972:1977   */\n      dup7\n        /* \"#utility.yul\":1968:1984   */\n      add\n        /* \"#utility.yul\":1933:1998   */\n      tag_228\n      jump\t// in\n    tag_321:\n        /* \"#utility.yul\":2023:2052   */\n      tag_322\n        /* \"#utility.yul\":2045:2051   */\n      dup2\n        /* \"#utility.yul\":2023:2052   */\n      tag_229\n      jump\t// in\n    tag_322:\n        /* \"#utility.yul\":2018:2021   */\n      dup5\n        /* \"#utility.yul\":2014:2053   */\n      add\n        /* \"#utility.yul\":2007:2053   */\n      swap2\n      pop\n        /* \"#utility.yul\":1774:2059   */\n      pop\n        /* \"#utility.yul\":1682:2059   */\n      swap3\n      swap2\n      pop\n      pop\n      jump\t// out\n        /* \"#utility.yul\":2065:2191   */\n    tag_231:\n        /* \"#utility.yul\":2102:2109   */\n      0x00\n        /* \"#utility.yul\":2142:2184   */\n      0xffffffffffffffffffffffffffffffffffffffff\n        /* \"#utility.yul\":2135:2140   */\n      dup3\n        /* \"#utility.yul\":2131:2185   */\n      and\n        /* \"#utility.yul\":2120:2185   */\n      swap1\n      pop\n        /* \"#utility.yul\":2065:2191   */\n      swap2\n      swap1\n      pop\n      jump\t// out\n        /* \"#utility.yul\":2197:2301   */\n    tag_232:\n        /* \"#utility.yul\":2242:2249   */\n      0x00\n        /* \"#utility.yul\":2271:2295   */\n      tag_325\n        /* \"#utility.yul\":2289:2294   */\n      dup3\n        /* \"#utility.yul\":2271:2295   */\n      tag_231\n      jump\t// in\n    tag_325:\n        /* \"#utility.yul\":2260:2295   */\n      swap1\n      pop\n        /* \"#utility.yul\":2197:2301   */\n      swap2\n      swap1\n      pop\n      jump\t// out\n        /* \"#utility.yul\":2307:2449   */\n    tag_233:\n        /* \"#utility.yul\":2410:2442   */\n      tag_327\n        /* \"#utility.yul\":2436:2441   */\n      dup2\n        /* \"#utility.yul\":2410:2442   */\n      tag_232\n      jump\t// in\n    tag_327:\n        /* \"#utility.yul\":2405:2408   */\n      dup3\n        /* \"#utility.yul\":2398:2443   */\n      mstore\n        /* \"#utility.yul\":2307:2449   */\n      pop\n      pop\n      jump\t// out\n        /* \"#utility.yul\":2455:2545   */\n    tag_234:\n        /* \"#utility.yul\":2489:2496   */\n      0x00\n        /* \"#utility.yul\":2532:2537   */\n      dup2\n        /* \"#utility.yul\":2525:2538   */\n      iszero\n        /* \"#utility.yul\":2518:2539   */\n      iszero\n        /* \"#utility.yul\":2507:2539   */\n      swap1\n      pop\n        /* \"#utility.yul\":2455:2545   */\n      swap2\n      swap1\n      pop\n      jump\t// out\n        /* \"#utility.yul\":2551:2660   */\n    tag_235:\n        /* \"#utility.yul\":2632:2653   */\n      tag_330\n        /* \"#utility.yul\":2647:2652   */\n      dup2\n        /* \"#utility.yul\":2632:2653   */\n      tag_234\n      jump\t// in\n    tag_330:\n        /* \"#utility.yul\":2627:2630   */\n      dup3\n        /* \"#utility.yul\":2620:2654   */\n      mstore\n        /* \"#utility.yul\":2551:2660   */\n      pop\n      pop\n      jump\t// out\n        /* \"#utility.yul\":2666:3663   */\n    tag_29:\n        /* \"#utility.yul\":2957:2961   */\n      0x00\n        /* \"#utility.yul\":2995:2998   */\n      0xe0\n        /* \"#utility.yul\":2984:2993   */\n      dup3\n        /* \"#utility.yul\":2980:2999   */\n      add\n        /* \"#utility.yul\":2972:2999   */\n      swap1\n      pop\n        /* \"#utility.yul\":3009:3080   */\n      tag_332\n        /* \"#utility.yul\":3077:3078   */\n      0x00\n        /* \"#utility.yul\":3066:3075   */\n      dup4\n        /* \"#utility.yul\":3062:3079   */\n      add\n        /* \"#utility.yul\":3053:3059   */\n      dup11\n        /* \"#utility.yul\":3009:3080   */\n      tag_225\n      jump\t// in\n    tag_332:\n        /* \"#utility.yul\":3127:3136   */\n      dup2\n        /* \"#utility.yul\":3121:3125   */\n      dup2\n        /* \"#utility.yul\":3117:3137   */\n      sub\n        /* \"#utility.yul\":3112:3114   */\n      0x20\n        /* \"#utility.yul\":3101:3110   */\n      dup4\n        /* \"#utility.yul\":3097:3115   */\n      add\n        /* \"#utility.yul\":3090:3138   */\n      mstore\n        /* \"#utility.yul\":3155:3233   */\n      tag_333\n        /* \"#utility.yul\":3228:3232   */\n      dup2\n        /* \"#utility.yul\":3219:3225   */\n      dup10\n        /* \"#utility.yul\":3155:3233   */\n      tag_230\n      jump\t// in\n    tag_333:\n        /* \"#utility.yul\":3147:3233   */\n      swap1\n      pop\n        /* \"#utility.yul\":3243:3315   */\n      tag_334\n        /* \"#utility.yul\":3311:3313   */\n      0x40\n        /* \"#utility.yul\":3300:3309   */\n      dup4\n        /* \"#utility.yul\":3296:3314   */\n      add\n        /* \"#utility.yul\":3287:3293   */\n      dup9\n        /* \"#utility.yul\":3243:3315   */\n      tag_225\n      jump\t// in\n    tag_334:\n        /* \"#utility.yul\":3325:3413   */\n      tag_335\n        /* \"#utility.yul\":3409:3411   */\n      0x60\n        /* \"#utility.yul\":3398:3407   */\n      dup4\n        /* \"#utility.yul\":3394:3412   */\n      add\n        /* \"#utility.yul\":3385:3391   */\n      dup8\n        /* \"#utility.yul\":3325:3413   */\n      tag_233\n      jump\t// in\n    tag_335:\n        /* \"#utility.yul\":3423:3496   */\n      tag_336\n        /* \"#utility.yul\":3491:3494   */\n      0x80\n        /* \"#utility.yul\":3480:3489   */\n      dup4\n        /* \"#utility.yul\":3476:3495   */\n      add\n        /* \"#utility.yul\":3467:3473   */\n      dup7\n        /* \"#utility.yul\":3423:3496   */\n      tag_225\n      jump\t// in\n    tag_336:\n        /* \"#utility.yul\":3506:3579   */\n      tag_337\n        /* \"#utility.yul\":3574:3577   */\n      0xa0\n        /* \"#utility.yul\":3563:3572   */\n      dup4\n        /* \"#utility.yul\":3559:3578   */\n      add\n        /* \"#utility.yul\":3550:3556   */\n      dup6\n        /* \"#utility.yul\":3506:3579   */\n      tag_225\n      jump\t// in\n    tag_337:\n        /* \"#utility.yul\":3589:3656   */\n      tag_338\n        /* \"#utility.yul\":3651:3654   */\n      0xc0\n        /* \"#utility.yul\":3640:3649   */\n      dup4\n        /* \"#utility.yul\":3636:3655   */\n      add\n        /* \"#utility.yul\":3627:3633   */\n      dup5\n        /* \"#utility.yul\":3589:3656   */\n      tag_235\n      jump\t// in\n    tag_338:\n        /* \"#utility.yul\":2666:3663   */\n      swap9\n      swap8\n      pop\n      pop\n      pop\n      pop\n      pop\n      pop\n      pop\n      pop\n      jump\t// out\n        /* \"#utility.yul\":3669:3765   */\n    tag_236:\n        /* \"#utility.yul\":3706:3713   */\n      0x00\n        /* \"#utility.yul\":3735:3759   */\n      tag_340\n        /* \"#utility.yul\":3753:3758   */\n      dup3\n        /* \"#utility.yul\":3735:3759   */\n      tag_231\n      jump\t// in\n    tag_340:\n        /* \"#utility.yul\":3724:3759   */\n      swap1\n      pop\n        /* \"#utility.yul\":3669:3765   */\n      swap2\n      swap1\n      pop\n      jump\t// out\n        /* \"#utility.yul\":3771:3893   */\n    tag_237:\n        /* \"#utility.yul\":3844:3868   */\n      tag_342\n        /* \"#utility.yul\":3862:3867   */\n      dup2\n        /* \"#utility.yul\":3844:3868   */\n      tag_236\n      jump\t// in\n    tag_342:\n        /* \"#utility.yul\":3837:3842   */\n      dup2\n        /* \"#utility.yul\":3834:3869   */\n      eq\n        /* \"#utility.yul\":3824:3887   */\n      tag_343\n      jumpi\n        /* \"#utility.yul\":3883:3884   */\n      0x00\n        /* \"#utility.yul\":3880:3881   */\n      dup1\n        /* \"#utility.yul\":3873:3885   */\n      revert\n        /* \"#utility.yul\":3824:3887   */\n    tag_343:\n        /* \"#utility.yul\":3771:3893   */\n      pop\n      jump\t// out\n        /* \"#utility.yul\":3899:4038   */\n    tag_238:\n        /* \"#utility.yul\":3945:3950   */\n      0x00\n        /* \"#utility.yul\":3983:3989   */\n      dup2\n        /* \"#utility.yul\":3970:3990   */\n      calldataload\n        /* \"#utility.yul\":3961:3990   */\n      swap1\n      pop\n        /* \"#utility.yul\":3999:4032   */\n      tag_345\n        /* \"#utility.yul\":4026:4031   */\n      dup2\n        /* \"#utility.yul\":3999:4032   */\n      tag_237\n      jump\t// in\n    tag_345:\n        /* \"#utility.yul\":3899:4038   */\n      swap3\n      swap2\n      pop\n      pop\n      jump\t// out\n        /* \"#utility.yul\":4044:4518   */\n    tag_33:\n        /* \"#utility.yul\":4112:4118   */\n      0x00\n        /* \"#utility.yul\":4120:4126   */\n      dup1\n        /* \"#utility.yul\":4169:4171   */\n      0x40\n        /* \"#utility.yul\":4157:4166   */\n      dup4\n        /* \"#utility.yul\":4148:4155   */\n      dup6\n        /* \"#utility.yul\":4144:4167   */\n      sub\n        /* \"#utility.yul\":4140:4172   */\n      slt\n        /* \"#utility.yul\":4137:4256   */\n      iszero\n      tag_347\n      jumpi\n        /* \"#utility.yul\":4175:4254   */\n      tag_348\n      tag_220\n      jump\t// in\n    tag_348:\n        /* \"#utility.yul\":4137:4256   */\n    tag_347:\n        /* \"#utility.yul\":4295:4296   */\n      0x00\n        /* \"#utility.yul\":4320:4373   */\n      tag_349\n        /* \"#utility.yul\":4365:4372   */\n      dup6\n        /* \"#utility.yul\":4356:4362   */\n      dup3\n        /* \"#utility.yul\":4345:4354   */\n      dup7\n        /* \"#utility.yul\":4341:4363   */\n      add\n        /* \"#utility.yul\":4320:4373   */\n      tag_224\n      jump\t// in\n    tag_349:\n        /* \"#utility.yul\":4310:4373   */\n      swap3\n      pop\n        /* \"#utility.yul\":4266:4383   */\n      pop\n        /* \"#utility.yul\":4422:4424   */\n      0x20\n        /* \"#utility.yul\":4448:4501   */\n      tag_350\n        /* \"#utility.yul\":4493:4500   */\n      dup6\n        /* \"#utility.yul\":4484:4490   */\n      dup3\n        /* \"#utility.yul\":4473:4482   */\n      dup7\n        /* \"#utility.yul\":4469:4491   */\n      add\n        /* \"#utility.yul\":4448:4501   */\n      tag_238\n      jump\t// in\n    tag_350:\n        /* \"#utility.yul\":4438:4501   */\n      swap2\n      pop\n        /* \"#utility.yul\":4393:4511   */\n      pop\n        /* \"#utility.yul\":4044:4518   */\n      swap3\n      pop\n      swap3\n      swap1\n      pop\n      jump\t// out\n        /* \"#utility.yul\":4524:4746   */\n    tag_43:\n        /* \"#utility.yul\":4617:4621   */\n      0x00\n        /* \"#utility.yul\":4655:4657   */\n      0x20\n        /* \"#utility.yul\":4644:4653   */\n      dup3\n        /* \"#utility.yul\":4640:4658   */\n      add\n        /* \"#utility.yul\":4632:4658   */\n      swap1\n      pop\n        /* \"#utility.yul\":4668:4739   */\n      tag_352\n        /* \"#utility.yul\":4736:4737   */\n      0x00\n        /* \"#utility.yul\":4725:4734   */\n      dup4\n        /* \"#utility.yul\":4721:4738   */\n      add\n        /* \"#utility.yul\":4712:4718   */\n      dup5\n        /* \"#utility.yul\":4668:4739   */\n      tag_225\n      jump\t// in\n    tag_352:\n        /* \"#utility.yul\":4524:4746   */\n      swap3\n      swap2\n      pop\n      pop\n      jump\t// out\n        /* \"#utility.yul\":4752:4870   */\n    tag_239:\n        /* \"#utility.yul\":4839:4863   */\n      tag_354\n        /* \"#utility.yul\":4857:4862   */\n      dup2\n        /* \"#utility.yul\":4839:4863   */\n      tag_236\n      jump\t// in\n    tag_354:\n        /* \"#utility.yul\":4834:4837   */\n      dup3\n        /* \"#utility.yul\":4827:4864   */\n      mstore\n        /* \"#utility.yul\":4752:4870   */\n      pop\n      pop\n      jump\t// out\n        /* \"#utility.yul\":4876:5098   */\n    tag_53:\n        /* \"#utility.yul\":4969:4973   */\n      0x00\n        /* \"#utility.yul\":5007:5009   */\n      0x20\n        /* \"#utility.yul\":4996:5005   */\n      dup3\n        /* \"#utility.yul\":4992:5010   */\n      add\n        /* \"#utility.yul\":4984:5010   */\n      swap1\n      pop\n        /* \"#utility.yul\":5020:5091   */\n      tag_356\n        /* \"#utility.yul\":5088:5089   */\n      0x00\n        /* \"#utility.yul\":5077:5086   */\n      dup4\n        /* \"#utility.yul\":5073:5090   */\n      add\n        /* \"#utility.yul\":5064:5070   */\n      dup5\n        /* \"#utility.yul\":5020:5091   */\n      tag_239\n      jump\t// in\n    tag_356:\n        /* \"#utility.yul\":4876:5098   */\n      swap3\n      swap2\n      pop\n      pop\n      jump\t// out\n        /* \"#utility.yul\":5104:5242   */\n    tag_240:\n        /* \"#utility.yul\":5195:5201   */\n      0x00\n        /* \"#utility.yul\":5229:5234   */\n      dup2\n        /* \"#utility.yul\":5223:5235   */\n      mload\n        /* \"#utility.yul\":5213:5235   */\n      swap1\n      pop\n        /* \"#utility.yul\":5104:5242   */\n      swap2\n      swap1\n      pop\n      jump\t// out\n        /* \"#utility.yul\":5248:5456   */\n    tag_241:\n        /* \"#utility.yul\":5371:5382   */\n      0x00\n        /* \"#utility.yul\":5405:5411   */\n      dup3\n        /* \"#utility.yul\":5400:5403   */\n      dup3\n        /* \"#utility.yul\":5393:5412   */\n      mstore\n        /* \"#utility.yul\":5445:5449   */\n      0x20\n        /* \"#utility.yul\":5440:5443   */\n      dup3\n        /* \"#utility.yul\":5436:5450   */\n      add\n        /* \"#utility.yul\":5421:5450   */\n      swap1\n      pop\n        /* \"#utility.yul\":5248:5456   */\n      swap3\n      swap2\n      pop\n      pop\n      jump\t// out\n        /* \"#utility.yul\":5462:5618   */\n    tag_242:\n        /* \"#utility.yul\":5553:5557   */\n      0x00\n        /* \"#utility.yul\":5576:5579   */\n      dup2\n        /* \"#utility.yul\":5568:5579   */\n      swap1\n      pop\n        /* \"#utility.yul\":5606:5610   */\n      0x20\n        /* \"#utility.yul\":5601:5604   */\n      dup3\n        /* \"#utility.yul\":5597:5611   */\n      add\n        /* \"#utility.yul\":5589:5611   */\n      swap1\n      pop\n        /* \"#utility.yul\":5462:5618   */\n      swap2\n      swap1\n      pop\n      jump\t// out\n        /* \"#utility.yul\":5624:5732   */\n    tag_243:\n        /* \"#utility.yul\":5701:5725   */\n      tag_361\n        /* \"#utility.yul\":5719:5724   */\n      dup2\n        /* \"#utility.yul\":5701:5725   */\n      tag_222\n      jump\t// in\n    tag_361:\n        /* \"#utility.yul\":5696:5699   */\n      dup3\n        /* \"#utility.yul\":5689:5726   */\n      mstore\n        /* \"#utility.yul\":5624:5732   */\n      pop\n      pop\n      jump\t// out\n        /* \"#utility.yul\":5738:5897   */\n    tag_244:\n        /* \"#utility.yul\":5812:5823   */\n      0x00\n        /* \"#utility.yul\":5846:5852   */\n      dup3\n        /* \"#utility.yul\":5841:5844   */\n      dup3\n        /* \"#utility.yul\":5834:5853   */\n      mstore\n        /* \"#utility.yul\":5886:5890   */\n      0x20\n        /* \"#utility.yul\":5881:5884   */\n      dup3\n        /* \"#utility.yul\":5877:5891   */\n      add\n        /* \"#utility.yul\":5862:5891   */\n      swap1\n      pop\n        /* \"#utility.yul\":5738:5897   */\n      swap3\n      swap2\n      pop\n      pop\n      jump\t// out\n        /* \"#utility.yul\":5903:6260   */\n    tag_245:\n        /* \"#utility.yul\":5981:5984   */\n      0x00\n        /* \"#utility.yul\":6009:6048   */\n      tag_364\n        /* \"#utility.yul\":6042:6047   */\n      dup3\n        /* \"#utility.yul\":6009:6048   */\n      tag_226\n      jump\t// in\n    tag_364:\n        /* \"#utility.yul\":6064:6125   */\n      tag_365\n        /* \"#utility.yul\":6118:6124   */\n      dup2\n        /* \"#utility.yul\":6113:6116   */\n      dup6\n        /* \"#utility.yul\":6064:6125   */\n      tag_244\n      jump\t// in\n    tag_365:\n        /* \"#utility.yul\":6057:6125   */\n      swap4\n      pop\n        /* \"#utility.yul\":6134:6199   */\n      tag_366\n        /* \"#utility.yul\":6192:6198   */\n      dup2\n        /* \"#utility.yul\":6187:6190   */\n      dup6\n        /* \"#utility.yul\":6180:6184   */\n      0x20\n        /* \"#utility.yul\":6173:6178   */\n      dup7\n        /* \"#utility.yul\":6169:6185   */\n      add\n        /* \"#utility.yul\":6134:6199   */\n      tag_228\n      jump\t// in\n    tag_366:\n        /* \"#utility.yul\":6224:6253   */\n      tag_367\n        /* \"#utility.yul\":6246:6252   */\n      dup2\n        /* \"#utility.yul\":6224:6253   */\n      tag_229\n      jump\t// in\n    tag_367:\n        /* \"#utility.yul\":6219:6222   */\n      dup5\n        /* \"#utility.yul\":6215:6254   */\n      add\n        /* \"#utility.yul\":6208:6254   */\n      swap2\n      pop\n        /* \"#utility.yul\":5985:6260   */\n      pop\n        /* \"#utility.yul\":5903:6260   */\n      swap3\n      swap2\n      pop\n      pop\n      jump\t// out\n        /* \"#utility.yul\":6266:6398   */\n    tag_246:\n        /* \"#utility.yul\":6359:6391   */\n      tag_369\n        /* \"#utility.yul\":6385:6390   */\n      dup2\n        /* \"#utility.yul\":6359:6391   */\n      tag_232\n      jump\t// in\n    tag_369:\n        /* \"#utility.yul\":6354:6357   */\n      dup3\n        /* \"#utility.yul\":6347:6392   */\n      mstore\n        /* \"#utility.yul\":6266:6398   */\n      pop\n      pop\n      jump\t// out\n        /* \"#utility.yul\":6404:6503   */\n    tag_247:\n        /* \"#utility.yul\":6475:6496   */\n      tag_371\n        /* \"#utility.yul\":6490:6495   */\n      dup2\n        /* \"#utility.yul\":6475:6496   */\n      tag_234\n      jump\t// in\n    tag_371:\n        /* \"#utility.yul\":6470:6473   */\n      dup3\n        /* \"#utility.yul\":6463:6497   */\n      mstore\n        /* \"#utility.yul\":6404:6503   */\n      pop\n      pop\n      jump\t// out\n        /* \"#utility.yul\":6559:8051   */\n    tag_248:\n        /* \"#utility.yul\":6666:6669   */\n      0x00\n        /* \"#utility.yul\":6702:6706   */\n      0xe0\n        /* \"#utility.yul\":6697:6700   */\n      dup4\n        /* \"#utility.yul\":6693:6707   */\n      add\n        /* \"#utility.yul\":6787:6791   */\n      0x00\n        /* \"#utility.yul\":6780:6785   */\n      dup4\n        /* \"#utility.yul\":6776:6792   */\n      add\n        /* \"#utility.yul\":6770:6793   */\n      mload\n        /* \"#utility.yul\":6806:6869   */\n      tag_373\n        /* \"#utility.yul\":6863:6867   */\n      0x00\n        /* \"#utility.yul\":6858:6861   */\n      dup7\n        /* \"#utility.yul\":6854:6868   */\n      add\n        /* \"#utility.yul\":6840:6852   */\n      dup3\n        /* \"#utility.yul\":6806:6869   */\n      tag_243\n      jump\t// in\n    tag_373:\n        /* \"#utility.yul\":6717:6879   */\n      pop\n        /* \"#utility.yul\":6968:6972   */\n      0x20\n        /* \"#utility.yul\":6961:6966   */\n      dup4\n        /* \"#utility.yul\":6957:6973   */\n      add\n        /* \"#utility.yul\":6951:6974   */\n      mload\n        /* \"#utility.yul\":7021:7024   */\n      dup5\n        /* \"#utility.yul\":7015:7019   */\n      dup3\n        /* \"#utility.yul\":7011:7025   */\n      sub\n        /* \"#utility.yul\":7004:7008   */\n      0x20\n        /* \"#utility.yul\":6999:7002   */\n      dup7\n        /* \"#utility.yul\":6995:7009   */\n      add\n        /* \"#utility.yul\":6988:7026   */\n      mstore\n        /* \"#utility.yul\":7047:7120   */\n      tag_374\n        /* \"#utility.yul\":7115:7119   */\n      dup3\n        /* \"#utility.yul\":7101:7113   */\n      dup3\n        /* \"#utility.yul\":7047:7120   */\n      tag_245\n      jump\t// in\n    tag_374:\n        /* \"#utility.yul\":7039:7120   */\n      swap2\n      pop\n        /* \"#utility.yul\":6889:7131   */\n      pop\n        /* \"#utility.yul\":7215:7219   */\n      0x40\n        /* \"#utility.yul\":7208:7213   */\n      dup4\n        /* \"#utility.yul\":7204:7220   */\n      add\n        /* \"#utility.yul\":7198:7221   */\n      mload\n        /* \"#utility.yul\":7234:7297   */\n      tag_375\n        /* \"#utility.yul\":7291:7295   */\n      0x40\n        /* \"#utility.yul\":7286:7289   */\n      dup7\n        /* \"#utility.yul\":7282:7296   */\n      add\n        /* \"#utility.yul\":7268:7280   */\n      dup3\n        /* \"#utility.yul\":7234:7297   */\n      tag_243\n      jump\t// in\n    tag_375:\n        /* \"#utility.yul\":7141:7307   */\n      pop\n        /* \"#utility.yul\":7394:7398   */\n      0x60\n        /* \"#utility.yul\":7387:7392   */\n      dup4\n        /* \"#utility.yul\":7383:7399   */\n      add\n        /* \"#utility.yul\":7377:7400   */\n      mload\n        /* \"#utility.yul\":7413:7492   */\n      tag_376\n        /* \"#utility.yul\":7486:7490   */\n      0x60\n        /* \"#utility.yul\":7481:7484   */\n      dup7\n        /* \"#utility.yul\":7477:7491   */\n      add\n        /* \"#utility.yul\":7463:7475   */\n      dup3\n        /* \"#utility.yul\":7413:7492   */\n      tag_246\n      jump\t// in\n    tag_376:\n        /* \"#utility.yul\":7317:7502   */\n      pop\n        /* \"#utility.yul\":7585:7589   */\n      0x80\n        /* \"#utility.yul\":7578:7583   */\n      dup4\n        /* \"#utility.yul\":7574:7590   */\n      add\n        /* \"#utility.yul\":7568:7591   */\n      mload\n        /* \"#utility.yul\":7604:7667   */\n      tag_377\n        /* \"#utility.yul\":7661:7665   */\n      0x80\n        /* \"#utility.yul\":7656:7659   */\n      dup7\n        /* \"#utility.yul\":7652:7666   */\n      add\n        /* \"#utility.yul\":7638:7650   */\n      dup3\n        /* \"#utility.yul\":7604:7667   */\n      tag_243\n      jump\t// in\n    tag_377:\n        /* \"#utility.yul\":7512:7677   */\n      pop\n        /* \"#utility.yul\":7758:7762   */\n      0xa0\n        /* \"#utility.yul\":7751:7756   */\n      dup4\n        /* \"#utility.yul\":7747:7763   */\n      add\n        /* \"#utility.yul\":7741:7764   */\n      mload\n        /* \"#utility.yul\":7777:7840   */\n      tag_378\n        /* \"#utility.yul\":7834:7838   */\n      0xa0\n        /* \"#utility.yul\":7829:7832   */\n      dup7\n        /* \"#utility.yul\":7825:7839   */\n      add\n        /* \"#utility.yul\":7811:7823   */\n      dup3\n        /* \"#utility.yul\":7777:7840   */\n      tag_243\n      jump\t// in\n    tag_378:\n        /* \"#utility.yul\":7687:7850   */\n      pop\n        /* \"#utility.yul\":7938:7942   */\n      0xc0\n        /* \"#utility.yul\":7931:7936   */\n      dup4\n        /* \"#utility.yul\":7927:7943   */\n      add\n        /* \"#utility.yul\":7921:7944   */\n      mload\n        /* \"#utility.yul\":7957:8014   */\n      tag_379\n        /* \"#utility.yul\":8008:8012   */\n      0xc0\n        /* \"#utility.yul\":8003:8006   */\n      dup7\n        /* \"#utility.yul\":7999:8013   */\n      add\n        /* \"#utility.yul\":7985:7997   */\n      dup3\n        /* \"#utility.yul\":7957:8014   */\n      tag_247\n      jump\t// in\n    tag_379:\n        /* \"#utility.yul\":7860:8024   */\n      pop\n        /* \"#utility.yul\":8041:8045   */\n      dup1\n        /* \"#utility.yul\":8034:8045   */\n      swap2\n      pop\n        /* \"#utility.yul\":6671:8051   */\n      pop\n        /* \"#utility.yul\":6559:8051   */\n      swap3\n      swap2\n      pop\n      pop\n      jump\t// out\n        /* \"#utility.yul\":8057:8309   */\n    tag_249:\n        /* \"#utility.yul\":8174:8184   */\n      0x00\n        /* \"#utility.yul\":8209:8303   */\n      tag_381\n        /* \"#utility.yul\":8299:8302   */\n      dup4\n        /* \"#utility.yul\":8291:8297   */\n      dup4\n        /* \"#utility.yul\":8209:8303   */\n      tag_248\n      jump\t// in\n    tag_381:\n        /* \"#utility.yul\":8195:8303   */\n      swap1\n      pop\n        /* \"#utility.yul\":8057:8309   */\n      swap3\n      swap2\n      pop\n      pop\n      jump\t// out\n        /* \"#utility.yul\":8315:8452   */\n    tag_250:\n        /* \"#utility.yul\":8409:8413   */\n      0x00\n        /* \"#utility.yul\":8441:8445   */\n      0x20\n        /* \"#utility.yul\":8436:8439   */\n      dup3\n        /* \"#utility.yul\":8432:8446   */\n      add\n        /* \"#utility.yul\":8424:8446   */\n      swap1\n      pop\n        /* \"#utility.yul\":8315:8452   */\n      swap2\n      swap1\n      pop\n      jump\t// out\n        /* \"#utility.yul\":8512:9615   */\n    tag_251:\n        /* \"#utility.yul\":8679:8682   */\n      0x00\n        /* \"#utility.yul\":8708:8786   */\n      tag_384\n        /* \"#utility.yul\":8780:8785   */\n      dup3\n        /* \"#utility.yul\":8708:8786   */\n      tag_240\n      jump\t// in\n    tag_384:\n        /* \"#utility.yul\":8802:8912   */\n      tag_385\n        /* \"#utility.yul\":8905:8911   */\n      dup2\n        /* \"#utility.yul\":8900:8903   */\n      dup6\n        /* \"#utility.yul\":8802:8912   */\n      tag_241\n      jump\t// in\n    tag_385:\n        /* \"#utility.yul\":8795:8912   */\n      swap4\n      pop\n        /* \"#utility.yul\":8938:8941   */\n      dup4\n        /* \"#utility.yul\":8983:8987   */\n      0x20\n        /* \"#utility.yul\":8975:8981   */\n      dup3\n        /* \"#utility.yul\":8971:8988   */\n      mul\n        /* \"#utility.yul\":8966:8969   */\n      dup6\n        /* \"#utility.yul\":8962:8989   */\n      add\n        /* \"#utility.yul\":9013:9093   */\n      tag_386\n        /* \"#utility.yul\":9087:9092   */\n      dup6\n        /* \"#utility.yul\":9013:9093   */\n      tag_242\n      jump\t// in\n    tag_386:\n        /* \"#utility.yul\":9116:9123   */\n      dup1\n        /* \"#utility.yul\":9147:9148   */\n      0x00\n        /* \"#utility.yul\":9132:9570   */\n    tag_387:\n        /* \"#utility.yul\":9157:9163   */\n      dup6\n        /* \"#utility.yul\":9154:9155   */\n      dup2\n        /* \"#utility.yul\":9151:9164   */\n      lt\n        /* \"#utility.yul\":9132:9570   */\n      iszero\n      tag_389\n      jumpi\n        /* \"#utility.yul\":9228:9237   */\n      dup5\n        /* \"#utility.yul\":9222:9226   */\n      dup5\n        /* \"#utility.yul\":9218:9238   */\n      sub\n        /* \"#utility.yul\":9213:9216   */\n      dup10\n        /* \"#utility.yul\":9206:9239   */\n      mstore\n        /* \"#utility.yul\":9279:9285   */\n      dup2\n        /* \"#utility.yul\":9273:9286   */\n      mload\n        /* \"#utility.yul\":9307:9419   */\n      tag_390\n        /* \"#utility.yul\":9414:9418   */\n      dup6\n        /* \"#utility.yul\":9399:9412   */\n      dup3\n        /* \"#utility.yul\":9307:9419   */\n      tag_249\n      jump\t// in\n    tag_390:\n        /* \"#utility.yul\":9299:9419   */\n      swap5\n      pop\n        /* \"#utility.yul\":9442:9526   */\n      tag_391\n        /* \"#utility.yul\":9519:9525   */\n      dup4\n        /* \"#utility.yul\":9442:9526   */\n      tag_250\n      jump\t// in\n    tag_391:\n        /* \"#utility.yul\":9432:9526   */\n      swap3\n      pop\n        /* \"#utility.yul\":9555:9559   */\n      0x20\n        /* \"#utility.yul\":9550:9553   */\n      dup11\n        /* \"#utility.yul\":9546:9560   */\n      add\n        /* \"#utility.yul\":9539:9560   */\n      swap10\n      pop\n        /* \"#utility.yul\":9192:9570   */\n      pop\n        /* \"#utility.yul\":9179:9180   */\n      0x01\n        /* \"#utility.yul\":9176:9177   */\n      dup2\n        /* \"#utility.yul\":9172:9181   */\n      add\n        /* \"#utility.yul\":9167:9181   */\n      swap1\n      pop\n        /* \"#utility.yul\":9132:9570   */\n      jump(tag_387)\n    tag_389:\n        /* \"#utility.yul\":9136:9150   */\n      pop\n        /* \"#utility.yul\":9586:9590   */\n      dup3\n        /* \"#utility.yul\":9579:9590   */\n      swap8\n      pop\n        /* \"#utility.yul\":9606:9609   */\n      dup8\n        /* \"#utility.yul\":9599:9609   */\n      swap6\n      pop\n        /* \"#utility.yul\":8684:9615   */\n      pop\n      pop\n      pop\n      pop\n      pop\n        /* \"#utility.yul\":8512:9615   */\n      swap3\n      swap2\n      pop\n      pop\n      jump\t// out\n        /* \"#utility.yul\":9621:10090   */\n    tag_62:\n        /* \"#utility.yul\":9812:9816   */\n      0x00\n        /* \"#utility.yul\":9850:9852   */\n      0x20\n        /* \"#utility.yul\":9839:9848   */\n      dup3\n        /* \"#utility.yul\":9835:9853   */\n      add\n        /* \"#utility.yul\":9827:9853   */\n      swap1\n      pop\n        /* \"#utility.yul\":9899:9908   */\n      dup2\n        /* \"#utility.yul\":9893:9897   */\n      dup2\n        /* \"#utility.yul\":9889:9909   */\n      sub\n        /* \"#utility.yul\":9885:9886   */\n      0x00\n        /* \"#utility.yul\":9874:9883   */\n      dup4\n        /* \"#utility.yul\":9870:9887   */\n      add\n        /* \"#utility.yul\":9863:9910   */\n      mstore\n        /* \"#utility.yul\":9927:10083   */\n      tag_393\n        /* \"#utility.yul\":10078:10082   */\n      dup2\n        /* \"#utility.yul\":10069:10075   */\n      dup5\n        /* \"#utility.yul\":9927:10083   */\n      tag_251\n      jump\t// in\n    tag_393:\n        /* \"#utility.yul\":9919:10083   */\n      swap1\n      pop\n        /* \"#utility.yul\":9621:10090   */\n      swap3\n      swap2\n      pop\n      pop\n      jump\t// out\n        /* \"#utility.yul\":10096:10213   */\n    tag_252:\n        /* \"#utility.yul\":10205:10206   */\n      0x00\n        /* \"#utility.yul\":10202:10203   */\n      dup1\n        /* \"#utility.yul\":10195:10207   */\n      revert\n        /* \"#utility.yul\":10219:10336   */\n    tag_253:\n        /* \"#utility.yul\":10328:10329   */\n      0x00\n        /* \"#utility.yul\":10325:10326   */\n      dup1\n        /* \"#utility.yul\":10318:10330   */\n      revert\n        /* \"#utility.yul\":10342:10459   */\n    tag_254:\n        /* \"#utility.yul\":10451:10452   */\n      0x00\n        /* \"#utility.yul\":10448:10449   */\n      dup1\n        /* \"#utility.yul\":10441:10453   */\n      revert\n        /* \"#utility.yul\":10479:11032   */\n    tag_255:\n        /* \"#utility.yul\":10537:10545   */\n      0x00\n        /* \"#utility.yul\":10547:10553   */\n      dup1\n        /* \"#utility.yul\":10597:10600   */\n      dup4\n        /* \"#utility.yul\":10590:10594   */\n      0x1f\n        /* \"#utility.yul\":10582:10588   */\n      dup5\n        /* \"#utility.yul\":10578:10595   */\n      add\n        /* \"#utility.yul\":10574:10601   */\n      slt\n        /* \"#utility.yul\":10564:10686   */\n      tag_398\n      jumpi\n        /* \"#utility.yul\":10605:10684   */\n      tag_399\n      tag_252\n      jump\t// in\n    tag_399:\n        /* \"#utility.yul\":10564:10686   */\n    tag_398:\n        /* \"#utility.yul\":10718:10724   */\n      dup3\n        /* \"#utility.yul\":10705:10725   */\n      calldataload\n        /* \"#utility.yul\":10695:10725   */\n      swap1\n      pop\n        /* \"#utility.yul\":10748:10766   */\n      0xffffffffffffffff\n        /* \"#utility.yul\":10740:10746   */\n      dup2\n        /* \"#utility.yul\":10737:10767   */\n      gt\n        /* \"#utility.yul\":10734:10851   */\n      iszero\n      tag_400\n      jumpi\n        /* \"#utility.yul\":10770:10849   */\n      tag_401\n      tag_253\n      jump\t// in\n    tag_401:\n        /* \"#utility.yul\":10734:10851   */\n    tag_400:\n        /* \"#utility.yul\":10884:10888   */\n      0x20\n        /* \"#utility.yul\":10876:10882   */\n      dup4\n        /* \"#utility.yul\":10872:10889   */\n      add\n        /* \"#utility.yul\":10860:10889   */\n      swap2\n      pop\n        /* \"#utility.yul\":10938:10941   */\n      dup4\n        /* \"#utility.yul\":10930:10934   */\n      0x01\n        /* \"#utility.yul\":10922:10928   */\n      dup3\n        /* \"#utility.yul\":10918:10935   */\n      mul\n        /* \"#utility.yul\":10908:10916   */\n      dup4\n        /* \"#utility.yul\":10904:10936   */\n      add\n        /* \"#utility.yul\":10901:10942   */\n      gt\n        /* \"#utility.yul\":10898:11026   */\n      iszero\n      tag_402\n      jumpi\n        /* \"#utility.yul\":10945:11024   */\n      tag_403\n      tag_254\n      jump\t// in\n    tag_403:\n        /* \"#utility.yul\":10898:11026   */\n    tag_402:\n        /* \"#utility.yul\":10479:11032   */\n      swap3\n      pop\n      swap3\n      swap1\n      pop\n      jump\t// out\n        /* \"#utility.yul\":11038:11176   */\n    tag_256:\n        /* \"#utility.yul\":11119:11151   */\n      tag_405\n        /* \"#utility.yul\":11145:11150   */\n      dup2\n        /* \"#utility.yul\":11119:11151   */\n      tag_232\n      jump\t// in\n    tag_405:\n        /* \"#utility.yul\":11112:11117   */\n      dup2\n        /* \"#utility.yul\":11109:11152   */\n      eq\n        /* \"#utility.yul\":11099:11170   */\n      tag_406\n      jumpi\n        /* \"#utility.yul\":11166:11167   */\n      0x00\n        /* \"#utility.yul\":11163:11164   */\n      dup1\n        /* \"#utility.yul\":11156:11168   */\n      revert\n        /* \"#utility.yul\":11099:11170   */\n    tag_406:\n        /* \"#utility.yul\":11038:11176   */\n      pop\n      jump\t// out\n        /* \"#utility.yul\":11182:11337   */\n    tag_257:\n        /* \"#utility.yul\":11236:11241   */\n      0x00\n        /* \"#utility.yul\":11274:11280   */\n      dup2\n        /* \"#utility.yul\":11261:11281   */\n      calldataload\n        /* \"#utility.yul\":11252:11281   */\n      swap1\n      pop\n        /* \"#utility.yul\":11290:11331   */\n      tag_408\n        /* \"#utility.yul\":11325:11330   */\n      dup2\n        /* \"#utility.yul\":11290:11331   */\n      tag_256\n      jump\t// in\n    tag_408:\n        /* \"#utility.yul\":11182:11337   */\n      swap3\n      swap2\n      pop\n      pop\n      jump\t// out\n        /* \"#utility.yul\":11343:12178   */\n    tag_76:\n        /* \"#utility.yul\":11440:11446   */\n      0x00\n        /* \"#utility.yul\":11448:11454   */\n      dup1\n        /* \"#utility.yul\":11456:11462   */\n      0x00\n        /* \"#utility.yul\":11464:11470   */\n      dup1\n        /* \"#utility.yul\":11513:11515   */\n      0x60\n        /* \"#utility.yul\":11501:11510   */\n      dup6\n        /* \"#utility.yul\":11492:11499   */\n      dup8\n        /* \"#utility.yul\":11488:11511   */\n      sub\n        /* \"#utility.yul\":11484:11516   */\n      slt\n        /* \"#utility.yul\":11481:11600   */\n      iszero\n      tag_410\n      jumpi\n        /* \"#utility.yul\":11519:11598   */\n      tag_411\n      tag_220\n      jump\t// in\n    tag_411:\n        /* \"#utility.yul\":11481:11600   */\n    tag_410:\n        /* \"#utility.yul\":11667:11668   */\n      0x00\n        /* \"#utility.yul\":11656:11665   */\n      dup6\n        /* \"#utility.yul\":11652:11669   */\n      add\n        /* \"#utility.yul\":11639:11670   */\n      calldataload\n        /* \"#utility.yul\":11697:11715   */\n      0xffffffffffffffff\n        /* \"#utility.yul\":11689:11695   */\n      dup2\n        /* \"#utility.yul\":11686:11716   */\n      gt\n        /* \"#utility.yul\":11683:11800   */\n      iszero\n      tag_412\n      jumpi\n        /* \"#utility.yul\":11719:11798   */\n      tag_413\n      tag_221\n      jump\t// in\n    tag_413:\n        /* \"#utility.yul\":11683:11800   */\n    tag_412:\n        /* \"#utility.yul\":11832:11897   */\n      tag_414\n        /* \"#utility.yul\":11889:11896   */\n      dup8\n        /* \"#utility.yul\":11880:11886   */\n      dup3\n        /* \"#utility.yul\":11869:11878   */\n      dup9\n        /* \"#utility.yul\":11865:11887   */\n      add\n        /* \"#utility.yul\":11832:11897   */\n      tag_255\n      jump\t// in\n    tag_414:\n        /* \"#utility.yul\":11814:11897   */\n      swap5\n      pop\n      swap5\n      pop\n        /* \"#utility.yul\":11610:11907   */\n      pop\n        /* \"#utility.yul\":11946:11948   */\n      0x20\n        /* \"#utility.yul\":11972:12025   */\n      tag_415\n        /* \"#utility.yul\":12017:12024   */\n      dup8\n        /* \"#utility.yul\":12008:12014   */\n      dup3\n        /* \"#utility.yul\":11997:12006   */\n      dup9\n        /* \"#utility.yul\":11993:12015   */\n      add\n        /* \"#utility.yul\":11972:12025   */\n      tag_224\n      jump\t// in\n    tag_415:\n        /* \"#utility.yul\":11962:12025   */\n      swap3\n      pop\n        /* \"#utility.yul\":11917:12035   */\n      pop\n        /* \"#utility.yul\":12074:12076   */\n      0x40\n        /* \"#utility.yul\":12100:12161   */\n      tag_416\n        /* \"#utility.yul\":12153:12160   */\n      dup8\n        /* \"#utility.yul\":12144:12150   */\n      dup3\n        /* \"#utility.yul\":12133:12142   */\n      dup9\n        /* \"#utility.yul\":12129:12151   */\n      add\n        /* \"#utility.yul\":12100:12161   */\n      tag_257\n      jump\t// in\n    tag_416:\n        /* \"#utility.yul\":12090:12161   */\n      swap2\n      pop\n        /* \"#utility.yul\":12045:12171   */\n      pop\n        /* \"#utility.yul\":11343:12178   */\n      swap3\n      swap6\n      swap2\n      swap5\n      pop\n      swap3\n      pop\n      jump\t// out\n        /* \"#utility.yul\":12184:12658   */\n    tag_89:\n        /* \"#utility.yul\":12252:12258   */\n      0x00\n        /* \"#utility.yul\":12260:12266   */\n      dup1\n        /* \"#utility.yul\":12309:12311   */\n      0x40\n        /* \"#utility.yul\":12297:12306   */\n      dup4\n        /* \"#utility.yul\":12288:12295   */\n      dup6\n        /* \"#utility.yul\":12284:12307   */\n      sub\n        /* \"#utility.yul\":12280:12312   */\n      slt\n        /* \"#utility.yul\":12277:12396   */\n      iszero\n      tag_418\n      jumpi\n        /* \"#utility.yul\":12315:12394   */\n      tag_419\n      tag_220\n      jump\t// in\n    tag_419:\n        /* \"#utility.yul\":12277:12396   */\n    tag_418:\n        /* \"#utility.yul\":12435:12436   */\n      0x00\n        /* \"#utility.yul\":12460:12513   */\n      tag_420\n        /* \"#utility.yul\":12505:12512   */\n      dup6\n        /* \"#utility.yul\":12496:12502   */\n      dup3\n        /* \"#utility.yul\":12485:12494   */\n      dup7\n        /* \"#utility.yul\":12481:12503   */\n      add\n        /* \"#utility.yul\":12460:12513   */\n      tag_238\n      jump\t// in\n    tag_420:\n        /* \"#utility.yul\":12450:12513   */\n      swap3\n      pop\n        /* \"#utility.yul\":12406:12523   */\n      pop\n        /* \"#utility.yul\":12562:12564   */\n      0x20\n        /* \"#utility.yul\":12588:12641   */\n      tag_421\n        /* \"#utility.yul\":12633:12640   */\n      dup6\n        /* \"#utility.yul\":12624:12630   */\n      dup3\n        /* \"#utility.yul\":12613:12622   */\n      dup7\n        /* \"#utility.yul\":12609:12631   */\n      add\n        /* \"#utility.yul\":12588:12641   */\n      tag_224\n      jump\t// in\n    tag_421:\n        /* \"#utility.yul\":12578:12641   */\n      swap2\n      pop\n        /* \"#utility.yul\":12533:12651   */\n      pop\n        /* \"#utility.yul\":12184:12658   */\n      swap3\n      pop\n      swap3\n      swap1\n      pop\n      jump\t// out\n        /* \"#utility.yul\":12664:12874   */\n    tag_92:\n        /* \"#utility.yul\":12751:12755   */\n      0x00\n        /* \"#utility.yul\":12789:12791   */\n      0x20\n        /* \"#utility.yul\":12778:12787   */\n      dup3\n        /* \"#utility.yul\":12774:12792   */\n      add\n        /* \"#utility.yul\":12766:12792   */\n      swap1\n      pop\n        /* \"#utility.yul\":12802:12867   */\n      tag_423\n        /* \"#utility.yul\":12864:12865   */\n      0x00\n        /* \"#utility.yul\":12853:12862   */\n      dup4\n        /* \"#utility.yul\":12849:12866   */\n      add\n        /* \"#utility.yul\":12840:12846   */\n      dup5\n        /* \"#utility.yul\":12802:12867   */\n      tag_235\n      jump\t// in\n    tag_423:\n        /* \"#utility.yul\":12664:12874   */\n      swap3\n      swap2\n      pop\n      pop\n      jump\t// out\n        /* \"#utility.yul\":12880:13209   */\n    tag_104:\n        /* \"#utility.yul\":12939:12945   */\n      0x00\n        /* \"#utility.yul\":12988:12990   */\n      0x20\n        /* \"#utility.yul\":12976:12985   */\n      dup3\n        /* \"#utility.yul\":12967:12974   */\n      dup5\n        /* \"#utility.yul\":12963:12986   */\n      sub\n        /* \"#utility.yul\":12959:12991   */\n      slt\n        /* \"#utility.yul\":12956:13075   */\n      iszero\n      tag_425\n      jumpi\n        /* \"#utility.yul\":12994:13073   */\n      tag_426\n      tag_220\n      jump\t// in\n    tag_426:\n        /* \"#utility.yul\":12956:13075   */\n    tag_425:\n        /* \"#utility.yul\":13114:13115   */\n      0x00\n        /* \"#utility.yul\":13139:13192   */\n      tag_427\n        /* \"#utility.yul\":13184:13191   */\n      dup5\n        /* \"#utility.yul\":13175:13181   */\n      dup3\n        /* \"#utility.yul\":13164:13173   */\n      dup6\n        /* \"#utility.yul\":13160:13182   */\n      add\n        /* \"#utility.yul\":13139:13192   */\n      tag_238\n      jump\t// in\n    tag_427:\n        /* \"#utility.yul\":13129:13192   */\n      swap2\n      pop\n        /* \"#utility.yul\":13085:13202   */\n      pop\n        /* \"#utility.yul\":12880:13209   */\n      swap3\n      swap2\n      pop\n      pop\n      jump\t// out\n        /* \"#utility.yul\":13215:13395   */\n    tag_258:\n        /* \"#utility.yul\":13263:13340   */\n      0x4e487b7100000000000000000000000000000000000000000000000000000000\n        /* \"#utility.yul\":13260:13261   */\n      0x00\n        /* \"#utility.yul\":13253:13341   */\n      mstore\n        /* \"#utility.yul\":13360:13364   */\n      0x22\n        /* \"#utility.yul\":13357:13358   */\n      0x04\n        /* \"#utility.yul\":13350:13365   */\n      mstore\n        /* \"#utility.yul\":13384:13388   */\n      0x24\n        /* \"#utility.yul\":13381:13382   */\n      0x00\n        /* \"#utility.yul\":13374:13389   */\n      revert\n        /* \"#utility.yul\":13401:13721   */\n    tag_108:\n        /* \"#utility.yul\":13445:13451   */\n      0x00\n        /* \"#utility.yul\":13482:13483   */\n      0x02\n        /* \"#utility.yul\":13476:13480   */\n      dup3\n        /* \"#utility.yul\":13472:13484   */\n      div\n        /* \"#utility.yul\":13462:13484   */\n      swap1\n      pop\n        /* \"#utility.yul\":13529:13530   */\n      0x01\n        /* \"#utility.yul\":13523:13527   */\n      dup3\n        /* \"#utility.yul\":13519:13531   */\n      and\n        /* \"#utility.yul\":13550:13568   */\n      dup1\n        /* \"#utility.yul\":13540:13621   */\n      tag_430\n      jumpi\n        /* \"#utility.yul\":13606:13610   */\n      0x7f\n        /* \"#utility.yul\":13598:13604   */\n      dup3\n        /* \"#utility.yul\":13594:13611   */\n      and\n        /* \"#utility.yul\":13584:13611   */\n      swap2\n      pop\n        /* \"#utility.yul\":13540:13621   */\n    tag_430:\n        /* \"#utility.yul\":13668:13670   */\n      0x20\n        /* \"#utility.yul\":13660:13666   */\n      dup3\n        /* \"#utility.yul\":13657:13671   */\n      lt\n        /* \"#utility.yul\":13637:13655   */\n      dup2\n        /* \"#utility.yul\":13634:13672   */\n      sub\n        /* \"#utility.yul\":13631:13715   */\n      tag_431\n      jumpi\n        /* \"#utility.yul\":13687:13705   */\n      tag_432\n      tag_258\n      jump\t// in\n    tag_432:\n        /* \"#utility.yul\":13631:13715   */\n    tag_431:\n        /* \"#utility.yul\":13452:13721   */\n      pop\n        /* \"#utility.yul\":13401:13721   */\n      swap2\n      swap1\n      pop\n      jump\t// out\n        /* \"#utility.yul\":13727:13900   */\n    tag_259:\n        /* \"#utility.yul\":13867:13892   */\n      0x596f7520617265206e6f7420616e20696e766573746f72000000000000000000\n        /* \"#utility.yul\":13863:13864   */\n      0x00\n        /* \"#utility.yul\":13855:13861   */\n      dup3\n        /* \"#utility.yul\":13851:13865   */\n      add\n        /* \"#utility.yul\":13844:13893   */\n      mstore\n        /* \"#utility.yul\":13727:13900   */\n      pop\n      jump\t// out\n        /* \"#utility.yul\":13906:14272   */\n    tag_260:\n        /* \"#utility.yul\":14048:14051   */\n      0x00\n        /* \"#utility.yul\":14069:14136   */\n      tag_435\n        /* \"#utility.yul\":14133:14135   */\n      0x17\n        /* \"#utility.yul\":14128:14131   */\n      dup4\n        /* \"#utility.yul\":14069:14136   */\n      tag_227\n      jump\t// in\n    tag_435:\n        /* \"#utility.yul\":14062:14136   */\n      swap2\n      pop\n        /* \"#utility.yul\":14145:14238   */\n      tag_436\n        /* \"#utility.yul\":14234:14237   */\n      dup3\n        /* \"#utility.yul\":14145:14238   */\n      tag_259\n      jump\t// in\n    tag_436:\n        /* \"#utility.yul\":14263:14265   */\n      0x20\n        /* \"#utility.yul\":14258:14261   */\n      dup3\n        /* \"#utility.yul\":14254:14266   */\n      add\n        /* \"#utility.yul\":14247:14266   */\n      swap1\n      pop\n        /* \"#utility.yul\":13906:14272   */\n      swap2\n      swap1\n      pop\n      jump\t// out\n        /* \"#utility.yul\":14278:14697   */\n    tag_116:\n        /* \"#utility.yul\":14444:14448   */\n      0x00\n        /* \"#utility.yul\":14482:14484   */\n      0x20\n        /* \"#utility.yul\":14471:14480   */\n      dup3\n        /* \"#utility.yul\":14467:14485   */\n      add\n        /* \"#utility.yul\":14459:14485   */\n      swap1\n      pop\n        /* \"#utility.yul\":14531:14540   */\n      dup2\n        /* \"#utility.yul\":14525:14529   */\n      dup2\n        /* \"#utility.yul\":14521:14541   */\n      sub\n        /* \"#utility.yul\":14517:14518   */\n      0x00\n        /* \"#utility.yul\":14506:14515   */\n      dup4\n        /* \"#utility.yul\":14502:14519   */\n      add\n        /* \"#utility.yul\":14495:14542   */\n      mstore\n        /* \"#utility.yul\":14559:14690   */\n      tag_438\n        /* \"#utility.yul\":14685:14689   */\n      dup2\n        /* \"#utility.yul\":14559:14690   */\n      tag_260\n      jump\t// in\n    tag_438:\n        /* \"#utility.yul\":14551:14690   */\n      swap1\n      pop\n        /* \"#utility.yul\":14278:14697   */\n      swap2\n      swap1\n      pop\n      jump\t// out\n        /* \"#utility.yul\":14703:14881   */\n    tag_261:\n        /* \"#utility.yul\":14843:14873   */\n      0x4e6f7420646f6e2774206861766520656e6f7567682073686172657300000000\n        /* \"#utility.yul\":14839:14840   */\n      0x00\n        /* \"#utility.yul\":14831:14837   */\n      dup3\n        /* \"#utility.yul\":14827:14841   */\n      add\n        /* \"#utility.yul\":14820:14874   */\n      mstore\n        /* \"#utility.yul\":14703:14881   */\n      pop\n      jump\t// out\n        /* \"#utility.yul\":14887:15253   */\n    tag_262:\n        /* \"#utility.yul\":15029:15032   */\n      0x00\n        /* \"#utility.yul\":15050:15117   */\n      tag_441\n        /* \"#utility.yul\":15114:15116   */\n      0x1c\n        /* \"#utility.yul\":15109:15112   */\n      dup4\n        /* \"#utility.yul\":15050:15117   */\n      tag_227\n      jump\t// in\n    tag_441:\n        /* \"#utility.yul\":15043:15117   */\n      swap2\n      pop\n        /* \"#utility.yul\":15126:15219   */\n      tag_442\n        /* \"#utility.yul\":15215:15218   */\n      dup3\n        /* \"#utility.yul\":15126:15219   */\n      tag_261\n      jump\t// in\n    tag_442:\n        /* \"#utility.yul\":15244:15246   */\n      0x20\n        /* \"#utility.yul\":15239:15242   */\n      dup3\n        /* \"#utility.yul\":15235:15247   */\n      add\n        /* \"#utility.yul\":15228:15247   */\n      swap1\n      pop\n        /* \"#utility.yul\":14887:15253   */\n      swap2\n      swap1\n      pop\n      jump\t// out\n        /* \"#utility.yul\":15259:15678   */\n    tag_120:\n        /* \"#utility.yul\":15425:15429   */\n      0x00\n        /* \"#utility.yul\":15463:15465   */\n      0x20\n        /* \"#utility.yul\":15452:15461   */\n      dup3\n        /* \"#utility.yul\":15448:15466   */\n      add\n        /* \"#utility.yul\":15440:15466   */\n      swap1\n      pop\n        /* \"#utility.yul\":15512:15521   */\n      dup2\n        /* \"#utility.yul\":15506:15510   */\n      dup2\n        /* \"#utility.yul\":15502:15522   */\n      sub\n        /* \"#utility.yul\":15498:15499   */\n      0x00\n        /* \"#utility.yul\":15487:15496   */\n      dup4\n        /* \"#utility.yul\":15483:15500   */\n      add\n        /* \"#utility.yul\":15476:15523   */\n      mstore\n        /* \"#utility.yul\":15540:15671   */\n      tag_444\n        /* \"#utility.yul\":15666:15670   */\n      dup2\n        /* \"#utility.yul\":15540:15671   */\n      tag_262\n      jump\t// in\n    tag_444:\n        /* \"#utility.yul\":15532:15671   */\n      swap1\n      pop\n        /* \"#utility.yul\":15259:15678   */\n      swap2\n      swap1\n      pop\n      jump\t// out\n        /* \"#utility.yul\":15684:15864   */\n    tag_263:\n        /* \"#utility.yul\":15732:15809   */\n      0x4e487b7100000000000000000000000000000000000000000000000000000000\n        /* \"#utility.yul\":15729:15730   */\n      0x00\n        /* \"#utility.yul\":15722:15810   */\n      mstore\n        /* \"#utility.yul\":15829:15833   */\n      0x11\n        /* \"#utility.yul\":15826:15827   */\n      0x04\n        /* \"#utility.yul\":15819:15834   */\n      mstore\n        /* \"#utility.yul\":15853:15857   */\n      0x24\n        /* \"#utility.yul\":15850:15851   */\n      0x00\n        /* \"#utility.yul\":15843:15858   */\n      revert\n        /* \"#utility.yul\":15870:16064   */\n    tag_122:\n        /* \"#utility.yul\":15910:15914   */\n      0x00\n        /* \"#utility.yul\":15930:15950   */\n      tag_447\n        /* \"#utility.yul\":15948:15949   */\n      dup3\n        /* \"#utility.yul\":15930:15950   */\n      tag_222\n      jump\t// in\n    tag_447:\n        /* \"#utility.yul\":15925:15950   */\n      swap2\n      pop\n        /* \"#utility.yul\":15964:15984   */\n      tag_448\n        /* \"#utility.yul\":15982:15983   */\n      dup4\n        /* \"#utility.yul\":15964:15984   */\n      tag_222\n      jump\t// in\n    tag_448:\n        /* \"#utility.yul\":15959:15984   */\n      swap3\n      pop\n        /* \"#utility.yul\":16008:16009   */\n      dup3\n        /* \"#utility.yul\":16005:16006   */\n      dup3\n        /* \"#utility.yul\":16001:16010   */\n      sub\n        /* \"#utility.yul\":15993:16010   */\n      swap1\n      pop\n        /* \"#utility.yul\":16032:16033   */\n      dup2\n        /* \"#utility.yul\":16026:16030   */\n      dup2\n        /* \"#utility.yul\":16023:16034   */\n      gt\n        /* \"#utility.yul\":16020:16057   */\n      iszero\n      tag_449\n      jumpi\n        /* \"#utility.yul\":16037:16055   */\n      tag_450\n      tag_263\n      jump\t// in\n    tag_450:\n        /* \"#utility.yul\":16020:16057   */\n    tag_449:\n        /* \"#utility.yul\":15870:16064   */\n      swap3\n      swap2\n      pop\n      pop\n      jump\t// out\n        /* \"#utility.yul\":16070:16261   */\n    tag_127:\n        /* \"#utility.yul\":16110:16113   */\n      0x00\n        /* \"#utility.yul\":16129:16149   */\n      tag_452\n        /* \"#utility.yul\":16147:16148   */\n      dup3\n        /* \"#utility.yul\":16129:16149   */\n      tag_222\n      jump\t// in\n    tag_452:\n        /* \"#utility.yul\":16124:16149   */\n      swap2\n      pop\n        /* \"#utility.yul\":16163:16183   */\n      tag_453\n        /* \"#utility.yul\":16181:16182   */\n      dup4\n        /* \"#utility.yul\":16163:16183   */\n      tag_222\n      jump\t// in\n    tag_453:\n        /* \"#utility.yul\":16158:16183   */\n      swap3\n      pop\n        /* \"#utility.yul\":16206:16207   */\n      dup3\n        /* \"#utility.yul\":16203:16204   */\n      dup3\n        /* \"#utility.yul\":16199:16208   */\n      add\n        /* \"#utility.yul\":16192:16208   */\n      swap1\n      pop\n        /* \"#utility.yul\":16227:16230   */\n      dup1\n        /* \"#utility.yul\":16224:16225   */\n      dup3\n        /* \"#utility.yul\":16221:16231   */\n      gt\n        /* \"#utility.yul\":16218:16254   */\n      iszero\n      tag_454\n      jumpi\n        /* \"#utility.yul\":16234:16252   */\n      tag_455\n      tag_263\n      jump\t// in\n    tag_455:\n        /* \"#utility.yul\":16218:16254   */\n    tag_454:\n        /* \"#utility.yul\":16070:16261   */\n      swap3\n      swap2\n      pop\n      pop\n      jump\t// out\n        /* \"#utility.yul\":16267:16440   */\n    tag_264:\n        /* \"#utility.yul\":16407:16432   */\n      0x596f7520617265206e6f7420746865206d616e61676572000000000000000000\n        /* \"#utility.yul\":16403:16404   */\n      0x00\n        /* \"#utility.yul\":16395:16401   */\n      dup3\n        /* \"#utility.yul\":16391:16405   */\n      add\n        /* \"#utility.yul\":16384:16433   */\n      mstore\n        /* \"#utility.yul\":16267:16440   */\n      pop\n      jump\t// out\n        /* \"#utility.yul\":16446:16812   */\n    tag_265:\n        /* \"#utility.yul\":16588:16591   */\n      0x00\n        /* \"#utility.yul\":16609:16676   */\n      tag_458\n        /* \"#utility.yul\":16673:16675   */\n      0x17\n        /* \"#utility.yul\":16668:16671   */\n      dup4\n        /* \"#utility.yul\":16609:16676   */\n      tag_227\n      jump\t// in\n    tag_458:\n        /* \"#utility.yul\":16602:16676   */\n      swap2\n      pop\n        /* \"#utility.yul\":16685:16778   */\n      tag_459\n        /* \"#utility.yul\":16774:16777   */\n      dup3\n        /* \"#utility.yul\":16685:16778   */\n      tag_264\n      jump\t// in\n    tag_459:\n        /* \"#utility.yul\":16803:16805   */\n      0x20\n        /* \"#utility.yul\":16798:16801   */\n      dup3\n        /* \"#utility.yul\":16794:16806   */\n      add\n        /* \"#utility.yul\":16787:16806   */\n      swap1\n      pop\n        /* \"#utility.yul\":16446:16812   */\n      swap2\n      swap1\n      pop\n      jump\t// out\n        /* \"#utility.yul\":16818:17237   */\n    tag_131:\n        /* \"#utility.yul\":16984:16988   */\n      0x00\n        /* \"#utility.yul\":17022:17024   */\n      0x20\n        /* \"#utility.yul\":17011:17020   */\n      dup3\n        /* \"#utility.yul\":17007:17025   */\n      add\n        /* \"#utility.yul\":16999:17025   */\n      swap1\n      pop\n        /* \"#utility.yul\":17071:17080   */\n      dup2\n        /* \"#utility.yul\":17065:17069   */\n      dup2\n        /* \"#utility.yul\":17061:17081   */\n      sub\n        /* \"#utility.yul\":17057:17058   */\n      0x00\n        /* \"#utility.yul\":17046:17055   */\n      dup4\n        /* \"#utility.yul\":17042:17059   */\n      add\n        /* \"#utility.yul\":17035:17082   */\n      mstore\n        /* \"#utility.yul\":17099:17230   */\n      tag_461\n        /* \"#utility.yul\":17225:17229   */\n      dup2\n        /* \"#utility.yul\":17099:17230   */\n      tag_265\n      jump\t// in\n    tag_461:\n        /* \"#utility.yul\":17091:17230   */\n      swap1\n      pop\n        /* \"#utility.yul\":16818:17237   */\n      swap2\n      swap1\n      pop\n      jump\t// out\n        /* \"#utility.yul\":17243:17653   */\n    tag_134:\n        /* \"#utility.yul\":17283:17290   */\n      0x00\n        /* \"#utility.yul\":17306:17326   */\n      tag_463\n        /* \"#utility.yul\":17324:17325   */\n      dup3\n        /* \"#utility.yul\":17306:17326   */\n      tag_222\n      jump\t// in\n    tag_463:\n        /* \"#utility.yul\":17301:17326   */\n      swap2\n      pop\n        /* \"#utility.yul\":17340:17360   */\n      tag_464\n        /* \"#utility.yul\":17358:17359   */\n      dup4\n        /* \"#utility.yul\":17340:17360   */\n      tag_222\n      jump\t// in\n    tag_464:\n        /* \"#utility.yul\":17335:17360   */\n      swap3\n      pop\n        /* \"#utility.yul\":17395:17396   */\n      dup3\n        /* \"#utility.yul\":17392:17393   */\n      dup3\n        /* \"#utility.yul\":17388:17397   */\n      mul\n        /* \"#utility.yul\":17417:17447   */\n      tag_465\n        /* \"#utility.yul\":17435:17446   */\n      dup2\n        /* \"#utility.yul\":17417:17447   */\n      tag_222\n      jump\t// in\n    tag_465:\n        /* \"#utility.yul\":17406:17447   */\n      swap2\n      pop\n        /* \"#utility.yul\":17596:17597   */\n      dup3\n        /* \"#utility.yul\":17587:17594   */\n      dup3\n        /* \"#utility.yul\":17583:17598   */\n      div\n        /* \"#utility.yul\":17580:17581   */\n      dup5\n        /* \"#utility.yul\":17577:17599   */\n      eq\n        /* \"#utility.yul\":17557:17558   */\n      dup4\n        /* \"#utility.yul\":17550:17559   */\n      iszero\n        /* \"#utility.yul\":17530:17613   */\n      or\n        /* \"#utility.yul\":17507:17646   */\n      tag_466\n      jumpi\n        /* \"#utility.yul\":17626:17644   */\n      tag_467\n      tag_263\n      jump\t// in\n    tag_467:\n        /* \"#utility.yul\":17507:17646   */\n    tag_466:\n        /* \"#utility.yul\":17291:17653   */\n      pop\n        /* \"#utility.yul\":17243:17653   */\n      swap3\n      swap2\n      pop\n      pop\n      jump\t// out\n        /* \"#utility.yul\":17659:17839   */\n    tag_266:\n        /* \"#utility.yul\":17707:17784   */\n      0x4e487b7100000000000000000000000000000000000000000000000000000000\n        /* \"#utility.yul\":17704:17705   */\n      0x00\n        /* \"#utility.yul\":17697:17785   */\n      mstore\n        /* \"#utility.yul\":17804:17808   */\n      0x12\n        /* \"#utility.yul\":17801:17802   */\n      0x04\n        /* \"#utility.yul\":17794:17809   */\n      mstore\n        /* \"#utility.yul\":17828:17832   */\n      0x24\n        /* \"#utility.yul\":17825:17826   */\n      0x00\n        /* \"#utility.yul\":17818:17833   */\n      revert\n        /* \"#utility.yul\":17845:18030   */\n    tag_136:\n        /* \"#utility.yul\":17885:17886   */\n      0x00\n        /* \"#utility.yul\":17902:17922   */\n      tag_470\n        /* \"#utility.yul\":17920:17921   */\n      dup3\n        /* \"#utility.yul\":17902:17922   */\n      tag_222\n      jump\t// in\n    tag_470:\n        /* \"#utility.yul\":17897:17922   */\n      swap2\n      pop\n        /* \"#utility.yul\":17936:17956   */\n      tag_471\n        /* \"#utility.yul\":17954:17955   */\n      dup4\n        /* \"#utility.yul\":17936:17956   */\n      tag_222\n      jump\t// in\n    tag_471:\n        /* \"#utility.yul\":17931:17956   */\n      swap3\n      pop\n        /* \"#utility.yul\":17975:17976   */\n      dup3\n        /* \"#utility.yul\":17965:18000   */\n      tag_472\n      jumpi\n        /* \"#utility.yul\":17980:17998   */\n      tag_473\n      tag_266\n      jump\t// in\n    tag_473:\n        /* \"#utility.yul\":17965:18000   */\n    tag_472:\n        /* \"#utility.yul\":18022:18023   */\n      dup3\n        /* \"#utility.yul\":18019:18020   */\n      dup3\n        /* \"#utility.yul\":18015:18024   */\n      div\n        /* \"#utility.yul\":18010:18024   */\n      swap1\n      pop\n        /* \"#utility.yul\":17845:18030   */\n      swap3\n      swap2\n      pop\n      pop\n      jump\t// out\n        /* \"#utility.yul\":18036:18212   */\n    tag_267:\n        /* \"#utility.yul\":18176:18204   */\n      0x4d616a6f7269747920646f6573206e6f742073757070706f7274000000000000\n        /* \"#utility.yul\":18172:18173   */\n      0x00\n        /* \"#utility.yul\":18164:18170   */\n      dup3\n        /* \"#utility.yul\":18160:18174   */\n      add\n        /* \"#utility.yul\":18153:18205   */\n      mstore\n        /* \"#utility.yul\":18036:18212   */\n      pop\n      jump\t// out\n        /* \"#utility.yul\":18218:18584   */\n    tag_268:\n        /* \"#utility.yul\":18360:18363   */\n      0x00\n        /* \"#utility.yul\":18381:18448   */\n      tag_476\n        /* \"#utility.yul\":18445:18447   */\n      0x1a\n        /* \"#utility.yul\":18440:18443   */\n      dup4\n        /* \"#utility.yul\":18381:18448   */\n      tag_227\n      jump\t// in\n    tag_476:\n        /* \"#utility.yul\":18374:18448   */\n      swap2\n      pop\n        /* \"#utility.yul\":18457:18550   */\n      tag_477\n        /* \"#utility.yul\":18546:18549   */\n      dup3\n        /* \"#utility.yul\":18457:18550   */\n      tag_267\n      jump\t// in\n    tag_477:\n        /* \"#utility.yul\":18575:18577   */\n      0x20\n        /* \"#utility.yul\":18570:18573   */\n      dup3\n        /* \"#utility.yul\":18566:18578   */\n      add\n        /* \"#utility.yul\":18559:18578   */\n      swap1\n      pop\n        /* \"#utility.yul\":18218:18584   */\n      swap2\n      swap1\n      pop\n      jump\t// out\n        /* \"#utility.yul\":18590:19009   */\n    tag_139:\n        /* \"#utility.yul\":18756:18760   */\n      0x00\n        /* \"#utility.yul\":18794:18796   */\n      0x20\n        /* \"#utility.yul\":18783:18792   */\n      dup3\n        /* \"#utility.yul\":18779:18797   */\n      add\n        /* \"#utility.yul\":18771:18797   */\n      swap1\n      pop\n        /* \"#utility.yul\":18843:18852   */\n      dup2\n        /* \"#utility.yul\":18837:18841   */\n      dup2\n        /* \"#utility.yul\":18833:18853   */\n      sub\n        /* \"#utility.yul\":18829:18830   */\n      0x00\n        /* \"#utility.yul\":18818:18827   */\n      dup4\n        /* \"#utility.yul\":18814:18831   */\n      add\n        /* \"#utility.yul\":18807:18854   */\n      mstore\n        /* \"#utility.yul\":18871:19002   */\n      tag_479\n        /* \"#utility.yul\":18997:19001   */\n      dup2\n        /* \"#utility.yul\":18871:19002   */\n      tag_268\n      jump\t// in\n    tag_479:\n        /* \"#utility.yul\":18863:19002   */\n      swap1\n      pop\n        /* \"#utility.yul\":18590:19009   */\n      swap2\n      swap1\n      pop\n      jump\t// out\n        /* \"#utility.yul\":19015:19195   */\n    tag_148:\n        /* \"#utility.yul\":19063:19140   */\n      0x4e487b7100000000000000000000000000000000000000000000000000000000\n        /* \"#utility.yul\":19060:19061   */\n      0x00\n        /* \"#utility.yul\":19053:19141   */\n      mstore\n        /* \"#utility.yul\":19160:19164   */\n      0x41\n        /* \"#utility.yul\":19157:19158   */\n      0x04\n        /* \"#utility.yul\":19150:19165   */\n      mstore\n        /* \"#utility.yul\":19184:19188   */\n      0x24\n        /* \"#utility.yul\":19181:19182   */\n      0x00\n        /* \"#utility.yul\":19174:19189   */\n      revert\n        /* \"#utility.yul\":19201:19381   */\n    tag_163:\n        /* \"#utility.yul\":19249:19326   */\n      0x4e487b7100000000000000000000000000000000000000000000000000000000\n        /* \"#utility.yul\":19246:19247   */\n      0x00\n        /* \"#utility.yul\":19239:19327   */\n      mstore\n        /* \"#utility.yul\":19346:19350   */\n      0x32\n        /* \"#utility.yul\":19343:19344   */\n      0x04\n        /* \"#utility.yul\":19336:19351   */\n      mstore\n        /* \"#utility.yul\":19370:19374   */\n      0x24\n        /* \"#utility.yul\":19367:19368   */\n      0x00\n        /* \"#utility.yul\":19360:19375   */\n      revert\n        /* \"#utility.yul\":19387:19560   */\n    tag_269:\n        /* \"#utility.yul\":19527:19552   */\n      0x436f6e747269627574696f6e2054696d6520456e646564000000000000000000\n        /* \"#utility.yul\":19523:19524   */\n      0x00\n        /* \"#utility.yul\":19515:19521   */\n      dup3\n        /* \"#utility.yul\":19511:19525   */\n      add\n        /* \"#utility.yul\":19504:19553   */\n      mstore\n        /* \"#utility.yul\":19387:19560   */\n      pop\n      jump\t// out\n        /* \"#utility.yul\":19566:19932   */\n    tag_270:\n        /* \"#utility.yul\":19708:19711   */\n      0x00\n        /* \"#utility.yul\":19729:19796   */\n      tag_484\n        /* \"#utility.yul\":19793:19795   */\n      0x17\n        /* \"#utility.yul\":19788:19791   */\n      dup4\n        /* \"#utility.yul\":19729:19796   */\n      tag_227\n      jump\t// in\n    tag_484:\n        /* \"#utility.yul\":19722:19796   */\n      swap2\n      pop\n        /* \"#utility.yul\":19805:19898   */\n      tag_485\n        /* \"#utility.yul\":19894:19897   */\n      dup3\n        /* \"#utility.yul\":19805:19898   */\n      tag_269\n      jump\t// in\n    tag_485:\n        /* \"#utility.yul\":19923:19925   */\n      0x20\n        /* \"#utility.yul\":19918:19921   */\n      dup3\n        /* \"#utility.yul\":19914:19926   */\n      add\n        /* \"#utility.yul\":19907:19926   */\n      swap1\n      pop\n        /* \"#utility.yul\":19566:19932   */\n      swap2\n      swap1\n      pop\n      jump\t// out\n        /* \"#utility.yul\":19938:20357   */\n    tag_167:\n        /* \"#utility.yul\":20104:20108   */\n      0x00\n        /* \"#utility.yul\":20142:20144   */\n      0x20\n        /* \"#utility.yul\":20131:20140   */\n      dup3\n        /* \"#utility.yul\":20127:20145   */\n      add\n        /* \"#utility.yul\":20119:20145   */\n      swap1\n      pop\n        /* \"#utility.yul\":20191:20200   */\n      dup2\n        /* \"#utility.yul\":20185:20189   */\n      dup2\n        /* \"#utility.yul\":20181:20201   */\n      sub\n        /* \"#utility.yul\":20177:20178   */\n      0x00\n        /* \"#utility.yul\":20166:20175   */\n      dup4\n        /* \"#utility.yul\":20162:20179   */\n      add\n        /* \"#utility.yul\":20155:20202   */\n      mstore\n        /* \"#utility.yul\":20219:20350   */\n      tag_487\n        /* \"#utility.yul\":20345:20349   */\n      dup2\n        /* \"#utility.yul\":20219:20350   */\n      tag_270\n      jump\t// in\n    tag_487:\n        /* \"#utility.yul\":20211:20350   */\n      swap1\n      pop\n        /* \"#utility.yul\":19938:20357   */\n      swap2\n      swap1\n      pop\n      jump\t// out\n        /* \"#utility.yul\":20363:20535   */\n    tag_271:\n        /* \"#utility.yul\":20503:20527   */\n      0x53656e64206d6f7265207468616e203020657468657200000000000000000000\n        /* \"#utility.yul\":20499:20500   */\n      0x00\n        /* \"#utility.yul\":20491:20497   */\n      dup3\n        /* \"#utility.yul\":20487:20501   */\n      add\n        /* \"#utility.yul\":20480:20528   */\n      mstore\n        /* \"#utility.yul\":20363:20535   */\n      pop\n      jump\t// out\n        /* \"#utility.yul\":20541:20907   */\n    tag_272:\n        /* \"#utility.yul\":20683:20686   */\n      0x00\n        /* \"#utility.yul\":20704:20771   */\n      tag_490\n        /* \"#utility.yul\":20768:20770   */\n      0x16\n        /* \"#utility.yul\":20763:20766   */\n      dup4\n        /* \"#utility.yul\":20704:20771   */\n      tag_227\n      jump\t// in\n    tag_490:\n        /* \"#utility.yul\":20697:20771   */\n      swap2\n      pop\n        /* \"#utility.yul\":20780:20873   */\n      tag_491\n        /* \"#utility.yul\":20869:20872   */\n      dup3\n        /* \"#utility.yul\":20780:20873   */\n      tag_271\n      jump\t// in\n    tag_491:\n        /* \"#utility.yul\":20898:20900   */\n      0x20\n        /* \"#utility.yul\":20893:20896   */\n      dup3\n        /* \"#utility.yul\":20889:20901   */\n      add\n        /* \"#utility.yul\":20882:20901   */\n      swap1\n      pop\n        /* \"#utility.yul\":20541:20907   */\n      swap2\n      swap1\n      pop\n      jump\t// out\n        /* \"#utility.yul\":20913:21332   */\n    tag_170:\n        /* \"#utility.yul\":21079:21083   */\n      0x00\n        /* \"#utility.yul\":21117:21119   */\n      0x20\n        /* \"#utility.yul\":21106:21115   */\n      dup3\n        /* \"#utility.yul\":21102:21120   */\n      add\n        /* \"#utility.yul\":21094:21120   */\n      swap1\n      pop\n        /* \"#utility.yul\":21166:21175   */\n      dup2\n        /* \"#utility.yul\":21160:21164   */\n      dup2\n        /* \"#utility.yul\":21156:21176   */\n      sub\n        /* \"#utility.yul\":21152:21153   */\n      0x00\n        /* \"#utility.yul\":21141:21150   */\n      dup4\n        /* \"#utility.yul\":21137:21154   */\n      add\n        /* \"#utility.yul\":21130:21177   */\n      mstore\n        /* \"#utility.yul\":21194:21325   */\n      tag_493\n        /* \"#utility.yul\":21320:21324   */\n      dup2\n        /* \"#utility.yul\":21194:21325   */\n      tag_272\n      jump\t// in\n    tag_493:\n        /* \"#utility.yul\":21186:21325   */\n      swap1\n      pop\n        /* \"#utility.yul\":20913:21332   */\n      swap2\n      swap1\n      pop\n      jump\t// out\n        /* \"#utility.yul\":21338:21504   */\n    tag_273:\n        /* \"#utility.yul\":21478:21496   */\n      0x4e6f7420656e6f7567682066756e647300000000000000000000000000000000\n        /* \"#utility.yul\":21474:21475   */\n      0x00\n        /* \"#utility.yul\":21466:21472   */\n      dup3\n        /* \"#utility.yul\":21462:21476   */\n      add\n        /* \"#utility.yul\":21455:21497   */\n      mstore\n        /* \"#utility.yul\":21338:21504   */\n      pop\n      jump\t// out\n        /* \"#utility.yul\":21510:21876   */\n    tag_274:\n        /* \"#utility.yul\":21652:21655   */\n      0x00\n        /* \"#utility.yul\":21673:21740   */\n      tag_496\n        /* \"#utility.yul\":21737:21739   */\n      0x10\n        /* \"#utility.yul\":21732:21735   */\n      dup4\n        /* \"#utility.yul\":21673:21740   */\n      tag_227\n      jump\t// in\n    tag_496:\n        /* \"#utility.yul\":21666:21740   */\n      swap2\n      pop\n        /* \"#utility.yul\":21749:21842   */\n      tag_497\n        /* \"#utility.yul\":21838:21841   */\n      dup3\n        /* \"#utility.yul\":21749:21842   */\n      tag_273\n      jump\t// in\n    tag_497:\n        /* \"#utility.yul\":21867:21869   */\n      0x20\n        /* \"#utility.yul\":21862:21865   */\n      dup3\n        /* \"#utility.yul\":21858:21870   */\n      add\n        /* \"#utility.yul\":21851:21870   */\n      swap1\n      pop\n        /* \"#utility.yul\":21510:21876   */\n      swap2\n      swap1\n      pop\n      jump\t// out\n        /* \"#utility.yul\":21882:22301   */\n    tag_181:\n        /* \"#utility.yul\":22048:22052   */\n      0x00\n        /* \"#utility.yul\":22086:22088   */\n      0x20\n        /* \"#utility.yul\":22075:22084   */\n      dup3\n        /* \"#utility.yul\":22071:22089   */\n      add\n        /* \"#utility.yul\":22063:22089   */\n      swap1\n      pop\n        /* \"#utility.yul\":22135:22144   */\n      dup2\n        /* \"#utility.yul\":22129:22133   */\n      dup2\n        /* \"#utility.yul\":22125:22145   */\n      sub\n        /* \"#utility.yul\":22121:22122   */\n      0x00\n        /* \"#utility.yul\":22110:22119   */\n      dup4\n        /* \"#utility.yul\":22106:22123   */\n      add\n        /* \"#utility.yul\":22099:22146   */\n      mstore\n        /* \"#utility.yul\":22163:22294   */\n      tag_499\n        /* \"#utility.yul\":22289:22293   */\n      dup2\n        /* \"#utility.yul\":22163:22294   */\n      tag_274\n      jump\t// in\n    tag_499:\n        /* \"#utility.yul\":22155:22294   */\n      swap1\n      pop\n        /* \"#utility.yul\":21882:22301   */\n      swap2\n      swap1\n      pop\n      jump\t// out\n        /* \"#utility.yul\":22307:22448   */\n    tag_275:\n        /* \"#utility.yul\":22356:22360   */\n      0x00\n        /* \"#utility.yul\":22379:22382   */\n      dup2\n        /* \"#utility.yul\":22371:22382   */\n      swap1\n      pop\n        /* \"#utility.yul\":22402:22405   */\n      dup2\n        /* \"#utility.yul\":22399:22400   */\n      0x00\n        /* \"#utility.yul\":22392:22406   */\n      mstore\n        /* \"#utility.yul\":22436:22440   */\n      0x20\n        /* \"#utility.yul\":22433:22434   */\n      0x00\n        /* \"#utility.yul\":22423:22441   */\n      keccak256\n        /* \"#utility.yul\":22415:22441   */\n      swap1\n      pop\n        /* \"#utility.yul\":22307:22448   */\n      swap2\n      swap1\n      pop\n      jump\t// out\n        /* \"#utility.yul\":22454:22547   */\n    tag_276:\n        /* \"#utility.yul\":22491:22497   */\n      0x00\n        /* \"#utility.yul\":22538:22540   */\n      0x20\n        /* \"#utility.yul\":22533:22535   */\n      0x1f\n        /* \"#utility.yul\":22526:22531   */\n      dup4\n        /* \"#utility.yul\":22522:22536   */\n      add\n        /* \"#utility.yul\":22518:22541   */\n      div\n        /* \"#utility.yul\":22508:22541   */\n      swap1\n      pop\n        /* \"#utility.yul\":22454:22547   */\n      swap2\n      swap1\n      pop\n      jump\t// out\n        /* \"#utility.yul\":22553:22660   */\n    tag_277:\n        /* \"#utility.yul\":22597:22605   */\n      0x00\n        /* \"#utility.yul\":22647:22652   */\n      dup3\n        /* \"#utility.yul\":22641:22645   */\n      dup3\n        /* \"#utility.yul\":22637:22653   */\n      shl\n        /* \"#utility.yul\":22616:22653   */\n      swap1\n      pop\n        /* \"#utility.yul\":22553:22660   */\n      swap3\n      swap2\n      pop\n      pop\n      jump\t// out\n        /* \"#utility.yul\":22666:23059   */\n    tag_278:\n        /* \"#utility.yul\":22735:22741   */\n      0x00\n        /* \"#utility.yul\":22785:22786   */\n      0x08\n        /* \"#utility.yul\":22773:22783   */\n      dup4\n        /* \"#utility.yul\":22769:22787   */\n      mul\n        /* \"#utility.yul\":22808:22905   */\n      tag_504\n        /* \"#utility.yul\":22838:22904   */\n      0xffffffffffffffffffffffffffffffffffffffffffffffffffffffffffffffff\n        /* \"#utility.yul\":22827:22836   */\n      dup3\n        /* \"#utility.yul\":22808:22905   */\n      tag_277\n      jump\t// in\n    tag_504:\n        /* \"#utility.yul\":22926:22965   */\n      tag_505\n        /* \"#utility.yul\":22956:22964   */\n      dup7\n        /* \"#utility.yul\":22945:22954   */\n      dup4\n        /* \"#utility.yul\":22926:22965   */\n      tag_277\n      jump\t// in\n    tag_505:\n        /* \"#utility.yul\":22914:22965   */\n      swap6\n      pop\n        /* \"#utility.yul\":22998:23002   */\n      dup1\n        /* \"#utility.yul\":22994:23003   */\n      not\n        /* \"#utility.yul\":22987:22992   */\n      dup5\n        /* \"#utility.yul\":22983:23004   */\n      and\n        /* \"#utility.yul\":22974:23004   */\n      swap4\n      pop\n        /* \"#utility.yul\":23047:23051   */\n      dup1\n        /* \"#utility.yul\":23037:23045   */\n      dup7\n        /* \"#utility.yul\":23033:23052   */\n      and\n        /* \"#utility.yul\":23026:23031   */\n      dup5\n        /* \"#utility.yul\":23023:23053   */\n      or\n        /* \"#utility.yul\":23013:23053   */\n      swap3\n      pop\n        /* \"#utility.yul\":22742:23059   */\n      pop\n      pop\n        /* \"#utility.yul\":22666:23059   */\n      swap4\n      swap3\n      pop\n      pop\n      pop\n      jump\t// out\n        /* \"#utility.yul\":23065:23125   */\n    tag_279:\n        /* \"#utility.yul\":23093:23096   */\n      0x00\n        /* \"#utility.yul\":23114:23119   */\n      dup2\n        /* \"#utility.yul\":23107:23119   */\n      swap1\n      pop\n        /* \"#utility.yul\":23065:23125   */\n      swap2\n      swap1\n      pop\n      jump\t// out\n        /* \"#utility.yul\":23131:23273   */\n    tag_280:\n        /* \"#utility.yul\":23181:23190   */\n      0x00\n        /* \"#utility.yul\":23214:23267   */\n      tag_508\n        /* \"#utility.yul\":23232:23266   */\n      tag_509\n        /* \"#utility.yul\":23241:23265   */\n      tag_510\n        /* \"#utility.yul\":23259:23264   */\n      dup5\n        /* \"#utility.yul\":23241:23265   */\n      tag_222\n      jump\t// in\n    tag_510:\n        /* \"#utility.yul\":23232:23266   */\n      tag_279\n      jump\t// in\n    tag_509:\n        /* \"#utility.yul\":23214:23267   */\n      tag_222\n      jump\t// in\n    tag_508:\n        /* \"#utility.yul\":23201:23267   */\n      swap1\n      pop\n        /* \"#utility.yul\":23131:23273   */\n      swap2\n      swap1\n      pop\n      jump\t// out\n        /* \"#utility.yul\":23279:23354   */\n    tag_281:\n        /* \"#utility.yul\":23322:23325   */\n      0x00\n        /* \"#utility.yul\":23343:23348   */\n      dup2\n        /* \"#utility.yul\":23336:23348   */\n      swap1\n      pop\n        /* \"#utility.yul\":23279:23354   */\n      swap2\n      swap1\n      pop\n      jump\t// out\n        /* \"#utility.yul\":23360:23629   */\n    tag_282:\n        /* \"#utility.yul\":23470:23509   */\n      tag_513\n        /* \"#utility.yul\":23501:23508   */\n      dup4\n        /* \"#utility.yul\":23470:23509   */\n      tag_280\n      jump\t// in\n    tag_513:\n        /* \"#utility.yul\":23531:23622   */\n      tag_514\n        /* \"#utility.yul\":23580:23621   */\n      tag_515\n        /* \"#utility.yul\":23604:23620   */\n      dup3\n        /* \"#utility.yul\":23580:23621   */\n      tag_281\n      jump\t// in\n    tag_515:\n        /* \"#utility.yul\":23572:23578   */\n      dup5\n        /* \"#utility.yul\":23565:23569   */\n      dup5\n        /* \"#utility.yul\":23559:23570   */\n      sload\n        /* \"#utility.yul\":23531:23622   */\n      tag_278\n      jump\t// in\n    tag_514:\n        /* \"#utility.yul\":23525:23529   */\n      dup3\n        /* \"#utility.yul\":23518:23623   */\n      sstore\n        /* \"#utility.yul\":23436:23629   */\n      pop\n        /* \"#utility.yul\":23360:23629   */\n      pop\n      pop\n      pop\n      jump\t// out\n        /* \"#utility.yul\":23635:23708   */\n    tag_283:\n        /* \"#utility.yul\":23680:23683   */\n      0x00\n        /* \"#utility.yul\":23635:23708   */\n      swap1\n      jump\t// out\n        /* \"#utility.yul\":23714:23903   */\n    tag_284:\n        /* \"#utility.yul\":23791:23823   */\n      tag_518\n      tag_283\n      jump\t// in\n    tag_518:\n        /* \"#utility.yul\":23832:23897   */\n      tag_519\n        /* \"#utility.yul\":23890:23896   */\n      dup2\n        /* \"#utility.yul\":23882:23888   */\n      dup5\n        /* \"#utility.yul\":23876:23880   */\n      dup5\n        /* \"#utility.yul\":23832:23897   */\n      tag_282\n      jump\t// in\n    tag_519:\n        /* \"#utility.yul\":23767:23903   */\n      pop\n        /* \"#utility.yul\":23714:23903   */\n      pop\n      pop\n      jump\t// out\n        /* \"#utility.yul\":23909:24095   */\n    tag_285:\n        /* \"#utility.yul\":23969:24089   */\n    tag_521:\n        /* \"#utility.yul\":23986:23989   */\n      dup2\n        /* \"#utility.yul\":23979:23984   */\n      dup2\n        /* \"#utility.yul\":23976:23990   */\n      lt\n        /* \"#utility.yul\":23969:24089   */\n      iszero\n      tag_523\n      jumpi\n        /* \"#utility.yul\":24040:24079   */\n      tag_524\n        /* \"#utility.yul\":24077:24078   */\n      0x00\n        /* \"#utility.yul\":24070:24075   */\n      dup3\n        /* \"#utility.yul\":24040:24079   */\n      tag_284\n      jump\t// in\n    tag_524:\n        /* \"#utility.yul\":24013:24014   */\n      0x01\n        /* \"#utility.yul\":24006:24011   */\n      dup2\n        /* \"#utility.yul\":24002:24015   */\n      add\n        /* \"#utility.yul\":23993:24015   */\n      swap1\n      pop\n        /* \"#utility.yul\":23969:24089   */\n      jump(tag_521)\n    tag_523:\n        /* \"#utility.yul\":23909:24095   */\n      pop\n      pop\n      jump\t// out\n        /* \"#utility.yul\":24101:24644   */\n    tag_286:\n        /* \"#utility.yul\":24202:24204   */\n      0x1f\n        /* \"#utility.yul\":24197:24200   */\n      dup3\n        /* \"#utility.yul\":24194:24205   */\n      gt\n        /* \"#utility.yul\":24191:24637   */\n      iszero\n      tag_526\n      jumpi\n        /* \"#utility.yul\":24236:24274   */\n      tag_527\n        /* \"#utility.yul\":24268:24273   */\n      dup2\n        /* \"#utility.yul\":24236:24274   */\n      tag_275\n      jump\t// in\n    tag_527:\n        /* \"#utility.yul\":24320:24349   */\n      tag_528\n        /* \"#utility.yul\":24338:24348   */\n      dup5\n        /* \"#utility.yul\":24320:24349   */\n      tag_276\n      jump\t// in\n    tag_528:\n        /* \"#utility.yul\":24310:24318   */\n      dup2\n        /* \"#utility.yul\":24306:24350   */\n      add\n        /* \"#utility.yul\":24503:24505   */\n      0x20\n        /* \"#utility.yul\":24491:24501   */\n      dup6\n        /* \"#utility.yul\":24488:24506   */\n      lt\n        /* \"#utility.yul\":24485:24534   */\n      iszero\n      tag_529\n      jumpi\n        /* \"#utility.yul\":24524:24532   */\n      dup2\n        /* \"#utility.yul\":24509:24532   */\n      swap1\n      pop\n        /* \"#utility.yul\":24485:24534   */\n    tag_529:\n        /* \"#utility.yul\":24547:24627   */\n      tag_530\n        /* \"#utility.yul\":24603:24625   */\n      tag_531\n        /* \"#utility.yul\":24621:24624   */\n      dup6\n        /* \"#utility.yul\":24603:24625   */\n      tag_276\n      jump\t// in\n    tag_531:\n        /* \"#utility.yul\":24593:24601   */\n      dup4\n        /* \"#utility.yul\":24589:24626   */\n      add\n        /* \"#utility.yul\":24576:24587   */\n      dup3\n        /* \"#utility.yul\":24547:24627   */\n      tag_285\n      jump\t// in\n    tag_530:\n        /* \"#utility.yul\":24206:24637   */\n      pop\n      pop\n        /* \"#utility.yul\":24191:24637   */\n    tag_526:\n        /* \"#utility.yul\":24101:24644   */\n      pop\n      pop\n      pop\n      jump\t// out\n        /* \"#utility.yul\":24650:24767   */\n    tag_287:\n        /* \"#utility.yul\":24704:24712   */\n      0x00\n        /* \"#utility.yul\":24754:24759   */\n      dup3\n        /* \"#utility.yul\":24748:24752   */\n      dup3\n        /* \"#utility.yul\":24744:24760   */\n      shr\n        /* \"#utility.yul\":24723:24760   */\n      swap1\n      pop\n        /* \"#utility.yul\":24650:24767   */\n      swap3\n      swap2\n      pop\n      pop\n      jump\t// out\n        /* \"#utility.yul\":24773:24942   */\n    tag_288:\n        /* \"#utility.yul\":24817:24823   */\n      0x00\n        /* \"#utility.yul\":24850:24901   */\n      tag_534\n        /* \"#utility.yul\":24898:24899   */\n      0x00\n        /* \"#utility.yul\":24894:24900   */\n      not\n        /* \"#utility.yul\":24886:24891   */\n      dup5\n        /* \"#utility.yul\":24883:24884   */\n      0x08\n        /* \"#utility.yul\":24879:24892   */\n      mul\n        /* \"#utility.yul\":24850:24901   */\n      tag_287\n      jump\t// in\n    tag_534:\n        /* \"#utility.yul\":24846:24902   */\n      not\n        /* \"#utility.yul\":24931:24935   */\n      dup1\n        /* \"#utility.yul\":24925:24929   */\n      dup4\n        /* \"#utility.yul\":24921:24936   */\n      and\n        /* \"#utility.yul\":24911:24936   */\n      swap2\n      pop\n        /* \"#utility.yul\":24824:24942   */\n      pop\n        /* \"#utility.yul\":24773:24942   */\n      swap3\n      swap2\n      pop\n      pop\n      jump\t// out\n        /* \"#utility.yul\":24947:25242   */\n    tag_289:\n        /* \"#utility.yul\":25023:25027   */\n      0x00\n        /* \"#utility.yul\":25169:25198   */\n      tag_536\n        /* \"#utility.yul\":25194:25197   */\n      dup4\n        /* \"#utility.yul\":25188:25192   */\n      dup4\n        /* \"#utility.yul\":25169:25198   */\n      tag_288\n      jump\t// in\n    tag_536:\n        /* \"#utility.yul\":25161:25198   */\n      swap2\n      pop\n        /* \"#utility.yul\":25231:25234   */\n      dup3\n        /* \"#utility.yul\":25228:25229   */\n      0x02\n        /* \"#utility.yul\":25224:25235   */\n      mul\n        /* \"#utility.yul\":25218:25222   */\n      dup3\n        /* \"#utility.yul\":25215:25236   */\n      or\n        /* \"#utility.yul\":25207:25236   */\n      swap1\n      pop\n        /* \"#utility.yul\":24947:25242   */\n      swap3\n      swap2\n      pop\n      pop\n      jump\t// out\n        /* \"#utility.yul\":25247:26642   */\n    tag_184:\n        /* \"#utility.yul\":25364:25401   */\n      tag_538\n        /* \"#utility.yul\":25397:25400   */\n      dup3\n        /* \"#utility.yul\":25364:25401   */\n      tag_226\n      jump\t// in\n    tag_538:\n        /* \"#utility.yul\":25466:25484   */\n      0xffffffffffffffff\n        /* \"#utility.yul\":25458:25464   */\n      dup2\n        /* \"#utility.yul\":25455:25485   */\n      gt\n        /* \"#utility.yul\":25452:25508   */\n      iszero\n      tag_539\n      jumpi\n        /* \"#utility.yul\":25488:25506   */\n      tag_540\n      tag_148\n      jump\t// in\n    tag_540:\n        /* \"#utility.yul\":25452:25508   */\n    tag_539:\n        /* \"#utility.yul\":25532:25570   */\n      tag_541\n        /* \"#utility.yul\":25564:25568   */\n      dup3\n        /* \"#utility.yul\":25558:25569   */\n      sload\n        /* \"#utility.yul\":25532:25570   */\n      tag_108\n      jump\t// in\n    tag_541:\n        /* \"#utility.yul\":25617:25684   */\n      tag_542\n        /* \"#utility.yul\":25677:25683   */\n      dup3\n        /* \"#utility.yul\":25669:25675   */\n      dup3\n        /* \"#utility.yul\":25663:25667   */\n      dup6\n        /* \"#utility.yul\":25617:25684   */\n      tag_286\n      jump\t// in\n    tag_542:\n        /* \"#utility.yul\":25711:25712   */\n      0x00\n        /* \"#utility.yul\":25735:25739   */\n      0x20\n        /* \"#utility.yul\":25722:25739   */\n      swap1\n      pop\n        /* \"#utility.yul\":25767:25769   */\n      0x1f\n        /* \"#utility.yul\":25759:25765   */\n      dup4\n        /* \"#utility.yul\":25756:25770   */\n      gt\n        /* \"#utility.yul\":25784:25785   */\n      0x01\n        /* \"#utility.yul\":25779:26397   */\n      dup2\n      eq\n      tag_544\n      jumpi\n        /* \"#utility.yul\":26441:26442   */\n      0x00\n        /* \"#utility.yul\":26458:26464   */\n      dup5\n        /* \"#utility.yul\":26455:26532   */\n      iszero\n      tag_545\n      jumpi\n        /* \"#utility.yul\":26507:26516   */\n      dup3\n        /* \"#utility.yul\":26502:26505   */\n      dup8\n        /* \"#utility.yul\":26498:26517   */\n      add\n        /* \"#utility.yul\":26492:26518   */\n      mload\n        /* \"#utility.yul\":26483:26518   */\n      swap1\n      pop\n        /* \"#utility.yul\":26455:26532   */\n    tag_545:\n        /* \"#utility.yul\":26558:26625   */\n      tag_546\n        /* \"#utility.yul\":26618:26624   */\n      dup6\n        /* \"#utility.yul\":26611:26616   */\n      dup3\n        /* \"#utility.yul\":26558:26625   */\n      tag_289\n      jump\t// in\n    tag_546:\n        /* \"#utility.yul\":26552:26556   */\n      dup7\n        /* \"#utility.yul\":26545:26626   */\n      sstore\n        /* \"#utility.yul\":26414:26636   */\n      pop\n        /* \"#utility.yul\":25749:26636   */\n      jump(tag_543)\n        /* \"#utility.yul\":25779:26397   */\n    tag_544:\n        /* \"#utility.yul\":25831:25835   */\n      0x1f\n        /* \"#utility.yul\":25827:25836   */\n      not\n        /* \"#utility.yul\":25819:25825   */\n      dup5\n        /* \"#utility.yul\":25815:25837   */\n      and\n        /* \"#utility.yul\":25865:25902   */\n      tag_547\n        /* \"#utility.yul\":25897:25901   */\n      dup7\n        /* \"#utility.yul\":25865:25902   */\n      tag_275\n      jump\t// in\n    tag_547:\n        /* \"#utility.yul\":25924:25925   */\n      0x00\n        /* \"#utility.yul\":25938:26146   */\n    tag_548:\n        /* \"#utility.yul\":25952:25959   */\n      dup3\n        /* \"#utility.yul\":25949:25950   */\n      dup2\n        /* \"#utility.yul\":25946:25960   */\n      lt\n        /* \"#utility.yul\":25938:26146   */\n      iszero\n      tag_550\n      jumpi\n        /* \"#utility.yul\":26031:26040   */\n      dup5\n        /* \"#utility.yul\":26026:26029   */\n      dup10\n        /* \"#utility.yul\":26022:26041   */\n      add\n        /* \"#utility.yul\":26016:26042   */\n      mload\n        /* \"#utility.yul\":26008:26014   */\n      dup3\n        /* \"#utility.yul\":26001:26043   */\n      sstore\n        /* \"#utility.yul\":26082:26083   */\n      0x01\n        /* \"#utility.yul\":26074:26080   */\n      dup3\n        /* \"#utility.yul\":26070:26084   */\n      add\n        /* \"#utility.yul\":26060:26084   */\n      swap2\n      pop\n        /* \"#utility.yul\":26129:26131   */\n      0x20\n        /* \"#utility.yul\":26118:26127   */\n      dup6\n        /* \"#utility.yul\":26114:26132   */\n      add\n        /* \"#utility.yul\":26101:26132   */\n      swap5\n      pop\n        /* \"#utility.yul\":25975:25979   */\n      0x20\n        /* \"#utility.yul\":25972:25973   */\n      dup2\n        /* \"#utility.yul\":25968:25980   */\n      add\n        /* \"#utility.yul\":25963:25980   */\n      swap1\n      pop\n        /* \"#utility.yul\":25938:26146   */\n      jump(tag_548)\n    tag_550:\n        /* \"#utility.yul\":26174:26180   */\n      dup7\n        /* \"#utility.yul\":26165:26172   */\n      dup4\n        /* \"#utility.yul\":26162:26181   */\n      lt\n        /* \"#utility.yul\":26159:26338   */\n      iszero\n      tag_551\n      jumpi\n        /* \"#utility.yul\":26232:26241   */\n      dup5\n        /* \"#utility.yul\":26227:26230   */\n      dup10\n        /* \"#utility.yul\":26223:26242   */\n      add\n        /* \"#utility.yul\":26217:26243   */\n      mload\n        /* \"#utility.yul\":26275:26323   */\n      tag_552\n        /* \"#utility.yul\":26317:26321   */\n      0x1f\n        /* \"#utility.yul\":26309:26315   */\n      dup10\n        /* \"#utility.yul\":26305:26322   */\n      and\n        /* \"#utility.yul\":26294:26303   */\n      dup3\n        /* \"#utility.yul\":26275:26323   */\n      tag_288\n      jump\t// in\n    tag_552:\n        /* \"#utility.yul\":26267:26273   */\n      dup4\n        /* \"#utility.yul\":26260:26324   */\n      sstore\n        /* \"#utility.yul\":26182:26338   */\n      pop\n        /* \"#utility.yul\":26159:26338   */\n    tag_551:\n        /* \"#utility.yul\":26384:26385   */\n      0x01\n        /* \"#utility.yul\":26380:26381   */\n      0x02\n        /* \"#utility.yul\":26372:26378   */\n      dup9\n        /* \"#utility.yul\":26368:26382   */\n      mul\n        /* \"#utility.yul\":26364:26386   */\n      add\n        /* \"#utility.yul\":26358:26362   */\n      dup9\n        /* \"#utility.yul\":26351:26387   */\n      sstore\n        /* \"#utility.yul\":25786:26397   */\n      pop\n      pop\n      pop\n        /* \"#utility.yul\":25749:26636   */\n    tag_543:\n      pop\n        /* \"#utility.yul\":25339:26642   */\n      pop\n      pop\n      pop\n        /* \"#utility.yul\":25247:26642   */\n      pop\n      pop\n      jump\t// out\n        /* \"#utility.yul\":26648:26881   */\n    tag_186:\n        /* \"#utility.yul\":26687:26690   */\n      0x00\n        /* \"#utility.yul\":26710:26734   */\n      tag_554\n        /* \"#utility.yul\":26728:26733   */\n      dup3\n        /* \"#utility.yul\":26710:26734   */\n      tag_222\n      jump\t// in\n    tag_554:\n        /* \"#utility.yul\":26701:26734   */\n      swap2\n      pop\n        /* \"#utility.yul\":26756:26822   */\n      0xffffffffffffffffffffffffffffffffffffffffffffffffffffffffffffffff\n        /* \"#utility.yul\":26749:26754   */\n      dup3\n        /* \"#utility.yul\":26746:26823   */\n      sub\n        /* \"#utility.yul\":26743:26846   */\n      tag_555\n      jumpi\n        /* \"#utility.yul\":26826:26844   */\n      tag_556\n      tag_263\n      jump\t// in\n    tag_556:\n        /* \"#utility.yul\":26743:26846   */\n    tag_555:\n        /* \"#utility.yul\":26873:26874   */\n      0x01\n        /* \"#utility.yul\":26866:26871   */\n      dup3\n        /* \"#utility.yul\":26862:26875   */\n      add\n        /* \"#utility.yul\":26855:26875   */\n      swap1\n      pop\n        /* \"#utility.yul\":26648:26881   */\n      swap2\n      swap1\n      pop\n      jump\t// out\n        /* \"#utility.yul\":26887:27114   */\n    tag_290:\n        /* \"#utility.yul\":27027:27061   */\n      0x596f75206861766520616c726561647920766f74656420666f72207468697320\n        /* \"#utility.yul\":27023:27024   */\n      0x00\n        /* \"#utility.yul\":27015:27021   */\n      dup3\n        /* \"#utility.yul\":27011:27025   */\n      add\n        /* \"#utility.yul\":27004:27062   */\n      mstore\n        /* \"#utility.yul\":27096:27106   */\n      0x70726f706f73616c000000000000000000000000000000000000000000000000\n        /* \"#utility.yul\":27091:27093   */\n      0x20\n        /* \"#utility.yul\":27083:27089   */\n      dup3\n        /* \"#utility.yul\":27079:27094   */\n      add\n        /* \"#utility.yul\":27072:27107   */\n      mstore\n        /* \"#utility.yul\":26887:27114   */\n      pop\n      jump\t// out\n        /* \"#utility.yul\":27120:27486   */\n    tag_291:\n        /* \"#utility.yul\":27262:27265   */\n      0x00\n        /* \"#utility.yul\":27283:27350   */\n      tag_559\n        /* \"#utility.yul\":27347:27349   */\n      0x28\n        /* \"#utility.yul\":27342:27345   */\n      dup4\n        /* \"#utility.yul\":27283:27350   */\n      tag_227\n      jump\t// in\n    tag_559:\n        /* \"#utility.yul\":27276:27350   */\n      swap2\n      pop\n        /* \"#utility.yul\":27359:27452   */\n      tag_560\n        /* \"#utility.yul\":27448:27451   */\n      dup3\n        /* \"#utility.yul\":27359:27452   */\n      tag_290\n      jump\t// in\n    tag_560:\n        /* \"#utility.yul\":27477:27479   */\n      0x40\n        /* \"#utility.yul\":27472:27475   */\n      dup3\n        /* \"#utility.yul\":27468:27480   */\n      add\n        /* \"#utility.yul\":27461:27480   */\n      swap1\n      pop\n        /* \"#utility.yul\":27120:27486   */\n      swap2\n      swap1\n      pop\n      jump\t// out\n        /* \"#utility.yul\":27492:27911   */\n    tag_193:\n        /* \"#utility.yul\":27658:27662   */\n      0x00\n        /* \"#utility.yul\":27696:27698   */\n      0x20\n        /* \"#utility.yul\":27685:27694   */\n      dup3\n        /* \"#utility.yul\":27681:27699   */\n      add\n        /* \"#utility.yul\":27673:27699   */\n      swap1\n      pop\n        /* \"#utility.yul\":27745:27754   */\n      dup2\n        /* \"#utility.yul\":27739:27743   */\n      dup2\n        /* \"#utility.yul\":27735:27755   */\n      sub\n        /* \"#utility.yul\":27731:27732   */\n      0x00\n        /* \"#utility.yul\":27720:27729   */\n      dup4\n        /* \"#utility.yul\":27716:27733   */\n      add\n        /* \"#utility.yul\":27709:27756   */\n      mstore\n        /* \"#utility.yul\":27773:27904   */\n      tag_562\n        /* \"#utility.yul\":27899:27903   */\n      dup2\n        /* \"#utility.yul\":27773:27904   */\n      tag_291\n      jump\t// in\n    tag_562:\n        /* \"#utility.yul\":27765:27904   */\n      swap1\n      pop\n        /* \"#utility.yul\":27492:27911   */\n      swap2\n      swap1\n      pop\n      jump\t// out\n        /* \"#utility.yul\":27917:28084   */\n    tag_292:\n        /* \"#utility.yul\":28057:28076   */\n      0x566f74696e672054696d6520456e646564000000000000000000000000000000\n        /* \"#utility.yul\":28053:28054   */\n      0x00\n        /* \"#utility.yul\":28045:28051   */\n      dup3\n        /* \"#utility.yul\":28041:28055   */\n      add\n        /* \"#utility.yul\":28034:28077   */\n      mstore\n        /* \"#utility.yul\":27917:28084   */\n      pop\n      jump\t// out\n        /* \"#utility.yul\":28090:28456   */\n    tag_293:\n        /* \"#utility.yul\":28232:28235   */\n      0x00\n        /* \"#utility.yul\":28253:28320   */\n      tag_565\n        /* \"#utility.yul\":28317:28319   */\n      0x11\n        /* \"#utility.yul\":28312:28315   */\n      dup4\n        /* \"#utility.yul\":28253:28320   */\n      tag_227\n      jump\t// in\n    tag_565:\n        /* \"#utility.yul\":28246:28320   */\n      swap2\n      pop\n        /* \"#utility.yul\":28329:28422   */\n      tag_566\n        /* \"#utility.yul\":28418:28421   */\n      dup3\n        /* \"#utility.yul\":28329:28422   */\n      tag_292\n      jump\t// in\n    tag_566:\n        /* \"#utility.yul\":28447:28449   */\n      0x20\n        /* \"#utility.yul\":28442:28445   */\n      dup3\n        /* \"#utility.yul\":28438:28450   */\n      add\n        /* \"#utility.yul\":28431:28450   */\n      swap1\n      pop\n        /* \"#utility.yul\":28090:28456   */\n      swap2\n      swap1\n      pop\n      jump\t// out\n        /* \"#utility.yul\":28462:28881   */\n    tag_196:\n        /* \"#utility.yul\":28628:28632   */\n      0x00\n        /* \"#utility.yul\":28666:28668   */\n      0x20\n        /* \"#utility.yul\":28655:28664   */\n      dup3\n        /* \"#utility.yul\":28651:28669   */\n      add\n        /* \"#utility.yul\":28643:28669   */\n      swap1\n      pop\n        /* \"#utility.yul\":28715:28724   */\n      dup2\n        /* \"#utility.yul\":28709:28713   */\n      dup2\n        /* \"#utility.yul\":28705:28725   */\n      sub\n        /* \"#utility.yul\":28701:28702   */\n      0x00\n        /* \"#utility.yul\":28690:28699   */\n      dup4\n        /* \"#utility.yul\":28686:28703   */\n      add\n        /* \"#utility.yul\":28679:28726   */\n      mstore\n        /* \"#utility.yul\":28743:28874   */\n      tag_568\n        /* \"#utility.yul\":28869:28873   */\n      dup2\n        /* \"#utility.yul\":28743:28874   */\n      tag_293\n      jump\t// in\n    tag_568:\n        /* \"#utility.yul\":28735:28874   */\n      swap1\n      pop\n        /* \"#utility.yul\":28462:28881   */\n      swap2\n      swap1\n      pop\n      jump\t// out\n        /* \"#utility.yul\":28887:29059   */\n    tag_294:\n        /* \"#utility.yul\":29027:29051   */\n      0x497420697320616c726561647920657865637574656400000000000000000000\n        /* \"#utility.yul\":29023:29024   */\n      0x00\n        /* \"#utility.yul\":29015:29021   */\n      dup3\n        /* \"#utility.yul\":29011:29025   */\n      add\n        /* \"#utility.yul\":29004:29052   */\n      mstore\n        /* \"#utility.yul\":28887:29059   */\n      pop\n      jump\t// out\n        /* \"#utility.yul\":29065:29431   */\n    tag_295:\n        /* \"#utility.yul\":29207:29210   */\n      0x00\n        /* \"#utility.yul\":29228:29295   */\n      tag_571\n        /* \"#utility.yul\":29292:29294   */\n      0x16\n        /* \"#utility.yul\":29287:29290   */\n      dup4\n        /* \"#utility.yul\":29228:29295   */\n      tag_227\n      jump\t// in\n    tag_571:\n        /* \"#utility.yul\":29221:29295   */\n      swap2\n      pop\n        /* \"#utility.yul\":29304:29397   */\n      tag_572\n        /* \"#utility.yul\":29393:29396   */\n      dup3\n        /* \"#utility.yul\":29304:29397   */\n      tag_294\n      jump\t// in\n    tag_572:\n        /* \"#utility.yul\":29422:29424   */\n      0x20\n        /* \"#utility.yul\":29417:29420   */\n      dup3\n        /* \"#utility.yul\":29413:29425   */\n      add\n        /* \"#utility.yul\":29406:29425   */\n      swap1\n      pop\n        /* \"#utility.yul\":29065:29431   */\n      swap2\n      swap1\n      pop\n      jump\t// out\n        /* \"#utility.yul\":29437:29856   */\n    tag_199:\n        /* \"#utility.yul\":29603:29607   */\n      0x00\n        /* \"#utility.yul\":29641:29643   */\n      0x20\n        /* \"#utility.yul\":29630:29639   */\n      dup3\n        /* \"#utility.yul\":29626:29644   */\n      add\n        /* \"#utility.yul\":29618:29644   */\n      swap1\n      pop\n        /* \"#utility.yul\":29690:29699   */\n      dup2\n        /* \"#utility.yul\":29684:29688   */\n      dup2\n        /* \"#utility.yul\":29680:29700   */\n      sub\n        /* \"#utility.yul\":29676:29677   */\n      0x00\n        /* \"#utility.yul\":29665:29674   */\n      dup4\n        /* \"#utility.yul\":29661:29678   */\n      add\n        /* \"#utility.yul\":29654:29701   */\n      mstore\n        /* \"#utility.yul\":29718:29849   */\n      tag_574\n        /* \"#utility.yul\":29844:29848   */\n      dup2\n        /* \"#utility.yul\":29718:29849   */\n      tag_295\n      jump\t// in\n    tag_574:\n        /* \"#utility.yul\":29710:29849   */\n      swap1\n      pop\n        /* \"#utility.yul\":29437:29856   */\n      swap2\n      swap1\n      pop\n      jump\t// out\n        /* \"#utility.yul\":29862:30040   */\n    tag_296:\n        /* \"#utility.yul\":30002:30032   */\n      0x596f7520646f6e2774206861766520656e6f7567682073686172657300000000\n        /* \"#utility.yul\":29998:29999   */\n      0x00\n        /* \"#utility.yul\":29990:29996   */\n      dup3\n        /* \"#utility.yul\":29986:30000   */\n      add\n        /* \"#utility.yul\":29979:30033   */\n      mstore\n        /* \"#utility.yul\":29862:30040   */\n      pop\n      jump\t// out\n        /* \"#utility.yul\":30046:30412   */\n    tag_297:\n        /* \"#utility.yul\":30188:30191   */\n      0x00\n        /* \"#utility.yul\":30209:30276   */\n      tag_577\n        /* \"#utility.yul\":30273:30275   */\n      0x1c\n        /* \"#utility.yul\":30268:30271   */\n      dup4\n        /* \"#utility.yul\":30209:30276   */\n      tag_227\n      jump\t// in\n    tag_577:\n        /* \"#utility.yul\":30202:30276   */\n      swap2\n      pop\n        /* \"#utility.yul\":30285:30378   */\n      tag_578\n        /* \"#utility.yul\":30374:30377   */\n      dup3\n        /* \"#utility.yul\":30285:30378   */\n      tag_296\n      jump\t// in\n    tag_578:\n        /* \"#utility.yul\":30403:30405   */\n      0x20\n        /* \"#utility.yul\":30398:30401   */\n      dup3\n        /* \"#utility.yul\":30394:30406   */\n      add\n        /* \"#utility.yul\":30387:30406   */\n      swap1\n      pop\n        /* \"#utility.yul\":30046:30412   */\n      swap2\n      swap1\n      pop\n      jump\t// out\n        /* \"#utility.yul\":30418:30837   */\n    tag_207:\n        /* \"#utility.yul\":30584:30588   */\n      0x00\n        /* \"#utility.yul\":30622:30624   */\n      0x20\n        /* \"#utility.yul\":30611:30620   */\n      dup3\n        /* \"#utility.yul\":30607:30625   */\n      add\n        /* \"#utility.yul\":30599:30625   */\n      swap1\n      pop\n        /* \"#utility.yul\":30671:30680   */\n      dup2\n        /* \"#utility.yul\":30665:30669   */\n      dup2\n        /* \"#utility.yul\":30661:30681   */\n      sub\n        /* \"#utility.yul\":30657:30658   */\n      0x00\n        /* \"#utility.yul\":30646:30655   */\n      dup4\n        /* \"#utility.yul\":30642:30659   */\n      add\n        /* \"#utility.yul\":30635:30682   */\n      mstore\n        /* \"#utility.yul\":30699:30830   */\n      tag_580\n        /* \"#utility.yul\":30825:30829   */\n      dup2\n        /* \"#utility.yul\":30699:30830   */\n      tag_297\n      jump\t// in\n    tag_580:\n        /* \"#utility.yul\":30691:30830   */\n      swap1\n      pop\n        /* \"#utility.yul\":30418:30837   */\n      swap2\n      swap1\n      pop\n      jump\t// out\n\n    auxdata: 0xa264697066735822122088d773ffc0a44c1fc789d94fe2e4272a89d5475a329c3bc99a3665ada0cbe59764736f6c634300081a0033\n}\n",
				"bytecode": {
					"linkReferences": {},
					"object": "608060405234801561000f575f80fd5b506040516127ea3803806127ea8339818101604052810190610031919061011f565b5f81118015610041575060648111155b610080576040517f08c379a0000000000000000000000000000000000000000000000000000000008152600401610077906101c9565b60405180910390fd5b824261008c9190610214565b6007819055508160098190555080600a8190555033600b5f6101000a81548173ffffffffffffffffffffffffffffffffffffffff021916908373ffffffffffffffffffffffffffffffffffffffff160217905550505050610247565b5f80fd5b5f819050919050565b6100fe816100ec565b8114610108575f80fd5b50565b5f81519050610119816100f5565b92915050565b5f805f60608486031215610136576101356100e8565b5b5f6101438682870161010b565b93505060206101548682870161010b565b92505060406101658682870161010b565b9150509250925092565b5f82825260208201905092915050565b7f4e6f742076616c69642076616c756573000000000000000000000000000000005f82015250565b5f6101b360108361016f565b91506101be8261017f565b602082019050919050565b5f6020820190508181035f8301526101e0816101a7565b9050919050565b7f4e487b71000000000000000000000000000000000000000000000000000000005f52601160045260245ffd5b5f61021e826100ec565b9150610229836100ec565b9250828201905080821115610241576102406101e7565b5b92915050565b612596806102545f395ff3fe608060405260043610610108575f3560e01c8063481c6a7511610094578063868643df11610063578063868643df146103305780638ee36f0514610358578063afc8275b14610394578063bcf93dd6146103be578063e65da429146103e857610108565b8063481c6a75146102ac57806350520b1f146102d65780636ac1e01f146102e0578063807896d51461030857610108565b80632ab09d14116100db5780632ab09d14146101c85780632ccc8727146101f25780633a98ef391461022e578063443895241461025857806346fcff4c1461028257610108565b8063013cf08b1461010c578063039383e61461014e5780630d61b519146101765780631703a0181461019e575b5f80fd5b348015610117575f80fd5b50610132600480360381019061012d919061168f565b610424565b6040516101459796959493929190611792565b60405180910390f35b348015610159575f80fd5b50610174600480360381019061016f9190611841565b610513565b005b348015610181575f80fd5b5061019c6004803603810190610197919061168f565b61086c565b005b3480156101a9575f80fd5b506101b26109c2565b6040516101bf919061187f565b60405180910390f35b3480156101d3575f80fd5b506101dc6109c8565b6040516101e9919061187f565b60405180910390f35b3480156101fd575f80fd5b506102186004803603810190610213919061168f565b6109ce565b60405161022591906118a7565b60405180910390f35b348015610239575f80fd5b50610242610a09565b60405161024f919061187f565b60405180910390f35b348015610263575f80fd5b5061026c610a0f565b6040516102799190611a89565b60405180910390f35b34801561028d575f80fd5b50610296610bf7565b6040516102a3919061187f565b60405180910390f35b3480156102b7575f80fd5b506102c0610bfd565b6040516102cd91906118a7565b60405180910390f35b6102de610c22565b005b3480156102eb575f80fd5b5061030660048036038101906103019190611b34565b610de2565b005b348015610313575f80fd5b5061032e6004803603810190610329919061168f565b611027565b005b34801561033b575f80fd5b506103566004803603810190610351919061168f565b6112c4565b005b348015610363575f80fd5b5061037e60048036038101906103799190611ba5565b611572565b60405161038b9190611be3565b60405180910390f35b34801561039f575f80fd5b506103a861159c565b6040516103b5919061187f565b60405180910390f35b3480156103c9575f80fd5b506103d26115a2565b6040516103df919061187f565b60405180910390f35b3480156103f3575f80fd5b5061040e60048036038101906104099190611bfc565b6115a8565b60405161041b919061187f565b60405180910390f35b6004602052805f5260405f205f91509050805f01549080600101805461044990611c54565b80601f016020809104026020016040519081016040528092919081815260200182805461047590611c54565b80156104c05780601f10610497576101008083540402835291602001916104c0565b820191905f5260205f20905b8154815290600101906020018083116104a357829003601f168201915b505050505090806002015490806003015f9054906101000a900473ffffffffffffffffffffffffffffffffffffffff1690806004015490806005015490806006015f9054906101000a900460ff16905087565b600115155f803373ffffffffffffffffffffffffffffffffffffffff1673ffffffffffffffffffffffffffffffffffffffff1681526020019081526020015f205f9054906101000a900460ff161515146105a2576040517f08c379a000000000000000000000000000000000000000000000000000000000815260040161059990611cce565b60405180910390fd5b8160015f3373ffffffffffffffffffffffffffffffffffffffff1673ffffffffffffffffffffffffffffffffffffffff1681526020019081526020015f20541015610622576040517f08c379a000000000000000000000000000000000000000000000000000000000815260040161061990611d36565b60405180910390fd5b8160015f3373ffffffffffffffffffffffffffffffffffffffff1673ffffffffffffffffffffffffffffffffffffffff1681526020019081526020015f205f82825461066e9190611d81565b925050819055505f60015f3373ffffffffffffffffffffffffffffffffffffffff1673ffffffffffffffffffffffffffffffffffffffff1681526020019081526020015f20540361070d575f805f3373ffffffffffffffffffffffffffffffffffffffff1673ffffffffffffffffffffffffffffffffffffffff1681526020019081526020015f205f6101000a81548160ff0219169083151502179055505b5f15155f808373ffffffffffffffffffffffffffffffffffffffff1673ffffffffffffffffffffffffffffffffffffffff1681526020019081526020015f205f9054906101000a900460ff161515036107c157600381908060018154018082558091505060019003905f5260205f20015f9091909190916101000a81548173ffffffffffffffffffffffffffffffffffffffff021916908373ffffffffffffffffffffffffffffffffffffffff1602179055505b60015f808373ffffffffffffffffffffffffffffffffffffffff1673ffffffffffffffffffffffffffffffffffffffff1681526020019081526020015f205f6101000a81548160ff0219169083151502179055508160015f8373ffffffffffffffffffffffffffffffffffffffff1673ffffffffffffffffffffffffffffffffffffffff1681526020019081526020015f205f8282546108619190611db4565b925050819055505050565b3373ffffffffffffffffffffffffffffffffffffffff16600b5f9054906101000a900473ffffffffffffffffffffffffffffffffffffffff1673ffffffffffffffffffffffffffffffffffffffff16146108fb576040517f08c379a00000000000000000000000000000000000000000000000000000000081526004016108f290611e31565b60405180910390fd5b5f60045f8381526020019081526020015f209050600a54600554606483600401546109269190611e4f565b6109309190611ebd565b1015610971576040517f08c379a000000000000000000000000000000000000000000000000000000000815260040161096890611f37565b60405180910390fd5b6001816006015f6101000a81548160ff0219169083151502179055506109be8160020154826003015f9054906101000a900473ffffffffffffffffffffffffffffffffffffffff166115bd565b5050565b600a5481565b60085481565b600381815481106109dd575f80fd5b905f5260205f20015f915054906101000a900473ffffffffffffffffffffffffffffffffffffffff1681565b60055481565b60605f6001600854610a219190611d81565b67ffffffffffffffff811115610a3a57610a39611f55565b5b604051908082528060200260200182016040528015610a7357816020015b610a60611605565b815260200190600190039081610a585790505b5090505f5b600854811015610bef5760045f8281526020019081526020015f206040518060e00160405290815f8201548152602001600182018054610ab790611c54565b80601f0160208091040260200160405190810160405280929190818152602001828054610ae390611c54565b8015610b2e5780601f10610b0557610100808354040283529160200191610b2e565b820191905f5260205f20905b815481529060010190602001808311610b1157829003601f168201915b5050505050815260200160028201548152602001600382015f9054906101000a900473ffffffffffffffffffffffffffffffffffffffff1673ffffffffffffffffffffffffffffffffffffffff1673ffffffffffffffffffffffffffffffffffffffff1681526020016004820154815260200160058201548152602001600682015f9054906101000a900460ff161515151581525050828281518110610bd757610bd6611f82565b5b60200260200101819052508080600101915050610a78565b508091505090565b60065481565b600b5f9054906101000a900473ffffffffffffffffffffffffffffffffffffffff1681565b600754421115610c67576040517f08c379a0000000000000000000000000000000000000000000000000000000008152600401610c5e90611ff9565b60405180910390fd5b5f3411610ca9576040517f08c379a0000000000000000000000000000000000000000000000000000000008152600401610ca090612061565b60405180910390fd5b60015f803373ffffffffffffffffffffffffffffffffffffffff1673ffffffffffffffffffffffffffffffffffffffff1681526020019081526020015f205f6101000a81548160ff0219169083151502179055503460015f3373ffffffffffffffffffffffffffffffffffffffff1673ffffffffffffffffffffffffffffffffffffffff1681526020019081526020015f205f828254610d499190611db4565b925050819055503460055f828254610d619190611db4565b925050819055503460065f828254610d799190611db4565b92505081905550600333908060018154018082558091505060019003905f5260205f20015f9091909190916101000a81548173ffffffffffffffffffffffffffffffffffffffff021916908373ffffffffffffffffffffffffffffffffffffffff160217905550565b3373ffffffffffffffffffffffffffffffffffffffff16600b5f9054906101000a900473ffffffffffffffffffffffffffffffffffffffff1673ffffffffffffffffffffffffffffffffffffffff1614610e71576040517f08c379a0000000000000000000000000000000000000000000000000000000008152600401610e6890611e31565b60405180910390fd5b816006541015610eb6576040517f08c379a0000000000000000000000000000000000000000000000000000000008152600401610ead906120c9565b60405180910390fd5b6040518060e00160405280600854815260200185858080601f0160208091040260200160405190810160405280939291908181526020018383808284375f81840152601f19601f8201169050808301925050505050505081526020018381526020018273ffffffffffffffffffffffffffffffffffffffff1681526020015f815260200160095442610f489190611db4565b81526020015f151581525060045f60085481526020019081526020015f205f820151815f01556020820151816001019081610f839190612284565b50604082015181600201556060820151816003015f6101000a81548173ffffffffffffffffffffffffffffffffffffffff021916908373ffffffffffffffffffffffffffffffffffffffff1602179055506080820151816004015560a0820151816005015560c0820151816006015f6101000a81548160ff02191690831515021790555090505060085f81548092919061101c90612353565b919050555050505050565b600115155f803373ffffffffffffffffffffffffffffffffffffffff1673ffffffffffffffffffffffffffffffffffffffff1681526020019081526020015f205f9054906101000a900460ff161515146110b6576040517f08c379a00000000000000000000000000000000000000000000000000000000081526004016110ad90611cce565b60405180910390fd5b5f60045f8381526020019081526020015f2090505f151560025f3373ffffffffffffffffffffffffffffffffffffffff1673ffffffffffffffffffffffffffffffffffffffff1681526020019081526020015f205f8481526020019081526020015f205f9054906101000a900460ff16151514611168576040517f08c379a000000000000000000000000000000000000000000000000000000000815260040161115f9061240a565b60405180910390fd5b42816005015410156111af576040517f08c379a00000000000000000000000000000000000000000000000000000000081526004016111a690612472565b60405180910390fd5b5f1515816006015f9054906101000a900460ff16151514611205576040517f08c379a00000000000000000000000000000000000000000000000000000000081526004016111fc906124da565b60405180910390fd5b600160025f3373ffffffffffffffffffffffffffffffffffffffff1673ffffffffffffffffffffffffffffffffffffffff1681526020019081526020015f205f8481526020019081526020015f205f6101000a81548160ff02191690831515021790555060015f3373ffffffffffffffffffffffffffffffffffffffff1673ffffffffffffffffffffffffffffffffffffffff1681526020019081526020015f2054816004015f8282546112b99190611db4565b925050819055505050565b600115155f803373ffffffffffffffffffffffffffffffffffffffff1673ffffffffffffffffffffffffffffffffffffffff1681526020019081526020015f205f9054906101000a900460ff16151514611353576040517f08c379a000000000000000000000000000000000000000000000000000000000815260040161134a90611cce565b60405180910390fd5b8060015f3373ffffffffffffffffffffffffffffffffffffffff1673ffffffffffffffffffffffffffffffffffffffff1681526020019081526020015f205410156113d3576040517f08c379a00000000000000000000000000000000000000000000000000000000081526004016113ca90612542565b60405180910390fd5b806006541015611418576040517f08c379a000000000000000000000000000000000000000000000000000000000815260040161140f906120c9565b60405180910390fd5b8060015f3373ffffffffffffffffffffffffffffffffffffffff1673ffffffffffffffffffffffffffffffffffffffff1681526020019081526020015f205f8282546114649190611d81565b925050819055505f60015f3373ffffffffffffffffffffffffffffffffffffffff1673ffffffffffffffffffffffffffffffffffffffff1681526020019081526020015f2054036114fb575f15155f803373ffffffffffffffffffffffffffffffffffffffff1673ffffffffffffffffffffffffffffffffffffffff1681526020019081526020015f205f9054906101000a905050505b8060065f82825461150c9190611d81565b925050819055508060055f8282546115249190611d81565b925050819055503373ffffffffffffffffffffffffffffffffffffffff166108fc8290811502906040515f60405180830381858888f1935050505015801561156e573d5f803e3d5ffd5b5050565b6002602052815f5260405f20602052805f5260405f205f915091509054906101000a900460ff1681565b60075481565b60095481565b6001602052805f5260405f205f915090505481565b8073ffffffffffffffffffffffffffffffffffffffff166108fc8390811502906040515f60405180830381858888f19350505050158015611600573d5f803e3d5ffd5b505050565b6040518060e001604052805f8152602001606081526020015f81526020015f73ffffffffffffffffffffffffffffffffffffffff1681526020015f81526020015f81526020015f151581525090565b5f80fd5b5f80fd5b5f819050919050565b61166e8161165c565b8114611678575f80fd5b50565b5f8135905061168981611665565b92915050565b5f602082840312156116a4576116a3611654565b5b5f6116b18482850161167b565b91505092915050565b6116c38161165c565b82525050565b5f81519050919050565b5f82825260208201905092915050565b8281835e5f83830152505050565b5f601f19601f8301169050919050565b5f61170b826116c9565b61171581856116d3565b93506117258185602086016116e3565b61172e816116f1565b840191505092915050565b5f73ffffffffffffffffffffffffffffffffffffffff82169050919050565b5f61176282611739565b9050919050565b61177281611758565b82525050565b5f8115159050919050565b61178c81611778565b82525050565b5f60e0820190506117a55f83018a6116ba565b81810360208301526117b78189611701565b90506117c660408301886116ba565b6117d36060830187611769565b6117e060808301866116ba565b6117ed60a08301856116ba565b6117fa60c0830184611783565b98975050505050505050565b5f61181082611739565b9050919050565b61182081611806565b811461182a575f80fd5b50565b5f8135905061183b81611817565b92915050565b5f806040838503121561185757611856611654565b5b5f6118648582860161167b565b92505060206118758582860161182d565b9150509250929050565b5f6020820190506118925f8301846116ba565b92915050565b6118a181611806565b82525050565b5f6020820190506118ba5f830184611898565b92915050565b5f81519050919050565b5f82825260208201905092915050565b5f819050602082019050919050565b6118f28161165c565b82525050565b5f82825260208201905092915050565b5f611912826116c9565b61191c81856118f8565b935061192c8185602086016116e3565b611935816116f1565b840191505092915050565b61194981611758565b82525050565b61195881611778565b82525050565b5f60e083015f8301516119735f8601826118e9565b506020830151848203602086015261198b8282611908565b91505060408301516119a060408601826118e9565b5060608301516119b36060860182611940565b5060808301516119c660808601826118e9565b5060a08301516119d960a08601826118e9565b5060c08301516119ec60c086018261194f565b508091505092915050565b5f611a02838361195e565b905092915050565b5f602082019050919050565b5f611a20826118c0565b611a2a81856118ca565b935083602082028501611a3c856118da565b805f5b85811015611a775784840389528151611a5885826119f7565b9450611a6383611a0a565b925060208a01995050600181019050611a3f565b50829750879550505050505092915050565b5f6020820190508181035f830152611aa18184611a16565b905092915050565b5f80fd5b5f80fd5b5f80fd5b5f8083601f840112611aca57611ac9611aa9565b5b8235905067ffffffffffffffff811115611ae757611ae6611aad565b5b602083019150836001820283011115611b0357611b02611ab1565b5b9250929050565b611b1381611758565b8114611b1d575f80fd5b50565b5f81359050611b2e81611b0a565b92915050565b5f805f8060608587031215611b4c57611b4b611654565b5b5f85013567ffffffffffffffff811115611b6957611b68611658565b5b611b7587828801611ab5565b94509450506020611b888782880161167b565b9250506040611b9987828801611b20565b91505092959194509250565b5f8060408385031215611bbb57611bba611654565b5b5f611bc88582860161182d565b9250506020611bd98582860161167b565b9150509250929050565b5f602082019050611bf65f830184611783565b92915050565b5f60208284031215611c1157611c10611654565b5b5f611c1e8482850161182d565b91505092915050565b7f4e487b71000000000000000000000000000000000000000000000000000000005f52602260045260245ffd5b5f6002820490506001821680611c6b57607f821691505b602082108103611c7e57611c7d611c27565b5b50919050565b7f596f7520617265206e6f7420616e20696e766573746f720000000000000000005f82015250565b5f611cb86017836116d3565b9150611cc382611c84565b602082019050919050565b5f6020820190508181035f830152611ce581611cac565b9050919050565b7f4e6f7420646f6e2774206861766520656e6f75676820736861726573000000005f82015250565b5f611d20601c836116d3565b9150611d2b82611cec565b602082019050919050565b5f6020820190508181035f830152611d4d81611d14565b9050919050565b7f4e487b71000000000000000000000000000000000000000000000000000000005f52601160045260245ffd5b5f611d8b8261165c565b9150611d968361165c565b9250828203905081811115611dae57611dad611d54565b5b92915050565b5f611dbe8261165c565b9150611dc98361165c565b9250828201905080821115611de157611de0611d54565b5b92915050565b7f596f7520617265206e6f7420746865206d616e616765720000000000000000005f82015250565b5f611e1b6017836116d3565b9150611e2682611de7565b602082019050919050565b5f6020820190508181035f830152611e4881611e0f565b9050919050565b5f611e598261165c565b9150611e648361165c565b9250828202611e728161165c565b91508282048414831517611e8957611e88611d54565b5b5092915050565b7f4e487b71000000000000000000000000000000000000000000000000000000005f52601260045260245ffd5b5f611ec78261165c565b9150611ed28361165c565b925082611ee257611ee1611e90565b5b828204905092915050565b7f4d616a6f7269747920646f6573206e6f742073757070706f72740000000000005f82015250565b5f611f21601a836116d3565b9150611f2c82611eed565b602082019050919050565b5f6020820190508181035f830152611f4e81611f15565b9050919050565b7f4e487b71000000000000000000000000000000000000000000000000000000005f52604160045260245ffd5b7f4e487b71000000000000000000000000000000000000000000000000000000005f52603260045260245ffd5b7f436f6e747269627574696f6e2054696d6520456e6465640000000000000000005f82015250565b5f611fe36017836116d3565b9150611fee82611faf565b602082019050919050565b5f6020820190508181035f83015261201081611fd7565b9050919050565b7f53656e64206d6f7265207468616e2030206574686572000000000000000000005f82015250565b5f61204b6016836116d3565b915061205682612017565b602082019050919050565b5f6020820190508181035f8301526120788161203f565b9050919050565b7f4e6f7420656e6f7567682066756e6473000000000000000000000000000000005f82015250565b5f6120b36010836116d3565b91506120be8261207f565b602082019050919050565b5f6020820190508181035f8301526120e0816120a7565b9050919050565b5f819050815f5260205f209050919050565b5f6020601f8301049050919050565b5f82821b905092915050565b5f600883026121437fffffffffffffffffffffffffffffffffffffffffffffffffffffffffffffffff82612108565b61214d8683612108565b95508019841693508086168417925050509392505050565b5f819050919050565b5f61218861218361217e8461165c565b612165565b61165c565b9050919050565b5f819050919050565b6121a18361216e565b6121b56121ad8261218f565b848454612114565b825550505050565b5f90565b6121c96121bd565b6121d4818484612198565b505050565b5b818110156121f7576121ec5f826121c1565b6001810190506121da565b5050565b601f82111561223c5761220d816120e7565b612216846120f9565b81016020851015612225578190505b612239612231856120f9565b8301826121d9565b50505b505050565b5f82821c905092915050565b5f61225c5f1984600802612241565b1980831691505092915050565b5f612274838361224d565b9150826002028217905092915050565b61228d826116c9565b67ffffffffffffffff8111156122a6576122a5611f55565b5b6122b08254611c54565b6122bb8282856121fb565b5f60209050601f8311600181146122ec575f84156122da578287015190505b6122e48582612269565b86555061234b565b601f1984166122fa866120e7565b5f5b82811015612321578489015182556001820191506020850194506020810190506122fc565b8683101561233e578489015161233a601f89168261224d565b8355505b6001600288020188555050505b505050505050565b5f61235d8261165c565b91507fffffffffffffffffffffffffffffffffffffffffffffffffffffffffffffffff820361238f5761238e611d54565b5b600182019050919050565b7f596f75206861766520616c726561647920766f74656420666f722074686973205f8201527f70726f706f73616c000000000000000000000000000000000000000000000000602082015250565b5f6123f46028836116d3565b91506123ff8261239a565b604082019050919050565b5f6020820190508181035f830152612421816123e8565b9050919050565b7f566f74696e672054696d6520456e6465640000000000000000000000000000005f82015250565b5f61245c6011836116d3565b915061246782612428565b602082019050919050565b5f6020820190508181035f83015261248981612450565b9050919050565b7f497420697320616c7265616479206578656375746564000000000000000000005f82015250565b5f6124c46016836116d3565b91506124cf82612490565b602082019050919050565b5f6020820190508181035f8301526124f1816124b8565b9050919050565b7f596f7520646f6e2774206861766520656e6f75676820736861726573000000005f82015250565b5f61252c601c836116d3565b9150612537826124f8565b602082019050919050565b5f6020820190508181035f83015261255981612520565b905091905056fea264697066735822122088d773ffc0a44c1fc789d94fe2e4272a89d5475a329c3bc99a3665ada0cbe59764736f6c634300081a0033",
					"opcodes": "PUSH1 0x80 PUSH1 0x40 MSTORE CALLVALUE DUP1 ISZERO PUSH2 0xF JUMPI PUSH0 DUP1 REVERT JUMPDEST POP PUSH1 0x40 MLOAD PUSH2 0x27EA CODESIZE SUB DUP1 PUSH2 0x27EA DUP4 CODECOPY DUP2 DUP2 ADD PUSH1 0x40 MSTORE DUP2 ADD SWAP1 PUSH2 0x31 SWAP2 SWAP1 PUSH2 0x11F JUMP JUMPDEST PUSH0 DUP2 GT DUP1 ISZERO PUSH2 0x41 JUMPI POP PUSH1 0x64 DUP2 GT ISZERO JUMPDEST PUSH2 0x80 JUMPI PUSH1 0x40 MLOAD PUSH32 0x8C379A000000000000000000000000000000000000000000000000000000000 DUP2 MSTORE PUSH1 0x4 ADD PUSH2 0x77 SWAP1 PUSH2 0x1C9 JUMP JUMPDEST PUSH1 0x40 MLOAD DUP1 SWAP2 SUB SWAP1 REVERT JUMPDEST DUP3 TIMESTAMP PUSH2 0x8C SWAP2 SWAP1 PUSH2 0x214 JUMP JUMPDEST PUSH1 0x7 DUP2 SWAP1 SSTORE POP DUP2 PUSH1 0x9 DUP2 SWAP1 SSTORE POP DUP1 PUSH1 0xA DUP2 SWAP1 SSTORE POP CALLER PUSH1 0xB PUSH0 PUSH2 0x100 EXP DUP2 SLOAD DUP2 PUSH20 0xFFFFFFFFFFFFFFFFFFFFFFFFFFFFFFFFFFFFFFFF MUL NOT AND SWAP1 DUP4 PUSH20 0xFFFFFFFFFFFFFFFFFFFFFFFFFFFFFFFFFFFFFFFF AND MUL OR SWAP1 SSTORE POP POP POP POP PUSH2 0x247 JUMP JUMPDEST PUSH0 DUP1 REVERT JUMPDEST PUSH0 DUP2 SWAP1 POP SWAP2 SWAP1 POP JUMP JUMPDEST PUSH2 0xFE DUP2 PUSH2 0xEC JUMP JUMPDEST DUP2 EQ PUSH2 0x108 JUMPI PUSH0 DUP1 REVERT JUMPDEST POP JUMP JUMPDEST PUSH0 DUP2 MLOAD SWAP1 POP PUSH2 0x119 DUP2 PUSH2 0xF5 JUMP JUMPDEST SWAP3 SWAP2 POP POP JUMP JUMPDEST PUSH0 DUP1 PUSH0 PUSH1 0x60 DUP5 DUP7 SUB SLT ISZERO PUSH2 0x136 JUMPI PUSH2 0x135 PUSH2 0xE8 JUMP JUMPDEST JUMPDEST PUSH0 PUSH2 0x143 DUP7 DUP3 DUP8 ADD PUSH2 0x10B JUMP JUMPDEST SWAP4 POP POP PUSH1 0x20 PUSH2 0x154 DUP7 DUP3 DUP8 ADD PUSH2 0x10B JUMP JUMPDEST SWAP3 POP POP PUSH1 0x40 PUSH2 0x165 DUP7 DUP3 DUP8 ADD PUSH2 0x10B JUMP JUMPDEST SWAP2 POP POP SWAP3 POP SWAP3 POP SWAP3 JUMP JUMPDEST PUSH0 DUP3 DUP3 MSTORE PUSH1 0x20 DUP3 ADD SWAP1 POP SWAP3 SWAP2 POP POP JUMP JUMPDEST PUSH32 0x4E6F742076616C69642076616C75657300000000000000000000000000000000 PUSH0 DUP3 ADD MSTORE POP JUMP JUMPDEST PUSH0 PUSH2 0x1B3 PUSH1 0x10 DUP4 PUSH2 0x16F JUMP JUMPDEST SWAP2 POP PUSH2 0x1BE DUP3 PUSH2 0x17F JUMP JUMPDEST PUSH1 0x20 DUP3 ADD SWAP1 POP SWAP2 SWAP1 POP JUMP JUMPDEST PUSH0 PUSH1 0x20 DUP3 ADD SWAP1 POP DUP2 DUP2 SUB PUSH0 DUP4 ADD MSTORE PUSH2 0x1E0 DUP2 PUSH2 0x1A7 JUMP JUMPDEST SWAP1 POP SWAP2 SWAP1 POP JUMP JUMPDEST PUSH32 0x4E487B7100000000000000000000000000000000000000000000000000000000 PUSH0 MSTORE PUSH1 0x11 PUSH1 0x4 MSTORE PUSH1 0x24 PUSH0 REVERT JUMPDEST PUSH0 PUSH2 0x21E DUP3 PUSH2 0xEC JUMP JUMPDEST SWAP2 POP PUSH2 0x229 DUP4 PUSH2 0xEC JUMP JUMPDEST SWAP3 POP DUP3 DUP3 ADD SWAP1 POP DUP1 DUP3 GT ISZERO PUSH2 0x241 JUMPI PUSH2 0x240 PUSH2 0x1E7 JUMP JUMPDEST JUMPDEST SWAP3 SWAP2 POP POP JUMP JUMPDEST PUSH2 0x2596 DUP1 PUSH2 0x254 PUSH0 CODECOPY PUSH0 RETURN INVALID PUSH1 0x80 PUSH1 0x40 MSTORE PUSH1 0x4 CALLDATASIZE LT PUSH2 0x108 JUMPI PUSH0 CALLDATALOAD PUSH1 0xE0 SHR DUP1 PUSH4 0x481C6A75 GT PUSH2 0x94 JUMPI DUP1 PUSH4 0x868643DF GT PUSH2 0x63 JUMPI DUP1 PUSH4 0x868643DF EQ PUSH2 0x330 JUMPI DUP1 PUSH4 0x8EE36F05 EQ PUSH2 0x358 JUMPI DUP1 PUSH4 0xAFC8275B EQ PUSH2 0x394 JUMPI DUP1 PUSH4 0xBCF93DD6 EQ PUSH2 0x3BE JUMPI DUP1 PUSH4 0xE65DA429 EQ PUSH2 0x3E8 JUMPI PUSH2 0x108 JUMP JUMPDEST DUP1 PUSH4 0x481C6A75 EQ PUSH2 0x2AC JUMPI DUP1 PUSH4 0x50520B1F EQ PUSH2 0x2D6 JUMPI DUP1 PUSH4 0x6AC1E01F EQ PUSH2 0x2E0 JUMPI DUP1 PUSH4 0x807896D5 EQ PUSH2 0x308 JUMPI PUSH2 0x108 JUMP JUMPDEST DUP1 PUSH4 0x2AB09D14 GT PUSH2 0xDB JUMPI DUP1 PUSH4 0x2AB09D14 EQ PUSH2 0x1C8 JUMPI DUP1 PUSH4 0x2CCC8727 EQ PUSH2 0x1F2 JUMPI DUP1 PUSH4 0x3A98EF39 EQ PUSH2 0x22E JUMPI DUP1 PUSH4 0x44389524 EQ PUSH2 0x258 JUMPI DUP1 PUSH4 0x46FCFF4C EQ PUSH2 0x282 JUMPI PUSH2 0x108 JUMP JUMPDEST DUP1 PUSH4 0x13CF08B EQ PUSH2 0x10C JUMPI DUP1 PUSH4 0x39383E6 EQ PUSH2 0x14E JUMPI DUP1 PUSH4 0xD61B519 EQ PUSH2 0x176 JUMPI DUP1 PUSH4 0x1703A018 EQ PUSH2 0x19E JUMPI JUMPDEST PUSH0 DUP1 REVERT JUMPDEST CALLVALUE DUP1 ISZERO PUSH2 0x117 JUMPI PUSH0 DUP1 REVERT JUMPDEST POP PUSH2 0x132 PUSH1 0x4 DUP1 CALLDATASIZE SUB DUP2 ADD SWAP1 PUSH2 0x12D SWAP2 SWAP1 PUSH2 0x168F JUMP JUMPDEST PUSH2 0x424 JUMP JUMPDEST PUSH1 0x40 MLOAD PUSH2 0x145 SWAP8 SWAP7 SWAP6 SWAP5 SWAP4 SWAP3 SWAP2 SWAP1 PUSH2 0x1792 JUMP JUMPDEST PUSH1 0x40 MLOAD DUP1 SWAP2 SUB SWAP1 RETURN JUMPDEST CALLVALUE DUP1 ISZERO PUSH2 0x159 JUMPI PUSH0 DUP1 REVERT JUMPDEST POP PUSH2 0x174 PUSH1 0x4 DUP1 CALLDATASIZE SUB DUP2 ADD SWAP1 PUSH2 0x16F SWAP2 SWAP1 PUSH2 0x1841 JUMP JUMPDEST PUSH2 0x513 JUMP JUMPDEST STOP JUMPDEST CALLVALUE DUP1 ISZERO PUSH2 0x181 JUMPI PUSH0 DUP1 REVERT JUMPDEST POP PUSH2 0x19C PUSH1 0x4 DUP1 CALLDATASIZE SUB DUP2 ADD SWAP1 PUSH2 0x197 SWAP2 SWAP1 PUSH2 0x168F JUMP JUMPDEST PUSH2 0x86C JUMP JUMPDEST STOP JUMPDEST CALLVALUE DUP1 ISZERO PUSH2 0x1A9 JUMPI PUSH0 DUP1 REVERT JUMPDEST POP PUSH2 0x1B2 PUSH2 0x9C2 JUMP JUMPDEST PUSH1 0x40 MLOAD PUSH2 0x1BF SWAP2 SWAP1 PUSH2 0x187F JUMP JUMPDEST PUSH1 0x40 MLOAD DUP1 SWAP2 SUB SWAP1 RETURN JUMPDEST CALLVALUE DUP1 ISZERO PUSH2 0x1D3 JUMPI PUSH0 DUP1 REVERT JUMPDEST POP PUSH2 0x1DC PUSH2 0x9C8 JUMP JUMPDEST PUSH1 0x40 MLOAD PUSH2 0x1E9 SWAP2 SWAP1 PUSH2 0x187F JUMP JUMPDEST PUSH1 0x40 MLOAD DUP1 SWAP2 SUB SWAP1 RETURN JUMPDEST CALLVALUE DUP1 ISZERO PUSH2 0x1FD JUMPI PUSH0 DUP1 REVERT JUMPDEST POP PUSH2 0x218 PUSH1 0x4 DUP1 CALLDATASIZE SUB DUP2 ADD SWAP1 PUSH2 0x213 SWAP2 SWAP1 PUSH2 0x168F JUMP JUMPDEST PUSH2 0x9CE JUMP JUMPDEST PUSH1 0x40 MLOAD PUSH2 0x225 SWAP2 SWAP1 PUSH2 0x18A7 JUMP JUMPDEST PUSH1 0x40 MLOAD DUP1 SWAP2 SUB SWAP1 RETURN JUMPDEST CALLVALUE DUP1 ISZERO PUSH2 0x239 JUMPI PUSH0 DUP1 REVERT JUMPDEST POP PUSH2 0x242 PUSH2 0xA09 JUMP JUMPDEST PUSH1 0x40 MLOAD PUSH2 0x24F SWAP2 SWAP1 PUSH2 0x187F JUMP JUMPDEST PUSH1 0x40 MLOAD DUP1 SWAP2 SUB SWAP1 RETURN JUMPDEST CALLVALUE DUP1 ISZERO PUSH2 0x263 JUMPI PUSH0 DUP1 REVERT JUMPDEST POP PUSH2 0x26C PUSH2 0xA0F JUMP JUMPDEST PUSH1 0x40 MLOAD PUSH2 0x279 SWAP2 SWAP1 PUSH2 0x1A89 JUMP JUMPDEST PUSH1 0x40 MLOAD DUP1 SWAP2 SUB SWAP1 RETURN JUMPDEST CALLVALUE DUP1 ISZERO PUSH2 0x28D JUMPI PUSH0 DUP1 REVERT JUMPDEST POP PUSH2 0x296 PUSH2 0xBF7 JUMP JUMPDEST PUSH1 0x40 MLOAD PUSH2 0x2A3 SWAP2 SWAP1 PUSH2 0x187F JUMP JUMPDEST PUSH1 0x40 MLOAD DUP1 SWAP2 SUB SWAP1 RETURN JUMPDEST CALLVALUE DUP1 ISZERO PUSH2 0x2B7 JUMPI PUSH0 DUP1 REVERT JUMPDEST POP PUSH2 0x2C0 PUSH2 0xBFD JUMP JUMPDEST PUSH1 0x40 MLOAD PUSH2 0x2CD SWAP2 SWAP1 PUSH2 0x18A7 JUMP JUMPDEST PUSH1 0x40 MLOAD DUP1 SWAP2 SUB SWAP1 RETURN JUMPDEST PUSH2 0x2DE PUSH2 0xC22 JUMP JUMPDEST STOP JUMPDEST CALLVALUE DUP1 ISZERO PUSH2 0x2EB JUMPI PUSH0 DUP1 REVERT JUMPDEST POP PUSH2 0x306 PUSH1 0x4 DUP1 CALLDATASIZE SUB DUP2 ADD SWAP1 PUSH2 0x301 SWAP2 SWAP1 PUSH2 0x1B34 JUMP JUMPDEST PUSH2 0xDE2 JUMP JUMPDEST STOP JUMPDEST CALLVALUE DUP1 ISZERO PUSH2 0x313 JUMPI PUSH0 DUP1 REVERT JUMPDEST POP PUSH2 0x32E PUSH1 0x4 DUP1 CALLDATASIZE SUB DUP2 ADD SWAP1 PUSH2 0x329 SWAP2 SWAP1 PUSH2 0x168F JUMP JUMPDEST PUSH2 0x1027 JUMP JUMPDEST STOP JUMPDEST CALLVALUE DUP1 ISZERO PUSH2 0x33B JUMPI PUSH0 DUP1 REVERT JUMPDEST POP PUSH2 0x356 PUSH1 0x4 DUP1 CALLDATASIZE SUB DUP2 ADD SWAP1 PUSH2 0x351 SWAP2 SWAP1 PUSH2 0x168F JUMP JUMPDEST PUSH2 0x12C4 JUMP JUMPDEST STOP JUMPDEST CALLVALUE DUP1 ISZERO PUSH2 0x363 JUMPI PUSH0 DUP1 REVERT JUMPDEST POP PUSH2 0x37E PUSH1 0x4 DUP1 CALLDATASIZE SUB DUP2 ADD SWAP1 PUSH2 0x379 SWAP2 SWAP1 PUSH2 0x1BA5 JUMP JUMPDEST PUSH2 0x1572 JUMP JUMPDEST PUSH1 0x40 MLOAD PUSH2 0x38B SWAP2 SWAP1 PUSH2 0x1BE3 JUMP JUMPDEST PUSH1 0x40 MLOAD DUP1 SWAP2 SUB SWAP1 RETURN JUMPDEST CALLVALUE DUP1 ISZERO PUSH2 0x39F JUMPI PUSH0 DUP1 REVERT JUMPDEST POP PUSH2 0x3A8 PUSH2 0x159C JUMP JUMPDEST PUSH1 0x40 MLOAD PUSH2 0x3B5 SWAP2 SWAP1 PUSH2 0x187F JUMP JUMPDEST PUSH1 0x40 MLOAD DUP1 SWAP2 SUB SWAP1 RETURN JUMPDEST CALLVALUE DUP1 ISZERO PUSH2 0x3C9 JUMPI PUSH0 DUP1 REVERT JUMPDEST POP PUSH2 0x3D2 PUSH2 0x15A2 JUMP JUMPDEST PUSH1 0x40 MLOAD PUSH2 0x3DF SWAP2 SWAP1 PUSH2 0x187F JUMP JUMPDEST PUSH1 0x40 MLOAD DUP1 SWAP2 SUB SWAP1 RETURN JUMPDEST CALLVALUE DUP1 ISZERO PUSH2 0x3F3 JUMPI PUSH0 DUP1 REVERT JUMPDEST POP PUSH2 0x40E PUSH1 0x4 DUP1 CALLDATASIZE SUB DUP2 ADD SWAP1 PUSH2 0x409 SWAP2 SWAP1 PUSH2 0x1BFC JUMP JUMPDEST PUSH2 0x15A8 JUMP JUMPDEST PUSH1 0x40 MLOAD PUSH2 0x41B SWAP2 SWAP1 PUSH2 0x187F JUMP JUMPDEST PUSH1 0x40 MLOAD DUP1 SWAP2 SUB SWAP1 RETURN JUMPDEST PUSH1 0x4 PUSH1 0x20 MSTORE DUP1 PUSH0 MSTORE PUSH1 0x40 PUSH0 KECCAK256 PUSH0 SWAP2 POP SWAP1 POP DUP1 PUSH0 ADD SLOAD SWAP1 DUP1 PUSH1 0x1 ADD DUP1 SLOAD PUSH2 0x449 SWAP1 PUSH2 0x1C54 JUMP JUMPDEST DUP1 PUSH1 0x1F ADD PUSH1 0x20 DUP1 SWAP2 DIV MUL PUSH1 0x20 ADD PUSH1 0x40 MLOAD SWAP1 DUP2 ADD PUSH1 0x40 MSTORE DUP1 SWAP3 SWAP2 SWAP1 DUP2 DUP2 MSTORE PUSH1 0x20 ADD DUP3 DUP1 SLOAD PUSH2 0x475 SWAP1 PUSH2 0x1C54 JUMP JUMPDEST DUP1 ISZERO PUSH2 0x4C0 JUMPI DUP1 PUSH1 0x1F LT PUSH2 0x497 JUMPI PUSH2 0x100 DUP1 DUP4 SLOAD DIV MUL DUP4 MSTORE SWAP2 PUSH1 0x20 ADD SWAP2 PUSH2 0x4C0 JUMP JUMPDEST DUP3 ADD SWAP2 SWAP1 PUSH0 MSTORE PUSH1 0x20 PUSH0 KECCAK256 SWAP1 JUMPDEST DUP2 SLOAD DUP2 MSTORE SWAP1 PUSH1 0x1 ADD SWAP1 PUSH1 0x20 ADD DUP1 DUP4 GT PUSH2 0x4A3 JUMPI DUP3 SWAP1 SUB PUSH1 0x1F AND DUP3 ADD SWAP2 JUMPDEST POP POP POP POP POP SWAP1 DUP1 PUSH1 0x2 ADD SLOAD SWAP1 DUP1 PUSH1 0x3 ADD PUSH0 SWAP1 SLOAD SWAP1 PUSH2 0x100 EXP SWAP1 DIV PUSH20 0xFFFFFFFFFFFFFFFFFFFFFFFFFFFFFFFFFFFFFFFF AND SWAP1 DUP1 PUSH1 0x4 ADD SLOAD SWAP1 DUP1 PUSH1 0x5 ADD SLOAD SWAP1 DUP1 PUSH1 0x6 ADD PUSH0 SWAP1 SLOAD SWAP1 PUSH2 0x100 EXP SWAP1 DIV PUSH1 0xFF AND SWAP1 POP DUP8 JUMP JUMPDEST PUSH1 0x1 ISZERO ISZERO PUSH0 DUP1 CALLER PUSH20 0xFFFFFFFFFFFFFFFFFFFFFFFFFFFFFFFFFFFFFFFF AND PUSH20 0xFFFFFFFFFFFFFFFFFFFFFFFFFFFFFFFFFFFFFFFF AND DUP2 MSTORE PUSH1 0x20 ADD SWAP1 DUP2 MSTORE PUSH1 0x20 ADD PUSH0 KECCAK256 PUSH0 SWAP1 SLOAD SWAP1 PUSH2 0x100 EXP SWAP1 DIV PUSH1 0xFF AND ISZERO ISZERO EQ PUSH2 0x5A2 JUMPI PUSH1 0x40 MLOAD PUSH32 0x8C379A000000000000000000000000000000000000000000000000000000000 DUP2 MSTORE PUSH1 0x4 ADD PUSH2 0x599 SWAP1 PUSH2 0x1CCE JUMP JUMPDEST PUSH1 0x40 MLOAD DUP1 SWAP2 SUB SWAP1 REVERT JUMPDEST DUP2 PUSH1 0x1 PUSH0 CALLER PUSH20 0xFFFFFFFFFFFFFFFFFFFFFFFFFFFFFFFFFFFFFFFF AND PUSH20 0xFFFFFFFFFFFFFFFFFFFFFFFFFFFFFFFFFFFFFFFF AND DUP2 MSTORE PUSH1 0x20 ADD SWAP1 DUP2 MSTORE PUSH1 0x20 ADD PUSH0 KECCAK256 SLOAD LT ISZERO PUSH2 0x622 JUMPI PUSH1 0x40 MLOAD PUSH32 0x8C379A000000000000000000000000000000000000000000000000000000000 DUP2 MSTORE PUSH1 0x4 ADD PUSH2 0x619 SWAP1 PUSH2 0x1D36 JUMP JUMPDEST PUSH1 0x40 MLOAD DUP1 SWAP2 SUB SWAP1 REVERT JUMPDEST DUP2 PUSH1 0x1 PUSH0 CALLER PUSH20 0xFFFFFFFFFFFFFFFFFFFFFFFFFFFFFFFFFFFFFFFF AND PUSH20 0xFFFFFFFFFFFFFFFFFFFFFFFFFFFFFFFFFFFFFFFF AND DUP2 MSTORE PUSH1 0x20 ADD SWAP1 DUP2 MSTORE PUSH1 0x20 ADD PUSH0 KECCAK256 PUSH0 DUP3 DUP3 SLOAD PUSH2 0x66E SWAP2 SWAP1 PUSH2 0x1D81 JUMP JUMPDEST SWAP3 POP POP DUP2 SWAP1 SSTORE POP PUSH0 PUSH1 0x1 PUSH0 CALLER PUSH20 0xFFFFFFFFFFFFFFFFFFFFFFFFFFFFFFFFFFFFFFFF AND PUSH20 0xFFFFFFFFFFFFFFFFFFFFFFFFFFFFFFFFFFFFFFFF AND DUP2 MSTORE PUSH1 0x20 ADD SWAP1 DUP2 MSTORE PUSH1 0x20 ADD PUSH0 KECCAK256 SLOAD SUB PUSH2 0x70D JUMPI PUSH0 DUP1 PUSH0 CALLER PUSH20 0xFFFFFFFFFFFFFFFFFFFFFFFFFFFFFFFFFFFFFFFF AND PUSH20 0xFFFFFFFFFFFFFFFFFFFFFFFFFFFFFFFFFFFFFFFF AND DUP2 MSTORE PUSH1 0x20 ADD SWAP1 DUP2 MSTORE PUSH1 0x20 ADD PUSH0 KECCAK256 PUSH0 PUSH2 0x100 EXP DUP2 SLOAD DUP2 PUSH1 0xFF MUL NOT AND SWAP1 DUP4 ISZERO ISZERO MUL OR SWAP1 SSTORE POP JUMPDEST PUSH0 ISZERO ISZERO PUSH0 DUP1 DUP4 PUSH20 0xFFFFFFFFFFFFFFFFFFFFFFFFFFFFFFFFFFFFFFFF AND PUSH20 0xFFFFFFFFFFFFFFFFFFFFFFFFFFFFFFFFFFFFFFFF AND DUP2 MSTORE PUSH1 0x20 ADD SWAP1 DUP2 MSTORE PUSH1 0x20 ADD PUSH0 KECCAK256 PUSH0 SWAP1 SLOAD SWAP1 PUSH2 0x100 EXP SWAP1 DIV PUSH1 0xFF AND ISZERO ISZERO SUB PUSH2 0x7C1 JUMPI PUSH1 0x3 DUP2 SWAP1 DUP1 PUSH1 0x1 DUP2 SLOAD ADD DUP1 DUP3 SSTORE DUP1 SWAP2 POP POP PUSH1 0x1 SWAP1 SUB SWAP1 PUSH0 MSTORE PUSH1 0x20 PUSH0 KECCAK256 ADD PUSH0 SWAP1 SWAP2 SWAP1 SWAP2 SWAP1 SWAP2 PUSH2 0x100 EXP DUP2 SLOAD DUP2 PUSH20 0xFFFFFFFFFFFFFFFFFFFFFFFFFFFFFFFFFFFFFFFF MUL NOT AND SWAP1 DUP4 PUSH20 0xFFFFFFFFFFFFFFFFFFFFFFFFFFFFFFFFFFFFFFFF AND MUL OR SWAP1 SSTORE POP JUMPDEST PUSH1 0x1 PUSH0 DUP1 DUP4 PUSH20 0xFFFFFFFFFFFFFFFFFFFFFFFFFFFFFFFFFFFFFFFF AND PUSH20 0xFFFFFFFFFFFFFFFFFFFFFFFFFFFFFFFFFFFFFFFF AND DUP2 MSTORE PUSH1 0x20 ADD SWAP1 DUP2 MSTORE PUSH1 0x20 ADD PUSH0 KECCAK256 PUSH0 PUSH2 0x100 EXP DUP2 SLOAD DUP2 PUSH1 0xFF MUL NOT AND SWAP1 DUP4 ISZERO ISZERO MUL OR SWAP1 SSTORE POP DUP2 PUSH1 0x1 PUSH0 DUP4 PUSH20 0xFFFFFFFFFFFFFFFFFFFFFFFFFFFFFFFFFFFFFFFF AND PUSH20 0xFFFFFFFFFFFFFFFFFFFFFFFFFFFFFFFFFFFFFFFF AND DUP2 MSTORE PUSH1 0x20 ADD SWAP1 DUP2 MSTORE PUSH1 0x20 ADD PUSH0 KECCAK256 PUSH0 DUP3 DUP3 SLOAD PUSH2 0x861 SWAP2 SWAP1 PUSH2 0x1DB4 JUMP JUMPDEST SWAP3 POP POP DUP2 SWAP1 SSTORE POP POP POP JUMP JUMPDEST CALLER PUSH20 0xFFFFFFFFFFFFFFFFFFFFFFFFFFFFFFFFFFFFFFFF AND PUSH1 0xB PUSH0 SWAP1 SLOAD SWAP1 PUSH2 0x100 EXP SWAP1 DIV PUSH20 0xFFFFFFFFFFFFFFFFFFFFFFFFFFFFFFFFFFFFFFFF AND PUSH20 0xFFFFFFFFFFFFFFFFFFFFFFFFFFFFFFFFFFFFFFFF AND EQ PUSH2 0x8FB JUMPI PUSH1 0x40 MLOAD PUSH32 0x8C379A000000000000000000000000000000000000000000000000000000000 DUP2 MSTORE PUSH1 0x4 ADD PUSH2 0x8F2 SWAP1 PUSH2 0x1E31 JUMP JUMPDEST PUSH1 0x40 MLOAD DUP1 SWAP2 SUB SWAP1 REVERT JUMPDEST PUSH0 PUSH1 0x4 PUSH0 DUP4 DUP2 MSTORE PUSH1 0x20 ADD SWAP1 DUP2 MSTORE PUSH1 0x20 ADD PUSH0 KECCAK256 SWAP1 POP PUSH1 0xA SLOAD PUSH1 0x5 SLOAD PUSH1 0x64 DUP4 PUSH1 0x4 ADD SLOAD PUSH2 0x926 SWAP2 SWAP1 PUSH2 0x1E4F JUMP JUMPDEST PUSH2 0x930 SWAP2 SWAP1 PUSH2 0x1EBD JUMP JUMPDEST LT ISZERO PUSH2 0x971 JUMPI PUSH1 0x40 MLOAD PUSH32 0x8C379A000000000000000000000000000000000000000000000000000000000 DUP2 MSTORE PUSH1 0x4 ADD PUSH2 0x968 SWAP1 PUSH2 0x1F37 JUMP JUMPDEST PUSH1 0x40 MLOAD DUP1 SWAP2 SUB SWAP1 REVERT JUMPDEST PUSH1 0x1 DUP2 PUSH1 0x6 ADD PUSH0 PUSH2 0x100 EXP DUP2 SLOAD DUP2 PUSH1 0xFF MUL NOT AND SWAP1 DUP4 ISZERO ISZERO MUL OR SWAP1 SSTORE POP PUSH2 0x9BE DUP2 PUSH1 0x2 ADD SLOAD DUP3 PUSH1 0x3 ADD PUSH0 SWAP1 SLOAD SWAP1 PUSH2 0x100 EXP SWAP1 DIV PUSH20 0xFFFFFFFFFFFFFFFFFFFFFFFFFFFFFFFFFFFFFFFF AND PUSH2 0x15BD JUMP JUMPDEST POP POP JUMP JUMPDEST PUSH1 0xA SLOAD DUP2 JUMP JUMPDEST PUSH1 0x8 SLOAD DUP2 JUMP JUMPDEST PUSH1 0x3 DUP2 DUP2 SLOAD DUP2 LT PUSH2 0x9DD JUMPI PUSH0 DUP1 REVERT JUMPDEST SWAP1 PUSH0 MSTORE PUSH1 0x20 PUSH0 KECCAK256 ADD PUSH0 SWAP2 POP SLOAD SWAP1 PUSH2 0x100 EXP SWAP1 DIV PUSH20 0xFFFFFFFFFFFFFFFFFFFFFFFFFFFFFFFFFFFFFFFF AND DUP2 JUMP JUMPDEST PUSH1 0x5 SLOAD DUP2 JUMP JUMPDEST PUSH1 0x60 PUSH0 PUSH1 0x1 PUSH1 0x8 SLOAD PUSH2 0xA21 SWAP2 SWAP1 PUSH2 0x1D81 JUMP JUMPDEST PUSH8 0xFFFFFFFFFFFFFFFF DUP2 GT ISZERO PUSH2 0xA3A JUMPI PUSH2 0xA39 PUSH2 0x1F55 JUMP JUMPDEST JUMPDEST PUSH1 0x40 MLOAD SWAP1 DUP1 DUP3 MSTORE DUP1 PUSH1 0x20 MUL PUSH1 0x20 ADD DUP3 ADD PUSH1 0x40 MSTORE DUP1 ISZERO PUSH2 0xA73 JUMPI DUP2 PUSH1 0x20 ADD JUMPDEST PUSH2 0xA60 PUSH2 0x1605 JUMP JUMPDEST DUP2 MSTORE PUSH1 0x20 ADD SWAP1 PUSH1 0x1 SWAP1 SUB SWAP1 DUP2 PUSH2 0xA58 JUMPI SWAP1 POP JUMPDEST POP SWAP1 POP PUSH0 JUMPDEST PUSH1 0x8 SLOAD DUP2 LT ISZERO PUSH2 0xBEF JUMPI PUSH1 0x4 PUSH0 DUP3 DUP2 MSTORE PUSH1 0x20 ADD SWAP1 DUP2 MSTORE PUSH1 0x20 ADD PUSH0 KECCAK256 PUSH1 0x40 MLOAD DUP1 PUSH1 0xE0 ADD PUSH1 0x40 MSTORE SWAP1 DUP2 PUSH0 DUP3 ADD SLOAD DUP2 MSTORE PUSH1 0x20 ADD PUSH1 0x1 DUP3 ADD DUP1 SLOAD PUSH2 0xAB7 SWAP1 PUSH2 0x1C54 JUMP JUMPDEST DUP1 PUSH1 0x1F ADD PUSH1 0x20 DUP1 SWAP2 DIV MUL PUSH1 0x20 ADD PUSH1 0x40 MLOAD SWAP1 DUP2 ADD PUSH1 0x40 MSTORE DUP1 SWAP3 SWAP2 SWAP1 DUP2 DUP2 MSTORE PUSH1 0x20 ADD DUP3 DUP1 SLOAD PUSH2 0xAE3 SWAP1 PUSH2 0x1C54 JUMP JUMPDEST DUP1 ISZERO PUSH2 0xB2E JUMPI DUP1 PUSH1 0x1F LT PUSH2 0xB05 JUMPI PUSH2 0x100 DUP1 DUP4 SLOAD DIV MUL DUP4 MSTORE SWAP2 PUSH1 0x20 ADD SWAP2 PUSH2 0xB2E JUMP JUMPDEST DUP3 ADD SWAP2 SWAP1 PUSH0 MSTORE PUSH1 0x20 PUSH0 KECCAK256 SWAP1 JUMPDEST DUP2 SLOAD DUP2 MSTORE SWAP1 PUSH1 0x1 ADD SWAP1 PUSH1 0x20 ADD DUP1 DUP4 GT PUSH2 0xB11 JUMPI DUP3 SWAP1 SUB PUSH1 0x1F AND DUP3 ADD SWAP2 JUMPDEST POP POP POP POP POP DUP2 MSTORE PUSH1 0x20 ADD PUSH1 0x2 DUP3 ADD SLOAD DUP2 MSTORE PUSH1 0x20 ADD PUSH1 0x3 DUP3 ADD PUSH0 SWAP1 SLOAD SWAP1 PUSH2 0x100 EXP SWAP1 DIV PUSH20 0xFFFFFFFFFFFFFFFFFFFFFFFFFFFFFFFFFFFFFFFF AND PUSH20 0xFFFFFFFFFFFFFFFFFFFFFFFFFFFFFFFFFFFFFFFF AND PUSH20 0xFFFFFFFFFFFFFFFFFFFFFFFFFFFFFFFFFFFFFFFF AND DUP2 MSTORE PUSH1 0x20 ADD PUSH1 0x4 DUP3 ADD SLOAD DUP2 MSTORE PUSH1 0x20 ADD PUSH1 0x5 DUP3 ADD SLOAD DUP2 MSTORE PUSH1 0x20 ADD PUSH1 0x6 DUP3 ADD PUSH0 SWAP1 SLOAD SWAP1 PUSH2 0x100 EXP SWAP1 DIV PUSH1 0xFF AND ISZERO ISZERO ISZERO ISZERO DUP2 MSTORE POP POP DUP3 DUP3 DUP2 MLOAD DUP2 LT PUSH2 0xBD7 JUMPI PUSH2 0xBD6 PUSH2 0x1F82 JUMP JUMPDEST JUMPDEST PUSH1 0x20 MUL PUSH1 0x20 ADD ADD DUP2 SWAP1 MSTORE POP DUP1 DUP1 PUSH1 0x1 ADD SWAP2 POP POP PUSH2 0xA78 JUMP JUMPDEST POP DUP1 SWAP2 POP POP SWAP1 JUMP JUMPDEST PUSH1 0x6 SLOAD DUP2 JUMP JUMPDEST PUSH1 0xB PUSH0 SWAP1 SLOAD SWAP1 PUSH2 0x100 EXP SWAP1 DIV PUSH20 0xFFFFFFFFFFFFFFFFFFFFFFFFFFFFFFFFFFFFFFFF AND DUP2 JUMP JUMPDEST PUSH1 0x7 SLOAD TIMESTAMP GT ISZERO PUSH2 0xC67 JUMPI PUSH1 0x40 MLOAD PUSH32 0x8C379A000000000000000000000000000000000000000000000000000000000 DUP2 MSTORE PUSH1 0x4 ADD PUSH2 0xC5E SWAP1 PUSH2 0x1FF9 JUMP JUMPDEST PUSH1 0x40 MLOAD DUP1 SWAP2 SUB SWAP1 REVERT JUMPDEST PUSH0 CALLVALUE GT PUSH2 0xCA9 JUMPI PUSH1 0x40 MLOAD PUSH32 0x8C379A000000000000000000000000000000000000000000000000000000000 DUP2 MSTORE PUSH1 0x4 ADD PUSH2 0xCA0 SWAP1 PUSH2 0x2061 JUMP JUMPDEST PUSH1 0x40 MLOAD DUP1 SWAP2 SUB SWAP1 REVERT JUMPDEST PUSH1 0x1 PUSH0 DUP1 CALLER PUSH20 0xFFFFFFFFFFFFFFFFFFFFFFFFFFFFFFFFFFFFFFFF AND PUSH20 0xFFFFFFFFFFFFFFFFFFFFFFFFFFFFFFFFFFFFFFFF AND DUP2 MSTORE PUSH1 0x20 ADD SWAP1 DUP2 MSTORE PUSH1 0x20 ADD PUSH0 KECCAK256 PUSH0 PUSH2 0x100 EXP DUP2 SLOAD DUP2 PUSH1 0xFF MUL NOT AND SWAP1 DUP4 ISZERO ISZERO MUL OR SWAP1 SSTORE POP CALLVALUE PUSH1 0x1 PUSH0 CALLER PUSH20 0xFFFFFFFFFFFFFFFFFFFFFFFFFFFFFFFFFFFFFFFF AND PUSH20 0xFFFFFFFFFFFFFFFFFFFFFFFFFFFFFFFFFFFFFFFF AND DUP2 MSTORE PUSH1 0x20 ADD SWAP1 DUP2 MSTORE PUSH1 0x20 ADD PUSH0 KECCAK256 PUSH0 DUP3 DUP3 SLOAD PUSH2 0xD49 SWAP2 SWAP1 PUSH2 0x1DB4 JUMP JUMPDEST SWAP3 POP POP DUP2 SWAP1 SSTORE POP CALLVALUE PUSH1 0x5 PUSH0 DUP3 DUP3 SLOAD PUSH2 0xD61 SWAP2 SWAP1 PUSH2 0x1DB4 JUMP JUMPDEST SWAP3 POP POP DUP2 SWAP1 SSTORE POP CALLVALUE PUSH1 0x6 PUSH0 DUP3 DUP3 SLOAD PUSH2 0xD79 SWAP2 SWAP1 PUSH2 0x1DB4 JUMP JUMPDEST SWAP3 POP POP DUP2 SWAP1 SSTORE POP PUSH1 0x3 CALLER SWAP1 DUP1 PUSH1 0x1 DUP2 SLOAD ADD DUP1 DUP3 SSTORE DUP1 SWAP2 POP POP PUSH1 0x1 SWAP1 SUB SWAP1 PUSH0 MSTORE PUSH1 0x20 PUSH0 KECCAK256 ADD PUSH0 SWAP1 SWAP2 SWAP1 SWAP2 SWAP1 SWAP2 PUSH2 0x100 EXP DUP2 SLOAD DUP2 PUSH20 0xFFFFFFFFFFFFFFFFFFFFFFFFFFFFFFFFFFFFFFFF MUL NOT AND SWAP1 DUP4 PUSH20 0xFFFFFFFFFFFFFFFFFFFFFFFFFFFFFFFFFFFFFFFF AND MUL OR SWAP1 SSTORE POP JUMP JUMPDEST CALLER PUSH20 0xFFFFFFFFFFFFFFFFFFFFFFFFFFFFFFFFFFFFFFFF AND PUSH1 0xB PUSH0 SWAP1 SLOAD SWAP1 PUSH2 0x100 EXP SWAP1 DIV PUSH20 0xFFFFFFFFFFFFFFFFFFFFFFFFFFFFFFFFFFFFFFFF AND PUSH20 0xFFFFFFFFFFFFFFFFFFFFFFFFFFFFFFFFFFFFFFFF AND EQ PUSH2 0xE71 JUMPI PUSH1 0x40 MLOAD PUSH32 0x8C379A000000000000000000000000000000000000000000000000000000000 DUP2 MSTORE PUSH1 0x4 ADD PUSH2 0xE68 SWAP1 PUSH2 0x1E31 JUMP JUMPDEST PUSH1 0x40 MLOAD DUP1 SWAP2 SUB SWAP1 REVERT JUMPDEST DUP2 PUSH1 0x6 SLOAD LT ISZERO PUSH2 0xEB6 JUMPI PUSH1 0x40 MLOAD PUSH32 0x8C379A000000000000000000000000000000000000000000000000000000000 DUP2 MSTORE PUSH1 0x4 ADD PUSH2 0xEAD SWAP1 PUSH2 0x20C9 JUMP JUMPDEST PUSH1 0x40 MLOAD DUP1 SWAP2 SUB SWAP1 REVERT JUMPDEST PUSH1 0x40 MLOAD DUP1 PUSH1 0xE0 ADD PUSH1 0x40 MSTORE DUP1 PUSH1 0x8 SLOAD DUP2 MSTORE PUSH1 0x20 ADD DUP6 DUP6 DUP1 DUP1 PUSH1 0x1F ADD PUSH1 0x20 DUP1 SWAP2 DIV MUL PUSH1 0x20 ADD PUSH1 0x40 MLOAD SWAP1 DUP2 ADD PUSH1 0x40 MSTORE DUP1 SWAP4 SWAP3 SWAP2 SWAP1 DUP2 DUP2 MSTORE PUSH1 0x20 ADD DUP4 DUP4 DUP1 DUP3 DUP5 CALLDATACOPY PUSH0 DUP2 DUP5 ADD MSTORE PUSH1 0x1F NOT PUSH1 0x1F DUP3 ADD AND SWAP1 POP DUP1 DUP4 ADD SWAP3 POP POP POP POP POP POP POP DUP2 MSTORE PUSH1 0x20 ADD DUP4 DUP2 MSTORE PUSH1 0x20 ADD DUP3 PUSH20 0xFFFFFFFFFFFFFFFFFFFFFFFFFFFFFFFFFFFFFFFF AND DUP2 MSTORE PUSH1 0x20 ADD PUSH0 DUP2 MSTORE PUSH1 0x20 ADD PUSH1 0x9 SLOAD TIMESTAMP PUSH2 0xF48 SWAP2 SWAP1 PUSH2 0x1DB4 JUMP JUMPDEST DUP2 MSTORE PUSH1 0x20 ADD PUSH0 ISZERO ISZERO DUP2 MSTORE POP PUSH1 0x4 PUSH0 PUSH1 0x8 SLOAD DUP2 MSTORE PUSH1 0x20 ADD SWAP1 DUP2 MSTORE PUSH1 0x20 ADD PUSH0 KECCAK256 PUSH0 DUP3 ADD MLOAD DUP2 PUSH0 ADD SSTORE PUSH1 0x20 DUP3 ADD MLOAD DUP2 PUSH1 0x1 ADD SWAP1 DUP2 PUSH2 0xF83 SWAP2 SWAP1 PUSH2 0x2284 JUMP JUMPDEST POP PUSH1 0x40 DUP3 ADD MLOAD DUP2 PUSH1 0x2 ADD SSTORE PUSH1 0x60 DUP3 ADD MLOAD DUP2 PUSH1 0x3 ADD PUSH0 PUSH2 0x100 EXP DUP2 SLOAD DUP2 PUSH20 0xFFFFFFFFFFFFFFFFFFFFFFFFFFFFFFFFFFFFFFFF MUL NOT AND SWAP1 DUP4 PUSH20 0xFFFFFFFFFFFFFFFFFFFFFFFFFFFFFFFFFFFFFFFF AND MUL OR SWAP1 SSTORE POP PUSH1 0x80 DUP3 ADD MLOAD DUP2 PUSH1 0x4 ADD SSTORE PUSH1 0xA0 DUP3 ADD MLOAD DUP2 PUSH1 0x5 ADD SSTORE PUSH1 0xC0 DUP3 ADD MLOAD DUP2 PUSH1 0x6 ADD PUSH0 PUSH2 0x100 EXP DUP2 SLOAD DUP2 PUSH1 0xFF MUL NOT AND SWAP1 DUP4 ISZERO ISZERO MUL OR SWAP1 SSTORE POP SWAP1 POP POP PUSH1 0x8 PUSH0 DUP2 SLOAD DUP1 SWAP3 SWAP2 SWAP1 PUSH2 0x101C SWAP1 PUSH2 0x2353 JUMP JUMPDEST SWAP2 SWAP1 POP SSTORE POP POP POP POP POP JUMP JUMPDEST PUSH1 0x1 ISZERO ISZERO PUSH0 DUP1 CALLER PUSH20 0xFFFFFFFFFFFFFFFFFFFFFFFFFFFFFFFFFFFFFFFF AND PUSH20 0xFFFFFFFFFFFFFFFFFFFFFFFFFFFFFFFFFFFFFFFF AND DUP2 MSTORE PUSH1 0x20 ADD SWAP1 DUP2 MSTORE PUSH1 0x20 ADD PUSH0 KECCAK256 PUSH0 SWAP1 SLOAD SWAP1 PUSH2 0x100 EXP SWAP1 DIV PUSH1 0xFF AND ISZERO ISZERO EQ PUSH2 0x10B6 JUMPI PUSH1 0x40 MLOAD PUSH32 0x8C379A000000000000000000000000000000000000000000000000000000000 DUP2 MSTORE PUSH1 0x4 ADD PUSH2 0x10AD SWAP1 PUSH2 0x1CCE JUMP JUMPDEST PUSH1 0x40 MLOAD DUP1 SWAP2 SUB SWAP1 REVERT JUMPDEST PUSH0 PUSH1 0x4 PUSH0 DUP4 DUP2 MSTORE PUSH1 0x20 ADD SWAP1 DUP2 MSTORE PUSH1 0x20 ADD PUSH0 KECCAK256 SWAP1 POP PUSH0 ISZERO ISZERO PUSH1 0x2 PUSH0 CALLER PUSH20 0xFFFFFFFFFFFFFFFFFFFFFFFFFFFFFFFFFFFFFFFF AND PUSH20 0xFFFFFFFFFFFFFFFFFFFFFFFFFFFFFFFFFFFFFFFF AND DUP2 MSTORE PUSH1 0x20 ADD SWAP1 DUP2 MSTORE PUSH1 0x20 ADD PUSH0 KECCAK256 PUSH0 DUP5 DUP2 MSTORE PUSH1 0x20 ADD SWAP1 DUP2 MSTORE PUSH1 0x20 ADD PUSH0 KECCAK256 PUSH0 SWAP1 SLOAD SWAP1 PUSH2 0x100 EXP SWAP1 DIV PUSH1 0xFF AND ISZERO ISZERO EQ PUSH2 0x1168 JUMPI PUSH1 0x40 MLOAD PUSH32 0x8C379A000000000000000000000000000000000000000000000000000000000 DUP2 MSTORE PUSH1 0x4 ADD PUSH2 0x115F SWAP1 PUSH2 0x240A JUMP JUMPDEST PUSH1 0x40 MLOAD DUP1 SWAP2 SUB SWAP1 REVERT JUMPDEST TIMESTAMP DUP2 PUSH1 0x5 ADD SLOAD LT ISZERO PUSH2 0x11AF JUMPI PUSH1 0x40 MLOAD PUSH32 0x8C379A000000000000000000000000000000000000000000000000000000000 DUP2 MSTORE PUSH1 0x4 ADD PUSH2 0x11A6 SWAP1 PUSH2 0x2472 JUMP JUMPDEST PUSH1 0x40 MLOAD DUP1 SWAP2 SUB SWAP1 REVERT JUMPDEST PUSH0 ISZERO ISZERO DUP2 PUSH1 0x6 ADD PUSH0 SWAP1 SLOAD SWAP1 PUSH2 0x100 EXP SWAP1 DIV PUSH1 0xFF AND ISZERO ISZERO EQ PUSH2 0x1205 JUMPI PUSH1 0x40 MLOAD PUSH32 0x8C379A000000000000000000000000000000000000000000000000000000000 DUP2 MSTORE PUSH1 0x4 ADD PUSH2 0x11FC SWAP1 PUSH2 0x24DA JUMP JUMPDEST PUSH1 0x40 MLOAD DUP1 SWAP2 SUB SWAP1 REVERT JUMPDEST PUSH1 0x1 PUSH1 0x2 PUSH0 CALLER PUSH20 0xFFFFFFFFFFFFFFFFFFFFFFFFFFFFFFFFFFFFFFFF AND PUSH20 0xFFFFFFFFFFFFFFFFFFFFFFFFFFFFFFFFFFFFFFFF AND DUP2 MSTORE PUSH1 0x20 ADD SWAP1 DUP2 MSTORE PUSH1 0x20 ADD PUSH0 KECCAK256 PUSH0 DUP5 DUP2 MSTORE PUSH1 0x20 ADD SWAP1 DUP2 MSTORE PUSH1 0x20 ADD PUSH0 KECCAK256 PUSH0 PUSH2 0x100 EXP DUP2 SLOAD DUP2 PUSH1 0xFF MUL NOT AND SWAP1 DUP4 ISZERO ISZERO MUL OR SWAP1 SSTORE POP PUSH1 0x1 PUSH0 CALLER PUSH20 0xFFFFFFFFFFFFFFFFFFFFFFFFFFFFFFFFFFFFFFFF AND PUSH20 0xFFFFFFFFFFFFFFFFFFFFFFFFFFFFFFFFFFFFFFFF AND DUP2 MSTORE PUSH1 0x20 ADD SWAP1 DUP2 MSTORE PUSH1 0x20 ADD PUSH0 KECCAK256 SLOAD DUP2 PUSH1 0x4 ADD PUSH0 DUP3 DUP3 SLOAD PUSH2 0x12B9 SWAP2 SWAP1 PUSH2 0x1DB4 JUMP JUMPDEST SWAP3 POP POP DUP2 SWAP1 SSTORE POP POP POP JUMP JUMPDEST PUSH1 0x1 ISZERO ISZERO PUSH0 DUP1 CALLER PUSH20 0xFFFFFFFFFFFFFFFFFFFFFFFFFFFFFFFFFFFFFFFF AND PUSH20 0xFFFFFFFFFFFFFFFFFFFFFFFFFFFFFFFFFFFFFFFF AND DUP2 MSTORE PUSH1 0x20 ADD SWAP1 DUP2 MSTORE PUSH1 0x20 ADD PUSH0 KECCAK256 PUSH0 SWAP1 SLOAD SWAP1 PUSH2 0x100 EXP SWAP1 DIV PUSH1 0xFF AND ISZERO ISZERO EQ PUSH2 0x1353 JUMPI PUSH1 0x40 MLOAD PUSH32 0x8C379A000000000000000000000000000000000000000000000000000000000 DUP2 MSTORE PUSH1 0x4 ADD PUSH2 0x134A SWAP1 PUSH2 0x1CCE JUMP JUMPDEST PUSH1 0x40 MLOAD DUP1 SWAP2 SUB SWAP1 REVERT JUMPDEST DUP1 PUSH1 0x1 PUSH0 CALLER PUSH20 0xFFFFFFFFFFFFFFFFFFFFFFFFFFFFFFFFFFFFFFFF AND PUSH20 0xFFFFFFFFFFFFFFFFFFFFFFFFFFFFFFFFFFFFFFFF AND DUP2 MSTORE PUSH1 0x20 ADD SWAP1 DUP2 MSTORE PUSH1 0x20 ADD PUSH0 KECCAK256 SLOAD LT ISZERO PUSH2 0x13D3 JUMPI PUSH1 0x40 MLOAD PUSH32 0x8C379A000000000000000000000000000000000000000000000000000000000 DUP2 MSTORE PUSH1 0x4 ADD PUSH2 0x13CA SWAP1 PUSH2 0x2542 JUMP JUMPDEST PUSH1 0x40 MLOAD DUP1 SWAP2 SUB SWAP1 REVERT JUMPDEST DUP1 PUSH1 0x6 SLOAD LT ISZERO PUSH2 0x1418 JUMPI PUSH1 0x40 MLOAD PUSH32 0x8C379A000000000000000000000000000000000000000000000000000000000 DUP2 MSTORE PUSH1 0x4 ADD PUSH2 0x140F SWAP1 PUSH2 0x20C9 JUMP JUMPDEST PUSH1 0x40 MLOAD DUP1 SWAP2 SUB SWAP1 REVERT JUMPDEST DUP1 PUSH1 0x1 PUSH0 CALLER PUSH20 0xFFFFFFFFFFFFFFFFFFFFFFFFFFFFFFFFFFFFFFFF AND PUSH20 0xFFFFFFFFFFFFFFFFFFFFFFFFFFFFFFFFFFFFFFFF AND DUP2 MSTORE PUSH1 0x20 ADD SWAP1 DUP2 MSTORE PUSH1 0x20 ADD PUSH0 KECCAK256 PUSH0 DUP3 DUP3 SLOAD PUSH2 0x1464 SWAP2 SWAP1 PUSH2 0x1D81 JUMP JUMPDEST SWAP3 POP POP DUP2 SWAP1 SSTORE POP PUSH0 PUSH1 0x1 PUSH0 CALLER PUSH20 0xFFFFFFFFFFFFFFFFFFFFFFFFFFFFFFFFFFFFFFFF AND PUSH20 0xFFFFFFFFFFFFFFFFFFFFFFFFFFFFFFFFFFFFFFFF AND DUP2 MSTORE PUSH1 0x20 ADD SWAP1 DUP2 MSTORE PUSH1 0x20 ADD PUSH0 KECCAK256 SLOAD SUB PUSH2 0x14FB JUMPI PUSH0 ISZERO ISZERO PUSH0 DUP1 CALLER PUSH20 0xFFFFFFFFFFFFFFFFFFFFFFFFFFFFFFFFFFFFFFFF AND PUSH20 0xFFFFFFFFFFFFFFFFFFFFFFFFFFFFFFFFFFFFFFFF AND DUP2 MSTORE PUSH1 0x20 ADD SWAP1 DUP2 MSTORE PUSH1 0x20 ADD PUSH0 KECCAK256 PUSH0 SWAP1 SLOAD SWAP1 PUSH2 0x100 EXP SWAP1 POP POP POP JUMPDEST DUP1 PUSH1 0x6 PUSH0 DUP3 DUP3 SLOAD PUSH2 0x150C SWAP2 SWAP1 PUSH2 0x1D81 JUMP JUMPDEST SWAP3 POP POP DUP2 SWAP1 SSTORE POP DUP1 PUSH1 0x5 PUSH0 DUP3 DUP3 SLOAD PUSH2 0x1524 SWAP2 SWAP1 PUSH2 0x1D81 JUMP JUMPDEST SWAP3 POP POP DUP2 SWAP1 SSTORE POP CALLER PUSH20 0xFFFFFFFFFFFFFFFFFFFFFFFFFFFFFFFFFFFFFFFF AND PUSH2 0x8FC DUP3 SWAP1 DUP2 ISZERO MUL SWAP1 PUSH1 0x40 MLOAD PUSH0 PUSH1 0x40 MLOAD DUP1 DUP4 SUB DUP2 DUP6 DUP9 DUP9 CALL SWAP4 POP POP POP POP ISZERO DUP1 ISZERO PUSH2 0x156E JUMPI RETURNDATASIZE PUSH0 DUP1 RETURNDATACOPY RETURNDATASIZE PUSH0 REVERT JUMPDEST POP POP JUMP JUMPDEST PUSH1 0x2 PUSH1 0x20 MSTORE DUP2 PUSH0 MSTORE PUSH1 0x40 PUSH0 KECCAK256 PUSH1 0x20 MSTORE DUP1 PUSH0 MSTORE PUSH1 0x40 PUSH0 KECCAK256 PUSH0 SWAP2 POP SWAP2 POP SWAP1 SLOAD SWAP1 PUSH2 0x100 EXP SWAP1 DIV PUSH1 0xFF AND DUP2 JUMP JUMPDEST PUSH1 0x7 SLOAD DUP2 JUMP JUMPDEST PUSH1 0x9 SLOAD DUP2 JUMP JUMPDEST PUSH1 0x1 PUSH1 0x20 MSTORE DUP1 PUSH0 MSTORE PUSH1 0x40 PUSH0 KECCAK256 PUSH0 SWAP2 POP SWAP1 POP SLOAD DUP2 JUMP JUMPDEST DUP1 PUSH20 0xFFFFFFFFFFFFFFFFFFFFFFFFFFFFFFFFFFFFFFFF AND PUSH2 0x8FC DUP4 SWAP1 DUP2 ISZERO MUL SWAP1 PUSH1 0x40 MLOAD PUSH0 PUSH1 0x40 MLOAD DUP1 DUP4 SUB DUP2 DUP6 DUP9 DUP9 CALL SWAP4 POP POP POP POP ISZERO DUP1 ISZERO PUSH2 0x1600 JUMPI RETURNDATASIZE PUSH0 DUP1 RETURNDATACOPY RETURNDATASIZE PUSH0 REVERT JUMPDEST POP POP POP JUMP JUMPDEST PUSH1 0x40 MLOAD DUP1 PUSH1 0xE0 ADD PUSH1 0x40 MSTORE DUP1 PUSH0 DUP2 MSTORE PUSH1 0x20 ADD PUSH1 0x60 DUP2 MSTORE PUSH1 0x20 ADD PUSH0 DUP2 MSTORE PUSH1 0x20 ADD PUSH0 PUSH20 0xFFFFFFFFFFFFFFFFFFFFFFFFFFFFFFFFFFFFFFFF AND DUP2 MSTORE PUSH1 0x20 ADD PUSH0 DUP2 MSTORE PUSH1 0x20 ADD PUSH0 DUP2 MSTORE PUSH1 0x20 ADD PUSH0 ISZERO ISZERO DUP2 MSTORE POP SWAP1 JUMP JUMPDEST PUSH0 DUP1 REVERT JUMPDEST PUSH0 DUP1 REVERT JUMPDEST PUSH0 DUP2 SWAP1 POP SWAP2 SWAP1 POP JUMP JUMPDEST PUSH2 0x166E DUP2 PUSH2 0x165C JUMP JUMPDEST DUP2 EQ PUSH2 0x1678 JUMPI PUSH0 DUP1 REVERT JUMPDEST POP JUMP JUMPDEST PUSH0 DUP2 CALLDATALOAD SWAP1 POP PUSH2 0x1689 DUP2 PUSH2 0x1665 JUMP JUMPDEST SWAP3 SWAP2 POP POP JUMP JUMPDEST PUSH0 PUSH1 0x20 DUP3 DUP5 SUB SLT ISZERO PUSH2 0x16A4 JUMPI PUSH2 0x16A3 PUSH2 0x1654 JUMP JUMPDEST JUMPDEST PUSH0 PUSH2 0x16B1 DUP5 DUP3 DUP6 ADD PUSH2 0x167B JUMP JUMPDEST SWAP2 POP POP SWAP3 SWAP2 POP POP JUMP JUMPDEST PUSH2 0x16C3 DUP2 PUSH2 0x165C JUMP JUMPDEST DUP3 MSTORE POP POP JUMP JUMPDEST PUSH0 DUP2 MLOAD SWAP1 POP SWAP2 SWAP1 POP JUMP JUMPDEST PUSH0 DUP3 DUP3 MSTORE PUSH1 0x20 DUP3 ADD SWAP1 POP SWAP3 SWAP2 POP POP JUMP JUMPDEST DUP3 DUP2 DUP4 MCOPY PUSH0 DUP4 DUP4 ADD MSTORE POP POP POP JUMP JUMPDEST PUSH0 PUSH1 0x1F NOT PUSH1 0x1F DUP4 ADD AND SWAP1 POP SWAP2 SWAP1 POP JUMP JUMPDEST PUSH0 PUSH2 0x170B DUP3 PUSH2 0x16C9 JUMP JUMPDEST PUSH2 0x1715 DUP2 DUP6 PUSH2 0x16D3 JUMP JUMPDEST SWAP4 POP PUSH2 0x1725 DUP2 DUP6 PUSH1 0x20 DUP7 ADD PUSH2 0x16E3 JUMP JUMPDEST PUSH2 0x172E DUP2 PUSH2 0x16F1 JUMP JUMPDEST DUP5 ADD SWAP2 POP POP SWAP3 SWAP2 POP POP JUMP JUMPDEST PUSH0 PUSH20 0xFFFFFFFFFFFFFFFFFFFFFFFFFFFFFFFFFFFFFFFF DUP3 AND SWAP1 POP SWAP2 SWAP1 POP JUMP JUMPDEST PUSH0 PUSH2 0x1762 DUP3 PUSH2 0x1739 JUMP JUMPDEST SWAP1 POP SWAP2 SWAP1 POP JUMP JUMPDEST PUSH2 0x1772 DUP2 PUSH2 0x1758 JUMP JUMPDEST DUP3 MSTORE POP POP JUMP JUMPDEST PUSH0 DUP2 ISZERO ISZERO SWAP1 POP SWAP2 SWAP1 POP JUMP JUMPDEST PUSH2 0x178C DUP2 PUSH2 0x1778 JUMP JUMPDEST DUP3 MSTORE POP POP JUMP JUMPDEST PUSH0 PUSH1 0xE0 DUP3 ADD SWAP1 POP PUSH2 0x17A5 PUSH0 DUP4 ADD DUP11 PUSH2 0x16BA JUMP JUMPDEST DUP2 DUP2 SUB PUSH1 0x20 DUP4 ADD MSTORE PUSH2 0x17B7 DUP2 DUP10 PUSH2 0x1701 JUMP JUMPDEST SWAP1 POP PUSH2 0x17C6 PUSH1 0x40 DUP4 ADD DUP9 PUSH2 0x16BA JUMP JUMPDEST PUSH2 0x17D3 PUSH1 0x60 DUP4 ADD DUP8 PUSH2 0x1769 JUMP JUMPDEST PUSH2 0x17E0 PUSH1 0x80 DUP4 ADD DUP7 PUSH2 0x16BA JUMP JUMPDEST PUSH2 0x17ED PUSH1 0xA0 DUP4 ADD DUP6 PUSH2 0x16BA JUMP JUMPDEST PUSH2 0x17FA PUSH1 0xC0 DUP4 ADD DUP5 PUSH2 0x1783 JUMP JUMPDEST SWAP9 SWAP8 POP POP POP POP POP POP POP POP JUMP JUMPDEST PUSH0 PUSH2 0x1810 DUP3 PUSH2 0x1739 JUMP JUMPDEST SWAP1 POP SWAP2 SWAP1 POP JUMP JUMPDEST PUSH2 0x1820 DUP2 PUSH2 0x1806 JUMP JUMPDEST DUP2 EQ PUSH2 0x182A JUMPI PUSH0 DUP1 REVERT JUMPDEST POP JUMP JUMPDEST PUSH0 DUP2 CALLDATALOAD SWAP1 POP PUSH2 0x183B DUP2 PUSH2 0x1817 JUMP JUMPDEST SWAP3 SWAP2 POP POP JUMP JUMPDEST PUSH0 DUP1 PUSH1 0x40 DUP4 DUP6 SUB SLT ISZERO PUSH2 0x1857 JUMPI PUSH2 0x1856 PUSH2 0x1654 JUMP JUMPDEST JUMPDEST PUSH0 PUSH2 0x1864 DUP6 DUP3 DUP7 ADD PUSH2 0x167B JUMP JUMPDEST SWAP3 POP POP PUSH1 0x20 PUSH2 0x1875 DUP6 DUP3 DUP7 ADD PUSH2 0x182D JUMP JUMPDEST SWAP2 POP POP SWAP3 POP SWAP3 SWAP1 POP JUMP JUMPDEST PUSH0 PUSH1 0x20 DUP3 ADD SWAP1 POP PUSH2 0x1892 PUSH0 DUP4 ADD DUP5 PUSH2 0x16BA JUMP JUMPDEST SWAP3 SWAP2 POP POP JUMP JUMPDEST PUSH2 0x18A1 DUP2 PUSH2 0x1806 JUMP JUMPDEST DUP3 MSTORE POP POP JUMP JUMPDEST PUSH0 PUSH1 0x20 DUP3 ADD SWAP1 POP PUSH2 0x18BA PUSH0 DUP4 ADD DUP5 PUSH2 0x1898 JUMP JUMPDEST SWAP3 SWAP2 POP POP JUMP JUMPDEST PUSH0 DUP2 MLOAD SWAP1 POP SWAP2 SWAP1 POP JUMP JUMPDEST PUSH0 DUP3 DUP3 MSTORE PUSH1 0x20 DUP3 ADD SWAP1 POP SWAP3 SWAP2 POP POP JUMP JUMPDEST PUSH0 DUP2 SWAP1 POP PUSH1 0x20 DUP3 ADD SWAP1 POP SWAP2 SWAP1 POP JUMP JUMPDEST PUSH2 0x18F2 DUP2 PUSH2 0x165C JUMP JUMPDEST DUP3 MSTORE POP POP JUMP JUMPDEST PUSH0 DUP3 DUP3 MSTORE PUSH1 0x20 DUP3 ADD SWAP1 POP SWAP3 SWAP2 POP POP JUMP JUMPDEST PUSH0 PUSH2 0x1912 DUP3 PUSH2 0x16C9 JUMP JUMPDEST PUSH2 0x191C DUP2 DUP6 PUSH2 0x18F8 JUMP JUMPDEST SWAP4 POP PUSH2 0x192C DUP2 DUP6 PUSH1 0x20 DUP7 ADD PUSH2 0x16E3 JUMP JUMPDEST PUSH2 0x1935 DUP2 PUSH2 0x16F1 JUMP JUMPDEST DUP5 ADD SWAP2 POP POP SWAP3 SWAP2 POP POP JUMP JUMPDEST PUSH2 0x1949 DUP2 PUSH2 0x1758 JUMP JUMPDEST DUP3 MSTORE POP POP JUMP JUMPDEST PUSH2 0x1958 DUP2 PUSH2 0x1778 JUMP JUMPDEST DUP3 MSTORE POP POP JUMP JUMPDEST PUSH0 PUSH1 0xE0 DUP4 ADD PUSH0 DUP4 ADD MLOAD PUSH2 0x1973 PUSH0 DUP7 ADD DUP3 PUSH2 0x18E9 JUMP JUMPDEST POP PUSH1 0x20 DUP4 ADD MLOAD DUP5 DUP3 SUB PUSH1 0x20 DUP7 ADD MSTORE PUSH2 0x198B DUP3 DUP3 PUSH2 0x1908 JUMP JUMPDEST SWAP2 POP POP PUSH1 0x40 DUP4 ADD MLOAD PUSH2 0x19A0 PUSH1 0x40 DUP7 ADD DUP3 PUSH2 0x18E9 JUMP JUMPDEST POP PUSH1 0x60 DUP4 ADD MLOAD PUSH2 0x19B3 PUSH1 0x60 DUP7 ADD DUP3 PUSH2 0x1940 JUMP JUMPDEST POP PUSH1 0x80 DUP4 ADD MLOAD PUSH2 0x19C6 PUSH1 0x80 DUP7 ADD DUP3 PUSH2 0x18E9 JUMP JUMPDEST POP PUSH1 0xA0 DUP4 ADD MLOAD PUSH2 0x19D9 PUSH1 0xA0 DUP7 ADD DUP3 PUSH2 0x18E9 JUMP JUMPDEST POP PUSH1 0xC0 DUP4 ADD MLOAD PUSH2 0x19EC PUSH1 0xC0 DUP7 ADD DUP3 PUSH2 0x194F JUMP JUMPDEST POP DUP1 SWAP2 POP POP SWAP3 SWAP2 POP POP JUMP JUMPDEST PUSH0 PUSH2 0x1A02 DUP4 DUP4 PUSH2 0x195E JUMP JUMPDEST SWAP1 POP SWAP3 SWAP2 POP POP JUMP JUMPDEST PUSH0 PUSH1 0x20 DUP3 ADD SWAP1 POP SWAP2 SWAP1 POP JUMP JUMPDEST PUSH0 PUSH2 0x1A20 DUP3 PUSH2 0x18C0 JUMP JUMPDEST PUSH2 0x1A2A DUP2 DUP6 PUSH2 0x18CA JUMP JUMPDEST SWAP4 POP DUP4 PUSH1 0x20 DUP3 MUL DUP6 ADD PUSH2 0x1A3C DUP6 PUSH2 0x18DA JUMP JUMPDEST DUP1 PUSH0 JUMPDEST DUP6 DUP2 LT ISZERO PUSH2 0x1A77 JUMPI DUP5 DUP5 SUB DUP10 MSTORE DUP2 MLOAD PUSH2 0x1A58 DUP6 DUP3 PUSH2 0x19F7 JUMP JUMPDEST SWAP5 POP PUSH2 0x1A63 DUP4 PUSH2 0x1A0A JUMP JUMPDEST SWAP3 POP PUSH1 0x20 DUP11 ADD SWAP10 POP POP PUSH1 0x1 DUP2 ADD SWAP1 POP PUSH2 0x1A3F JUMP JUMPDEST POP DUP3 SWAP8 POP DUP8 SWAP6 POP POP POP POP POP POP SWAP3 SWAP2 POP POP JUMP JUMPDEST PUSH0 PUSH1 0x20 DUP3 ADD SWAP1 POP DUP2 DUP2 SUB PUSH0 DUP4 ADD MSTORE PUSH2 0x1AA1 DUP2 DUP5 PUSH2 0x1A16 JUMP JUMPDEST SWAP1 POP SWAP3 SWAP2 POP POP JUMP JUMPDEST PUSH0 DUP1 REVERT JUMPDEST PUSH0 DUP1 REVERT JUMPDEST PUSH0 DUP1 REVERT JUMPDEST PUSH0 DUP1 DUP4 PUSH1 0x1F DUP5 ADD SLT PUSH2 0x1ACA JUMPI PUSH2 0x1AC9 PUSH2 0x1AA9 JUMP JUMPDEST JUMPDEST DUP3 CALLDATALOAD SWAP1 POP PUSH8 0xFFFFFFFFFFFFFFFF DUP2 GT ISZERO PUSH2 0x1AE7 JUMPI PUSH2 0x1AE6 PUSH2 0x1AAD JUMP JUMPDEST JUMPDEST PUSH1 0x20 DUP4 ADD SWAP2 POP DUP4 PUSH1 0x1 DUP3 MUL DUP4 ADD GT ISZERO PUSH2 0x1B03 JUMPI PUSH2 0x1B02 PUSH2 0x1AB1 JUMP JUMPDEST JUMPDEST SWAP3 POP SWAP3 SWAP1 POP JUMP JUMPDEST PUSH2 0x1B13 DUP2 PUSH2 0x1758 JUMP JUMPDEST DUP2 EQ PUSH2 0x1B1D JUMPI PUSH0 DUP1 REVERT JUMPDEST POP JUMP JUMPDEST PUSH0 DUP2 CALLDATALOAD SWAP1 POP PUSH2 0x1B2E DUP2 PUSH2 0x1B0A JUMP JUMPDEST SWAP3 SWAP2 POP POP JUMP JUMPDEST PUSH0 DUP1 PUSH0 DUP1 PUSH1 0x60 DUP6 DUP8 SUB SLT ISZERO PUSH2 0x1B4C JUMPI PUSH2 0x1B4B PUSH2 0x1654 JUMP JUMPDEST JUMPDEST PUSH0 DUP6 ADD CALLDATALOAD PUSH8 0xFFFFFFFFFFFFFFFF DUP2 GT ISZERO PUSH2 0x1B69 JUMPI PUSH2 0x1B68 PUSH2 0x1658 JUMP JUMPDEST JUMPDEST PUSH2 0x1B75 DUP8 DUP3 DUP9 ADD PUSH2 0x1AB5 JUMP JUMPDEST SWAP5 POP SWAP5 POP POP PUSH1 0x20 PUSH2 0x1B88 DUP8 DUP3 DUP9 ADD PUSH2 0x167B JUMP JUMPDEST SWAP3 POP POP PUSH1 0x40 PUSH2 0x1B99 DUP8 DUP3 DUP9 ADD PUSH2 0x1B20 JUMP JUMPDEST SWAP2 POP POP SWAP3 SWAP6 SWAP2 SWAP5 POP SWAP3 POP JUMP JUMPDEST PUSH0 DUP1 PUSH1 0x40 DUP4 DUP6 SUB SLT ISZERO PUSH2 0x1BBB JUMPI PUSH2 0x1BBA PUSH2 0x1654 JUMP JUMPDEST JUMPDEST PUSH0 PUSH2 0x1BC8 DUP6 DUP3 DUP7 ADD PUSH2 0x182D JUMP JUMPDEST SWAP3 POP POP PUSH1 0x20 PUSH2 0x1BD9 DUP6 DUP3 DUP7 ADD PUSH2 0x167B JUMP JUMPDEST SWAP2 POP POP SWAP3 POP SWAP3 SWAP1 POP JUMP JUMPDEST PUSH0 PUSH1 0x20 DUP3 ADD SWAP1 POP PUSH2 0x1BF6 PUSH0 DUP4 ADD DUP5 PUSH2 0x1783 JUMP JUMPDEST SWAP3 SWAP2 POP POP JUMP JUMPDEST PUSH0 PUSH1 0x20 DUP3 DUP5 SUB SLT ISZERO PUSH2 0x1C11 JUMPI PUSH2 0x1C10 PUSH2 0x1654 JUMP JUMPDEST JUMPDEST PUSH0 PUSH2 0x1C1E DUP5 DUP3 DUP6 ADD PUSH2 0x182D JUMP JUMPDEST SWAP2 POP POP SWAP3 SWAP2 POP POP JUMP JUMPDEST PUSH32 0x4E487B7100000000000000000000000000000000000000000000000000000000 PUSH0 MSTORE PUSH1 0x22 PUSH1 0x4 MSTORE PUSH1 0x24 PUSH0 REVERT JUMPDEST PUSH0 PUSH1 0x2 DUP3 DIV SWAP1 POP PUSH1 0x1 DUP3 AND DUP1 PUSH2 0x1C6B JUMPI PUSH1 0x7F DUP3 AND SWAP2 POP JUMPDEST PUSH1 0x20 DUP3 LT DUP2 SUB PUSH2 0x1C7E JUMPI PUSH2 0x1C7D PUSH2 0x1C27 JUMP JUMPDEST JUMPDEST POP SWAP2 SWAP1 POP JUMP JUMPDEST PUSH32 0x596F7520617265206E6F7420616E20696E766573746F72000000000000000000 PUSH0 DUP3 ADD MSTORE POP JUMP JUMPDEST PUSH0 PUSH2 0x1CB8 PUSH1 0x17 DUP4 PUSH2 0x16D3 JUMP JUMPDEST SWAP2 POP PUSH2 0x1CC3 DUP3 PUSH2 0x1C84 JUMP JUMPDEST PUSH1 0x20 DUP3 ADD SWAP1 POP SWAP2 SWAP1 POP JUMP JUMPDEST PUSH0 PUSH1 0x20 DUP3 ADD SWAP1 POP DUP2 DUP2 SUB PUSH0 DUP4 ADD MSTORE PUSH2 0x1CE5 DUP2 PUSH2 0x1CAC JUMP JUMPDEST SWAP1 POP SWAP2 SWAP1 POP JUMP JUMPDEST PUSH32 0x4E6F7420646F6E2774206861766520656E6F7567682073686172657300000000 PUSH0 DUP3 ADD MSTORE POP JUMP JUMPDEST PUSH0 PUSH2 0x1D20 PUSH1 0x1C DUP4 PUSH2 0x16D3 JUMP JUMPDEST SWAP2 POP PUSH2 0x1D2B DUP3 PUSH2 0x1CEC JUMP JUMPDEST PUSH1 0x20 DUP3 ADD SWAP1 POP SWAP2 SWAP1 POP JUMP JUMPDEST PUSH0 PUSH1 0x20 DUP3 ADD SWAP1 POP DUP2 DUP2 SUB PUSH0 DUP4 ADD MSTORE PUSH2 0x1D4D DUP2 PUSH2 0x1D14 JUMP JUMPDEST SWAP1 POP SWAP2 SWAP1 POP JUMP JUMPDEST PUSH32 0x4E487B7100000000000000000000000000000000000000000000000000000000 PUSH0 MSTORE PUSH1 0x11 PUSH1 0x4 MSTORE PUSH1 0x24 PUSH0 REVERT JUMPDEST PUSH0 PUSH2 0x1D8B DUP3 PUSH2 0x165C JUMP JUMPDEST SWAP2 POP PUSH2 0x1D96 DUP4 PUSH2 0x165C JUMP JUMPDEST SWAP3 POP DUP3 DUP3 SUB SWAP1 POP DUP2 DUP2 GT ISZERO PUSH2 0x1DAE JUMPI PUSH2 0x1DAD PUSH2 0x1D54 JUMP JUMPDEST JUMPDEST SWAP3 SWAP2 POP POP JUMP JUMPDEST PUSH0 PUSH2 0x1DBE DUP3 PUSH2 0x165C JUMP JUMPDEST SWAP2 POP PUSH2 0x1DC9 DUP4 PUSH2 0x165C JUMP JUMPDEST SWAP3 POP DUP3 DUP3 ADD SWAP1 POP DUP1 DUP3 GT ISZERO PUSH2 0x1DE1 JUMPI PUSH2 0x1DE0 PUSH2 0x1D54 JUMP JUMPDEST JUMPDEST SWAP3 SWAP2 POP POP JUMP JUMPDEST PUSH32 0x596F7520617265206E6F7420746865206D616E61676572000000000000000000 PUSH0 DUP3 ADD MSTORE POP JUMP JUMPDEST PUSH0 PUSH2 0x1E1B PUSH1 0x17 DUP4 PUSH2 0x16D3 JUMP JUMPDEST SWAP2 POP PUSH2 0x1E26 DUP3 PUSH2 0x1DE7 JUMP JUMPDEST PUSH1 0x20 DUP3 ADD SWAP1 POP SWAP2 SWAP1 POP JUMP JUMPDEST PUSH0 PUSH1 0x20 DUP3 ADD SWAP1 POP DUP2 DUP2 SUB PUSH0 DUP4 ADD MSTORE PUSH2 0x1E48 DUP2 PUSH2 0x1E0F JUMP JUMPDEST SWAP1 POP SWAP2 SWAP1 POP JUMP JUMPDEST PUSH0 PUSH2 0x1E59 DUP3 PUSH2 0x165C JUMP JUMPDEST SWAP2 POP PUSH2 0x1E64 DUP4 PUSH2 0x165C JUMP JUMPDEST SWAP3 POP DUP3 DUP3 MUL PUSH2 0x1E72 DUP2 PUSH2 0x165C JUMP JUMPDEST SWAP2 POP DUP3 DUP3 DIV DUP5 EQ DUP4 ISZERO OR PUSH2 0x1E89 JUMPI PUSH2 0x1E88 PUSH2 0x1D54 JUMP JUMPDEST JUMPDEST POP SWAP3 SWAP2 POP POP JUMP JUMPDEST PUSH32 0x4E487B7100000000000000000000000000000000000000000000000000000000 PUSH0 MSTORE PUSH1 0x12 PUSH1 0x4 MSTORE PUSH1 0x24 PUSH0 REVERT JUMPDEST PUSH0 PUSH2 0x1EC7 DUP3 PUSH2 0x165C JUMP JUMPDEST SWAP2 POP PUSH2 0x1ED2 DUP4 PUSH2 0x165C JUMP JUMPDEST SWAP3 POP DUP3 PUSH2 0x1EE2 JUMPI PUSH2 0x1EE1 PUSH2 0x1E90 JUMP JUMPDEST JUMPDEST DUP3 DUP3 DIV SWAP1 POP SWAP3 SWAP2 POP POP JUMP JUMPDEST PUSH32 0x4D616A6F7269747920646F6573206E6F742073757070706F7274000000000000 PUSH0 DUP3 ADD MSTORE POP JUMP JUMPDEST PUSH0 PUSH2 0x1F21 PUSH1 0x1A DUP4 PUSH2 0x16D3 JUMP JUMPDEST SWAP2 POP PUSH2 0x1F2C DUP3 PUSH2 0x1EED JUMP JUMPDEST PUSH1 0x20 DUP3 ADD SWAP1 POP SWAP2 SWAP1 POP JUMP JUMPDEST PUSH0 PUSH1 0x20 DUP3 ADD SWAP1 POP DUP2 DUP2 SUB PUSH0 DUP4 ADD MSTORE PUSH2 0x1F4E DUP2 PUSH2 0x1F15 JUMP JUMPDEST SWAP1 POP SWAP2 SWAP1 POP JUMP JUMPDEST PUSH32 0x4E487B7100000000000000000000000000000000000000000000000000000000 PUSH0 MSTORE PUSH1 0x41 PUSH1 0x4 MSTORE PUSH1 0x24 PUSH0 REVERT JUMPDEST PUSH32 0x4E487B7100000000000000000000000000000000000000000000000000000000 PUSH0 MSTORE PUSH1 0x32 PUSH1 0x4 MSTORE PUSH1 0x24 PUSH0 REVERT JUMPDEST PUSH32 0x436F6E747269627574696F6E2054696D6520456E646564000000000000000000 PUSH0 DUP3 ADD MSTORE POP JUMP JUMPDEST PUSH0 PUSH2 0x1FE3 PUSH1 0x17 DUP4 PUSH2 0x16D3 JUMP JUMPDEST SWAP2 POP PUSH2 0x1FEE DUP3 PUSH2 0x1FAF JUMP JUMPDEST PUSH1 0x20 DUP3 ADD SWAP1 POP SWAP2 SWAP1 POP JUMP JUMPDEST PUSH0 PUSH1 0x20 DUP3 ADD SWAP1 POP DUP2 DUP2 SUB PUSH0 DUP4 ADD MSTORE PUSH2 0x2010 DUP2 PUSH2 0x1FD7 JUMP JUMPDEST SWAP1 POP SWAP2 SWAP1 POP JUMP JUMPDEST PUSH32 0x53656E64206D6F7265207468616E203020657468657200000000000000000000 PUSH0 DUP3 ADD MSTORE POP JUMP JUMPDEST PUSH0 PUSH2 0x204B PUSH1 0x16 DUP4 PUSH2 0x16D3 JUMP JUMPDEST SWAP2 POP PUSH2 0x2056 DUP3 PUSH2 0x2017 JUMP JUMPDEST PUSH1 0x20 DUP3 ADD SWAP1 POP SWAP2 SWAP1 POP JUMP JUMPDEST PUSH0 PUSH1 0x20 DUP3 ADD SWAP1 POP DUP2 DUP2 SUB PUSH0 DUP4 ADD MSTORE PUSH2 0x2078 DUP2 PUSH2 0x203F JUMP JUMPDEST SWAP1 POP SWAP2 SWAP1 POP JUMP JUMPDEST PUSH32 0x4E6F7420656E6F7567682066756E647300000000000000000000000000000000 PUSH0 DUP3 ADD MSTORE POP JUMP JUMPDEST PUSH0 PUSH2 0x20B3 PUSH1 0x10 DUP4 PUSH2 0x16D3 JUMP JUMPDEST SWAP2 POP PUSH2 0x20BE DUP3 PUSH2 0x207F JUMP JUMPDEST PUSH1 0x20 DUP3 ADD SWAP1 POP SWAP2 SWAP1 POP JUMP JUMPDEST PUSH0 PUSH1 0x20 DUP3 ADD SWAP1 POP DUP2 DUP2 SUB PUSH0 DUP4 ADD MSTORE PUSH2 0x20E0 DUP2 PUSH2 0x20A7 JUMP JUMPDEST SWAP1 POP SWAP2 SWAP1 POP JUMP JUMPDEST PUSH0 DUP2 SWAP1 POP DUP2 PUSH0 MSTORE PUSH1 0x20 PUSH0 KECCAK256 SWAP1 POP SWAP2 SWAP1 POP JUMP JUMPDEST PUSH0 PUSH1 0x20 PUSH1 0x1F DUP4 ADD DIV SWAP1 POP SWAP2 SWAP1 POP JUMP JUMPDEST PUSH0 DUP3 DUP3 SHL SWAP1 POP SWAP3 SWAP2 POP POP JUMP JUMPDEST PUSH0 PUSH1 0x8 DUP4 MUL PUSH2 0x2143 PUSH32 0xFFFFFFFFFFFFFFFFFFFFFFFFFFFFFFFFFFFFFFFFFFFFFFFFFFFFFFFFFFFFFFFF DUP3 PUSH2 0x2108 JUMP JUMPDEST PUSH2 0x214D DUP7 DUP4 PUSH2 0x2108 JUMP JUMPDEST SWAP6 POP DUP1 NOT DUP5 AND SWAP4 POP DUP1 DUP7 AND DUP5 OR SWAP3 POP POP POP SWAP4 SWAP3 POP POP POP JUMP JUMPDEST PUSH0 DUP2 SWAP1 POP SWAP2 SWAP1 POP JUMP JUMPDEST PUSH0 PUSH2 0x2188 PUSH2 0x2183 PUSH2 0x217E DUP5 PUSH2 0x165C JUMP JUMPDEST PUSH2 0x2165 JUMP JUMPDEST PUSH2 0x165C JUMP JUMPDEST SWAP1 POP SWAP2 SWAP1 POP JUMP JUMPDEST PUSH0 DUP2 SWAP1 POP SWAP2 SWAP1 POP JUMP JUMPDEST PUSH2 0x21A1 DUP4 PUSH2 0x216E JUMP JUMPDEST PUSH2 0x21B5 PUSH2 0x21AD DUP3 PUSH2 0x218F JUMP JUMPDEST DUP5 DUP5 SLOAD PUSH2 0x2114 JUMP JUMPDEST DUP3 SSTORE POP POP POP POP JUMP JUMPDEST PUSH0 SWAP1 JUMP JUMPDEST PUSH2 0x21C9 PUSH2 0x21BD JUMP JUMPDEST PUSH2 0x21D4 DUP2 DUP5 DUP5 PUSH2 0x2198 JUMP JUMPDEST POP POP POP JUMP JUMPDEST JUMPDEST DUP2 DUP2 LT ISZERO PUSH2 0x21F7 JUMPI PUSH2 0x21EC PUSH0 DUP3 PUSH2 0x21C1 JUMP JUMPDEST PUSH1 0x1 DUP2 ADD SWAP1 POP PUSH2 0x21DA JUMP JUMPDEST POP POP JUMP JUMPDEST PUSH1 0x1F DUP3 GT ISZERO PUSH2 0x223C JUMPI PUSH2 0x220D DUP2 PUSH2 0x20E7 JUMP JUMPDEST PUSH2 0x2216 DUP5 PUSH2 0x20F9 JUMP JUMPDEST DUP2 ADD PUSH1 0x20 DUP6 LT ISZERO PUSH2 0x2225 JUMPI DUP2 SWAP1 POP JUMPDEST PUSH2 0x2239 PUSH2 0x2231 DUP6 PUSH2 0x20F9 JUMP JUMPDEST DUP4 ADD DUP3 PUSH2 0x21D9 JUMP JUMPDEST POP POP JUMPDEST POP POP POP JUMP JUMPDEST PUSH0 DUP3 DUP3 SHR SWAP1 POP SWAP3 SWAP2 POP POP JUMP JUMPDEST PUSH0 PUSH2 0x225C PUSH0 NOT DUP5 PUSH1 0x8 MUL PUSH2 0x2241 JUMP JUMPDEST NOT DUP1 DUP4 AND SWAP2 POP POP SWAP3 SWAP2 POP POP JUMP JUMPDEST PUSH0 PUSH2 0x2274 DUP4 DUP4 PUSH2 0x224D JUMP JUMPDEST SWAP2 POP DUP3 PUSH1 0x2 MUL DUP3 OR SWAP1 POP SWAP3 SWAP2 POP POP JUMP JUMPDEST PUSH2 0x228D DUP3 PUSH2 0x16C9 JUMP JUMPDEST PUSH8 0xFFFFFFFFFFFFFFFF DUP2 GT ISZERO PUSH2 0x22A6 JUMPI PUSH2 0x22A5 PUSH2 0x1F55 JUMP JUMPDEST JUMPDEST PUSH2 0x22B0 DUP3 SLOAD PUSH2 0x1C54 JUMP JUMPDEST PUSH2 0x22BB DUP3 DUP3 DUP6 PUSH2 0x21FB JUMP JUMPDEST PUSH0 PUSH1 0x20 SWAP1 POP PUSH1 0x1F DUP4 GT PUSH1 0x1 DUP2 EQ PUSH2 0x22EC JUMPI PUSH0 DUP5 ISZERO PUSH2 0x22DA JUMPI DUP3 DUP8 ADD MLOAD SWAP1 POP JUMPDEST PUSH2 0x22E4 DUP6 DUP3 PUSH2 0x2269 JUMP JUMPDEST DUP7 SSTORE POP PUSH2 0x234B JUMP JUMPDEST PUSH1 0x1F NOT DUP5 AND PUSH2 0x22FA DUP7 PUSH2 0x20E7 JUMP JUMPDEST PUSH0 JUMPDEST DUP3 DUP2 LT ISZERO PUSH2 0x2321 JUMPI DUP5 DUP10 ADD MLOAD DUP3 SSTORE PUSH1 0x1 DUP3 ADD SWAP2 POP PUSH1 0x20 DUP6 ADD SWAP5 POP PUSH1 0x20 DUP2 ADD SWAP1 POP PUSH2 0x22FC JUMP JUMPDEST DUP7 DUP4 LT ISZERO PUSH2 0x233E JUMPI DUP5 DUP10 ADD MLOAD PUSH2 0x233A PUSH1 0x1F DUP10 AND DUP3 PUSH2 0x224D JUMP JUMPDEST DUP4 SSTORE POP JUMPDEST PUSH1 0x1 PUSH1 0x2 DUP9 MUL ADD DUP9 SSTORE POP POP POP JUMPDEST POP POP POP POP POP POP JUMP JUMPDEST PUSH0 PUSH2 0x235D DUP3 PUSH2 0x165C JUMP JUMPDEST SWAP2 POP PUSH32 0xFFFFFFFFFFFFFFFFFFFFFFFFFFFFFFFFFFFFFFFFFFFFFFFFFFFFFFFFFFFFFFFF DUP3 SUB PUSH2 0x238F JUMPI PUSH2 0x238E PUSH2 0x1D54 JUMP JUMPDEST JUMPDEST PUSH1 0x1 DUP3 ADD SWAP1 POP SWAP2 SWAP1 POP JUMP JUMPDEST PUSH32 0x596F75206861766520616C726561647920766F74656420666F72207468697320 PUSH0 DUP3 ADD MSTORE PUSH32 0x70726F706F73616C000000000000000000000000000000000000000000000000 PUSH1 0x20 DUP3 ADD MSTORE POP JUMP JUMPDEST PUSH0 PUSH2 0x23F4 PUSH1 0x28 DUP4 PUSH2 0x16D3 JUMP JUMPDEST SWAP2 POP PUSH2 0x23FF DUP3 PUSH2 0x239A JUMP JUMPDEST PUSH1 0x40 DUP3 ADD SWAP1 POP SWAP2 SWAP1 POP JUMP JUMPDEST PUSH0 PUSH1 0x20 DUP3 ADD SWAP1 POP DUP2 DUP2 SUB PUSH0 DUP4 ADD MSTORE PUSH2 0x2421 DUP2 PUSH2 0x23E8 JUMP JUMPDEST SWAP1 POP SWAP2 SWAP1 POP JUMP JUMPDEST PUSH32 0x566F74696E672054696D6520456E646564000000000000000000000000000000 PUSH0 DUP3 ADD MSTORE POP JUMP JUMPDEST PUSH0 PUSH2 0x245C PUSH1 0x11 DUP4 PUSH2 0x16D3 JUMP JUMPDEST SWAP2 POP PUSH2 0x2467 DUP3 PUSH2 0x2428 JUMP JUMPDEST PUSH1 0x20 DUP3 ADD SWAP1 POP SWAP2 SWAP1 POP JUMP JUMPDEST PUSH0 PUSH1 0x20 DUP3 ADD SWAP1 POP DUP2 DUP2 SUB PUSH0 DUP4 ADD MSTORE PUSH2 0x2489 DUP2 PUSH2 0x2450 JUMP JUMPDEST SWAP1 POP SWAP2 SWAP1 POP JUMP JUMPDEST PUSH32 0x497420697320616C726561647920657865637574656400000000000000000000 PUSH0 DUP3 ADD MSTORE POP JUMP JUMPDEST PUSH0 PUSH2 0x24C4 PUSH1 0x16 DUP4 PUSH2 0x16D3 JUMP JUMPDEST SWAP2 POP PUSH2 0x24CF DUP3 PUSH2 0x2490 JUMP JUMPDEST PUSH1 0x20 DUP3 ADD SWAP1 POP SWAP2 SWAP1 POP JUMP JUMPDEST PUSH0 PUSH1 0x20 DUP3 ADD SWAP1 POP DUP2 DUP2 SUB PUSH0 DUP4 ADD MSTORE PUSH2 0x24F1 DUP2 PUSH2 0x24B8 JUMP JUMPDEST SWAP1 POP SWAP2 SWAP1 POP JUMP JUMPDEST PUSH32 0x596F7520646F6E2774206861766520656E6F7567682073686172657300000000 PUSH0 DUP3 ADD MSTORE POP JUMP JUMPDEST PUSH0 PUSH2 0x252C PUSH1 0x1C DUP4 PUSH2 0x16D3 JUMP JUMPDEST SWAP2 POP PUSH2 0x2537 DUP3 PUSH2 0x24F8 JUMP JUMPDEST PUSH1 0x20 DUP3 ADD SWAP1 POP SWAP2 SWAP1 POP JUMP JUMPDEST PUSH0 PUSH1 0x20 DUP3 ADD SWAP1 POP DUP2 DUP2 SUB PUSH0 DUP4 ADD MSTORE PUSH2 0x2559 DUP2 PUSH2 0x2520 JUMP JUMPDEST SWAP1 POP SWAP2 SWAP1 POP JUMP INVALID LOG2 PUSH5 0x6970667358 0x22 SLT KECCAK256 DUP9 0xD7 PUSH20 0xFFC0A44C1FC789D94FE2E4272A89D5475A329C3B 0xC9 SWAP11 CALLDATASIZE PUSH6 0xADA0CBE59764 PUSH20 0x6F6C634300081A00330000000000000000000000 "
				},
				"gasEstimates": {
					"creation": {
						"codeDepositCost": "1924400",
						"executionCost": "infinite",
						"totalCost": "infinite"
					},
					"external": {
						"availableFunds()": "2536",
						"contribution()": "infinite",
						"contributionTimeEnd()": "2491",
						"createProposal(string,uint256,address)": "infinite",
						"executeProposal(uint256)": "infinite",
						"investorsList(uint256)": "4989",
						"isVoted(address,uint256)": "3115",
						"manager()": "2531",
						"nextProposalId()": "2448",
						"numOfshares(address)": "2912",
						"proposalList()": "infinite",
						"proposals(uint256)": "infinite",
						"quorum()": "2515",
						"redeemShare(uint256)": "infinite",
						"totalShares()": "2492",
						"transferShare(uint256,address)": "infinite",
						"voteProposal(uint256)": "infinite",
						"voteTime()": "2513"
					},
					"internal": {
						"_transfer(uint256,address payable)": "infinite"
					}
				},
				"methodIdentifiers": {
					"availableFunds()": "46fcff4c",
					"contribution()": "50520b1f",
					"contributionTimeEnd()": "afc8275b",
					"createProposal(string,uint256,address)": "6ac1e01f",
					"executeProposal(uint256)": "0d61b519",
					"investorsList(uint256)": "2ccc8727",
					"isVoted(address,uint256)": "8ee36f05",
					"manager()": "481c6a75",
					"nextProposalId()": "2ab09d14",
					"numOfshares(address)": "e65da429",
					"proposalList()": "44389524",
					"proposals(uint256)": "013cf08b",
					"quorum()": "1703a018",
					"redeemShare(uint256)": "868643df",
					"totalShares()": "3a98ef39",
					"transferShare(uint256,address)": "039383e6",
					"voteProposal(uint256)": "807896d5",
					"voteTime()": "bcf93dd6"
				}
			},
			"storageLayout": {
				"storage": [
					{
						"astId": 20,
						"contract": "contracts/DAO.sol:DA0",
						"label": "isInvestor",
						"offset": 0,
						"slot": "0",
						"type": "t_mapping(t_address,t_bool)"
					},
					{
						"astId": 24,
						"contract": "contracts/DAO.sol:DA0",
						"label": "numOfshares",
						"offset": 0,
						"slot": "1",
						"type": "t_mapping(t_address,t_uint256)"
					},
					{
						"astId": 30,
						"contract": "contracts/DAO.sol:DA0",
						"label": "isVoted",
						"offset": 0,
						"slot": "2",
						"type": "t_mapping(t_address,t_mapping(t_uint256,t_bool))"
					},
					{
						"astId": 33,
						"contract": "contracts/DAO.sol:DA0",
						"label": "investorsList",
						"offset": 0,
						"slot": "3",
						"type": "t_array(t_address)dyn_storage"
					},
					{
						"astId": 38,
						"contract": "contracts/DAO.sol:DA0",
						"label": "proposals",
						"offset": 0,
						"slot": "4",
						"type": "t_mapping(t_uint256,t_struct(Proposal)16_storage)"
					},
					{
						"astId": 40,
						"contract": "contracts/DAO.sol:DA0",
						"label": "totalShares",
						"offset": 0,
						"slot": "5",
						"type": "t_uint256"
					},
					{
						"astId": 42,
						"contract": "contracts/DAO.sol:DA0",
						"label": "availableFunds",
						"offset": 0,
						"slot": "6",
						"type": "t_uint256"
					},
					{
						"astId": 44,
						"contract": "contracts/DAO.sol:DA0",
						"label": "contributionTimeEnd",
						"offset": 0,
						"slot": "7",
						"type": "t_uint256"
					},
					{
						"astId": 46,
						"contract": "contracts/DAO.sol:DA0",
						"label": "nextProposalId",
						"offset": 0,
						"slot": "8",
						"type": "t_uint256"
					},
					{
						"astId": 48,
						"contract": "contracts/DAO.sol:DA0",
						"label": "voteTime",
						"offset": 0,
						"slot": "9",
						"type": "t_uint256"
					},
					{
						"astId": 50,
						"contract": "contracts/DAO.sol:DA0",
						"label": "quorum",
						"offset": 0,
						"slot": "10",
						"type": "t_uint256"
					},
					{
						"astId": 52,
						"contract": "contracts/DAO.sol:DA0",
						"label": "manager",
						"offset": 0,
						"slot": "11",
						"type": "t_address"
					}
				],
				"types": {
					"t_address": {
						"encoding": "inplace",
						"label": "address",
						"numberOfBytes": "20"
					},
					"t_address_payable": {
						"encoding": "inplace",
						"label": "address payable",
						"numberOfBytes": "20"
					},
					"t_array(t_address)dyn_storage": {
						"base": "t_address",
						"encoding": "dynamic_array",
						"label": "address[]",
						"numberOfBytes": "32"
					},
					"t_bool": {
						"encoding": "inplace",
						"label": "bool",
						"numberOfBytes": "1"
					},
					"t_mapping(t_address,t_bool)": {
						"encoding": "mapping",
						"key": "t_address",
						"label": "mapping(address => bool)",
						"numberOfBytes": "32",
						"value": "t_bool"
					},
					"t_mapping(t_address,t_mapping(t_uint256,t_bool))": {
						"encoding": "mapping",
						"key": "t_address",
						"label": "mapping(address => mapping(uint256 => bool))",
						"numberOfBytes": "32",
						"value": "t_mapping(t_uint256,t_bool)"
					},
					"t_mapping(t_address,t_uint256)": {
						"encoding": "mapping",
						"key": "t_address",
						"label": "mapping(address => uint256)",
						"numberOfBytes": "32",
						"value": "t_uint256"
					},
					"t_mapping(t_uint256,t_bool)": {
						"encoding": "mapping",
						"key": "t_uint256",
						"label": "mapping(uint256 => bool)",
						"numberOfBytes": "32",
						"value": "t_bool"
					},
					"t_mapping(t_uint256,t_struct(Proposal)16_storage)": {
						"encoding": "mapping",
						"key": "t_uint256",
						"label": "mapping(uint256 => struct DA0.Proposal)",
						"numberOfBytes": "32",
						"value": "t_struct(Proposal)16_storage"
					},
					"t_string_storage": {
						"encoding": "bytes",
						"label": "string",
						"numberOfBytes": "32"
					},
					"t_struct(Proposal)16_storage": {
						"encoding": "inplace",
						"label": "struct DA0.Proposal",
						"members": [
							{
								"astId": 3,
								"contract": "contracts/DAO.sol:DA0",
								"label": "id",
								"offset": 0,
								"slot": "0",
								"type": "t_uint256"
							},
							{
								"astId": 5,
								"contract": "contracts/DAO.sol:DA0",
								"label": "description",
								"offset": 0,
								"slot": "1",
								"type": "t_string_storage"
							},
							{
								"astId": 7,
								"contract": "contracts/DAO.sol:DA0",
								"label": "amount",
								"offset": 0,
								"slot": "2",
								"type": "t_uint256"
							},
							{
								"astId": 9,
								"contract": "contracts/DAO.sol:DA0",
								"label": "recepient",
								"offset": 0,
								"slot": "3",
								"type": "t_address_payable"
							},
							{
								"astId": 11,
								"contract": "contracts/DAO.sol:DA0",
								"label": "votes",
								"offset": 0,
								"slot": "4",
								"type": "t_uint256"
							},
							{
								"astId": 13,
								"contract": "contracts/DAO.sol:DA0",
								"label": "end",
								"offset": 0,
								"slot": "5",
								"type": "t_uint256"
							},
							{
								"astId": 15,
								"contract": "contracts/DAO.sol:DA0",
								"label": "isExecuted",
								"offset": 0,
								"slot": "6",
								"type": "t_bool"
							}
						],
						"numberOfBytes": "224"
					},
					"t_uint256": {
						"encoding": "inplace",
						"label": "uint256",
						"numberOfBytes": "32"
					}
				}
			},
			"userdoc": {
				"kind": "user",
				"methods": {},
				"version": 1
			}
		}
	}
}