{
	"contracts/require.sol": {
		"requireStatement": {
			"abi": [
				{
					"inputs": [],
					"name": "a",
					"outputs": [
						{
							"internalType": "uint256",
							"name": "",
							"type": "uint256"
						}
					],
					"stateMutability": "view",
					"type": "function"
				},
				{
					"inputs": [],
					"name": "b",
					"outputs": [
						{
							"internalType": "uint256",
							"name": "",
							"type": "uint256"
						}
					],
					"stateMutability": "view",
					"type": "function"
				},
				{
					"inputs": [],
					"name": "c",
					"outputs": [
						{
							"internalType": "uint256",
							"name": "",
							"type": "uint256"
						}
					],
					"stateMutability": "view",
					"type": "function"
				},
				{
					"inputs": [],
					"name": "d",
					"outputs": [
						{
							"internalType": "uint256",
							"name": "",
							"type": "uint256"
						}
					],
					"stateMutability": "view",
					"type": "function"
				},
				{
					"inputs": [
						{
							"internalType": "uint256",
							"name": "x",
							"type": "uint256"
						}
					],
					"name": "isEven",
					"outputs": [],
					"stateMutability": "nonpayable",
					"type": "function"
				}
			],
			"devdoc": {
				"kind": "dev",
				"methods": {},
				"version": 1
			},
			"evm": {
				"assembly": "    /* \"contracts/require.sol\":73:536  contract requireStatement{\r... */\n  mstore(0x40, 0x80)\n    /* \"contracts/require.sol\":258:260  10 */\n  0x0a\n    /* \"contracts/require.sol\":244:260  uint public a=10 */\n  0x00\n  sstore\n    /* \"contracts/require.sol\":281:283  20 */\n  0x14\n    /* \"contracts/require.sol\":267:283  uint public b=20 */\n  0x01\n  sstore\n    /* \"contracts/require.sol\":304:306  30 */\n  0x1e\n    /* \"contracts/require.sol\":290:306  uint public c=30 */\n  0x02\n  sstore\n    /* \"contracts/require.sol\":327:329  40 */\n  0x28\n    /* \"contracts/require.sol\":313:329  uint public d=40 */\n  0x03\n  sstore\n    /* \"contracts/require.sol\":73:536  contract requireStatement{\r... */\n  callvalue\n  dup1\n  iszero\n  tag_1\n  jumpi\n  0x00\n  dup1\n  revert\ntag_1:\n  pop\n  dataSize(sub_0)\n  dup1\n  dataOffset(sub_0)\n  0x00\n  codecopy\n  0x00\n  return\nstop\n\nsub_0: assembly {\n        /* \"contracts/require.sol\":73:536  contract requireStatement{\r... */\n      mstore(0x40, 0x80)\n      callvalue\n      dup1\n      iszero\n      tag_1\n      jumpi\n      0x00\n      dup1\n      revert\n    tag_1:\n      pop\n      jumpi(tag_2, lt(calldatasize, 0x04))\n      shr(0xe0, calldataload(0x00))\n      dup1\n      0x0dbe671f\n      eq\n      tag_3\n      jumpi\n      dup1\n      0x2a2e1320\n      eq\n      tag_4\n      jumpi\n      dup1\n      0x4df7e3d0\n      eq\n      tag_5\n      jumpi\n      dup1\n      0x8a054ac2\n      eq\n      tag_6\n      jumpi\n      dup1\n      0xc3da42b8\n      eq\n      tag_7\n      jumpi\n    tag_2:\n      0x00\n      dup1\n      revert\n        /* \"contracts/require.sol\":244:260  uint public a=10 */\n    tag_3:\n      tag_8\n      tag_9\n      jump\t// in\n    tag_8:\n      mload(0x40)\n      tag_10\n      swap2\n      swap1\n      tag_11\n      jump\t// in\n    tag_10:\n      mload(0x40)\n      dup1\n      swap2\n      sub\n      swap1\n      return\n        /* \"contracts/require.sol\":338:529  function isEven(uint x) public{\r... */\n    tag_4:\n      tag_12\n      0x04\n      dup1\n      calldatasize\n      sub\n      dup2\n      add\n      swap1\n      tag_13\n      swap2\n      swap1\n      tag_14\n      jump\t// in\n    tag_13:\n      tag_15\n      jump\t// in\n    tag_12:\n      stop\n        /* \"contracts/require.sol\":267:283  uint public b=20 */\n    tag_5:\n      tag_16\n      tag_17\n      jump\t// in\n    tag_16:\n      mload(0x40)\n      tag_18\n      swap2\n      swap1\n      tag_11\n      jump\t// in\n    tag_18:\n      mload(0x40)\n      dup1\n      swap2\n      sub\n      swap1\n      return\n        /* \"contracts/require.sol\":313:329  uint public d=40 */\n    tag_6:\n      tag_19\n      tag_20\n      jump\t// in\n    tag_19:\n      mload(0x40)\n      tag_21\n      swap2\n      swap1\n      tag_11\n      jump\t// in\n    tag_21:\n      mload(0x40)\n      dup1\n      swap2\n      sub\n      swap1\n      return\n        /* \"contracts/require.sol\":290:306  uint public c=30 */\n    tag_7:\n      tag_22\n      tag_23\n      jump\t// in\n    tag_22:\n      mload(0x40)\n      tag_24\n      swap2\n      swap1\n      tag_11\n      jump\t// in\n    tag_24:\n      mload(0x40)\n      dup1\n      swap2\n      sub\n      swap1\n      return\n        /* \"contracts/require.sol\":244:260  uint public a=10 */\n    tag_9:\n      sload(0x00)\n      dup2\n      jump\t// out\n        /* \"contracts/require.sol\":338:529  function isEven(uint x) public{\r... */\n    tag_15:\n        /* \"contracts/require.sol\":423:426  100 */\n      0x64\n        /* \"contracts/require.sol\":421:422  a */\n      0x00\n        /* \"contracts/require.sol\":421:426  a=100 */\n      dup2\n      swap1\n      sstore\n      pop\n        /* \"contracts/require.sol\":439:442  200 */\n      0xc8\n        /* \"contracts/require.sol\":437:438  b */\n      0x01\n        /* \"contracts/require.sol\":437:442  b=200 */\n      dup2\n      swap1\n      sstore\n      pop\n        /* \"contracts/require.sol\":455:458  300 */\n      0x012c\n        /* \"contracts/require.sol\":453:454  c */\n      0x02\n        /* \"contracts/require.sol\":453:458  c=300 */\n      dup2\n      swap1\n      sstore\n      pop\n        /* \"contracts/require.sol\":482:483  0 */\n      0x00\n        /* \"contracts/require.sol\":479:480  2 */\n      0x02\n        /* \"contracts/require.sol\":477:478  x */\n      dup3\n        /* \"contracts/require.sol\":477:480  x%2 */\n      tag_26\n      swap2\n      swap1\n      tag_27\n      jump\t// in\n    tag_26:\n        /* \"contracts/require.sol\":477:483  x%2==0 */\n      eq\n        /* \"contracts/require.sol\":469:505  require(x%2==0,\"x is an odd number\") */\n      tag_28\n      jumpi\n      mload(0x40)\n      0x08c379a000000000000000000000000000000000000000000000000000000000\n      dup2\n      mstore\n      0x04\n      add\n      tag_29\n      swap1\n      tag_30\n      jump\t// in\n    tag_29:\n      mload(0x40)\n      dup1\n      swap2\n      sub\n      swap1\n      revert\n    tag_28:\n        /* \"contracts/require.sol\":518:521  400 */\n      0x0190\n        /* \"contracts/require.sol\":516:517  d */\n      0x03\n        /* \"contracts/require.sol\":516:521  d=400 */\n      dup2\n      swap1\n      sstore\n      pop\n        /* \"contracts/require.sol\":338:529  function isEven(uint x) public{\r... */\n      pop\n      jump\t// out\n        /* \"contracts/require.sol\":267:283  uint public b=20 */\n    tag_17:\n      sload(0x01)\n      dup2\n      jump\t// out\n        /* \"contracts/require.sol\":313:329  uint public d=40 */\n    tag_20:\n      sload(0x03)\n      dup2\n      jump\t// out\n        /* \"contracts/require.sol\":290:306  uint public c=30 */\n    tag_23:\n      sload(0x02)\n      dup2\n      jump\t// out\n        /* \"#utility.yul\":7:146   */\n    tag_32:\n      0x00\n        /* \"#utility.yul\":91:97   */\n      dup2\n        /* \"#utility.yul\":78:98   */\n      calldataload\n        /* \"#utility.yul\":69:98   */\n      swap1\n      pop\n        /* \"#utility.yul\":107:140   */\n      tag_34\n        /* \"#utility.yul\":134:139   */\n      dup2\n        /* \"#utility.yul\":107:140   */\n      tag_35\n      jump\t// in\n    tag_34:\n        /* \"#utility.yul\":59:146   */\n      swap3\n      swap2\n      pop\n      pop\n      jump\t// out\n        /* \"#utility.yul\":152:414   */\n    tag_14:\n      0x00\n        /* \"#utility.yul\":260:262   */\n      0x20\n        /* \"#utility.yul\":248:257   */\n      dup3\n        /* \"#utility.yul\":239:246   */\n      dup5\n        /* \"#utility.yul\":235:258   */\n      sub\n        /* \"#utility.yul\":231:263   */\n      slt\n        /* \"#utility.yul\":228:230   */\n      iszero\n      tag_37\n      jumpi\n        /* \"#utility.yul\":276:277   */\n      0x00\n        /* \"#utility.yul\":273:274   */\n      dup1\n        /* \"#utility.yul\":266:278   */\n      revert\n        /* \"#utility.yul\":228:230   */\n    tag_37:\n        /* \"#utility.yul\":319:320   */\n      0x00\n        /* \"#utility.yul\":344:397   */\n      tag_38\n        /* \"#utility.yul\":389:396   */\n      dup5\n        /* \"#utility.yul\":380:386   */\n      dup3\n        /* \"#utility.yul\":369:378   */\n      dup6\n        /* \"#utility.yul\":365:387   */\n      add\n        /* \"#utility.yul\":344:397   */\n      tag_32\n      jump\t// in\n    tag_38:\n        /* \"#utility.yul\":334:397   */\n      swap2\n      pop\n        /* \"#utility.yul\":290:407   */\n      pop\n        /* \"#utility.yul\":218:414   */\n      swap3\n      swap2\n      pop\n      pop\n      jump\t// out\n        /* \"#utility.yul\":420:736   */\n    tag_39:\n      0x00\n        /* \"#utility.yul\":583:650   */\n      tag_41\n        /* \"#utility.yul\":647:649   */\n      0x12\n        /* \"#utility.yul\":642:645   */\n      dup4\n        /* \"#utility.yul\":583:650   */\n      tag_42\n      jump\t// in\n    tag_41:\n        /* \"#utility.yul\":576:650   */\n      swap2\n      pop\n        /* \"#utility.yul\":680:700   */\n      0x7820697320616e206f6464206e756d6265720000000000000000000000000000\n        /* \"#utility.yul\":676:677   */\n      0x00\n        /* \"#utility.yul\":671:674   */\n      dup4\n        /* \"#utility.yul\":667:678   */\n      add\n        /* \"#utility.yul\":660:701   */\n      mstore\n        /* \"#utility.yul\":727:729   */\n      0x20\n        /* \"#utility.yul\":722:725   */\n      dup3\n        /* \"#utility.yul\":718:730   */\n      add\n        /* \"#utility.yul\":711:730   */\n      swap1\n      pop\n        /* \"#utility.yul\":566:736   */\n      swap2\n      swap1\n      pop\n      jump\t// out\n        /* \"#utility.yul\":742:860   */\n    tag_43:\n        /* \"#utility.yul\":829:853   */\n      tag_45\n        /* \"#utility.yul\":847:852   */\n      dup2\n        /* \"#utility.yul\":829:853   */\n      tag_46\n      jump\t// in\n    tag_45:\n        /* \"#utility.yul\":824:827   */\n      dup3\n        /* \"#utility.yul\":817:854   */\n      mstore\n        /* \"#utility.yul\":807:860   */\n      pop\n      pop\n      jump\t// out\n        /* \"#utility.yul\":866:1285   */\n    tag_30:\n      0x00\n        /* \"#utility.yul\":1070:1072   */\n      0x20\n        /* \"#utility.yul\":1059:1068   */\n      dup3\n        /* \"#utility.yul\":1055:1073   */\n      add\n        /* \"#utility.yul\":1047:1073   */\n      swap1\n      pop\n        /* \"#utility.yul\":1119:1128   */\n      dup2\n        /* \"#utility.yul\":1113:1117   */\n      dup2\n        /* \"#utility.yul\":1109:1129   */\n      sub\n        /* \"#utility.yul\":1105:1106   */\n      0x00\n        /* \"#utility.yul\":1094:1103   */\n      dup4\n        /* \"#utility.yul\":1090:1107   */\n      add\n        /* \"#utility.yul\":1083:1130   */\n      mstore\n        /* \"#utility.yul\":1147:1278   */\n      tag_48\n        /* \"#utility.yul\":1273:1277   */\n      dup2\n        /* \"#utility.yul\":1147:1278   */\n      tag_39\n      jump\t// in\n    tag_48:\n        /* \"#utility.yul\":1139:1278   */\n      swap1\n      pop\n        /* \"#utility.yul\":1037:1285   */\n      swap2\n      swap1\n      pop\n      jump\t// out\n        /* \"#utility.yul\":1291:1513   */\n    tag_11:\n      0x00\n        /* \"#utility.yul\":1422:1424   */\n      0x20\n        /* \"#utility.yul\":1411:1420   */\n      dup3\n        /* \"#utility.yul\":1407:1425   */\n      add\n        /* \"#utility.yul\":1399:1425   */\n      swap1\n      pop\n        /* \"#utility.yul\":1435:1506   */\n      tag_50\n        /* \"#utility.yul\":1503:1504   */\n      0x00\n        /* \"#utility.yul\":1492:1501   */\n      dup4\n        /* \"#utility.yul\":1488:1505   */\n      add\n        /* \"#utility.yul\":1479:1485   */\n      dup5\n        /* \"#utility.yul\":1435:1506   */\n      tag_43\n      jump\t// in\n    tag_50:\n        /* \"#utility.yul\":1389:1513   */\n      swap3\n      swap2\n      pop\n      pop\n      jump\t// out\n        /* \"#utility.yul\":1519:1688   */\n    tag_42:\n      0x00\n        /* \"#utility.yul\":1637:1643   */\n      dup3\n        /* \"#utility.yul\":1632:1635   */\n      dup3\n        /* \"#utility.yul\":1625:1644   */\n      mstore\n        /* \"#utility.yul\":1677:1681   */\n      0x20\n        /* \"#utility.yul\":1672:1675   */\n      dup3\n        /* \"#utility.yul\":1668:1682   */\n      add\n        /* \"#utility.yul\":1653:1682   */\n      swap1\n      pop\n        /* \"#utility.yul\":1615:1688   */\n      swap3\n      swap2\n      pop\n      pop\n      jump\t// out\n        /* \"#utility.yul\":1694:1771   */\n    tag_46:\n      0x00\n        /* \"#utility.yul\":1760:1765   */\n      dup2\n        /* \"#utility.yul\":1749:1765   */\n      swap1\n      pop\n        /* \"#utility.yul\":1739:1771   */\n      swap2\n      swap1\n      pop\n      jump\t// out\n        /* \"#utility.yul\":1777:1953   */\n    tag_27:\n      0x00\n        /* \"#utility.yul\":1826:1846   */\n      tag_54\n        /* \"#utility.yul\":1844:1845   */\n      dup3\n        /* \"#utility.yul\":1826:1846   */\n      tag_46\n      jump\t// in\n    tag_54:\n        /* \"#utility.yul\":1821:1846   */\n      swap2\n      pop\n        /* \"#utility.yul\":1860:1880   */\n      tag_55\n        /* \"#utility.yul\":1878:1879   */\n      dup4\n        /* \"#utility.yul\":1860:1880   */\n      tag_46\n      jump\t// in\n    tag_55:\n        /* \"#utility.yul\":1855:1880   */\n      swap3\n      pop\n        /* \"#utility.yul\":1899:1900   */\n      dup3\n        /* \"#utility.yul\":1889:1891   */\n      tag_56\n      jumpi\n        /* \"#utility.yul\":1904:1922   */\n      tag_57\n      tag_58\n      jump\t// in\n    tag_57:\n        /* \"#utility.yul\":1889:1891   */\n    tag_56:\n        /* \"#utility.yul\":1945:1946   */\n      dup3\n        /* \"#utility.yul\":1942:1943   */\n      dup3\n        /* \"#utility.yul\":1938:1947   */\n      mod\n        /* \"#utility.yul\":1933:1947   */\n      swap1\n      pop\n        /* \"#utility.yul\":1811:1953   */\n      swap3\n      swap2\n      pop\n      pop\n      jump\t// out\n        /* \"#utility.yul\":1959:2139   */\n    tag_58:\n        /* \"#utility.yul\":2007:2084   */\n      0x4e487b7100000000000000000000000000000000000000000000000000000000\n        /* \"#utility.yul\":2004:2005   */\n      0x00\n        /* \"#utility.yul\":1997:2085   */\n      mstore\n        /* \"#utility.yul\":2104:2108   */\n      0x12\n        /* \"#utility.yul\":2101:2102   */\n      0x04\n        /* \"#utility.yul\":2094:2109   */\n      mstore\n        /* \"#utility.yul\":2128:2132   */\n      0x24\n        /* \"#utility.yul\":2125:2126   */\n      0x00\n        /* \"#utility.yul\":2118:2133   */\n      revert\n        /* \"#utility.yul\":2145:2267   */\n    tag_35:\n        /* \"#utility.yul\":2218:2242   */\n      tag_61\n        /* \"#utility.yul\":2236:2241   */\n      dup2\n        /* \"#utility.yul\":2218:2242   */\n      tag_46\n      jump\t// in\n    tag_61:\n        /* \"#utility.yul\":2211:2216   */\n      dup2\n        /* \"#utility.yul\":2208:2243   */\n      eq\n        /* \"#utility.yul\":2198:2200   */\n      tag_62\n      jumpi\n        /* \"#utility.yul\":2257:2258   */\n      0x00\n        /* \"#utility.yul\":2254:2255   */\n      dup1\n        /* \"#utility.yul\":2247:2259   */\n      revert\n        /* \"#utility.yul\":2198:2200   */\n    tag_62:\n        /* \"#utility.yul\":2188:2267   */\n      pop\n      jump\t// out\n\n    auxdata: 0xa2646970667358221220e1cb838c0eeac8b28eb5dc73790e7a20f6b2e9fd4d1d76c68e1c78e1b3c1f87764736f6c63430008000033\n}\n",
				"bytecode": {
					"linkReferences": {},
					"object": "6080604052600a6000556014600155601e600255602860035534801561002457600080fd5b5061030c806100346000396000f3fe608060405234801561001057600080fd5b50600436106100575760003560e01c80630dbe671f1461005c5780632a2e13201461007a5780634df7e3d0146100965780638a054ac2146100b4578063c3da42b8146100d2575b600080fd5b6100646100f0565b6040516100719190610229565b60405180910390f35b610094600480360381019061008f9190610191565b6100f6565b005b61009e61016a565b6040516100ab9190610229565b60405180910390f35b6100bc610170565b6040516100c99190610229565b60405180910390f35b6100da610176565b6040516100e79190610229565b60405180910390f35b60005481565b606460008190555060c860018190555061012c600281905550600060028261011e919061025f565b1461015e576040517f08c379a000000000000000000000000000000000000000000000000000000000815260040161015590610209565b60405180910390fd5b61019060038190555050565b60015481565b60035481565b60025481565b60008135905061018b816102bf565b92915050565b6000602082840312156101a357600080fd5b60006101b18482850161017c565b91505092915050565b60006101c7601283610244565b91507f7820697320616e206f6464206e756d62657200000000000000000000000000006000830152602082019050919050565b61020381610255565b82525050565b60006020820190508181036000830152610222816101ba565b9050919050565b600060208201905061023e60008301846101fa565b92915050565b600082825260208201905092915050565b6000819050919050565b600061026a82610255565b915061027583610255565b92508261028557610284610290565b5b828206905092915050565b7f4e487b7100000000000000000000000000000000000000000000000000000000600052601260045260246000fd5b6102c881610255565b81146102d357600080fd5b5056fea2646970667358221220e1cb838c0eeac8b28eb5dc73790e7a20f6b2e9fd4d1d76c68e1c78e1b3c1f87764736f6c63430008000033",
					"opcodes": "PUSH1 0x80 PUSH1 0x40 MSTORE PUSH1 0xA PUSH1 0x0 SSTORE PUSH1 0x14 PUSH1 0x1 SSTORE PUSH1 0x1E PUSH1 0x2 SSTORE PUSH1 0x28 PUSH1 0x3 SSTORE CALLVALUE DUP1 ISZERO PUSH2 0x24 JUMPI PUSH1 0x0 DUP1 REVERT JUMPDEST POP PUSH2 0x30C DUP1 PUSH2 0x34 PUSH1 0x0 CODECOPY PUSH1 0x0 RETURN INVALID PUSH1 0x80 PUSH1 0x40 MSTORE CALLVALUE DUP1 ISZERO PUSH2 0x10 JUMPI PUSH1 0x0 DUP1 REVERT JUMPDEST POP PUSH1 0x4 CALLDATASIZE LT PUSH2 0x57 JUMPI PUSH1 0x0 CALLDATALOAD PUSH1 0xE0 SHR DUP1 PUSH4 0xDBE671F EQ PUSH2 0x5C JUMPI DUP1 PUSH4 0x2A2E1320 EQ PUSH2 0x7A JUMPI DUP1 PUSH4 0x4DF7E3D0 EQ PUSH2 0x96 JUMPI DUP1 PUSH4 0x8A054AC2 EQ PUSH2 0xB4 JUMPI DUP1 PUSH4 0xC3DA42B8 EQ PUSH2 0xD2 JUMPI JUMPDEST PUSH1 0x0 DUP1 REVERT JUMPDEST PUSH2 0x64 PUSH2 0xF0 JUMP JUMPDEST PUSH1 0x40 MLOAD PUSH2 0x71 SWAP2 SWAP1 PUSH2 0x229 JUMP JUMPDEST PUSH1 0x40 MLOAD DUP1 SWAP2 SUB SWAP1 RETURN JUMPDEST PUSH2 0x94 PUSH1 0x4 DUP1 CALLDATASIZE SUB DUP2 ADD SWAP1 PUSH2 0x8F SWAP2 SWAP1 PUSH2 0x191 JUMP JUMPDEST PUSH2 0xF6 JUMP JUMPDEST STOP JUMPDEST PUSH2 0x9E PUSH2 0x16A JUMP JUMPDEST PUSH1 0x40 MLOAD PUSH2 0xAB SWAP2 SWAP1 PUSH2 0x229 JUMP JUMPDEST PUSH1 0x40 MLOAD DUP1 SWAP2 SUB SWAP1 RETURN JUMPDEST PUSH2 0xBC PUSH2 0x170 JUMP JUMPDEST PUSH1 0x40 MLOAD PUSH2 0xC9 SWAP2 SWAP1 PUSH2 0x229 JUMP JUMPDEST PUSH1 0x40 MLOAD DUP1 SWAP2 SUB SWAP1 RETURN JUMPDEST PUSH2 0xDA PUSH2 0x176 JUMP JUMPDEST PUSH1 0x40 MLOAD PUSH2 0xE7 SWAP2 SWAP1 PUSH2 0x229 JUMP JUMPDEST PUSH1 0x40 MLOAD DUP1 SWAP2 SUB SWAP1 RETURN JUMPDEST PUSH1 0x0 SLOAD DUP2 JUMP JUMPDEST PUSH1 0x64 PUSH1 0x0 DUP2 SWAP1 SSTORE POP PUSH1 0xC8 PUSH1 0x1 DUP2 SWAP1 SSTORE POP PUSH2 0x12C PUSH1 0x2 DUP2 SWAP1 SSTORE POP PUSH1 0x0 PUSH1 0x2 DUP3 PUSH2 0x11E SWAP2 SWAP1 PUSH2 0x25F JUMP JUMPDEST EQ PUSH2 0x15E JUMPI PUSH1 0x40 MLOAD PUSH32 0x8C379A000000000000000000000000000000000000000000000000000000000 DUP2 MSTORE PUSH1 0x4 ADD PUSH2 0x155 SWAP1 PUSH2 0x209 JUMP JUMPDEST PUSH1 0x40 MLOAD DUP1 SWAP2 SUB SWAP1 REVERT JUMPDEST PUSH2 0x190 PUSH1 0x3 DUP2 SWAP1 SSTORE POP POP JUMP JUMPDEST PUSH1 0x1 SLOAD DUP2 JUMP JUMPDEST PUSH1 0x3 SLOAD DUP2 JUMP JUMPDEST PUSH1 0x2 SLOAD DUP2 JUMP JUMPDEST PUSH1 0x0 DUP2 CALLDATALOAD SWAP1 POP PUSH2 0x18B DUP2 PUSH2 0x2BF JUMP JUMPDEST SWAP3 SWAP2 POP POP JUMP JUMPDEST PUSH1 0x0 PUSH1 0x20 DUP3 DUP5 SUB SLT ISZERO PUSH2 0x1A3 JUMPI PUSH1 0x0 DUP1 REVERT JUMPDEST PUSH1 0x0 PUSH2 0x1B1 DUP5 DUP3 DUP6 ADD PUSH2 0x17C JUMP JUMPDEST SWAP2 POP POP SWAP3 SWAP2 POP POP JUMP JUMPDEST PUSH1 0x0 PUSH2 0x1C7 PUSH1 0x12 DUP4 PUSH2 0x244 JUMP JUMPDEST SWAP2 POP PUSH32 0x7820697320616E206F6464206E756D6265720000000000000000000000000000 PUSH1 0x0 DUP4 ADD MSTORE PUSH1 0x20 DUP3 ADD SWAP1 POP SWAP2 SWAP1 POP JUMP JUMPDEST PUSH2 0x203 DUP2 PUSH2 0x255 JUMP JUMPDEST DUP3 MSTORE POP POP JUMP JUMPDEST PUSH1 0x0 PUSH1 0x20 DUP3 ADD SWAP1 POP DUP2 DUP2 SUB PUSH1 0x0 DUP4 ADD MSTORE PUSH2 0x222 DUP2 PUSH2 0x1BA JUMP JUMPDEST SWAP1 POP SWAP2 SWAP1 POP JUMP JUMPDEST PUSH1 0x0 PUSH1 0x20 DUP3 ADD SWAP1 POP PUSH2 0x23E PUSH1 0x0 DUP4 ADD DUP5 PUSH2 0x1FA JUMP JUMPDEST SWAP3 SWAP2 POP POP JUMP JUMPDEST PUSH1 0x0 DUP3 DUP3 MSTORE PUSH1 0x20 DUP3 ADD SWAP1 POP SWAP3 SWAP2 POP POP JUMP JUMPDEST PUSH1 0x0 DUP2 SWAP1 POP SWAP2 SWAP1 POP JUMP JUMPDEST PUSH1 0x0 PUSH2 0x26A DUP3 PUSH2 0x255 JUMP JUMPDEST SWAP2 POP PUSH2 0x275 DUP4 PUSH2 0x255 JUMP JUMPDEST SWAP3 POP DUP3 PUSH2 0x285 JUMPI PUSH2 0x284 PUSH2 0x290 JUMP JUMPDEST JUMPDEST DUP3 DUP3 MOD SWAP1 POP SWAP3 SWAP2 POP POP JUMP JUMPDEST PUSH32 0x4E487B7100000000000000000000000000000000000000000000000000000000 PUSH1 0x0 MSTORE PUSH1 0x12 PUSH1 0x4 MSTORE PUSH1 0x24 PUSH1 0x0 REVERT JUMPDEST PUSH2 0x2C8 DUP2 PUSH2 0x255 JUMP JUMPDEST DUP2 EQ PUSH2 0x2D3 JUMPI PUSH1 0x0 DUP1 REVERT JUMPDEST POP JUMP INVALID LOG2 PUSH5 0x6970667358 0x22 SLT KECCAK256 0xE1 0xCB DUP4 DUP13 0xE 0xEA 0xC8 0xB2 DUP15 0xB5 0xDC PUSH20 0x790E7A20F6B2E9FD4D1D76C68E1C78E1B3C1F877 PUSH5 0x736F6C6343 STOP ADDMOD STOP STOP CALLER "
				},
				"gasEstimates": {
					"creation": {
						"codeDepositCost": "156000",
						"executionCost": "80226",
						"totalCost": "236226"
					},
					"external": {
						"a()": "1107",
						"b()": "1151",
						"c()": "1195",
						"d()": "1173",
						"isEven(uint256)": "infinite"
					}
				},
				"methodIdentifiers": {
					"a()": "0dbe671f",
					"b()": "4df7e3d0",
					"c()": "c3da42b8",
					"d()": "8a054ac2",
					"isEven(uint256)": "2a2e1320"
				}
			},
			"storageLayout": {
				"storage": [
					{
						"astId": 4,
						"contract": "contracts/require.sol:requireStatement",
						"label": "a",
						"offset": 0,
						"slot": "0",
						"type": "t_uint256"
					},
					{
						"astId": 7,
						"contract": "contracts/require.sol:requireStatement",
						"label": "b",
						"offset": 0,
						"slot": "1",
						"type": "t_uint256"
					},
					{
						"astId": 10,
						"contract": "contracts/require.sol:requireStatement",
						"label": "c",
						"offset": 0,
						"slot": "2",
						"type": "t_uint256"
					},
					{
						"astId": 13,
						"contract": "contracts/require.sol:requireStatement",
						"label": "d",
						"offset": 0,
						"slot": "3",
						"type": "t_uint256"
					}
				],
				"types": {
					"t_uint256": {
						"encoding": "inplace",
						"label": "uint256",
						"numberOfBytes": "32"
					}
				}
			},
			"userdoc": {
				"kind": "user",
				"methods": {},
				"version": 1
			}
		}
	}
}