{
	"contracts/Variables.sol": {
		"newContract": {
			"abi": [
				{
					"inputs": [],
					"name": "changeState",
					"outputs": [],
					"stateMutability": "nonpayable",
					"type": "function"
				},
				{
					"inputs": [],
					"name": "localVariableSetter",
					"outputs": [],
					"stateMutability": "nonpayable",
					"type": "function"
				},
				{
					"inputs": [],
					"name": "num1",
					"outputs": [
						{
							"internalType": "uint256",
							"name": "",
							"type": "uint256"
						}
					],
					"stateMutability": "view",
					"type": "function"
				}
			],
			"devdoc": {
				"kind": "dev",
				"methods": {},
				"version": 1
			},
			"evm": {
				"assembly": "    /* \"contracts/Variables.sol\":67:539  contract newContract{... */\n  mstore(0x40, 0x80)\n    /* \"contracts/Variables.sol\":125:126  5 */\n  0x05\n    /* \"contracts/Variables.sol\":108:126  uint public num1=5 */\n  0x00\n  sstore\n    /* \"contracts/Variables.sol\":67:539  contract newContract{... */\n  callvalue\n  dup1\n  iszero\n  tag_1\n  jumpi\n  0x00\n  dup1\n  revert\ntag_1:\n  pop\n  dataSize(sub_0)\n  dup1\n  dataOffset(sub_0)\n  0x00\n  codecopy\n  0x00\n  return\nstop\n\nsub_0: assembly {\n        /* \"contracts/Variables.sol\":67:539  contract newContract{... */\n      mstore(0x40, 0x80)\n      callvalue\n      dup1\n      iszero\n      tag_1\n      jumpi\n      0x00\n      dup1\n      revert\n    tag_1:\n      pop\n      jumpi(tag_2, lt(calldatasize, 0x04))\n      shr(0xe0, calldataload(0x00))\n      dup1\n      0x3b9eac4b\n      eq\n      tag_3\n      jumpi\n      dup1\n      0x6ac65e75\n      eq\n      tag_4\n      jumpi\n      dup1\n      0x8412e667\n      eq\n      tag_5\n      jumpi\n    tag_2:\n      0x00\n      dup1\n      revert\n        /* \"contracts/Variables.sol\":108:126  uint public num1=5 */\n    tag_3:\n      tag_6\n      tag_7\n      jump\t// in\n    tag_6:\n      mload(0x40)\n      tag_8\n      swap2\n      swap1\n      tag_9\n      jump\t// in\n    tag_8:\n      mload(0x40)\n      dup1\n      swap2\n      sub\n      swap1\n      return\n        /* \"contracts/Variables.sol\":426:536  function localVariableSetter() public{... */\n    tag_4:\n      tag_10\n      tag_11\n      jump\t// in\n    tag_10:\n      stop\n        /* \"contracts/Variables.sol\":363:418  function changeState() public{... */\n    tag_5:\n      tag_12\n      tag_13\n      jump\t// in\n    tag_12:\n      stop\n        /* \"contracts/Variables.sol\":108:126  uint public num1=5 */\n    tag_7:\n      sload(0x00)\n      dup2\n      jump\t// out\n        /* \"contracts/Variables.sol\":426:536  function localVariableSetter() public{... */\n    tag_11:\n        /* \"contracts/Variables.sol\":474:483  uint num2 */\n      0x00\n        /* \"contracts/Variables.sol\":484:486  10 */\n      0x0a\n        /* \"contracts/Variables.sol\":474:486  uint num2=10 */\n      swap1\n      pop\n        /* \"contracts/Variables.sol\":463:536  {... */\n      pop\n        /* \"contracts/Variables.sol\":426:536  function localVariableSetter() public{... */\n      jump\t// out\n        /* \"contracts/Variables.sol\":363:418  function changeState() public{... */\n    tag_13:\n        /* \"contracts/Variables.sol\":408:410  10 */\n      0x0a\n        /* \"contracts/Variables.sol\":403:407  num1 */\n      0x00\n        /* \"contracts/Variables.sol\":403:410  num1=10 */\n      dup2\n      swap1\n      sstore\n      pop\n        /* \"contracts/Variables.sol\":363:418  function changeState() public{... */\n      jump\t// out\n        /* \"#utility.yul\":7:84   */\n    tag_16:\n        /* \"#utility.yul\":44:51   */\n      0x00\n        /* \"#utility.yul\":73:78   */\n      dup2\n        /* \"#utility.yul\":62:78   */\n      swap1\n      pop\n        /* \"#utility.yul\":7:84   */\n      swap2\n      swap1\n      pop\n      jump\t// out\n        /* \"#utility.yul\":90:208   */\n    tag_17:\n        /* \"#utility.yul\":177:201   */\n      tag_21\n        /* \"#utility.yul\":195:200   */\n      dup2\n        /* \"#utility.yul\":177:201   */\n      tag_16\n      jump\t// in\n    tag_21:\n        /* \"#utility.yul\":172:175   */\n      dup3\n        /* \"#utility.yul\":165:202   */\n      mstore\n        /* \"#utility.yul\":90:208   */\n      pop\n      pop\n      jump\t// out\n        /* \"#utility.yul\":214:436   */\n    tag_9:\n        /* \"#utility.yul\":307:311   */\n      0x00\n        /* \"#utility.yul\":345:347   */\n      0x20\n        /* \"#utility.yul\":334:343   */\n      dup3\n        /* \"#utility.yul\":330:348   */\n      add\n        /* \"#utility.yul\":322:348   */\n      swap1\n      pop\n        /* \"#utility.yul\":358:429   */\n      tag_23\n        /* \"#utility.yul\":426:427   */\n      0x00\n        /* \"#utility.yul\":415:424   */\n      dup4\n        /* \"#utility.yul\":411:428   */\n      add\n        /* \"#utility.yul\":402:408   */\n      dup5\n        /* \"#utility.yul\":358:429   */\n      tag_17\n      jump\t// in\n    tag_23:\n        /* \"#utility.yul\":214:436   */\n      swap3\n      swap2\n      pop\n      pop\n      jump\t// out\n\n    auxdata: 0xa2646970667358221220ccc8c63be6e66aa863b4706d69395aa0f61adfcf90f806817ca6cfeeb473ada164736f6c634300081a0033\n}\n",
				"bytecode": {
					"linkReferences": {},
					"object": "608060405260055f553480156012575f80fd5b5060e18061001f5f395ff3fe6080604052348015600e575f80fd5b5060043610603a575f3560e01c80633b9eac4b14603e5780636ac65e751460585780638412e667146060575b5f80fd5b60446068565b604051604f91906094565b60405180910390f35b605e606d565b005b60666075565b005b5f5481565b5f600a905050565b600a5f81905550565b5f819050919050565b608e81607e565b82525050565b5f60208201905060a55f8301846087565b9291505056fea2646970667358221220ccc8c63be6e66aa863b4706d69395aa0f61adfcf90f806817ca6cfeeb473ada164736f6c634300081a0033",
					"opcodes": "PUSH1 0x80 PUSH1 0x40 MSTORE PUSH1 0x5 PUSH0 SSTORE CALLVALUE DUP1 ISZERO PUSH1 0x12 JUMPI PUSH0 DUP1 REVERT JUMPDEST POP PUSH1 0xE1 DUP1 PUSH2 0x1F PUSH0 CODECOPY PUSH0 RETURN INVALID PUSH1 0x80 PUSH1 0x40 MSTORE CALLVALUE DUP1 ISZERO PUSH1 0xE JUMPI PUSH0 DUP1 REVERT JUMPDEST POP PUSH1 0x4 CALLDATASIZE LT PUSH1 0x3A JUMPI PUSH0 CALLDATALOAD PUSH1 0xE0 SHR DUP1 PUSH4 0x3B9EAC4B EQ PUSH1 0x3E JUMPI DUP1 PUSH4 0x6AC65E75 EQ PUSH1 0x58 JUMPI DUP1 PUSH4 0x8412E667 EQ PUSH1 0x60 JUMPI JUMPDEST PUSH0 DUP1 REVERT JUMPDEST PUSH1 0x44 PUSH1 0x68 JUMP JUMPDEST PUSH1 0x40 MLOAD PUSH1 0x4F SWAP2 SWAP1 PUSH1 0x94 JUMP JUMPDEST PUSH1 0x40 MLOAD DUP1 SWAP2 SUB SWAP1 RETURN JUMPDEST PUSH1 0x5E PUSH1 0x6D JUMP JUMPDEST STOP JUMPDEST PUSH1 0x66 PUSH1 0x75 JUMP JUMPDEST STOP JUMPDEST PUSH0 SLOAD DUP2 JUMP JUMPDEST PUSH0 PUSH1 0xA SWAP1 POP POP JUMP JUMPDEST PUSH1 0xA PUSH0 DUP2 SWAP1 SSTORE POP JUMP JUMPDEST PUSH0 DUP2 SWAP1 POP SWAP2 SWAP1 POP JUMP JUMPDEST PUSH1 0x8E DUP2 PUSH1 0x7E JUMP JUMPDEST DUP3 MSTORE POP POP JUMP JUMPDEST PUSH0 PUSH1 0x20 DUP3 ADD SWAP1 POP PUSH1 0xA5 PUSH0 DUP4 ADD DUP5 PUSH1 0x87 JUMP JUMPDEST SWAP3 SWAP2 POP POP JUMP INVALID LOG2 PUSH5 0x6970667358 0x22 SLT KECCAK256 0xCC 0xC8 0xC6 EXTCODESIZE 0xE6 0xE6 PUSH11 0xA863B4706D69395AA0F61A 0xDF 0xCF SWAP1 0xF8 MOD DUP2 PUSH29 0xA6CFEEB473ADA164736F6C634300081A00330000000000000000000000 "
				},
				"gasEstimates": {
					"creation": {
						"codeDepositCost": "45000",
						"executionCost": "22202",
						"totalCost": "67202"
					},
					"external": {
						"changeState()": "22278",
						"localVariableSetter()": "155",
						"num1()": "2402"
					}
				},
				"methodIdentifiers": {
					"changeState()": "8412e667",
					"localVariableSetter()": "6ac65e75",
					"num1()": "3b9eac4b"
				}
			},
			"storageLayout": {
				"storage": [
					{
						"astId": 4,
						"contract": "contracts/Variables.sol:newContract",
						"label": "num1",
						"offset": 0,
						"slot": "0",
						"type": "t_uint256"
					}
				],
				"types": {
					"t_uint256": {
						"encoding": "inplace",
						"label": "uint256",
						"numberOfBytes": "32"
					}
				}
			},
			"userdoc": {
				"kind": "user",
				"methods": {},
				"version": 1
			}
		}
	}
}