{
	"contracts/Voting.sol": {
		"Vote": {
			"abi": [
				{
					"inputs": [],
					"stateMutability": "nonpayable",
					"type": "constructor"
				},
				{
					"inputs": [],
					"name": "candidateList",
					"outputs": [
						{
							"components": [
								{
									"internalType": "string",
									"name": "name",
									"type": "string"
								},
								{
									"internalType": "string",
									"name": "party",
									"type": "string"
								},
								{
									"internalType": "uint256",
									"name": "age",
									"type": "uint256"
								},
								{
									"internalType": "string",
									"name": "gender",
									"type": "string"
								},
								{
									"internalType": "uint256",
									"name": "candidateId",
									"type": "uint256"
								},
								{
									"internalType": "address",
									"name": "candidateAddress",
									"type": "address"
								},
								{
									"internalType": "uint256",
									"name": "votes",
									"type": "uint256"
								}
							],
							"internalType": "struct Vote.Candidate[]",
							"name": "",
							"type": "tuple[]"
						}
					],
					"stateMutability": "view",
					"type": "function"
				},
				{
					"inputs": [
						{
							"internalType": "string",
							"name": "_name",
							"type": "string"
						},
						{
							"internalType": "string",
							"name": "_party",
							"type": "string"
						},
						{
							"internalType": "uint256",
							"name": "_age",
							"type": "uint256"
						},
						{
							"internalType": "string",
							"name": "_gender",
							"type": "string"
						}
					],
					"name": "candidateRegister",
					"outputs": [],
					"stateMutability": "nonpayable",
					"type": "function"
				},
				{
					"inputs": [],
					"name": "emergency",
					"outputs": [],
					"stateMutability": "nonpayable",
					"type": "function"
				},
				{
					"inputs": [],
					"name": "result",
					"outputs": [],
					"stateMutability": "nonpayable",
					"type": "function"
				},
				{
					"inputs": [
						{
							"internalType": "uint256",
							"name": "_voterId",
							"type": "uint256"
						},
						{
							"internalType": "uint256",
							"name": "_candidateId",
							"type": "uint256"
						}
					],
					"name": "vote",
					"outputs": [],
					"stateMutability": "nonpayable",
					"type": "function"
				},
				{
					"inputs": [
						{
							"internalType": "uint256",
							"name": "_startTime",
							"type": "uint256"
						},
						{
							"internalType": "uint256",
							"name": "duration",
							"type": "uint256"
						}
					],
					"name": "voteTime",
					"outputs": [],
					"stateMutability": "nonpayable",
					"type": "function"
				},
				{
					"inputs": [],
					"name": "voterList",
					"outputs": [
						{
							"components": [
								{
									"internalType": "string",
									"name": "name",
									"type": "string"
								},
								{
									"internalType": "uint256",
									"name": "age",
									"type": "uint256"
								},
								{
									"internalType": "uint256",
									"name": "voterId",
									"type": "uint256"
								},
								{
									"internalType": "string",
									"name": "gender",
									"type": "string"
								},
								{
									"internalType": "uint256",
									"name": "voteCandidateId",
									"type": "uint256"
								},
								{
									"internalType": "address",
									"name": "voterAddress",
									"type": "address"
								}
							],
							"internalType": "struct Vote.Voter[]",
							"name": "",
							"type": "tuple[]"
						}
					],
					"stateMutability": "view",
					"type": "function"
				},
				{
					"inputs": [
						{
							"internalType": "string",
							"name": "_name",
							"type": "string"
						},
						{
							"internalType": "uint256",
							"name": "_age",
							"type": "uint256"
						},
						{
							"internalType": "string",
							"name": "_gender",
							"type": "string"
						}
					],
					"name": "voterRegister",
					"outputs": [],
					"stateMutability": "nonpayable",
					"type": "function"
				},
				{
					"inputs": [],
					"name": "votingStatus",
					"outputs": [
						{
							"internalType": "string",
							"name": "",
							"type": "string"
						}
					],
					"stateMutability": "view",
					"type": "function"
				},
				{
					"inputs": [],
					"name": "winner",
					"outputs": [
						{
							"internalType": "address",
							"name": "",
							"type": "address"
						}
					],
					"stateMutability": "view",
					"type": "function"
				}
			],
			"devdoc": {
				"kind": "dev",
				"methods": {},
				"version": 1
			},
			"evm": {
				"assembly": "    /* \"contracts/Voting.sol\":73:5297  contract Vote{... */\n  mstore(0x40, 0x80)\n    /* \"contracts/Voting.sol\":621:622  1 */\n  0x01\n    /* \"contracts/Voting.sol\":604:622  uint nextVoterId=1 */\n  0x02\n  sstore\n    /* \"contracts/Voting.sol\":671:672  1 */\n  0x01\n    /* \"contracts/Voting.sol\":650:672  uint nextCandidateId=1 */\n  0x03\n  sstore\n    /* \"contracts/Voting.sol\":1009:1068  constructor(){... */\n  callvalue\n  dup1\n  iszero\n  tag_1\n  jumpi\n  0x00\n  dup1\n  revert\ntag_1:\n  pop\n    /* \"contracts/Voting.sol\":1050:1060  msg.sender */\n  caller\n    /* \"contracts/Voting.sol\":1032:1049  electionCommision */\n  0x00\n  dup1\n    /* \"contracts/Voting.sol\":1032:1060  electionCommision=msg.sender */\n  0x0100\n  exp\n  dup2\n  sload\n  dup2\n  0xffffffffffffffffffffffffffffffffffffffff\n  mul\n  not\n  and\n  swap1\n  dup4\n  0xffffffffffffffffffffffffffffffffffffffff\n  and\n  mul\n  or\n  swap1\n  sstore\n  pop\n    /* \"contracts/Voting.sol\":73:5297  contract Vote{... */\n  dataSize(sub_0)\n  dup1\n  dataOffset(sub_0)\n  0x00\n  codecopy\n  0x00\n  return\nstop\n\nsub_0: assembly {\n        /* \"contracts/Voting.sol\":73:5297  contract Vote{... */\n      mstore(0x40, 0x80)\n      callvalue\n      dup1\n      iszero\n      tag_1\n      jumpi\n      0x00\n      dup1\n      revert\n    tag_1:\n      pop\n      jumpi(tag_2, lt(calldatasize, 0x04))\n      shr(0xe0, calldataload(0x00))\n      dup1\n      0x93e5fed2\n      gt\n      tag_13\n      jumpi\n      dup1\n      0x93e5fed2\n      eq\n      tag_8\n      jumpi\n      dup1\n      0xb384abef\n      eq\n      tag_9\n      jumpi\n      dup1\n      0xcaa6fea4\n      eq\n      tag_10\n      jumpi\n      dup1\n      0xcf5ce2e7\n      eq\n      tag_11\n      jumpi\n      dup1\n      0xdfbf53ae\n      eq\n      tag_12\n      jumpi\n      jump(tag_2)\n    tag_13:\n      dup1\n      0x19f41a40\n      eq\n      tag_3\n      jumpi\n      dup1\n      0x24089918\n      eq\n      tag_4\n      jumpi\n      dup1\n      0x498ea441\n      eq\n      tag_5\n      jumpi\n      dup1\n      0x65372147\n      eq\n      tag_6\n      jumpi\n      dup1\n      0x65ca2be3\n      eq\n      tag_7\n      jumpi\n    tag_2:\n      0x00\n      dup1\n      revert\n        /* \"contracts/Voting.sol\":4534:4828  function votingStatus() public view returns(string memory){... */\n    tag_3:\n      tag_14\n      tag_15\n      jump\t// in\n    tag_14:\n      mload(0x40)\n      tag_16\n      swap2\n      swap1\n      tag_17\n      jump\t// in\n    tag_16:\n      mload(0x40)\n      dup1\n      swap2\n      sub\n      swap1\n      return\n        /* \"contracts/Voting.sol\":3239:3487  function voterList() public view returns(Voter[] memory){... */\n    tag_4:\n      tag_18\n      tag_19\n      jump\t// in\n    tag_18:\n      mload(0x40)\n      tag_20\n      swap2\n      swap1\n      tag_21\n      jump\t// in\n    tag_20:\n      mload(0x40)\n      dup1\n      swap2\n      sub\n      swap1\n      return\n        /* \"contracts/Voting.sol\":2172:2501  function candidateList() public view returns(Candidate[] memory){... */\n    tag_5:\n      tag_22\n      tag_23\n      jump\t// in\n    tag_22:\n      mload(0x40)\n      tag_24\n      swap2\n      swap1\n      tag_25\n      jump\t// in\n    tag_24:\n      mload(0x40)\n      dup1\n      swap2\n      sub\n      swap1\n      return\n        /* \"contracts/Voting.sol\":4836:5206  function result() external onlyCommissioner(){... */\n    tag_6:\n      tag_26\n      tag_27\n      jump\t// in\n    tag_26:\n      stop\n        /* \"contracts/Voting.sol\":4361:4526  function voteTime(uint _startTime,uint duration) external onlyCommissioner(){... */\n    tag_7:\n      tag_28\n      0x04\n      dup1\n      calldatasize\n      sub\n      dup2\n      add\n      swap1\n      tag_29\n      swap2\n      swap1\n      tag_30\n      jump\t// in\n    tag_29:\n      tag_31\n      jump\t// in\n    tag_28:\n      stop\n        /* \"contracts/Voting.sol\":2509:2985  function voterRegister(string calldata _name,uint _age,string calldata _gender) public{... */\n    tag_8:\n      tag_32\n      0x04\n      dup1\n      calldatasize\n      sub\n      dup2\n      add\n      swap1\n      tag_33\n      swap2\n      swap1\n      tag_34\n      jump\t// in\n    tag_33:\n      tag_35\n      jump\t// in\n    tag_32:\n      stop\n        /* \"contracts/Voting.sol\":3495:4352  function vote(uint _voterId,uint _candidateId) external{... */\n    tag_9:\n      tag_36\n      0x04\n      dup1\n      calldatasize\n      sub\n      dup2\n      add\n      swap1\n      tag_37\n      swap2\n      swap1\n      tag_30\n      jump\t// in\n    tag_37:\n      tag_38\n      jump\t// in\n    tag_36:\n      stop\n        /* \"contracts/Voting.sol\":5214:5294  function emergency() public onlyCommissioner(){... */\n    tag_10:\n      tag_39\n      tag_40\n      jump\t// in\n    tag_39:\n      stop\n        /* \"contracts/Voting.sol\":1269:1900  function candidateRegister(string calldata _name,string calldata _party,uint _age,... */\n    tag_11:\n      tag_41\n      0x04\n      dup1\n      calldatasize\n      sub\n      dup2\n      add\n      swap1\n      tag_42\n      swap2\n      swap1\n      tag_43\n      jump\t// in\n    tag_42:\n      tag_44\n      jump\t// in\n    tag_41:\n      stop\n        /* \"contracts/Voting.sol\":574:595  address public winner */\n    tag_12:\n      tag_45\n      tag_46\n      jump\t// in\n    tag_45:\n      mload(0x40)\n      tag_47\n      swap2\n      swap1\n      tag_48\n      jump\t// in\n    tag_47:\n      mload(0x40)\n      dup1\n      swap2\n      sub\n      swap1\n      return\n        /* \"contracts/Voting.sol\":4534:4828  function votingStatus() public view returns(string memory){... */\n    tag_15:\n        /* \"contracts/Voting.sol\":4578:4591  string memory */\n      0x60\n        /* \"contracts/Voting.sol\":4617:4618  0 */\n      0x00\n        /* \"contracts/Voting.sol\":4606:4615  startTime */\n      sload(0x04)\n        /* \"contracts/Voting.sol\":4606:4618  startTime==0 */\n      sub\n        /* \"contracts/Voting.sol\":4603:4820  if(startTime==0)... */\n      tag_50\n      jumpi\n        /* \"contracts/Voting.sol\":4632:4663  return \"Voting has not started\" */\n      mload(0x40)\n      dup1\n      0x40\n      add\n      0x40\n      mstore\n      dup1\n      0x16\n      dup2\n      mstore\n      0x20\n      add\n      0x566f74696e6720686173206e6f74207374617274656400000000000000000000\n      dup2\n      mstore\n      pop\n      swap1\n      pop\n      jump(tag_49)\n        /* \"contracts/Voting.sol\":4603:4820  if(startTime==0)... */\n    tag_50:\n        /* \"contracts/Voting.sol\":4698:4705  endTime */\n      sload(0x05)\n        /* \"contracts/Voting.sol\":4682:4697  block.timestamp */\n      timestamp\n        /* \"contracts/Voting.sol\":4682:4705  block.timestamp<endTime */\n      lt\n        /* \"contracts/Voting.sol\":4682:4726  block.timestamp<endTime && stopVoting==false */\n      dup1\n      iszero\n      tag_52\n      jumpi\n      pop\n        /* \"contracts/Voting.sol\":4721:4726  false */\n      0x00\n        /* \"contracts/Voting.sol\":4709:4726  stopVoting==false */\n      iszero\n      iszero\n        /* \"contracts/Voting.sol\":4709:4719  stopVoting */\n      0x08\n      0x00\n      swap1\n      sload\n      swap1\n      0x0100\n      exp\n      swap1\n      div\n      0xff\n      and\n        /* \"contracts/Voting.sol\":4709:4726  stopVoting==false */\n      iszero\n      iszero\n      eq\n        /* \"contracts/Voting.sol\":4682:4726  block.timestamp<endTime && stopVoting==false */\n    tag_52:\n        /* \"contracts/Voting.sol\":4679:4820  if(block.timestamp<endTime && stopVoting==false)... */\n      iszero\n      tag_53\n      jumpi\n        /* \"contracts/Voting.sol\":4740:4767  return \"Voting in progress\" */\n      mload(0x40)\n      dup1\n      0x40\n      add\n      0x40\n      mstore\n      dup1\n      0x12\n      dup2\n      mstore\n      0x20\n      add\n      0x566f74696e6720696e2070726f67726573730000000000000000000000000000\n      dup2\n      mstore\n      pop\n      swap1\n      pop\n      jump(tag_49)\n        /* \"contracts/Voting.sol\":4679:4820  if(block.timestamp<endTime && stopVoting==false)... */\n    tag_53:\n        /* \"contracts/Voting.sol\":4795:4820  return \"Voting has ended\" */\n      mload(0x40)\n      dup1\n      0x40\n      add\n      0x40\n      mstore\n      dup1\n      0x10\n      dup2\n      mstore\n      0x20\n      add\n      0x566f74696e672068617320656e64656400000000000000000000000000000000\n      dup2\n      mstore\n      pop\n      swap1\n      pop\n        /* \"contracts/Voting.sol\":4534:4828  function votingStatus() public view returns(string memory){... */\n    tag_49:\n      swap1\n      jump\t// out\n        /* \"contracts/Voting.sol\":3239:3487  function voterList() public view returns(Voter[] memory){... */\n    tag_19:\n        /* \"contracts/Voting.sol\":3280:3294  Voter[] memory */\n      0x60\n        /* \"contracts/Voting.sol\":3306:3329  Voter[] memory voterArr */\n      0x00\n        /* \"contracts/Voting.sol\":3354:3355  1 */\n      0x01\n        /* \"contracts/Voting.sol\":3342:3353  nextVoterId */\n      sload(0x02)\n        /* \"contracts/Voting.sol\":3342:3355  nextVoterId-1 */\n      tag_56\n      swap2\n      swap1\n      tag_57\n      jump\t// in\n    tag_56:\n        /* \"contracts/Voting.sol\":3330:3356  new Voter[](nextVoterId-1) */\n      0xffffffffffffffff\n      dup2\n      gt\n      iszero\n      tag_58\n      jumpi\n      tag_59\n      tag_60\n      jump\t// in\n    tag_59:\n    tag_58:\n      mload(0x40)\n      swap1\n      dup1\n      dup3\n      mstore\n      dup1\n      0x20\n      mul\n      0x20\n      add\n      dup3\n      add\n      0x40\n      mstore\n      dup1\n      iszero\n      tag_61\n      jumpi\n      dup2\n      0x20\n      add\n    tag_62:\n      tag_63\n      tag_64\n      jump\t// in\n    tag_63:\n      dup2\n      mstore\n      0x20\n      add\n      swap1\n      0x01\n      swap1\n      sub\n      swap1\n      dup2\n      tag_62\n      jumpi\n      swap1\n      pop\n    tag_61:\n      pop\n        /* \"contracts/Voting.sol\":3306:3356  Voter[] memory voterArr=new Voter[](nextVoterId-1) */\n      swap1\n      pop\n        /* \"contracts/Voting.sol\":3371:3377  uint i */\n      0x00\n        /* \"contracts/Voting.sol\":3378:3379  1 */\n      0x01\n        /* \"contracts/Voting.sol\":3371:3379  uint i=1 */\n      swap1\n      pop\n        /* \"contracts/Voting.sol\":3367:3454  for(uint i=1;i<nextVoterId;i++){... */\n    tag_65:\n        /* \"contracts/Voting.sol\":3382:3393  nextVoterId */\n      sload(0x02)\n        /* \"contracts/Voting.sol\":3380:3381  i */\n      dup2\n        /* \"contracts/Voting.sol\":3380:3393  i<nextVoterId */\n      lt\n        /* \"contracts/Voting.sol\":3367:3454  for(uint i=1;i<nextVoterId;i++){... */\n      iszero\n      tag_66\n      jumpi\n        /* \"contracts/Voting.sol\":3427:3439  voterDetails */\n      0x06\n        /* \"contracts/Voting.sol\":3427:3442  voterDetails[i] */\n      0x00\n        /* \"contracts/Voting.sol\":3440:3441  i */\n      dup3\n        /* \"contracts/Voting.sol\":3427:3442  voterDetails[i] */\n      dup2\n      mstore\n      0x20\n      add\n      swap1\n      dup2\n      mstore\n      0x20\n      add\n      0x00\n      keccak256\n        /* \"contracts/Voting.sol\":3413:3442  voterArr[i-1]=voterDetails[i] */\n      mload(0x40)\n      dup1\n      0xc0\n      add\n      0x40\n      mstore\n      swap1\n      dup2\n      0x00\n      dup3\n      add\n      dup1\n      sload\n      tag_68\n      swap1\n      tag_69\n      jump\t// in\n    tag_68:\n      dup1\n      0x1f\n      add\n      0x20\n      dup1\n      swap2\n      div\n      mul\n      0x20\n      add\n      mload(0x40)\n      swap1\n      dup2\n      add\n      0x40\n      mstore\n      dup1\n      swap3\n      swap2\n      swap1\n      dup2\n      dup2\n      mstore\n      0x20\n      add\n      dup3\n      dup1\n      sload\n      tag_70\n      swap1\n      tag_69\n      jump\t// in\n    tag_70:\n      dup1\n      iszero\n      tag_71\n      jumpi\n      dup1\n      0x1f\n      lt\n      tag_72\n      jumpi\n      0x0100\n      dup1\n      dup4\n      sload\n      div\n      mul\n      dup4\n      mstore\n      swap2\n      0x20\n      add\n      swap2\n      jump(tag_71)\n    tag_72:\n      dup3\n      add\n      swap2\n      swap1\n      0x00\n      mstore\n      keccak256(0x00, 0x20)\n      swap1\n    tag_73:\n      dup2\n      sload\n      dup2\n      mstore\n      swap1\n      0x01\n      add\n      swap1\n      0x20\n      add\n      dup1\n      dup4\n      gt\n      tag_73\n      jumpi\n      dup3\n      swap1\n      sub\n      0x1f\n      and\n      dup3\n      add\n      swap2\n    tag_71:\n      pop\n      pop\n      pop\n      pop\n      pop\n      dup2\n      mstore\n      0x20\n      add\n      0x01\n      dup3\n      add\n      sload\n      dup2\n      mstore\n      0x20\n      add\n      0x02\n      dup3\n      add\n      sload\n      dup2\n      mstore\n      0x20\n      add\n      0x03\n      dup3\n      add\n      dup1\n      sload\n      tag_74\n      swap1\n      tag_69\n      jump\t// in\n    tag_74:\n      dup1\n      0x1f\n      add\n      0x20\n      dup1\n      swap2\n      div\n      mul\n      0x20\n      add\n      mload(0x40)\n      swap1\n      dup2\n      add\n      0x40\n      mstore\n      dup1\n      swap3\n      swap2\n      swap1\n      dup2\n      dup2\n      mstore\n      0x20\n      add\n      dup3\n      dup1\n      sload\n      tag_75\n      swap1\n      tag_69\n      jump\t// in\n    tag_75:\n      dup1\n      iszero\n      tag_76\n      jumpi\n      dup1\n      0x1f\n      lt\n      tag_77\n      jumpi\n      0x0100\n      dup1\n      dup4\n      sload\n      div\n      mul\n      dup4\n      mstore\n      swap2\n      0x20\n      add\n      swap2\n      jump(tag_76)\n    tag_77:\n      dup3\n      add\n      swap2\n      swap1\n      0x00\n      mstore\n      keccak256(0x00, 0x20)\n      swap1\n    tag_78:\n      dup2\n      sload\n      dup2\n      mstore\n      swap1\n      0x01\n      add\n      swap1\n      0x20\n      add\n      dup1\n      dup4\n      gt\n      tag_78\n      jumpi\n      dup3\n      swap1\n      sub\n      0x1f\n      and\n      dup3\n      add\n      swap2\n    tag_76:\n      pop\n      pop\n      pop\n      pop\n      pop\n      dup2\n      mstore\n      0x20\n      add\n      0x04\n      dup3\n      add\n      sload\n      dup2\n      mstore\n      0x20\n      add\n      0x05\n      dup3\n      add\n      0x00\n      swap1\n      sload\n      swap1\n      0x0100\n      exp\n      swap1\n      div\n      0xffffffffffffffffffffffffffffffffffffffff\n      and\n      0xffffffffffffffffffffffffffffffffffffffff\n      and\n      0xffffffffffffffffffffffffffffffffffffffff\n      and\n      dup2\n      mstore\n      pop\n      pop\n        /* \"contracts/Voting.sol\":3413:3421  voterArr */\n      dup3\n        /* \"contracts/Voting.sol\":3424:3425  1 */\n      0x01\n        /* \"contracts/Voting.sol\":3422:3423  i */\n      dup4\n        /* \"contracts/Voting.sol\":3422:3425  i-1 */\n      tag_79\n      swap2\n      swap1\n      tag_57\n      jump\t// in\n    tag_79:\n        /* \"contracts/Voting.sol\":3413:3426  voterArr[i-1] */\n      dup2\n      mload\n      dup2\n      lt\n      tag_80\n      jumpi\n      tag_81\n      tag_82\n      jump\t// in\n    tag_81:\n    tag_80:\n      0x20\n      mul\n      0x20\n      add\n      add\n        /* \"contracts/Voting.sol\":3413:3442  voterArr[i-1]=voterDetails[i] */\n      dup2\n      swap1\n      mstore\n      pop\n        /* \"contracts/Voting.sol\":3394:3397  i++ */\n      dup1\n      dup1\n      0x01\n      add\n      swap2\n      pop\n      pop\n        /* \"contracts/Voting.sol\":3367:3454  for(uint i=1;i<nextVoterId;i++){... */\n      jump(tag_65)\n    tag_66:\n      pop\n        /* \"contracts/Voting.sol\":3471:3479  voterArr */\n      dup1\n        /* \"contracts/Voting.sol\":3464:3479  return voterArr */\n      swap2\n      pop\n      pop\n        /* \"contracts/Voting.sol\":3239:3487  function voterList() public view returns(Voter[] memory){... */\n      swap1\n      jump\t// out\n        /* \"contracts/Voting.sol\":2172:2501  function candidateList() public view returns(Candidate[] memory){... */\n    tag_23:\n        /* \"contracts/Voting.sol\":2217:2235  Candidate[] memory */\n      0x60\n        /* \"contracts/Voting.sol\":2247:2278  Candidate[] memory candidateArr */\n      0x00\n        /* \"contracts/Voting.sol\":2311:2312  1 */\n      0x01\n        /* \"contracts/Voting.sol\":2295:2310  nextCandidateId */\n      sload(0x03)\n        /* \"contracts/Voting.sol\":2295:2312  nextCandidateId-1 */\n      tag_84\n      swap2\n      swap1\n      tag_57\n      jump\t// in\n    tag_84:\n        /* \"contracts/Voting.sol\":2279:2313  new Candidate[](nextCandidateId-1) */\n      0xffffffffffffffff\n      dup2\n      gt\n      iszero\n      tag_85\n      jumpi\n      tag_86\n      tag_60\n      jump\t// in\n    tag_86:\n    tag_85:\n      mload(0x40)\n      swap1\n      dup1\n      dup3\n      mstore\n      dup1\n      0x20\n      mul\n      0x20\n      add\n      dup3\n      add\n      0x40\n      mstore\n      dup1\n      iszero\n      tag_87\n      jumpi\n      dup2\n      0x20\n      add\n    tag_88:\n      tag_89\n      tag_90\n      jump\t// in\n    tag_89:\n      dup2\n      mstore\n      0x20\n      add\n      swap1\n      0x01\n      swap1\n      sub\n      swap1\n      dup2\n      tag_88\n      jumpi\n      swap1\n      pop\n    tag_87:\n      pop\n        /* \"contracts/Voting.sol\":2247:2313  Candidate[] memory candidateArr=new Candidate[](nextCandidateId-1) */\n      swap1\n      pop\n        /* \"contracts/Voting.sol\":2328:2334  uint i */\n      0x00\n        /* \"contracts/Voting.sol\":2335:2336  1 */\n      0x01\n        /* \"contracts/Voting.sol\":2328:2336  uint i=1 */\n      swap1\n      pop\n        /* \"contracts/Voting.sol\":2324:2464  for(uint i=1;i<nextCandidateId;i++){... */\n    tag_91:\n        /* \"contracts/Voting.sol\":2339:2354  nextCandidateId */\n      sload(0x03)\n        /* \"contracts/Voting.sol\":2337:2338  i */\n      dup2\n        /* \"contracts/Voting.sol\":2337:2354  i<nextCandidateId */\n      lt\n        /* \"contracts/Voting.sol\":2324:2464  for(uint i=1;i<nextCandidateId;i++){... */\n      iszero\n      tag_92\n      jumpi\n        /* \"contracts/Voting.sol\":2392:2408  candidateDetails */\n      0x07\n        /* \"contracts/Voting.sol\":2392:2411  candidateDetails[i] */\n      0x00\n        /* \"contracts/Voting.sol\":2409:2410  i */\n      dup3\n        /* \"contracts/Voting.sol\":2392:2411  candidateDetails[i] */\n      dup2\n      mstore\n      0x20\n      add\n      swap1\n      dup2\n      mstore\n      0x20\n      add\n      0x00\n      keccak256\n        /* \"contracts/Voting.sol\":2374:2411  candidateArr[i-1]=candidateDetails[i] */\n      mload(0x40)\n      dup1\n      0xe0\n      add\n      0x40\n      mstore\n      swap1\n      dup2\n      0x00\n      dup3\n      add\n      dup1\n      sload\n      tag_94\n      swap1\n      tag_69\n      jump\t// in\n    tag_94:\n      dup1\n      0x1f\n      add\n      0x20\n      dup1\n      swap2\n      div\n      mul\n      0x20\n      add\n      mload(0x40)\n      swap1\n      dup2\n      add\n      0x40\n      mstore\n      dup1\n      swap3\n      swap2\n      swap1\n      dup2\n      dup2\n      mstore\n      0x20\n      add\n      dup3\n      dup1\n      sload\n      tag_95\n      swap1\n      tag_69\n      jump\t// in\n    tag_95:\n      dup1\n      iszero\n      tag_96\n      jumpi\n      dup1\n      0x1f\n      lt\n      tag_97\n      jumpi\n      0x0100\n      dup1\n      dup4\n      sload\n      div\n      mul\n      dup4\n      mstore\n      swap2\n      0x20\n      add\n      swap2\n      jump(tag_96)\n    tag_97:\n      dup3\n      add\n      swap2\n      swap1\n      0x00\n      mstore\n      keccak256(0x00, 0x20)\n      swap1\n    tag_98:\n      dup2\n      sload\n      dup2\n      mstore\n      swap1\n      0x01\n      add\n      swap1\n      0x20\n      add\n      dup1\n      dup4\n      gt\n      tag_98\n      jumpi\n      dup3\n      swap1\n      sub\n      0x1f\n      and\n      dup3\n      add\n      swap2\n    tag_96:\n      pop\n      pop\n      pop\n      pop\n      pop\n      dup2\n      mstore\n      0x20\n      add\n      0x01\n      dup3\n      add\n      dup1\n      sload\n      tag_99\n      swap1\n      tag_69\n      jump\t// in\n    tag_99:\n      dup1\n      0x1f\n      add\n      0x20\n      dup1\n      swap2\n      div\n      mul\n      0x20\n      add\n      mload(0x40)\n      swap1\n      dup2\n      add\n      0x40\n      mstore\n      dup1\n      swap3\n      swap2\n      swap1\n      dup2\n      dup2\n      mstore\n      0x20\n      add\n      dup3\n      dup1\n      sload\n      tag_100\n      swap1\n      tag_69\n      jump\t// in\n    tag_100:\n      dup1\n      iszero\n      tag_101\n      jumpi\n      dup1\n      0x1f\n      lt\n      tag_102\n      jumpi\n      0x0100\n      dup1\n      dup4\n      sload\n      div\n      mul\n      dup4\n      mstore\n      swap2\n      0x20\n      add\n      swap2\n      jump(tag_101)\n    tag_102:\n      dup3\n      add\n      swap2\n      swap1\n      0x00\n      mstore\n      keccak256(0x00, 0x20)\n      swap1\n    tag_103:\n      dup2\n      sload\n      dup2\n      mstore\n      swap1\n      0x01\n      add\n      swap1\n      0x20\n      add\n      dup1\n      dup4\n      gt\n      tag_103\n      jumpi\n      dup3\n      swap1\n      sub\n      0x1f\n      and\n      dup3\n      add\n      swap2\n    tag_101:\n      pop\n      pop\n      pop\n      pop\n      pop\n      dup2\n      mstore\n      0x20\n      add\n      0x02\n      dup3\n      add\n      sload\n      dup2\n      mstore\n      0x20\n      add\n      0x03\n      dup3\n      add\n      dup1\n      sload\n      tag_104\n      swap1\n      tag_69\n      jump\t// in\n    tag_104:\n      dup1\n      0x1f\n      add\n      0x20\n      dup1\n      swap2\n      div\n      mul\n      0x20\n      add\n      mload(0x40)\n      swap1\n      dup2\n      add\n      0x40\n      mstore\n      dup1\n      swap3\n      swap2\n      swap1\n      dup2\n      dup2\n      mstore\n      0x20\n      add\n      dup3\n      dup1\n      sload\n      tag_105\n      swap1\n      tag_69\n      jump\t// in\n    tag_105:\n      dup1\n      iszero\n      tag_106\n      jumpi\n      dup1\n      0x1f\n      lt\n      tag_107\n      jumpi\n      0x0100\n      dup1\n      dup4\n      sload\n      div\n      mul\n      dup4\n      mstore\n      swap2\n      0x20\n      add\n      swap2\n      jump(tag_106)\n    tag_107:\n      dup3\n      add\n      swap2\n      swap1\n      0x00\n      mstore\n      keccak256(0x00, 0x20)\n      swap1\n    tag_108:\n      dup2\n      sload\n      dup2\n      mstore\n      swap1\n      0x01\n      add\n      swap1\n      0x20\n      add\n      dup1\n      dup4\n      gt\n      tag_108\n      jumpi\n      dup3\n      swap1\n      sub\n      0x1f\n      and\n      dup3\n      add\n      swap2\n    tag_106:\n      pop\n      pop\n      pop\n      pop\n      pop\n      dup2\n      mstore\n      0x20\n      add\n      0x04\n      dup3\n      add\n      sload\n      dup2\n      mstore\n      0x20\n      add\n      0x05\n      dup3\n      add\n      0x00\n      swap1\n      sload\n      swap1\n      0x0100\n      exp\n      swap1\n      div\n      0xffffffffffffffffffffffffffffffffffffffff\n      and\n      0xffffffffffffffffffffffffffffffffffffffff\n      and\n      0xffffffffffffffffffffffffffffffffffffffff\n      and\n      dup2\n      mstore\n      0x20\n      add\n      0x06\n      dup3\n      add\n      sload\n      dup2\n      mstore\n      pop\n      pop\n        /* \"contracts/Voting.sol\":2374:2386  candidateArr */\n      dup3\n        /* \"contracts/Voting.sol\":2389:2390  1 */\n      0x01\n        /* \"contracts/Voting.sol\":2387:2388  i */\n      dup4\n        /* \"contracts/Voting.sol\":2387:2390  i-1 */\n      tag_109\n      swap2\n      swap1\n      tag_57\n      jump\t// in\n    tag_109:\n        /* \"contracts/Voting.sol\":2374:2391  candidateArr[i-1] */\n      dup2\n      mload\n      dup2\n      lt\n      tag_110\n      jumpi\n      tag_111\n      tag_82\n      jump\t// in\n    tag_111:\n    tag_110:\n      0x20\n      mul\n      0x20\n      add\n      add\n        /* \"contracts/Voting.sol\":2374:2411  candidateArr[i-1]=candidateDetails[i] */\n      dup2\n      swap1\n      mstore\n      pop\n        /* \"contracts/Voting.sol\":2355:2358  i++ */\n      dup1\n      dup1\n      0x01\n      add\n      swap2\n      pop\n      pop\n        /* \"contracts/Voting.sol\":2324:2464  for(uint i=1;i<nextCandidateId;i++){... */\n      jump(tag_91)\n    tag_92:\n      pop\n        /* \"contracts/Voting.sol\":2481:2493  candidateArr */\n      dup1\n        /* \"contracts/Voting.sol\":2474:2493  return candidateArr */\n      swap2\n      pop\n      pop\n        /* \"contracts/Voting.sol\":2172:2501  function candidateList() public view returns(Candidate[] memory){... */\n      swap1\n      jump\t// out\n        /* \"contracts/Voting.sol\":4836:5206  function result() external onlyCommissioner(){... */\n    tag_27:\n        /* \"contracts/Voting.sol\":1185:1202  electionCommision */\n      0x00\n      dup1\n      sload\n      swap1\n      0x0100\n      exp\n      swap1\n      div\n      0xffffffffffffffffffffffffffffffffffffffff\n      and\n        /* \"contracts/Voting.sol\":1173:1202  msg.sender==electionCommision */\n      0xffffffffffffffffffffffffffffffffffffffff\n      and\n        /* \"contracts/Voting.sol\":1173:1183  msg.sender */\n      caller\n        /* \"contracts/Voting.sol\":1173:1202  msg.sender==electionCommision */\n      0xffffffffffffffffffffffffffffffffffffffff\n      and\n      eq\n        /* \"contracts/Voting.sol\":1165:1241  require(msg.sender==electionCommision,\"You are not from Election Commision\") */\n      tag_113\n      jumpi\n      mload(0x40)\n      0x08c379a000000000000000000000000000000000000000000000000000000000\n      dup2\n      mstore\n      0x04\n      add\n      tag_114\n      swap1\n      tag_115\n      jump\t// in\n    tag_114:\n      mload(0x40)\n      dup1\n      swap2\n      sub\n      swap1\n      revert\n    tag_113:\n        /* \"contracts/Voting.sol\":4892:4905  uint maxVotes */\n      0x00\n        /* \"contracts/Voting.sol\":4916:4929  uint winnerId */\n      dup1\n        /* \"contracts/Voting.sol\":4945:4951  uint i */\n      0x00\n        /* \"contracts/Voting.sol\":4952:4953  1 */\n      0x01\n        /* \"contracts/Voting.sol\":4945:4953  uint i=1 */\n      swap1\n      pop\n        /* \"contracts/Voting.sol\":4941:5138  for(uint i=1;i<nextCandidateId;i++){... */\n    tag_117:\n        /* \"contracts/Voting.sol\":4956:4971  nextCandidateId */\n      sload(0x03)\n        /* \"contracts/Voting.sol\":4954:4955  i */\n      dup2\n        /* \"contracts/Voting.sol\":4954:4971  i<nextCandidateId */\n      lt\n        /* \"contracts/Voting.sol\":4941:5138  for(uint i=1;i<nextCandidateId;i++){... */\n      iszero\n      tag_118\n      jumpi\n        /* \"contracts/Voting.sol\":5020:5028  maxVotes */\n      dup3\n        /* \"contracts/Voting.sol\":4994:5010  candidateDetails */\n      0x07\n        /* \"contracts/Voting.sol\":4994:5013  candidateDetails[i] */\n      0x00\n        /* \"contracts/Voting.sol\":5011:5012  i */\n      dup4\n        /* \"contracts/Voting.sol\":4994:5013  candidateDetails[i] */\n      dup2\n      mstore\n      0x20\n      add\n      swap1\n      dup2\n      mstore\n      0x20\n      add\n      0x00\n      keccak256\n        /* \"contracts/Voting.sol\":4994:5019  candidateDetails[i].votes */\n      0x06\n      add\n      sload\n        /* \"contracts/Voting.sol\":4994:5028  candidateDetails[i].votes>maxVotes */\n      gt\n        /* \"contracts/Voting.sol\":4991:5127  if(candidateDetails[i].votes>maxVotes){... */\n      iszero\n      tag_120\n      jumpi\n        /* \"contracts/Voting.sol\":5057:5073  candidateDetails */\n      0x07\n        /* \"contracts/Voting.sol\":5057:5076  candidateDetails[i] */\n      0x00\n        /* \"contracts/Voting.sol\":5074:5075  i */\n      dup3\n        /* \"contracts/Voting.sol\":5057:5076  candidateDetails[i] */\n      dup2\n      mstore\n      0x20\n      add\n      swap1\n      dup2\n      mstore\n      0x20\n      add\n      0x00\n      keccak256\n        /* \"contracts/Voting.sol\":5057:5082  candidateDetails[i].votes */\n      0x06\n      add\n      sload\n        /* \"contracts/Voting.sol\":5048:5082  maxVotes=candidateDetails[i].votes */\n      swap3\n      pop\n        /* \"contracts/Voting.sol\":5110:5111  i */\n      dup1\n        /* \"contracts/Voting.sol\":5101:5111  winnerId=i */\n      swap2\n      pop\n        /* \"contracts/Voting.sol\":4991:5127  if(candidateDetails[i].votes>maxVotes){... */\n    tag_120:\n        /* \"contracts/Voting.sol\":4972:4975  i++ */\n      dup1\n      dup1\n      0x01\n      add\n      swap2\n      pop\n      pop\n        /* \"contracts/Voting.sol\":4941:5138  for(uint i=1;i<nextCandidateId;i++){... */\n      jump(tag_117)\n    tag_118:\n      pop\n        /* \"contracts/Voting.sol\":5155:5171  candidateDetails */\n      0x07\n        /* \"contracts/Voting.sol\":5155:5181  candidateDetails[winnerId] */\n      0x00\n        /* \"contracts/Voting.sol\":5172:5180  winnerId */\n      dup3\n        /* \"contracts/Voting.sol\":5155:5181  candidateDetails[winnerId] */\n      dup2\n      mstore\n      0x20\n      add\n      swap1\n      dup2\n      mstore\n      0x20\n      add\n      0x00\n      keccak256\n        /* \"contracts/Voting.sol\":5155:5198  candidateDetails[winnerId].candidateAddress */\n      0x05\n      add\n      0x00\n      swap1\n      sload\n      swap1\n      0x0100\n      exp\n      swap1\n      div\n      0xffffffffffffffffffffffffffffffffffffffff\n      and\n        /* \"contracts/Voting.sol\":5148:5154  winner */\n      0x01\n      0x00\n        /* \"contracts/Voting.sol\":5148:5198  winner=candidateDetails[winnerId].candidateAddress */\n      0x0100\n      exp\n      dup2\n      sload\n      dup2\n      0xffffffffffffffffffffffffffffffffffffffff\n      mul\n      not\n      and\n      swap1\n      dup4\n      0xffffffffffffffffffffffffffffffffffffffff\n      and\n      mul\n      or\n      swap1\n      sstore\n      pop\n        /* \"contracts/Voting.sol\":4881:5206  {... */\n      pop\n      pop\n        /* \"contracts/Voting.sol\":4836:5206  function result() external onlyCommissioner(){... */\n      jump\t// out\n        /* \"contracts/Voting.sol\":4361:4526  function voteTime(uint _startTime,uint duration) external onlyCommissioner(){... */\n    tag_31:\n        /* \"contracts/Voting.sol\":1185:1202  electionCommision */\n      0x00\n      dup1\n      sload\n      swap1\n      0x0100\n      exp\n      swap1\n      div\n      0xffffffffffffffffffffffffffffffffffffffff\n      and\n        /* \"contracts/Voting.sol\":1173:1202  msg.sender==electionCommision */\n      0xffffffffffffffffffffffffffffffffffffffff\n      and\n        /* \"contracts/Voting.sol\":1173:1183  msg.sender */\n      caller\n        /* \"contracts/Voting.sol\":1173:1202  msg.sender==electionCommision */\n      0xffffffffffffffffffffffffffffffffffffffff\n      and\n      eq\n        /* \"contracts/Voting.sol\":1165:1241  require(msg.sender==electionCommision,\"You are not from Election Commision\") */\n      tag_122\n      jumpi\n      mload(0x40)\n      0x08c379a000000000000000000000000000000000000000000000000000000000\n      dup2\n      mstore\n      0x04\n      add\n      tag_123\n      swap1\n      tag_115\n      jump\t// in\n    tag_123:\n      mload(0x40)\n      dup1\n      swap2\n      sub\n      swap1\n      revert\n    tag_122:\n        /* \"contracts/Voting.sol\":4458:4468  _startTime */\n      dup2\n        /* \"contracts/Voting.sol\":4448:4457  startTime */\n      0x04\n        /* \"contracts/Voting.sol\":4448:4468  startTime=_startTime */\n      dup2\n      swap1\n      sstore\n      pop\n        /* \"contracts/Voting.sol\":4504:4512  duration */\n      dup1\n        /* \"contracts/Voting.sol\":4493:4503  _startTime */\n      dup3\n        /* \"contracts/Voting.sol\":4493:4512  _startTime+duration */\n      tag_125\n      swap2\n      swap1\n      tag_126\n      jump\t// in\n    tag_125:\n        /* \"contracts/Voting.sol\":4485:4492  endTime */\n      0x05\n        /* \"contracts/Voting.sol\":4485:4512  endTime=_startTime+duration */\n      dup2\n      swap1\n      sstore\n      pop\n        /* \"contracts/Voting.sol\":4361:4526  function voteTime(uint _startTime,uint duration) external onlyCommissioner(){... */\n      pop\n      pop\n      jump\t// out\n        /* \"contracts/Voting.sol\":2509:2985  function voterRegister(string calldata _name,uint _age,string calldata _gender) public{... */\n    tag_35:\n        /* \"contracts/Voting.sol\":2620:2622  18 */\n      0x12\n        /* \"contracts/Voting.sol\":2614:2618  _age */\n      dup4\n        /* \"contracts/Voting.sol\":2614:2622  _age>=18 */\n      lt\n      iszero\n        /* \"contracts/Voting.sol\":2606:2641  require(_age>=18,\"Age is under 18\") */\n      tag_128\n      jumpi\n      mload(0x40)\n      0x08c379a000000000000000000000000000000000000000000000000000000000\n      dup2\n      mstore\n      0x04\n      add\n      tag_129\n      swap1\n      tag_130\n      jump\t// in\n    tag_129:\n      mload(0x40)\n      dup1\n      swap2\n      sub\n      swap1\n      revert\n    tag_128:\n        /* \"contracts/Voting.sol\":2660:2689  voterVerification(msg.sender) */\n      tag_131\n        /* \"contracts/Voting.sol\":2678:2688  msg.sender */\n      caller\n        /* \"contracts/Voting.sol\":2660:2677  voterVerification */\n      tag_132\n        /* \"contracts/Voting.sol\":2660:2689  voterVerification(msg.sender) */\n      jump\t// in\n    tag_131:\n        /* \"contracts/Voting.sol\":2652:2717  require(voterVerification(msg.sender),\"Voter already registered\") */\n      tag_133\n      jumpi\n      mload(0x40)\n      0x08c379a000000000000000000000000000000000000000000000000000000000\n      dup2\n      mstore\n      0x04\n      add\n      tag_134\n      swap1\n      tag_135\n      jump\t// in\n    tag_134:\n      mload(0x40)\n      dup1\n      swap2\n      sub\n      swap1\n      revert\n    tag_133:\n        /* \"contracts/Voting.sol\":2754:2953  Voter({... */\n      mload(0x40)\n      dup1\n      0xc0\n      add\n      0x40\n      mstore\n      dup1\n        /* \"contracts/Voting.sol\":2780:2785  _name */\n      dup7\n      dup7\n        /* \"contracts/Voting.sol\":2754:2953  Voter({... */\n      dup1\n      dup1\n      0x1f\n      add\n      0x20\n      dup1\n      swap2\n      div\n      mul\n      0x20\n      add\n      mload(0x40)\n      swap1\n      dup2\n      add\n      0x40\n      mstore\n      dup1\n      swap4\n      swap3\n      swap2\n      swap1\n      dup2\n      dup2\n      mstore\n      0x20\n      add\n      dup4\n      dup4\n      dup1\n      dup3\n      dup5\n      calldatacopy\n      0x00\n      dup2\n      dup5\n      add\n      mstore\n      not(0x1f)\n      0x1f\n      dup3\n      add\n      and\n      swap1\n      pop\n      dup1\n      dup4\n      add\n      swap3\n      pop\n      pop\n      pop\n      pop\n      pop\n      pop\n      pop\n      dup2\n      mstore\n      0x20\n      add\n        /* \"contracts/Voting.sol\":2804:2808  _age */\n      dup5\n        /* \"contracts/Voting.sol\":2754:2953  Voter({... */\n      dup2\n      mstore\n      0x20\n      add\n        /* \"contracts/Voting.sol\":2860:2871  nextVoterId */\n      sload(0x02)\n        /* \"contracts/Voting.sol\":2754:2953  Voter({... */\n      dup2\n      mstore\n      0x20\n      add\n        /* \"contracts/Voting.sol\":2830:2837  _gender */\n      dup4\n      dup4\n        /* \"contracts/Voting.sol\":2754:2953  Voter({... */\n      dup1\n      dup1\n      0x1f\n      add\n      0x20\n      dup1\n      swap2\n      div\n      mul\n      0x20\n      add\n      mload(0x40)\n      swap1\n      dup2\n      add\n      0x40\n      mstore\n      dup1\n      swap4\n      swap3\n      swap2\n      swap1\n      dup2\n      dup2\n      mstore\n      0x20\n      add\n      dup4\n      dup4\n      dup1\n      dup3\n      dup5\n      calldatacopy\n      0x00\n      dup2\n      dup5\n      add\n      mstore\n      not(0x1f)\n      0x1f\n      dup3\n      add\n      and\n      swap1\n      pop\n      dup1\n      dup4\n      add\n      swap3\n      pop\n      pop\n      pop\n      pop\n      pop\n      pop\n      pop\n      dup2\n      mstore\n      0x20\n      add\n        /* \"contracts/Voting.sol\":2940:2941  0 */\n      0x00\n        /* \"contracts/Voting.sol\":2754:2953  Voter({... */\n      dup2\n      mstore\n      0x20\n      add\n        /* \"contracts/Voting.sol\":2899:2909  msg.sender */\n      caller\n        /* \"contracts/Voting.sol\":2754:2953  Voter({... */\n      0xffffffffffffffffffffffffffffffffffffffff\n      and\n      dup2\n      mstore\n      pop\n        /* \"contracts/Voting.sol\":2728:2740  voterDetails */\n      0x06\n        /* \"contracts/Voting.sol\":2728:2753  voterDetails[nextVoterId] */\n      0x00\n        /* \"contracts/Voting.sol\":2741:2752  nextVoterId */\n      sload(0x02)\n        /* \"contracts/Voting.sol\":2728:2753  voterDetails[nextVoterId] */\n      dup2\n      mstore\n      0x20\n      add\n      swap1\n      dup2\n      mstore\n      0x20\n      add\n      0x00\n      keccak256\n        /* \"contracts/Voting.sol\":2728:2953  voterDetails[nextVoterId]=Voter({... */\n      0x00\n      dup3\n      add\n      mload\n      dup2\n      0x00\n      add\n      swap1\n      dup2\n      tag_136\n      swap2\n      swap1\n      tag_137\n      jump\t// in\n    tag_136:\n      pop\n      0x20\n      dup3\n      add\n      mload\n      dup2\n      0x01\n      add\n      sstore\n      0x40\n      dup3\n      add\n      mload\n      dup2\n      0x02\n      add\n      sstore\n      0x60\n      dup3\n      add\n      mload\n      dup2\n      0x03\n      add\n      swap1\n      dup2\n      tag_138\n      swap2\n      swap1\n      tag_137\n      jump\t// in\n    tag_138:\n      pop\n      0x80\n      dup3\n      add\n      mload\n      dup2\n      0x04\n      add\n      sstore\n      0xa0\n      dup3\n      add\n      mload\n      dup2\n      0x05\n      add\n      exp(0x0100, 0x00)\n      dup2\n      sload\n      dup2\n      0xffffffffffffffffffffffffffffffffffffffff\n      mul\n      not\n      and\n      swap1\n      dup4\n      0xffffffffffffffffffffffffffffffffffffffff\n      and\n      mul\n      or\n      swap1\n      sstore\n      pop\n      swap1\n      pop\n      pop\n        /* \"contracts/Voting.sol\":2964:2975  nextVoterId */\n      0x02\n      0x00\n        /* \"contracts/Voting.sol\":2964:2977  nextVoterId++ */\n      dup2\n      sload\n      dup1\n      swap3\n      swap2\n      swap1\n      tag_139\n      swap1\n      tag_140\n      jump\t// in\n    tag_139:\n      swap2\n      swap1\n      pop\n      sstore\n      pop\n        /* \"contracts/Voting.sol\":2509:2985  function voterRegister(string calldata _name,uint _age,string calldata _gender) public{... */\n      pop\n      pop\n      pop\n      pop\n      pop\n      jump\t// out\n        /* \"contracts/Voting.sol\":3495:4352  function vote(uint _voterId,uint _candidateId) external{... */\n    tag_38:\n        /* \"contracts/Voting.sol\":3755:3756  0 */\n      0x00\n        /* \"contracts/Voting.sol\":3744:3753  startTime */\n      sload(0x04)\n        /* \"contracts/Voting.sol\":3744:3756  startTime!=0 */\n      sub\n        /* \"contracts/Voting.sol\":3736:3782  require(startTime!=0,\"Voting has not started\") */\n      tag_142\n      jumpi\n      mload(0x40)\n      0x08c379a000000000000000000000000000000000000000000000000000000000\n      dup2\n      mstore\n      0x04\n      add\n      tag_143\n      swap1\n      tag_144\n      jump\t// in\n    tag_143:\n      mload(0x40)\n      dup1\n      swap2\n      sub\n      swap1\n      revert\n    tag_142:\n        /* \"contracts/Voting.sol\":3818:3819  3 */\n      0x03\n        /* \"contracts/Voting.sol\":3801:3816  nextCandidateId */\n      dup1\n      sload\n        /* \"contracts/Voting.sol\":3801:3819  nextCandidateId>=3 */\n      lt\n      iszero\n        /* \"contracts/Voting.sol\":3793:3859  require(nextCandidateId>=3,\"Not enough candiates have registered\") */\n      tag_145\n      jumpi\n      mload(0x40)\n      0x08c379a000000000000000000000000000000000000000000000000000000000\n      dup2\n      mstore\n      0x04\n      add\n      tag_146\n      swap1\n      tag_147\n      jump\t// in\n    tag_146:\n      mload(0x40)\n      dup1\n      swap2\n      sub\n      swap1\n      revert\n    tag_145:\n        /* \"contracts/Voting.sol\":3894:3901  endTime */\n      sload(0x05)\n        /* \"contracts/Voting.sol\":3878:3893  block.timestamp */\n      timestamp\n        /* \"contracts/Voting.sol\":3878:3901  block.timestamp<endTime */\n      lt\n        /* \"contracts/Voting.sol\":3870:3929  require(block.timestamp<endTime,\"Voting has already ended\") */\n      tag_148\n      jumpi\n      mload(0x40)\n      0x08c379a000000000000000000000000000000000000000000000000000000000\n      dup2\n      mstore\n      0x04\n      add\n      tag_149\n      swap1\n      tag_150\n      jump\t// in\n    tag_149:\n      mload(0x40)\n      dup1\n      swap2\n      sub\n      swap1\n      revert\n    tag_148:\n        /* \"contracts/Voting.sol\":3957:3958  0 */\n      0x00\n        /* \"contracts/Voting.sol\":3948:3956  _voterId */\n      dup3\n        /* \"contracts/Voting.sol\":3948:3958  _voterId>0 */\n      gt\n        /* \"contracts/Voting.sol\":3948:3982  _voterId>0 && _voterId<nextVoterId */\n      dup1\n      iszero\n      tag_151\n      jumpi\n      pop\n        /* \"contracts/Voting.sol\":3971:3982  nextVoterId */\n      sload(0x02)\n        /* \"contracts/Voting.sol\":3962:3970  _voterId */\n      dup3\n        /* \"contracts/Voting.sol\":3962:3982  _voterId<nextVoterId */\n      lt\n        /* \"contracts/Voting.sol\":3948:3982  _voterId>0 && _voterId<nextVoterId */\n    tag_151:\n        /* \"contracts/Voting.sol\":3940:4020  require(_voterId>0 && _voterId<nextVoterId, \"You are not registered as a voter\") */\n      tag_152\n      jumpi\n      mload(0x40)\n      0x08c379a000000000000000000000000000000000000000000000000000000000\n      dup2\n      mstore\n      0x04\n      add\n      tag_153\n      swap1\n      tag_154\n      jump\t// in\n    tag_153:\n      mload(0x40)\n      dup1\n      swap2\n      sub\n      swap1\n      revert\n    tag_152:\n        /* \"contracts/Voting.sol\":4079:4080  0 */\n      0x00\n        /* \"contracts/Voting.sol\":4039:4051  voterDetails */\n      0x06\n        /* \"contracts/Voting.sol\":4039:4061  voterDetails[_voterId] */\n      0x00\n        /* \"contracts/Voting.sol\":4052:4060  _voterId */\n      dup5\n        /* \"contracts/Voting.sol\":4039:4061  voterDetails[_voterId] */\n      dup2\n      mstore\n      0x20\n      add\n      swap1\n      dup2\n      mstore\n      0x20\n      add\n      0x00\n      keccak256\n        /* \"contracts/Voting.sol\":4039:4077  voterDetails[_voterId].voteCandidateId */\n      0x04\n      add\n      sload\n        /* \"contracts/Voting.sol\":4039:4080  voterDetails[_voterId].voteCandidateId==0 */\n      eq\n        /* \"contracts/Voting.sol\":4031:4106  require(voterDetails[_voterId].voteCandidateId==0,\"You have already voted\") */\n      tag_155\n      jumpi\n      mload(0x40)\n      0x08c379a000000000000000000000000000000000000000000000000000000000\n      dup2\n      mstore\n      0x04\n      add\n      tag_156\n      swap1\n      tag_157\n      jump\t// in\n    tag_156:\n      mload(0x40)\n      dup1\n      swap2\n      sub\n      swap1\n      revert\n    tag_155:\n        /* \"contracts/Voting.sol\":4138:4139  0 */\n      0x00\n        /* \"contracts/Voting.sol\":4125:4137  _candidateId */\n      dup2\n        /* \"contracts/Voting.sol\":4125:4139  _candidateId>0 */\n      gt\n        /* \"contracts/Voting.sol\":4125:4171  _candidateId>0 && _candidateId<nextCandidateId */\n      dup1\n      iszero\n      tag_158\n      jumpi\n      pop\n        /* \"contracts/Voting.sol\":4156:4171  nextCandidateId */\n      sload(0x03)\n        /* \"contracts/Voting.sol\":4143:4155  _candidateId */\n      dup2\n        /* \"contracts/Voting.sol\":4143:4171  _candidateId<nextCandidateId */\n      lt\n        /* \"contracts/Voting.sol\":4125:4171  _candidateId>0 && _candidateId<nextCandidateId */\n    tag_158:\n        /* \"contracts/Voting.sol\":4117:4232  require(_candidateId>0 && _candidateId<nextCandidateId,\"The person you want to vote is not a registered candidate\") */\n      tag_159\n      jumpi\n      mload(0x40)\n      0x08c379a000000000000000000000000000000000000000000000000000000000\n      dup2\n      mstore\n      0x04\n      add\n      tag_160\n      swap1\n      tag_161\n      jump\t// in\n    tag_160:\n      mload(0x40)\n      dup1\n      swap2\n      sub\n      swap1\n      revert\n    tag_159:\n        /* \"contracts/Voting.sol\":4282:4294  _candidateId */\n      dup1\n        /* \"contracts/Voting.sol\":4243:4255  voterDetails */\n      0x06\n        /* \"contracts/Voting.sol\":4243:4265  voterDetails[_voterId] */\n      0x00\n        /* \"contracts/Voting.sol\":4256:4264  _voterId */\n      dup5\n        /* \"contracts/Voting.sol\":4243:4265  voterDetails[_voterId] */\n      dup2\n      mstore\n      0x20\n      add\n      swap1\n      dup2\n      mstore\n      0x20\n      add\n      0x00\n      keccak256\n        /* \"contracts/Voting.sol\":4243:4281  voterDetails[_voterId].voteCandidateId */\n      0x04\n      add\n        /* \"contracts/Voting.sol\":4243:4294  voterDetails[_voterId].voteCandidateId=_candidateId */\n      dup2\n      swap1\n      sstore\n      pop\n        /* \"contracts/Voting.sol\":4305:4321  candidateDetails */\n      0x07\n        /* \"contracts/Voting.sol\":4305:4335  candidateDetails[_candidateId] */\n      0x00\n        /* \"contracts/Voting.sol\":4322:4334  _candidateId */\n      dup3\n        /* \"contracts/Voting.sol\":4305:4335  candidateDetails[_candidateId] */\n      dup2\n      mstore\n      0x20\n      add\n      swap1\n      dup2\n      mstore\n      0x20\n      add\n      0x00\n      keccak256\n        /* \"contracts/Voting.sol\":4305:4341  candidateDetails[_candidateId].votes */\n      0x06\n      add\n      0x00\n        /* \"contracts/Voting.sol\":4305:4343  candidateDetails[_candidateId].votes++ */\n      dup2\n      sload\n      dup1\n      swap3\n      swap2\n      swap1\n      tag_162\n      swap1\n      tag_140\n      jump\t// in\n    tag_162:\n      swap2\n      swap1\n      pop\n      sstore\n      pop\n        /* \"contracts/Voting.sol\":3495:4352  function vote(uint _voterId,uint _candidateId) external{... */\n      pop\n      pop\n      jump\t// out\n        /* \"contracts/Voting.sol\":5214:5294  function emergency() public onlyCommissioner(){... */\n    tag_40:\n        /* \"contracts/Voting.sol\":1185:1202  electionCommision */\n      0x00\n      dup1\n      sload\n      swap1\n      0x0100\n      exp\n      swap1\n      div\n      0xffffffffffffffffffffffffffffffffffffffff\n      and\n        /* \"contracts/Voting.sol\":1173:1202  msg.sender==electionCommision */\n      0xffffffffffffffffffffffffffffffffffffffff\n      and\n        /* \"contracts/Voting.sol\":1173:1183  msg.sender */\n      caller\n        /* \"contracts/Voting.sol\":1173:1202  msg.sender==electionCommision */\n      0xffffffffffffffffffffffffffffffffffffffff\n      and\n      eq\n        /* \"contracts/Voting.sol\":1165:1241  require(msg.sender==electionCommision,\"You are not from Election Commision\") */\n      tag_164\n      jumpi\n      mload(0x40)\n      0x08c379a000000000000000000000000000000000000000000000000000000000\n      dup2\n      mstore\n      0x04\n      add\n      tag_165\n      swap1\n      tag_115\n      jump\t// in\n    tag_165:\n      mload(0x40)\n      dup1\n      swap2\n      sub\n      swap1\n      revert\n    tag_164:\n        /* \"contracts/Voting.sol\":5282:5286  true */\n      0x01\n        /* \"contracts/Voting.sol\":5271:5281  stopVoting */\n      0x08\n      0x00\n        /* \"contracts/Voting.sol\":5271:5286  stopVoting=true */\n      0x0100\n      exp\n      dup2\n      sload\n      dup2\n      0xff\n      mul\n      not\n      and\n      swap1\n      dup4\n      iszero\n      iszero\n      mul\n      or\n      swap1\n      sstore\n      pop\n        /* \"contracts/Voting.sol\":5214:5294  function emergency() public onlyCommissioner(){... */\n      jump\t// out\n        /* \"contracts/Voting.sol\":1269:1900  function candidateRegister(string calldata _name,string calldata _party,uint _age,... */\n    tag_44:\n        /* \"contracts/Voting.sol\":1416:1418  18 */\n      0x12\n        /* \"contracts/Voting.sol\":1410:1414  _age */\n      dup4\n        /* \"contracts/Voting.sol\":1410:1418  _age>=18 */\n      lt\n      iszero\n        /* \"contracts/Voting.sol\":1402:1437  require(_age>=18,\"Age is under 18\") */\n      tag_168\n      jumpi\n      mload(0x40)\n      0x08c379a000000000000000000000000000000000000000000000000000000000\n      dup2\n      mstore\n      0x04\n      add\n      tag_169\n      swap1\n      tag_130\n      jump\t// in\n    tag_169:\n      mload(0x40)\n      dup1\n      swap2\n      sub\n      swap1\n      revert\n    tag_168:\n        /* \"contracts/Voting.sol\":1456:1489  candidateVerification(msg.sender) */\n      tag_170\n        /* \"contracts/Voting.sol\":1478:1488  msg.sender */\n      caller\n        /* \"contracts/Voting.sol\":1456:1477  candidateVerification */\n      tag_171\n        /* \"contracts/Voting.sol\":1456:1489  candidateVerification(msg.sender) */\n      jump\t// in\n    tag_170:\n        /* \"contracts/Voting.sol\":1448:1520  require(candidateVerification(msg.sender),\"You have already registered\") */\n      tag_172\n      jumpi\n      mload(0x40)\n      0x08c379a000000000000000000000000000000000000000000000000000000000\n      dup2\n      mstore\n      0x04\n      add\n      tag_173\n      swap1\n      tag_174\n      jump\t// in\n    tag_173:\n      mload(0x40)\n      dup1\n      swap2\n      sub\n      swap1\n      revert\n    tag_172:\n        /* \"contracts/Voting.sol\":1555:1556  5 */\n      0x05\n        /* \"contracts/Voting.sol\":1539:1554  nextCandidateId */\n      sload(0x03)\n        /* \"contracts/Voting.sol\":1539:1556  nextCandidateId<5 */\n      lt\n        /* \"contracts/Voting.sol\":1531:1587  require(nextCandidateId<5,\"Candidate registration full\") */\n      tag_175\n      jumpi\n      mload(0x40)\n      0x08c379a000000000000000000000000000000000000000000000000000000000\n      dup2\n      mstore\n      0x04\n      add\n      tag_176\n      swap1\n      tag_177\n      jump\t// in\n    tag_176:\n      mload(0x40)\n      dup1\n      swap2\n      sub\n      swap1\n      revert\n    tag_175:\n        /* \"contracts/Voting.sol\":1632:1864  Candidate({... */\n      mload(0x40)\n      dup1\n      0xe0\n      add\n      0x40\n      mstore\n      dup1\n        /* \"contracts/Voting.sol\":1662:1667  _name */\n      dup9\n      dup9\n        /* \"contracts/Voting.sol\":1632:1864  Candidate({... */\n      dup1\n      dup1\n      0x1f\n      add\n      0x20\n      dup1\n      swap2\n      div\n      mul\n      0x20\n      add\n      mload(0x40)\n      swap1\n      dup2\n      add\n      0x40\n      mstore\n      dup1\n      swap4\n      swap3\n      swap2\n      swap1\n      dup2\n      dup2\n      mstore\n      0x20\n      add\n      dup4\n      dup4\n      dup1\n      dup3\n      dup5\n      calldatacopy\n      0x00\n      dup2\n      dup5\n      add\n      mstore\n      not(0x1f)\n      0x1f\n      dup3\n      add\n      and\n      swap1\n      pop\n      dup1\n      dup4\n      add\n      swap3\n      pop\n      pop\n      pop\n      pop\n      pop\n      pop\n      pop\n      dup2\n      mstore\n      0x20\n      add\n        /* \"contracts/Voting.sol\":1688:1694  _party */\n      dup7\n      dup7\n        /* \"contracts/Voting.sol\":1632:1864  Candidate({... */\n      dup1\n      dup1\n      0x1f\n      add\n      0x20\n      dup1\n      swap2\n      div\n      mul\n      0x20\n      add\n      mload(0x40)\n      swap1\n      dup2\n      add\n      0x40\n      mstore\n      dup1\n      swap4\n      swap3\n      swap2\n      swap1\n      dup2\n      dup2\n      mstore\n      0x20\n      add\n      dup4\n      dup4\n      dup1\n      dup3\n      dup5\n      calldatacopy\n      0x00\n      dup2\n      dup5\n      add\n      mstore\n      not(0x1f)\n      0x1f\n      dup3\n      add\n      and\n      swap1\n      pop\n      dup1\n      dup4\n      add\n      swap3\n      pop\n      pop\n      pop\n      pop\n      pop\n      pop\n      pop\n      dup2\n      mstore\n      0x20\n      add\n        /* \"contracts/Voting.sol\":1713:1717  _age */\n      dup5\n        /* \"contracts/Voting.sol\":1632:1864  Candidate({... */\n      dup2\n      mstore\n      0x20\n      add\n        /* \"contracts/Voting.sol\":1739:1746  _gender */\n      dup4\n      dup4\n        /* \"contracts/Voting.sol\":1632:1864  Candidate({... */\n      dup1\n      dup1\n      0x1f\n      add\n      0x20\n      dup1\n      swap2\n      div\n      mul\n      0x20\n      add\n      mload(0x40)\n      swap1\n      dup2\n      add\n      0x40\n      mstore\n      dup1\n      swap4\n      swap3\n      swap2\n      swap1\n      dup2\n      dup2\n      mstore\n      0x20\n      add\n      dup4\n      dup4\n      dup1\n      dup3\n      dup5\n      calldatacopy\n      0x00\n      dup2\n      dup5\n      add\n      mstore\n      not(0x1f)\n      0x1f\n      dup3\n      add\n      and\n      swap1\n      pop\n      dup1\n      dup4\n      add\n      swap3\n      pop\n      pop\n      pop\n      pop\n      pop\n      pop\n      pop\n      dup2\n      mstore\n      0x20\n      add\n        /* \"contracts/Voting.sol\":1773:1788  nextCandidateId */\n      sload(0x03)\n        /* \"contracts/Voting.sol\":1632:1864  Candidate({... */\n      dup2\n      mstore\n      0x20\n      add\n        /* \"contracts/Voting.sol\":1820:1830  msg.sender */\n      caller\n        /* \"contracts/Voting.sol\":1632:1864  Candidate({... */\n      0xffffffffffffffffffffffffffffffffffffffff\n      and\n      dup2\n      mstore\n      0x20\n      add\n        /* \"contracts/Voting.sol\":1851:1852  0 */\n      0x00\n        /* \"contracts/Voting.sol\":1632:1864  Candidate({... */\n      dup2\n      mstore\n      pop\n        /* \"contracts/Voting.sol\":1598:1614  candidateDetails */\n      0x07\n        /* \"contracts/Voting.sol\":1598:1631  candidateDetails[nextCandidateId] */\n      0x00\n        /* \"contracts/Voting.sol\":1615:1630  nextCandidateId */\n      sload(0x03)\n        /* \"contracts/Voting.sol\":1598:1631  candidateDetails[nextCandidateId] */\n      dup2\n      mstore\n      0x20\n      add\n      swap1\n      dup2\n      mstore\n      0x20\n      add\n      0x00\n      keccak256\n        /* \"contracts/Voting.sol\":1598:1864  candidateDetails[nextCandidateId]=Candidate({... */\n      0x00\n      dup3\n      add\n      mload\n      dup2\n      0x00\n      add\n      swap1\n      dup2\n      tag_178\n      swap2\n      swap1\n      tag_137\n      jump\t// in\n    tag_178:\n      pop\n      0x20\n      dup3\n      add\n      mload\n      dup2\n      0x01\n      add\n      swap1\n      dup2\n      tag_179\n      swap2\n      swap1\n      tag_137\n      jump\t// in\n    tag_179:\n      pop\n      0x40\n      dup3\n      add\n      mload\n      dup2\n      0x02\n      add\n      sstore\n      0x60\n      dup3\n      add\n      mload\n      dup2\n      0x03\n      add\n      swap1\n      dup2\n      tag_180\n      swap2\n      swap1\n      tag_137\n      jump\t// in\n    tag_180:\n      pop\n      0x80\n      dup3\n      add\n      mload\n      dup2\n      0x04\n      add\n      sstore\n      0xa0\n      dup3\n      add\n      mload\n      dup2\n      0x05\n      add\n      exp(0x0100, 0x00)\n      dup2\n      sload\n      dup2\n      0xffffffffffffffffffffffffffffffffffffffff\n      mul\n      not\n      and\n      swap1\n      dup4\n      0xffffffffffffffffffffffffffffffffffffffff\n      and\n      mul\n      or\n      swap1\n      sstore\n      pop\n      0xc0\n      dup3\n      add\n      mload\n      dup2\n      0x06\n      add\n      sstore\n      swap1\n      pop\n      pop\n        /* \"contracts/Voting.sol\":1875:1890  nextCandidateId */\n      0x03\n      0x00\n        /* \"contracts/Voting.sol\":1875:1892  nextCandidateId++ */\n      dup2\n      sload\n      dup1\n      swap3\n      swap2\n      swap1\n      tag_181\n      swap1\n      tag_140\n      jump\t// in\n    tag_181:\n      swap2\n      swap1\n      pop\n      sstore\n      pop\n        /* \"contracts/Voting.sol\":1269:1900  function candidateRegister(string calldata _name,string calldata _party,uint _age,... */\n      pop\n      pop\n      pop\n      pop\n      pop\n      pop\n      pop\n      jump\t// out\n        /* \"contracts/Voting.sol\":574:595  address public winner */\n    tag_46:\n      0x01\n      0x00\n      swap1\n      sload\n      swap1\n      0x0100\n      exp\n      swap1\n      div\n      0xffffffffffffffffffffffffffffffffffffffff\n      and\n      dup2\n      jump\t// out\n        /* \"contracts/Voting.sol\":2993:3231  function voterVerification(address _person) internal view returns(bool){... */\n    tag_132:\n        /* \"contracts/Voting.sol\":3059:3063  bool */\n      0x00\n        /* \"contracts/Voting.sol\":3079:3085  uint i */\n      dup1\n        /* \"contracts/Voting.sol\":3086:3087  1 */\n      0x01\n        /* \"contracts/Voting.sol\":3079:3087  uint i=1 */\n      swap1\n      pop\n        /* \"contracts/Voting.sol\":3075:3201  for(uint i=1;i<nextVoterId;i++){... */\n    tag_183:\n        /* \"contracts/Voting.sol\":3090:3101  nextVoterId */\n      sload(0x02)\n        /* \"contracts/Voting.sol\":3088:3089  i */\n      dup2\n        /* \"contracts/Voting.sol\":3088:3101  i<nextVoterId */\n      lt\n        /* \"contracts/Voting.sol\":3075:3201  for(uint i=1;i<nextVoterId;i++){... */\n      iszero\n      tag_184\n      jumpi\n        /* \"contracts/Voting.sol\":3154:3161  _person */\n      dup3\n        /* \"contracts/Voting.sol\":3124:3161  voterDetails[i].voterAddress==_person */\n      0xffffffffffffffffffffffffffffffffffffffff\n      and\n        /* \"contracts/Voting.sol\":3124:3136  voterDetails */\n      0x06\n        /* \"contracts/Voting.sol\":3124:3139  voterDetails[i] */\n      0x00\n        /* \"contracts/Voting.sol\":3137:3138  i */\n      dup4\n        /* \"contracts/Voting.sol\":3124:3139  voterDetails[i] */\n      dup2\n      mstore\n      0x20\n      add\n      swap1\n      dup2\n      mstore\n      0x20\n      add\n      0x00\n      keccak256\n        /* \"contracts/Voting.sol\":3124:3152  voterDetails[i].voterAddress */\n      0x05\n      add\n      0x00\n      swap1\n      sload\n      swap1\n      0x0100\n      exp\n      swap1\n      div\n      0xffffffffffffffffffffffffffffffffffffffff\n      and\n        /* \"contracts/Voting.sol\":3124:3161  voterDetails[i].voterAddress==_person */\n      0xffffffffffffffffffffffffffffffffffffffff\n      and\n      sub\n        /* \"contracts/Voting.sol\":3121:3189  if(voterDetails[i].voterAddress==_person)... */\n      tag_186\n      jumpi\n        /* \"contracts/Voting.sol\":3185:3189  true */\n      0x01\n        /* \"contracts/Voting.sol\":3178:3189  return true */\n      swap2\n      pop\n      pop\n      jump(tag_182)\n        /* \"contracts/Voting.sol\":3121:3189  if(voterDetails[i].voterAddress==_person)... */\n    tag_186:\n        /* \"contracts/Voting.sol\":3102:3105  i++ */\n      dup1\n      dup1\n      0x01\n      add\n      swap2\n      pop\n      pop\n        /* \"contracts/Voting.sol\":3075:3201  for(uint i=1;i<nextVoterId;i++){... */\n      jump(tag_183)\n    tag_184:\n      pop\n        /* \"contracts/Voting.sol\":3218:3223  false */\n      0x00\n        /* \"contracts/Voting.sol\":3211:3223  return false */\n      swap1\n      pop\n        /* \"contracts/Voting.sol\":2993:3231  function voterVerification(address _person) internal view returns(bool){... */\n    tag_182:\n      swap2\n      swap1\n      pop\n      jump\t// out\n        /* \"contracts/Voting.sol\":1908:2164  function candidateVerification(address _person) internal view returns (bool){... */\n    tag_171:\n        /* \"contracts/Voting.sol\":1979:1983  bool */\n      0x00\n        /* \"contracts/Voting.sol\":1999:2005  uint i */\n      dup1\n        /* \"contracts/Voting.sol\":2006:2007  1 */\n      0x01\n        /* \"contracts/Voting.sol\":1999:2007  uint i=1 */\n      swap1\n      pop\n        /* \"contracts/Voting.sol\":1995:2135  for(uint i=1;i<nextCandidateId;i++){... */\n    tag_188:\n        /* \"contracts/Voting.sol\":2010:2025  nextCandidateId */\n      sload(0x03)\n        /* \"contracts/Voting.sol\":2008:2009  i */\n      dup2\n        /* \"contracts/Voting.sol\":2008:2025  i<nextCandidateId */\n      lt\n        /* \"contracts/Voting.sol\":1995:2135  for(uint i=1;i<nextCandidateId;i++){... */\n      iszero\n      tag_189\n      jumpi\n        /* \"contracts/Voting.sol\":2086:2093  _person */\n      dup3\n        /* \"contracts/Voting.sol\":2048:2093  candidateDetails[i].candidateAddress==_person */\n      0xffffffffffffffffffffffffffffffffffffffff\n      and\n        /* \"contracts/Voting.sol\":2048:2064  candidateDetails */\n      0x07\n        /* \"contracts/Voting.sol\":2048:2067  candidateDetails[i] */\n      0x00\n        /* \"contracts/Voting.sol\":2065:2066  i */\n      dup4\n        /* \"contracts/Voting.sol\":2048:2067  candidateDetails[i] */\n      dup2\n      mstore\n      0x20\n      add\n      swap1\n      dup2\n      mstore\n      0x20\n      add\n      0x00\n      keccak256\n        /* \"contracts/Voting.sol\":2048:2084  candidateDetails[i].candidateAddress */\n      0x05\n      add\n      0x00\n      swap1\n      sload\n      swap1\n      0x0100\n      exp\n      swap1\n      div\n      0xffffffffffffffffffffffffffffffffffffffff\n      and\n        /* \"contracts/Voting.sol\":2048:2093  candidateDetails[i].candidateAddress==_person */\n      0xffffffffffffffffffffffffffffffffffffffff\n      and\n      sub\n        /* \"contracts/Voting.sol\":2045:2123  if(candidateDetails[i].candidateAddress==_person)... */\n      tag_191\n      jumpi\n        /* \"contracts/Voting.sol\":2118:2123  false */\n      0x00\n        /* \"contracts/Voting.sol\":2111:2123  return false */\n      swap2\n      pop\n      pop\n      jump(tag_187)\n        /* \"contracts/Voting.sol\":2045:2123  if(candidateDetails[i].candidateAddress==_person)... */\n    tag_191:\n        /* \"contracts/Voting.sol\":2026:2029  i++ */\n      dup1\n      dup1\n      0x01\n      add\n      swap2\n      pop\n      pop\n        /* \"contracts/Voting.sol\":1995:2135  for(uint i=1;i<nextCandidateId;i++){... */\n      jump(tag_188)\n    tag_189:\n      pop\n        /* \"contracts/Voting.sol\":2152:2156  true */\n      0x01\n        /* \"contracts/Voting.sol\":2145:2156  return true */\n      swap1\n      pop\n        /* \"contracts/Voting.sol\":1908:2164  function candidateVerification(address _person) internal view returns (bool){... */\n    tag_187:\n      swap2\n      swap1\n      pop\n      jump\t// out\n    tag_64:\n      mload(0x40)\n      dup1\n      0xc0\n      add\n      0x40\n      mstore\n      dup1\n      0x60\n      dup2\n      mstore\n      0x20\n      add\n      0x00\n      dup2\n      mstore\n      0x20\n      add\n      0x00\n      dup2\n      mstore\n      0x20\n      add\n      0x60\n      dup2\n      mstore\n      0x20\n      add\n      0x00\n      dup2\n      mstore\n      0x20\n      add\n      and(0xffffffffffffffffffffffffffffffffffffffff, 0x00)\n      dup2\n      mstore\n      pop\n      swap1\n      jump\t// out\n    tag_90:\n      mload(0x40)\n      dup1\n      0xe0\n      add\n      0x40\n      mstore\n      dup1\n      0x60\n      dup2\n      mstore\n      0x20\n      add\n      0x60\n      dup2\n      mstore\n      0x20\n      add\n      0x00\n      dup2\n      mstore\n      0x20\n      add\n      0x60\n      dup2\n      mstore\n      0x20\n      add\n      0x00\n      dup2\n      mstore\n      0x20\n      add\n      and(0xffffffffffffffffffffffffffffffffffffffff, 0x00)\n      dup2\n      mstore\n      0x20\n      add\n      0x00\n      dup2\n      mstore\n      pop\n      swap1\n      jump\t// out\n        /* \"#utility.yul\":7:106   */\n    tag_192:\n        /* \"#utility.yul\":59:65   */\n      0x00\n        /* \"#utility.yul\":93:98   */\n      dup2\n        /* \"#utility.yul\":87:99   */\n      mload\n        /* \"#utility.yul\":77:99   */\n      swap1\n      pop\n        /* \"#utility.yul\":7:106   */\n      swap2\n      swap1\n      pop\n      jump\t// out\n        /* \"#utility.yul\":112:281   */\n    tag_193:\n        /* \"#utility.yul\":196:207   */\n      0x00\n        /* \"#utility.yul\":230:236   */\n      dup3\n        /* \"#utility.yul\":225:228   */\n      dup3\n        /* \"#utility.yul\":218:237   */\n      mstore\n        /* \"#utility.yul\":270:274   */\n      0x20\n        /* \"#utility.yul\":265:268   */\n      dup3\n        /* \"#utility.yul\":261:275   */\n      add\n        /* \"#utility.yul\":246:275   */\n      swap1\n      pop\n        /* \"#utility.yul\":112:281   */\n      swap3\n      swap2\n      pop\n      pop\n      jump\t// out\n        /* \"#utility.yul\":287:426   */\n    tag_194:\n        /* \"#utility.yul\":376:382   */\n      dup3\n        /* \"#utility.yul\":371:374   */\n      dup2\n        /* \"#utility.yul\":366:369   */\n      dup4\n        /* \"#utility.yul\":360:383   */\n      mcopy\n        /* \"#utility.yul\":417:418   */\n      0x00\n        /* \"#utility.yul\":408:414   */\n      dup4\n        /* \"#utility.yul\":403:406   */\n      dup4\n        /* \"#utility.yul\":399:415   */\n      add\n        /* \"#utility.yul\":392:419   */\n      mstore\n        /* \"#utility.yul\":287:426   */\n      pop\n      pop\n      pop\n      jump\t// out\n        /* \"#utility.yul\":432:534   */\n    tag_195:\n        /* \"#utility.yul\":473:479   */\n      0x00\n        /* \"#utility.yul\":524:526   */\n      0x1f\n        /* \"#utility.yul\":520:527   */\n      not\n        /* \"#utility.yul\":515:517   */\n      0x1f\n        /* \"#utility.yul\":508:513   */\n      dup4\n        /* \"#utility.yul\":504:518   */\n      add\n        /* \"#utility.yul\":500:528   */\n      and\n        /* \"#utility.yul\":490:528   */\n      swap1\n      pop\n        /* \"#utility.yul\":432:534   */\n      swap2\n      swap1\n      pop\n      jump\t// out\n        /* \"#utility.yul\":540:917   */\n    tag_196:\n        /* \"#utility.yul\":628:631   */\n      0x00\n        /* \"#utility.yul\":656:695   */\n      tag_273\n        /* \"#utility.yul\":689:694   */\n      dup3\n        /* \"#utility.yul\":656:695   */\n      tag_192\n      jump\t// in\n    tag_273:\n        /* \"#utility.yul\":711:782   */\n      tag_274\n        /* \"#utility.yul\":775:781   */\n      dup2\n        /* \"#utility.yul\":770:773   */\n      dup6\n        /* \"#utility.yul\":711:782   */\n      tag_193\n      jump\t// in\n    tag_274:\n        /* \"#utility.yul\":704:782   */\n      swap4\n      pop\n        /* \"#utility.yul\":791:856   */\n      tag_275\n        /* \"#utility.yul\":849:855   */\n      dup2\n        /* \"#utility.yul\":844:847   */\n      dup6\n        /* \"#utility.yul\":837:841   */\n      0x20\n        /* \"#utility.yul\":830:835   */\n      dup7\n        /* \"#utility.yul\":826:842   */\n      add\n        /* \"#utility.yul\":791:856   */\n      tag_194\n      jump\t// in\n    tag_275:\n        /* \"#utility.yul\":881:910   */\n      tag_276\n        /* \"#utility.yul\":903:909   */\n      dup2\n        /* \"#utility.yul\":881:910   */\n      tag_195\n      jump\t// in\n    tag_276:\n        /* \"#utility.yul\":876:879   */\n      dup5\n        /* \"#utility.yul\":872:911   */\n      add\n        /* \"#utility.yul\":865:911   */\n      swap2\n      pop\n        /* \"#utility.yul\":632:917   */\n      pop\n        /* \"#utility.yul\":540:917   */\n      swap3\n      swap2\n      pop\n      pop\n      jump\t// out\n        /* \"#utility.yul\":923:1236   */\n    tag_17:\n        /* \"#utility.yul\":1036:1040   */\n      0x00\n        /* \"#utility.yul\":1074:1076   */\n      0x20\n        /* \"#utility.yul\":1063:1072   */\n      dup3\n        /* \"#utility.yul\":1059:1077   */\n      add\n        /* \"#utility.yul\":1051:1077   */\n      swap1\n      pop\n        /* \"#utility.yul\":1123:1132   */\n      dup2\n        /* \"#utility.yul\":1117:1121   */\n      dup2\n        /* \"#utility.yul\":1113:1133   */\n      sub\n        /* \"#utility.yul\":1109:1110   */\n      0x00\n        /* \"#utility.yul\":1098:1107   */\n      dup4\n        /* \"#utility.yul\":1094:1111   */\n      add\n        /* \"#utility.yul\":1087:1134   */\n      mstore\n        /* \"#utility.yul\":1151:1229   */\n      tag_278\n        /* \"#utility.yul\":1224:1228   */\n      dup2\n        /* \"#utility.yul\":1215:1221   */\n      dup5\n        /* \"#utility.yul\":1151:1229   */\n      tag_196\n      jump\t// in\n    tag_278:\n        /* \"#utility.yul\":1143:1229   */\n      swap1\n      pop\n        /* \"#utility.yul\":923:1236   */\n      swap3\n      swap2\n      pop\n      pop\n      jump\t// out\n        /* \"#utility.yul\":1242:1377   */\n    tag_197:\n        /* \"#utility.yul\":1330:1336   */\n      0x00\n        /* \"#utility.yul\":1364:1369   */\n      dup2\n        /* \"#utility.yul\":1358:1370   */\n      mload\n        /* \"#utility.yul\":1348:1370   */\n      swap1\n      pop\n        /* \"#utility.yul\":1242:1377   */\n      swap2\n      swap1\n      pop\n      jump\t// out\n        /* \"#utility.yul\":1383:1588   */\n    tag_198:\n        /* \"#utility.yul\":1503:1514   */\n      0x00\n        /* \"#utility.yul\":1537:1543   */\n      dup3\n        /* \"#utility.yul\":1532:1535   */\n      dup3\n        /* \"#utility.yul\":1525:1544   */\n      mstore\n        /* \"#utility.yul\":1577:1581   */\n      0x20\n        /* \"#utility.yul\":1572:1575   */\n      dup3\n        /* \"#utility.yul\":1568:1582   */\n      add\n        /* \"#utility.yul\":1553:1582   */\n      swap1\n      pop\n        /* \"#utility.yul\":1383:1588   */\n      swap3\n      swap2\n      pop\n      pop\n      jump\t// out\n        /* \"#utility.yul\":1594:1747   */\n    tag_199:\n        /* \"#utility.yul\":1682:1686   */\n      0x00\n        /* \"#utility.yul\":1705:1708   */\n      dup2\n        /* \"#utility.yul\":1697:1708   */\n      swap1\n      pop\n        /* \"#utility.yul\":1735:1739   */\n      0x20\n        /* \"#utility.yul\":1730:1733   */\n      dup3\n        /* \"#utility.yul\":1726:1740   */\n      add\n        /* \"#utility.yul\":1718:1740   */\n      swap1\n      pop\n        /* \"#utility.yul\":1594:1747   */\n      swap2\n      swap1\n      pop\n      jump\t// out\n        /* \"#utility.yul\":1753:1912   */\n    tag_200:\n        /* \"#utility.yul\":1827:1838   */\n      0x00\n        /* \"#utility.yul\":1861:1867   */\n      dup3\n        /* \"#utility.yul\":1856:1859   */\n      dup3\n        /* \"#utility.yul\":1849:1868   */\n      mstore\n        /* \"#utility.yul\":1901:1905   */\n      0x20\n        /* \"#utility.yul\":1896:1899   */\n      dup3\n        /* \"#utility.yul\":1892:1906   */\n      add\n        /* \"#utility.yul\":1877:1906   */\n      swap1\n      pop\n        /* \"#utility.yul\":1753:1912   */\n      swap3\n      swap2\n      pop\n      pop\n      jump\t// out\n        /* \"#utility.yul\":1918:2275   */\n    tag_201:\n        /* \"#utility.yul\":1996:1999   */\n      0x00\n        /* \"#utility.yul\":2024:2063   */\n      tag_284\n        /* \"#utility.yul\":2057:2062   */\n      dup3\n        /* \"#utility.yul\":2024:2063   */\n      tag_192\n      jump\t// in\n    tag_284:\n        /* \"#utility.yul\":2079:2140   */\n      tag_285\n        /* \"#utility.yul\":2133:2139   */\n      dup2\n        /* \"#utility.yul\":2128:2131   */\n      dup6\n        /* \"#utility.yul\":2079:2140   */\n      tag_200\n      jump\t// in\n    tag_285:\n        /* \"#utility.yul\":2072:2140   */\n      swap4\n      pop\n        /* \"#utility.yul\":2149:2214   */\n      tag_286\n        /* \"#utility.yul\":2207:2213   */\n      dup2\n        /* \"#utility.yul\":2202:2205   */\n      dup6\n        /* \"#utility.yul\":2195:2199   */\n      0x20\n        /* \"#utility.yul\":2188:2193   */\n      dup7\n        /* \"#utility.yul\":2184:2200   */\n      add\n        /* \"#utility.yul\":2149:2214   */\n      tag_194\n      jump\t// in\n    tag_286:\n        /* \"#utility.yul\":2239:2268   */\n      tag_287\n        /* \"#utility.yul\":2261:2267   */\n      dup2\n        /* \"#utility.yul\":2239:2268   */\n      tag_195\n      jump\t// in\n    tag_287:\n        /* \"#utility.yul\":2234:2237   */\n      dup5\n        /* \"#utility.yul\":2230:2269   */\n      add\n        /* \"#utility.yul\":2223:2269   */\n      swap2\n      pop\n        /* \"#utility.yul\":2000:2275   */\n      pop\n        /* \"#utility.yul\":1918:2275   */\n      swap3\n      swap2\n      pop\n      pop\n      jump\t// out\n        /* \"#utility.yul\":2281:2358   */\n    tag_202:\n        /* \"#utility.yul\":2318:2325   */\n      0x00\n        /* \"#utility.yul\":2347:2352   */\n      dup2\n        /* \"#utility.yul\":2336:2352   */\n      swap1\n      pop\n        /* \"#utility.yul\":2281:2358   */\n      swap2\n      swap1\n      pop\n      jump\t// out\n        /* \"#utility.yul\":2364:2472   */\n    tag_203:\n        /* \"#utility.yul\":2441:2465   */\n      tag_290\n        /* \"#utility.yul\":2459:2464   */\n      dup2\n        /* \"#utility.yul\":2441:2465   */\n      tag_202\n      jump\t// in\n    tag_290:\n        /* \"#utility.yul\":2436:2439   */\n      dup3\n        /* \"#utility.yul\":2429:2466   */\n      mstore\n        /* \"#utility.yul\":2364:2472   */\n      pop\n      pop\n      jump\t// out\n        /* \"#utility.yul\":2478:2604   */\n    tag_204:\n        /* \"#utility.yul\":2515:2522   */\n      0x00\n        /* \"#utility.yul\":2555:2597   */\n      0xffffffffffffffffffffffffffffffffffffffff\n        /* \"#utility.yul\":2548:2553   */\n      dup3\n        /* \"#utility.yul\":2544:2598   */\n      and\n        /* \"#utility.yul\":2533:2598   */\n      swap1\n      pop\n        /* \"#utility.yul\":2478:2604   */\n      swap2\n      swap1\n      pop\n      jump\t// out\n        /* \"#utility.yul\":2610:2706   */\n    tag_205:\n        /* \"#utility.yul\":2647:2654   */\n      0x00\n        /* \"#utility.yul\":2676:2700   */\n      tag_293\n        /* \"#utility.yul\":2694:2699   */\n      dup3\n        /* \"#utility.yul\":2676:2700   */\n      tag_204\n      jump\t// in\n    tag_293:\n        /* \"#utility.yul\":2665:2700   */\n      swap1\n      pop\n        /* \"#utility.yul\":2610:2706   */\n      swap2\n      swap1\n      pop\n      jump\t// out\n        /* \"#utility.yul\":2712:2820   */\n    tag_206:\n        /* \"#utility.yul\":2789:2813   */\n      tag_295\n        /* \"#utility.yul\":2807:2812   */\n      dup2\n        /* \"#utility.yul\":2789:2813   */\n      tag_205\n      jump\t// in\n    tag_295:\n        /* \"#utility.yul\":2784:2787   */\n      dup3\n        /* \"#utility.yul\":2777:2814   */\n      mstore\n        /* \"#utility.yul\":2712:2820   */\n      pop\n      pop\n      jump\t// out\n        /* \"#utility.yul\":2872:4250   */\n    tag_207:\n        /* \"#utility.yul\":2973:2976   */\n      0x00\n        /* \"#utility.yul\":3009:3013   */\n      0xc0\n        /* \"#utility.yul\":3004:3007   */\n      dup4\n        /* \"#utility.yul\":3000:3014   */\n      add\n        /* \"#utility.yul\":3096:3100   */\n      0x00\n        /* \"#utility.yul\":3089:3094   */\n      dup4\n        /* \"#utility.yul\":3085:3101   */\n      add\n        /* \"#utility.yul\":3079:3102   */\n      mload\n        /* \"#utility.yul\":3149:3152   */\n      dup5\n        /* \"#utility.yul\":3143:3147   */\n      dup3\n        /* \"#utility.yul\":3139:3153   */\n      sub\n        /* \"#utility.yul\":3132:3136   */\n      0x00\n        /* \"#utility.yul\":3127:3130   */\n      dup7\n        /* \"#utility.yul\":3123:3137   */\n      add\n        /* \"#utility.yul\":3116:3154   */\n      mstore\n        /* \"#utility.yul\":3175:3248   */\n      tag_297\n        /* \"#utility.yul\":3243:3247   */\n      dup3\n        /* \"#utility.yul\":3229:3241   */\n      dup3\n        /* \"#utility.yul\":3175:3248   */\n      tag_201\n      jump\t// in\n    tag_297:\n        /* \"#utility.yul\":3167:3248   */\n      swap2\n      pop\n        /* \"#utility.yul\":3024:3259   */\n      pop\n        /* \"#utility.yul\":3340:3344   */\n      0x20\n        /* \"#utility.yul\":3333:3338   */\n      dup4\n        /* \"#utility.yul\":3329:3345   */\n      add\n        /* \"#utility.yul\":3323:3346   */\n      mload\n        /* \"#utility.yul\":3359:3422   */\n      tag_298\n        /* \"#utility.yul\":3416:3420   */\n      0x20\n        /* \"#utility.yul\":3411:3414   */\n      dup7\n        /* \"#utility.yul\":3407:3421   */\n      add\n        /* \"#utility.yul\":3393:3405   */\n      dup3\n        /* \"#utility.yul\":3359:3422   */\n      tag_203\n      jump\t// in\n    tag_298:\n        /* \"#utility.yul\":3269:3432   */\n      pop\n        /* \"#utility.yul\":3517:3521   */\n      0x40\n        /* \"#utility.yul\":3510:3515   */\n      dup4\n        /* \"#utility.yul\":3506:3522   */\n      add\n        /* \"#utility.yul\":3500:3523   */\n      mload\n        /* \"#utility.yul\":3536:3599   */\n      tag_299\n        /* \"#utility.yul\":3593:3597   */\n      0x40\n        /* \"#utility.yul\":3588:3591   */\n      dup7\n        /* \"#utility.yul\":3584:3598   */\n      add\n        /* \"#utility.yul\":3570:3582   */\n      dup3\n        /* \"#utility.yul\":3536:3599   */\n      tag_203\n      jump\t// in\n    tag_299:\n        /* \"#utility.yul\":3442:3609   */\n      pop\n        /* \"#utility.yul\":3693:3697   */\n      0x60\n        /* \"#utility.yul\":3686:3691   */\n      dup4\n        /* \"#utility.yul\":3682:3698   */\n      add\n        /* \"#utility.yul\":3676:3699   */\n      mload\n        /* \"#utility.yul\":3746:3749   */\n      dup5\n        /* \"#utility.yul\":3740:3744   */\n      dup3\n        /* \"#utility.yul\":3736:3750   */\n      sub\n        /* \"#utility.yul\":3729:3733   */\n      0x60\n        /* \"#utility.yul\":3724:3727   */\n      dup7\n        /* \"#utility.yul\":3720:3734   */\n      add\n        /* \"#utility.yul\":3713:3751   */\n      mstore\n        /* \"#utility.yul\":3772:3845   */\n      tag_300\n        /* \"#utility.yul\":3840:3844   */\n      dup3\n        /* \"#utility.yul\":3826:3838   */\n      dup3\n        /* \"#utility.yul\":3772:3845   */\n      tag_201\n      jump\t// in\n    tag_300:\n        /* \"#utility.yul\":3764:3845   */\n      swap2\n      pop\n        /* \"#utility.yul\":3619:3856   */\n      pop\n        /* \"#utility.yul\":3949:3953   */\n      0x80\n        /* \"#utility.yul\":3942:3947   */\n      dup4\n        /* \"#utility.yul\":3938:3954   */\n      add\n        /* \"#utility.yul\":3932:3955   */\n      mload\n        /* \"#utility.yul\":3968:4031   */\n      tag_301\n        /* \"#utility.yul\":4025:4029   */\n      0x80\n        /* \"#utility.yul\":4020:4023   */\n      dup7\n        /* \"#utility.yul\":4016:4030   */\n      add\n        /* \"#utility.yul\":4002:4014   */\n      dup3\n        /* \"#utility.yul\":3968:4031   */\n      tag_203\n      jump\t// in\n    tag_301:\n        /* \"#utility.yul\":3866:4041   */\n      pop\n        /* \"#utility.yul\":4131:4135   */\n      0xa0\n        /* \"#utility.yul\":4124:4129   */\n      dup4\n        /* \"#utility.yul\":4120:4136   */\n      add\n        /* \"#utility.yul\":4114:4137   */\n      mload\n        /* \"#utility.yul\":4150:4213   */\n      tag_302\n        /* \"#utility.yul\":4207:4211   */\n      0xa0\n        /* \"#utility.yul\":4202:4205   */\n      dup7\n        /* \"#utility.yul\":4198:4212   */\n      add\n        /* \"#utility.yul\":4184:4196   */\n      dup3\n        /* \"#utility.yul\":4150:4213   */\n      tag_206\n      jump\t// in\n    tag_302:\n        /* \"#utility.yul\":4051:4223   */\n      pop\n        /* \"#utility.yul\":4240:4244   */\n      dup1\n        /* \"#utility.yul\":4233:4244   */\n      swap2\n      pop\n        /* \"#utility.yul\":2978:4250   */\n      pop\n        /* \"#utility.yul\":2872:4250   */\n      swap3\n      swap2\n      pop\n      pop\n      jump\t// out\n        /* \"#utility.yul\":4256:4496   */\n    tag_208:\n        /* \"#utility.yul\":4367:4377   */\n      0x00\n        /* \"#utility.yul\":4402:4490   */\n      tag_304\n        /* \"#utility.yul\":4486:4489   */\n      dup4\n        /* \"#utility.yul\":4478:4484   */\n      dup4\n        /* \"#utility.yul\":4402:4490   */\n      tag_207\n      jump\t// in\n    tag_304:\n        /* \"#utility.yul\":4388:4490   */\n      swap1\n      pop\n        /* \"#utility.yul\":4256:4496   */\n      swap3\n      swap2\n      pop\n      pop\n      jump\t// out\n        /* \"#utility.yul\":4502:4636   */\n    tag_209:\n        /* \"#utility.yul\":4593:4597   */\n      0x00\n        /* \"#utility.yul\":4625:4629   */\n      0x20\n        /* \"#utility.yul\":4620:4623   */\n      dup3\n        /* \"#utility.yul\":4616:4630   */\n      add\n        /* \"#utility.yul\":4608:4630   */\n      swap1\n      pop\n        /* \"#utility.yul\":4502:4636   */\n      swap2\n      swap1\n      pop\n      jump\t// out\n        /* \"#utility.yul\":4692:5771   */\n    tag_210:\n        /* \"#utility.yul\":4853:4856   */\n      0x00\n        /* \"#utility.yul\":4882:4957   */\n      tag_307\n        /* \"#utility.yul\":4951:4956   */\n      dup3\n        /* \"#utility.yul\":4882:4957   */\n      tag_197\n      jump\t// in\n    tag_307:\n        /* \"#utility.yul\":4973:5080   */\n      tag_308\n        /* \"#utility.yul\":5073:5079   */\n      dup2\n        /* \"#utility.yul\":5068:5071   */\n      dup6\n        /* \"#utility.yul\":4973:5080   */\n      tag_198\n      jump\t// in\n    tag_308:\n        /* \"#utility.yul\":4966:5080   */\n      swap4\n      pop\n        /* \"#utility.yul\":5106:5109   */\n      dup4\n        /* \"#utility.yul\":5151:5155   */\n      0x20\n        /* \"#utility.yul\":5143:5149   */\n      dup3\n        /* \"#utility.yul\":5139:5156   */\n      mul\n        /* \"#utility.yul\":5134:5137   */\n      dup6\n        /* \"#utility.yul\":5130:5157   */\n      add\n        /* \"#utility.yul\":5181:5258   */\n      tag_309\n        /* \"#utility.yul\":5252:5257   */\n      dup6\n        /* \"#utility.yul\":5181:5258   */\n      tag_199\n      jump\t// in\n    tag_309:\n        /* \"#utility.yul\":5281:5288   */\n      dup1\n        /* \"#utility.yul\":5312:5313   */\n      0x00\n        /* \"#utility.yul\":5297:5726   */\n    tag_310:\n        /* \"#utility.yul\":5322:5328   */\n      dup6\n        /* \"#utility.yul\":5319:5320   */\n      dup2\n        /* \"#utility.yul\":5316:5329   */\n      lt\n        /* \"#utility.yul\":5297:5726   */\n      iszero\n      tag_312\n      jumpi\n        /* \"#utility.yul\":5393:5402   */\n      dup5\n        /* \"#utility.yul\":5387:5391   */\n      dup5\n        /* \"#utility.yul\":5383:5403   */\n      sub\n        /* \"#utility.yul\":5378:5381   */\n      dup10\n        /* \"#utility.yul\":5371:5404   */\n      mstore\n        /* \"#utility.yul\":5444:5450   */\n      dup2\n        /* \"#utility.yul\":5438:5451   */\n      mload\n        /* \"#utility.yul\":5472:5578   */\n      tag_313\n        /* \"#utility.yul\":5573:5577   */\n      dup6\n        /* \"#utility.yul\":5558:5571   */\n      dup3\n        /* \"#utility.yul\":5472:5578   */\n      tag_208\n      jump\t// in\n    tag_313:\n        /* \"#utility.yul\":5464:5578   */\n      swap5\n      pop\n        /* \"#utility.yul\":5601:5682   */\n      tag_314\n        /* \"#utility.yul\":5675:5681   */\n      dup4\n        /* \"#utility.yul\":5601:5682   */\n      tag_209\n      jump\t// in\n    tag_314:\n        /* \"#utility.yul\":5591:5682   */\n      swap3\n      pop\n        /* \"#utility.yul\":5711:5715   */\n      0x20\n        /* \"#utility.yul\":5706:5709   */\n      dup11\n        /* \"#utility.yul\":5702:5716   */\n      add\n        /* \"#utility.yul\":5695:5716   */\n      swap10\n      pop\n        /* \"#utility.yul\":5357:5726   */\n      pop\n        /* \"#utility.yul\":5344:5345   */\n      0x01\n        /* \"#utility.yul\":5341:5342   */\n      dup2\n        /* \"#utility.yul\":5337:5346   */\n      add\n        /* \"#utility.yul\":5332:5346   */\n      swap1\n      pop\n        /* \"#utility.yul\":5297:5726   */\n      jump(tag_310)\n    tag_312:\n        /* \"#utility.yul\":5301:5315   */\n      pop\n        /* \"#utility.yul\":5742:5746   */\n      dup3\n        /* \"#utility.yul\":5735:5746   */\n      swap8\n      pop\n        /* \"#utility.yul\":5762:5765   */\n      dup8\n        /* \"#utility.yul\":5755:5765   */\n      swap6\n      pop\n        /* \"#utility.yul\":4858:5771   */\n      pop\n      pop\n      pop\n      pop\n      pop\n        /* \"#utility.yul\":4692:5771   */\n      swap3\n      swap2\n      pop\n      pop\n      jump\t// out\n        /* \"#utility.yul\":5777:6234   */\n    tag_21:\n        /* \"#utility.yul\":5962:5966   */\n      0x00\n        /* \"#utility.yul\":6000:6002   */\n      0x20\n        /* \"#utility.yul\":5989:5998   */\n      dup3\n        /* \"#utility.yul\":5985:6003   */\n      add\n        /* \"#utility.yul\":5977:6003   */\n      swap1\n      pop\n        /* \"#utility.yul\":6049:6058   */\n      dup2\n        /* \"#utility.yul\":6043:6047   */\n      dup2\n        /* \"#utility.yul\":6039:6059   */\n      sub\n        /* \"#utility.yul\":6035:6036   */\n      0x00\n        /* \"#utility.yul\":6024:6033   */\n      dup4\n        /* \"#utility.yul\":6020:6037   */\n      add\n        /* \"#utility.yul\":6013:6060   */\n      mstore\n        /* \"#utility.yul\":6077:6227   */\n      tag_316\n        /* \"#utility.yul\":6222:6226   */\n      dup2\n        /* \"#utility.yul\":6213:6219   */\n      dup5\n        /* \"#utility.yul\":6077:6227   */\n      tag_210\n      jump\t// in\n    tag_316:\n        /* \"#utility.yul\":6069:6227   */\n      swap1\n      pop\n        /* \"#utility.yul\":5777:6234   */\n      swap3\n      swap2\n      pop\n      pop\n      jump\t// out\n        /* \"#utility.yul\":6240:6379   */\n    tag_211:\n        /* \"#utility.yul\":6332:6338   */\n      0x00\n        /* \"#utility.yul\":6366:6371   */\n      dup2\n        /* \"#utility.yul\":6360:6372   */\n      mload\n        /* \"#utility.yul\":6350:6372   */\n      swap1\n      pop\n        /* \"#utility.yul\":6240:6379   */\n      swap2\n      swap1\n      pop\n      jump\t// out\n        /* \"#utility.yul\":6385:6594   */\n    tag_212:\n        /* \"#utility.yul\":6509:6520   */\n      0x00\n        /* \"#utility.yul\":6543:6549   */\n      dup3\n        /* \"#utility.yul\":6538:6541   */\n      dup3\n        /* \"#utility.yul\":6531:6550   */\n      mstore\n        /* \"#utility.yul\":6583:6587   */\n      0x20\n        /* \"#utility.yul\":6578:6581   */\n      dup3\n        /* \"#utility.yul\":6574:6588   */\n      add\n        /* \"#utility.yul\":6559:6588   */\n      swap1\n      pop\n        /* \"#utility.yul\":6385:6594   */\n      swap3\n      swap2\n      pop\n      pop\n      jump\t// out\n        /* \"#utility.yul\":6600:6757   */\n    tag_213:\n        /* \"#utility.yul\":6692:6696   */\n      0x00\n        /* \"#utility.yul\":6715:6718   */\n      dup2\n        /* \"#utility.yul\":6707:6718   */\n      swap1\n      pop\n        /* \"#utility.yul\":6745:6749   */\n      0x20\n        /* \"#utility.yul\":6740:6743   */\n      dup3\n        /* \"#utility.yul\":6736:6750   */\n      add\n        /* \"#utility.yul\":6728:6750   */\n      swap1\n      pop\n        /* \"#utility.yul\":6600:6757   */\n      swap2\n      swap1\n      pop\n      jump\t// out\n        /* \"#utility.yul\":6817:8447   */\n    tag_214:\n        /* \"#utility.yul\":6926:6929   */\n      0x00\n        /* \"#utility.yul\":6962:6966   */\n      0xe0\n        /* \"#utility.yul\":6957:6960   */\n      dup4\n        /* \"#utility.yul\":6953:6967   */\n      add\n        /* \"#utility.yul\":7049:7053   */\n      0x00\n        /* \"#utility.yul\":7042:7047   */\n      dup4\n        /* \"#utility.yul\":7038:7054   */\n      add\n        /* \"#utility.yul\":7032:7055   */\n      mload\n        /* \"#utility.yul\":7102:7105   */\n      dup5\n        /* \"#utility.yul\":7096:7100   */\n      dup3\n        /* \"#utility.yul\":7092:7106   */\n      sub\n        /* \"#utility.yul\":7085:7089   */\n      0x00\n        /* \"#utility.yul\":7080:7083   */\n      dup7\n        /* \"#utility.yul\":7076:7090   */\n      add\n        /* \"#utility.yul\":7069:7107   */\n      mstore\n        /* \"#utility.yul\":7128:7201   */\n      tag_321\n        /* \"#utility.yul\":7196:7200   */\n      dup3\n        /* \"#utility.yul\":7182:7194   */\n      dup3\n        /* \"#utility.yul\":7128:7201   */\n      tag_201\n      jump\t// in\n    tag_321:\n        /* \"#utility.yul\":7120:7201   */\n      swap2\n      pop\n        /* \"#utility.yul\":6977:7212   */\n      pop\n        /* \"#utility.yul\":7295:7299   */\n      0x20\n        /* \"#utility.yul\":7288:7293   */\n      dup4\n        /* \"#utility.yul\":7284:7300   */\n      add\n        /* \"#utility.yul\":7278:7301   */\n      mload\n        /* \"#utility.yul\":7348:7351   */\n      dup5\n        /* \"#utility.yul\":7342:7346   */\n      dup3\n        /* \"#utility.yul\":7338:7352   */\n      sub\n        /* \"#utility.yul\":7331:7335   */\n      0x20\n        /* \"#utility.yul\":7326:7329   */\n      dup7\n        /* \"#utility.yul\":7322:7336   */\n      add\n        /* \"#utility.yul\":7315:7353   */\n      mstore\n        /* \"#utility.yul\":7374:7447   */\n      tag_322\n        /* \"#utility.yul\":7442:7446   */\n      dup3\n        /* \"#utility.yul\":7428:7440   */\n      dup3\n        /* \"#utility.yul\":7374:7447   */\n      tag_201\n      jump\t// in\n    tag_322:\n        /* \"#utility.yul\":7366:7447   */\n      swap2\n      pop\n        /* \"#utility.yul\":7222:7458   */\n      pop\n        /* \"#utility.yul\":7539:7543   */\n      0x40\n        /* \"#utility.yul\":7532:7537   */\n      dup4\n        /* \"#utility.yul\":7528:7544   */\n      add\n        /* \"#utility.yul\":7522:7545   */\n      mload\n        /* \"#utility.yul\":7558:7621   */\n      tag_323\n        /* \"#utility.yul\":7615:7619   */\n      0x40\n        /* \"#utility.yul\":7610:7613   */\n      dup7\n        /* \"#utility.yul\":7606:7620   */\n      add\n        /* \"#utility.yul\":7592:7604   */\n      dup3\n        /* \"#utility.yul\":7558:7621   */\n      tag_203\n      jump\t// in\n    tag_323:\n        /* \"#utility.yul\":7468:7631   */\n      pop\n        /* \"#utility.yul\":7715:7719   */\n      0x60\n        /* \"#utility.yul\":7708:7713   */\n      dup4\n        /* \"#utility.yul\":7704:7720   */\n      add\n        /* \"#utility.yul\":7698:7721   */\n      mload\n        /* \"#utility.yul\":7768:7771   */\n      dup5\n        /* \"#utility.yul\":7762:7766   */\n      dup3\n        /* \"#utility.yul\":7758:7772   */\n      sub\n        /* \"#utility.yul\":7751:7755   */\n      0x60\n        /* \"#utility.yul\":7746:7749   */\n      dup7\n        /* \"#utility.yul\":7742:7756   */\n      add\n        /* \"#utility.yul\":7735:7773   */\n      mstore\n        /* \"#utility.yul\":7794:7867   */\n      tag_324\n        /* \"#utility.yul\":7862:7866   */\n      dup3\n        /* \"#utility.yul\":7848:7860   */\n      dup3\n        /* \"#utility.yul\":7794:7867   */\n      tag_201\n      jump\t// in\n    tag_324:\n        /* \"#utility.yul\":7786:7867   */\n      swap2\n      pop\n        /* \"#utility.yul\":7641:7878   */\n      pop\n        /* \"#utility.yul\":7967:7971   */\n      0x80\n        /* \"#utility.yul\":7960:7965   */\n      dup4\n        /* \"#utility.yul\":7956:7972   */\n      add\n        /* \"#utility.yul\":7950:7973   */\n      mload\n        /* \"#utility.yul\":7986:8049   */\n      tag_325\n        /* \"#utility.yul\":8043:8047   */\n      0x80\n        /* \"#utility.yul\":8038:8041   */\n      dup7\n        /* \"#utility.yul\":8034:8048   */\n      add\n        /* \"#utility.yul\":8020:8032   */\n      dup3\n        /* \"#utility.yul\":7986:8049   */\n      tag_203\n      jump\t// in\n    tag_325:\n        /* \"#utility.yul\":7888:8059   */\n      pop\n        /* \"#utility.yul\":8153:8157   */\n      0xa0\n        /* \"#utility.yul\":8146:8151   */\n      dup4\n        /* \"#utility.yul\":8142:8158   */\n      add\n        /* \"#utility.yul\":8136:8159   */\n      mload\n        /* \"#utility.yul\":8172:8235   */\n      tag_326\n        /* \"#utility.yul\":8229:8233   */\n      0xa0\n        /* \"#utility.yul\":8224:8227   */\n      dup7\n        /* \"#utility.yul\":8220:8234   */\n      add\n        /* \"#utility.yul\":8206:8218   */\n      dup3\n        /* \"#utility.yul\":8172:8235   */\n      tag_206\n      jump\t// in\n    tag_326:\n        /* \"#utility.yul\":8069:8245   */\n      pop\n        /* \"#utility.yul\":8328:8332   */\n      0xc0\n        /* \"#utility.yul\":8321:8326   */\n      dup4\n        /* \"#utility.yul\":8317:8333   */\n      add\n        /* \"#utility.yul\":8311:8334   */\n      mload\n        /* \"#utility.yul\":8347:8410   */\n      tag_327\n        /* \"#utility.yul\":8404:8408   */\n      0xc0\n        /* \"#utility.yul\":8399:8402   */\n      dup7\n        /* \"#utility.yul\":8395:8409   */\n      add\n        /* \"#utility.yul\":8381:8393   */\n      dup3\n        /* \"#utility.yul\":8347:8410   */\n      tag_203\n      jump\t// in\n    tag_327:\n        /* \"#utility.yul\":8255:8420   */\n      pop\n        /* \"#utility.yul\":8437:8441   */\n      dup1\n        /* \"#utility.yul\":8430:8441   */\n      swap2\n      pop\n        /* \"#utility.yul\":6931:8447   */\n      pop\n        /* \"#utility.yul\":6817:8447   */\n      swap3\n      swap2\n      pop\n      pop\n      jump\t// out\n        /* \"#utility.yul\":8453:8709   */\n    tag_215:\n        /* \"#utility.yul\":8572:8582   */\n      0x00\n        /* \"#utility.yul\":8607:8703   */\n      tag_329\n        /* \"#utility.yul\":8699:8702   */\n      dup4\n        /* \"#utility.yul\":8691:8697   */\n      dup4\n        /* \"#utility.yul\":8607:8703   */\n      tag_214\n      jump\t// in\n    tag_329:\n        /* \"#utility.yul\":8593:8703   */\n      swap1\n      pop\n        /* \"#utility.yul\":8453:8709   */\n      swap3\n      swap2\n      pop\n      pop\n      jump\t// out\n        /* \"#utility.yul\":8715:8853   */\n    tag_216:\n        /* \"#utility.yul\":8810:8814   */\n      0x00\n        /* \"#utility.yul\":8842:8846   */\n      0x20\n        /* \"#utility.yul\":8837:8840   */\n      dup3\n        /* \"#utility.yul\":8833:8847   */\n      add\n        /* \"#utility.yul\":8825:8847   */\n      swap1\n      pop\n        /* \"#utility.yul\":8715:8853   */\n      swap2\n      swap1\n      pop\n      jump\t// out\n        /* \"#utility.yul\":8917:10028   */\n    tag_217:\n        /* \"#utility.yul\":9086:9089   */\n      0x00\n        /* \"#utility.yul\":9115:9194   */\n      tag_332\n        /* \"#utility.yul\":9188:9193   */\n      dup3\n        /* \"#utility.yul\":9115:9194   */\n      tag_211\n      jump\t// in\n    tag_332:\n        /* \"#utility.yul\":9210:9321   */\n      tag_333\n        /* \"#utility.yul\":9314:9320   */\n      dup2\n        /* \"#utility.yul\":9309:9312   */\n      dup6\n        /* \"#utility.yul\":9210:9321   */\n      tag_212\n      jump\t// in\n    tag_333:\n        /* \"#utility.yul\":9203:9321   */\n      swap4\n      pop\n        /* \"#utility.yul\":9347:9350   */\n      dup4\n        /* \"#utility.yul\":9392:9396   */\n      0x20\n        /* \"#utility.yul\":9384:9390   */\n      dup3\n        /* \"#utility.yul\":9380:9397   */\n      mul\n        /* \"#utility.yul\":9375:9378   */\n      dup6\n        /* \"#utility.yul\":9371:9398   */\n      add\n        /* \"#utility.yul\":9422:9503   */\n      tag_334\n        /* \"#utility.yul\":9497:9502   */\n      dup6\n        /* \"#utility.yul\":9422:9503   */\n      tag_213\n      jump\t// in\n    tag_334:\n        /* \"#utility.yul\":9526:9533   */\n      dup1\n        /* \"#utility.yul\":9557:9558   */\n      0x00\n        /* \"#utility.yul\":9542:9983   */\n    tag_335:\n        /* \"#utility.yul\":9567:9573   */\n      dup6\n        /* \"#utility.yul\":9564:9565   */\n      dup2\n        /* \"#utility.yul\":9561:9574   */\n      lt\n        /* \"#utility.yul\":9542:9983   */\n      iszero\n      tag_337\n      jumpi\n        /* \"#utility.yul\":9638:9647   */\n      dup5\n        /* \"#utility.yul\":9632:9636   */\n      dup5\n        /* \"#utility.yul\":9628:9648   */\n      sub\n        /* \"#utility.yul\":9623:9626   */\n      dup10\n        /* \"#utility.yul\":9616:9649   */\n      mstore\n        /* \"#utility.yul\":9689:9695   */\n      dup2\n        /* \"#utility.yul\":9683:9696   */\n      mload\n        /* \"#utility.yul\":9717:9831   */\n      tag_338\n        /* \"#utility.yul\":9826:9830   */\n      dup6\n        /* \"#utility.yul\":9811:9824   */\n      dup3\n        /* \"#utility.yul\":9717:9831   */\n      tag_215\n      jump\t// in\n    tag_338:\n        /* \"#utility.yul\":9709:9831   */\n      swap5\n      pop\n        /* \"#utility.yul\":9854:9939   */\n      tag_339\n        /* \"#utility.yul\":9932:9938   */\n      dup4\n        /* \"#utility.yul\":9854:9939   */\n      tag_216\n      jump\t// in\n    tag_339:\n        /* \"#utility.yul\":9844:9939   */\n      swap3\n      pop\n        /* \"#utility.yul\":9968:9972   */\n      0x20\n        /* \"#utility.yul\":9963:9966   */\n      dup11\n        /* \"#utility.yul\":9959:9973   */\n      add\n        /* \"#utility.yul\":9952:9973   */\n      swap10\n      pop\n        /* \"#utility.yul\":9602:9983   */\n      pop\n        /* \"#utility.yul\":9589:9590   */\n      0x01\n        /* \"#utility.yul\":9586:9587   */\n      dup2\n        /* \"#utility.yul\":9582:9591   */\n      add\n        /* \"#utility.yul\":9577:9591   */\n      swap1\n      pop\n        /* \"#utility.yul\":9542:9983   */\n      jump(tag_335)\n    tag_337:\n        /* \"#utility.yul\":9546:9560   */\n      pop\n        /* \"#utility.yul\":9999:10003   */\n      dup3\n        /* \"#utility.yul\":9992:10003   */\n      swap8\n      pop\n        /* \"#utility.yul\":10019:10022   */\n      dup8\n        /* \"#utility.yul\":10012:10022   */\n      swap6\n      pop\n        /* \"#utility.yul\":9091:10028   */\n      pop\n      pop\n      pop\n      pop\n      pop\n        /* \"#utility.yul\":8917:10028   */\n      swap3\n      swap2\n      pop\n      pop\n      jump\t// out\n        /* \"#utility.yul\":10034:10507   */\n    tag_25:\n        /* \"#utility.yul\":10227:10231   */\n      0x00\n        /* \"#utility.yul\":10265:10267   */\n      0x20\n        /* \"#utility.yul\":10254:10263   */\n      dup3\n        /* \"#utility.yul\":10250:10268   */\n      add\n        /* \"#utility.yul\":10242:10268   */\n      swap1\n      pop\n        /* \"#utility.yul\":10314:10323   */\n      dup2\n        /* \"#utility.yul\":10308:10312   */\n      dup2\n        /* \"#utility.yul\":10304:10324   */\n      sub\n        /* \"#utility.yul\":10300:10301   */\n      0x00\n        /* \"#utility.yul\":10289:10298   */\n      dup4\n        /* \"#utility.yul\":10285:10302   */\n      add\n        /* \"#utility.yul\":10278:10325   */\n      mstore\n        /* \"#utility.yul\":10342:10500   */\n      tag_341\n        /* \"#utility.yul\":10495:10499   */\n      dup2\n        /* \"#utility.yul\":10486:10492   */\n      dup5\n        /* \"#utility.yul\":10342:10500   */\n      tag_217\n      jump\t// in\n    tag_341:\n        /* \"#utility.yul\":10334:10500   */\n      swap1\n      pop\n        /* \"#utility.yul\":10034:10507   */\n      swap3\n      swap2\n      pop\n      pop\n      jump\t// out\n        /* \"#utility.yul\":10594:10711   */\n    tag_219:\n        /* \"#utility.yul\":10703:10704   */\n      0x00\n        /* \"#utility.yul\":10700:10701   */\n      dup1\n        /* \"#utility.yul\":10693:10705   */\n      revert\n        /* \"#utility.yul\":10717:10834   */\n    tag_220:\n        /* \"#utility.yul\":10826:10827   */\n      0x00\n        /* \"#utility.yul\":10823:10824   */\n      dup1\n        /* \"#utility.yul\":10816:10828   */\n      revert\n        /* \"#utility.yul\":10840:10962   */\n    tag_221:\n        /* \"#utility.yul\":10913:10937   */\n      tag_346\n        /* \"#utility.yul\":10931:10936   */\n      dup2\n        /* \"#utility.yul\":10913:10937   */\n      tag_202\n      jump\t// in\n    tag_346:\n        /* \"#utility.yul\":10906:10911   */\n      dup2\n        /* \"#utility.yul\":10903:10938   */\n      eq\n        /* \"#utility.yul\":10893:10956   */\n      tag_347\n      jumpi\n        /* \"#utility.yul\":10952:10953   */\n      0x00\n        /* \"#utility.yul\":10949:10950   */\n      dup1\n        /* \"#utility.yul\":10942:10954   */\n      revert\n        /* \"#utility.yul\":10893:10956   */\n    tag_347:\n        /* \"#utility.yul\":10840:10962   */\n      pop\n      jump\t// out\n        /* \"#utility.yul\":10968:11107   */\n    tag_222:\n        /* \"#utility.yul\":11014:11019   */\n      0x00\n        /* \"#utility.yul\":11052:11058   */\n      dup2\n        /* \"#utility.yul\":11039:11059   */\n      calldataload\n        /* \"#utility.yul\":11030:11059   */\n      swap1\n      pop\n        /* \"#utility.yul\":11068:11101   */\n      tag_349\n        /* \"#utility.yul\":11095:11100   */\n      dup2\n        /* \"#utility.yul\":11068:11101   */\n      tag_221\n      jump\t// in\n    tag_349:\n        /* \"#utility.yul\":10968:11107   */\n      swap3\n      swap2\n      pop\n      pop\n      jump\t// out\n        /* \"#utility.yul\":11113:11587   */\n    tag_30:\n        /* \"#utility.yul\":11181:11187   */\n      0x00\n        /* \"#utility.yul\":11189:11195   */\n      dup1\n        /* \"#utility.yul\":11238:11240   */\n      0x40\n        /* \"#utility.yul\":11226:11235   */\n      dup4\n        /* \"#utility.yul\":11217:11224   */\n      dup6\n        /* \"#utility.yul\":11213:11236   */\n      sub\n        /* \"#utility.yul\":11209:11241   */\n      slt\n        /* \"#utility.yul\":11206:11325   */\n      iszero\n      tag_351\n      jumpi\n        /* \"#utility.yul\":11244:11323   */\n      tag_352\n      tag_219\n      jump\t// in\n    tag_352:\n        /* \"#utility.yul\":11206:11325   */\n    tag_351:\n        /* \"#utility.yul\":11364:11365   */\n      0x00\n        /* \"#utility.yul\":11389:11442   */\n      tag_353\n        /* \"#utility.yul\":11434:11441   */\n      dup6\n        /* \"#utility.yul\":11425:11431   */\n      dup3\n        /* \"#utility.yul\":11414:11423   */\n      dup7\n        /* \"#utility.yul\":11410:11432   */\n      add\n        /* \"#utility.yul\":11389:11442   */\n      tag_222\n      jump\t// in\n    tag_353:\n        /* \"#utility.yul\":11379:11442   */\n      swap3\n      pop\n        /* \"#utility.yul\":11335:11452   */\n      pop\n        /* \"#utility.yul\":11491:11493   */\n      0x20\n        /* \"#utility.yul\":11517:11570   */\n      tag_354\n        /* \"#utility.yul\":11562:11569   */\n      dup6\n        /* \"#utility.yul\":11553:11559   */\n      dup3\n        /* \"#utility.yul\":11542:11551   */\n      dup7\n        /* \"#utility.yul\":11538:11560   */\n      add\n        /* \"#utility.yul\":11517:11570   */\n      tag_222\n      jump\t// in\n    tag_354:\n        /* \"#utility.yul\":11507:11570   */\n      swap2\n      pop\n        /* \"#utility.yul\":11462:11580   */\n      pop\n        /* \"#utility.yul\":11113:11587   */\n      swap3\n      pop\n      swap3\n      swap1\n      pop\n      jump\t// out\n        /* \"#utility.yul\":11593:11710   */\n    tag_223:\n        /* \"#utility.yul\":11702:11703   */\n      0x00\n        /* \"#utility.yul\":11699:11700   */\n      dup1\n        /* \"#utility.yul\":11692:11704   */\n      revert\n        /* \"#utility.yul\":11716:11833   */\n    tag_224:\n        /* \"#utility.yul\":11825:11826   */\n      0x00\n        /* \"#utility.yul\":11822:11823   */\n      dup1\n        /* \"#utility.yul\":11815:11827   */\n      revert\n        /* \"#utility.yul\":11839:11956   */\n    tag_225:\n        /* \"#utility.yul\":11948:11949   */\n      0x00\n        /* \"#utility.yul\":11945:11946   */\n      dup1\n        /* \"#utility.yul\":11938:11950   */\n      revert\n        /* \"#utility.yul\":11976:12529   */\n    tag_226:\n        /* \"#utility.yul\":12034:12042   */\n      0x00\n        /* \"#utility.yul\":12044:12050   */\n      dup1\n        /* \"#utility.yul\":12094:12097   */\n      dup4\n        /* \"#utility.yul\":12087:12091   */\n      0x1f\n        /* \"#utility.yul\":12079:12085   */\n      dup5\n        /* \"#utility.yul\":12075:12092   */\n      add\n        /* \"#utility.yul\":12071:12098   */\n      slt\n        /* \"#utility.yul\":12061:12183   */\n      tag_359\n      jumpi\n        /* \"#utility.yul\":12102:12181   */\n      tag_360\n      tag_223\n      jump\t// in\n    tag_360:\n        /* \"#utility.yul\":12061:12183   */\n    tag_359:\n        /* \"#utility.yul\":12215:12221   */\n      dup3\n        /* \"#utility.yul\":12202:12222   */\n      calldataload\n        /* \"#utility.yul\":12192:12222   */\n      swap1\n      pop\n        /* \"#utility.yul\":12245:12263   */\n      0xffffffffffffffff\n        /* \"#utility.yul\":12237:12243   */\n      dup2\n        /* \"#utility.yul\":12234:12264   */\n      gt\n        /* \"#utility.yul\":12231:12348   */\n      iszero\n      tag_361\n      jumpi\n        /* \"#utility.yul\":12267:12346   */\n      tag_362\n      tag_224\n      jump\t// in\n    tag_362:\n        /* \"#utility.yul\":12231:12348   */\n    tag_361:\n        /* \"#utility.yul\":12381:12385   */\n      0x20\n        /* \"#utility.yul\":12373:12379   */\n      dup4\n        /* \"#utility.yul\":12369:12386   */\n      add\n        /* \"#utility.yul\":12357:12386   */\n      swap2\n      pop\n        /* \"#utility.yul\":12435:12438   */\n      dup4\n        /* \"#utility.yul\":12427:12431   */\n      0x01\n        /* \"#utility.yul\":12419:12425   */\n      dup3\n        /* \"#utility.yul\":12415:12432   */\n      mul\n        /* \"#utility.yul\":12405:12413   */\n      dup4\n        /* \"#utility.yul\":12401:12433   */\n      add\n        /* \"#utility.yul\":12398:12439   */\n      gt\n        /* \"#utility.yul\":12395:12523   */\n      iszero\n      tag_363\n      jumpi\n        /* \"#utility.yul\":12442:12521   */\n      tag_364\n      tag_225\n      jump\t// in\n    tag_364:\n        /* \"#utility.yul\":12395:12523   */\n    tag_363:\n        /* \"#utility.yul\":11976:12529   */\n      swap3\n      pop\n      swap3\n      swap1\n      pop\n      jump\t// out\n        /* \"#utility.yul\":12535:13554   */\n    tag_34:\n        /* \"#utility.yul\":12636:12642   */\n      0x00\n        /* \"#utility.yul\":12644:12650   */\n      dup1\n        /* \"#utility.yul\":12652:12658   */\n      0x00\n        /* \"#utility.yul\":12660:12666   */\n      dup1\n        /* \"#utility.yul\":12668:12674   */\n      0x00\n        /* \"#utility.yul\":12717:12719   */\n      0x60\n        /* \"#utility.yul\":12705:12714   */\n      dup7\n        /* \"#utility.yul\":12696:12703   */\n      dup9\n        /* \"#utility.yul\":12692:12715   */\n      sub\n        /* \"#utility.yul\":12688:12720   */\n      slt\n        /* \"#utility.yul\":12685:12804   */\n      iszero\n      tag_366\n      jumpi\n        /* \"#utility.yul\":12723:12802   */\n      tag_367\n      tag_219\n      jump\t// in\n    tag_367:\n        /* \"#utility.yul\":12685:12804   */\n    tag_366:\n        /* \"#utility.yul\":12871:12872   */\n      0x00\n        /* \"#utility.yul\":12860:12869   */\n      dup7\n        /* \"#utility.yul\":12856:12873   */\n      add\n        /* \"#utility.yul\":12843:12874   */\n      calldataload\n        /* \"#utility.yul\":12901:12919   */\n      0xffffffffffffffff\n        /* \"#utility.yul\":12893:12899   */\n      dup2\n        /* \"#utility.yul\":12890:12920   */\n      gt\n        /* \"#utility.yul\":12887:13004   */\n      iszero\n      tag_368\n      jumpi\n        /* \"#utility.yul\":12923:13002   */\n      tag_369\n      tag_220\n      jump\t// in\n    tag_369:\n        /* \"#utility.yul\":12887:13004   */\n    tag_368:\n        /* \"#utility.yul\":13036:13101   */\n      tag_370\n        /* \"#utility.yul\":13093:13100   */\n      dup9\n        /* \"#utility.yul\":13084:13090   */\n      dup3\n        /* \"#utility.yul\":13073:13082   */\n      dup10\n        /* \"#utility.yul\":13069:13091   */\n      add\n        /* \"#utility.yul\":13036:13101   */\n      tag_226\n      jump\t// in\n    tag_370:\n        /* \"#utility.yul\":13018:13101   */\n      swap6\n      pop\n      swap6\n      pop\n        /* \"#utility.yul\":12814:13111   */\n      pop\n        /* \"#utility.yul\":13150:13152   */\n      0x20\n        /* \"#utility.yul\":13176:13229   */\n      tag_371\n        /* \"#utility.yul\":13221:13228   */\n      dup9\n        /* \"#utility.yul\":13212:13218   */\n      dup3\n        /* \"#utility.yul\":13201:13210   */\n      dup10\n        /* \"#utility.yul\":13197:13219   */\n      add\n        /* \"#utility.yul\":13176:13229   */\n      tag_222\n      jump\t// in\n    tag_371:\n        /* \"#utility.yul\":13166:13229   */\n      swap4\n      pop\n        /* \"#utility.yul\":13121:13239   */\n      pop\n        /* \"#utility.yul\":13306:13308   */\n      0x40\n        /* \"#utility.yul\":13295:13304   */\n      dup7\n        /* \"#utility.yul\":13291:13309   */\n      add\n        /* \"#utility.yul\":13278:13310   */\n      calldataload\n        /* \"#utility.yul\":13337:13355   */\n      0xffffffffffffffff\n        /* \"#utility.yul\":13329:13335   */\n      dup2\n        /* \"#utility.yul\":13326:13356   */\n      gt\n        /* \"#utility.yul\":13323:13440   */\n      iszero\n      tag_372\n      jumpi\n        /* \"#utility.yul\":13359:13438   */\n      tag_373\n      tag_220\n      jump\t// in\n    tag_373:\n        /* \"#utility.yul\":13323:13440   */\n    tag_372:\n        /* \"#utility.yul\":13472:13537   */\n      tag_374\n        /* \"#utility.yul\":13529:13536   */\n      dup9\n        /* \"#utility.yul\":13520:13526   */\n      dup3\n        /* \"#utility.yul\":13509:13518   */\n      dup10\n        /* \"#utility.yul\":13505:13527   */\n      add\n        /* \"#utility.yul\":13472:13537   */\n      tag_226\n      jump\t// in\n    tag_374:\n        /* \"#utility.yul\":13454:13537   */\n      swap3\n      pop\n      swap3\n      pop\n        /* \"#utility.yul\":13249:13547   */\n      pop\n        /* \"#utility.yul\":12535:13554   */\n      swap3\n      swap6\n      pop\n      swap3\n      swap6\n      swap1\n      swap4\n      pop\n      jump\t// out\n        /* \"#utility.yul\":13560:14925   */\n    tag_43:\n        /* \"#utility.yul\":13682:13688   */\n      0x00\n        /* \"#utility.yul\":13690:13696   */\n      dup1\n        /* \"#utility.yul\":13698:13704   */\n      0x00\n        /* \"#utility.yul\":13706:13712   */\n      dup1\n        /* \"#utility.yul\":13714:13720   */\n      0x00\n        /* \"#utility.yul\":13722:13728   */\n      dup1\n        /* \"#utility.yul\":13730:13736   */\n      0x00\n        /* \"#utility.yul\":13779:13782   */\n      0x80\n        /* \"#utility.yul\":13767:13776   */\n      dup9\n        /* \"#utility.yul\":13758:13765   */\n      dup11\n        /* \"#utility.yul\":13754:13777   */\n      sub\n        /* \"#utility.yul\":13750:13783   */\n      slt\n        /* \"#utility.yul\":13747:13867   */\n      iszero\n      tag_376\n      jumpi\n        /* \"#utility.yul\":13786:13865   */\n      tag_377\n      tag_219\n      jump\t// in\n    tag_377:\n        /* \"#utility.yul\":13747:13867   */\n    tag_376:\n        /* \"#utility.yul\":13934:13935   */\n      0x00\n        /* \"#utility.yul\":13923:13932   */\n      dup9\n        /* \"#utility.yul\":13919:13936   */\n      add\n        /* \"#utility.yul\":13906:13937   */\n      calldataload\n        /* \"#utility.yul\":13964:13982   */\n      0xffffffffffffffff\n        /* \"#utility.yul\":13956:13962   */\n      dup2\n        /* \"#utility.yul\":13953:13983   */\n      gt\n        /* \"#utility.yul\":13950:14067   */\n      iszero\n      tag_378\n      jumpi\n        /* \"#utility.yul\":13986:14065   */\n      tag_379\n      tag_220\n      jump\t// in\n    tag_379:\n        /* \"#utility.yul\":13950:14067   */\n    tag_378:\n        /* \"#utility.yul\":14099:14164   */\n      tag_380\n        /* \"#utility.yul\":14156:14163   */\n      dup11\n        /* \"#utility.yul\":14147:14153   */\n      dup3\n        /* \"#utility.yul\":14136:14145   */\n      dup12\n        /* \"#utility.yul\":14132:14154   */\n      add\n        /* \"#utility.yul\":14099:14164   */\n      tag_226\n      jump\t// in\n    tag_380:\n        /* \"#utility.yul\":14081:14164   */\n      swap8\n      pop\n      swap8\n      pop\n        /* \"#utility.yul\":13877:14174   */\n      pop\n        /* \"#utility.yul\":14241:14243   */\n      0x20\n        /* \"#utility.yul\":14230:14239   */\n      dup9\n        /* \"#utility.yul\":14226:14244   */\n      add\n        /* \"#utility.yul\":14213:14245   */\n      calldataload\n        /* \"#utility.yul\":14272:14290   */\n      0xffffffffffffffff\n        /* \"#utility.yul\":14264:14270   */\n      dup2\n        /* \"#utility.yul\":14261:14291   */\n      gt\n        /* \"#utility.yul\":14258:14375   */\n      iszero\n      tag_381\n      jumpi\n        /* \"#utility.yul\":14294:14373   */\n      tag_382\n      tag_220\n      jump\t// in\n    tag_382:\n        /* \"#utility.yul\":14258:14375   */\n    tag_381:\n        /* \"#utility.yul\":14407:14472   */\n      tag_383\n        /* \"#utility.yul\":14464:14471   */\n      dup11\n        /* \"#utility.yul\":14455:14461   */\n      dup3\n        /* \"#utility.yul\":14444:14453   */\n      dup12\n        /* \"#utility.yul\":14440:14462   */\n      add\n        /* \"#utility.yul\":14407:14472   */\n      tag_226\n      jump\t// in\n    tag_383:\n        /* \"#utility.yul\":14389:14472   */\n      swap6\n      pop\n      swap6\n      pop\n        /* \"#utility.yul\":14184:14482   */\n      pop\n        /* \"#utility.yul\":14521:14523   */\n      0x40\n        /* \"#utility.yul\":14547:14600   */\n      tag_384\n        /* \"#utility.yul\":14592:14599   */\n      dup11\n        /* \"#utility.yul\":14583:14589   */\n      dup3\n        /* \"#utility.yul\":14572:14581   */\n      dup12\n        /* \"#utility.yul\":14568:14590   */\n      add\n        /* \"#utility.yul\":14547:14600   */\n      tag_222\n      jump\t// in\n    tag_384:\n        /* \"#utility.yul\":14537:14600   */\n      swap4\n      pop\n        /* \"#utility.yul\":14492:14610   */\n      pop\n        /* \"#utility.yul\":14677:14679   */\n      0x60\n        /* \"#utility.yul\":14666:14675   */\n      dup9\n        /* \"#utility.yul\":14662:14680   */\n      add\n        /* \"#utility.yul\":14649:14681   */\n      calldataload\n        /* \"#utility.yul\":14708:14726   */\n      0xffffffffffffffff\n        /* \"#utility.yul\":14700:14706   */\n      dup2\n        /* \"#utility.yul\":14697:14727   */\n      gt\n        /* \"#utility.yul\":14694:14811   */\n      iszero\n      tag_385\n      jumpi\n        /* \"#utility.yul\":14730:14809   */\n      tag_386\n      tag_220\n      jump\t// in\n    tag_386:\n        /* \"#utility.yul\":14694:14811   */\n    tag_385:\n        /* \"#utility.yul\":14843:14908   */\n      tag_387\n        /* \"#utility.yul\":14900:14907   */\n      dup11\n        /* \"#utility.yul\":14891:14897   */\n      dup3\n        /* \"#utility.yul\":14880:14889   */\n      dup12\n        /* \"#utility.yul\":14876:14898   */\n      add\n        /* \"#utility.yul\":14843:14908   */\n      tag_226\n      jump\t// in\n    tag_387:\n        /* \"#utility.yul\":14825:14908   */\n      swap3\n      pop\n      swap3\n      pop\n        /* \"#utility.yul\":14620:14918   */\n      pop\n        /* \"#utility.yul\":13560:14925   */\n      swap3\n      swap6\n      swap9\n      swap2\n      swap5\n      swap8\n      pop\n      swap3\n      swap6\n      pop\n      jump\t// out\n        /* \"#utility.yul\":14931:15049   */\n    tag_227:\n        /* \"#utility.yul\":15018:15042   */\n      tag_389\n        /* \"#utility.yul\":15036:15041   */\n      dup2\n        /* \"#utility.yul\":15018:15042   */\n      tag_205\n      jump\t// in\n    tag_389:\n        /* \"#utility.yul\":15013:15016   */\n      dup3\n        /* \"#utility.yul\":15006:15043   */\n      mstore\n        /* \"#utility.yul\":14931:15049   */\n      pop\n      pop\n      jump\t// out\n        /* \"#utility.yul\":15055:15277   */\n    tag_48:\n        /* \"#utility.yul\":15148:15152   */\n      0x00\n        /* \"#utility.yul\":15186:15188   */\n      0x20\n        /* \"#utility.yul\":15175:15184   */\n      dup3\n        /* \"#utility.yul\":15171:15189   */\n      add\n        /* \"#utility.yul\":15163:15189   */\n      swap1\n      pop\n        /* \"#utility.yul\":15199:15270   */\n      tag_391\n        /* \"#utility.yul\":15267:15268   */\n      0x00\n        /* \"#utility.yul\":15256:15265   */\n      dup4\n        /* \"#utility.yul\":15252:15269   */\n      add\n        /* \"#utility.yul\":15243:15249   */\n      dup5\n        /* \"#utility.yul\":15199:15270   */\n      tag_227\n      jump\t// in\n    tag_391:\n        /* \"#utility.yul\":15055:15277   */\n      swap3\n      swap2\n      pop\n      pop\n      jump\t// out\n        /* \"#utility.yul\":15283:15463   */\n    tag_228:\n        /* \"#utility.yul\":15331:15408   */\n      0x4e487b7100000000000000000000000000000000000000000000000000000000\n        /* \"#utility.yul\":15328:15329   */\n      0x00\n        /* \"#utility.yul\":15321:15409   */\n      mstore\n        /* \"#utility.yul\":15428:15432   */\n      0x11\n        /* \"#utility.yul\":15425:15426   */\n      0x04\n        /* \"#utility.yul\":15418:15433   */\n      mstore\n        /* \"#utility.yul\":15452:15456   */\n      0x24\n        /* \"#utility.yul\":15449:15450   */\n      0x00\n        /* \"#utility.yul\":15442:15457   */\n      revert\n        /* \"#utility.yul\":15469:15663   */\n    tag_57:\n        /* \"#utility.yul\":15509:15513   */\n      0x00\n        /* \"#utility.yul\":15529:15549   */\n      tag_394\n        /* \"#utility.yul\":15547:15548   */\n      dup3\n        /* \"#utility.yul\":15529:15549   */\n      tag_202\n      jump\t// in\n    tag_394:\n        /* \"#utility.yul\":15524:15549   */\n      swap2\n      pop\n        /* \"#utility.yul\":15563:15583   */\n      tag_395\n        /* \"#utility.yul\":15581:15582   */\n      dup4\n        /* \"#utility.yul\":15563:15583   */\n      tag_202\n      jump\t// in\n    tag_395:\n        /* \"#utility.yul\":15558:15583   */\n      swap3\n      pop\n        /* \"#utility.yul\":15607:15608   */\n      dup3\n        /* \"#utility.yul\":15604:15605   */\n      dup3\n        /* \"#utility.yul\":15600:15609   */\n      sub\n        /* \"#utility.yul\":15592:15609   */\n      swap1\n      pop\n        /* \"#utility.yul\":15631:15632   */\n      dup2\n        /* \"#utility.yul\":15625:15629   */\n      dup2\n        /* \"#utility.yul\":15622:15633   */\n      gt\n        /* \"#utility.yul\":15619:15656   */\n      iszero\n      tag_396\n      jumpi\n        /* \"#utility.yul\":15636:15654   */\n      tag_397\n      tag_228\n      jump\t// in\n    tag_397:\n        /* \"#utility.yul\":15619:15656   */\n    tag_396:\n        /* \"#utility.yul\":15469:15663   */\n      swap3\n      swap2\n      pop\n      pop\n      jump\t// out\n        /* \"#utility.yul\":15669:15849   */\n    tag_60:\n        /* \"#utility.yul\":15717:15794   */\n      0x4e487b7100000000000000000000000000000000000000000000000000000000\n        /* \"#utility.yul\":15714:15715   */\n      0x00\n        /* \"#utility.yul\":15707:15795   */\n      mstore\n        /* \"#utility.yul\":15814:15818   */\n      0x41\n        /* \"#utility.yul\":15811:15812   */\n      0x04\n        /* \"#utility.yul\":15804:15819   */\n      mstore\n        /* \"#utility.yul\":15838:15842   */\n      0x24\n        /* \"#utility.yul\":15835:15836   */\n      0x00\n        /* \"#utility.yul\":15828:15843   */\n      revert\n        /* \"#utility.yul\":15855:16035   */\n    tag_229:\n        /* \"#utility.yul\":15903:15980   */\n      0x4e487b7100000000000000000000000000000000000000000000000000000000\n        /* \"#utility.yul\":15900:15901   */\n      0x00\n        /* \"#utility.yul\":15893:15981   */\n      mstore\n        /* \"#utility.yul\":16000:16004   */\n      0x22\n        /* \"#utility.yul\":15997:15998   */\n      0x04\n        /* \"#utility.yul\":15990:16005   */\n      mstore\n        /* \"#utility.yul\":16024:16028   */\n      0x24\n        /* \"#utility.yul\":16021:16022   */\n      0x00\n        /* \"#utility.yul\":16014:16029   */\n      revert\n        /* \"#utility.yul\":16041:16361   */\n    tag_69:\n        /* \"#utility.yul\":16085:16091   */\n      0x00\n        /* \"#utility.yul\":16122:16123   */\n      0x02\n        /* \"#utility.yul\":16116:16120   */\n      dup3\n        /* \"#utility.yul\":16112:16124   */\n      div\n        /* \"#utility.yul\":16102:16124   */\n      swap1\n      pop\n        /* \"#utility.yul\":16169:16170   */\n      0x01\n        /* \"#utility.yul\":16163:16167   */\n      dup3\n        /* \"#utility.yul\":16159:16171   */\n      and\n        /* \"#utility.yul\":16190:16208   */\n      dup1\n        /* \"#utility.yul\":16180:16261   */\n      tag_401\n      jumpi\n        /* \"#utility.yul\":16246:16250   */\n      0x7f\n        /* \"#utility.yul\":16238:16244   */\n      dup3\n        /* \"#utility.yul\":16234:16251   */\n      and\n        /* \"#utility.yul\":16224:16251   */\n      swap2\n      pop\n        /* \"#utility.yul\":16180:16261   */\n    tag_401:\n        /* \"#utility.yul\":16308:16310   */\n      0x20\n        /* \"#utility.yul\":16300:16306   */\n      dup3\n        /* \"#utility.yul\":16297:16311   */\n      lt\n        /* \"#utility.yul\":16277:16295   */\n      dup2\n        /* \"#utility.yul\":16274:16312   */\n      sub\n        /* \"#utility.yul\":16271:16355   */\n      tag_402\n      jumpi\n        /* \"#utility.yul\":16327:16345   */\n      tag_403\n      tag_229\n      jump\t// in\n    tag_403:\n        /* \"#utility.yul\":16271:16355   */\n    tag_402:\n        /* \"#utility.yul\":16092:16361   */\n      pop\n        /* \"#utility.yul\":16041:16361   */\n      swap2\n      swap1\n      pop\n      jump\t// out\n        /* \"#utility.yul\":16367:16547   */\n    tag_82:\n        /* \"#utility.yul\":16415:16492   */\n      0x4e487b7100000000000000000000000000000000000000000000000000000000\n        /* \"#utility.yul\":16412:16413   */\n      0x00\n        /* \"#utility.yul\":16405:16493   */\n      mstore\n        /* \"#utility.yul\":16512:16516   */\n      0x32\n        /* \"#utility.yul\":16509:16510   */\n      0x04\n        /* \"#utility.yul\":16502:16517   */\n      mstore\n        /* \"#utility.yul\":16536:16540   */\n      0x24\n        /* \"#utility.yul\":16533:16534   */\n      0x00\n        /* \"#utility.yul\":16526:16541   */\n      revert\n        /* \"#utility.yul\":16553:16775   */\n    tag_230:\n        /* \"#utility.yul\":16693:16727   */\n      0x596f7520617265206e6f742066726f6d20456c656374696f6e20436f6d6d6973\n        /* \"#utility.yul\":16689:16690   */\n      0x00\n        /* \"#utility.yul\":16681:16687   */\n      dup3\n        /* \"#utility.yul\":16677:16691   */\n      add\n        /* \"#utility.yul\":16670:16728   */\n      mstore\n        /* \"#utility.yul\":16762:16767   */\n      0x696f6e0000000000000000000000000000000000000000000000000000000000\n        /* \"#utility.yul\":16757:16759   */\n      0x20\n        /* \"#utility.yul\":16749:16755   */\n      dup3\n        /* \"#utility.yul\":16745:16760   */\n      add\n        /* \"#utility.yul\":16738:16768   */\n      mstore\n        /* \"#utility.yul\":16553:16775   */\n      pop\n      jump\t// out\n        /* \"#utility.yul\":16781:17147   */\n    tag_231:\n        /* \"#utility.yul\":16923:16926   */\n      0x00\n        /* \"#utility.yul\":16944:17011   */\n      tag_407\n        /* \"#utility.yul\":17008:17010   */\n      0x23\n        /* \"#utility.yul\":17003:17006   */\n      dup4\n        /* \"#utility.yul\":16944:17011   */\n      tag_193\n      jump\t// in\n    tag_407:\n        /* \"#utility.yul\":16937:17011   */\n      swap2\n      pop\n        /* \"#utility.yul\":17020:17113   */\n      tag_408\n        /* \"#utility.yul\":17109:17112   */\n      dup3\n        /* \"#utility.yul\":17020:17113   */\n      tag_230\n      jump\t// in\n    tag_408:\n        /* \"#utility.yul\":17138:17140   */\n      0x40\n        /* \"#utility.yul\":17133:17136   */\n      dup3\n        /* \"#utility.yul\":17129:17141   */\n      add\n        /* \"#utility.yul\":17122:17141   */\n      swap1\n      pop\n        /* \"#utility.yul\":16781:17147   */\n      swap2\n      swap1\n      pop\n      jump\t// out\n        /* \"#utility.yul\":17153:17572   */\n    tag_115:\n        /* \"#utility.yul\":17319:17323   */\n      0x00\n        /* \"#utility.yul\":17357:17359   */\n      0x20\n        /* \"#utility.yul\":17346:17355   */\n      dup3\n        /* \"#utility.yul\":17342:17360   */\n      add\n        /* \"#utility.yul\":17334:17360   */\n      swap1\n      pop\n        /* \"#utility.yul\":17406:17415   */\n      dup2\n        /* \"#utility.yul\":17400:17404   */\n      dup2\n        /* \"#utility.yul\":17396:17416   */\n      sub\n        /* \"#utility.yul\":17392:17393   */\n      0x00\n        /* \"#utility.yul\":17381:17390   */\n      dup4\n        /* \"#utility.yul\":17377:17394   */\n      add\n        /* \"#utility.yul\":17370:17417   */\n      mstore\n        /* \"#utility.yul\":17434:17565   */\n      tag_410\n        /* \"#utility.yul\":17560:17564   */\n      dup2\n        /* \"#utility.yul\":17434:17565   */\n      tag_231\n      jump\t// in\n    tag_410:\n        /* \"#utility.yul\":17426:17565   */\n      swap1\n      pop\n        /* \"#utility.yul\":17153:17572   */\n      swap2\n      swap1\n      pop\n      jump\t// out\n        /* \"#utility.yul\":17578:17769   */\n    tag_126:\n        /* \"#utility.yul\":17618:17621   */\n      0x00\n        /* \"#utility.yul\":17637:17657   */\n      tag_412\n        /* \"#utility.yul\":17655:17656   */\n      dup3\n        /* \"#utility.yul\":17637:17657   */\n      tag_202\n      jump\t// in\n    tag_412:\n        /* \"#utility.yul\":17632:17657   */\n      swap2\n      pop\n        /* \"#utility.yul\":17671:17691   */\n      tag_413\n        /* \"#utility.yul\":17689:17690   */\n      dup4\n        /* \"#utility.yul\":17671:17691   */\n      tag_202\n      jump\t// in\n    tag_413:\n        /* \"#utility.yul\":17666:17691   */\n      swap3\n      pop\n        /* \"#utility.yul\":17714:17715   */\n      dup3\n        /* \"#utility.yul\":17711:17712   */\n      dup3\n        /* \"#utility.yul\":17707:17716   */\n      add\n        /* \"#utility.yul\":17700:17716   */\n      swap1\n      pop\n        /* \"#utility.yul\":17735:17738   */\n      dup1\n        /* \"#utility.yul\":17732:17733   */\n      dup3\n        /* \"#utility.yul\":17729:17739   */\n      gt\n        /* \"#utility.yul\":17726:17762   */\n      iszero\n      tag_414\n      jumpi\n        /* \"#utility.yul\":17742:17760   */\n      tag_415\n      tag_228\n      jump\t// in\n    tag_415:\n        /* \"#utility.yul\":17726:17762   */\n    tag_414:\n        /* \"#utility.yul\":17578:17769   */\n      swap3\n      swap2\n      pop\n      pop\n      jump\t// out\n        /* \"#utility.yul\":17775:17940   */\n    tag_232:\n        /* \"#utility.yul\":17915:17932   */\n      0x41676520697320756e6465722031380000000000000000000000000000000000\n        /* \"#utility.yul\":17911:17912   */\n      0x00\n        /* \"#utility.yul\":17903:17909   */\n      dup3\n        /* \"#utility.yul\":17899:17913   */\n      add\n        /* \"#utility.yul\":17892:17933   */\n      mstore\n        /* \"#utility.yul\":17775:17940   */\n      pop\n      jump\t// out\n        /* \"#utility.yul\":17946:18312   */\n    tag_233:\n        /* \"#utility.yul\":18088:18091   */\n      0x00\n        /* \"#utility.yul\":18109:18176   */\n      tag_418\n        /* \"#utility.yul\":18173:18175   */\n      0x0f\n        /* \"#utility.yul\":18168:18171   */\n      dup4\n        /* \"#utility.yul\":18109:18176   */\n      tag_193\n      jump\t// in\n    tag_418:\n        /* \"#utility.yul\":18102:18176   */\n      swap2\n      pop\n        /* \"#utility.yul\":18185:18278   */\n      tag_419\n        /* \"#utility.yul\":18274:18277   */\n      dup3\n        /* \"#utility.yul\":18185:18278   */\n      tag_232\n      jump\t// in\n    tag_419:\n        /* \"#utility.yul\":18303:18305   */\n      0x20\n        /* \"#utility.yul\":18298:18301   */\n      dup3\n        /* \"#utility.yul\":18294:18306   */\n      add\n        /* \"#utility.yul\":18287:18306   */\n      swap1\n      pop\n        /* \"#utility.yul\":17946:18312   */\n      swap2\n      swap1\n      pop\n      jump\t// out\n        /* \"#utility.yul\":18318:18737   */\n    tag_130:\n        /* \"#utility.yul\":18484:18488   */\n      0x00\n        /* \"#utility.yul\":18522:18524   */\n      0x20\n        /* \"#utility.yul\":18511:18520   */\n      dup3\n        /* \"#utility.yul\":18507:18525   */\n      add\n        /* \"#utility.yul\":18499:18525   */\n      swap1\n      pop\n        /* \"#utility.yul\":18571:18580   */\n      dup2\n        /* \"#utility.yul\":18565:18569   */\n      dup2\n        /* \"#utility.yul\":18561:18581   */\n      sub\n        /* \"#utility.yul\":18557:18558   */\n      0x00\n        /* \"#utility.yul\":18546:18555   */\n      dup4\n        /* \"#utility.yul\":18542:18559   */\n      add\n        /* \"#utility.yul\":18535:18582   */\n      mstore\n        /* \"#utility.yul\":18599:18730   */\n      tag_421\n        /* \"#utility.yul\":18725:18729   */\n      dup2\n        /* \"#utility.yul\":18599:18730   */\n      tag_233\n      jump\t// in\n    tag_421:\n        /* \"#utility.yul\":18591:18730   */\n      swap1\n      pop\n        /* \"#utility.yul\":18318:18737   */\n      swap2\n      swap1\n      pop\n      jump\t// out\n        /* \"#utility.yul\":18743:18917   */\n    tag_234:\n        /* \"#utility.yul\":18883:18909   */\n      0x566f74657220616c726561647920726567697374657265640000000000000000\n        /* \"#utility.yul\":18879:18880   */\n      0x00\n        /* \"#utility.yul\":18871:18877   */\n      dup3\n        /* \"#utility.yul\":18867:18881   */\n      add\n        /* \"#utility.yul\":18860:18910   */\n      mstore\n        /* \"#utility.yul\":18743:18917   */\n      pop\n      jump\t// out\n        /* \"#utility.yul\":18923:19289   */\n    tag_235:\n        /* \"#utility.yul\":19065:19068   */\n      0x00\n        /* \"#utility.yul\":19086:19153   */\n      tag_424\n        /* \"#utility.yul\":19150:19152   */\n      0x18\n        /* \"#utility.yul\":19145:19148   */\n      dup4\n        /* \"#utility.yul\":19086:19153   */\n      tag_193\n      jump\t// in\n    tag_424:\n        /* \"#utility.yul\":19079:19153   */\n      swap2\n      pop\n        /* \"#utility.yul\":19162:19255   */\n      tag_425\n        /* \"#utility.yul\":19251:19254   */\n      dup3\n        /* \"#utility.yul\":19162:19255   */\n      tag_234\n      jump\t// in\n    tag_425:\n        /* \"#utility.yul\":19280:19282   */\n      0x20\n        /* \"#utility.yul\":19275:19278   */\n      dup3\n        /* \"#utility.yul\":19271:19283   */\n      add\n        /* \"#utility.yul\":19264:19283   */\n      swap1\n      pop\n        /* \"#utility.yul\":18923:19289   */\n      swap2\n      swap1\n      pop\n      jump\t// out\n        /* \"#utility.yul\":19295:19714   */\n    tag_135:\n        /* \"#utility.yul\":19461:19465   */\n      0x00\n        /* \"#utility.yul\":19499:19501   */\n      0x20\n        /* \"#utility.yul\":19488:19497   */\n      dup3\n        /* \"#utility.yul\":19484:19502   */\n      add\n        /* \"#utility.yul\":19476:19502   */\n      swap1\n      pop\n        /* \"#utility.yul\":19548:19557   */\n      dup2\n        /* \"#utility.yul\":19542:19546   */\n      dup2\n        /* \"#utility.yul\":19538:19558   */\n      sub\n        /* \"#utility.yul\":19534:19535   */\n      0x00\n        /* \"#utility.yul\":19523:19532   */\n      dup4\n        /* \"#utility.yul\":19519:19536   */\n      add\n        /* \"#utility.yul\":19512:19559   */\n      mstore\n        /* \"#utility.yul\":19576:19707   */\n      tag_427\n        /* \"#utility.yul\":19702:19706   */\n      dup2\n        /* \"#utility.yul\":19576:19707   */\n      tag_235\n      jump\t// in\n    tag_427:\n        /* \"#utility.yul\":19568:19707   */\n      swap1\n      pop\n        /* \"#utility.yul\":19295:19714   */\n      swap2\n      swap1\n      pop\n      jump\t// out\n        /* \"#utility.yul\":19720:19861   */\n    tag_236:\n        /* \"#utility.yul\":19769:19773   */\n      0x00\n        /* \"#utility.yul\":19792:19795   */\n      dup2\n        /* \"#utility.yul\":19784:19795   */\n      swap1\n      pop\n        /* \"#utility.yul\":19815:19818   */\n      dup2\n        /* \"#utility.yul\":19812:19813   */\n      0x00\n        /* \"#utility.yul\":19805:19819   */\n      mstore\n        /* \"#utility.yul\":19849:19853   */\n      0x20\n        /* \"#utility.yul\":19846:19847   */\n      0x00\n        /* \"#utility.yul\":19836:19854   */\n      keccak256\n        /* \"#utility.yul\":19828:19854   */\n      swap1\n      pop\n        /* \"#utility.yul\":19720:19861   */\n      swap2\n      swap1\n      pop\n      jump\t// out\n        /* \"#utility.yul\":19867:19960   */\n    tag_237:\n        /* \"#utility.yul\":19904:19910   */\n      0x00\n        /* \"#utility.yul\":19951:19953   */\n      0x20\n        /* \"#utility.yul\":19946:19948   */\n      0x1f\n        /* \"#utility.yul\":19939:19944   */\n      dup4\n        /* \"#utility.yul\":19935:19949   */\n      add\n        /* \"#utility.yul\":19931:19954   */\n      div\n        /* \"#utility.yul\":19921:19954   */\n      swap1\n      pop\n        /* \"#utility.yul\":19867:19960   */\n      swap2\n      swap1\n      pop\n      jump\t// out\n        /* \"#utility.yul\":19966:20073   */\n    tag_238:\n        /* \"#utility.yul\":20010:20018   */\n      0x00\n        /* \"#utility.yul\":20060:20065   */\n      dup3\n        /* \"#utility.yul\":20054:20058   */\n      dup3\n        /* \"#utility.yul\":20050:20066   */\n      shl\n        /* \"#utility.yul\":20029:20066   */\n      swap1\n      pop\n        /* \"#utility.yul\":19966:20073   */\n      swap3\n      swap2\n      pop\n      pop\n      jump\t// out\n        /* \"#utility.yul\":20079:20472   */\n    tag_239:\n        /* \"#utility.yul\":20148:20154   */\n      0x00\n        /* \"#utility.yul\":20198:20199   */\n      0x08\n        /* \"#utility.yul\":20186:20196   */\n      dup4\n        /* \"#utility.yul\":20182:20200   */\n      mul\n        /* \"#utility.yul\":20221:20318   */\n      tag_432\n        /* \"#utility.yul\":20251:20317   */\n      0xffffffffffffffffffffffffffffffffffffffffffffffffffffffffffffffff\n        /* \"#utility.yul\":20240:20249   */\n      dup3\n        /* \"#utility.yul\":20221:20318   */\n      tag_238\n      jump\t// in\n    tag_432:\n        /* \"#utility.yul\":20339:20378   */\n      tag_433\n        /* \"#utility.yul\":20369:20377   */\n      dup7\n        /* \"#utility.yul\":20358:20367   */\n      dup4\n        /* \"#utility.yul\":20339:20378   */\n      tag_238\n      jump\t// in\n    tag_433:\n        /* \"#utility.yul\":20327:20378   */\n      swap6\n      pop\n        /* \"#utility.yul\":20411:20415   */\n      dup1\n        /* \"#utility.yul\":20407:20416   */\n      not\n        /* \"#utility.yul\":20400:20405   */\n      dup5\n        /* \"#utility.yul\":20396:20417   */\n      and\n        /* \"#utility.yul\":20387:20417   */\n      swap4\n      pop\n        /* \"#utility.yul\":20460:20464   */\n      dup1\n        /* \"#utility.yul\":20450:20458   */\n      dup7\n        /* \"#utility.yul\":20446:20465   */\n      and\n        /* \"#utility.yul\":20439:20444   */\n      dup5\n        /* \"#utility.yul\":20436:20466   */\n      or\n        /* \"#utility.yul\":20426:20466   */\n      swap3\n      pop\n        /* \"#utility.yul\":20155:20472   */\n      pop\n      pop\n        /* \"#utility.yul\":20079:20472   */\n      swap4\n      swap3\n      pop\n      pop\n      pop\n      jump\t// out\n        /* \"#utility.yul\":20478:20538   */\n    tag_240:\n        /* \"#utility.yul\":20506:20509   */\n      0x00\n        /* \"#utility.yul\":20527:20532   */\n      dup2\n        /* \"#utility.yul\":20520:20532   */\n      swap1\n      pop\n        /* \"#utility.yul\":20478:20538   */\n      swap2\n      swap1\n      pop\n      jump\t// out\n        /* \"#utility.yul\":20544:20686   */\n    tag_241:\n        /* \"#utility.yul\":20594:20603   */\n      0x00\n        /* \"#utility.yul\":20627:20680   */\n      tag_436\n        /* \"#utility.yul\":20645:20679   */\n      tag_437\n        /* \"#utility.yul\":20654:20678   */\n      tag_438\n        /* \"#utility.yul\":20672:20677   */\n      dup5\n        /* \"#utility.yul\":20654:20678   */\n      tag_202\n      jump\t// in\n    tag_438:\n        /* \"#utility.yul\":20645:20679   */\n      tag_240\n      jump\t// in\n    tag_437:\n        /* \"#utility.yul\":20627:20680   */\n      tag_202\n      jump\t// in\n    tag_436:\n        /* \"#utility.yul\":20614:20680   */\n      swap1\n      pop\n        /* \"#utility.yul\":20544:20686   */\n      swap2\n      swap1\n      pop\n      jump\t// out\n        /* \"#utility.yul\":20692:20767   */\n    tag_242:\n        /* \"#utility.yul\":20735:20738   */\n      0x00\n        /* \"#utility.yul\":20756:20761   */\n      dup2\n        /* \"#utility.yul\":20749:20761   */\n      swap1\n      pop\n        /* \"#utility.yul\":20692:20767   */\n      swap2\n      swap1\n      pop\n      jump\t// out\n        /* \"#utility.yul\":20773:21042   */\n    tag_243:\n        /* \"#utility.yul\":20883:20922   */\n      tag_441\n        /* \"#utility.yul\":20914:20921   */\n      dup4\n        /* \"#utility.yul\":20883:20922   */\n      tag_241\n      jump\t// in\n    tag_441:\n        /* \"#utility.yul\":20944:21035   */\n      tag_442\n        /* \"#utility.yul\":20993:21034   */\n      tag_443\n        /* \"#utility.yul\":21017:21033   */\n      dup3\n        /* \"#utility.yul\":20993:21034   */\n      tag_242\n      jump\t// in\n    tag_443:\n        /* \"#utility.yul\":20985:20991   */\n      dup5\n        /* \"#utility.yul\":20978:20982   */\n      dup5\n        /* \"#utility.yul\":20972:20983   */\n      sload\n        /* \"#utility.yul\":20944:21035   */\n      tag_239\n      jump\t// in\n    tag_442:\n        /* \"#utility.yul\":20938:20942   */\n      dup3\n        /* \"#utility.yul\":20931:21036   */\n      sstore\n        /* \"#utility.yul\":20849:21042   */\n      pop\n        /* \"#utility.yul\":20773:21042   */\n      pop\n      pop\n      pop\n      jump\t// out\n        /* \"#utility.yul\":21048:21121   */\n    tag_244:\n        /* \"#utility.yul\":21093:21096   */\n      0x00\n        /* \"#utility.yul\":21048:21121   */\n      swap1\n      jump\t// out\n        /* \"#utility.yul\":21127:21316   */\n    tag_245:\n        /* \"#utility.yul\":21204:21236   */\n      tag_446\n      tag_244\n      jump\t// in\n    tag_446:\n        /* \"#utility.yul\":21245:21310   */\n      tag_447\n        /* \"#utility.yul\":21303:21309   */\n      dup2\n        /* \"#utility.yul\":21295:21301   */\n      dup5\n        /* \"#utility.yul\":21289:21293   */\n      dup5\n        /* \"#utility.yul\":21245:21310   */\n      tag_243\n      jump\t// in\n    tag_447:\n        /* \"#utility.yul\":21180:21316   */\n      pop\n        /* \"#utility.yul\":21127:21316   */\n      pop\n      pop\n      jump\t// out\n        /* \"#utility.yul\":21322:21508   */\n    tag_246:\n        /* \"#utility.yul\":21382:21502   */\n    tag_449:\n        /* \"#utility.yul\":21399:21402   */\n      dup2\n        /* \"#utility.yul\":21392:21397   */\n      dup2\n        /* \"#utility.yul\":21389:21403   */\n      lt\n        /* \"#utility.yul\":21382:21502   */\n      iszero\n      tag_451\n      jumpi\n        /* \"#utility.yul\":21453:21492   */\n      tag_452\n        /* \"#utility.yul\":21490:21491   */\n      0x00\n        /* \"#utility.yul\":21483:21488   */\n      dup3\n        /* \"#utility.yul\":21453:21492   */\n      tag_245\n      jump\t// in\n    tag_452:\n        /* \"#utility.yul\":21426:21427   */\n      0x01\n        /* \"#utility.yul\":21419:21424   */\n      dup2\n        /* \"#utility.yul\":21415:21428   */\n      add\n        /* \"#utility.yul\":21406:21428   */\n      swap1\n      pop\n        /* \"#utility.yul\":21382:21502   */\n      jump(tag_449)\n    tag_451:\n        /* \"#utility.yul\":21322:21508   */\n      pop\n      pop\n      jump\t// out\n        /* \"#utility.yul\":21514:22057   */\n    tag_247:\n        /* \"#utility.yul\":21615:21617   */\n      0x1f\n        /* \"#utility.yul\":21610:21613   */\n      dup3\n        /* \"#utility.yul\":21607:21618   */\n      gt\n        /* \"#utility.yul\":21604:22050   */\n      iszero\n      tag_454\n      jumpi\n        /* \"#utility.yul\":21649:21687   */\n      tag_455\n        /* \"#utility.yul\":21681:21686   */\n      dup2\n        /* \"#utility.yul\":21649:21687   */\n      tag_236\n      jump\t// in\n    tag_455:\n        /* \"#utility.yul\":21733:21762   */\n      tag_456\n        /* \"#utility.yul\":21751:21761   */\n      dup5\n        /* \"#utility.yul\":21733:21762   */\n      tag_237\n      jump\t// in\n    tag_456:\n        /* \"#utility.yul\":21723:21731   */\n      dup2\n        /* \"#utility.yul\":21719:21763   */\n      add\n        /* \"#utility.yul\":21916:21918   */\n      0x20\n        /* \"#utility.yul\":21904:21914   */\n      dup6\n        /* \"#utility.yul\":21901:21919   */\n      lt\n        /* \"#utility.yul\":21898:21947   */\n      iszero\n      tag_457\n      jumpi\n        /* \"#utility.yul\":21937:21945   */\n      dup2\n        /* \"#utility.yul\":21922:21945   */\n      swap1\n      pop\n        /* \"#utility.yul\":21898:21947   */\n    tag_457:\n        /* \"#utility.yul\":21960:22040   */\n      tag_458\n        /* \"#utility.yul\":22016:22038   */\n      tag_459\n        /* \"#utility.yul\":22034:22037   */\n      dup6\n        /* \"#utility.yul\":22016:22038   */\n      tag_237\n      jump\t// in\n    tag_459:\n        /* \"#utility.yul\":22006:22014   */\n      dup4\n        /* \"#utility.yul\":22002:22039   */\n      add\n        /* \"#utility.yul\":21989:22000   */\n      dup3\n        /* \"#utility.yul\":21960:22040   */\n      tag_246\n      jump\t// in\n    tag_458:\n        /* \"#utility.yul\":21619:22050   */\n      pop\n      pop\n        /* \"#utility.yul\":21604:22050   */\n    tag_454:\n        /* \"#utility.yul\":21514:22057   */\n      pop\n      pop\n      pop\n      jump\t// out\n        /* \"#utility.yul\":22063:22180   */\n    tag_248:\n        /* \"#utility.yul\":22117:22125   */\n      0x00\n        /* \"#utility.yul\":22167:22172   */\n      dup3\n        /* \"#utility.yul\":22161:22165   */\n      dup3\n        /* \"#utility.yul\":22157:22173   */\n      shr\n        /* \"#utility.yul\":22136:22173   */\n      swap1\n      pop\n        /* \"#utility.yul\":22063:22180   */\n      swap3\n      swap2\n      pop\n      pop\n      jump\t// out\n        /* \"#utility.yul\":22186:22355   */\n    tag_249:\n        /* \"#utility.yul\":22230:22236   */\n      0x00\n        /* \"#utility.yul\":22263:22314   */\n      tag_462\n        /* \"#utility.yul\":22311:22312   */\n      0x00\n        /* \"#utility.yul\":22307:22313   */\n      not\n        /* \"#utility.yul\":22299:22304   */\n      dup5\n        /* \"#utility.yul\":22296:22297   */\n      0x08\n        /* \"#utility.yul\":22292:22305   */\n      mul\n        /* \"#utility.yul\":22263:22314   */\n      tag_248\n      jump\t// in\n    tag_462:\n        /* \"#utility.yul\":22259:22315   */\n      not\n        /* \"#utility.yul\":22344:22348   */\n      dup1\n        /* \"#utility.yul\":22338:22342   */\n      dup4\n        /* \"#utility.yul\":22334:22349   */\n      and\n        /* \"#utility.yul\":22324:22349   */\n      swap2\n      pop\n        /* \"#utility.yul\":22237:22355   */\n      pop\n        /* \"#utility.yul\":22186:22355   */\n      swap3\n      swap2\n      pop\n      pop\n      jump\t// out\n        /* \"#utility.yul\":22360:22655   */\n    tag_250:\n        /* \"#utility.yul\":22436:22440   */\n      0x00\n        /* \"#utility.yul\":22582:22611   */\n      tag_464\n        /* \"#utility.yul\":22607:22610   */\n      dup4\n        /* \"#utility.yul\":22601:22605   */\n      dup4\n        /* \"#utility.yul\":22582:22611   */\n      tag_249\n      jump\t// in\n    tag_464:\n        /* \"#utility.yul\":22574:22611   */\n      swap2\n      pop\n        /* \"#utility.yul\":22644:22647   */\n      dup3\n        /* \"#utility.yul\":22641:22642   */\n      0x02\n        /* \"#utility.yul\":22637:22648   */\n      mul\n        /* \"#utility.yul\":22631:22635   */\n      dup3\n        /* \"#utility.yul\":22628:22649   */\n      or\n        /* \"#utility.yul\":22620:22649   */\n      swap1\n      pop\n        /* \"#utility.yul\":22360:22655   */\n      swap3\n      swap2\n      pop\n      pop\n      jump\t// out\n        /* \"#utility.yul\":22660:24055   */\n    tag_137:\n        /* \"#utility.yul\":22777:22814   */\n      tag_466\n        /* \"#utility.yul\":22810:22813   */\n      dup3\n        /* \"#utility.yul\":22777:22814   */\n      tag_192\n      jump\t// in\n    tag_466:\n        /* \"#utility.yul\":22879:22897   */\n      0xffffffffffffffff\n        /* \"#utility.yul\":22871:22877   */\n      dup2\n        /* \"#utility.yul\":22868:22898   */\n      gt\n        /* \"#utility.yul\":22865:22921   */\n      iszero\n      tag_467\n      jumpi\n        /* \"#utility.yul\":22901:22919   */\n      tag_468\n      tag_60\n      jump\t// in\n    tag_468:\n        /* \"#utility.yul\":22865:22921   */\n    tag_467:\n        /* \"#utility.yul\":22945:22983   */\n      tag_469\n        /* \"#utility.yul\":22977:22981   */\n      dup3\n        /* \"#utility.yul\":22971:22982   */\n      sload\n        /* \"#utility.yul\":22945:22983   */\n      tag_69\n      jump\t// in\n    tag_469:\n        /* \"#utility.yul\":23030:23097   */\n      tag_470\n        /* \"#utility.yul\":23090:23096   */\n      dup3\n        /* \"#utility.yul\":23082:23088   */\n      dup3\n        /* \"#utility.yul\":23076:23080   */\n      dup6\n        /* \"#utility.yul\":23030:23097   */\n      tag_247\n      jump\t// in\n    tag_470:\n        /* \"#utility.yul\":23124:23125   */\n      0x00\n        /* \"#utility.yul\":23148:23152   */\n      0x20\n        /* \"#utility.yul\":23135:23152   */\n      swap1\n      pop\n        /* \"#utility.yul\":23180:23182   */\n      0x1f\n        /* \"#utility.yul\":23172:23178   */\n      dup4\n        /* \"#utility.yul\":23169:23183   */\n      gt\n        /* \"#utility.yul\":23197:23198   */\n      0x01\n        /* \"#utility.yul\":23192:23810   */\n      dup2\n      eq\n      tag_472\n      jumpi\n        /* \"#utility.yul\":23854:23855   */\n      0x00\n        /* \"#utility.yul\":23871:23877   */\n      dup5\n        /* \"#utility.yul\":23868:23945   */\n      iszero\n      tag_473\n      jumpi\n        /* \"#utility.yul\":23920:23929   */\n      dup3\n        /* \"#utility.yul\":23915:23918   */\n      dup8\n        /* \"#utility.yul\":23911:23930   */\n      add\n        /* \"#utility.yul\":23905:23931   */\n      mload\n        /* \"#utility.yul\":23896:23931   */\n      swap1\n      pop\n        /* \"#utility.yul\":23868:23945   */\n    tag_473:\n        /* \"#utility.yul\":23971:24038   */\n      tag_474\n        /* \"#utility.yul\":24031:24037   */\n      dup6\n        /* \"#utility.yul\":24024:24029   */\n      dup3\n        /* \"#utility.yul\":23971:24038   */\n      tag_250\n      jump\t// in\n    tag_474:\n        /* \"#utility.yul\":23965:23969   */\n      dup7\n        /* \"#utility.yul\":23958:24039   */\n      sstore\n        /* \"#utility.yul\":23827:24049   */\n      pop\n        /* \"#utility.yul\":23162:24049   */\n      jump(tag_471)\n        /* \"#utility.yul\":23192:23810   */\n    tag_472:\n        /* \"#utility.yul\":23244:23248   */\n      0x1f\n        /* \"#utility.yul\":23240:23249   */\n      not\n        /* \"#utility.yul\":23232:23238   */\n      dup5\n        /* \"#utility.yul\":23228:23250   */\n      and\n        /* \"#utility.yul\":23278:23315   */\n      tag_475\n        /* \"#utility.yul\":23310:23314   */\n      dup7\n        /* \"#utility.yul\":23278:23315   */\n      tag_236\n      jump\t// in\n    tag_475:\n        /* \"#utility.yul\":23337:23338   */\n      0x00\n        /* \"#utility.yul\":23351:23559   */\n    tag_476:\n        /* \"#utility.yul\":23365:23372   */\n      dup3\n        /* \"#utility.yul\":23362:23363   */\n      dup2\n        /* \"#utility.yul\":23359:23373   */\n      lt\n        /* \"#utility.yul\":23351:23559   */\n      iszero\n      tag_478\n      jumpi\n        /* \"#utility.yul\":23444:23453   */\n      dup5\n        /* \"#utility.yul\":23439:23442   */\n      dup10\n        /* \"#utility.yul\":23435:23454   */\n      add\n        /* \"#utility.yul\":23429:23455   */\n      mload\n        /* \"#utility.yul\":23421:23427   */\n      dup3\n        /* \"#utility.yul\":23414:23456   */\n      sstore\n        /* \"#utility.yul\":23495:23496   */\n      0x01\n        /* \"#utility.yul\":23487:23493   */\n      dup3\n        /* \"#utility.yul\":23483:23497   */\n      add\n        /* \"#utility.yul\":23473:23497   */\n      swap2\n      pop\n        /* \"#utility.yul\":23542:23544   */\n      0x20\n        /* \"#utility.yul\":23531:23540   */\n      dup6\n        /* \"#utility.yul\":23527:23545   */\n      add\n        /* \"#utility.yul\":23514:23545   */\n      swap5\n      pop\n        /* \"#utility.yul\":23388:23392   */\n      0x20\n        /* \"#utility.yul\":23385:23386   */\n      dup2\n        /* \"#utility.yul\":23381:23393   */\n      add\n        /* \"#utility.yul\":23376:23393   */\n      swap1\n      pop\n        /* \"#utility.yul\":23351:23559   */\n      jump(tag_476)\n    tag_478:\n        /* \"#utility.yul\":23587:23593   */\n      dup7\n        /* \"#utility.yul\":23578:23585   */\n      dup4\n        /* \"#utility.yul\":23575:23594   */\n      lt\n        /* \"#utility.yul\":23572:23751   */\n      iszero\n      tag_479\n      jumpi\n        /* \"#utility.yul\":23645:23654   */\n      dup5\n        /* \"#utility.yul\":23640:23643   */\n      dup10\n        /* \"#utility.yul\":23636:23655   */\n      add\n        /* \"#utility.yul\":23630:23656   */\n      mload\n        /* \"#utility.yul\":23688:23736   */\n      tag_480\n        /* \"#utility.yul\":23730:23734   */\n      0x1f\n        /* \"#utility.yul\":23722:23728   */\n      dup10\n        /* \"#utility.yul\":23718:23735   */\n      and\n        /* \"#utility.yul\":23707:23716   */\n      dup3\n        /* \"#utility.yul\":23688:23736   */\n      tag_249\n      jump\t// in\n    tag_480:\n        /* \"#utility.yul\":23680:23686   */\n      dup4\n        /* \"#utility.yul\":23673:23737   */\n      sstore\n        /* \"#utility.yul\":23595:23751   */\n      pop\n        /* \"#utility.yul\":23572:23751   */\n    tag_479:\n        /* \"#utility.yul\":23797:23798   */\n      0x01\n        /* \"#utility.yul\":23793:23794   */\n      0x02\n        /* \"#utility.yul\":23785:23791   */\n      dup9\n        /* \"#utility.yul\":23781:23795   */\n      mul\n        /* \"#utility.yul\":23777:23799   */\n      add\n        /* \"#utility.yul\":23771:23775   */\n      dup9\n        /* \"#utility.yul\":23764:23800   */\n      sstore\n        /* \"#utility.yul\":23199:23810   */\n      pop\n      pop\n      pop\n        /* \"#utility.yul\":23162:24049   */\n    tag_471:\n      pop\n        /* \"#utility.yul\":22752:24055   */\n      pop\n      pop\n      pop\n        /* \"#utility.yul\":22660:24055   */\n      pop\n      pop\n      jump\t// out\n        /* \"#utility.yul\":24061:24294   */\n    tag_140:\n        /* \"#utility.yul\":24100:24103   */\n      0x00\n        /* \"#utility.yul\":24123:24147   */\n      tag_482\n        /* \"#utility.yul\":24141:24146   */\n      dup3\n        /* \"#utility.yul\":24123:24147   */\n      tag_202\n      jump\t// in\n    tag_482:\n        /* \"#utility.yul\":24114:24147   */\n      swap2\n      pop\n        /* \"#utility.yul\":24169:24235   */\n      0xffffffffffffffffffffffffffffffffffffffffffffffffffffffffffffffff\n        /* \"#utility.yul\":24162:24167   */\n      dup3\n        /* \"#utility.yul\":24159:24236   */\n      sub\n        /* \"#utility.yul\":24156:24259   */\n      tag_483\n      jumpi\n        /* \"#utility.yul\":24239:24257   */\n      tag_484\n      tag_228\n      jump\t// in\n    tag_484:\n        /* \"#utility.yul\":24156:24259   */\n    tag_483:\n        /* \"#utility.yul\":24286:24287   */\n      0x01\n        /* \"#utility.yul\":24279:24284   */\n      dup3\n        /* \"#utility.yul\":24275:24288   */\n      add\n        /* \"#utility.yul\":24268:24288   */\n      swap1\n      pop\n        /* \"#utility.yul\":24061:24294   */\n      swap2\n      swap1\n      pop\n      jump\t// out\n        /* \"#utility.yul\":24300:24472   */\n    tag_251:\n        /* \"#utility.yul\":24440:24464   */\n      0x566f74696e6720686173206e6f74207374617274656400000000000000000000\n        /* \"#utility.yul\":24436:24437   */\n      0x00\n        /* \"#utility.yul\":24428:24434   */\n      dup3\n        /* \"#utility.yul\":24424:24438   */\n      add\n        /* \"#utility.yul\":24417:24465   */\n      mstore\n        /* \"#utility.yul\":24300:24472   */\n      pop\n      jump\t// out\n        /* \"#utility.yul\":24478:24844   */\n    tag_252:\n        /* \"#utility.yul\":24620:24623   */\n      0x00\n        /* \"#utility.yul\":24641:24708   */\n      tag_487\n        /* \"#utility.yul\":24705:24707   */\n      0x16\n        /* \"#utility.yul\":24700:24703   */\n      dup4\n        /* \"#utility.yul\":24641:24708   */\n      tag_193\n      jump\t// in\n    tag_487:\n        /* \"#utility.yul\":24634:24708   */\n      swap2\n      pop\n        /* \"#utility.yul\":24717:24810   */\n      tag_488\n        /* \"#utility.yul\":24806:24809   */\n      dup3\n        /* \"#utility.yul\":24717:24810   */\n      tag_251\n      jump\t// in\n    tag_488:\n        /* \"#utility.yul\":24835:24837   */\n      0x20\n        /* \"#utility.yul\":24830:24833   */\n      dup3\n        /* \"#utility.yul\":24826:24838   */\n      add\n        /* \"#utility.yul\":24819:24838   */\n      swap1\n      pop\n        /* \"#utility.yul\":24478:24844   */\n      swap2\n      swap1\n      pop\n      jump\t// out\n        /* \"#utility.yul\":24850:25269   */\n    tag_144:\n        /* \"#utility.yul\":25016:25020   */\n      0x00\n        /* \"#utility.yul\":25054:25056   */\n      0x20\n        /* \"#utility.yul\":25043:25052   */\n      dup3\n        /* \"#utility.yul\":25039:25057   */\n      add\n        /* \"#utility.yul\":25031:25057   */\n      swap1\n      pop\n        /* \"#utility.yul\":25103:25112   */\n      dup2\n        /* \"#utility.yul\":25097:25101   */\n      dup2\n        /* \"#utility.yul\":25093:25113   */\n      sub\n        /* \"#utility.yul\":25089:25090   */\n      0x00\n        /* \"#utility.yul\":25078:25087   */\n      dup4\n        /* \"#utility.yul\":25074:25091   */\n      add\n        /* \"#utility.yul\":25067:25114   */\n      mstore\n        /* \"#utility.yul\":25131:25262   */\n      tag_490\n        /* \"#utility.yul\":25257:25261   */\n      dup2\n        /* \"#utility.yul\":25131:25262   */\n      tag_252\n      jump\t// in\n    tag_490:\n        /* \"#utility.yul\":25123:25262   */\n      swap1\n      pop\n        /* \"#utility.yul\":24850:25269   */\n      swap2\n      swap1\n      pop\n      jump\t// out\n        /* \"#utility.yul\":25275:25498   */\n    tag_253:\n        /* \"#utility.yul\":25415:25449   */\n      0x4e6f7420656e6f7567682063616e646961746573206861766520726567697374\n        /* \"#utility.yul\":25411:25412   */\n      0x00\n        /* \"#utility.yul\":25403:25409   */\n      dup3\n        /* \"#utility.yul\":25399:25413   */\n      add\n        /* \"#utility.yul\":25392:25450   */\n      mstore\n        /* \"#utility.yul\":25484:25490   */\n      0x6572656400000000000000000000000000000000000000000000000000000000\n        /* \"#utility.yul\":25479:25481   */\n      0x20\n        /* \"#utility.yul\":25471:25477   */\n      dup3\n        /* \"#utility.yul\":25467:25482   */\n      add\n        /* \"#utility.yul\":25460:25491   */\n      mstore\n        /* \"#utility.yul\":25275:25498   */\n      pop\n      jump\t// out\n        /* \"#utility.yul\":25504:25870   */\n    tag_254:\n        /* \"#utility.yul\":25646:25649   */\n      0x00\n        /* \"#utility.yul\":25667:25734   */\n      tag_493\n        /* \"#utility.yul\":25731:25733   */\n      0x24\n        /* \"#utility.yul\":25726:25729   */\n      dup4\n        /* \"#utility.yul\":25667:25734   */\n      tag_193\n      jump\t// in\n    tag_493:\n        /* \"#utility.yul\":25660:25734   */\n      swap2\n      pop\n        /* \"#utility.yul\":25743:25836   */\n      tag_494\n        /* \"#utility.yul\":25832:25835   */\n      dup3\n        /* \"#utility.yul\":25743:25836   */\n      tag_253\n      jump\t// in\n    tag_494:\n        /* \"#utility.yul\":25861:25863   */\n      0x40\n        /* \"#utility.yul\":25856:25859   */\n      dup3\n        /* \"#utility.yul\":25852:25864   */\n      add\n        /* \"#utility.yul\":25845:25864   */\n      swap1\n      pop\n        /* \"#utility.yul\":25504:25870   */\n      swap2\n      swap1\n      pop\n      jump\t// out\n        /* \"#utility.yul\":25876:26295   */\n    tag_147:\n        /* \"#utility.yul\":26042:26046   */\n      0x00\n        /* \"#utility.yul\":26080:26082   */\n      0x20\n        /* \"#utility.yul\":26069:26078   */\n      dup3\n        /* \"#utility.yul\":26065:26083   */\n      add\n        /* \"#utility.yul\":26057:26083   */\n      swap1\n      pop\n        /* \"#utility.yul\":26129:26138   */\n      dup2\n        /* \"#utility.yul\":26123:26127   */\n      dup2\n        /* \"#utility.yul\":26119:26139   */\n      sub\n        /* \"#utility.yul\":26115:26116   */\n      0x00\n        /* \"#utility.yul\":26104:26113   */\n      dup4\n        /* \"#utility.yul\":26100:26117   */\n      add\n        /* \"#utility.yul\":26093:26140   */\n      mstore\n        /* \"#utility.yul\":26157:26288   */\n      tag_496\n        /* \"#utility.yul\":26283:26287   */\n      dup2\n        /* \"#utility.yul\":26157:26288   */\n      tag_254\n      jump\t// in\n    tag_496:\n        /* \"#utility.yul\":26149:26288   */\n      swap1\n      pop\n        /* \"#utility.yul\":25876:26295   */\n      swap2\n      swap1\n      pop\n      jump\t// out\n        /* \"#utility.yul\":26301:26475   */\n    tag_255:\n        /* \"#utility.yul\":26441:26467   */\n      0x566f74696e672068617320616c726561647920656e6465640000000000000000\n        /* \"#utility.yul\":26437:26438   */\n      0x00\n        /* \"#utility.yul\":26429:26435   */\n      dup3\n        /* \"#utility.yul\":26425:26439   */\n      add\n        /* \"#utility.yul\":26418:26468   */\n      mstore\n        /* \"#utility.yul\":26301:26475   */\n      pop\n      jump\t// out\n        /* \"#utility.yul\":26481:26847   */\n    tag_256:\n        /* \"#utility.yul\":26623:26626   */\n      0x00\n        /* \"#utility.yul\":26644:26711   */\n      tag_499\n        /* \"#utility.yul\":26708:26710   */\n      0x18\n        /* \"#utility.yul\":26703:26706   */\n      dup4\n        /* \"#utility.yul\":26644:26711   */\n      tag_193\n      jump\t// in\n    tag_499:\n        /* \"#utility.yul\":26637:26711   */\n      swap2\n      pop\n        /* \"#utility.yul\":26720:26813   */\n      tag_500\n        /* \"#utility.yul\":26809:26812   */\n      dup3\n        /* \"#utility.yul\":26720:26813   */\n      tag_255\n      jump\t// in\n    tag_500:\n        /* \"#utility.yul\":26838:26840   */\n      0x20\n        /* \"#utility.yul\":26833:26836   */\n      dup3\n        /* \"#utility.yul\":26829:26841   */\n      add\n        /* \"#utility.yul\":26822:26841   */\n      swap1\n      pop\n        /* \"#utility.yul\":26481:26847   */\n      swap2\n      swap1\n      pop\n      jump\t// out\n        /* \"#utility.yul\":26853:27272   */\n    tag_150:\n        /* \"#utility.yul\":27019:27023   */\n      0x00\n        /* \"#utility.yul\":27057:27059   */\n      0x20\n        /* \"#utility.yul\":27046:27055   */\n      dup3\n        /* \"#utility.yul\":27042:27060   */\n      add\n        /* \"#utility.yul\":27034:27060   */\n      swap1\n      pop\n        /* \"#utility.yul\":27106:27115   */\n      dup2\n        /* \"#utility.yul\":27100:27104   */\n      dup2\n        /* \"#utility.yul\":27096:27116   */\n      sub\n        /* \"#utility.yul\":27092:27093   */\n      0x00\n        /* \"#utility.yul\":27081:27090   */\n      dup4\n        /* \"#utility.yul\":27077:27094   */\n      add\n        /* \"#utility.yul\":27070:27117   */\n      mstore\n        /* \"#utility.yul\":27134:27265   */\n      tag_502\n        /* \"#utility.yul\":27260:27264   */\n      dup2\n        /* \"#utility.yul\":27134:27265   */\n      tag_256\n      jump\t// in\n    tag_502:\n        /* \"#utility.yul\":27126:27265   */\n      swap1\n      pop\n        /* \"#utility.yul\":26853:27272   */\n      swap2\n      swap1\n      pop\n      jump\t// out\n        /* \"#utility.yul\":27278:27498   */\n    tag_257:\n        /* \"#utility.yul\":27418:27452   */\n      0x596f7520617265206e6f742072656769737465726564206173206120766f7465\n        /* \"#utility.yul\":27414:27415   */\n      0x00\n        /* \"#utility.yul\":27406:27412   */\n      dup3\n        /* \"#utility.yul\":27402:27416   */\n      add\n        /* \"#utility.yul\":27395:27453   */\n      mstore\n        /* \"#utility.yul\":27487:27490   */\n      0x7200000000000000000000000000000000000000000000000000000000000000\n        /* \"#utility.yul\":27482:27484   */\n      0x20\n        /* \"#utility.yul\":27474:27480   */\n      dup3\n        /* \"#utility.yul\":27470:27485   */\n      add\n        /* \"#utility.yul\":27463:27491   */\n      mstore\n        /* \"#utility.yul\":27278:27498   */\n      pop\n      jump\t// out\n        /* \"#utility.yul\":27504:27870   */\n    tag_258:\n        /* \"#utility.yul\":27646:27649   */\n      0x00\n        /* \"#utility.yul\":27667:27734   */\n      tag_505\n        /* \"#utility.yul\":27731:27733   */\n      0x21\n        /* \"#utility.yul\":27726:27729   */\n      dup4\n        /* \"#utility.yul\":27667:27734   */\n      tag_193\n      jump\t// in\n    tag_505:\n        /* \"#utility.yul\":27660:27734   */\n      swap2\n      pop\n        /* \"#utility.yul\":27743:27836   */\n      tag_506\n        /* \"#utility.yul\":27832:27835   */\n      dup3\n        /* \"#utility.yul\":27743:27836   */\n      tag_257\n      jump\t// in\n    tag_506:\n        /* \"#utility.yul\":27861:27863   */\n      0x40\n        /* \"#utility.yul\":27856:27859   */\n      dup3\n        /* \"#utility.yul\":27852:27864   */\n      add\n        /* \"#utility.yul\":27845:27864   */\n      swap1\n      pop\n        /* \"#utility.yul\":27504:27870   */\n      swap2\n      swap1\n      pop\n      jump\t// out\n        /* \"#utility.yul\":27876:28295   */\n    tag_154:\n        /* \"#utility.yul\":28042:28046   */\n      0x00\n        /* \"#utility.yul\":28080:28082   */\n      0x20\n        /* \"#utility.yul\":28069:28078   */\n      dup3\n        /* \"#utility.yul\":28065:28083   */\n      add\n        /* \"#utility.yul\":28057:28083   */\n      swap1\n      pop\n        /* \"#utility.yul\":28129:28138   */\n      dup2\n        /* \"#utility.yul\":28123:28127   */\n      dup2\n        /* \"#utility.yul\":28119:28139   */\n      sub\n        /* \"#utility.yul\":28115:28116   */\n      0x00\n        /* \"#utility.yul\":28104:28113   */\n      dup4\n        /* \"#utility.yul\":28100:28117   */\n      add\n        /* \"#utility.yul\":28093:28140   */\n      mstore\n        /* \"#utility.yul\":28157:28288   */\n      tag_508\n        /* \"#utility.yul\":28283:28287   */\n      dup2\n        /* \"#utility.yul\":28157:28288   */\n      tag_258\n      jump\t// in\n    tag_508:\n        /* \"#utility.yul\":28149:28288   */\n      swap1\n      pop\n        /* \"#utility.yul\":27876:28295   */\n      swap2\n      swap1\n      pop\n      jump\t// out\n        /* \"#utility.yul\":28301:28473   */\n    tag_259:\n        /* \"#utility.yul\":28441:28465   */\n      0x596f75206861766520616c726561647920766f74656400000000000000000000\n        /* \"#utility.yul\":28437:28438   */\n      0x00\n        /* \"#utility.yul\":28429:28435   */\n      dup3\n        /* \"#utility.yul\":28425:28439   */\n      add\n        /* \"#utility.yul\":28418:28466   */\n      mstore\n        /* \"#utility.yul\":28301:28473   */\n      pop\n      jump\t// out\n        /* \"#utility.yul\":28479:28845   */\n    tag_260:\n        /* \"#utility.yul\":28621:28624   */\n      0x00\n        /* \"#utility.yul\":28642:28709   */\n      tag_511\n        /* \"#utility.yul\":28706:28708   */\n      0x16\n        /* \"#utility.yul\":28701:28704   */\n      dup4\n        /* \"#utility.yul\":28642:28709   */\n      tag_193\n      jump\t// in\n    tag_511:\n        /* \"#utility.yul\":28635:28709   */\n      swap2\n      pop\n        /* \"#utility.yul\":28718:28811   */\n      tag_512\n        /* \"#utility.yul\":28807:28810   */\n      dup3\n        /* \"#utility.yul\":28718:28811   */\n      tag_259\n      jump\t// in\n    tag_512:\n        /* \"#utility.yul\":28836:28838   */\n      0x20\n        /* \"#utility.yul\":28831:28834   */\n      dup3\n        /* \"#utility.yul\":28827:28839   */\n      add\n        /* \"#utility.yul\":28820:28839   */\n      swap1\n      pop\n        /* \"#utility.yul\":28479:28845   */\n      swap2\n      swap1\n      pop\n      jump\t// out\n        /* \"#utility.yul\":28851:29270   */\n    tag_157:\n        /* \"#utility.yul\":29017:29021   */\n      0x00\n        /* \"#utility.yul\":29055:29057   */\n      0x20\n        /* \"#utility.yul\":29044:29053   */\n      dup3\n        /* \"#utility.yul\":29040:29058   */\n      add\n        /* \"#utility.yul\":29032:29058   */\n      swap1\n      pop\n        /* \"#utility.yul\":29104:29113   */\n      dup2\n        /* \"#utility.yul\":29098:29102   */\n      dup2\n        /* \"#utility.yul\":29094:29114   */\n      sub\n        /* \"#utility.yul\":29090:29091   */\n      0x00\n        /* \"#utility.yul\":29079:29088   */\n      dup4\n        /* \"#utility.yul\":29075:29092   */\n      add\n        /* \"#utility.yul\":29068:29115   */\n      mstore\n        /* \"#utility.yul\":29132:29263   */\n      tag_514\n        /* \"#utility.yul\":29258:29262   */\n      dup2\n        /* \"#utility.yul\":29132:29263   */\n      tag_260\n      jump\t// in\n    tag_514:\n        /* \"#utility.yul\":29124:29263   */\n      swap1\n      pop\n        /* \"#utility.yul\":28851:29270   */\n      swap2\n      swap1\n      pop\n      jump\t// out\n        /* \"#utility.yul\":29276:29520   */\n    tag_261:\n        /* \"#utility.yul\":29416:29450   */\n      0x54686520706572736f6e20796f752077616e7420746f20766f7465206973206e\n        /* \"#utility.yul\":29412:29413   */\n      0x00\n        /* \"#utility.yul\":29404:29410   */\n      dup3\n        /* \"#utility.yul\":29400:29414   */\n      add\n        /* \"#utility.yul\":29393:29451   */\n      mstore\n        /* \"#utility.yul\":29485:29512   */\n      0x6f74206120726567697374657265642063616e64696461746500000000000000\n        /* \"#utility.yul\":29480:29482   */\n      0x20\n        /* \"#utility.yul\":29472:29478   */\n      dup3\n        /* \"#utility.yul\":29468:29483   */\n      add\n        /* \"#utility.yul\":29461:29513   */\n      mstore\n        /* \"#utility.yul\":29276:29520   */\n      pop\n      jump\t// out\n        /* \"#utility.yul\":29526:29892   */\n    tag_262:\n        /* \"#utility.yul\":29668:29671   */\n      0x00\n        /* \"#utility.yul\":29689:29756   */\n      tag_517\n        /* \"#utility.yul\":29753:29755   */\n      0x39\n        /* \"#utility.yul\":29748:29751   */\n      dup4\n        /* \"#utility.yul\":29689:29756   */\n      tag_193\n      jump\t// in\n    tag_517:\n        /* \"#utility.yul\":29682:29756   */\n      swap2\n      pop\n        /* \"#utility.yul\":29765:29858   */\n      tag_518\n        /* \"#utility.yul\":29854:29857   */\n      dup3\n        /* \"#utility.yul\":29765:29858   */\n      tag_261\n      jump\t// in\n    tag_518:\n        /* \"#utility.yul\":29883:29885   */\n      0x40\n        /* \"#utility.yul\":29878:29881   */\n      dup3\n        /* \"#utility.yul\":29874:29886   */\n      add\n        /* \"#utility.yul\":29867:29886   */\n      swap1\n      pop\n        /* \"#utility.yul\":29526:29892   */\n      swap2\n      swap1\n      pop\n      jump\t// out\n        /* \"#utility.yul\":29898:30317   */\n    tag_161:\n        /* \"#utility.yul\":30064:30068   */\n      0x00\n        /* \"#utility.yul\":30102:30104   */\n      0x20\n        /* \"#utility.yul\":30091:30100   */\n      dup3\n        /* \"#utility.yul\":30087:30105   */\n      add\n        /* \"#utility.yul\":30079:30105   */\n      swap1\n      pop\n        /* \"#utility.yul\":30151:30160   */\n      dup2\n        /* \"#utility.yul\":30145:30149   */\n      dup2\n        /* \"#utility.yul\":30141:30161   */\n      sub\n        /* \"#utility.yul\":30137:30138   */\n      0x00\n        /* \"#utility.yul\":30126:30135   */\n      dup4\n        /* \"#utility.yul\":30122:30139   */\n      add\n        /* \"#utility.yul\":30115:30162   */\n      mstore\n        /* \"#utility.yul\":30179:30310   */\n      tag_520\n        /* \"#utility.yul\":30305:30309   */\n      dup2\n        /* \"#utility.yul\":30179:30310   */\n      tag_262\n      jump\t// in\n    tag_520:\n        /* \"#utility.yul\":30171:30310   */\n      swap1\n      pop\n        /* \"#utility.yul\":29898:30317   */\n      swap2\n      swap1\n      pop\n      jump\t// out\n        /* \"#utility.yul\":30323:30500   */\n    tag_263:\n        /* \"#utility.yul\":30463:30492   */\n      0x596f75206861766520616c726561647920726567697374657265640000000000\n        /* \"#utility.yul\":30459:30460   */\n      0x00\n        /* \"#utility.yul\":30451:30457   */\n      dup3\n        /* \"#utility.yul\":30447:30461   */\n      add\n        /* \"#utility.yul\":30440:30493   */\n      mstore\n        /* \"#utility.yul\":30323:30500   */\n      pop\n      jump\t// out\n        /* \"#utility.yul\":30506:30872   */\n    tag_264:\n        /* \"#utility.yul\":30648:30651   */\n      0x00\n        /* \"#utility.yul\":30669:30736   */\n      tag_523\n        /* \"#utility.yul\":30733:30735   */\n      0x1b\n        /* \"#utility.yul\":30728:30731   */\n      dup4\n        /* \"#utility.yul\":30669:30736   */\n      tag_193\n      jump\t// in\n    tag_523:\n        /* \"#utility.yul\":30662:30736   */\n      swap2\n      pop\n        /* \"#utility.yul\":30745:30838   */\n      tag_524\n        /* \"#utility.yul\":30834:30837   */\n      dup3\n        /* \"#utility.yul\":30745:30838   */\n      tag_263\n      jump\t// in\n    tag_524:\n        /* \"#utility.yul\":30863:30865   */\n      0x20\n        /* \"#utility.yul\":30858:30861   */\n      dup3\n        /* \"#utility.yul\":30854:30866   */\n      add\n        /* \"#utility.yul\":30847:30866   */\n      swap1\n      pop\n        /* \"#utility.yul\":30506:30872   */\n      swap2\n      swap1\n      pop\n      jump\t// out\n        /* \"#utility.yul\":30878:31297   */\n    tag_174:\n        /* \"#utility.yul\":31044:31048   */\n      0x00\n        /* \"#utility.yul\":31082:31084   */\n      0x20\n        /* \"#utility.yul\":31071:31080   */\n      dup3\n        /* \"#utility.yul\":31067:31085   */\n      add\n        /* \"#utility.yul\":31059:31085   */\n      swap1\n      pop\n        /* \"#utility.yul\":31131:31140   */\n      dup2\n        /* \"#utility.yul\":31125:31129   */\n      dup2\n        /* \"#utility.yul\":31121:31141   */\n      sub\n        /* \"#utility.yul\":31117:31118   */\n      0x00\n        /* \"#utility.yul\":31106:31115   */\n      dup4\n        /* \"#utility.yul\":31102:31119   */\n      add\n        /* \"#utility.yul\":31095:31142   */\n      mstore\n        /* \"#utility.yul\":31159:31290   */\n      tag_526\n        /* \"#utility.yul\":31285:31289   */\n      dup2\n        /* \"#utility.yul\":31159:31290   */\n      tag_264\n      jump\t// in\n    tag_526:\n        /* \"#utility.yul\":31151:31290   */\n      swap1\n      pop\n        /* \"#utility.yul\":30878:31297   */\n      swap2\n      swap1\n      pop\n      jump\t// out\n        /* \"#utility.yul\":31303:31480   */\n    tag_265:\n        /* \"#utility.yul\":31443:31472   */\n      0x43616e64696461746520726567697374726174696f6e2066756c6c0000000000\n        /* \"#utility.yul\":31439:31440   */\n      0x00\n        /* \"#utility.yul\":31431:31437   */\n      dup3\n        /* \"#utility.yul\":31427:31441   */\n      add\n        /* \"#utility.yul\":31420:31473   */\n      mstore\n        /* \"#utility.yul\":31303:31480   */\n      pop\n      jump\t// out\n        /* \"#utility.yul\":31486:31852   */\n    tag_266:\n        /* \"#utility.yul\":31628:31631   */\n      0x00\n        /* \"#utility.yul\":31649:31716   */\n      tag_529\n        /* \"#utility.yul\":31713:31715   */\n      0x1b\n        /* \"#utility.yul\":31708:31711   */\n      dup4\n        /* \"#utility.yul\":31649:31716   */\n      tag_193\n      jump\t// in\n    tag_529:\n        /* \"#utility.yul\":31642:31716   */\n      swap2\n      pop\n        /* \"#utility.yul\":31725:31818   */\n      tag_530\n        /* \"#utility.yul\":31814:31817   */\n      dup3\n        /* \"#utility.yul\":31725:31818   */\n      tag_265\n      jump\t// in\n    tag_530:\n        /* \"#utility.yul\":31843:31845   */\n      0x20\n        /* \"#utility.yul\":31838:31841   */\n      dup3\n        /* \"#utility.yul\":31834:31846   */\n      add\n        /* \"#utility.yul\":31827:31846   */\n      swap1\n      pop\n        /* \"#utility.yul\":31486:31852   */\n      swap2\n      swap1\n      pop\n      jump\t// out\n        /* \"#utility.yul\":31858:32277   */\n    tag_177:\n        /* \"#utility.yul\":32024:32028   */\n      0x00\n        /* \"#utility.yul\":32062:32064   */\n      0x20\n        /* \"#utility.yul\":32051:32060   */\n      dup3\n        /* \"#utility.yul\":32047:32065   */\n      add\n        /* \"#utility.yul\":32039:32065   */\n      swap1\n      pop\n        /* \"#utility.yul\":32111:32120   */\n      dup2\n        /* \"#utility.yul\":32105:32109   */\n      dup2\n        /* \"#utility.yul\":32101:32121   */\n      sub\n        /* \"#utility.yul\":32097:32098   */\n      0x00\n        /* \"#utility.yul\":32086:32095   */\n      dup4\n        /* \"#utility.yul\":32082:32099   */\n      add\n        /* \"#utility.yul\":32075:32122   */\n      mstore\n        /* \"#utility.yul\":32139:32270   */\n      tag_532\n        /* \"#utility.yul\":32265:32269   */\n      dup2\n        /* \"#utility.yul\":32139:32270   */\n      tag_266\n      jump\t// in\n    tag_532:\n        /* \"#utility.yul\":32131:32270   */\n      swap1\n      pop\n        /* \"#utility.yul\":31858:32277   */\n      swap2\n      swap1\n      pop\n      jump\t// out\n\n    auxdata: 0xa2646970667358221220593f58f266bed54b751599e581b52631439547281996d173b272ab2e6e5f6a6264736f6c634300081a0033\n}\n",
				"bytecode": {
					"linkReferences": {},
					"object": "6080604052600160025560016003553480156018575f80fd5b50335f806101000a81548173ffffffffffffffffffffffffffffffffffffffff021916908373ffffffffffffffffffffffffffffffffffffffff1602179055506122ff806100655f395ff3fe608060405234801561000f575f80fd5b506004361061009c575f3560e01c806393e5fed21161006457806393e5fed214610120578063b384abef1461013c578063caa6fea414610158578063cf5ce2e714610162578063dfbf53ae1461017e5761009c565b806319f41a40146100a057806324089918146100be578063498ea441146100dc57806365372147146100fa57806365ca2be314610104575b5f80fd5b6100a861019c565b6040516100b591906113c5565b60405180910390f35b6100c6610284565b6040516100d391906115cc565b60405180910390f35b6100e46104e8565b6040516100f1919061174e565b60405180910390f35b6101026107dc565b005b61011e600480360381019061011991906117a0565b610937565b005b61013a6004803603810190610135919061183f565b6109e1565b005b610156600480360381019061015191906117a0565b610bfa565b005b610160610e01565b005b61017c600480360381019061017791906118d0565b610eaa565b005b610186611169565b60405161019391906119a3565b60405180910390f35b60605f600454036101e4576040518060400160405280601681526020017f566f74696e6720686173206e6f742073746172746564000000000000000000008152509050610281565b6005544210801561020657505f151560085f9054906101000a900460ff161515145b15610248576040518060400160405280601281526020017f566f74696e6720696e2070726f677265737300000000000000000000000000008152509050610281565b6040518060400160405280601081526020017f566f74696e672068617320656e6465640000000000000000000000000000000081525090505b90565b60605f600160025461029691906119e9565b67ffffffffffffffff8111156102af576102ae611a1c565b5b6040519080825280602002602001820160405280156102e857816020015b6102d56112be565b8152602001906001900390816102cd5790505b5090505f600190505b6002548110156104e05760065f8281526020019081526020015f206040518060c00160405290815f8201805461032690611a76565b80601f016020809104026020016040519081016040528092919081815260200182805461035290611a76565b801561039d5780601f106103745761010080835404028352916020019161039d565b820191905f5260205f20905b81548152906001019060200180831161038057829003601f168201915b5050505050815260200160018201548152602001600282015481526020016003820180546103ca90611a76565b80601f01602080910402602001604051908101604052809291908181526020018280546103f690611a76565b80156104415780601f1061041857610100808354040283529160200191610441565b820191905f5260205f20905b81548152906001019060200180831161042457829003601f168201915b5050505050815260200160048201548152602001600582015f9054906101000a900473ffffffffffffffffffffffffffffffffffffffff1673ffffffffffffffffffffffffffffffffffffffff1673ffffffffffffffffffffffffffffffffffffffff1681525050826001836104b791906119e9565b815181106104c8576104c7611aa6565b5b602002602001018190525080806001019150506102f1565b508091505090565b60605f60016003546104fa91906119e9565b67ffffffffffffffff81111561051357610512611a1c565b5b60405190808252806020026020018201604052801561054c57816020015b610539611306565b8152602001906001900390816105315790505b5090505f600190505b6003548110156107d45760075f8281526020019081526020015f206040518060e00160405290815f8201805461058a90611a76565b80601f01602080910402602001604051908101604052809291908181526020018280546105b690611a76565b80156106015780601f106105d857610100808354040283529160200191610601565b820191905f5260205f20905b8154815290600101906020018083116105e457829003601f168201915b5050505050815260200160018201805461061a90611a76565b80601f016020809104026020016040519081016040528092919081815260200182805461064690611a76565b80156106915780601f1061066857610100808354040283529160200191610691565b820191905f5260205f20905b81548152906001019060200180831161067457829003601f168201915b50505050508152602001600282015481526020016003820180546106b490611a76565b80601f01602080910402602001604051908101604052809291908181526020018280546106e090611a76565b801561072b5780601f106107025761010080835404028352916020019161072b565b820191905f5260205f20905b81548152906001019060200180831161070e57829003601f168201915b5050505050815260200160048201548152602001600582015f9054906101000a900473ffffffffffffffffffffffffffffffffffffffff1673ffffffffffffffffffffffffffffffffffffffff1673ffffffffffffffffffffffffffffffffffffffff168152602001600682015481525050826001836107ab91906119e9565b815181106107bc576107bb611aa6565b5b60200260200101819052508080600101915050610555565b508091505090565b5f8054906101000a900473ffffffffffffffffffffffffffffffffffffffff1673ffffffffffffffffffffffffffffffffffffffff163373ffffffffffffffffffffffffffffffffffffffff1614610869576040517f08c379a000000000000000000000000000000000000000000000000000000000815260040161086090611b43565b60405180910390fd5b5f805f600190505b6003548110156108bf578260075f8381526020019081526020015f206006015411156108b25760075f8281526020019081526020015f206006015492508091505b8080600101915050610871565b5060075f8281526020019081526020015f206005015f9054906101000a900473ffffffffffffffffffffffffffffffffffffffff1660015f6101000a81548173ffffffffffffffffffffffffffffffffffffffff021916908373ffffffffffffffffffffffffffffffffffffffff1602179055505050565b5f8054906101000a900473ffffffffffffffffffffffffffffffffffffffff1673ffffffffffffffffffffffffffffffffffffffff163373ffffffffffffffffffffffffffffffffffffffff16146109c4576040517f08c379a00000000000000000000000000000000000000000000000000000000081526004016109bb90611b43565b60405180910390fd5b8160048190555080826109d79190611b61565b6005819055505050565b6012831015610a25576040517f08c379a0000000000000000000000000000000000000000000000000000000008152600401610a1c90611bde565b60405180910390fd5b610a2e3361118e565b610a6d576040517f08c379a0000000000000000000000000000000000000000000000000000000008152600401610a6490611c46565b60405180910390fd5b6040518060c0016040528086868080601f0160208091040260200160405190810160405280939291908181526020018383808284375f81840152601f19601f820116905080830192505050505050508152602001848152602001600254815260200183838080601f0160208091040260200160405190810160405280939291908181526020018383808284375f81840152601f19601f8201169050808301925050505050505081526020015f81526020013373ffffffffffffffffffffffffffffffffffffffff1681525060065f60025481526020019081526020015f205f820151815f019081610b5e9190611e01565b5060208201518160010155604082015181600201556060820151816003019081610b889190611e01565b506080820151816004015560a0820151816005015f6101000a81548173ffffffffffffffffffffffffffffffffffffffff021916908373ffffffffffffffffffffffffffffffffffffffff16021790555090505060025f815480929190610bee90611ed0565b91905055505050505050565b5f60045403610c3e576040517f08c379a0000000000000000000000000000000000000000000000000000000008152600401610c3590611f61565b60405180910390fd5b600380541015610c83576040517f08c379a0000000000000000000000000000000000000000000000000000000008152600401610c7a90611fef565b60405180910390fd5b6005544210610cc7576040517f08c379a0000000000000000000000000000000000000000000000000000000008152600401610cbe90612057565b60405180910390fd5b5f82118015610cd7575060025482105b610d16576040517f08c379a0000000000000000000000000000000000000000000000000000000008152600401610d0d906120e5565b60405180910390fd5b5f60065f8481526020019081526020015f206004015414610d6c576040517f08c379a0000000000000000000000000000000000000000000000000000000008152600401610d639061214d565b60405180910390fd5b5f81118015610d7c575060035481105b610dbb576040517f08c379a0000000000000000000000000000000000000000000000000000000008152600401610db2906121db565b60405180910390fd5b8060065f8481526020019081526020015f206004018190555060075f8281526020019081526020015f206006015f815480929190610df890611ed0565b91905055505050565b5f8054906101000a900473ffffffffffffffffffffffffffffffffffffffff1673ffffffffffffffffffffffffffffffffffffffff163373ffffffffffffffffffffffffffffffffffffffff1614610e8e576040517f08c379a0000000000000000000000000000000000000000000000000000000008152600401610e8590611b43565b60405180910390fd5b600160085f6101000a81548160ff021916908315150217905550565b6012831015610eee576040517f08c379a0000000000000000000000000000000000000000000000000000000008152600401610ee590611bde565b60405180910390fd5b610ef733611226565b610f36576040517f08c379a0000000000000000000000000000000000000000000000000000000008152600401610f2d90612243565b60405180910390fd5b600560035410610f7b576040517f08c379a0000000000000000000000000000000000000000000000000000000008152600401610f72906122ab565b60405180910390fd5b6040518060e0016040528088888080601f0160208091040260200160405190810160405280939291908181526020018383808284375f81840152601f19601f82011690508083019250505050505050815260200186868080601f0160208091040260200160405190810160405280939291908181526020018383808284375f81840152601f19601f82011690508083019250505050505050815260200184815260200183838080601f0160208091040260200160405190810160405280939291908181526020018383808284375f81840152601f19601f82011690508083019250505050505050815260200160035481526020013373ffffffffffffffffffffffffffffffffffffffff1681526020015f81525060075f60035481526020019081526020015f205f820151815f0190816110b59190611e01565b5060208201518160010190816110cb9190611e01565b506040820151816002015560608201518160030190816110eb9190611e01565b506080820151816004015560a0820151816005015f6101000a81548173ffffffffffffffffffffffffffffffffffffffff021916908373ffffffffffffffffffffffffffffffffffffffff16021790555060c0820151816006015590505060035f81548092919061115b90611ed0565b919050555050505050505050565b60015f9054906101000a900473ffffffffffffffffffffffffffffffffffffffff1681565b5f80600190505b60025481101561121c578273ffffffffffffffffffffffffffffffffffffffff1660065f8381526020019081526020015f206005015f9054906101000a900473ffffffffffffffffffffffffffffffffffffffff1673ffffffffffffffffffffffffffffffffffffffff160361120f576001915050611221565b8080600101915050611195565b505f90505b919050565b5f80600190505b6003548110156112b3578273ffffffffffffffffffffffffffffffffffffffff1660075f8381526020019081526020015f206005015f9054906101000a900473ffffffffffffffffffffffffffffffffffffffff1673ffffffffffffffffffffffffffffffffffffffff16036112a6575f9150506112b9565b808060010191505061122d565b50600190505b919050565b6040518060c00160405280606081526020015f81526020015f8152602001606081526020015f81526020015f73ffffffffffffffffffffffffffffffffffffffff1681525090565b6040518060e0016040528060608152602001606081526020015f8152602001606081526020015f81526020015f73ffffffffffffffffffffffffffffffffffffffff1681526020015f81525090565b5f81519050919050565b5f82825260208201905092915050565b8281835e5f83830152505050565b5f601f19601f8301169050919050565b5f61139782611355565b6113a1818561135f565b93506113b181856020860161136f565b6113ba8161137d565b840191505092915050565b5f6020820190508181035f8301526113dd818461138d565b905092915050565b5f81519050919050565b5f82825260208201905092915050565b5f819050602082019050919050565b5f82825260208201905092915050565b5f61142882611355565b611432818561140e565b935061144281856020860161136f565b61144b8161137d565b840191505092915050565b5f819050919050565b61146881611456565b82525050565b5f73ffffffffffffffffffffffffffffffffffffffff82169050919050565b5f6114978261146e565b9050919050565b6114a78161148d565b82525050565b5f60c083015f8301518482035f8601526114c7828261141e565b91505060208301516114dc602086018261145f565b5060408301516114ef604086018261145f565b5060608301518482036060860152611507828261141e565b915050608083015161151c608086018261145f565b5060a083015161152f60a086018261149e565b508091505092915050565b5f61154583836114ad565b905092915050565b5f602082019050919050565b5f611563826113e5565b61156d81856113ef565b93508360208202850161157f856113ff565b805f5b858110156115ba578484038952815161159b858261153a565b94506115a68361154d565b925060208a01995050600181019050611582565b50829750879550505050505092915050565b5f6020820190508181035f8301526115e48184611559565b905092915050565b5f81519050919050565b5f82825260208201905092915050565b5f819050602082019050919050565b5f60e083015f8301518482035f86015261162f828261141e565b91505060208301518482036020860152611649828261141e565b915050604083015161165e604086018261145f565b5060608301518482036060860152611676828261141e565b915050608083015161168b608086018261145f565b5060a083015161169e60a086018261149e565b5060c08301516116b160c086018261145f565b508091505092915050565b5f6116c78383611615565b905092915050565b5f602082019050919050565b5f6116e5826115ec565b6116ef81856115f6565b93508360208202850161170185611606565b805f5b8581101561173c578484038952815161171d85826116bc565b9450611728836116cf565b925060208a01995050600181019050611704565b50829750879550505050505092915050565b5f6020820190508181035f83015261176681846116db565b905092915050565b5f80fd5b5f80fd5b61177f81611456565b8114611789575f80fd5b50565b5f8135905061179a81611776565b92915050565b5f80604083850312156117b6576117b561176e565b5b5f6117c38582860161178c565b92505060206117d48582860161178c565b9150509250929050565b5f80fd5b5f80fd5b5f80fd5b5f8083601f8401126117ff576117fe6117de565b5b8235905067ffffffffffffffff81111561181c5761181b6117e2565b5b602083019150836001820283011115611838576118376117e6565b5b9250929050565b5f805f805f606086880312156118585761185761176e565b5b5f86013567ffffffffffffffff81111561187557611874611772565b5b611881888289016117ea565b955095505060206118948882890161178c565b935050604086013567ffffffffffffffff8111156118b5576118b4611772565b5b6118c1888289016117ea565b92509250509295509295909350565b5f805f805f805f6080888a0312156118eb576118ea61176e565b5b5f88013567ffffffffffffffff81111561190857611907611772565b5b6119148a828b016117ea565b9750975050602088013567ffffffffffffffff81111561193757611936611772565b5b6119438a828b016117ea565b955095505060406119568a828b0161178c565b935050606088013567ffffffffffffffff81111561197757611976611772565b5b6119838a828b016117ea565b925092505092959891949750929550565b61199d8161148d565b82525050565b5f6020820190506119b65f830184611994565b92915050565b7f4e487b71000000000000000000000000000000000000000000000000000000005f52601160045260245ffd5b5f6119f382611456565b91506119fe83611456565b9250828203905081811115611a1657611a156119bc565b5b92915050565b7f4e487b71000000000000000000000000000000000000000000000000000000005f52604160045260245ffd5b7f4e487b71000000000000000000000000000000000000000000000000000000005f52602260045260245ffd5b5f6002820490506001821680611a8d57607f821691505b602082108103611aa057611a9f611a49565b5b50919050565b7f4e487b71000000000000000000000000000000000000000000000000000000005f52603260045260245ffd5b7f596f7520617265206e6f742066726f6d20456c656374696f6e20436f6d6d69735f8201527f696f6e0000000000000000000000000000000000000000000000000000000000602082015250565b5f611b2d60238361135f565b9150611b3882611ad3565b604082019050919050565b5f6020820190508181035f830152611b5a81611b21565b9050919050565b5f611b6b82611456565b9150611b7683611456565b9250828201905080821115611b8e57611b8d6119bc565b5b92915050565b7f41676520697320756e64657220313800000000000000000000000000000000005f82015250565b5f611bc8600f8361135f565b9150611bd382611b94565b602082019050919050565b5f6020820190508181035f830152611bf581611bbc565b9050919050565b7f566f74657220616c7265616479207265676973746572656400000000000000005f82015250565b5f611c3060188361135f565b9150611c3b82611bfc565b602082019050919050565b5f6020820190508181035f830152611c5d81611c24565b9050919050565b5f819050815f5260205f209050919050565b5f6020601f8301049050919050565b5f82821b905092915050565b5f60088302611cc07fffffffffffffffffffffffffffffffffffffffffffffffffffffffffffffffff82611c85565b611cca8683611c85565b95508019841693508086168417925050509392505050565b5f819050919050565b5f611d05611d00611cfb84611456565b611ce2565b611456565b9050919050565b5f819050919050565b611d1e83611ceb565b611d32611d2a82611d0c565b848454611c91565b825550505050565b5f90565b611d46611d3a565b611d51818484611d15565b505050565b5b81811015611d7457611d695f82611d3e565b600181019050611d57565b5050565b601f821115611db957611d8a81611c64565b611d9384611c76565b81016020851015611da2578190505b611db6611dae85611c76565b830182611d56565b50505b505050565b5f82821c905092915050565b5f611dd95f1984600802611dbe565b1980831691505092915050565b5f611df18383611dca565b9150826002028217905092915050565b611e0a82611355565b67ffffffffffffffff811115611e2357611e22611a1c565b5b611e2d8254611a76565b611e38828285611d78565b5f60209050601f831160018114611e69575f8415611e57578287015190505b611e618582611de6565b865550611ec8565b601f198416611e7786611c64565b5f5b82811015611e9e57848901518255600182019150602085019450602081019050611e79565b86831015611ebb5784890151611eb7601f891682611dca565b8355505b6001600288020188555050505b505050505050565b5f611eda82611456565b91507fffffffffffffffffffffffffffffffffffffffffffffffffffffffffffffffff8203611f0c57611f0b6119bc565b5b600182019050919050565b7f566f74696e6720686173206e6f742073746172746564000000000000000000005f82015250565b5f611f4b60168361135f565b9150611f5682611f17565b602082019050919050565b5f6020820190508181035f830152611f7881611f3f565b9050919050565b7f4e6f7420656e6f7567682063616e6469617465732068617665207265676973745f8201527f6572656400000000000000000000000000000000000000000000000000000000602082015250565b5f611fd960248361135f565b9150611fe482611f7f565b604082019050919050565b5f6020820190508181035f83015261200681611fcd565b9050919050565b7f566f74696e672068617320616c726561647920656e64656400000000000000005f82015250565b5f61204160188361135f565b915061204c8261200d565b602082019050919050565b5f6020820190508181035f83015261206e81612035565b9050919050565b7f596f7520617265206e6f742072656769737465726564206173206120766f74655f8201527f7200000000000000000000000000000000000000000000000000000000000000602082015250565b5f6120cf60218361135f565b91506120da82612075565b604082019050919050565b5f6020820190508181035f8301526120fc816120c3565b9050919050565b7f596f75206861766520616c726561647920766f746564000000000000000000005f82015250565b5f61213760168361135f565b915061214282612103565b602082019050919050565b5f6020820190508181035f8301526121648161212b565b9050919050565b7f54686520706572736f6e20796f752077616e7420746f20766f7465206973206e5f8201527f6f74206120726567697374657265642063616e64696461746500000000000000602082015250565b5f6121c560398361135f565b91506121d08261216b565b604082019050919050565b5f6020820190508181035f8301526121f2816121b9565b9050919050565b7f596f75206861766520616c7265616479207265676973746572656400000000005f82015250565b5f61222d601b8361135f565b9150612238826121f9565b602082019050919050565b5f6020820190508181035f83015261225a81612221565b9050919050565b7f43616e64696461746520726567697374726174696f6e2066756c6c00000000005f82015250565b5f612295601b8361135f565b91506122a082612261565b602082019050919050565b5f6020820190508181035f8301526122c281612289565b905091905056fea2646970667358221220593f58f266bed54b751599e581b52631439547281996d173b272ab2e6e5f6a6264736f6c634300081a0033",
					"opcodes": "PUSH1 0x80 PUSH1 0x40 MSTORE PUSH1 0x1 PUSH1 0x2 SSTORE PUSH1 0x1 PUSH1 0x3 SSTORE CALLVALUE DUP1 ISZERO PUSH1 0x18 JUMPI PUSH0 DUP1 REVERT JUMPDEST POP CALLER PUSH0 DUP1 PUSH2 0x100 EXP DUP2 SLOAD DUP2 PUSH20 0xFFFFFFFFFFFFFFFFFFFFFFFFFFFFFFFFFFFFFFFF MUL NOT AND SWAP1 DUP4 PUSH20 0xFFFFFFFFFFFFFFFFFFFFFFFFFFFFFFFFFFFFFFFF AND MUL OR SWAP1 SSTORE POP PUSH2 0x22FF DUP1 PUSH2 0x65 PUSH0 CODECOPY PUSH0 RETURN INVALID PUSH1 0x80 PUSH1 0x40 MSTORE CALLVALUE DUP1 ISZERO PUSH2 0xF JUMPI PUSH0 DUP1 REVERT JUMPDEST POP PUSH1 0x4 CALLDATASIZE LT PUSH2 0x9C JUMPI PUSH0 CALLDATALOAD PUSH1 0xE0 SHR DUP1 PUSH4 0x93E5FED2 GT PUSH2 0x64 JUMPI DUP1 PUSH4 0x93E5FED2 EQ PUSH2 0x120 JUMPI DUP1 PUSH4 0xB384ABEF EQ PUSH2 0x13C JUMPI DUP1 PUSH4 0xCAA6FEA4 EQ PUSH2 0x158 JUMPI DUP1 PUSH4 0xCF5CE2E7 EQ PUSH2 0x162 JUMPI DUP1 PUSH4 0xDFBF53AE EQ PUSH2 0x17E JUMPI PUSH2 0x9C JUMP JUMPDEST DUP1 PUSH4 0x19F41A40 EQ PUSH2 0xA0 JUMPI DUP1 PUSH4 0x24089918 EQ PUSH2 0xBE JUMPI DUP1 PUSH4 0x498EA441 EQ PUSH2 0xDC JUMPI DUP1 PUSH4 0x65372147 EQ PUSH2 0xFA JUMPI DUP1 PUSH4 0x65CA2BE3 EQ PUSH2 0x104 JUMPI JUMPDEST PUSH0 DUP1 REVERT JUMPDEST PUSH2 0xA8 PUSH2 0x19C JUMP JUMPDEST PUSH1 0x40 MLOAD PUSH2 0xB5 SWAP2 SWAP1 PUSH2 0x13C5 JUMP JUMPDEST PUSH1 0x40 MLOAD DUP1 SWAP2 SUB SWAP1 RETURN JUMPDEST PUSH2 0xC6 PUSH2 0x284 JUMP JUMPDEST PUSH1 0x40 MLOAD PUSH2 0xD3 SWAP2 SWAP1 PUSH2 0x15CC JUMP JUMPDEST PUSH1 0x40 MLOAD DUP1 SWAP2 SUB SWAP1 RETURN JUMPDEST PUSH2 0xE4 PUSH2 0x4E8 JUMP JUMPDEST PUSH1 0x40 MLOAD PUSH2 0xF1 SWAP2 SWAP1 PUSH2 0x174E JUMP JUMPDEST PUSH1 0x40 MLOAD DUP1 SWAP2 SUB SWAP1 RETURN JUMPDEST PUSH2 0x102 PUSH2 0x7DC JUMP JUMPDEST STOP JUMPDEST PUSH2 0x11E PUSH1 0x4 DUP1 CALLDATASIZE SUB DUP2 ADD SWAP1 PUSH2 0x119 SWAP2 SWAP1 PUSH2 0x17A0 JUMP JUMPDEST PUSH2 0x937 JUMP JUMPDEST STOP JUMPDEST PUSH2 0x13A PUSH1 0x4 DUP1 CALLDATASIZE SUB DUP2 ADD SWAP1 PUSH2 0x135 SWAP2 SWAP1 PUSH2 0x183F JUMP JUMPDEST PUSH2 0x9E1 JUMP JUMPDEST STOP JUMPDEST PUSH2 0x156 PUSH1 0x4 DUP1 CALLDATASIZE SUB DUP2 ADD SWAP1 PUSH2 0x151 SWAP2 SWAP1 PUSH2 0x17A0 JUMP JUMPDEST PUSH2 0xBFA JUMP JUMPDEST STOP JUMPDEST PUSH2 0x160 PUSH2 0xE01 JUMP JUMPDEST STOP JUMPDEST PUSH2 0x17C PUSH1 0x4 DUP1 CALLDATASIZE SUB DUP2 ADD SWAP1 PUSH2 0x177 SWAP2 SWAP1 PUSH2 0x18D0 JUMP JUMPDEST PUSH2 0xEAA JUMP JUMPDEST STOP JUMPDEST PUSH2 0x186 PUSH2 0x1169 JUMP JUMPDEST PUSH1 0x40 MLOAD PUSH2 0x193 SWAP2 SWAP1 PUSH2 0x19A3 JUMP JUMPDEST PUSH1 0x40 MLOAD DUP1 SWAP2 SUB SWAP1 RETURN JUMPDEST PUSH1 0x60 PUSH0 PUSH1 0x4 SLOAD SUB PUSH2 0x1E4 JUMPI PUSH1 0x40 MLOAD DUP1 PUSH1 0x40 ADD PUSH1 0x40 MSTORE DUP1 PUSH1 0x16 DUP2 MSTORE PUSH1 0x20 ADD PUSH32 0x566F74696E6720686173206E6F74207374617274656400000000000000000000 DUP2 MSTORE POP SWAP1 POP PUSH2 0x281 JUMP JUMPDEST PUSH1 0x5 SLOAD TIMESTAMP LT DUP1 ISZERO PUSH2 0x206 JUMPI POP PUSH0 ISZERO ISZERO PUSH1 0x8 PUSH0 SWAP1 SLOAD SWAP1 PUSH2 0x100 EXP SWAP1 DIV PUSH1 0xFF AND ISZERO ISZERO EQ JUMPDEST ISZERO PUSH2 0x248 JUMPI PUSH1 0x40 MLOAD DUP1 PUSH1 0x40 ADD PUSH1 0x40 MSTORE DUP1 PUSH1 0x12 DUP2 MSTORE PUSH1 0x20 ADD PUSH32 0x566F74696E6720696E2070726F67726573730000000000000000000000000000 DUP2 MSTORE POP SWAP1 POP PUSH2 0x281 JUMP JUMPDEST PUSH1 0x40 MLOAD DUP1 PUSH1 0x40 ADD PUSH1 0x40 MSTORE DUP1 PUSH1 0x10 DUP2 MSTORE PUSH1 0x20 ADD PUSH32 0x566F74696E672068617320656E64656400000000000000000000000000000000 DUP2 MSTORE POP SWAP1 POP JUMPDEST SWAP1 JUMP JUMPDEST PUSH1 0x60 PUSH0 PUSH1 0x1 PUSH1 0x2 SLOAD PUSH2 0x296 SWAP2 SWAP1 PUSH2 0x19E9 JUMP JUMPDEST PUSH8 0xFFFFFFFFFFFFFFFF DUP2 GT ISZERO PUSH2 0x2AF JUMPI PUSH2 0x2AE PUSH2 0x1A1C JUMP JUMPDEST JUMPDEST PUSH1 0x40 MLOAD SWAP1 DUP1 DUP3 MSTORE DUP1 PUSH1 0x20 MUL PUSH1 0x20 ADD DUP3 ADD PUSH1 0x40 MSTORE DUP1 ISZERO PUSH2 0x2E8 JUMPI DUP2 PUSH1 0x20 ADD JUMPDEST PUSH2 0x2D5 PUSH2 0x12BE JUMP JUMPDEST DUP2 MSTORE PUSH1 0x20 ADD SWAP1 PUSH1 0x1 SWAP1 SUB SWAP1 DUP2 PUSH2 0x2CD JUMPI SWAP1 POP JUMPDEST POP SWAP1 POP PUSH0 PUSH1 0x1 SWAP1 POP JUMPDEST PUSH1 0x2 SLOAD DUP2 LT ISZERO PUSH2 0x4E0 JUMPI PUSH1 0x6 PUSH0 DUP3 DUP2 MSTORE PUSH1 0x20 ADD SWAP1 DUP2 MSTORE PUSH1 0x20 ADD PUSH0 KECCAK256 PUSH1 0x40 MLOAD DUP1 PUSH1 0xC0 ADD PUSH1 0x40 MSTORE SWAP1 DUP2 PUSH0 DUP3 ADD DUP1 SLOAD PUSH2 0x326 SWAP1 PUSH2 0x1A76 JUMP JUMPDEST DUP1 PUSH1 0x1F ADD PUSH1 0x20 DUP1 SWAP2 DIV MUL PUSH1 0x20 ADD PUSH1 0x40 MLOAD SWAP1 DUP2 ADD PUSH1 0x40 MSTORE DUP1 SWAP3 SWAP2 SWAP1 DUP2 DUP2 MSTORE PUSH1 0x20 ADD DUP3 DUP1 SLOAD PUSH2 0x352 SWAP1 PUSH2 0x1A76 JUMP JUMPDEST DUP1 ISZERO PUSH2 0x39D JUMPI DUP1 PUSH1 0x1F LT PUSH2 0x374 JUMPI PUSH2 0x100 DUP1 DUP4 SLOAD DIV MUL DUP4 MSTORE SWAP2 PUSH1 0x20 ADD SWAP2 PUSH2 0x39D JUMP JUMPDEST DUP3 ADD SWAP2 SWAP1 PUSH0 MSTORE PUSH1 0x20 PUSH0 KECCAK256 SWAP1 JUMPDEST DUP2 SLOAD DUP2 MSTORE SWAP1 PUSH1 0x1 ADD SWAP1 PUSH1 0x20 ADD DUP1 DUP4 GT PUSH2 0x380 JUMPI DUP3 SWAP1 SUB PUSH1 0x1F AND DUP3 ADD SWAP2 JUMPDEST POP POP POP POP POP DUP2 MSTORE PUSH1 0x20 ADD PUSH1 0x1 DUP3 ADD SLOAD DUP2 MSTORE PUSH1 0x20 ADD PUSH1 0x2 DUP3 ADD SLOAD DUP2 MSTORE PUSH1 0x20 ADD PUSH1 0x3 DUP3 ADD DUP1 SLOAD PUSH2 0x3CA SWAP1 PUSH2 0x1A76 JUMP JUMPDEST DUP1 PUSH1 0x1F ADD PUSH1 0x20 DUP1 SWAP2 DIV MUL PUSH1 0x20 ADD PUSH1 0x40 MLOAD SWAP1 DUP2 ADD PUSH1 0x40 MSTORE DUP1 SWAP3 SWAP2 SWAP1 DUP2 DUP2 MSTORE PUSH1 0x20 ADD DUP3 DUP1 SLOAD PUSH2 0x3F6 SWAP1 PUSH2 0x1A76 JUMP JUMPDEST DUP1 ISZERO PUSH2 0x441 JUMPI DUP1 PUSH1 0x1F LT PUSH2 0x418 JUMPI PUSH2 0x100 DUP1 DUP4 SLOAD DIV MUL DUP4 MSTORE SWAP2 PUSH1 0x20 ADD SWAP2 PUSH2 0x441 JUMP JUMPDEST DUP3 ADD SWAP2 SWAP1 PUSH0 MSTORE PUSH1 0x20 PUSH0 KECCAK256 SWAP1 JUMPDEST DUP2 SLOAD DUP2 MSTORE SWAP1 PUSH1 0x1 ADD SWAP1 PUSH1 0x20 ADD DUP1 DUP4 GT PUSH2 0x424 JUMPI DUP3 SWAP1 SUB PUSH1 0x1F AND DUP3 ADD SWAP2 JUMPDEST POP POP POP POP POP DUP2 MSTORE PUSH1 0x20 ADD PUSH1 0x4 DUP3 ADD SLOAD DUP2 MSTORE PUSH1 0x20 ADD PUSH1 0x5 DUP3 ADD PUSH0 SWAP1 SLOAD SWAP1 PUSH2 0x100 EXP SWAP1 DIV PUSH20 0xFFFFFFFFFFFFFFFFFFFFFFFFFFFFFFFFFFFFFFFF AND PUSH20 0xFFFFFFFFFFFFFFFFFFFFFFFFFFFFFFFFFFFFFFFF AND PUSH20 0xFFFFFFFFFFFFFFFFFFFFFFFFFFFFFFFFFFFFFFFF AND DUP2 MSTORE POP POP DUP3 PUSH1 0x1 DUP4 PUSH2 0x4B7 SWAP2 SWAP1 PUSH2 0x19E9 JUMP JUMPDEST DUP2 MLOAD DUP2 LT PUSH2 0x4C8 JUMPI PUSH2 0x4C7 PUSH2 0x1AA6 JUMP JUMPDEST JUMPDEST PUSH1 0x20 MUL PUSH1 0x20 ADD ADD DUP2 SWAP1 MSTORE POP DUP1 DUP1 PUSH1 0x1 ADD SWAP2 POP POP PUSH2 0x2F1 JUMP JUMPDEST POP DUP1 SWAP2 POP POP SWAP1 JUMP JUMPDEST PUSH1 0x60 PUSH0 PUSH1 0x1 PUSH1 0x3 SLOAD PUSH2 0x4FA SWAP2 SWAP1 PUSH2 0x19E9 JUMP JUMPDEST PUSH8 0xFFFFFFFFFFFFFFFF DUP2 GT ISZERO PUSH2 0x513 JUMPI PUSH2 0x512 PUSH2 0x1A1C JUMP JUMPDEST JUMPDEST PUSH1 0x40 MLOAD SWAP1 DUP1 DUP3 MSTORE DUP1 PUSH1 0x20 MUL PUSH1 0x20 ADD DUP3 ADD PUSH1 0x40 MSTORE DUP1 ISZERO PUSH2 0x54C JUMPI DUP2 PUSH1 0x20 ADD JUMPDEST PUSH2 0x539 PUSH2 0x1306 JUMP JUMPDEST DUP2 MSTORE PUSH1 0x20 ADD SWAP1 PUSH1 0x1 SWAP1 SUB SWAP1 DUP2 PUSH2 0x531 JUMPI SWAP1 POP JUMPDEST POP SWAP1 POP PUSH0 PUSH1 0x1 SWAP1 POP JUMPDEST PUSH1 0x3 SLOAD DUP2 LT ISZERO PUSH2 0x7D4 JUMPI PUSH1 0x7 PUSH0 DUP3 DUP2 MSTORE PUSH1 0x20 ADD SWAP1 DUP2 MSTORE PUSH1 0x20 ADD PUSH0 KECCAK256 PUSH1 0x40 MLOAD DUP1 PUSH1 0xE0 ADD PUSH1 0x40 MSTORE SWAP1 DUP2 PUSH0 DUP3 ADD DUP1 SLOAD PUSH2 0x58A SWAP1 PUSH2 0x1A76 JUMP JUMPDEST DUP1 PUSH1 0x1F ADD PUSH1 0x20 DUP1 SWAP2 DIV MUL PUSH1 0x20 ADD PUSH1 0x40 MLOAD SWAP1 DUP2 ADD PUSH1 0x40 MSTORE DUP1 SWAP3 SWAP2 SWAP1 DUP2 DUP2 MSTORE PUSH1 0x20 ADD DUP3 DUP1 SLOAD PUSH2 0x5B6 SWAP1 PUSH2 0x1A76 JUMP JUMPDEST DUP1 ISZERO PUSH2 0x601 JUMPI DUP1 PUSH1 0x1F LT PUSH2 0x5D8 JUMPI PUSH2 0x100 DUP1 DUP4 SLOAD DIV MUL DUP4 MSTORE SWAP2 PUSH1 0x20 ADD SWAP2 PUSH2 0x601 JUMP JUMPDEST DUP3 ADD SWAP2 SWAP1 PUSH0 MSTORE PUSH1 0x20 PUSH0 KECCAK256 SWAP1 JUMPDEST DUP2 SLOAD DUP2 MSTORE SWAP1 PUSH1 0x1 ADD SWAP1 PUSH1 0x20 ADD DUP1 DUP4 GT PUSH2 0x5E4 JUMPI DUP3 SWAP1 SUB PUSH1 0x1F AND DUP3 ADD SWAP2 JUMPDEST POP POP POP POP POP DUP2 MSTORE PUSH1 0x20 ADD PUSH1 0x1 DUP3 ADD DUP1 SLOAD PUSH2 0x61A SWAP1 PUSH2 0x1A76 JUMP JUMPDEST DUP1 PUSH1 0x1F ADD PUSH1 0x20 DUP1 SWAP2 DIV MUL PUSH1 0x20 ADD PUSH1 0x40 MLOAD SWAP1 DUP2 ADD PUSH1 0x40 MSTORE DUP1 SWAP3 SWAP2 SWAP1 DUP2 DUP2 MSTORE PUSH1 0x20 ADD DUP3 DUP1 SLOAD PUSH2 0x646 SWAP1 PUSH2 0x1A76 JUMP JUMPDEST DUP1 ISZERO PUSH2 0x691 JUMPI DUP1 PUSH1 0x1F LT PUSH2 0x668 JUMPI PUSH2 0x100 DUP1 DUP4 SLOAD DIV MUL DUP4 MSTORE SWAP2 PUSH1 0x20 ADD SWAP2 PUSH2 0x691 JUMP JUMPDEST DUP3 ADD SWAP2 SWAP1 PUSH0 MSTORE PUSH1 0x20 PUSH0 KECCAK256 SWAP1 JUMPDEST DUP2 SLOAD DUP2 MSTORE SWAP1 PUSH1 0x1 ADD SWAP1 PUSH1 0x20 ADD DUP1 DUP4 GT PUSH2 0x674 JUMPI DUP3 SWAP1 SUB PUSH1 0x1F AND DUP3 ADD SWAP2 JUMPDEST POP POP POP POP POP DUP2 MSTORE PUSH1 0x20 ADD PUSH1 0x2 DUP3 ADD SLOAD DUP2 MSTORE PUSH1 0x20 ADD PUSH1 0x3 DUP3 ADD DUP1 SLOAD PUSH2 0x6B4 SWAP1 PUSH2 0x1A76 JUMP JUMPDEST DUP1 PUSH1 0x1F ADD PUSH1 0x20 DUP1 SWAP2 DIV MUL PUSH1 0x20 ADD PUSH1 0x40 MLOAD SWAP1 DUP2 ADD PUSH1 0x40 MSTORE DUP1 SWAP3 SWAP2 SWAP1 DUP2 DUP2 MSTORE PUSH1 0x20 ADD DUP3 DUP1 SLOAD PUSH2 0x6E0 SWAP1 PUSH2 0x1A76 JUMP JUMPDEST DUP1 ISZERO PUSH2 0x72B JUMPI DUP1 PUSH1 0x1F LT PUSH2 0x702 JUMPI PUSH2 0x100 DUP1 DUP4 SLOAD DIV MUL DUP4 MSTORE SWAP2 PUSH1 0x20 ADD SWAP2 PUSH2 0x72B JUMP JUMPDEST DUP3 ADD SWAP2 SWAP1 PUSH0 MSTORE PUSH1 0x20 PUSH0 KECCAK256 SWAP1 JUMPDEST DUP2 SLOAD DUP2 MSTORE SWAP1 PUSH1 0x1 ADD SWAP1 PUSH1 0x20 ADD DUP1 DUP4 GT PUSH2 0x70E JUMPI DUP3 SWAP1 SUB PUSH1 0x1F AND DUP3 ADD SWAP2 JUMPDEST POP POP POP POP POP DUP2 MSTORE PUSH1 0x20 ADD PUSH1 0x4 DUP3 ADD SLOAD DUP2 MSTORE PUSH1 0x20 ADD PUSH1 0x5 DUP3 ADD PUSH0 SWAP1 SLOAD SWAP1 PUSH2 0x100 EXP SWAP1 DIV PUSH20 0xFFFFFFFFFFFFFFFFFFFFFFFFFFFFFFFFFFFFFFFF AND PUSH20 0xFFFFFFFFFFFFFFFFFFFFFFFFFFFFFFFFFFFFFFFF AND PUSH20 0xFFFFFFFFFFFFFFFFFFFFFFFFFFFFFFFFFFFFFFFF AND DUP2 MSTORE PUSH1 0x20 ADD PUSH1 0x6 DUP3 ADD SLOAD DUP2 MSTORE POP POP DUP3 PUSH1 0x1 DUP4 PUSH2 0x7AB SWAP2 SWAP1 PUSH2 0x19E9 JUMP JUMPDEST DUP2 MLOAD DUP2 LT PUSH2 0x7BC JUMPI PUSH2 0x7BB PUSH2 0x1AA6 JUMP JUMPDEST JUMPDEST PUSH1 0x20 MUL PUSH1 0x20 ADD ADD DUP2 SWAP1 MSTORE POP DUP1 DUP1 PUSH1 0x1 ADD SWAP2 POP POP PUSH2 0x555 JUMP JUMPDEST POP DUP1 SWAP2 POP POP SWAP1 JUMP JUMPDEST PUSH0 DUP1 SLOAD SWAP1 PUSH2 0x100 EXP SWAP1 DIV PUSH20 0xFFFFFFFFFFFFFFFFFFFFFFFFFFFFFFFFFFFFFFFF AND PUSH20 0xFFFFFFFFFFFFFFFFFFFFFFFFFFFFFFFFFFFFFFFF AND CALLER PUSH20 0xFFFFFFFFFFFFFFFFFFFFFFFFFFFFFFFFFFFFFFFF AND EQ PUSH2 0x869 JUMPI PUSH1 0x40 MLOAD PUSH32 0x8C379A000000000000000000000000000000000000000000000000000000000 DUP2 MSTORE PUSH1 0x4 ADD PUSH2 0x860 SWAP1 PUSH2 0x1B43 JUMP JUMPDEST PUSH1 0x40 MLOAD DUP1 SWAP2 SUB SWAP1 REVERT JUMPDEST PUSH0 DUP1 PUSH0 PUSH1 0x1 SWAP1 POP JUMPDEST PUSH1 0x3 SLOAD DUP2 LT ISZERO PUSH2 0x8BF JUMPI DUP3 PUSH1 0x7 PUSH0 DUP4 DUP2 MSTORE PUSH1 0x20 ADD SWAP1 DUP2 MSTORE PUSH1 0x20 ADD PUSH0 KECCAK256 PUSH1 0x6 ADD SLOAD GT ISZERO PUSH2 0x8B2 JUMPI PUSH1 0x7 PUSH0 DUP3 DUP2 MSTORE PUSH1 0x20 ADD SWAP1 DUP2 MSTORE PUSH1 0x20 ADD PUSH0 KECCAK256 PUSH1 0x6 ADD SLOAD SWAP3 POP DUP1 SWAP2 POP JUMPDEST DUP1 DUP1 PUSH1 0x1 ADD SWAP2 POP POP PUSH2 0x871 JUMP JUMPDEST POP PUSH1 0x7 PUSH0 DUP3 DUP2 MSTORE PUSH1 0x20 ADD SWAP1 DUP2 MSTORE PUSH1 0x20 ADD PUSH0 KECCAK256 PUSH1 0x5 ADD PUSH0 SWAP1 SLOAD SWAP1 PUSH2 0x100 EXP SWAP1 DIV PUSH20 0xFFFFFFFFFFFFFFFFFFFFFFFFFFFFFFFFFFFFFFFF AND PUSH1 0x1 PUSH0 PUSH2 0x100 EXP DUP2 SLOAD DUP2 PUSH20 0xFFFFFFFFFFFFFFFFFFFFFFFFFFFFFFFFFFFFFFFF MUL NOT AND SWAP1 DUP4 PUSH20 0xFFFFFFFFFFFFFFFFFFFFFFFFFFFFFFFFFFFFFFFF AND MUL OR SWAP1 SSTORE POP POP POP JUMP JUMPDEST PUSH0 DUP1 SLOAD SWAP1 PUSH2 0x100 EXP SWAP1 DIV PUSH20 0xFFFFFFFFFFFFFFFFFFFFFFFFFFFFFFFFFFFFFFFF AND PUSH20 0xFFFFFFFFFFFFFFFFFFFFFFFFFFFFFFFFFFFFFFFF AND CALLER PUSH20 0xFFFFFFFFFFFFFFFFFFFFFFFFFFFFFFFFFFFFFFFF AND EQ PUSH2 0x9C4 JUMPI PUSH1 0x40 MLOAD PUSH32 0x8C379A000000000000000000000000000000000000000000000000000000000 DUP2 MSTORE PUSH1 0x4 ADD PUSH2 0x9BB SWAP1 PUSH2 0x1B43 JUMP JUMPDEST PUSH1 0x40 MLOAD DUP1 SWAP2 SUB SWAP1 REVERT JUMPDEST DUP2 PUSH1 0x4 DUP2 SWAP1 SSTORE POP DUP1 DUP3 PUSH2 0x9D7 SWAP2 SWAP1 PUSH2 0x1B61 JUMP JUMPDEST PUSH1 0x5 DUP2 SWAP1 SSTORE POP POP POP JUMP JUMPDEST PUSH1 0x12 DUP4 LT ISZERO PUSH2 0xA25 JUMPI PUSH1 0x40 MLOAD PUSH32 0x8C379A000000000000000000000000000000000000000000000000000000000 DUP2 MSTORE PUSH1 0x4 ADD PUSH2 0xA1C SWAP1 PUSH2 0x1BDE JUMP JUMPDEST PUSH1 0x40 MLOAD DUP1 SWAP2 SUB SWAP1 REVERT JUMPDEST PUSH2 0xA2E CALLER PUSH2 0x118E JUMP JUMPDEST PUSH2 0xA6D JUMPI PUSH1 0x40 MLOAD PUSH32 0x8C379A000000000000000000000000000000000000000000000000000000000 DUP2 MSTORE PUSH1 0x4 ADD PUSH2 0xA64 SWAP1 PUSH2 0x1C46 JUMP JUMPDEST PUSH1 0x40 MLOAD DUP1 SWAP2 SUB SWAP1 REVERT JUMPDEST PUSH1 0x40 MLOAD DUP1 PUSH1 0xC0 ADD PUSH1 0x40 MSTORE DUP1 DUP7 DUP7 DUP1 DUP1 PUSH1 0x1F ADD PUSH1 0x20 DUP1 SWAP2 DIV MUL PUSH1 0x20 ADD PUSH1 0x40 MLOAD SWAP1 DUP2 ADD PUSH1 0x40 MSTORE DUP1 SWAP4 SWAP3 SWAP2 SWAP1 DUP2 DUP2 MSTORE PUSH1 0x20 ADD DUP4 DUP4 DUP1 DUP3 DUP5 CALLDATACOPY PUSH0 DUP2 DUP5 ADD MSTORE PUSH1 0x1F NOT PUSH1 0x1F DUP3 ADD AND SWAP1 POP DUP1 DUP4 ADD SWAP3 POP POP POP POP POP POP POP DUP2 MSTORE PUSH1 0x20 ADD DUP5 DUP2 MSTORE PUSH1 0x20 ADD PUSH1 0x2 SLOAD DUP2 MSTORE PUSH1 0x20 ADD DUP4 DUP4 DUP1 DUP1 PUSH1 0x1F ADD PUSH1 0x20 DUP1 SWAP2 DIV MUL PUSH1 0x20 ADD PUSH1 0x40 MLOAD SWAP1 DUP2 ADD PUSH1 0x40 MSTORE DUP1 SWAP4 SWAP3 SWAP2 SWAP1 DUP2 DUP2 MSTORE PUSH1 0x20 ADD DUP4 DUP4 DUP1 DUP3 DUP5 CALLDATACOPY PUSH0 DUP2 DUP5 ADD MSTORE PUSH1 0x1F NOT PUSH1 0x1F DUP3 ADD AND SWAP1 POP DUP1 DUP4 ADD SWAP3 POP POP POP POP POP POP POP DUP2 MSTORE PUSH1 0x20 ADD PUSH0 DUP2 MSTORE PUSH1 0x20 ADD CALLER PUSH20 0xFFFFFFFFFFFFFFFFFFFFFFFFFFFFFFFFFFFFFFFF AND DUP2 MSTORE POP PUSH1 0x6 PUSH0 PUSH1 0x2 SLOAD DUP2 MSTORE PUSH1 0x20 ADD SWAP1 DUP2 MSTORE PUSH1 0x20 ADD PUSH0 KECCAK256 PUSH0 DUP3 ADD MLOAD DUP2 PUSH0 ADD SWAP1 DUP2 PUSH2 0xB5E SWAP2 SWAP1 PUSH2 0x1E01 JUMP JUMPDEST POP PUSH1 0x20 DUP3 ADD MLOAD DUP2 PUSH1 0x1 ADD SSTORE PUSH1 0x40 DUP3 ADD MLOAD DUP2 PUSH1 0x2 ADD SSTORE PUSH1 0x60 DUP3 ADD MLOAD DUP2 PUSH1 0x3 ADD SWAP1 DUP2 PUSH2 0xB88 SWAP2 SWAP1 PUSH2 0x1E01 JUMP JUMPDEST POP PUSH1 0x80 DUP3 ADD MLOAD DUP2 PUSH1 0x4 ADD SSTORE PUSH1 0xA0 DUP3 ADD MLOAD DUP2 PUSH1 0x5 ADD PUSH0 PUSH2 0x100 EXP DUP2 SLOAD DUP2 PUSH20 0xFFFFFFFFFFFFFFFFFFFFFFFFFFFFFFFFFFFFFFFF MUL NOT AND SWAP1 DUP4 PUSH20 0xFFFFFFFFFFFFFFFFFFFFFFFFFFFFFFFFFFFFFFFF AND MUL OR SWAP1 SSTORE POP SWAP1 POP POP PUSH1 0x2 PUSH0 DUP2 SLOAD DUP1 SWAP3 SWAP2 SWAP1 PUSH2 0xBEE SWAP1 PUSH2 0x1ED0 JUMP JUMPDEST SWAP2 SWAP1 POP SSTORE POP POP POP POP POP POP JUMP JUMPDEST PUSH0 PUSH1 0x4 SLOAD SUB PUSH2 0xC3E JUMPI PUSH1 0x40 MLOAD PUSH32 0x8C379A000000000000000000000000000000000000000000000000000000000 DUP2 MSTORE PUSH1 0x4 ADD PUSH2 0xC35 SWAP1 PUSH2 0x1F61 JUMP JUMPDEST PUSH1 0x40 MLOAD DUP1 SWAP2 SUB SWAP1 REVERT JUMPDEST PUSH1 0x3 DUP1 SLOAD LT ISZERO PUSH2 0xC83 JUMPI PUSH1 0x40 MLOAD PUSH32 0x8C379A000000000000000000000000000000000000000000000000000000000 DUP2 MSTORE PUSH1 0x4 ADD PUSH2 0xC7A SWAP1 PUSH2 0x1FEF JUMP JUMPDEST PUSH1 0x40 MLOAD DUP1 SWAP2 SUB SWAP1 REVERT JUMPDEST PUSH1 0x5 SLOAD TIMESTAMP LT PUSH2 0xCC7 JUMPI PUSH1 0x40 MLOAD PUSH32 0x8C379A000000000000000000000000000000000000000000000000000000000 DUP2 MSTORE PUSH1 0x4 ADD PUSH2 0xCBE SWAP1 PUSH2 0x2057 JUMP JUMPDEST PUSH1 0x40 MLOAD DUP1 SWAP2 SUB SWAP1 REVERT JUMPDEST PUSH0 DUP3 GT DUP1 ISZERO PUSH2 0xCD7 JUMPI POP PUSH1 0x2 SLOAD DUP3 LT JUMPDEST PUSH2 0xD16 JUMPI PUSH1 0x40 MLOAD PUSH32 0x8C379A000000000000000000000000000000000000000000000000000000000 DUP2 MSTORE PUSH1 0x4 ADD PUSH2 0xD0D SWAP1 PUSH2 0x20E5 JUMP JUMPDEST PUSH1 0x40 MLOAD DUP1 SWAP2 SUB SWAP1 REVERT JUMPDEST PUSH0 PUSH1 0x6 PUSH0 DUP5 DUP2 MSTORE PUSH1 0x20 ADD SWAP1 DUP2 MSTORE PUSH1 0x20 ADD PUSH0 KECCAK256 PUSH1 0x4 ADD SLOAD EQ PUSH2 0xD6C JUMPI PUSH1 0x40 MLOAD PUSH32 0x8C379A000000000000000000000000000000000000000000000000000000000 DUP2 MSTORE PUSH1 0x4 ADD PUSH2 0xD63 SWAP1 PUSH2 0x214D JUMP JUMPDEST PUSH1 0x40 MLOAD DUP1 SWAP2 SUB SWAP1 REVERT JUMPDEST PUSH0 DUP2 GT DUP1 ISZERO PUSH2 0xD7C JUMPI POP PUSH1 0x3 SLOAD DUP2 LT JUMPDEST PUSH2 0xDBB JUMPI PUSH1 0x40 MLOAD PUSH32 0x8C379A000000000000000000000000000000000000000000000000000000000 DUP2 MSTORE PUSH1 0x4 ADD PUSH2 0xDB2 SWAP1 PUSH2 0x21DB JUMP JUMPDEST PUSH1 0x40 MLOAD DUP1 SWAP2 SUB SWAP1 REVERT JUMPDEST DUP1 PUSH1 0x6 PUSH0 DUP5 DUP2 MSTORE PUSH1 0x20 ADD SWAP1 DUP2 MSTORE PUSH1 0x20 ADD PUSH0 KECCAK256 PUSH1 0x4 ADD DUP2 SWAP1 SSTORE POP PUSH1 0x7 PUSH0 DUP3 DUP2 MSTORE PUSH1 0x20 ADD SWAP1 DUP2 MSTORE PUSH1 0x20 ADD PUSH0 KECCAK256 PUSH1 0x6 ADD PUSH0 DUP2 SLOAD DUP1 SWAP3 SWAP2 SWAP1 PUSH2 0xDF8 SWAP1 PUSH2 0x1ED0 JUMP JUMPDEST SWAP2 SWAP1 POP SSTORE POP POP POP JUMP JUMPDEST PUSH0 DUP1 SLOAD SWAP1 PUSH2 0x100 EXP SWAP1 DIV PUSH20 0xFFFFFFFFFFFFFFFFFFFFFFFFFFFFFFFFFFFFFFFF AND PUSH20 0xFFFFFFFFFFFFFFFFFFFFFFFFFFFFFFFFFFFFFFFF AND CALLER PUSH20 0xFFFFFFFFFFFFFFFFFFFFFFFFFFFFFFFFFFFFFFFF AND EQ PUSH2 0xE8E JUMPI PUSH1 0x40 MLOAD PUSH32 0x8C379A000000000000000000000000000000000000000000000000000000000 DUP2 MSTORE PUSH1 0x4 ADD PUSH2 0xE85 SWAP1 PUSH2 0x1B43 JUMP JUMPDEST PUSH1 0x40 MLOAD DUP1 SWAP2 SUB SWAP1 REVERT JUMPDEST PUSH1 0x1 PUSH1 0x8 PUSH0 PUSH2 0x100 EXP DUP2 SLOAD DUP2 PUSH1 0xFF MUL NOT AND SWAP1 DUP4 ISZERO ISZERO MUL OR SWAP1 SSTORE POP JUMP JUMPDEST PUSH1 0x12 DUP4 LT ISZERO PUSH2 0xEEE JUMPI PUSH1 0x40 MLOAD PUSH32 0x8C379A000000000000000000000000000000000000000000000000000000000 DUP2 MSTORE PUSH1 0x4 ADD PUSH2 0xEE5 SWAP1 PUSH2 0x1BDE JUMP JUMPDEST PUSH1 0x40 MLOAD DUP1 SWAP2 SUB SWAP1 REVERT JUMPDEST PUSH2 0xEF7 CALLER PUSH2 0x1226 JUMP JUMPDEST PUSH2 0xF36 JUMPI PUSH1 0x40 MLOAD PUSH32 0x8C379A000000000000000000000000000000000000000000000000000000000 DUP2 MSTORE PUSH1 0x4 ADD PUSH2 0xF2D SWAP1 PUSH2 0x2243 JUMP JUMPDEST PUSH1 0x40 MLOAD DUP1 SWAP2 SUB SWAP1 REVERT JUMPDEST PUSH1 0x5 PUSH1 0x3 SLOAD LT PUSH2 0xF7B JUMPI PUSH1 0x40 MLOAD PUSH32 0x8C379A000000000000000000000000000000000000000000000000000000000 DUP2 MSTORE PUSH1 0x4 ADD PUSH2 0xF72 SWAP1 PUSH2 0x22AB JUMP JUMPDEST PUSH1 0x40 MLOAD DUP1 SWAP2 SUB SWAP1 REVERT JUMPDEST PUSH1 0x40 MLOAD DUP1 PUSH1 0xE0 ADD PUSH1 0x40 MSTORE DUP1 DUP9 DUP9 DUP1 DUP1 PUSH1 0x1F ADD PUSH1 0x20 DUP1 SWAP2 DIV MUL PUSH1 0x20 ADD PUSH1 0x40 MLOAD SWAP1 DUP2 ADD PUSH1 0x40 MSTORE DUP1 SWAP4 SWAP3 SWAP2 SWAP1 DUP2 DUP2 MSTORE PUSH1 0x20 ADD DUP4 DUP4 DUP1 DUP3 DUP5 CALLDATACOPY PUSH0 DUP2 DUP5 ADD MSTORE PUSH1 0x1F NOT PUSH1 0x1F DUP3 ADD AND SWAP1 POP DUP1 DUP4 ADD SWAP3 POP POP POP POP POP POP POP DUP2 MSTORE PUSH1 0x20 ADD DUP7 DUP7 DUP1 DUP1 PUSH1 0x1F ADD PUSH1 0x20 DUP1 SWAP2 DIV MUL PUSH1 0x20 ADD PUSH1 0x40 MLOAD SWAP1 DUP2 ADD PUSH1 0x40 MSTORE DUP1 SWAP4 SWAP3 SWAP2 SWAP1 DUP2 DUP2 MSTORE PUSH1 0x20 ADD DUP4 DUP4 DUP1 DUP3 DUP5 CALLDATACOPY PUSH0 DUP2 DUP5 ADD MSTORE PUSH1 0x1F NOT PUSH1 0x1F DUP3 ADD AND SWAP1 POP DUP1 DUP4 ADD SWAP3 POP POP POP POP POP POP POP DUP2 MSTORE PUSH1 0x20 ADD DUP5 DUP2 MSTORE PUSH1 0x20 ADD DUP4 DUP4 DUP1 DUP1 PUSH1 0x1F ADD PUSH1 0x20 DUP1 SWAP2 DIV MUL PUSH1 0x20 ADD PUSH1 0x40 MLOAD SWAP1 DUP2 ADD PUSH1 0x40 MSTORE DUP1 SWAP4 SWAP3 SWAP2 SWAP1 DUP2 DUP2 MSTORE PUSH1 0x20 ADD DUP4 DUP4 DUP1 DUP3 DUP5 CALLDATACOPY PUSH0 DUP2 DUP5 ADD MSTORE PUSH1 0x1F NOT PUSH1 0x1F DUP3 ADD AND SWAP1 POP DUP1 DUP4 ADD SWAP3 POP POP POP POP POP POP POP DUP2 MSTORE PUSH1 0x20 ADD PUSH1 0x3 SLOAD DUP2 MSTORE PUSH1 0x20 ADD CALLER PUSH20 0xFFFFFFFFFFFFFFFFFFFFFFFFFFFFFFFFFFFFFFFF AND DUP2 MSTORE PUSH1 0x20 ADD PUSH0 DUP2 MSTORE POP PUSH1 0x7 PUSH0 PUSH1 0x3 SLOAD DUP2 MSTORE PUSH1 0x20 ADD SWAP1 DUP2 MSTORE PUSH1 0x20 ADD PUSH0 KECCAK256 PUSH0 DUP3 ADD MLOAD DUP2 PUSH0 ADD SWAP1 DUP2 PUSH2 0x10B5 SWAP2 SWAP1 PUSH2 0x1E01 JUMP JUMPDEST POP PUSH1 0x20 DUP3 ADD MLOAD DUP2 PUSH1 0x1 ADD SWAP1 DUP2 PUSH2 0x10CB SWAP2 SWAP1 PUSH2 0x1E01 JUMP JUMPDEST POP PUSH1 0x40 DUP3 ADD MLOAD DUP2 PUSH1 0x2 ADD SSTORE PUSH1 0x60 DUP3 ADD MLOAD DUP2 PUSH1 0x3 ADD SWAP1 DUP2 PUSH2 0x10EB SWAP2 SWAP1 PUSH2 0x1E01 JUMP JUMPDEST POP PUSH1 0x80 DUP3 ADD MLOAD DUP2 PUSH1 0x4 ADD SSTORE PUSH1 0xA0 DUP3 ADD MLOAD DUP2 PUSH1 0x5 ADD PUSH0 PUSH2 0x100 EXP DUP2 SLOAD DUP2 PUSH20 0xFFFFFFFFFFFFFFFFFFFFFFFFFFFFFFFFFFFFFFFF MUL NOT AND SWAP1 DUP4 PUSH20 0xFFFFFFFFFFFFFFFFFFFFFFFFFFFFFFFFFFFFFFFF AND MUL OR SWAP1 SSTORE POP PUSH1 0xC0 DUP3 ADD MLOAD DUP2 PUSH1 0x6 ADD SSTORE SWAP1 POP POP PUSH1 0x3 PUSH0 DUP2 SLOAD DUP1 SWAP3 SWAP2 SWAP1 PUSH2 0x115B SWAP1 PUSH2 0x1ED0 JUMP JUMPDEST SWAP2 SWAP1 POP SSTORE POP POP POP POP POP POP POP POP JUMP JUMPDEST PUSH1 0x1 PUSH0 SWAP1 SLOAD SWAP1 PUSH2 0x100 EXP SWAP1 DIV PUSH20 0xFFFFFFFFFFFFFFFFFFFFFFFFFFFFFFFFFFFFFFFF AND DUP2 JUMP JUMPDEST PUSH0 DUP1 PUSH1 0x1 SWAP1 POP JUMPDEST PUSH1 0x2 SLOAD DUP2 LT ISZERO PUSH2 0x121C JUMPI DUP3 PUSH20 0xFFFFFFFFFFFFFFFFFFFFFFFFFFFFFFFFFFFFFFFF AND PUSH1 0x6 PUSH0 DUP4 DUP2 MSTORE PUSH1 0x20 ADD SWAP1 DUP2 MSTORE PUSH1 0x20 ADD PUSH0 KECCAK256 PUSH1 0x5 ADD PUSH0 SWAP1 SLOAD SWAP1 PUSH2 0x100 EXP SWAP1 DIV PUSH20 0xFFFFFFFFFFFFFFFFFFFFFFFFFFFFFFFFFFFFFFFF AND PUSH20 0xFFFFFFFFFFFFFFFFFFFFFFFFFFFFFFFFFFFFFFFF AND SUB PUSH2 0x120F JUMPI PUSH1 0x1 SWAP2 POP POP PUSH2 0x1221 JUMP JUMPDEST DUP1 DUP1 PUSH1 0x1 ADD SWAP2 POP POP PUSH2 0x1195 JUMP JUMPDEST POP PUSH0 SWAP1 POP JUMPDEST SWAP2 SWAP1 POP JUMP JUMPDEST PUSH0 DUP1 PUSH1 0x1 SWAP1 POP JUMPDEST PUSH1 0x3 SLOAD DUP2 LT ISZERO PUSH2 0x12B3 JUMPI DUP3 PUSH20 0xFFFFFFFFFFFFFFFFFFFFFFFFFFFFFFFFFFFFFFFF AND PUSH1 0x7 PUSH0 DUP4 DUP2 MSTORE PUSH1 0x20 ADD SWAP1 DUP2 MSTORE PUSH1 0x20 ADD PUSH0 KECCAK256 PUSH1 0x5 ADD PUSH0 SWAP1 SLOAD SWAP1 PUSH2 0x100 EXP SWAP1 DIV PUSH20 0xFFFFFFFFFFFFFFFFFFFFFFFFFFFFFFFFFFFFFFFF AND PUSH20 0xFFFFFFFFFFFFFFFFFFFFFFFFFFFFFFFFFFFFFFFF AND SUB PUSH2 0x12A6 JUMPI PUSH0 SWAP2 POP POP PUSH2 0x12B9 JUMP JUMPDEST DUP1 DUP1 PUSH1 0x1 ADD SWAP2 POP POP PUSH2 0x122D JUMP JUMPDEST POP PUSH1 0x1 SWAP1 POP JUMPDEST SWAP2 SWAP1 POP JUMP JUMPDEST PUSH1 0x40 MLOAD DUP1 PUSH1 0xC0 ADD PUSH1 0x40 MSTORE DUP1 PUSH1 0x60 DUP2 MSTORE PUSH1 0x20 ADD PUSH0 DUP2 MSTORE PUSH1 0x20 ADD PUSH0 DUP2 MSTORE PUSH1 0x20 ADD PUSH1 0x60 DUP2 MSTORE PUSH1 0x20 ADD PUSH0 DUP2 MSTORE PUSH1 0x20 ADD PUSH0 PUSH20 0xFFFFFFFFFFFFFFFFFFFFFFFFFFFFFFFFFFFFFFFF AND DUP2 MSTORE POP SWAP1 JUMP JUMPDEST PUSH1 0x40 MLOAD DUP1 PUSH1 0xE0 ADD PUSH1 0x40 MSTORE DUP1 PUSH1 0x60 DUP2 MSTORE PUSH1 0x20 ADD PUSH1 0x60 DUP2 MSTORE PUSH1 0x20 ADD PUSH0 DUP2 MSTORE PUSH1 0x20 ADD PUSH1 0x60 DUP2 MSTORE PUSH1 0x20 ADD PUSH0 DUP2 MSTORE PUSH1 0x20 ADD PUSH0 PUSH20 0xFFFFFFFFFFFFFFFFFFFFFFFFFFFFFFFFFFFFFFFF AND DUP2 MSTORE PUSH1 0x20 ADD PUSH0 DUP2 MSTORE POP SWAP1 JUMP JUMPDEST PUSH0 DUP2 MLOAD SWAP1 POP SWAP2 SWAP1 POP JUMP JUMPDEST PUSH0 DUP3 DUP3 MSTORE PUSH1 0x20 DUP3 ADD SWAP1 POP SWAP3 SWAP2 POP POP JUMP JUMPDEST DUP3 DUP2 DUP4 MCOPY PUSH0 DUP4 DUP4 ADD MSTORE POP POP POP JUMP JUMPDEST PUSH0 PUSH1 0x1F NOT PUSH1 0x1F DUP4 ADD AND SWAP1 POP SWAP2 SWAP1 POP JUMP JUMPDEST PUSH0 PUSH2 0x1397 DUP3 PUSH2 0x1355 JUMP JUMPDEST PUSH2 0x13A1 DUP2 DUP6 PUSH2 0x135F JUMP JUMPDEST SWAP4 POP PUSH2 0x13B1 DUP2 DUP6 PUSH1 0x20 DUP7 ADD PUSH2 0x136F JUMP JUMPDEST PUSH2 0x13BA DUP2 PUSH2 0x137D JUMP JUMPDEST DUP5 ADD SWAP2 POP POP SWAP3 SWAP2 POP POP JUMP JUMPDEST PUSH0 PUSH1 0x20 DUP3 ADD SWAP1 POP DUP2 DUP2 SUB PUSH0 DUP4 ADD MSTORE PUSH2 0x13DD DUP2 DUP5 PUSH2 0x138D JUMP JUMPDEST SWAP1 POP SWAP3 SWAP2 POP POP JUMP JUMPDEST PUSH0 DUP2 MLOAD SWAP1 POP SWAP2 SWAP1 POP JUMP JUMPDEST PUSH0 DUP3 DUP3 MSTORE PUSH1 0x20 DUP3 ADD SWAP1 POP SWAP3 SWAP2 POP POP JUMP JUMPDEST PUSH0 DUP2 SWAP1 POP PUSH1 0x20 DUP3 ADD SWAP1 POP SWAP2 SWAP1 POP JUMP JUMPDEST PUSH0 DUP3 DUP3 MSTORE PUSH1 0x20 DUP3 ADD SWAP1 POP SWAP3 SWAP2 POP POP JUMP JUMPDEST PUSH0 PUSH2 0x1428 DUP3 PUSH2 0x1355 JUMP JUMPDEST PUSH2 0x1432 DUP2 DUP6 PUSH2 0x140E JUMP JUMPDEST SWAP4 POP PUSH2 0x1442 DUP2 DUP6 PUSH1 0x20 DUP7 ADD PUSH2 0x136F JUMP JUMPDEST PUSH2 0x144B DUP2 PUSH2 0x137D JUMP JUMPDEST DUP5 ADD SWAP2 POP POP SWAP3 SWAP2 POP POP JUMP JUMPDEST PUSH0 DUP2 SWAP1 POP SWAP2 SWAP1 POP JUMP JUMPDEST PUSH2 0x1468 DUP2 PUSH2 0x1456 JUMP JUMPDEST DUP3 MSTORE POP POP JUMP JUMPDEST PUSH0 PUSH20 0xFFFFFFFFFFFFFFFFFFFFFFFFFFFFFFFFFFFFFFFF DUP3 AND SWAP1 POP SWAP2 SWAP1 POP JUMP JUMPDEST PUSH0 PUSH2 0x1497 DUP3 PUSH2 0x146E JUMP JUMPDEST SWAP1 POP SWAP2 SWAP1 POP JUMP JUMPDEST PUSH2 0x14A7 DUP2 PUSH2 0x148D JUMP JUMPDEST DUP3 MSTORE POP POP JUMP JUMPDEST PUSH0 PUSH1 0xC0 DUP4 ADD PUSH0 DUP4 ADD MLOAD DUP5 DUP3 SUB PUSH0 DUP7 ADD MSTORE PUSH2 0x14C7 DUP3 DUP3 PUSH2 0x141E JUMP JUMPDEST SWAP2 POP POP PUSH1 0x20 DUP4 ADD MLOAD PUSH2 0x14DC PUSH1 0x20 DUP7 ADD DUP3 PUSH2 0x145F JUMP JUMPDEST POP PUSH1 0x40 DUP4 ADD MLOAD PUSH2 0x14EF PUSH1 0x40 DUP7 ADD DUP3 PUSH2 0x145F JUMP JUMPDEST POP PUSH1 0x60 DUP4 ADD MLOAD DUP5 DUP3 SUB PUSH1 0x60 DUP7 ADD MSTORE PUSH2 0x1507 DUP3 DUP3 PUSH2 0x141E JUMP JUMPDEST SWAP2 POP POP PUSH1 0x80 DUP4 ADD MLOAD PUSH2 0x151C PUSH1 0x80 DUP7 ADD DUP3 PUSH2 0x145F JUMP JUMPDEST POP PUSH1 0xA0 DUP4 ADD MLOAD PUSH2 0x152F PUSH1 0xA0 DUP7 ADD DUP3 PUSH2 0x149E JUMP JUMPDEST POP DUP1 SWAP2 POP POP SWAP3 SWAP2 POP POP JUMP JUMPDEST PUSH0 PUSH2 0x1545 DUP4 DUP4 PUSH2 0x14AD JUMP JUMPDEST SWAP1 POP SWAP3 SWAP2 POP POP JUMP JUMPDEST PUSH0 PUSH1 0x20 DUP3 ADD SWAP1 POP SWAP2 SWAP1 POP JUMP JUMPDEST PUSH0 PUSH2 0x1563 DUP3 PUSH2 0x13E5 JUMP JUMPDEST PUSH2 0x156D DUP2 DUP6 PUSH2 0x13EF JUMP JUMPDEST SWAP4 POP DUP4 PUSH1 0x20 DUP3 MUL DUP6 ADD PUSH2 0x157F DUP6 PUSH2 0x13FF JUMP JUMPDEST DUP1 PUSH0 JUMPDEST DUP6 DUP2 LT ISZERO PUSH2 0x15BA JUMPI DUP5 DUP5 SUB DUP10 MSTORE DUP2 MLOAD PUSH2 0x159B DUP6 DUP3 PUSH2 0x153A JUMP JUMPDEST SWAP5 POP PUSH2 0x15A6 DUP4 PUSH2 0x154D JUMP JUMPDEST SWAP3 POP PUSH1 0x20 DUP11 ADD SWAP10 POP POP PUSH1 0x1 DUP2 ADD SWAP1 POP PUSH2 0x1582 JUMP JUMPDEST POP DUP3 SWAP8 POP DUP8 SWAP6 POP POP POP POP POP POP SWAP3 SWAP2 POP POP JUMP JUMPDEST PUSH0 PUSH1 0x20 DUP3 ADD SWAP1 POP DUP2 DUP2 SUB PUSH0 DUP4 ADD MSTORE PUSH2 0x15E4 DUP2 DUP5 PUSH2 0x1559 JUMP JUMPDEST SWAP1 POP SWAP3 SWAP2 POP POP JUMP JUMPDEST PUSH0 DUP2 MLOAD SWAP1 POP SWAP2 SWAP1 POP JUMP JUMPDEST PUSH0 DUP3 DUP3 MSTORE PUSH1 0x20 DUP3 ADD SWAP1 POP SWAP3 SWAP2 POP POP JUMP JUMPDEST PUSH0 DUP2 SWAP1 POP PUSH1 0x20 DUP3 ADD SWAP1 POP SWAP2 SWAP1 POP JUMP JUMPDEST PUSH0 PUSH1 0xE0 DUP4 ADD PUSH0 DUP4 ADD MLOAD DUP5 DUP3 SUB PUSH0 DUP7 ADD MSTORE PUSH2 0x162F DUP3 DUP3 PUSH2 0x141E JUMP JUMPDEST SWAP2 POP POP PUSH1 0x20 DUP4 ADD MLOAD DUP5 DUP3 SUB PUSH1 0x20 DUP7 ADD MSTORE PUSH2 0x1649 DUP3 DUP3 PUSH2 0x141E JUMP JUMPDEST SWAP2 POP POP PUSH1 0x40 DUP4 ADD MLOAD PUSH2 0x165E PUSH1 0x40 DUP7 ADD DUP3 PUSH2 0x145F JUMP JUMPDEST POP PUSH1 0x60 DUP4 ADD MLOAD DUP5 DUP3 SUB PUSH1 0x60 DUP7 ADD MSTORE PUSH2 0x1676 DUP3 DUP3 PUSH2 0x141E JUMP JUMPDEST SWAP2 POP POP PUSH1 0x80 DUP4 ADD MLOAD PUSH2 0x168B PUSH1 0x80 DUP7 ADD DUP3 PUSH2 0x145F JUMP JUMPDEST POP PUSH1 0xA0 DUP4 ADD MLOAD PUSH2 0x169E PUSH1 0xA0 DUP7 ADD DUP3 PUSH2 0x149E JUMP JUMPDEST POP PUSH1 0xC0 DUP4 ADD MLOAD PUSH2 0x16B1 PUSH1 0xC0 DUP7 ADD DUP3 PUSH2 0x145F JUMP JUMPDEST POP DUP1 SWAP2 POP POP SWAP3 SWAP2 POP POP JUMP JUMPDEST PUSH0 PUSH2 0x16C7 DUP4 DUP4 PUSH2 0x1615 JUMP JUMPDEST SWAP1 POP SWAP3 SWAP2 POP POP JUMP JUMPDEST PUSH0 PUSH1 0x20 DUP3 ADD SWAP1 POP SWAP2 SWAP1 POP JUMP JUMPDEST PUSH0 PUSH2 0x16E5 DUP3 PUSH2 0x15EC JUMP JUMPDEST PUSH2 0x16EF DUP2 DUP6 PUSH2 0x15F6 JUMP JUMPDEST SWAP4 POP DUP4 PUSH1 0x20 DUP3 MUL DUP6 ADD PUSH2 0x1701 DUP6 PUSH2 0x1606 JUMP JUMPDEST DUP1 PUSH0 JUMPDEST DUP6 DUP2 LT ISZERO PUSH2 0x173C JUMPI DUP5 DUP5 SUB DUP10 MSTORE DUP2 MLOAD PUSH2 0x171D DUP6 DUP3 PUSH2 0x16BC JUMP JUMPDEST SWAP5 POP PUSH2 0x1728 DUP4 PUSH2 0x16CF JUMP JUMPDEST SWAP3 POP PUSH1 0x20 DUP11 ADD SWAP10 POP POP PUSH1 0x1 DUP2 ADD SWAP1 POP PUSH2 0x1704 JUMP JUMPDEST POP DUP3 SWAP8 POP DUP8 SWAP6 POP POP POP POP POP POP SWAP3 SWAP2 POP POP JUMP JUMPDEST PUSH0 PUSH1 0x20 DUP3 ADD SWAP1 POP DUP2 DUP2 SUB PUSH0 DUP4 ADD MSTORE PUSH2 0x1766 DUP2 DUP5 PUSH2 0x16DB JUMP JUMPDEST SWAP1 POP SWAP3 SWAP2 POP POP JUMP JUMPDEST PUSH0 DUP1 REVERT JUMPDEST PUSH0 DUP1 REVERT JUMPDEST PUSH2 0x177F DUP2 PUSH2 0x1456 JUMP JUMPDEST DUP2 EQ PUSH2 0x1789 JUMPI PUSH0 DUP1 REVERT JUMPDEST POP JUMP JUMPDEST PUSH0 DUP2 CALLDATALOAD SWAP1 POP PUSH2 0x179A DUP2 PUSH2 0x1776 JUMP JUMPDEST SWAP3 SWAP2 POP POP JUMP JUMPDEST PUSH0 DUP1 PUSH1 0x40 DUP4 DUP6 SUB SLT ISZERO PUSH2 0x17B6 JUMPI PUSH2 0x17B5 PUSH2 0x176E JUMP JUMPDEST JUMPDEST PUSH0 PUSH2 0x17C3 DUP6 DUP3 DUP7 ADD PUSH2 0x178C JUMP JUMPDEST SWAP3 POP POP PUSH1 0x20 PUSH2 0x17D4 DUP6 DUP3 DUP7 ADD PUSH2 0x178C JUMP JUMPDEST SWAP2 POP POP SWAP3 POP SWAP3 SWAP1 POP JUMP JUMPDEST PUSH0 DUP1 REVERT JUMPDEST PUSH0 DUP1 REVERT JUMPDEST PUSH0 DUP1 REVERT JUMPDEST PUSH0 DUP1 DUP4 PUSH1 0x1F DUP5 ADD SLT PUSH2 0x17FF JUMPI PUSH2 0x17FE PUSH2 0x17DE JUMP JUMPDEST JUMPDEST DUP3 CALLDATALOAD SWAP1 POP PUSH8 0xFFFFFFFFFFFFFFFF DUP2 GT ISZERO PUSH2 0x181C JUMPI PUSH2 0x181B PUSH2 0x17E2 JUMP JUMPDEST JUMPDEST PUSH1 0x20 DUP4 ADD SWAP2 POP DUP4 PUSH1 0x1 DUP3 MUL DUP4 ADD GT ISZERO PUSH2 0x1838 JUMPI PUSH2 0x1837 PUSH2 0x17E6 JUMP JUMPDEST JUMPDEST SWAP3 POP SWAP3 SWAP1 POP JUMP JUMPDEST PUSH0 DUP1 PUSH0 DUP1 PUSH0 PUSH1 0x60 DUP7 DUP9 SUB SLT ISZERO PUSH2 0x1858 JUMPI PUSH2 0x1857 PUSH2 0x176E JUMP JUMPDEST JUMPDEST PUSH0 DUP7 ADD CALLDATALOAD PUSH8 0xFFFFFFFFFFFFFFFF DUP2 GT ISZERO PUSH2 0x1875 JUMPI PUSH2 0x1874 PUSH2 0x1772 JUMP JUMPDEST JUMPDEST PUSH2 0x1881 DUP9 DUP3 DUP10 ADD PUSH2 0x17EA JUMP JUMPDEST SWAP6 POP SWAP6 POP POP PUSH1 0x20 PUSH2 0x1894 DUP9 DUP3 DUP10 ADD PUSH2 0x178C JUMP JUMPDEST SWAP4 POP POP PUSH1 0x40 DUP7 ADD CALLDATALOAD PUSH8 0xFFFFFFFFFFFFFFFF DUP2 GT ISZERO PUSH2 0x18B5 JUMPI PUSH2 0x18B4 PUSH2 0x1772 JUMP JUMPDEST JUMPDEST PUSH2 0x18C1 DUP9 DUP3 DUP10 ADD PUSH2 0x17EA JUMP JUMPDEST SWAP3 POP SWAP3 POP POP SWAP3 SWAP6 POP SWAP3 SWAP6 SWAP1 SWAP4 POP JUMP JUMPDEST PUSH0 DUP1 PUSH0 DUP1 PUSH0 DUP1 PUSH0 PUSH1 0x80 DUP9 DUP11 SUB SLT ISZERO PUSH2 0x18EB JUMPI PUSH2 0x18EA PUSH2 0x176E JUMP JUMPDEST JUMPDEST PUSH0 DUP9 ADD CALLDATALOAD PUSH8 0xFFFFFFFFFFFFFFFF DUP2 GT ISZERO PUSH2 0x1908 JUMPI PUSH2 0x1907 PUSH2 0x1772 JUMP JUMPDEST JUMPDEST PUSH2 0x1914 DUP11 DUP3 DUP12 ADD PUSH2 0x17EA JUMP JUMPDEST SWAP8 POP SWAP8 POP POP PUSH1 0x20 DUP9 ADD CALLDATALOAD PUSH8 0xFFFFFFFFFFFFFFFF DUP2 GT ISZERO PUSH2 0x1937 JUMPI PUSH2 0x1936 PUSH2 0x1772 JUMP JUMPDEST JUMPDEST PUSH2 0x1943 DUP11 DUP3 DUP12 ADD PUSH2 0x17EA JUMP JUMPDEST SWAP6 POP SWAP6 POP POP PUSH1 0x40 PUSH2 0x1956 DUP11 DUP3 DUP12 ADD PUSH2 0x178C JUMP JUMPDEST SWAP4 POP POP PUSH1 0x60 DUP9 ADD CALLDATALOAD PUSH8 0xFFFFFFFFFFFFFFFF DUP2 GT ISZERO PUSH2 0x1977 JUMPI PUSH2 0x1976 PUSH2 0x1772 JUMP JUMPDEST JUMPDEST PUSH2 0x1983 DUP11 DUP3 DUP12 ADD PUSH2 0x17EA JUMP JUMPDEST SWAP3 POP SWAP3 POP POP SWAP3 SWAP6 SWAP9 SWAP2 SWAP5 SWAP8 POP SWAP3 SWAP6 POP JUMP JUMPDEST PUSH2 0x199D DUP2 PUSH2 0x148D JUMP JUMPDEST DUP3 MSTORE POP POP JUMP JUMPDEST PUSH0 PUSH1 0x20 DUP3 ADD SWAP1 POP PUSH2 0x19B6 PUSH0 DUP4 ADD DUP5 PUSH2 0x1994 JUMP JUMPDEST SWAP3 SWAP2 POP POP JUMP JUMPDEST PUSH32 0x4E487B7100000000000000000000000000000000000000000000000000000000 PUSH0 MSTORE PUSH1 0x11 PUSH1 0x4 MSTORE PUSH1 0x24 PUSH0 REVERT JUMPDEST PUSH0 PUSH2 0x19F3 DUP3 PUSH2 0x1456 JUMP JUMPDEST SWAP2 POP PUSH2 0x19FE DUP4 PUSH2 0x1456 JUMP JUMPDEST SWAP3 POP DUP3 DUP3 SUB SWAP1 POP DUP2 DUP2 GT ISZERO PUSH2 0x1A16 JUMPI PUSH2 0x1A15 PUSH2 0x19BC JUMP JUMPDEST JUMPDEST SWAP3 SWAP2 POP POP JUMP JUMPDEST PUSH32 0x4E487B7100000000000000000000000000000000000000000000000000000000 PUSH0 MSTORE PUSH1 0x41 PUSH1 0x4 MSTORE PUSH1 0x24 PUSH0 REVERT JUMPDEST PUSH32 0x4E487B7100000000000000000000000000000000000000000000000000000000 PUSH0 MSTORE PUSH1 0x22 PUSH1 0x4 MSTORE PUSH1 0x24 PUSH0 REVERT JUMPDEST PUSH0 PUSH1 0x2 DUP3 DIV SWAP1 POP PUSH1 0x1 DUP3 AND DUP1 PUSH2 0x1A8D JUMPI PUSH1 0x7F DUP3 AND SWAP2 POP JUMPDEST PUSH1 0x20 DUP3 LT DUP2 SUB PUSH2 0x1AA0 JUMPI PUSH2 0x1A9F PUSH2 0x1A49 JUMP JUMPDEST JUMPDEST POP SWAP2 SWAP1 POP JUMP JUMPDEST PUSH32 0x4E487B7100000000000000000000000000000000000000000000000000000000 PUSH0 MSTORE PUSH1 0x32 PUSH1 0x4 MSTORE PUSH1 0x24 PUSH0 REVERT JUMPDEST PUSH32 0x596F7520617265206E6F742066726F6D20456C656374696F6E20436F6D6D6973 PUSH0 DUP3 ADD MSTORE PUSH32 0x696F6E0000000000000000000000000000000000000000000000000000000000 PUSH1 0x20 DUP3 ADD MSTORE POP JUMP JUMPDEST PUSH0 PUSH2 0x1B2D PUSH1 0x23 DUP4 PUSH2 0x135F JUMP JUMPDEST SWAP2 POP PUSH2 0x1B38 DUP3 PUSH2 0x1AD3 JUMP JUMPDEST PUSH1 0x40 DUP3 ADD SWAP1 POP SWAP2 SWAP1 POP JUMP JUMPDEST PUSH0 PUSH1 0x20 DUP3 ADD SWAP1 POP DUP2 DUP2 SUB PUSH0 DUP4 ADD MSTORE PUSH2 0x1B5A DUP2 PUSH2 0x1B21 JUMP JUMPDEST SWAP1 POP SWAP2 SWAP1 POP JUMP JUMPDEST PUSH0 PUSH2 0x1B6B DUP3 PUSH2 0x1456 JUMP JUMPDEST SWAP2 POP PUSH2 0x1B76 DUP4 PUSH2 0x1456 JUMP JUMPDEST SWAP3 POP DUP3 DUP3 ADD SWAP1 POP DUP1 DUP3 GT ISZERO PUSH2 0x1B8E JUMPI PUSH2 0x1B8D PUSH2 0x19BC JUMP JUMPDEST JUMPDEST SWAP3 SWAP2 POP POP JUMP JUMPDEST PUSH32 0x41676520697320756E6465722031380000000000000000000000000000000000 PUSH0 DUP3 ADD MSTORE POP JUMP JUMPDEST PUSH0 PUSH2 0x1BC8 PUSH1 0xF DUP4 PUSH2 0x135F JUMP JUMPDEST SWAP2 POP PUSH2 0x1BD3 DUP3 PUSH2 0x1B94 JUMP JUMPDEST PUSH1 0x20 DUP3 ADD SWAP1 POP SWAP2 SWAP1 POP JUMP JUMPDEST PUSH0 PUSH1 0x20 DUP3 ADD SWAP1 POP DUP2 DUP2 SUB PUSH0 DUP4 ADD MSTORE PUSH2 0x1BF5 DUP2 PUSH2 0x1BBC JUMP JUMPDEST SWAP1 POP SWAP2 SWAP1 POP JUMP JUMPDEST PUSH32 0x566F74657220616C726561647920726567697374657265640000000000000000 PUSH0 DUP3 ADD MSTORE POP JUMP JUMPDEST PUSH0 PUSH2 0x1C30 PUSH1 0x18 DUP4 PUSH2 0x135F JUMP JUMPDEST SWAP2 POP PUSH2 0x1C3B DUP3 PUSH2 0x1BFC JUMP JUMPDEST PUSH1 0x20 DUP3 ADD SWAP1 POP SWAP2 SWAP1 POP JUMP JUMPDEST PUSH0 PUSH1 0x20 DUP3 ADD SWAP1 POP DUP2 DUP2 SUB PUSH0 DUP4 ADD MSTORE PUSH2 0x1C5D DUP2 PUSH2 0x1C24 JUMP JUMPDEST SWAP1 POP SWAP2 SWAP1 POP JUMP JUMPDEST PUSH0 DUP2 SWAP1 POP DUP2 PUSH0 MSTORE PUSH1 0x20 PUSH0 KECCAK256 SWAP1 POP SWAP2 SWAP1 POP JUMP JUMPDEST PUSH0 PUSH1 0x20 PUSH1 0x1F DUP4 ADD DIV SWAP1 POP SWAP2 SWAP1 POP JUMP JUMPDEST PUSH0 DUP3 DUP3 SHL SWAP1 POP SWAP3 SWAP2 POP POP JUMP JUMPDEST PUSH0 PUSH1 0x8 DUP4 MUL PUSH2 0x1CC0 PUSH32 0xFFFFFFFFFFFFFFFFFFFFFFFFFFFFFFFFFFFFFFFFFFFFFFFFFFFFFFFFFFFFFFFF DUP3 PUSH2 0x1C85 JUMP JUMPDEST PUSH2 0x1CCA DUP7 DUP4 PUSH2 0x1C85 JUMP JUMPDEST SWAP6 POP DUP1 NOT DUP5 AND SWAP4 POP DUP1 DUP7 AND DUP5 OR SWAP3 POP POP POP SWAP4 SWAP3 POP POP POP JUMP JUMPDEST PUSH0 DUP2 SWAP1 POP SWAP2 SWAP1 POP JUMP JUMPDEST PUSH0 PUSH2 0x1D05 PUSH2 0x1D00 PUSH2 0x1CFB DUP5 PUSH2 0x1456 JUMP JUMPDEST PUSH2 0x1CE2 JUMP JUMPDEST PUSH2 0x1456 JUMP JUMPDEST SWAP1 POP SWAP2 SWAP1 POP JUMP JUMPDEST PUSH0 DUP2 SWAP1 POP SWAP2 SWAP1 POP JUMP JUMPDEST PUSH2 0x1D1E DUP4 PUSH2 0x1CEB JUMP JUMPDEST PUSH2 0x1D32 PUSH2 0x1D2A DUP3 PUSH2 0x1D0C JUMP JUMPDEST DUP5 DUP5 SLOAD PUSH2 0x1C91 JUMP JUMPDEST DUP3 SSTORE POP POP POP POP JUMP JUMPDEST PUSH0 SWAP1 JUMP JUMPDEST PUSH2 0x1D46 PUSH2 0x1D3A JUMP JUMPDEST PUSH2 0x1D51 DUP2 DUP5 DUP5 PUSH2 0x1D15 JUMP JUMPDEST POP POP POP JUMP JUMPDEST JUMPDEST DUP2 DUP2 LT ISZERO PUSH2 0x1D74 JUMPI PUSH2 0x1D69 PUSH0 DUP3 PUSH2 0x1D3E JUMP JUMPDEST PUSH1 0x1 DUP2 ADD SWAP1 POP PUSH2 0x1D57 JUMP JUMPDEST POP POP JUMP JUMPDEST PUSH1 0x1F DUP3 GT ISZERO PUSH2 0x1DB9 JUMPI PUSH2 0x1D8A DUP2 PUSH2 0x1C64 JUMP JUMPDEST PUSH2 0x1D93 DUP5 PUSH2 0x1C76 JUMP JUMPDEST DUP2 ADD PUSH1 0x20 DUP6 LT ISZERO PUSH2 0x1DA2 JUMPI DUP2 SWAP1 POP JUMPDEST PUSH2 0x1DB6 PUSH2 0x1DAE DUP6 PUSH2 0x1C76 JUMP JUMPDEST DUP4 ADD DUP3 PUSH2 0x1D56 JUMP JUMPDEST POP POP JUMPDEST POP POP POP JUMP JUMPDEST PUSH0 DUP3 DUP3 SHR SWAP1 POP SWAP3 SWAP2 POP POP JUMP JUMPDEST PUSH0 PUSH2 0x1DD9 PUSH0 NOT DUP5 PUSH1 0x8 MUL PUSH2 0x1DBE JUMP JUMPDEST NOT DUP1 DUP4 AND SWAP2 POP POP SWAP3 SWAP2 POP POP JUMP JUMPDEST PUSH0 PUSH2 0x1DF1 DUP4 DUP4 PUSH2 0x1DCA JUMP JUMPDEST SWAP2 POP DUP3 PUSH1 0x2 MUL DUP3 OR SWAP1 POP SWAP3 SWAP2 POP POP JUMP JUMPDEST PUSH2 0x1E0A DUP3 PUSH2 0x1355 JUMP JUMPDEST PUSH8 0xFFFFFFFFFFFFFFFF DUP2 GT ISZERO PUSH2 0x1E23 JUMPI PUSH2 0x1E22 PUSH2 0x1A1C JUMP JUMPDEST JUMPDEST PUSH2 0x1E2D DUP3 SLOAD PUSH2 0x1A76 JUMP JUMPDEST PUSH2 0x1E38 DUP3 DUP3 DUP6 PUSH2 0x1D78 JUMP JUMPDEST PUSH0 PUSH1 0x20 SWAP1 POP PUSH1 0x1F DUP4 GT PUSH1 0x1 DUP2 EQ PUSH2 0x1E69 JUMPI PUSH0 DUP5 ISZERO PUSH2 0x1E57 JUMPI DUP3 DUP8 ADD MLOAD SWAP1 POP JUMPDEST PUSH2 0x1E61 DUP6 DUP3 PUSH2 0x1DE6 JUMP JUMPDEST DUP7 SSTORE POP PUSH2 0x1EC8 JUMP JUMPDEST PUSH1 0x1F NOT DUP5 AND PUSH2 0x1E77 DUP7 PUSH2 0x1C64 JUMP JUMPDEST PUSH0 JUMPDEST DUP3 DUP2 LT ISZERO PUSH2 0x1E9E JUMPI DUP5 DUP10 ADD MLOAD DUP3 SSTORE PUSH1 0x1 DUP3 ADD SWAP2 POP PUSH1 0x20 DUP6 ADD SWAP5 POP PUSH1 0x20 DUP2 ADD SWAP1 POP PUSH2 0x1E79 JUMP JUMPDEST DUP7 DUP4 LT ISZERO PUSH2 0x1EBB JUMPI DUP5 DUP10 ADD MLOAD PUSH2 0x1EB7 PUSH1 0x1F DUP10 AND DUP3 PUSH2 0x1DCA JUMP JUMPDEST DUP4 SSTORE POP JUMPDEST PUSH1 0x1 PUSH1 0x2 DUP9 MUL ADD DUP9 SSTORE POP POP POP JUMPDEST POP POP POP POP POP POP JUMP JUMPDEST PUSH0 PUSH2 0x1EDA DUP3 PUSH2 0x1456 JUMP JUMPDEST SWAP2 POP PUSH32 0xFFFFFFFFFFFFFFFFFFFFFFFFFFFFFFFFFFFFFFFFFFFFFFFFFFFFFFFFFFFFFFFF DUP3 SUB PUSH2 0x1F0C JUMPI PUSH2 0x1F0B PUSH2 0x19BC JUMP JUMPDEST JUMPDEST PUSH1 0x1 DUP3 ADD SWAP1 POP SWAP2 SWAP1 POP JUMP JUMPDEST PUSH32 0x566F74696E6720686173206E6F74207374617274656400000000000000000000 PUSH0 DUP3 ADD MSTORE POP JUMP JUMPDEST PUSH0 PUSH2 0x1F4B PUSH1 0x16 DUP4 PUSH2 0x135F JUMP JUMPDEST SWAP2 POP PUSH2 0x1F56 DUP3 PUSH2 0x1F17 JUMP JUMPDEST PUSH1 0x20 DUP3 ADD SWAP1 POP SWAP2 SWAP1 POP JUMP JUMPDEST PUSH0 PUSH1 0x20 DUP3 ADD SWAP1 POP DUP2 DUP2 SUB PUSH0 DUP4 ADD MSTORE PUSH2 0x1F78 DUP2 PUSH2 0x1F3F JUMP JUMPDEST SWAP1 POP SWAP2 SWAP1 POP JUMP JUMPDEST PUSH32 0x4E6F7420656E6F7567682063616E646961746573206861766520726567697374 PUSH0 DUP3 ADD MSTORE PUSH32 0x6572656400000000000000000000000000000000000000000000000000000000 PUSH1 0x20 DUP3 ADD MSTORE POP JUMP JUMPDEST PUSH0 PUSH2 0x1FD9 PUSH1 0x24 DUP4 PUSH2 0x135F JUMP JUMPDEST SWAP2 POP PUSH2 0x1FE4 DUP3 PUSH2 0x1F7F JUMP JUMPDEST PUSH1 0x40 DUP3 ADD SWAP1 POP SWAP2 SWAP1 POP JUMP JUMPDEST PUSH0 PUSH1 0x20 DUP3 ADD SWAP1 POP DUP2 DUP2 SUB PUSH0 DUP4 ADD MSTORE PUSH2 0x2006 DUP2 PUSH2 0x1FCD JUMP JUMPDEST SWAP1 POP SWAP2 SWAP1 POP JUMP JUMPDEST PUSH32 0x566F74696E672068617320616C726561647920656E6465640000000000000000 PUSH0 DUP3 ADD MSTORE POP JUMP JUMPDEST PUSH0 PUSH2 0x2041 PUSH1 0x18 DUP4 PUSH2 0x135F JUMP JUMPDEST SWAP2 POP PUSH2 0x204C DUP3 PUSH2 0x200D JUMP JUMPDEST PUSH1 0x20 DUP3 ADD SWAP1 POP SWAP2 SWAP1 POP JUMP JUMPDEST PUSH0 PUSH1 0x20 DUP3 ADD SWAP1 POP DUP2 DUP2 SUB PUSH0 DUP4 ADD MSTORE PUSH2 0x206E DUP2 PUSH2 0x2035 JUMP JUMPDEST SWAP1 POP SWAP2 SWAP1 POP JUMP JUMPDEST PUSH32 0x596F7520617265206E6F742072656769737465726564206173206120766F7465 PUSH0 DUP3 ADD MSTORE PUSH32 0x7200000000000000000000000000000000000000000000000000000000000000 PUSH1 0x20 DUP3 ADD MSTORE POP JUMP JUMPDEST PUSH0 PUSH2 0x20CF PUSH1 0x21 DUP4 PUSH2 0x135F JUMP JUMPDEST SWAP2 POP PUSH2 0x20DA DUP3 PUSH2 0x2075 JUMP JUMPDEST PUSH1 0x40 DUP3 ADD SWAP1 POP SWAP2 SWAP1 POP JUMP JUMPDEST PUSH0 PUSH1 0x20 DUP3 ADD SWAP1 POP DUP2 DUP2 SUB PUSH0 DUP4 ADD MSTORE PUSH2 0x20FC DUP2 PUSH2 0x20C3 JUMP JUMPDEST SWAP1 POP SWAP2 SWAP1 POP JUMP JUMPDEST PUSH32 0x596F75206861766520616C726561647920766F74656400000000000000000000 PUSH0 DUP3 ADD MSTORE POP JUMP JUMPDEST PUSH0 PUSH2 0x2137 PUSH1 0x16 DUP4 PUSH2 0x135F JUMP JUMPDEST SWAP2 POP PUSH2 0x2142 DUP3 PUSH2 0x2103 JUMP JUMPDEST PUSH1 0x20 DUP3 ADD SWAP1 POP SWAP2 SWAP1 POP JUMP JUMPDEST PUSH0 PUSH1 0x20 DUP3 ADD SWAP1 POP DUP2 DUP2 SUB PUSH0 DUP4 ADD MSTORE PUSH2 0x2164 DUP2 PUSH2 0x212B JUMP JUMPDEST SWAP1 POP SWAP2 SWAP1 POP JUMP JUMPDEST PUSH32 0x54686520706572736F6E20796F752077616E7420746F20766F7465206973206E PUSH0 DUP3 ADD MSTORE PUSH32 0x6F74206120726567697374657265642063616E64696461746500000000000000 PUSH1 0x20 DUP3 ADD MSTORE POP JUMP JUMPDEST PUSH0 PUSH2 0x21C5 PUSH1 0x39 DUP4 PUSH2 0x135F JUMP JUMPDEST SWAP2 POP PUSH2 0x21D0 DUP3 PUSH2 0x216B JUMP JUMPDEST PUSH1 0x40 DUP3 ADD SWAP1 POP SWAP2 SWAP1 POP JUMP JUMPDEST PUSH0 PUSH1 0x20 DUP3 ADD SWAP1 POP DUP2 DUP2 SUB PUSH0 DUP4 ADD MSTORE PUSH2 0x21F2 DUP2 PUSH2 0x21B9 JUMP JUMPDEST SWAP1 POP SWAP2 SWAP1 POP JUMP JUMPDEST PUSH32 0x596F75206861766520616C726561647920726567697374657265640000000000 PUSH0 DUP3 ADD MSTORE POP JUMP JUMPDEST PUSH0 PUSH2 0x222D PUSH1 0x1B DUP4 PUSH2 0x135F JUMP JUMPDEST SWAP2 POP PUSH2 0x2238 DUP3 PUSH2 0x21F9 JUMP JUMPDEST PUSH1 0x20 DUP3 ADD SWAP1 POP SWAP2 SWAP1 POP JUMP JUMPDEST PUSH0 PUSH1 0x20 DUP3 ADD SWAP1 POP DUP2 DUP2 SUB PUSH0 DUP4 ADD MSTORE PUSH2 0x225A DUP2 PUSH2 0x2221 JUMP JUMPDEST SWAP1 POP SWAP2 SWAP1 POP JUMP JUMPDEST PUSH32 0x43616E64696461746520726567697374726174696F6E2066756C6C0000000000 PUSH0 DUP3 ADD MSTORE POP JUMP JUMPDEST PUSH0 PUSH2 0x2295 PUSH1 0x1B DUP4 PUSH2 0x135F JUMP JUMPDEST SWAP2 POP PUSH2 0x22A0 DUP3 PUSH2 0x2261 JUMP JUMPDEST PUSH1 0x20 DUP3 ADD SWAP1 POP SWAP2 SWAP1 POP JUMP JUMPDEST PUSH0 PUSH1 0x20 DUP3 ADD SWAP1 POP DUP2 DUP2 SUB PUSH0 DUP4 ADD MSTORE PUSH2 0x22C2 DUP2 PUSH2 0x2289 JUMP JUMPDEST SWAP1 POP SWAP2 SWAP1 POP JUMP INVALID LOG2 PUSH5 0x6970667358 0x22 SLT KECCAK256 MSIZE EXTCODEHASH PC CALLCODE PUSH7 0xBED54B751599E5 DUP2 0xB5 0x26 BALANCE NUMBER SWAP6 SELFBALANCE 0x28 NOT SWAP7 0xD1 PUSH20 0xB272AB2E6E5F6A6264736F6C634300081A003300 "
				},
				"gasEstimates": {
					"creation": {
						"codeDepositCost": "1791800",
						"executionCost": "70359",
						"totalCost": "1862159"
					},
					"external": {
						"candidateList()": "infinite",
						"candidateRegister(string,string,uint256,string)": "infinite",
						"emergency()": "26619",
						"result()": "infinite",
						"vote(uint256,uint256)": "infinite",
						"voteTime(uint256,uint256)": "infinite",
						"voterList()": "infinite",
						"voterRegister(string,uint256,string)": "infinite",
						"votingStatus()": "infinite",
						"winner()": "2596"
					},
					"internal": {
						"candidateVerification(address)": "infinite",
						"voterVerification(address)": "infinite"
					}
				},
				"methodIdentifiers": {
					"candidateList()": "498ea441",
					"candidateRegister(string,string,uint256,string)": "cf5ce2e7",
					"emergency()": "caa6fea4",
					"result()": "65372147",
					"vote(uint256,uint256)": "b384abef",
					"voteTime(uint256,uint256)": "65ca2be3",
					"voterList()": "24089918",
					"voterRegister(string,uint256,string)": "93e5fed2",
					"votingStatus()": "19f41a40",
					"winner()": "dfbf53ae"
				}
			},
			"storageLayout": {
				"storage": [
					{
						"astId": 31,
						"contract": "contracts/Voting.sol:Vote",
						"label": "electionCommision",
						"offset": 0,
						"slot": "0",
						"type": "t_address"
					},
					{
						"astId": 33,
						"contract": "contracts/Voting.sol:Vote",
						"label": "winner",
						"offset": 0,
						"slot": "1",
						"type": "t_address"
					},
					{
						"astId": 36,
						"contract": "contracts/Voting.sol:Vote",
						"label": "nextVoterId",
						"offset": 0,
						"slot": "2",
						"type": "t_uint256"
					},
					{
						"astId": 39,
						"contract": "contracts/Voting.sol:Vote",
						"label": "nextCandidateId",
						"offset": 0,
						"slot": "3",
						"type": "t_uint256"
					},
					{
						"astId": 41,
						"contract": "contracts/Voting.sol:Vote",
						"label": "startTime",
						"offset": 0,
						"slot": "4",
						"type": "t_uint256"
					},
					{
						"astId": 43,
						"contract": "contracts/Voting.sol:Vote",
						"label": "endTime",
						"offset": 0,
						"slot": "5",
						"type": "t_uint256"
					},
					{
						"astId": 48,
						"contract": "contracts/Voting.sol:Vote",
						"label": "voterDetails",
						"offset": 0,
						"slot": "6",
						"type": "t_mapping(t_uint256,t_struct(Voter)14_storage)"
					},
					{
						"astId": 53,
						"contract": "contracts/Voting.sol:Vote",
						"label": "candidateDetails",
						"offset": 0,
						"slot": "7",
						"type": "t_mapping(t_uint256,t_struct(Candidate)29_storage)"
					},
					{
						"astId": 55,
						"contract": "contracts/Voting.sol:Vote",
						"label": "stopVoting",
						"offset": 0,
						"slot": "8",
						"type": "t_bool"
					}
				],
				"types": {
					"t_address": {
						"encoding": "inplace",
						"label": "address",
						"numberOfBytes": "20"
					},
					"t_bool": {
						"encoding": "inplace",
						"label": "bool",
						"numberOfBytes": "1"
					},
					"t_mapping(t_uint256,t_struct(Candidate)29_storage)": {
						"encoding": "mapping",
						"key": "t_uint256",
						"label": "mapping(uint256 => struct Vote.Candidate)",
						"numberOfBytes": "32",
						"value": "t_struct(Candidate)29_storage"
					},
					"t_mapping(t_uint256,t_struct(Voter)14_storage)": {
						"encoding": "mapping",
						"key": "t_uint256",
						"label": "mapping(uint256 => struct Vote.Voter)",
						"numberOfBytes": "32",
						"value": "t_struct(Voter)14_storage"
					},
					"t_string_storage": {
						"encoding": "bytes",
						"label": "string",
						"numberOfBytes": "32"
					},
					"t_struct(Candidate)29_storage": {
						"encoding": "inplace",
						"label": "struct Vote.Candidate",
						"members": [
							{
								"astId": 16,
								"contract": "contracts/Voting.sol:Vote",
								"label": "name",
								"offset": 0,
								"slot": "0",
								"type": "t_string_storage"
							},
							{
								"astId": 18,
								"contract": "contracts/Voting.sol:Vote",
								"label": "party",
								"offset": 0,
								"slot": "1",
								"type": "t_string_storage"
							},
							{
								"astId": 20,
								"contract": "contracts/Voting.sol:Vote",
								"label": "age",
								"offset": 0,
								"slot": "2",
								"type": "t_uint256"
							},
							{
								"astId": 22,
								"contract": "contracts/Voting.sol:Vote",
								"label": "gender",
								"offset": 0,
								"slot": "3",
								"type": "t_string_storage"
							},
							{
								"astId": 24,
								"contract": "contracts/Voting.sol:Vote",
								"label": "candidateId",
								"offset": 0,
								"slot": "4",
								"type": "t_uint256"
							},
							{
								"astId": 26,
								"contract": "contracts/Voting.sol:Vote",
								"label": "candidateAddress",
								"offset": 0,
								"slot": "5",
								"type": "t_address"
							},
							{
								"astId": 28,
								"contract": "contracts/Voting.sol:Vote",
								"label": "votes",
								"offset": 0,
								"slot": "6",
								"type": "t_uint256"
							}
						],
						"numberOfBytes": "224"
					},
					"t_struct(Voter)14_storage": {
						"encoding": "inplace",
						"label": "struct Vote.Voter",
						"members": [
							{
								"astId": 3,
								"contract": "contracts/Voting.sol:Vote",
								"label": "name",
								"offset": 0,
								"slot": "0",
								"type": "t_string_storage"
							},
							{
								"astId": 5,
								"contract": "contracts/Voting.sol:Vote",
								"label": "age",
								"offset": 0,
								"slot": "1",
								"type": "t_uint256"
							},
							{
								"astId": 7,
								"contract": "contracts/Voting.sol:Vote",
								"label": "voterId",
								"offset": 0,
								"slot": "2",
								"type": "t_uint256"
							},
							{
								"astId": 9,
								"contract": "contracts/Voting.sol:Vote",
								"label": "gender",
								"offset": 0,
								"slot": "3",
								"type": "t_string_storage"
							},
							{
								"astId": 11,
								"contract": "contracts/Voting.sol:Vote",
								"label": "voteCandidateId",
								"offset": 0,
								"slot": "4",
								"type": "t_uint256"
							},
							{
								"astId": 13,
								"contract": "contracts/Voting.sol:Vote",
								"label": "voterAddress",
								"offset": 0,
								"slot": "5",
								"type": "t_address"
							}
						],
						"numberOfBytes": "192"
					},
					"t_uint256": {
						"encoding": "inplace",
						"label": "uint256",
						"numberOfBytes": "32"
					}
				}
			},
			"userdoc": {
				"kind": "user",
				"methods": {},
				"version": 1
			}
		}
	}
}