{
	"contracts/EmployeeRegistry_23.sol": {
		"EmployeeRegistry": {
			"abi": [
				{
					"inputs": [
						{
							"internalType": "uint256",
							"name": "_id",
							"type": "uint256"
						},
						{
							"internalType": "string",
							"name": "_name",
							"type": "string"
						},
						{
							"internalType": "uint256",
							"name": "_salary",
							"type": "uint256"
						}
					],
					"name": "addEmployee",
					"outputs": [],
					"stateMutability": "nonpayable",
					"type": "function"
				},
				{
					"inputs": [
						{
							"internalType": "uint256",
							"name": "",
							"type": "uint256"
						}
					],
					"name": "e",
					"outputs": [
						{
							"internalType": "uint256",
							"name": "id",
							"type": "uint256"
						},
						{
							"internalType": "string",
							"name": "name",
							"type": "string"
						},
						{
							"internalType": "uint256",
							"name": "salary",
							"type": "uint256"
						}
					],
					"stateMutability": "view",
					"type": "function"
				},
				{
					"inputs": [
						{
							"internalType": "uint256",
							"name": "_id",
							"type": "uint256"
						}
					],
					"name": "getEmployee",
					"outputs": [
						{
							"internalType": "uint256",
							"name": "",
							"type": "uint256"
						}
					],
					"stateMutability": "view",
					"type": "function"
				}
			],
			"devdoc": {
				"kind": "dev",
				"methods": {},
				"version": 1
			},
			"evm": {
				"assembly": "    /* \"contracts/EmployeeRegistry_23.sol\":67:555  contract EmployeeRegistry{... */\n  mstore(0x40, 0x80)\n  callvalue\n  dup1\n  iszero\n  tag_1\n  jumpi\n  0x00\n  dup1\n  revert\ntag_1:\n  pop\n  dataSize(sub_0)\n  dup1\n  dataOffset(sub_0)\n  0x00\n  codecopy\n  0x00\n  return\nstop\n\nsub_0: assembly {\n        /* \"contracts/EmployeeRegistry_23.sol\":67:555  contract EmployeeRegistry{... */\n      mstore(0x40, 0x80)\n      callvalue\n      dup1\n      iszero\n      tag_1\n      jumpi\n      0x00\n      dup1\n      revert\n    tag_1:\n      pop\n      jumpi(tag_2, lt(calldatasize, 0x04))\n      shr(0xe0, calldataload(0x00))\n      dup1\n      0x9459d5d7\n      eq\n      tag_3\n      jumpi\n      dup1\n      0xbca9a5c5\n      eq\n      tag_4\n      jumpi\n      dup1\n      0xf37cdc8e\n      eq\n      tag_5\n      jumpi\n    tag_2:\n      0x00\n      dup1\n      revert\n        /* \"contracts/EmployeeRegistry_23.sol\":221:348  function addEmployee(uint _id,string calldata _name,uint _salary) public {... */\n    tag_3:\n      tag_6\n      0x04\n      dup1\n      calldatasize\n      sub\n      dup2\n      add\n      swap1\n      tag_7\n      swap2\n      swap1\n      tag_8\n      jump\t// in\n    tag_7:\n      tag_9\n      jump\t// in\n    tag_6:\n      stop\n        /* \"contracts/EmployeeRegistry_23.sol\":356:552  function getEmployee(uint _id) public view returns(uint){... */\n    tag_4:\n      tag_10\n      0x04\n      dup1\n      calldatasize\n      sub\n      dup2\n      add\n      swap1\n      tag_11\n      swap2\n      swap1\n      tag_12\n      jump\t// in\n    tag_11:\n      tag_13\n      jump\t// in\n    tag_10:\n      mload(0x40)\n      tag_14\n      swap2\n      swap1\n      tag_15\n      jump\t// in\n    tag_14:\n      mload(0x40)\n      dup1\n      swap2\n      sub\n      swap1\n      return\n        /* \"contracts/EmployeeRegistry_23.sol\":193:212  Employee[] public e */\n    tag_5:\n      tag_16\n      0x04\n      dup1\n      calldatasize\n      sub\n      dup2\n      add\n      swap1\n      tag_17\n      swap2\n      swap1\n      tag_12\n      jump\t// in\n    tag_17:\n      tag_18\n      jump\t// in\n    tag_16:\n      mload(0x40)\n      tag_19\n      swap4\n      swap3\n      swap2\n      swap1\n      tag_20\n      jump\t// in\n    tag_19:\n      mload(0x40)\n      dup1\n      swap2\n      sub\n      swap1\n      return\n        /* \"contracts/EmployeeRegistry_23.sol\":221:348  function addEmployee(uint _id,string calldata _name,uint _salary) public {... */\n    tag_9:\n        /* \"contracts/EmployeeRegistry_23.sol\":305:306  e */\n      0x00\n        /* \"contracts/EmployeeRegistry_23.sol\":312:339  Employee(_id,_name,_salary) */\n      mload(0x40)\n      dup1\n      0x60\n      add\n      0x40\n      mstore\n      dup1\n        /* \"contracts/EmployeeRegistry_23.sol\":321:324  _id */\n      dup7\n        /* \"contracts/EmployeeRegistry_23.sol\":312:339  Employee(_id,_name,_salary) */\n      dup2\n      mstore\n      0x20\n      add\n        /* \"contracts/EmployeeRegistry_23.sol\":325:330  _name */\n      dup6\n      dup6\n        /* \"contracts/EmployeeRegistry_23.sol\":312:339  Employee(_id,_name,_salary) */\n      dup1\n      dup1\n      0x1f\n      add\n      0x20\n      dup1\n      swap2\n      div\n      mul\n      0x20\n      add\n      mload(0x40)\n      swap1\n      dup2\n      add\n      0x40\n      mstore\n      dup1\n      swap4\n      swap3\n      swap2\n      swap1\n      dup2\n      dup2\n      mstore\n      0x20\n      add\n      dup4\n      dup4\n      dup1\n      dup3\n      dup5\n      calldatacopy\n      0x00\n      dup2\n      dup5\n      add\n      mstore\n      not(0x1f)\n      0x1f\n      dup3\n      add\n      and\n      swap1\n      pop\n      dup1\n      dup4\n      add\n      swap3\n      pop\n      pop\n      pop\n      pop\n      pop\n      pop\n      pop\n      dup2\n      mstore\n      0x20\n      add\n        /* \"contracts/EmployeeRegistry_23.sol\":331:338  _salary */\n      dup4\n        /* \"contracts/EmployeeRegistry_23.sol\":312:339  Employee(_id,_name,_salary) */\n      dup2\n      mstore\n      pop\n        /* \"contracts/EmployeeRegistry_23.sol\":305:340  e.push(Employee(_id,_name,_salary)) */\n      swap1\n      dup1\n      0x01\n      dup2\n      sload\n      add\n      dup1\n      dup3\n      sstore\n      dup1\n      swap2\n      pop\n      pop\n      0x01\n      swap1\n      sub\n      swap1\n      0x00\n      mstore\n      keccak256(0x00, 0x20)\n      swap1\n      0x03\n      mul\n      add\n      0x00\n      swap1\n      swap2\n      swap1\n      swap2\n      swap1\n      swap2\n      pop\n      0x00\n      dup3\n      add\n      mload\n      dup2\n      0x00\n      add\n      sstore\n      0x20\n      dup3\n      add\n      mload\n      dup2\n      0x01\n      add\n      swap1\n      dup2\n      tag_23\n      swap2\n      swap1\n      tag_24\n      jump\t// in\n    tag_23:\n      pop\n      0x40\n      dup3\n      add\n      mload\n      dup2\n      0x02\n      add\n      sstore\n      pop\n      pop\n        /* \"contracts/EmployeeRegistry_23.sol\":221:348  function addEmployee(uint _id,string calldata _name,uint _salary) public {... */\n      pop\n      pop\n      pop\n      pop\n      jump\t// out\n        /* \"contracts/EmployeeRegistry_23.sol\":356:552  function getEmployee(uint _id) public view returns(uint){... */\n    tag_13:\n        /* \"contracts/EmployeeRegistry_23.sol\":407:411  uint */\n      0x00\n        /* \"contracts/EmployeeRegistry_23.sol\":427:433  uint i */\n      dup1\n        /* \"contracts/EmployeeRegistry_23.sol\":434:435  0 */\n      0x00\n        /* \"contracts/EmployeeRegistry_23.sol\":427:435  uint i=0 */\n      swap1\n      pop\n        /* \"contracts/EmployeeRegistry_23.sol\":423:526  for(uint i=0;i<e.length;i++){... */\n    tag_26:\n        /* \"contracts/EmployeeRegistry_23.sol\":438:439  e */\n      0x00\n        /* \"contracts/EmployeeRegistry_23.sol\":438:446  e.length */\n      dup1\n      sload\n      swap1\n      pop\n        /* \"contracts/EmployeeRegistry_23.sol\":436:437  i */\n      dup2\n        /* \"contracts/EmployeeRegistry_23.sol\":436:446  i<e.length */\n      lt\n        /* \"contracts/EmployeeRegistry_23.sol\":423:526  for(uint i=0;i<e.length;i++){... */\n      iszero\n      tag_27\n      jumpi\n        /* \"contracts/EmployeeRegistry_23.sol\":477:480  _id */\n      dup3\n        /* \"contracts/EmployeeRegistry_23.sol\":468:469  e */\n      0x00\n        /* \"contracts/EmployeeRegistry_23.sol\":470:471  i */\n      dup3\n        /* \"contracts/EmployeeRegistry_23.sol\":468:472  e[i] */\n      dup2\n      sload\n      dup2\n      lt\n      tag_29\n      jumpi\n      tag_30\n      tag_31\n      jump\t// in\n    tag_30:\n    tag_29:\n      swap1\n      0x00\n      mstore\n      keccak256(0x00, 0x20)\n      swap1\n      0x03\n      mul\n      add\n        /* \"contracts/EmployeeRegistry_23.sol\":468:475  e[i].id */\n      0x00\n      add\n      sload\n        /* \"contracts/EmployeeRegistry_23.sol\":468:480  e[i].id==_id */\n      sub\n        /* \"contracts/EmployeeRegistry_23.sol\":465:514  if(e[i].id==_id)... */\n      tag_33\n      jumpi\n        /* \"contracts/EmployeeRegistry_23.sol\":503:504  e */\n      0x00\n        /* \"contracts/EmployeeRegistry_23.sol\":505:506  i */\n      dup2\n        /* \"contracts/EmployeeRegistry_23.sol\":503:507  e[i] */\n      dup2\n      sload\n      dup2\n      lt\n      tag_34\n      jumpi\n      tag_35\n      tag_31\n      jump\t// in\n    tag_35:\n    tag_34:\n      swap1\n      0x00\n      mstore\n      keccak256(0x00, 0x20)\n      swap1\n      0x03\n      mul\n      add\n        /* \"contracts/EmployeeRegistry_23.sol\":503:514  e[i].salary */\n      0x02\n      add\n      sload\n        /* \"contracts/EmployeeRegistry_23.sol\":496:514  return e[i].salary */\n      swap2\n      pop\n      pop\n      jump(tag_25)\n        /* \"contracts/EmployeeRegistry_23.sol\":465:514  if(e[i].id==_id)... */\n    tag_33:\n        /* \"contracts/EmployeeRegistry_23.sol\":447:450  i++ */\n      dup1\n      dup1\n      0x01\n      add\n      swap2\n      pop\n      pop\n        /* \"contracts/EmployeeRegistry_23.sol\":423:526  for(uint i=0;i<e.length;i++){... */\n      jump(tag_26)\n    tag_27:\n      pop\n        /* \"contracts/EmployeeRegistry_23.sol\":543:544  0 */\n      0x00\n        /* \"contracts/EmployeeRegistry_23.sol\":536:544  return 0 */\n      swap1\n      pop\n        /* \"contracts/EmployeeRegistry_23.sol\":356:552  function getEmployee(uint _id) public view returns(uint){... */\n    tag_25:\n      swap2\n      swap1\n      pop\n      jump\t// out\n        /* \"contracts/EmployeeRegistry_23.sol\":193:212  Employee[] public e */\n    tag_18:\n      0x00\n      dup2\n      dup2\n      sload\n      dup2\n      lt\n      tag_37\n      jumpi\n      0x00\n      dup1\n      revert\n    tag_37:\n      swap1\n      0x00\n      mstore\n      keccak256(0x00, 0x20)\n      swap1\n      0x03\n      mul\n      add\n      0x00\n      swap2\n      pop\n      swap1\n      pop\n      dup1\n      0x00\n      add\n      sload\n      swap1\n      dup1\n      0x01\n      add\n      dup1\n      sload\n      tag_39\n      swap1\n      tag_40\n      jump\t// in\n    tag_39:\n      dup1\n      0x1f\n      add\n      0x20\n      dup1\n      swap2\n      div\n      mul\n      0x20\n      add\n      mload(0x40)\n      swap1\n      dup2\n      add\n      0x40\n      mstore\n      dup1\n      swap3\n      swap2\n      swap1\n      dup2\n      dup2\n      mstore\n      0x20\n      add\n      dup3\n      dup1\n      sload\n      tag_41\n      swap1\n      tag_40\n      jump\t// in\n    tag_41:\n      dup1\n      iszero\n      tag_42\n      jumpi\n      dup1\n      0x1f\n      lt\n      tag_43\n      jumpi\n      0x0100\n      dup1\n      dup4\n      sload\n      div\n      mul\n      dup4\n      mstore\n      swap2\n      0x20\n      add\n      swap2\n      jump(tag_42)\n    tag_43:\n      dup3\n      add\n      swap2\n      swap1\n      0x00\n      mstore\n      keccak256(0x00, 0x20)\n      swap1\n    tag_44:\n      dup2\n      sload\n      dup2\n      mstore\n      swap1\n      0x01\n      add\n      swap1\n      0x20\n      add\n      dup1\n      dup4\n      gt\n      tag_44\n      jumpi\n      dup3\n      swap1\n      sub\n      0x1f\n      and\n      dup3\n      add\n      swap2\n    tag_42:\n      pop\n      pop\n      pop\n      pop\n      pop\n      swap1\n      dup1\n      0x02\n      add\n      sload\n      swap1\n      pop\n      dup4\n      jump\t// out\n        /* \"#utility.yul\":88:205   */\n    tag_46:\n        /* \"#utility.yul\":197:198   */\n      0x00\n        /* \"#utility.yul\":194:195   */\n      dup1\n        /* \"#utility.yul\":187:199   */\n      revert\n        /* \"#utility.yul\":211:328   */\n    tag_47:\n        /* \"#utility.yul\":320:321   */\n      0x00\n        /* \"#utility.yul\":317:318   */\n      dup1\n        /* \"#utility.yul\":310:322   */\n      revert\n        /* \"#utility.yul\":334:411   */\n    tag_48:\n        /* \"#utility.yul\":371:378   */\n      0x00\n        /* \"#utility.yul\":400:405   */\n      dup2\n        /* \"#utility.yul\":389:405   */\n      swap1\n      pop\n        /* \"#utility.yul\":334:411   */\n      swap2\n      swap1\n      pop\n      jump\t// out\n        /* \"#utility.yul\":417:539   */\n    tag_49:\n        /* \"#utility.yul\":490:514   */\n      tag_84\n        /* \"#utility.yul\":508:513   */\n      dup2\n        /* \"#utility.yul\":490:514   */\n      tag_48\n      jump\t// in\n    tag_84:\n        /* \"#utility.yul\":483:488   */\n      dup2\n        /* \"#utility.yul\":480:515   */\n      eq\n        /* \"#utility.yul\":470:533   */\n      tag_85\n      jumpi\n        /* \"#utility.yul\":529:530   */\n      0x00\n        /* \"#utility.yul\":526:527   */\n      dup1\n        /* \"#utility.yul\":519:531   */\n      revert\n        /* \"#utility.yul\":470:533   */\n    tag_85:\n        /* \"#utility.yul\":417:539   */\n      pop\n      jump\t// out\n        /* \"#utility.yul\":545:684   */\n    tag_50:\n        /* \"#utility.yul\":591:596   */\n      0x00\n        /* \"#utility.yul\":629:635   */\n      dup2\n        /* \"#utility.yul\":616:636   */\n      calldataload\n        /* \"#utility.yul\":607:636   */\n      swap1\n      pop\n        /* \"#utility.yul\":645:678   */\n      tag_87\n        /* \"#utility.yul\":672:677   */\n      dup2\n        /* \"#utility.yul\":645:678   */\n      tag_49\n      jump\t// in\n    tag_87:\n        /* \"#utility.yul\":545:684   */\n      swap3\n      swap2\n      pop\n      pop\n      jump\t// out\n        /* \"#utility.yul\":690:807   */\n    tag_51:\n        /* \"#utility.yul\":799:800   */\n      0x00\n        /* \"#utility.yul\":796:797   */\n      dup1\n        /* \"#utility.yul\":789:801   */\n      revert\n        /* \"#utility.yul\":813:930   */\n    tag_52:\n        /* \"#utility.yul\":922:923   */\n      0x00\n        /* \"#utility.yul\":919:920   */\n      dup1\n        /* \"#utility.yul\":912:924   */\n      revert\n        /* \"#utility.yul\":936:1053   */\n    tag_53:\n        /* \"#utility.yul\":1045:1046   */\n      0x00\n        /* \"#utility.yul\":1042:1043   */\n      dup1\n        /* \"#utility.yul\":1035:1047   */\n      revert\n        /* \"#utility.yul\":1073:1626   */\n    tag_54:\n        /* \"#utility.yul\":1131:1139   */\n      0x00\n        /* \"#utility.yul\":1141:1147   */\n      dup1\n        /* \"#utility.yul\":1191:1194   */\n      dup4\n        /* \"#utility.yul\":1184:1188   */\n      0x1f\n        /* \"#utility.yul\":1176:1182   */\n      dup5\n        /* \"#utility.yul\":1172:1189   */\n      add\n        /* \"#utility.yul\":1168:1195   */\n      slt\n        /* \"#utility.yul\":1158:1280   */\n      tag_92\n      jumpi\n        /* \"#utility.yul\":1199:1278   */\n      tag_93\n      tag_51\n      jump\t// in\n    tag_93:\n        /* \"#utility.yul\":1158:1280   */\n    tag_92:\n        /* \"#utility.yul\":1312:1318   */\n      dup3\n        /* \"#utility.yul\":1299:1319   */\n      calldataload\n        /* \"#utility.yul\":1289:1319   */\n      swap1\n      pop\n        /* \"#utility.yul\":1342:1360   */\n      0xffffffffffffffff\n        /* \"#utility.yul\":1334:1340   */\n      dup2\n        /* \"#utility.yul\":1331:1361   */\n      gt\n        /* \"#utility.yul\":1328:1445   */\n      iszero\n      tag_94\n      jumpi\n        /* \"#utility.yul\":1364:1443   */\n      tag_95\n      tag_52\n      jump\t// in\n    tag_95:\n        /* \"#utility.yul\":1328:1445   */\n    tag_94:\n        /* \"#utility.yul\":1478:1482   */\n      0x20\n        /* \"#utility.yul\":1470:1476   */\n      dup4\n        /* \"#utility.yul\":1466:1483   */\n      add\n        /* \"#utility.yul\":1454:1483   */\n      swap2\n      pop\n        /* \"#utility.yul\":1532:1535   */\n      dup4\n        /* \"#utility.yul\":1524:1528   */\n      0x01\n        /* \"#utility.yul\":1516:1522   */\n      dup3\n        /* \"#utility.yul\":1512:1529   */\n      mul\n        /* \"#utility.yul\":1502:1510   */\n      dup4\n        /* \"#utility.yul\":1498:1530   */\n      add\n        /* \"#utility.yul\":1495:1536   */\n      gt\n        /* \"#utility.yul\":1492:1620   */\n      iszero\n      tag_96\n      jumpi\n        /* \"#utility.yul\":1539:1618   */\n      tag_97\n      tag_53\n      jump\t// in\n    tag_97:\n        /* \"#utility.yul\":1492:1620   */\n    tag_96:\n        /* \"#utility.yul\":1073:1626   */\n      swap3\n      pop\n      swap3\n      swap1\n      pop\n      jump\t// out\n        /* \"#utility.yul\":1632:2451   */\n    tag_8:\n        /* \"#utility.yul\":1721:1727   */\n      0x00\n        /* \"#utility.yul\":1729:1735   */\n      dup1\n        /* \"#utility.yul\":1737:1743   */\n      0x00\n        /* \"#utility.yul\":1745:1751   */\n      dup1\n        /* \"#utility.yul\":1794:1796   */\n      0x60\n        /* \"#utility.yul\":1782:1791   */\n      dup6\n        /* \"#utility.yul\":1773:1780   */\n      dup8\n        /* \"#utility.yul\":1769:1792   */\n      sub\n        /* \"#utility.yul\":1765:1797   */\n      slt\n        /* \"#utility.yul\":1762:1881   */\n      iszero\n      tag_99\n      jumpi\n        /* \"#utility.yul\":1800:1879   */\n      tag_100\n      tag_46\n      jump\t// in\n    tag_100:\n        /* \"#utility.yul\":1762:1881   */\n    tag_99:\n        /* \"#utility.yul\":1920:1921   */\n      0x00\n        /* \"#utility.yul\":1945:1998   */\n      tag_101\n        /* \"#utility.yul\":1990:1997   */\n      dup8\n        /* \"#utility.yul\":1981:1987   */\n      dup3\n        /* \"#utility.yul\":1970:1979   */\n      dup9\n        /* \"#utility.yul\":1966:1988   */\n      add\n        /* \"#utility.yul\":1945:1998   */\n      tag_50\n      jump\t// in\n    tag_101:\n        /* \"#utility.yul\":1935:1998   */\n      swap5\n      pop\n        /* \"#utility.yul\":1891:2008   */\n      pop\n        /* \"#utility.yul\":2075:2077   */\n      0x20\n        /* \"#utility.yul\":2064:2073   */\n      dup6\n        /* \"#utility.yul\":2060:2078   */\n      add\n        /* \"#utility.yul\":2047:2079   */\n      calldataload\n        /* \"#utility.yul\":2106:2124   */\n      0xffffffffffffffff\n        /* \"#utility.yul\":2098:2104   */\n      dup2\n        /* \"#utility.yul\":2095:2125   */\n      gt\n        /* \"#utility.yul\":2092:2209   */\n      iszero\n      tag_102\n      jumpi\n        /* \"#utility.yul\":2128:2207   */\n      tag_103\n      tag_47\n      jump\t// in\n    tag_103:\n        /* \"#utility.yul\":2092:2209   */\n    tag_102:\n        /* \"#utility.yul\":2241:2306   */\n      tag_104\n        /* \"#utility.yul\":2298:2305   */\n      dup8\n        /* \"#utility.yul\":2289:2295   */\n      dup3\n        /* \"#utility.yul\":2278:2287   */\n      dup9\n        /* \"#utility.yul\":2274:2296   */\n      add\n        /* \"#utility.yul\":2241:2306   */\n      tag_54\n      jump\t// in\n    tag_104:\n        /* \"#utility.yul\":2223:2306   */\n      swap4\n      pop\n      swap4\n      pop\n        /* \"#utility.yul\":2018:2316   */\n      pop\n        /* \"#utility.yul\":2355:2357   */\n      0x40\n        /* \"#utility.yul\":2381:2434   */\n      tag_105\n        /* \"#utility.yul\":2426:2433   */\n      dup8\n        /* \"#utility.yul\":2417:2423   */\n      dup3\n        /* \"#utility.yul\":2406:2415   */\n      dup9\n        /* \"#utility.yul\":2402:2424   */\n      add\n        /* \"#utility.yul\":2381:2434   */\n      tag_50\n      jump\t// in\n    tag_105:\n        /* \"#utility.yul\":2371:2434   */\n      swap2\n      pop\n        /* \"#utility.yul\":2326:2444   */\n      pop\n        /* \"#utility.yul\":1632:2451   */\n      swap3\n      swap6\n      swap2\n      swap5\n      pop\n      swap3\n      pop\n      jump\t// out\n        /* \"#utility.yul\":2457:2786   */\n    tag_12:\n        /* \"#utility.yul\":2516:2522   */\n      0x00\n        /* \"#utility.yul\":2565:2567   */\n      0x20\n        /* \"#utility.yul\":2553:2562   */\n      dup3\n        /* \"#utility.yul\":2544:2551   */\n      dup5\n        /* \"#utility.yul\":2540:2563   */\n      sub\n        /* \"#utility.yul\":2536:2568   */\n      slt\n        /* \"#utility.yul\":2533:2652   */\n      iszero\n      tag_107\n      jumpi\n        /* \"#utility.yul\":2571:2650   */\n      tag_108\n      tag_46\n      jump\t// in\n    tag_108:\n        /* \"#utility.yul\":2533:2652   */\n    tag_107:\n        /* \"#utility.yul\":2691:2692   */\n      0x00\n        /* \"#utility.yul\":2716:2769   */\n      tag_109\n        /* \"#utility.yul\":2761:2768   */\n      dup5\n        /* \"#utility.yul\":2752:2758   */\n      dup3\n        /* \"#utility.yul\":2741:2750   */\n      dup6\n        /* \"#utility.yul\":2737:2759   */\n      add\n        /* \"#utility.yul\":2716:2769   */\n      tag_50\n      jump\t// in\n    tag_109:\n        /* \"#utility.yul\":2706:2769   */\n      swap2\n      pop\n        /* \"#utility.yul\":2662:2779   */\n      pop\n        /* \"#utility.yul\":2457:2786   */\n      swap3\n      swap2\n      pop\n      pop\n      jump\t// out\n        /* \"#utility.yul\":2792:2910   */\n    tag_55:\n        /* \"#utility.yul\":2879:2903   */\n      tag_111\n        /* \"#utility.yul\":2897:2902   */\n      dup2\n        /* \"#utility.yul\":2879:2903   */\n      tag_48\n      jump\t// in\n    tag_111:\n        /* \"#utility.yul\":2874:2877   */\n      dup3\n        /* \"#utility.yul\":2867:2904   */\n      mstore\n        /* \"#utility.yul\":2792:2910   */\n      pop\n      pop\n      jump\t// out\n        /* \"#utility.yul\":2916:3138   */\n    tag_15:\n        /* \"#utility.yul\":3009:3013   */\n      0x00\n        /* \"#utility.yul\":3047:3049   */\n      0x20\n        /* \"#utility.yul\":3036:3045   */\n      dup3\n        /* \"#utility.yul\":3032:3050   */\n      add\n        /* \"#utility.yul\":3024:3050   */\n      swap1\n      pop\n        /* \"#utility.yul\":3060:3131   */\n      tag_113\n        /* \"#utility.yul\":3128:3129   */\n      0x00\n        /* \"#utility.yul\":3117:3126   */\n      dup4\n        /* \"#utility.yul\":3113:3130   */\n      add\n        /* \"#utility.yul\":3104:3110   */\n      dup5\n        /* \"#utility.yul\":3060:3131   */\n      tag_55\n      jump\t// in\n    tag_113:\n        /* \"#utility.yul\":2916:3138   */\n      swap3\n      swap2\n      pop\n      pop\n      jump\t// out\n        /* \"#utility.yul\":3144:3243   */\n    tag_56:\n        /* \"#utility.yul\":3196:3202   */\n      0x00\n        /* \"#utility.yul\":3230:3235   */\n      dup2\n        /* \"#utility.yul\":3224:3236   */\n      mload\n        /* \"#utility.yul\":3214:3236   */\n      swap1\n      pop\n        /* \"#utility.yul\":3144:3243   */\n      swap2\n      swap1\n      pop\n      jump\t// out\n        /* \"#utility.yul\":3249:3418   */\n    tag_57:\n        /* \"#utility.yul\":3333:3344   */\n      0x00\n        /* \"#utility.yul\":3367:3373   */\n      dup3\n        /* \"#utility.yul\":3362:3365   */\n      dup3\n        /* \"#utility.yul\":3355:3374   */\n      mstore\n        /* \"#utility.yul\":3407:3411   */\n      0x20\n        /* \"#utility.yul\":3402:3405   */\n      dup3\n        /* \"#utility.yul\":3398:3412   */\n      add\n        /* \"#utility.yul\":3383:3412   */\n      swap1\n      pop\n        /* \"#utility.yul\":3249:3418   */\n      swap3\n      swap2\n      pop\n      pop\n      jump\t// out\n        /* \"#utility.yul\":3424:3563   */\n    tag_58:\n        /* \"#utility.yul\":3513:3519   */\n      dup3\n        /* \"#utility.yul\":3508:3511   */\n      dup2\n        /* \"#utility.yul\":3503:3506   */\n      dup4\n        /* \"#utility.yul\":3497:3520   */\n      mcopy\n        /* \"#utility.yul\":3554:3555   */\n      0x00\n        /* \"#utility.yul\":3545:3551   */\n      dup4\n        /* \"#utility.yul\":3540:3543   */\n      dup4\n        /* \"#utility.yul\":3536:3552   */\n      add\n        /* \"#utility.yul\":3529:3556   */\n      mstore\n        /* \"#utility.yul\":3424:3563   */\n      pop\n      pop\n      pop\n      jump\t// out\n        /* \"#utility.yul\":3569:3671   */\n    tag_59:\n        /* \"#utility.yul\":3610:3616   */\n      0x00\n        /* \"#utility.yul\":3661:3663   */\n      0x1f\n        /* \"#utility.yul\":3657:3664   */\n      not\n        /* \"#utility.yul\":3652:3654   */\n      0x1f\n        /* \"#utility.yul\":3645:3650   */\n      dup4\n        /* \"#utility.yul\":3641:3655   */\n      add\n        /* \"#utility.yul\":3637:3665   */\n      and\n        /* \"#utility.yul\":3627:3665   */\n      swap1\n      pop\n        /* \"#utility.yul\":3569:3671   */\n      swap2\n      swap1\n      pop\n      jump\t// out\n        /* \"#utility.yul\":3677:4054   */\n    tag_60:\n        /* \"#utility.yul\":3765:3768   */\n      0x00\n        /* \"#utility.yul\":3793:3832   */\n      tag_119\n        /* \"#utility.yul\":3826:3831   */\n      dup3\n        /* \"#utility.yul\":3793:3832   */\n      tag_56\n      jump\t// in\n    tag_119:\n        /* \"#utility.yul\":3848:3919   */\n      tag_120\n        /* \"#utility.yul\":3912:3918   */\n      dup2\n        /* \"#utility.yul\":3907:3910   */\n      dup6\n        /* \"#utility.yul\":3848:3919   */\n      tag_57\n      jump\t// in\n    tag_120:\n        /* \"#utility.yul\":3841:3919   */\n      swap4\n      pop\n        /* \"#utility.yul\":3928:3993   */\n      tag_121\n        /* \"#utility.yul\":3986:3992   */\n      dup2\n        /* \"#utility.yul\":3981:3984   */\n      dup6\n        /* \"#utility.yul\":3974:3978   */\n      0x20\n        /* \"#utility.yul\":3967:3972   */\n      dup7\n        /* \"#utility.yul\":3963:3979   */\n      add\n        /* \"#utility.yul\":3928:3993   */\n      tag_58\n      jump\t// in\n    tag_121:\n        /* \"#utility.yul\":4018:4047   */\n      tag_122\n        /* \"#utility.yul\":4040:4046   */\n      dup2\n        /* \"#utility.yul\":4018:4047   */\n      tag_59\n      jump\t// in\n    tag_122:\n        /* \"#utility.yul\":4013:4016   */\n      dup5\n        /* \"#utility.yul\":4009:4048   */\n      add\n        /* \"#utility.yul\":4002:4048   */\n      swap2\n      pop\n        /* \"#utility.yul\":3769:4054   */\n      pop\n        /* \"#utility.yul\":3677:4054   */\n      swap3\n      swap2\n      pop\n      pop\n      jump\t// out\n        /* \"#utility.yul\":4060:4593   */\n    tag_20:\n        /* \"#utility.yul\":4229:4233   */\n      0x00\n        /* \"#utility.yul\":4267:4269   */\n      0x60\n        /* \"#utility.yul\":4256:4265   */\n      dup3\n        /* \"#utility.yul\":4252:4270   */\n      add\n        /* \"#utility.yul\":4244:4270   */\n      swap1\n      pop\n        /* \"#utility.yul\":4280:4351   */\n      tag_124\n        /* \"#utility.yul\":4348:4349   */\n      0x00\n        /* \"#utility.yul\":4337:4346   */\n      dup4\n        /* \"#utility.yul\":4333:4350   */\n      add\n        /* \"#utility.yul\":4324:4330   */\n      dup7\n        /* \"#utility.yul\":4280:4351   */\n      tag_55\n      jump\t// in\n    tag_124:\n        /* \"#utility.yul\":4398:4407   */\n      dup2\n        /* \"#utility.yul\":4392:4396   */\n      dup2\n        /* \"#utility.yul\":4388:4408   */\n      sub\n        /* \"#utility.yul\":4383:4385   */\n      0x20\n        /* \"#utility.yul\":4372:4381   */\n      dup4\n        /* \"#utility.yul\":4368:4386   */\n      add\n        /* \"#utility.yul\":4361:4409   */\n      mstore\n        /* \"#utility.yul\":4426:4504   */\n      tag_125\n        /* \"#utility.yul\":4499:4503   */\n      dup2\n        /* \"#utility.yul\":4490:4496   */\n      dup6\n        /* \"#utility.yul\":4426:4504   */\n      tag_60\n      jump\t// in\n    tag_125:\n        /* \"#utility.yul\":4418:4504   */\n      swap1\n      pop\n        /* \"#utility.yul\":4514:4586   */\n      tag_126\n        /* \"#utility.yul\":4582:4584   */\n      0x40\n        /* \"#utility.yul\":4571:4580   */\n      dup4\n        /* \"#utility.yul\":4567:4585   */\n      add\n        /* \"#utility.yul\":4558:4564   */\n      dup5\n        /* \"#utility.yul\":4514:4586   */\n      tag_55\n      jump\t// in\n    tag_126:\n        /* \"#utility.yul\":4060:4593   */\n      swap5\n      swap4\n      pop\n      pop\n      pop\n      pop\n      jump\t// out\n        /* \"#utility.yul\":4599:4779   */\n    tag_61:\n        /* \"#utility.yul\":4647:4724   */\n      0x4e487b7100000000000000000000000000000000000000000000000000000000\n        /* \"#utility.yul\":4644:4645   */\n      0x00\n        /* \"#utility.yul\":4637:4725   */\n      mstore\n        /* \"#utility.yul\":4744:4748   */\n      0x41\n        /* \"#utility.yul\":4741:4742   */\n      0x04\n        /* \"#utility.yul\":4734:4749   */\n      mstore\n        /* \"#utility.yul\":4768:4772   */\n      0x24\n        /* \"#utility.yul\":4765:4766   */\n      0x00\n        /* \"#utility.yul\":4758:4773   */\n      revert\n        /* \"#utility.yul\":4785:4965   */\n    tag_62:\n        /* \"#utility.yul\":4833:4910   */\n      0x4e487b7100000000000000000000000000000000000000000000000000000000\n        /* \"#utility.yul\":4830:4831   */\n      0x00\n        /* \"#utility.yul\":4823:4911   */\n      mstore\n        /* \"#utility.yul\":4930:4934   */\n      0x22\n        /* \"#utility.yul\":4927:4928   */\n      0x04\n        /* \"#utility.yul\":4920:4935   */\n      mstore\n        /* \"#utility.yul\":4954:4958   */\n      0x24\n        /* \"#utility.yul\":4951:4952   */\n      0x00\n        /* \"#utility.yul\":4944:4959   */\n      revert\n        /* \"#utility.yul\":4971:5291   */\n    tag_40:\n        /* \"#utility.yul\":5015:5021   */\n      0x00\n        /* \"#utility.yul\":5052:5053   */\n      0x02\n        /* \"#utility.yul\":5046:5050   */\n      dup3\n        /* \"#utility.yul\":5042:5054   */\n      div\n        /* \"#utility.yul\":5032:5054   */\n      swap1\n      pop\n        /* \"#utility.yul\":5099:5100   */\n      0x01\n        /* \"#utility.yul\":5093:5097   */\n      dup3\n        /* \"#utility.yul\":5089:5101   */\n      and\n        /* \"#utility.yul\":5120:5138   */\n      dup1\n        /* \"#utility.yul\":5110:5191   */\n      tag_130\n      jumpi\n        /* \"#utility.yul\":5176:5180   */\n      0x7f\n        /* \"#utility.yul\":5168:5174   */\n      dup3\n        /* \"#utility.yul\":5164:5181   */\n      and\n        /* \"#utility.yul\":5154:5181   */\n      swap2\n      pop\n        /* \"#utility.yul\":5110:5191   */\n    tag_130:\n        /* \"#utility.yul\":5238:5240   */\n      0x20\n        /* \"#utility.yul\":5230:5236   */\n      dup3\n        /* \"#utility.yul\":5227:5241   */\n      lt\n        /* \"#utility.yul\":5207:5225   */\n      dup2\n        /* \"#utility.yul\":5204:5242   */\n      sub\n        /* \"#utility.yul\":5201:5285   */\n      tag_131\n      jumpi\n        /* \"#utility.yul\":5257:5275   */\n      tag_132\n      tag_62\n      jump\t// in\n    tag_132:\n        /* \"#utility.yul\":5201:5285   */\n    tag_131:\n        /* \"#utility.yul\":5022:5291   */\n      pop\n        /* \"#utility.yul\":4971:5291   */\n      swap2\n      swap1\n      pop\n      jump\t// out\n        /* \"#utility.yul\":5297:5438   */\n    tag_63:\n        /* \"#utility.yul\":5346:5350   */\n      0x00\n        /* \"#utility.yul\":5369:5372   */\n      dup2\n        /* \"#utility.yul\":5361:5372   */\n      swap1\n      pop\n        /* \"#utility.yul\":5392:5395   */\n      dup2\n        /* \"#utility.yul\":5389:5390   */\n      0x00\n        /* \"#utility.yul\":5382:5396   */\n      mstore\n        /* \"#utility.yul\":5426:5430   */\n      0x20\n        /* \"#utility.yul\":5423:5424   */\n      0x00\n        /* \"#utility.yul\":5413:5431   */\n      keccak256\n        /* \"#utility.yul\":5405:5431   */\n      swap1\n      pop\n        /* \"#utility.yul\":5297:5438   */\n      swap2\n      swap1\n      pop\n      jump\t// out\n        /* \"#utility.yul\":5444:5537   */\n    tag_64:\n        /* \"#utility.yul\":5481:5487   */\n      0x00\n        /* \"#utility.yul\":5528:5530   */\n      0x20\n        /* \"#utility.yul\":5523:5525   */\n      0x1f\n        /* \"#utility.yul\":5516:5521   */\n      dup4\n        /* \"#utility.yul\":5512:5526   */\n      add\n        /* \"#utility.yul\":5508:5531   */\n      div\n        /* \"#utility.yul\":5498:5531   */\n      swap1\n      pop\n        /* \"#utility.yul\":5444:5537   */\n      swap2\n      swap1\n      pop\n      jump\t// out\n        /* \"#utility.yul\":5543:5650   */\n    tag_65:\n        /* \"#utility.yul\":5587:5595   */\n      0x00\n        /* \"#utility.yul\":5637:5642   */\n      dup3\n        /* \"#utility.yul\":5631:5635   */\n      dup3\n        /* \"#utility.yul\":5627:5643   */\n      shl\n        /* \"#utility.yul\":5606:5643   */\n      swap1\n      pop\n        /* \"#utility.yul\":5543:5650   */\n      swap3\n      swap2\n      pop\n      pop\n      jump\t// out\n        /* \"#utility.yul\":5656:6049   */\n    tag_66:\n        /* \"#utility.yul\":5725:5731   */\n      0x00\n        /* \"#utility.yul\":5775:5776   */\n      0x08\n        /* \"#utility.yul\":5763:5773   */\n      dup4\n        /* \"#utility.yul\":5759:5777   */\n      mul\n        /* \"#utility.yul\":5798:5895   */\n      tag_137\n        /* \"#utility.yul\":5828:5894   */\n      0xffffffffffffffffffffffffffffffffffffffffffffffffffffffffffffffff\n        /* \"#utility.yul\":5817:5826   */\n      dup3\n        /* \"#utility.yul\":5798:5895   */\n      tag_65\n      jump\t// in\n    tag_137:\n        /* \"#utility.yul\":5916:5955   */\n      tag_138\n        /* \"#utility.yul\":5946:5954   */\n      dup7\n        /* \"#utility.yul\":5935:5944   */\n      dup4\n        /* \"#utility.yul\":5916:5955   */\n      tag_65\n      jump\t// in\n    tag_138:\n        /* \"#utility.yul\":5904:5955   */\n      swap6\n      pop\n        /* \"#utility.yul\":5988:5992   */\n      dup1\n        /* \"#utility.yul\":5984:5993   */\n      not\n        /* \"#utility.yul\":5977:5982   */\n      dup5\n        /* \"#utility.yul\":5973:5994   */\n      and\n        /* \"#utility.yul\":5964:5994   */\n      swap4\n      pop\n        /* \"#utility.yul\":6037:6041   */\n      dup1\n        /* \"#utility.yul\":6027:6035   */\n      dup7\n        /* \"#utility.yul\":6023:6042   */\n      and\n        /* \"#utility.yul\":6016:6021   */\n      dup5\n        /* \"#utility.yul\":6013:6043   */\n      or\n        /* \"#utility.yul\":6003:6043   */\n      swap3\n      pop\n        /* \"#utility.yul\":5732:6049   */\n      pop\n      pop\n        /* \"#utility.yul\":5656:6049   */\n      swap4\n      swap3\n      pop\n      pop\n      pop\n      jump\t// out\n        /* \"#utility.yul\":6055:6115   */\n    tag_67:\n        /* \"#utility.yul\":6083:6086   */\n      0x00\n        /* \"#utility.yul\":6104:6109   */\n      dup2\n        /* \"#utility.yul\":6097:6109   */\n      swap1\n      pop\n        /* \"#utility.yul\":6055:6115   */\n      swap2\n      swap1\n      pop\n      jump\t// out\n        /* \"#utility.yul\":6121:6263   */\n    tag_68:\n        /* \"#utility.yul\":6171:6180   */\n      0x00\n        /* \"#utility.yul\":6204:6257   */\n      tag_141\n        /* \"#utility.yul\":6222:6256   */\n      tag_142\n        /* \"#utility.yul\":6231:6255   */\n      tag_143\n        /* \"#utility.yul\":6249:6254   */\n      dup5\n        /* \"#utility.yul\":6231:6255   */\n      tag_48\n      jump\t// in\n    tag_143:\n        /* \"#utility.yul\":6222:6256   */\n      tag_67\n      jump\t// in\n    tag_142:\n        /* \"#utility.yul\":6204:6257   */\n      tag_48\n      jump\t// in\n    tag_141:\n        /* \"#utility.yul\":6191:6257   */\n      swap1\n      pop\n        /* \"#utility.yul\":6121:6263   */\n      swap2\n      swap1\n      pop\n      jump\t// out\n        /* \"#utility.yul\":6269:6344   */\n    tag_69:\n        /* \"#utility.yul\":6312:6315   */\n      0x00\n        /* \"#utility.yul\":6333:6338   */\n      dup2\n        /* \"#utility.yul\":6326:6338   */\n      swap1\n      pop\n        /* \"#utility.yul\":6269:6344   */\n      swap2\n      swap1\n      pop\n      jump\t// out\n        /* \"#utility.yul\":6350:6619   */\n    tag_70:\n        /* \"#utility.yul\":6460:6499   */\n      tag_146\n        /* \"#utility.yul\":6491:6498   */\n      dup4\n        /* \"#utility.yul\":6460:6499   */\n      tag_68\n      jump\t// in\n    tag_146:\n        /* \"#utility.yul\":6521:6612   */\n      tag_147\n        /* \"#utility.yul\":6570:6611   */\n      tag_148\n        /* \"#utility.yul\":6594:6610   */\n      dup3\n        /* \"#utility.yul\":6570:6611   */\n      tag_69\n      jump\t// in\n    tag_148:\n        /* \"#utility.yul\":6562:6568   */\n      dup5\n        /* \"#utility.yul\":6555:6559   */\n      dup5\n        /* \"#utility.yul\":6549:6560   */\n      sload\n        /* \"#utility.yul\":6521:6612   */\n      tag_66\n      jump\t// in\n    tag_147:\n        /* \"#utility.yul\":6515:6519   */\n      dup3\n        /* \"#utility.yul\":6508:6613   */\n      sstore\n        /* \"#utility.yul\":6426:6619   */\n      pop\n        /* \"#utility.yul\":6350:6619   */\n      pop\n      pop\n      pop\n      jump\t// out\n        /* \"#utility.yul\":6625:6698   */\n    tag_71:\n        /* \"#utility.yul\":6670:6673   */\n      0x00\n        /* \"#utility.yul\":6625:6698   */\n      swap1\n      jump\t// out\n        /* \"#utility.yul\":6704:6893   */\n    tag_72:\n        /* \"#utility.yul\":6781:6813   */\n      tag_151\n      tag_71\n      jump\t// in\n    tag_151:\n        /* \"#utility.yul\":6822:6887   */\n      tag_152\n        /* \"#utility.yul\":6880:6886   */\n      dup2\n        /* \"#utility.yul\":6872:6878   */\n      dup5\n        /* \"#utility.yul\":6866:6870   */\n      dup5\n        /* \"#utility.yul\":6822:6887   */\n      tag_70\n      jump\t// in\n    tag_152:\n        /* \"#utility.yul\":6757:6893   */\n      pop\n        /* \"#utility.yul\":6704:6893   */\n      pop\n      pop\n      jump\t// out\n        /* \"#utility.yul\":6899:7085   */\n    tag_73:\n        /* \"#utility.yul\":6959:7079   */\n    tag_154:\n        /* \"#utility.yul\":6976:6979   */\n      dup2\n        /* \"#utility.yul\":6969:6974   */\n      dup2\n        /* \"#utility.yul\":6966:6980   */\n      lt\n        /* \"#utility.yul\":6959:7079   */\n      iszero\n      tag_156\n      jumpi\n        /* \"#utility.yul\":7030:7069   */\n      tag_157\n        /* \"#utility.yul\":7067:7068   */\n      0x00\n        /* \"#utility.yul\":7060:7065   */\n      dup3\n        /* \"#utility.yul\":7030:7069   */\n      tag_72\n      jump\t// in\n    tag_157:\n        /* \"#utility.yul\":7003:7004   */\n      0x01\n        /* \"#utility.yul\":6996:7001   */\n      dup2\n        /* \"#utility.yul\":6992:7005   */\n      add\n        /* \"#utility.yul\":6983:7005   */\n      swap1\n      pop\n        /* \"#utility.yul\":6959:7079   */\n      jump(tag_154)\n    tag_156:\n        /* \"#utility.yul\":6899:7085   */\n      pop\n      pop\n      jump\t// out\n        /* \"#utility.yul\":7091:7634   */\n    tag_74:\n        /* \"#utility.yul\":7192:7194   */\n      0x1f\n        /* \"#utility.yul\":7187:7190   */\n      dup3\n        /* \"#utility.yul\":7184:7195   */\n      gt\n        /* \"#utility.yul\":7181:7627   */\n      iszero\n      tag_159\n      jumpi\n        /* \"#utility.yul\":7226:7264   */\n      tag_160\n        /* \"#utility.yul\":7258:7263   */\n      dup2\n        /* \"#utility.yul\":7226:7264   */\n      tag_63\n      jump\t// in\n    tag_160:\n        /* \"#utility.yul\":7310:7339   */\n      tag_161\n        /* \"#utility.yul\":7328:7338   */\n      dup5\n        /* \"#utility.yul\":7310:7339   */\n      tag_64\n      jump\t// in\n    tag_161:\n        /* \"#utility.yul\":7300:7308   */\n      dup2\n        /* \"#utility.yul\":7296:7340   */\n      add\n        /* \"#utility.yul\":7493:7495   */\n      0x20\n        /* \"#utility.yul\":7481:7491   */\n      dup6\n        /* \"#utility.yul\":7478:7496   */\n      lt\n        /* \"#utility.yul\":7475:7524   */\n      iszero\n      tag_162\n      jumpi\n        /* \"#utility.yul\":7514:7522   */\n      dup2\n        /* \"#utility.yul\":7499:7522   */\n      swap1\n      pop\n        /* \"#utility.yul\":7475:7524   */\n    tag_162:\n        /* \"#utility.yul\":7537:7617   */\n      tag_163\n        /* \"#utility.yul\":7593:7615   */\n      tag_164\n        /* \"#utility.yul\":7611:7614   */\n      dup6\n        /* \"#utility.yul\":7593:7615   */\n      tag_64\n      jump\t// in\n    tag_164:\n        /* \"#utility.yul\":7583:7591   */\n      dup4\n        /* \"#utility.yul\":7579:7616   */\n      add\n        /* \"#utility.yul\":7566:7577   */\n      dup3\n        /* \"#utility.yul\":7537:7617   */\n      tag_73\n      jump\t// in\n    tag_163:\n        /* \"#utility.yul\":7196:7627   */\n      pop\n      pop\n        /* \"#utility.yul\":7181:7627   */\n    tag_159:\n        /* \"#utility.yul\":7091:7634   */\n      pop\n      pop\n      pop\n      jump\t// out\n        /* \"#utility.yul\":7640:7757   */\n    tag_75:\n        /* \"#utility.yul\":7694:7702   */\n      0x00\n        /* \"#utility.yul\":7744:7749   */\n      dup3\n        /* \"#utility.yul\":7738:7742   */\n      dup3\n        /* \"#utility.yul\":7734:7750   */\n      shr\n        /* \"#utility.yul\":7713:7750   */\n      swap1\n      pop\n        /* \"#utility.yul\":7640:7757   */\n      swap3\n      swap2\n      pop\n      pop\n      jump\t// out\n        /* \"#utility.yul\":7763:7932   */\n    tag_76:\n        /* \"#utility.yul\":7807:7813   */\n      0x00\n        /* \"#utility.yul\":7840:7891   */\n      tag_167\n        /* \"#utility.yul\":7888:7889   */\n      0x00\n        /* \"#utility.yul\":7884:7890   */\n      not\n        /* \"#utility.yul\":7876:7881   */\n      dup5\n        /* \"#utility.yul\":7873:7874   */\n      0x08\n        /* \"#utility.yul\":7869:7882   */\n      mul\n        /* \"#utility.yul\":7840:7891   */\n      tag_75\n      jump\t// in\n    tag_167:\n        /* \"#utility.yul\":7836:7892   */\n      not\n        /* \"#utility.yul\":7921:7925   */\n      dup1\n        /* \"#utility.yul\":7915:7919   */\n      dup4\n        /* \"#utility.yul\":7911:7926   */\n      and\n        /* \"#utility.yul\":7901:7926   */\n      swap2\n      pop\n        /* \"#utility.yul\":7814:7932   */\n      pop\n        /* \"#utility.yul\":7763:7932   */\n      swap3\n      swap2\n      pop\n      pop\n      jump\t// out\n        /* \"#utility.yul\":7937:8232   */\n    tag_77:\n        /* \"#utility.yul\":8013:8017   */\n      0x00\n        /* \"#utility.yul\":8159:8188   */\n      tag_169\n        /* \"#utility.yul\":8184:8187   */\n      dup4\n        /* \"#utility.yul\":8178:8182   */\n      dup4\n        /* \"#utility.yul\":8159:8188   */\n      tag_76\n      jump\t// in\n    tag_169:\n        /* \"#utility.yul\":8151:8188   */\n      swap2\n      pop\n        /* \"#utility.yul\":8221:8224   */\n      dup3\n        /* \"#utility.yul\":8218:8219   */\n      0x02\n        /* \"#utility.yul\":8214:8225   */\n      mul\n        /* \"#utility.yul\":8208:8212   */\n      dup3\n        /* \"#utility.yul\":8205:8226   */\n      or\n        /* \"#utility.yul\":8197:8226   */\n      swap1\n      pop\n        /* \"#utility.yul\":7937:8232   */\n      swap3\n      swap2\n      pop\n      pop\n      jump\t// out\n        /* \"#utility.yul\":8237:9632   */\n    tag_24:\n        /* \"#utility.yul\":8354:8391   */\n      tag_171\n        /* \"#utility.yul\":8387:8390   */\n      dup3\n        /* \"#utility.yul\":8354:8391   */\n      tag_56\n      jump\t// in\n    tag_171:\n        /* \"#utility.yul\":8456:8474   */\n      0xffffffffffffffff\n        /* \"#utility.yul\":8448:8454   */\n      dup2\n        /* \"#utility.yul\":8445:8475   */\n      gt\n        /* \"#utility.yul\":8442:8498   */\n      iszero\n      tag_172\n      jumpi\n        /* \"#utility.yul\":8478:8496   */\n      tag_173\n      tag_61\n      jump\t// in\n    tag_173:\n        /* \"#utility.yul\":8442:8498   */\n    tag_172:\n        /* \"#utility.yul\":8522:8560   */\n      tag_174\n        /* \"#utility.yul\":8554:8558   */\n      dup3\n        /* \"#utility.yul\":8548:8559   */\n      sload\n        /* \"#utility.yul\":8522:8560   */\n      tag_40\n      jump\t// in\n    tag_174:\n        /* \"#utility.yul\":8607:8674   */\n      tag_175\n        /* \"#utility.yul\":8667:8673   */\n      dup3\n        /* \"#utility.yul\":8659:8665   */\n      dup3\n        /* \"#utility.yul\":8653:8657   */\n      dup6\n        /* \"#utility.yul\":8607:8674   */\n      tag_74\n      jump\t// in\n    tag_175:\n        /* \"#utility.yul\":8701:8702   */\n      0x00\n        /* \"#utility.yul\":8725:8729   */\n      0x20\n        /* \"#utility.yul\":8712:8729   */\n      swap1\n      pop\n        /* \"#utility.yul\":8757:8759   */\n      0x1f\n        /* \"#utility.yul\":8749:8755   */\n      dup4\n        /* \"#utility.yul\":8746:8760   */\n      gt\n        /* \"#utility.yul\":8774:8775   */\n      0x01\n        /* \"#utility.yul\":8769:9387   */\n      dup2\n      eq\n      tag_177\n      jumpi\n        /* \"#utility.yul\":9431:9432   */\n      0x00\n        /* \"#utility.yul\":9448:9454   */\n      dup5\n        /* \"#utility.yul\":9445:9522   */\n      iszero\n      tag_178\n      jumpi\n        /* \"#utility.yul\":9497:9506   */\n      dup3\n        /* \"#utility.yul\":9492:9495   */\n      dup8\n        /* \"#utility.yul\":9488:9507   */\n      add\n        /* \"#utility.yul\":9482:9508   */\n      mload\n        /* \"#utility.yul\":9473:9508   */\n      swap1\n      pop\n        /* \"#utility.yul\":9445:9522   */\n    tag_178:\n        /* \"#utility.yul\":9548:9615   */\n      tag_179\n        /* \"#utility.yul\":9608:9614   */\n      dup6\n        /* \"#utility.yul\":9601:9606   */\n      dup3\n        /* \"#utility.yul\":9548:9615   */\n      tag_77\n      jump\t// in\n    tag_179:\n        /* \"#utility.yul\":9542:9546   */\n      dup7\n        /* \"#utility.yul\":9535:9616   */\n      sstore\n        /* \"#utility.yul\":9404:9626   */\n      pop\n        /* \"#utility.yul\":8739:9626   */\n      jump(tag_176)\n        /* \"#utility.yul\":8769:9387   */\n    tag_177:\n        /* \"#utility.yul\":8821:8825   */\n      0x1f\n        /* \"#utility.yul\":8817:8826   */\n      not\n        /* \"#utility.yul\":8809:8815   */\n      dup5\n        /* \"#utility.yul\":8805:8827   */\n      and\n        /* \"#utility.yul\":8855:8892   */\n      tag_180\n        /* \"#utility.yul\":8887:8891   */\n      dup7\n        /* \"#utility.yul\":8855:8892   */\n      tag_63\n      jump\t// in\n    tag_180:\n        /* \"#utility.yul\":8914:8915   */\n      0x00\n        /* \"#utility.yul\":8928:9136   */\n    tag_181:\n        /* \"#utility.yul\":8942:8949   */\n      dup3\n        /* \"#utility.yul\":8939:8940   */\n      dup2\n        /* \"#utility.yul\":8936:8950   */\n      lt\n        /* \"#utility.yul\":8928:9136   */\n      iszero\n      tag_183\n      jumpi\n        /* \"#utility.yul\":9021:9030   */\n      dup5\n        /* \"#utility.yul\":9016:9019   */\n      dup10\n        /* \"#utility.yul\":9012:9031   */\n      add\n        /* \"#utility.yul\":9006:9032   */\n      mload\n        /* \"#utility.yul\":8998:9004   */\n      dup3\n        /* \"#utility.yul\":8991:9033   */\n      sstore\n        /* \"#utility.yul\":9072:9073   */\n      0x01\n        /* \"#utility.yul\":9064:9070   */\n      dup3\n        /* \"#utility.yul\":9060:9074   */\n      add\n        /* \"#utility.yul\":9050:9074   */\n      swap2\n      pop\n        /* \"#utility.yul\":9119:9121   */\n      0x20\n        /* \"#utility.yul\":9108:9117   */\n      dup6\n        /* \"#utility.yul\":9104:9122   */\n      add\n        /* \"#utility.yul\":9091:9122   */\n      swap5\n      pop\n        /* \"#utility.yul\":8965:8969   */\n      0x20\n        /* \"#utility.yul\":8962:8963   */\n      dup2\n        /* \"#utility.yul\":8958:8970   */\n      add\n        /* \"#utility.yul\":8953:8970   */\n      swap1\n      pop\n        /* \"#utility.yul\":8928:9136   */\n      jump(tag_181)\n    tag_183:\n        /* \"#utility.yul\":9164:9170   */\n      dup7\n        /* \"#utility.yul\":9155:9162   */\n      dup4\n        /* \"#utility.yul\":9152:9171   */\n      lt\n        /* \"#utility.yul\":9149:9328   */\n      iszero\n      tag_184\n      jumpi\n        /* \"#utility.yul\":9222:9231   */\n      dup5\n        /* \"#utility.yul\":9217:9220   */\n      dup10\n        /* \"#utility.yul\":9213:9232   */\n      add\n        /* \"#utility.yul\":9207:9233   */\n      mload\n        /* \"#utility.yul\":9265:9313   */\n      tag_185\n        /* \"#utility.yul\":9307:9311   */\n      0x1f\n        /* \"#utility.yul\":9299:9305   */\n      dup10\n        /* \"#utility.yul\":9295:9312   */\n      and\n        /* \"#utility.yul\":9284:9293   */\n      dup3\n        /* \"#utility.yul\":9265:9313   */\n      tag_76\n      jump\t// in\n    tag_185:\n        /* \"#utility.yul\":9257:9263   */\n      dup4\n        /* \"#utility.yul\":9250:9314   */\n      sstore\n        /* \"#utility.yul\":9172:9328   */\n      pop\n        /* \"#utility.yul\":9149:9328   */\n    tag_184:\n        /* \"#utility.yul\":9374:9375   */\n      0x01\n        /* \"#utility.yul\":9370:9371   */\n      0x02\n        /* \"#utility.yul\":9362:9368   */\n      dup9\n        /* \"#utility.yul\":9358:9372   */\n      mul\n        /* \"#utility.yul\":9354:9376   */\n      add\n        /* \"#utility.yul\":9348:9352   */\n      dup9\n        /* \"#utility.yul\":9341:9377   */\n      sstore\n        /* \"#utility.yul\":8776:9387   */\n      pop\n      pop\n      pop\n        /* \"#utility.yul\":8739:9626   */\n    tag_176:\n      pop\n        /* \"#utility.yul\":8329:9632   */\n      pop\n      pop\n      pop\n        /* \"#utility.yul\":8237:9632   */\n      pop\n      pop\n      jump\t// out\n        /* \"#utility.yul\":9638:9818   */\n    tag_31:\n        /* \"#utility.yul\":9686:9763   */\n      0x4e487b7100000000000000000000000000000000000000000000000000000000\n        /* \"#utility.yul\":9683:9684   */\n      0x00\n        /* \"#utility.yul\":9676:9764   */\n      mstore\n        /* \"#utility.yul\":9783:9787   */\n      0x32\n        /* \"#utility.yul\":9780:9781   */\n      0x04\n        /* \"#utility.yul\":9773:9788   */\n      mstore\n        /* \"#utility.yul\":9807:9811   */\n      0x24\n        /* \"#utility.yul\":9804:9805   */\n      0x00\n        /* \"#utility.yul\":9797:9812   */\n      revert\n\n    auxdata: 0xa26469706673582212208a701561c79093ce3a11bb84d13a13a7f8568578aee4ee62571e6fe275ae41c564736f6c634300081a0033\n}\n",
				"bytecode": {
					"linkReferences": {},
					"object": "6080604052348015600e575f80fd5b506108118061001c5f395ff3fe608060405234801561000f575f80fd5b506004361061003f575f3560e01c80639459d5d714610043578063bca9a5c51461005f578063f37cdc8e1461008f575b5f80fd5b61005d60048036038101906100589190610348565b6100c1565b005b610079600480360381019061007491906103b9565b610176565b60405161008691906103f3565b60405180910390f35b6100a960048036038101906100a491906103b9565b6101f2565b6040516100b89392919061047c565b60405180910390f35b5f604051806060016040528086815260200185858080601f0160208091040260200160405190810160405280939291908181526020018383808284375f81840152601f19601f82011690508083019250505050505050815260200183815250908060018154018082558091505060019003905f5260205f2090600302015f909190919091505f820151815f0155602082015181600101908161016391906106df565b5060408201518160020155505050505050565b5f805f90505b5f805490508110156101e857825f828154811061019c5761019b6107ae565b5b905f5260205f2090600302015f0154036101db575f81815481106101c3576101c26107ae565b5b905f5260205f209060030201600201549150506101ed565b808060010191505061017c565b505f90505b919050565b5f8181548110610200575f80fd5b905f5260205f2090600302015f91509050805f01549080600101805461022590610512565b80601f016020809104026020016040519081016040528092919081815260200182805461025190610512565b801561029c5780601f106102735761010080835404028352916020019161029c565b820191905f5260205f20905b81548152906001019060200180831161027f57829003601f168201915b5050505050908060020154905083565b5f80fd5b5f80fd5b5f819050919050565b6102c6816102b4565b81146102d0575f80fd5b50565b5f813590506102e1816102bd565b92915050565b5f80fd5b5f80fd5b5f80fd5b5f8083601f840112610308576103076102e7565b5b8235905067ffffffffffffffff811115610325576103246102eb565b5b602083019150836001820283011115610341576103406102ef565b5b9250929050565b5f805f80606085870312156103605761035f6102ac565b5b5f61036d878288016102d3565b945050602085013567ffffffffffffffff81111561038e5761038d6102b0565b5b61039a878288016102f3565b935093505060406103ad878288016102d3565b91505092959194509250565b5f602082840312156103ce576103cd6102ac565b5b5f6103db848285016102d3565b91505092915050565b6103ed816102b4565b82525050565b5f6020820190506104065f8301846103e4565b92915050565b5f81519050919050565b5f82825260208201905092915050565b8281835e5f83830152505050565b5f601f19601f8301169050919050565b5f61044e8261040c565b6104588185610416565b9350610468818560208601610426565b61047181610434565b840191505092915050565b5f60608201905061048f5f8301866103e4565b81810360208301526104a18185610444565b90506104b060408301846103e4565b949350505050565b7f4e487b71000000000000000000000000000000000000000000000000000000005f52604160045260245ffd5b7f4e487b71000000000000000000000000000000000000000000000000000000005f52602260045260245ffd5b5f600282049050600182168061052957607f821691505b60208210810361053c5761053b6104e5565b5b50919050565b5f819050815f5260205f209050919050565b5f6020601f8301049050919050565b5f82821b905092915050565b5f6008830261059e7fffffffffffffffffffffffffffffffffffffffffffffffffffffffffffffffff82610563565b6105a88683610563565b95508019841693508086168417925050509392505050565b5f819050919050565b5f6105e36105de6105d9846102b4565b6105c0565b6102b4565b9050919050565b5f819050919050565b6105fc836105c9565b610610610608826105ea565b84845461056f565b825550505050565b5f90565b610624610618565b61062f8184846105f3565b505050565b5b81811015610652576106475f8261061c565b600181019050610635565b5050565b601f8211156106975761066881610542565b61067184610554565b81016020851015610680578190505b61069461068c85610554565b830182610634565b50505b505050565b5f82821c905092915050565b5f6106b75f198460080261069c565b1980831691505092915050565b5f6106cf83836106a8565b9150826002028217905092915050565b6106e88261040c565b67ffffffffffffffff811115610701576107006104b8565b5b61070b8254610512565b610716828285610656565b5f60209050601f831160018114610747575f8415610735578287015190505b61073f85826106c4565b8655506107a6565b601f19841661075586610542565b5f5b8281101561077c57848901518255600182019150602085019450602081019050610757565b868310156107995784890151610795601f8916826106a8565b8355505b6001600288020188555050505b505050505050565b7f4e487b71000000000000000000000000000000000000000000000000000000005f52603260045260245ffdfea26469706673582212208a701561c79093ce3a11bb84d13a13a7f8568578aee4ee62571e6fe275ae41c564736f6c634300081a0033",
					"opcodes": "PUSH1 0x80 PUSH1 0x40 MSTORE CALLVALUE DUP1 ISZERO PUSH1 0xE JUMPI PUSH0 DUP1 REVERT JUMPDEST POP PUSH2 0x811 DUP1 PUSH2 0x1C PUSH0 CODECOPY PUSH0 RETURN INVALID PUSH1 0x80 PUSH1 0x40 MSTORE CALLVALUE DUP1 ISZERO PUSH2 0xF JUMPI PUSH0 DUP1 REVERT JUMPDEST POP PUSH1 0x4 CALLDATASIZE LT PUSH2 0x3F JUMPI PUSH0 CALLDATALOAD PUSH1 0xE0 SHR DUP1 PUSH4 0x9459D5D7 EQ PUSH2 0x43 JUMPI DUP1 PUSH4 0xBCA9A5C5 EQ PUSH2 0x5F JUMPI DUP1 PUSH4 0xF37CDC8E EQ PUSH2 0x8F JUMPI JUMPDEST PUSH0 DUP1 REVERT JUMPDEST PUSH2 0x5D PUSH1 0x4 DUP1 CALLDATASIZE SUB DUP2 ADD SWAP1 PUSH2 0x58 SWAP2 SWAP1 PUSH2 0x348 JUMP JUMPDEST PUSH2 0xC1 JUMP JUMPDEST STOP JUMPDEST PUSH2 0x79 PUSH1 0x4 DUP1 CALLDATASIZE SUB DUP2 ADD SWAP1 PUSH2 0x74 SWAP2 SWAP1 PUSH2 0x3B9 JUMP JUMPDEST PUSH2 0x176 JUMP JUMPDEST PUSH1 0x40 MLOAD PUSH2 0x86 SWAP2 SWAP1 PUSH2 0x3F3 JUMP JUMPDEST PUSH1 0x40 MLOAD DUP1 SWAP2 SUB SWAP1 RETURN JUMPDEST PUSH2 0xA9 PUSH1 0x4 DUP1 CALLDATASIZE SUB DUP2 ADD SWAP1 PUSH2 0xA4 SWAP2 SWAP1 PUSH2 0x3B9 JUMP JUMPDEST PUSH2 0x1F2 JUMP JUMPDEST PUSH1 0x40 MLOAD PUSH2 0xB8 SWAP4 SWAP3 SWAP2 SWAP1 PUSH2 0x47C JUMP JUMPDEST PUSH1 0x40 MLOAD DUP1 SWAP2 SUB SWAP1 RETURN JUMPDEST PUSH0 PUSH1 0x40 MLOAD DUP1 PUSH1 0x60 ADD PUSH1 0x40 MSTORE DUP1 DUP7 DUP2 MSTORE PUSH1 0x20 ADD DUP6 DUP6 DUP1 DUP1 PUSH1 0x1F ADD PUSH1 0x20 DUP1 SWAP2 DIV MUL PUSH1 0x20 ADD PUSH1 0x40 MLOAD SWAP1 DUP2 ADD PUSH1 0x40 MSTORE DUP1 SWAP4 SWAP3 SWAP2 SWAP1 DUP2 DUP2 MSTORE PUSH1 0x20 ADD DUP4 DUP4 DUP1 DUP3 DUP5 CALLDATACOPY PUSH0 DUP2 DUP5 ADD MSTORE PUSH1 0x1F NOT PUSH1 0x1F DUP3 ADD AND SWAP1 POP DUP1 DUP4 ADD SWAP3 POP POP POP POP POP POP POP DUP2 MSTORE PUSH1 0x20 ADD DUP4 DUP2 MSTORE POP SWAP1 DUP1 PUSH1 0x1 DUP2 SLOAD ADD DUP1 DUP3 SSTORE DUP1 SWAP2 POP POP PUSH1 0x1 SWAP1 SUB SWAP1 PUSH0 MSTORE PUSH1 0x20 PUSH0 KECCAK256 SWAP1 PUSH1 0x3 MUL ADD PUSH0 SWAP1 SWAP2 SWAP1 SWAP2 SWAP1 SWAP2 POP PUSH0 DUP3 ADD MLOAD DUP2 PUSH0 ADD SSTORE PUSH1 0x20 DUP3 ADD MLOAD DUP2 PUSH1 0x1 ADD SWAP1 DUP2 PUSH2 0x163 SWAP2 SWAP1 PUSH2 0x6DF JUMP JUMPDEST POP PUSH1 0x40 DUP3 ADD MLOAD DUP2 PUSH1 0x2 ADD SSTORE POP POP POP POP POP POP JUMP JUMPDEST PUSH0 DUP1 PUSH0 SWAP1 POP JUMPDEST PUSH0 DUP1 SLOAD SWAP1 POP DUP2 LT ISZERO PUSH2 0x1E8 JUMPI DUP3 PUSH0 DUP3 DUP2 SLOAD DUP2 LT PUSH2 0x19C JUMPI PUSH2 0x19B PUSH2 0x7AE JUMP JUMPDEST JUMPDEST SWAP1 PUSH0 MSTORE PUSH1 0x20 PUSH0 KECCAK256 SWAP1 PUSH1 0x3 MUL ADD PUSH0 ADD SLOAD SUB PUSH2 0x1DB JUMPI PUSH0 DUP2 DUP2 SLOAD DUP2 LT PUSH2 0x1C3 JUMPI PUSH2 0x1C2 PUSH2 0x7AE JUMP JUMPDEST JUMPDEST SWAP1 PUSH0 MSTORE PUSH1 0x20 PUSH0 KECCAK256 SWAP1 PUSH1 0x3 MUL ADD PUSH1 0x2 ADD SLOAD SWAP2 POP POP PUSH2 0x1ED JUMP JUMPDEST DUP1 DUP1 PUSH1 0x1 ADD SWAP2 POP POP PUSH2 0x17C JUMP JUMPDEST POP PUSH0 SWAP1 POP JUMPDEST SWAP2 SWAP1 POP JUMP JUMPDEST PUSH0 DUP2 DUP2 SLOAD DUP2 LT PUSH2 0x200 JUMPI PUSH0 DUP1 REVERT JUMPDEST SWAP1 PUSH0 MSTORE PUSH1 0x20 PUSH0 KECCAK256 SWAP1 PUSH1 0x3 MUL ADD PUSH0 SWAP2 POP SWAP1 POP DUP1 PUSH0 ADD SLOAD SWAP1 DUP1 PUSH1 0x1 ADD DUP1 SLOAD PUSH2 0x225 SWAP1 PUSH2 0x512 JUMP JUMPDEST DUP1 PUSH1 0x1F ADD PUSH1 0x20 DUP1 SWAP2 DIV MUL PUSH1 0x20 ADD PUSH1 0x40 MLOAD SWAP1 DUP2 ADD PUSH1 0x40 MSTORE DUP1 SWAP3 SWAP2 SWAP1 DUP2 DUP2 MSTORE PUSH1 0x20 ADD DUP3 DUP1 SLOAD PUSH2 0x251 SWAP1 PUSH2 0x512 JUMP JUMPDEST DUP1 ISZERO PUSH2 0x29C JUMPI DUP1 PUSH1 0x1F LT PUSH2 0x273 JUMPI PUSH2 0x100 DUP1 DUP4 SLOAD DIV MUL DUP4 MSTORE SWAP2 PUSH1 0x20 ADD SWAP2 PUSH2 0x29C JUMP JUMPDEST DUP3 ADD SWAP2 SWAP1 PUSH0 MSTORE PUSH1 0x20 PUSH0 KECCAK256 SWAP1 JUMPDEST DUP2 SLOAD DUP2 MSTORE SWAP1 PUSH1 0x1 ADD SWAP1 PUSH1 0x20 ADD DUP1 DUP4 GT PUSH2 0x27F JUMPI DUP3 SWAP1 SUB PUSH1 0x1F AND DUP3 ADD SWAP2 JUMPDEST POP POP POP POP POP SWAP1 DUP1 PUSH1 0x2 ADD SLOAD SWAP1 POP DUP4 JUMP JUMPDEST PUSH0 DUP1 REVERT JUMPDEST PUSH0 DUP1 REVERT JUMPDEST PUSH0 DUP2 SWAP1 POP SWAP2 SWAP1 POP JUMP JUMPDEST PUSH2 0x2C6 DUP2 PUSH2 0x2B4 JUMP JUMPDEST DUP2 EQ PUSH2 0x2D0 JUMPI PUSH0 DUP1 REVERT JUMPDEST POP JUMP JUMPDEST PUSH0 DUP2 CALLDATALOAD SWAP1 POP PUSH2 0x2E1 DUP2 PUSH2 0x2BD JUMP JUMPDEST SWAP3 SWAP2 POP POP JUMP JUMPDEST PUSH0 DUP1 REVERT JUMPDEST PUSH0 DUP1 REVERT JUMPDEST PUSH0 DUP1 REVERT JUMPDEST PUSH0 DUP1 DUP4 PUSH1 0x1F DUP5 ADD SLT PUSH2 0x308 JUMPI PUSH2 0x307 PUSH2 0x2E7 JUMP JUMPDEST JUMPDEST DUP3 CALLDATALOAD SWAP1 POP PUSH8 0xFFFFFFFFFFFFFFFF DUP2 GT ISZERO PUSH2 0x325 JUMPI PUSH2 0x324 PUSH2 0x2EB JUMP JUMPDEST JUMPDEST PUSH1 0x20 DUP4 ADD SWAP2 POP DUP4 PUSH1 0x1 DUP3 MUL DUP4 ADD GT ISZERO PUSH2 0x341 JUMPI PUSH2 0x340 PUSH2 0x2EF JUMP JUMPDEST JUMPDEST SWAP3 POP SWAP3 SWAP1 POP JUMP JUMPDEST PUSH0 DUP1 PUSH0 DUP1 PUSH1 0x60 DUP6 DUP8 SUB SLT ISZERO PUSH2 0x360 JUMPI PUSH2 0x35F PUSH2 0x2AC JUMP JUMPDEST JUMPDEST PUSH0 PUSH2 0x36D DUP8 DUP3 DUP9 ADD PUSH2 0x2D3 JUMP JUMPDEST SWAP5 POP POP PUSH1 0x20 DUP6 ADD CALLDATALOAD PUSH8 0xFFFFFFFFFFFFFFFF DUP2 GT ISZERO PUSH2 0x38E JUMPI PUSH2 0x38D PUSH2 0x2B0 JUMP JUMPDEST JUMPDEST PUSH2 0x39A DUP8 DUP3 DUP9 ADD PUSH2 0x2F3 JUMP JUMPDEST SWAP4 POP SWAP4 POP POP PUSH1 0x40 PUSH2 0x3AD DUP8 DUP3 DUP9 ADD PUSH2 0x2D3 JUMP JUMPDEST SWAP2 POP POP SWAP3 SWAP6 SWAP2 SWAP5 POP SWAP3 POP JUMP JUMPDEST PUSH0 PUSH1 0x20 DUP3 DUP5 SUB SLT ISZERO PUSH2 0x3CE JUMPI PUSH2 0x3CD PUSH2 0x2AC JUMP JUMPDEST JUMPDEST PUSH0 PUSH2 0x3DB DUP5 DUP3 DUP6 ADD PUSH2 0x2D3 JUMP JUMPDEST SWAP2 POP POP SWAP3 SWAP2 POP POP JUMP JUMPDEST PUSH2 0x3ED DUP2 PUSH2 0x2B4 JUMP JUMPDEST DUP3 MSTORE POP POP JUMP JUMPDEST PUSH0 PUSH1 0x20 DUP3 ADD SWAP1 POP PUSH2 0x406 PUSH0 DUP4 ADD DUP5 PUSH2 0x3E4 JUMP JUMPDEST SWAP3 SWAP2 POP POP JUMP JUMPDEST PUSH0 DUP2 MLOAD SWAP1 POP SWAP2 SWAP1 POP JUMP JUMPDEST PUSH0 DUP3 DUP3 MSTORE PUSH1 0x20 DUP3 ADD SWAP1 POP SWAP3 SWAP2 POP POP JUMP JUMPDEST DUP3 DUP2 DUP4 MCOPY PUSH0 DUP4 DUP4 ADD MSTORE POP POP POP JUMP JUMPDEST PUSH0 PUSH1 0x1F NOT PUSH1 0x1F DUP4 ADD AND SWAP1 POP SWAP2 SWAP1 POP JUMP JUMPDEST PUSH0 PUSH2 0x44E DUP3 PUSH2 0x40C JUMP JUMPDEST PUSH2 0x458 DUP2 DUP6 PUSH2 0x416 JUMP JUMPDEST SWAP4 POP PUSH2 0x468 DUP2 DUP6 PUSH1 0x20 DUP7 ADD PUSH2 0x426 JUMP JUMPDEST PUSH2 0x471 DUP2 PUSH2 0x434 JUMP JUMPDEST DUP5 ADD SWAP2 POP POP SWAP3 SWAP2 POP POP JUMP JUMPDEST PUSH0 PUSH1 0x60 DUP3 ADD SWAP1 POP PUSH2 0x48F PUSH0 DUP4 ADD DUP7 PUSH2 0x3E4 JUMP JUMPDEST DUP2 DUP2 SUB PUSH1 0x20 DUP4 ADD MSTORE PUSH2 0x4A1 DUP2 DUP6 PUSH2 0x444 JUMP JUMPDEST SWAP1 POP PUSH2 0x4B0 PUSH1 0x40 DUP4 ADD DUP5 PUSH2 0x3E4 JUMP JUMPDEST SWAP5 SWAP4 POP POP POP POP JUMP JUMPDEST PUSH32 0x4E487B7100000000000000000000000000000000000000000000000000000000 PUSH0 MSTORE PUSH1 0x41 PUSH1 0x4 MSTORE PUSH1 0x24 PUSH0 REVERT JUMPDEST PUSH32 0x4E487B7100000000000000000000000000000000000000000000000000000000 PUSH0 MSTORE PUSH1 0x22 PUSH1 0x4 MSTORE PUSH1 0x24 PUSH0 REVERT JUMPDEST PUSH0 PUSH1 0x2 DUP3 DIV SWAP1 POP PUSH1 0x1 DUP3 AND DUP1 PUSH2 0x529 JUMPI PUSH1 0x7F DUP3 AND SWAP2 POP JUMPDEST PUSH1 0x20 DUP3 LT DUP2 SUB PUSH2 0x53C JUMPI PUSH2 0x53B PUSH2 0x4E5 JUMP JUMPDEST JUMPDEST POP SWAP2 SWAP1 POP JUMP JUMPDEST PUSH0 DUP2 SWAP1 POP DUP2 PUSH0 MSTORE PUSH1 0x20 PUSH0 KECCAK256 SWAP1 POP SWAP2 SWAP1 POP JUMP JUMPDEST PUSH0 PUSH1 0x20 PUSH1 0x1F DUP4 ADD DIV SWAP1 POP SWAP2 SWAP1 POP JUMP JUMPDEST PUSH0 DUP3 DUP3 SHL SWAP1 POP SWAP3 SWAP2 POP POP JUMP JUMPDEST PUSH0 PUSH1 0x8 DUP4 MUL PUSH2 0x59E PUSH32 0xFFFFFFFFFFFFFFFFFFFFFFFFFFFFFFFFFFFFFFFFFFFFFFFFFFFFFFFFFFFFFFFF DUP3 PUSH2 0x563 JUMP JUMPDEST PUSH2 0x5A8 DUP7 DUP4 PUSH2 0x563 JUMP JUMPDEST SWAP6 POP DUP1 NOT DUP5 AND SWAP4 POP DUP1 DUP7 AND DUP5 OR SWAP3 POP POP POP SWAP4 SWAP3 POP POP POP JUMP JUMPDEST PUSH0 DUP2 SWAP1 POP SWAP2 SWAP1 POP JUMP JUMPDEST PUSH0 PUSH2 0x5E3 PUSH2 0x5DE PUSH2 0x5D9 DUP5 PUSH2 0x2B4 JUMP JUMPDEST PUSH2 0x5C0 JUMP JUMPDEST PUSH2 0x2B4 JUMP JUMPDEST SWAP1 POP SWAP2 SWAP1 POP JUMP JUMPDEST PUSH0 DUP2 SWAP1 POP SWAP2 SWAP1 POP JUMP JUMPDEST PUSH2 0x5FC DUP4 PUSH2 0x5C9 JUMP JUMPDEST PUSH2 0x610 PUSH2 0x608 DUP3 PUSH2 0x5EA JUMP JUMPDEST DUP5 DUP5 SLOAD PUSH2 0x56F JUMP JUMPDEST DUP3 SSTORE POP POP POP POP JUMP JUMPDEST PUSH0 SWAP1 JUMP JUMPDEST PUSH2 0x624 PUSH2 0x618 JUMP JUMPDEST PUSH2 0x62F DUP2 DUP5 DUP5 PUSH2 0x5F3 JUMP JUMPDEST POP POP POP JUMP JUMPDEST JUMPDEST DUP2 DUP2 LT ISZERO PUSH2 0x652 JUMPI PUSH2 0x647 PUSH0 DUP3 PUSH2 0x61C JUMP JUMPDEST PUSH1 0x1 DUP2 ADD SWAP1 POP PUSH2 0x635 JUMP JUMPDEST POP POP JUMP JUMPDEST PUSH1 0x1F DUP3 GT ISZERO PUSH2 0x697 JUMPI PUSH2 0x668 DUP2 PUSH2 0x542 JUMP JUMPDEST PUSH2 0x671 DUP5 PUSH2 0x554 JUMP JUMPDEST DUP2 ADD PUSH1 0x20 DUP6 LT ISZERO PUSH2 0x680 JUMPI DUP2 SWAP1 POP JUMPDEST PUSH2 0x694 PUSH2 0x68C DUP6 PUSH2 0x554 JUMP JUMPDEST DUP4 ADD DUP3 PUSH2 0x634 JUMP JUMPDEST POP POP JUMPDEST POP POP POP JUMP JUMPDEST PUSH0 DUP3 DUP3 SHR SWAP1 POP SWAP3 SWAP2 POP POP JUMP JUMPDEST PUSH0 PUSH2 0x6B7 PUSH0 NOT DUP5 PUSH1 0x8 MUL PUSH2 0x69C JUMP JUMPDEST NOT DUP1 DUP4 AND SWAP2 POP POP SWAP3 SWAP2 POP POP JUMP JUMPDEST PUSH0 PUSH2 0x6CF DUP4 DUP4 PUSH2 0x6A8 JUMP JUMPDEST SWAP2 POP DUP3 PUSH1 0x2 MUL DUP3 OR SWAP1 POP SWAP3 SWAP2 POP POP JUMP JUMPDEST PUSH2 0x6E8 DUP3 PUSH2 0x40C JUMP JUMPDEST PUSH8 0xFFFFFFFFFFFFFFFF DUP2 GT ISZERO PUSH2 0x701 JUMPI PUSH2 0x700 PUSH2 0x4B8 JUMP JUMPDEST JUMPDEST PUSH2 0x70B DUP3 SLOAD PUSH2 0x512 JUMP JUMPDEST PUSH2 0x716 DUP3 DUP3 DUP6 PUSH2 0x656 JUMP JUMPDEST PUSH0 PUSH1 0x20 SWAP1 POP PUSH1 0x1F DUP4 GT PUSH1 0x1 DUP2 EQ PUSH2 0x747 JUMPI PUSH0 DUP5 ISZERO PUSH2 0x735 JUMPI DUP3 DUP8 ADD MLOAD SWAP1 POP JUMPDEST PUSH2 0x73F DUP6 DUP3 PUSH2 0x6C4 JUMP JUMPDEST DUP7 SSTORE POP PUSH2 0x7A6 JUMP JUMPDEST PUSH1 0x1F NOT DUP5 AND PUSH2 0x755 DUP7 PUSH2 0x542 JUMP JUMPDEST PUSH0 JUMPDEST DUP3 DUP2 LT ISZERO PUSH2 0x77C JUMPI DUP5 DUP10 ADD MLOAD DUP3 SSTORE PUSH1 0x1 DUP3 ADD SWAP2 POP PUSH1 0x20 DUP6 ADD SWAP5 POP PUSH1 0x20 DUP2 ADD SWAP1 POP PUSH2 0x757 JUMP JUMPDEST DUP7 DUP4 LT ISZERO PUSH2 0x799 JUMPI DUP5 DUP10 ADD MLOAD PUSH2 0x795 PUSH1 0x1F DUP10 AND DUP3 PUSH2 0x6A8 JUMP JUMPDEST DUP4 SSTORE POP JUMPDEST PUSH1 0x1 PUSH1 0x2 DUP9 MUL ADD DUP9 SSTORE POP POP POP JUMPDEST POP POP POP POP POP POP JUMP JUMPDEST PUSH32 0x4E487B7100000000000000000000000000000000000000000000000000000000 PUSH0 MSTORE PUSH1 0x32 PUSH1 0x4 MSTORE PUSH1 0x24 PUSH0 REVERT INVALID LOG2 PUSH5 0x6970667358 0x22 SLT KECCAK256 DUP11 PUSH17 0x1561C79093CE3A11BB84D13A13A7F85685 PUSH25 0xAEE4EE62571E6FE275AE41C564736F6C634300081A00330000 "
				},
				"gasEstimates": {
					"creation": {
						"codeDepositCost": "413000",
						"executionCost": "447",
						"totalCost": "413447"
					},
					"external": {
						"addEmployee(uint256,string,uint256)": "infinite",
						"e(uint256)": "infinite",
						"getEmployee(uint256)": "infinite"
					}
				},
				"methodIdentifiers": {
					"addEmployee(uint256,string,uint256)": "9459d5d7",
					"e(uint256)": "f37cdc8e",
					"getEmployee(uint256)": "bca9a5c5"
				}
			},
			"storageLayout": {
				"storage": [
					{
						"astId": 12,
						"contract": "contracts/EmployeeRegistry_23.sol:EmployeeRegistry",
						"label": "e",
						"offset": 0,
						"slot": "0",
						"type": "t_array(t_struct(Employee)8_storage)dyn_storage"
					}
				],
				"types": {
					"t_array(t_struct(Employee)8_storage)dyn_storage": {
						"base": "t_struct(Employee)8_storage",
						"encoding": "dynamic_array",
						"label": "struct EmployeeRegistry.Employee[]",
						"numberOfBytes": "32"
					},
					"t_string_storage": {
						"encoding": "bytes",
						"label": "string",
						"numberOfBytes": "32"
					},
					"t_struct(Employee)8_storage": {
						"encoding": "inplace",
						"label": "struct EmployeeRegistry.Employee",
						"members": [
							{
								"astId": 3,
								"contract": "contracts/EmployeeRegistry_23.sol:EmployeeRegistry",
								"label": "id",
								"offset": 0,
								"slot": "0",
								"type": "t_uint256"
							},
							{
								"astId": 5,
								"contract": "contracts/EmployeeRegistry_23.sol:EmployeeRegistry",
								"label": "name",
								"offset": 0,
								"slot": "1",
								"type": "t_string_storage"
							},
							{
								"astId": 7,
								"contract": "contracts/EmployeeRegistry_23.sol:EmployeeRegistry",
								"label": "salary",
								"offset": 0,
								"slot": "2",
								"type": "t_uint256"
							}
						],
						"numberOfBytes": "96"
					},
					"t_uint256": {
						"encoding": "inplace",
						"label": "uint256",
						"numberOfBytes": "32"
					}
				}
			},
			"userdoc": {
				"kind": "user",
				"methods": {},
				"version": 1
			}
		}
	}
}