{
	"contracts/Function.sol": {
		"Function": {
			"abi": [
				{
					"inputs": [],
					"name": "addition",
					"outputs": [],
					"stateMutability": "pure",
					"type": "function"
				},
				{
					"inputs": [],
					"name": "changeState",
					"outputs": [],
					"stateMutability": "nonpayable",
					"type": "function"
				},
				{
					"inputs": [
						{
							"internalType": "uint256",
							"name": "a",
							"type": "uint256"
						},
						{
							"internalType": "uint256",
							"name": "b",
							"type": "uint256"
						}
					],
					"name": "div",
					"outputs": [
						{
							"internalType": "uint256",
							"name": "",
							"type": "uint256"
						}
					],
					"stateMutability": "pure",
					"type": "function"
				},
				{
					"inputs": [],
					"name": "multiplication",
					"outputs": [
						{
							"internalType": "uint256",
							"name": "",
							"type": "uint256"
						}
					],
					"stateMutability": "view",
					"type": "function"
				},
				{
					"inputs": [],
					"name": "randomValue",
					"outputs": [
						{
							"internalType": "uint256",
							"name": "",
							"type": "uint256"
						}
					],
					"stateMutability": "view",
					"type": "function"
				},
				{
					"inputs": [],
					"name": "subtraction",
					"outputs": [
						{
							"internalType": "uint256",
							"name": "",
							"type": "uint256"
						}
					],
					"stateMutability": "pure",
					"type": "function"
				},
				{
					"inputs": [],
					"name": "value",
					"outputs": [
						{
							"internalType": "uint256",
							"name": "",
							"type": "uint256"
						}
					],
					"stateMutability": "view",
					"type": "function"
				}
			],
			"devdoc": {
				"kind": "dev",
				"methods": {},
				"version": 1
			},
			"evm": {
				"assembly": "    /* \"contracts/Function.sol\":67:902  contract Function{\r... */\n  mstore(0x40, 0x80)\n    /* \"contracts/Function.sol\":113:115  10 */\n  0x0a\n    /* \"contracts/Function.sol\":103:115  uint num1=10 */\n  0x00\n  sstore\n    /* \"contracts/Function.sol\":132:134  20 */\n  0x14\n    /* \"contracts/Function.sol\":122:134  uint num2=20 */\n  0x01\n  sstore\n    /* \"contracts/Function.sol\":163:165  10 */\n  0x0a\n    /* \"contracts/Function.sol\":145:165  uint public value=10 */\n  0x02\n  sstore\n    /* \"contracts/Function.sol\":257:260  100 */\n  0x64\n    /* \"contracts/Function.sol\":233:260  uint public randomValue=100 */\n  0x03\n  sstore\n    /* \"contracts/Function.sol\":67:902  contract Function{\r... */\n  callvalue\n  dup1\n  iszero\n  tag_1\n  jumpi\n  0x00\n  dup1\n  revert\ntag_1:\n  pop\n  dataSize(sub_0)\n  dup1\n  dataOffset(sub_0)\n  0x00\n  codecopy\n  0x00\n  return\nstop\n\nsub_0: assembly {\n        /* \"contracts/Function.sol\":67:902  contract Function{\r... */\n      mstore(0x40, 0x80)\n      callvalue\n      dup1\n      iszero\n      tag_1\n      jumpi\n      0x00\n      dup1\n      revert\n    tag_1:\n      pop\n      jumpi(tag_2, lt(calldatasize, 0x04))\n      shr(0xe0, calldataload(0x00))\n      dup1\n      0x8412e667\n      gt\n      tag_10\n      jumpi\n      dup1\n      0x8412e667\n      eq\n      tag_6\n      jumpi\n      dup1\n      0xa391c15b\n      eq\n      tag_7\n      jumpi\n      dup1\n      0xe3ec0251\n      eq\n      tag_8\n      jumpi\n      dup1\n      0xec597128\n      eq\n      tag_9\n      jumpi\n      jump(tag_2)\n    tag_10:\n      dup1\n      0x011285da\n      eq\n      tag_3\n      jumpi\n      dup1\n      0x276801ec\n      eq\n      tag_4\n      jumpi\n      dup1\n      0x3fa4f245\n      eq\n      tag_5\n      jumpi\n    tag_2:\n      0x00\n      dup1\n      revert\n        /* \"contracts/Function.sol\":547:633  function multiplication() public view returns(uint){\r... */\n    tag_3:\n      tag_11\n      tag_12\n      jump\t// in\n    tag_11:\n      mload(0x40)\n      tag_13\n      swap2\n      swap1\n      tag_14\n      jump\t// in\n    tag_13:\n      mload(0x40)\n      dup1\n      swap2\n      sub\n      swap1\n      return\n        /* \"contracts/Function.sol\":233:260  uint public randomValue=100 */\n    tag_4:\n      tag_15\n      tag_16\n      jump\t// in\n    tag_15:\n      mload(0x40)\n      tag_17\n      swap2\n      swap1\n      tag_14\n      jump\t// in\n    tag_17:\n      mload(0x40)\n      dup1\n      swap2\n      sub\n      swap1\n      return\n        /* \"contracts/Function.sol\":145:165  uint public value=10 */\n    tag_5:\n      tag_18\n      tag_19\n      jump\t// in\n    tag_18:\n      mload(0x40)\n      tag_20\n      swap2\n      swap1\n      tag_14\n      jump\t// in\n    tag_20:\n      mload(0x40)\n      dup1\n      swap2\n      sub\n      swap1\n      return\n        /* \"contracts/Function.sol\":835:899  function changeState() public {\r... */\n    tag_6:\n      tag_21\n      tag_22\n      jump\t// in\n    tag_21:\n      stop\n        /* \"contracts/Function.sol\":685:767  function div(uint a,uint b) public pure returns(uint){\r... */\n    tag_7:\n      tag_23\n      0x04\n      dup1\n      calldatasize\n      sub\n      dup2\n      add\n      swap1\n      tag_24\n      swap2\n      swap1\n      tag_25\n      jump\t// in\n    tag_24:\n      tag_26\n      jump\t// in\n    tag_23:\n      mload(0x40)\n      tag_27\n      swap2\n      swap1\n      tag_14\n      jump\t// in\n    tag_27:\n      mload(0x40)\n      dup1\n      swap2\n      sub\n      swap1\n      return\n        /* \"contracts/Function.sol\":387:504  function subtraction() public pure returns(uint){\r... */\n    tag_8:\n      tag_28\n      tag_29\n      jump\t// in\n    tag_28:\n      mload(0x40)\n      tag_30\n      swap2\n      swap1\n      tag_14\n      jump\t// in\n    tag_30:\n      mload(0x40)\n      dup1\n      swap2\n      sub\n      swap1\n      return\n        /* \"contracts/Function.sol\":267:379  function addition() public pure{\r... */\n    tag_9:\n      tag_31\n      tag_32\n      jump\t// in\n    tag_31:\n      stop\n        /* \"contracts/Function.sol\":547:633  function multiplication() public view returns(uint){\r... */\n    tag_12:\n        /* \"contracts/Function.sol\":593:597  uint */\n      0x00\n        /* \"contracts/Function.sol\":621:625  num2 */\n      sload(0x01)\n        /* \"contracts/Function.sol\":616:620  num1 */\n      sload(0x00)\n        /* \"contracts/Function.sol\":616:625  num1*num2 */\n      tag_34\n      swap2\n      swap1\n      tag_35\n      jump\t// in\n    tag_34:\n        /* \"contracts/Function.sol\":609:625  return num1*num2 */\n      swap1\n      pop\n        /* \"contracts/Function.sol\":547:633  function multiplication() public view returns(uint){\r... */\n      swap1\n      jump\t// out\n        /* \"contracts/Function.sol\":233:260  uint public randomValue=100 */\n    tag_16:\n      sload(0x03)\n      dup2\n      jump\t// out\n        /* \"contracts/Function.sol\":145:165  uint public value=10 */\n    tag_19:\n      sload(0x02)\n      dup2\n      jump\t// out\n        /* \"contracts/Function.sol\":835:899  function changeState() public {\r... */\n    tag_22:\n        /* \"contracts/Function.sol\":881:884  100 */\n      0x64\n        /* \"contracts/Function.sol\":876:880  num1 */\n      0x00\n        /* \"contracts/Function.sol\":876:884  num1=100 */\n      dup2\n      swap1\n      sstore\n      pop\n        /* \"contracts/Function.sol\":835:899  function changeState() public {\r... */\n      jump\t// out\n        /* \"contracts/Function.sol\":685:767  function div(uint a,uint b) public pure returns(uint){\r... */\n    tag_26:\n        /* \"contracts/Function.sol\":733:737  uint */\n      0x00\n        /* \"contracts/Function.sol\":758:759  b */\n      dup2\n        /* \"contracts/Function.sol\":756:757  a */\n      dup4\n        /* \"contracts/Function.sol\":756:759  a/b */\n      tag_38\n      swap2\n      swap1\n      tag_39\n      jump\t// in\n    tag_38:\n        /* \"contracts/Function.sol\":749:759  return a/b */\n      swap1\n      pop\n        /* \"contracts/Function.sol\":685:767  function div(uint a,uint b) public pure returns(uint){\r... */\n      swap3\n      swap2\n      pop\n      pop\n      jump\t// out\n        /* \"contracts/Function.sol\":387:504  function subtraction() public pure returns(uint){\r... */\n    tag_29:\n        /* \"contracts/Function.sol\":430:434  uint */\n      0x00\n        /* \"contracts/Function.sol\":446:452  uint a */\n      dup1\n        /* \"contracts/Function.sol\":453:455  10 */\n      0x0a\n        /* \"contracts/Function.sol\":446:455  uint a=10 */\n      swap1\n      pop\n        /* \"contracts/Function.sol\":466:472  uint b */\n      0x00\n        /* \"contracts/Function.sol\":473:475  20 */\n      0x14\n        /* \"contracts/Function.sol\":466:475  uint b=20 */\n      swap1\n      pop\n        /* \"contracts/Function.sol\":495:496  a */\n      dup2\n        /* \"contracts/Function.sol\":493:494  b */\n      dup2\n        /* \"contracts/Function.sol\":493:496  b-a */\n      tag_41\n      swap2\n      swap1\n      tag_42\n      jump\t// in\n    tag_41:\n        /* \"contracts/Function.sol\":486:496  return b-a */\n      swap3\n      pop\n      pop\n      pop\n        /* \"contracts/Function.sol\":387:504  function subtraction() public pure returns(uint){\r... */\n      swap1\n      jump\t// out\n        /* \"contracts/Function.sol\":267:379  function addition() public pure{\r... */\n    tag_32:\n        /* \"contracts/Function.sol\":309:315  uint a */\n      0x00\n        /* \"contracts/Function.sol\":316:318  10 */\n      0x0a\n        /* \"contracts/Function.sol\":309:318  uint a=10 */\n      swap1\n      pop\n        /* \"contracts/Function.sol\":329:335  uint b */\n      0x00\n        /* \"contracts/Function.sol\":336:338  20 */\n      0x14\n        /* \"contracts/Function.sol\":329:338  uint b=20 */\n      swap1\n      pop\n        /* \"contracts/Function.sol\":349:355  uint c */\n      0x00\n        /* \"contracts/Function.sol\":370:371  b */\n      dup2\n        /* \"contracts/Function.sol\":368:369  a */\n      dup4\n        /* \"contracts/Function.sol\":368:371  a+b */\n      tag_44\n      swap2\n      swap1\n      tag_45\n      jump\t// in\n    tag_44:\n        /* \"contracts/Function.sol\":366:371  c=a+b */\n      swap1\n      pop\n        /* \"contracts/Function.sol\":267:379  function addition() public pure{\r... */\n      pop\n      pop\n      pop\n      jump\t// out\n        /* \"#utility.yul\":7:146   */\n    tag_47:\n      0x00\n        /* \"#utility.yul\":91:97   */\n      dup2\n        /* \"#utility.yul\":78:98   */\n      calldataload\n        /* \"#utility.yul\":69:98   */\n      swap1\n      pop\n        /* \"#utility.yul\":107:140   */\n      tag_49\n        /* \"#utility.yul\":134:139   */\n      dup2\n        /* \"#utility.yul\":107:140   */\n      tag_50\n      jump\t// in\n    tag_49:\n        /* \"#utility.yul\":59:146   */\n      swap3\n      swap2\n      pop\n      pop\n      jump\t// out\n        /* \"#utility.yul\":152:559   */\n    tag_25:\n      0x00\n      dup1\n        /* \"#utility.yul\":277:279   */\n      0x40\n        /* \"#utility.yul\":265:274   */\n      dup4\n        /* \"#utility.yul\":256:263   */\n      dup6\n        /* \"#utility.yul\":252:275   */\n      sub\n        /* \"#utility.yul\":248:280   */\n      slt\n        /* \"#utility.yul\":245:247   */\n      iszero\n      tag_52\n      jumpi\n        /* \"#utility.yul\":293:294   */\n      0x00\n        /* \"#utility.yul\":290:291   */\n      dup1\n        /* \"#utility.yul\":283:295   */\n      revert\n        /* \"#utility.yul\":245:247   */\n    tag_52:\n        /* \"#utility.yul\":336:337   */\n      0x00\n        /* \"#utility.yul\":361:414   */\n      tag_53\n        /* \"#utility.yul\":406:413   */\n      dup6\n        /* \"#utility.yul\":397:403   */\n      dup3\n        /* \"#utility.yul\":386:395   */\n      dup7\n        /* \"#utility.yul\":382:404   */\n      add\n        /* \"#utility.yul\":361:414   */\n      tag_47\n      jump\t// in\n    tag_53:\n        /* \"#utility.yul\":351:414   */\n      swap3\n      pop\n        /* \"#utility.yul\":307:424   */\n      pop\n        /* \"#utility.yul\":463:465   */\n      0x20\n        /* \"#utility.yul\":489:542   */\n      tag_54\n        /* \"#utility.yul\":534:541   */\n      dup6\n        /* \"#utility.yul\":525:531   */\n      dup3\n        /* \"#utility.yul\":514:523   */\n      dup7\n        /* \"#utility.yul\":510:532   */\n      add\n        /* \"#utility.yul\":489:542   */\n      tag_47\n      jump\t// in\n    tag_54:\n        /* \"#utility.yul\":479:542   */\n      swap2\n      pop\n        /* \"#utility.yul\":434:552   */\n      pop\n        /* \"#utility.yul\":235:559   */\n      swap3\n      pop\n      swap3\n      swap1\n      pop\n      jump\t// out\n        /* \"#utility.yul\":565:683   */\n    tag_55:\n        /* \"#utility.yul\":652:676   */\n      tag_57\n        /* \"#utility.yul\":670:675   */\n      dup2\n        /* \"#utility.yul\":652:676   */\n      tag_58\n      jump\t// in\n    tag_57:\n        /* \"#utility.yul\":647:650   */\n      dup3\n        /* \"#utility.yul\":640:677   */\n      mstore\n        /* \"#utility.yul\":630:683   */\n      pop\n      pop\n      jump\t// out\n        /* \"#utility.yul\":689:911   */\n    tag_14:\n      0x00\n        /* \"#utility.yul\":820:822   */\n      0x20\n        /* \"#utility.yul\":809:818   */\n      dup3\n        /* \"#utility.yul\":805:823   */\n      add\n        /* \"#utility.yul\":797:823   */\n      swap1\n      pop\n        /* \"#utility.yul\":833:904   */\n      tag_60\n        /* \"#utility.yul\":901:902   */\n      0x00\n        /* \"#utility.yul\":890:899   */\n      dup4\n        /* \"#utility.yul\":886:903   */\n      add\n        /* \"#utility.yul\":877:883   */\n      dup5\n        /* \"#utility.yul\":833:904   */\n      tag_55\n      jump\t// in\n    tag_60:\n        /* \"#utility.yul\":787:911   */\n      swap3\n      swap2\n      pop\n      pop\n      jump\t// out\n        /* \"#utility.yul\":917:1222   */\n    tag_45:\n      0x00\n        /* \"#utility.yul\":976:996   */\n      tag_62\n        /* \"#utility.yul\":994:995   */\n      dup3\n        /* \"#utility.yul\":976:996   */\n      tag_58\n      jump\t// in\n    tag_62:\n        /* \"#utility.yul\":971:996   */\n      swap2\n      pop\n        /* \"#utility.yul\":1010:1030   */\n      tag_63\n        /* \"#utility.yul\":1028:1029   */\n      dup4\n        /* \"#utility.yul\":1010:1030   */\n      tag_58\n      jump\t// in\n    tag_63:\n        /* \"#utility.yul\":1005:1030   */\n      swap3\n      pop\n        /* \"#utility.yul\":1164:1165   */\n      dup3\n        /* \"#utility.yul\":1096:1162   */\n      0xffffffffffffffffffffffffffffffffffffffffffffffffffffffffffffffff\n        /* \"#utility.yul\":1092:1166   */\n      sub\n        /* \"#utility.yul\":1089:1090   */\n      dup3\n        /* \"#utility.yul\":1086:1167   */\n      gt\n        /* \"#utility.yul\":1083:1085   */\n      iszero\n      tag_64\n      jumpi\n        /* \"#utility.yul\":1170:1188   */\n      tag_65\n      tag_66\n      jump\t// in\n    tag_65:\n        /* \"#utility.yul\":1083:1085   */\n    tag_64:\n        /* \"#utility.yul\":1214:1215   */\n      dup3\n        /* \"#utility.yul\":1211:1212   */\n      dup3\n        /* \"#utility.yul\":1207:1216   */\n      add\n        /* \"#utility.yul\":1200:1216   */\n      swap1\n      pop\n        /* \"#utility.yul\":961:1222   */\n      swap3\n      swap2\n      pop\n      pop\n      jump\t// out\n        /* \"#utility.yul\":1228:1413   */\n    tag_39:\n      0x00\n        /* \"#utility.yul\":1285:1305   */\n      tag_68\n        /* \"#utility.yul\":1303:1304   */\n      dup3\n        /* \"#utility.yul\":1285:1305   */\n      tag_58\n      jump\t// in\n    tag_68:\n        /* \"#utility.yul\":1280:1305   */\n      swap2\n      pop\n        /* \"#utility.yul\":1319:1339   */\n      tag_69\n        /* \"#utility.yul\":1337:1338   */\n      dup4\n        /* \"#utility.yul\":1319:1339   */\n      tag_58\n      jump\t// in\n    tag_69:\n        /* \"#utility.yul\":1314:1339   */\n      swap3\n      pop\n        /* \"#utility.yul\":1358:1359   */\n      dup3\n        /* \"#utility.yul\":1348:1350   */\n      tag_70\n      jumpi\n        /* \"#utility.yul\":1363:1381   */\n      tag_71\n      tag_72\n      jump\t// in\n    tag_71:\n        /* \"#utility.yul\":1348:1350   */\n    tag_70:\n        /* \"#utility.yul\":1405:1406   */\n      dup3\n        /* \"#utility.yul\":1402:1403   */\n      dup3\n        /* \"#utility.yul\":1398:1407   */\n      div\n        /* \"#utility.yul\":1393:1407   */\n      swap1\n      pop\n        /* \"#utility.yul\":1270:1413   */\n      swap3\n      swap2\n      pop\n      pop\n      jump\t// out\n        /* \"#utility.yul\":1419:1767   */\n    tag_35:\n      0x00\n        /* \"#utility.yul\":1482:1502   */\n      tag_74\n        /* \"#utility.yul\":1500:1501   */\n      dup3\n        /* \"#utility.yul\":1482:1502   */\n      tag_58\n      jump\t// in\n    tag_74:\n        /* \"#utility.yul\":1477:1502   */\n      swap2\n      pop\n        /* \"#utility.yul\":1516:1536   */\n      tag_75\n        /* \"#utility.yul\":1534:1535   */\n      dup4\n        /* \"#utility.yul\":1516:1536   */\n      tag_58\n      jump\t// in\n    tag_75:\n        /* \"#utility.yul\":1511:1536   */\n      swap3\n      pop\n        /* \"#utility.yul\":1704:1705   */\n      dup2\n        /* \"#utility.yul\":1636:1702   */\n      0xffffffffffffffffffffffffffffffffffffffffffffffffffffffffffffffff\n        /* \"#utility.yul\":1632:1706   */\n      div\n        /* \"#utility.yul\":1629:1630   */\n      dup4\n        /* \"#utility.yul\":1626:1707   */\n      gt\n        /* \"#utility.yul\":1621:1622   */\n      dup3\n        /* \"#utility.yul\":1614:1623   */\n      iszero\n        /* \"#utility.yul\":1607:1624   */\n      iszero\n        /* \"#utility.yul\":1603:1708   */\n      and\n        /* \"#utility.yul\":1600:1602   */\n      iszero\n      tag_76\n      jumpi\n        /* \"#utility.yul\":1711:1729   */\n      tag_77\n      tag_66\n      jump\t// in\n    tag_77:\n        /* \"#utility.yul\":1600:1602   */\n    tag_76:\n        /* \"#utility.yul\":1759:1760   */\n      dup3\n        /* \"#utility.yul\":1756:1757   */\n      dup3\n        /* \"#utility.yul\":1752:1761   */\n      mul\n        /* \"#utility.yul\":1741:1761   */\n      swap1\n      pop\n        /* \"#utility.yul\":1467:1767   */\n      swap3\n      swap2\n      pop\n      pop\n      jump\t// out\n        /* \"#utility.yul\":1773:1964   */\n    tag_42:\n      0x00\n        /* \"#utility.yul\":1833:1853   */\n      tag_79\n        /* \"#utility.yul\":1851:1852   */\n      dup3\n        /* \"#utility.yul\":1833:1853   */\n      tag_58\n      jump\t// in\n    tag_79:\n        /* \"#utility.yul\":1828:1853   */\n      swap2\n      pop\n        /* \"#utility.yul\":1867:1887   */\n      tag_80\n        /* \"#utility.yul\":1885:1886   */\n      dup4\n        /* \"#utility.yul\":1867:1887   */\n      tag_58\n      jump\t// in\n    tag_80:\n        /* \"#utility.yul\":1862:1887   */\n      swap3\n      pop\n        /* \"#utility.yul\":1906:1907   */\n      dup3\n        /* \"#utility.yul\":1903:1904   */\n      dup3\n        /* \"#utility.yul\":1900:1908   */\n      lt\n        /* \"#utility.yul\":1897:1899   */\n      iszero\n      tag_81\n      jumpi\n        /* \"#utility.yul\":1911:1929   */\n      tag_82\n      tag_66\n      jump\t// in\n    tag_82:\n        /* \"#utility.yul\":1897:1899   */\n    tag_81:\n        /* \"#utility.yul\":1956:1957   */\n      dup3\n        /* \"#utility.yul\":1953:1954   */\n      dup3\n        /* \"#utility.yul\":1949:1958   */\n      sub\n        /* \"#utility.yul\":1941:1958   */\n      swap1\n      pop\n        /* \"#utility.yul\":1818:1964   */\n      swap3\n      swap2\n      pop\n      pop\n      jump\t// out\n        /* \"#utility.yul\":1970:2047   */\n    tag_58:\n      0x00\n        /* \"#utility.yul\":2036:2041   */\n      dup2\n        /* \"#utility.yul\":2025:2041   */\n      swap1\n      pop\n        /* \"#utility.yul\":2015:2047   */\n      swap2\n      swap1\n      pop\n      jump\t// out\n        /* \"#utility.yul\":2053:2233   */\n    tag_66:\n        /* \"#utility.yul\":2101:2178   */\n      0x4e487b7100000000000000000000000000000000000000000000000000000000\n        /* \"#utility.yul\":2098:2099   */\n      0x00\n        /* \"#utility.yul\":2091:2179   */\n      mstore\n        /* \"#utility.yul\":2198:2202   */\n      0x11\n        /* \"#utility.yul\":2195:2196   */\n      0x04\n        /* \"#utility.yul\":2188:2203   */\n      mstore\n        /* \"#utility.yul\":2222:2226   */\n      0x24\n        /* \"#utility.yul\":2219:2220   */\n      0x00\n        /* \"#utility.yul\":2212:2227   */\n      revert\n        /* \"#utility.yul\":2239:2419   */\n    tag_72:\n        /* \"#utility.yul\":2287:2364   */\n      0x4e487b7100000000000000000000000000000000000000000000000000000000\n        /* \"#utility.yul\":2284:2285   */\n      0x00\n        /* \"#utility.yul\":2277:2365   */\n      mstore\n        /* \"#utility.yul\":2384:2388   */\n      0x12\n        /* \"#utility.yul\":2381:2382   */\n      0x04\n        /* \"#utility.yul\":2374:2389   */\n      mstore\n        /* \"#utility.yul\":2408:2412   */\n      0x24\n        /* \"#utility.yul\":2405:2406   */\n      0x00\n        /* \"#utility.yul\":2398:2413   */\n      revert\n        /* \"#utility.yul\":2425:2547   */\n    tag_50:\n        /* \"#utility.yul\":2498:2522   */\n      tag_87\n        /* \"#utility.yul\":2516:2521   */\n      dup2\n        /* \"#utility.yul\":2498:2522   */\n      tag_58\n      jump\t// in\n    tag_87:\n        /* \"#utility.yul\":2491:2496   */\n      dup2\n        /* \"#utility.yul\":2488:2523   */\n      eq\n        /* \"#utility.yul\":2478:2480   */\n      tag_88\n      jumpi\n        /* \"#utility.yul\":2537:2538   */\n      0x00\n        /* \"#utility.yul\":2534:2535   */\n      dup1\n        /* \"#utility.yul\":2527:2539   */\n      revert\n        /* \"#utility.yul\":2478:2480   */\n    tag_88:\n        /* \"#utility.yul\":2468:2547   */\n      pop\n      jump\t// out\n\n    auxdata: 0xa2646970667358221220f49dd2f25b69cd0bcc7a7020b99409c982e81e557070df86f2c8610269e3fe0764736f6c63430008000033\n}\n",
				"bytecode": {
					"linkReferences": {},
					"object": "6080604052600a6000556014600155600a600255606460035534801561002457600080fd5b50610407806100346000396000f3fe608060405234801561001057600080fd5b506004361061007d5760003560e01c80638412e6671161005b5780638412e667146100dc578063a391c15b146100e6578063e3ec025114610116578063ec597128146101345761007d565b8063011285da14610082578063276801ec146100a05780633fa4f245146100be575b600080fd5b61008a61013e565b6040516100979190610222565b60405180910390f35b6100a8610155565b6040516100b59190610222565b60405180910390f35b6100c661015b565b6040516100d39190610222565b60405180910390f35b6100e4610161565b005b61010060048036038101906100fb91906101d7565b61016b565b60405161010d9190610222565b60405180910390f35b61011e610181565b60405161012b9190610222565b60405180910390f35b61013c6101a1565b005b600060015460005461015091906102c4565b905090565b60035481565b60025481565b6064600081905550565b600081836101799190610293565b905092915050565b600080600a9050600060149050818161019a919061031e565b9250505090565b6000600a9050600060149050600081836101bb919061023d565b9050505050565b6000813590506101d1816103ba565b92915050565b600080604083850312156101ea57600080fd5b60006101f8858286016101c2565b9250506020610209858286016101c2565b9150509250929050565b61021c81610352565b82525050565b60006020820190506102376000830184610213565b92915050565b600061024882610352565b915061025383610352565b9250827fffffffffffffffffffffffffffffffffffffffffffffffffffffffffffffffff038211156102885761028761035c565b5b828201905092915050565b600061029e82610352565b91506102a983610352565b9250826102b9576102b861038b565b5b828204905092915050565b60006102cf82610352565b91506102da83610352565b9250817fffffffffffffffffffffffffffffffffffffffffffffffffffffffffffffffff04831182151516156103135761031261035c565b5b828202905092915050565b600061032982610352565b915061033483610352565b9250828210156103475761034661035c565b5b828203905092915050565b6000819050919050565b7f4e487b7100000000000000000000000000000000000000000000000000000000600052601160045260246000fd5b7f4e487b7100000000000000000000000000000000000000000000000000000000600052601260045260246000fd5b6103c381610352565b81146103ce57600080fd5b5056fea2646970667358221220f49dd2f25b69cd0bcc7a7020b99409c982e81e557070df86f2c8610269e3fe0764736f6c63430008000033",
					"opcodes": "PUSH1 0x80 PUSH1 0x40 MSTORE PUSH1 0xA PUSH1 0x0 SSTORE PUSH1 0x14 PUSH1 0x1 SSTORE PUSH1 0xA PUSH1 0x2 SSTORE PUSH1 0x64 PUSH1 0x3 SSTORE CALLVALUE DUP1 ISZERO PUSH2 0x24 JUMPI PUSH1 0x0 DUP1 REVERT JUMPDEST POP PUSH2 0x407 DUP1 PUSH2 0x34 PUSH1 0x0 CODECOPY PUSH1 0x0 RETURN INVALID PUSH1 0x80 PUSH1 0x40 MSTORE CALLVALUE DUP1 ISZERO PUSH2 0x10 JUMPI PUSH1 0x0 DUP1 REVERT JUMPDEST POP PUSH1 0x4 CALLDATASIZE LT PUSH2 0x7D JUMPI PUSH1 0x0 CALLDATALOAD PUSH1 0xE0 SHR DUP1 PUSH4 0x8412E667 GT PUSH2 0x5B JUMPI DUP1 PUSH4 0x8412E667 EQ PUSH2 0xDC JUMPI DUP1 PUSH4 0xA391C15B EQ PUSH2 0xE6 JUMPI DUP1 PUSH4 0xE3EC0251 EQ PUSH2 0x116 JUMPI DUP1 PUSH4 0xEC597128 EQ PUSH2 0x134 JUMPI PUSH2 0x7D JUMP JUMPDEST DUP1 PUSH4 0x11285DA EQ PUSH2 0x82 JUMPI DUP1 PUSH4 0x276801EC EQ PUSH2 0xA0 JUMPI DUP1 PUSH4 0x3FA4F245 EQ PUSH2 0xBE JUMPI JUMPDEST PUSH1 0x0 DUP1 REVERT JUMPDEST PUSH2 0x8A PUSH2 0x13E JUMP JUMPDEST PUSH1 0x40 MLOAD PUSH2 0x97 SWAP2 SWAP1 PUSH2 0x222 JUMP JUMPDEST PUSH1 0x40 MLOAD DUP1 SWAP2 SUB SWAP1 RETURN JUMPDEST PUSH2 0xA8 PUSH2 0x155 JUMP JUMPDEST PUSH1 0x40 MLOAD PUSH2 0xB5 SWAP2 SWAP1 PUSH2 0x222 JUMP JUMPDEST PUSH1 0x40 MLOAD DUP1 SWAP2 SUB SWAP1 RETURN JUMPDEST PUSH2 0xC6 PUSH2 0x15B JUMP JUMPDEST PUSH1 0x40 MLOAD PUSH2 0xD3 SWAP2 SWAP1 PUSH2 0x222 JUMP JUMPDEST PUSH1 0x40 MLOAD DUP1 SWAP2 SUB SWAP1 RETURN JUMPDEST PUSH2 0xE4 PUSH2 0x161 JUMP JUMPDEST STOP JUMPDEST PUSH2 0x100 PUSH1 0x4 DUP1 CALLDATASIZE SUB DUP2 ADD SWAP1 PUSH2 0xFB SWAP2 SWAP1 PUSH2 0x1D7 JUMP JUMPDEST PUSH2 0x16B JUMP JUMPDEST PUSH1 0x40 MLOAD PUSH2 0x10D SWAP2 SWAP1 PUSH2 0x222 JUMP JUMPDEST PUSH1 0x40 MLOAD DUP1 SWAP2 SUB SWAP1 RETURN JUMPDEST PUSH2 0x11E PUSH2 0x181 JUMP JUMPDEST PUSH1 0x40 MLOAD PUSH2 0x12B SWAP2 SWAP1 PUSH2 0x222 JUMP JUMPDEST PUSH1 0x40 MLOAD DUP1 SWAP2 SUB SWAP1 RETURN JUMPDEST PUSH2 0x13C PUSH2 0x1A1 JUMP JUMPDEST STOP JUMPDEST PUSH1 0x0 PUSH1 0x1 SLOAD PUSH1 0x0 SLOAD PUSH2 0x150 SWAP2 SWAP1 PUSH2 0x2C4 JUMP JUMPDEST SWAP1 POP SWAP1 JUMP JUMPDEST PUSH1 0x3 SLOAD DUP2 JUMP JUMPDEST PUSH1 0x2 SLOAD DUP2 JUMP JUMPDEST PUSH1 0x64 PUSH1 0x0 DUP2 SWAP1 SSTORE POP JUMP JUMPDEST PUSH1 0x0 DUP2 DUP4 PUSH2 0x179 SWAP2 SWAP1 PUSH2 0x293 JUMP JUMPDEST SWAP1 POP SWAP3 SWAP2 POP POP JUMP JUMPDEST PUSH1 0x0 DUP1 PUSH1 0xA SWAP1 POP PUSH1 0x0 PUSH1 0x14 SWAP1 POP DUP2 DUP2 PUSH2 0x19A SWAP2 SWAP1 PUSH2 0x31E JUMP JUMPDEST SWAP3 POP POP POP SWAP1 JUMP JUMPDEST PUSH1 0x0 PUSH1 0xA SWAP1 POP PUSH1 0x0 PUSH1 0x14 SWAP1 POP PUSH1 0x0 DUP2 DUP4 PUSH2 0x1BB SWAP2 SWAP1 PUSH2 0x23D JUMP JUMPDEST SWAP1 POP POP POP POP JUMP JUMPDEST PUSH1 0x0 DUP2 CALLDATALOAD SWAP1 POP PUSH2 0x1D1 DUP2 PUSH2 0x3BA JUMP JUMPDEST SWAP3 SWAP2 POP POP JUMP JUMPDEST PUSH1 0x0 DUP1 PUSH1 0x40 DUP4 DUP6 SUB SLT ISZERO PUSH2 0x1EA JUMPI PUSH1 0x0 DUP1 REVERT JUMPDEST PUSH1 0x0 PUSH2 0x1F8 DUP6 DUP3 DUP7 ADD PUSH2 0x1C2 JUMP JUMPDEST SWAP3 POP POP PUSH1 0x20 PUSH2 0x209 DUP6 DUP3 DUP7 ADD PUSH2 0x1C2 JUMP JUMPDEST SWAP2 POP POP SWAP3 POP SWAP3 SWAP1 POP JUMP JUMPDEST PUSH2 0x21C DUP2 PUSH2 0x352 JUMP JUMPDEST DUP3 MSTORE POP POP JUMP JUMPDEST PUSH1 0x0 PUSH1 0x20 DUP3 ADD SWAP1 POP PUSH2 0x237 PUSH1 0x0 DUP4 ADD DUP5 PUSH2 0x213 JUMP JUMPDEST SWAP3 SWAP2 POP POP JUMP JUMPDEST PUSH1 0x0 PUSH2 0x248 DUP3 PUSH2 0x352 JUMP JUMPDEST SWAP2 POP PUSH2 0x253 DUP4 PUSH2 0x352 JUMP JUMPDEST SWAP3 POP DUP3 PUSH32 0xFFFFFFFFFFFFFFFFFFFFFFFFFFFFFFFFFFFFFFFFFFFFFFFFFFFFFFFFFFFFFFFF SUB DUP3 GT ISZERO PUSH2 0x288 JUMPI PUSH2 0x287 PUSH2 0x35C JUMP JUMPDEST JUMPDEST DUP3 DUP3 ADD SWAP1 POP SWAP3 SWAP2 POP POP JUMP JUMPDEST PUSH1 0x0 PUSH2 0x29E DUP3 PUSH2 0x352 JUMP JUMPDEST SWAP2 POP PUSH2 0x2A9 DUP4 PUSH2 0x352 JUMP JUMPDEST SWAP3 POP DUP3 PUSH2 0x2B9 JUMPI PUSH2 0x2B8 PUSH2 0x38B JUMP JUMPDEST JUMPDEST DUP3 DUP3 DIV SWAP1 POP SWAP3 SWAP2 POP POP JUMP JUMPDEST PUSH1 0x0 PUSH2 0x2CF DUP3 PUSH2 0x352 JUMP JUMPDEST SWAP2 POP PUSH2 0x2DA DUP4 PUSH2 0x352 JUMP JUMPDEST SWAP3 POP DUP2 PUSH32 0xFFFFFFFFFFFFFFFFFFFFFFFFFFFFFFFFFFFFFFFFFFFFFFFFFFFFFFFFFFFFFFFF DIV DUP4 GT DUP3 ISZERO ISZERO AND ISZERO PUSH2 0x313 JUMPI PUSH2 0x312 PUSH2 0x35C JUMP JUMPDEST JUMPDEST DUP3 DUP3 MUL SWAP1 POP SWAP3 SWAP2 POP POP JUMP JUMPDEST PUSH1 0x0 PUSH2 0x329 DUP3 PUSH2 0x352 JUMP JUMPDEST SWAP2 POP PUSH2 0x334 DUP4 PUSH2 0x352 JUMP JUMPDEST SWAP3 POP DUP3 DUP3 LT ISZERO PUSH2 0x347 JUMPI PUSH2 0x346 PUSH2 0x35C JUMP JUMPDEST JUMPDEST DUP3 DUP3 SUB SWAP1 POP SWAP3 SWAP2 POP POP JUMP JUMPDEST PUSH1 0x0 DUP2 SWAP1 POP SWAP2 SWAP1 POP JUMP JUMPDEST PUSH32 0x4E487B7100000000000000000000000000000000000000000000000000000000 PUSH1 0x0 MSTORE PUSH1 0x11 PUSH1 0x4 MSTORE PUSH1 0x24 PUSH1 0x0 REVERT JUMPDEST PUSH32 0x4E487B7100000000000000000000000000000000000000000000000000000000 PUSH1 0x0 MSTORE PUSH1 0x12 PUSH1 0x4 MSTORE PUSH1 0x24 PUSH1 0x0 REVERT JUMPDEST PUSH2 0x3C3 DUP2 PUSH2 0x352 JUMP JUMPDEST DUP2 EQ PUSH2 0x3CE JUMPI PUSH1 0x0 DUP1 REVERT JUMPDEST POP JUMP INVALID LOG2 PUSH5 0x6970667358 0x22 SLT KECCAK256 DELEGATECALL SWAP14 0xD2 CALLCODE JUMPDEST PUSH10 0xCD0BCC7A7020B99409C9 DUP3 0xE8 0x1E SSTORE PUSH17 0x70DF86F2C8610269E3FE0764736F6C6343 STOP ADDMOD STOP STOP CALLER "
				},
				"gasEstimates": {
					"creation": {
						"codeDepositCost": "206200",
						"executionCost": "80275",
						"totalCost": "286475"
					},
					"external": {
						"addition()": "infinite",
						"changeState()": "20158",
						"div(uint256,uint256)": "infinite",
						"multiplication()": "infinite",
						"randomValue()": "1152",
						"subtraction()": "infinite",
						"value()": "1174"
					}
				},
				"methodIdentifiers": {
					"addition()": "ec597128",
					"changeState()": "8412e667",
					"div(uint256,uint256)": "a391c15b",
					"multiplication()": "011285da",
					"randomValue()": "276801ec",
					"subtraction()": "e3ec0251",
					"value()": "3fa4f245"
				}
			},
			"storageLayout": {
				"storage": [
					{
						"astId": 4,
						"contract": "contracts/Function.sol:Function",
						"label": "num1",
						"offset": 0,
						"slot": "0",
						"type": "t_uint256"
					},
					{
						"astId": 7,
						"contract": "contracts/Function.sol:Function",
						"label": "num2",
						"offset": 0,
						"slot": "1",
						"type": "t_uint256"
					},
					{
						"astId": 10,
						"contract": "contracts/Function.sol:Function",
						"label": "value",
						"offset": 0,
						"slot": "2",
						"type": "t_uint256"
					},
					{
						"astId": 13,
						"contract": "contracts/Function.sol:Function",
						"label": "randomValue",
						"offset": 0,
						"slot": "3",
						"type": "t_uint256"
					}
				],
				"types": {
					"t_uint256": {
						"encoding": "inplace",
						"label": "uint256",
						"numberOfBytes": "32"
					}
				}
			},
			"userdoc": {
				"kind": "user",
				"methods": {},
				"version": 1
			}
		}
	}
}