{
	"contracts/BytesN_8.sol": {
		"BytesDataType": {
			"abi": [
				{
					"inputs": [],
					"name": "getter",
					"outputs": [
						{
							"internalType": "bytes1",
							"name": "",
							"type": "bytes1"
						}
					],
					"stateMutability": "view",
					"type": "function"
				},
				{
					"inputs": [
						{
							"internalType": "uint256",
							"name": "index",
							"type": "uint256"
						}
					],
					"name": "getterIndex",
					"outputs": [
						{
							"internalType": "bytes1",
							"name": "",
							"type": "bytes1"
						}
					],
					"stateMutability": "view",
					"type": "function"
				},
				{
					"inputs": [],
					"name": "n1",
					"outputs": [
						{
							"internalType": "bytes1",
							"name": "",
							"type": "bytes1"
						}
					],
					"stateMutability": "view",
					"type": "function"
				},
				{
					"inputs": [],
					"name": "n2",
					"outputs": [
						{
							"internalType": "bytes2",
							"name": "",
							"type": "bytes2"
						}
					],
					"stateMutability": "view",
					"type": "function"
				},
				{
					"inputs": [],
					"name": "n3",
					"outputs": [
						{
							"internalType": "bytes3",
							"name": "",
							"type": "bytes3"
						}
					],
					"stateMutability": "view",
					"type": "function"
				},
				{
					"inputs": [],
					"name": "n4",
					"outputs": [
						{
							"internalType": "bytes32",
							"name": "",
							"type": "bytes32"
						}
					],
					"stateMutability": "view",
					"type": "function"
				}
			],
			"devdoc": {
				"kind": "dev",
				"methods": {},
				"version": 1
			},
			"evm": {
				"assembly": "    /* \"contracts/BytesN_8.sol\":63:405  contract BytesDataType{\r... */\n  mstore(0x40, 0x80)\n    /* \"contracts/BytesN_8.sol\":92:112  bytes1 public n1=\"a\" */\n  0x6100000000000000000000000000000000000000000000000000000000000000\n  0x00\n  dup1\n  0x0100\n  exp\n  dup2\n  sload\n  dup2\n  0xff\n  mul\n  not\n  and\n  swap1\n  dup4\n  0xf8\n  shr\n  mul\n  or\n  swap1\n  sstore\n  pop\n    /* \"contracts/BytesN_8.sol\":119:140  bytes2 public n2=\"ab\" */\n  0x6162000000000000000000000000000000000000000000000000000000000000\n  0x00\n  exp(0x0100, 0x01)\n  dup2\n  sload\n  dup2\n  0xffff\n  mul\n  not\n  and\n  swap1\n  dup4\n  0xf0\n  shr\n  mul\n  or\n  swap1\n  sstore\n  pop\n    /* \"contracts/BytesN_8.sol\":147:169  bytes3 public n3=\"abc\" */\n  0x6162630000000000000000000000000000000000000000000000000000000000\n  0x00\n  exp(0x0100, 0x03)\n  dup2\n  sload\n  dup2\n  0xffffff\n  mul\n  not\n  and\n  swap1\n  dup4\n  0xe8\n  shr\n  mul\n  or\n  swap1\n  sstore\n  pop\n    /* \"contracts/BytesN_8.sol\":197:217  bytes32 public n4=\"\" */\n  sstore(0x01, 0x00)\n    /* \"contracts/BytesN_8.sol\":63:405  contract BytesDataType{\r... */\n  callvalue\n  dup1\n  iszero\n  tag_1\n  jumpi\n  0x00\n  dup1\n  revert\ntag_1:\n  pop\n  dataSize(sub_0)\n  dup1\n  dataOffset(sub_0)\n  0x00\n  codecopy\n  0x00\n  return\nstop\n\nsub_0: assembly {\n        /* \"contracts/BytesN_8.sol\":63:405  contract BytesDataType{\r... */\n      mstore(0x40, 0x80)\n      callvalue\n      dup1\n      iszero\n      tag_1\n      jumpi\n      0x00\n      dup1\n      revert\n    tag_1:\n      pop\n      jumpi(tag_2, lt(calldatasize, 0x04))\n      shr(0xe0, calldataload(0x00))\n      dup1\n      0x36fe1f25\n      eq\n      tag_3\n      jumpi\n      dup1\n      0x4aaa831d\n      eq\n      tag_4\n      jumpi\n      dup1\n      0x562b0be7\n      eq\n      tag_5\n      jumpi\n      dup1\n      0x562f5764\n      eq\n      tag_6\n      jumpi\n      dup1\n      0x993a04b7\n      eq\n      tag_7\n      jumpi\n      dup1\n      0xb95df403\n      eq\n      tag_8\n      jumpi\n    tag_2:\n      0x00\n      dup1\n      revert\n        /* \"contracts/BytesN_8.sol\":92:112  bytes1 public n1=\"a\" */\n    tag_3:\n      tag_9\n      tag_10\n      jump\t// in\n    tag_9:\n      mload(0x40)\n      tag_11\n      swap2\n      swap1\n      tag_12\n      jump\t// in\n    tag_11:\n      mload(0x40)\n      dup1\n      swap2\n      sub\n      swap1\n      return\n        /* \"contracts/BytesN_8.sol\":119:140  bytes2 public n2=\"ab\" */\n    tag_4:\n      tag_13\n      tag_14\n      jump\t// in\n    tag_13:\n      mload(0x40)\n      tag_15\n      swap2\n      swap1\n      tag_16\n      jump\t// in\n    tag_15:\n      mload(0x40)\n      dup1\n      swap2\n      sub\n      swap1\n      return\n        /* \"contracts/BytesN_8.sol\":197:217  bytes32 public n4=\"\" */\n    tag_5:\n      tag_17\n      tag_18\n      jump\t// in\n    tag_17:\n      mload(0x40)\n      tag_19\n      swap2\n      swap1\n      tag_20\n      jump\t// in\n    tag_19:\n      mload(0x40)\n      dup1\n      swap2\n      sub\n      swap1\n      return\n        /* \"contracts/BytesN_8.sol\":307:402  function getterIndex(uint index) public view returns(bytes1){\r... */\n    tag_6:\n      tag_21\n      0x04\n      dup1\n      calldatasize\n      sub\n      dup2\n      add\n      swap1\n      tag_22\n      swap2\n      swap1\n      tag_23\n      jump\t// in\n    tag_22:\n      tag_24\n      jump\t// in\n    tag_21:\n      mload(0x40)\n      tag_25\n      swap2\n      swap1\n      tag_12\n      jump\t// in\n    tag_25:\n      mload(0x40)\n      dup1\n      swap2\n      sub\n      swap1\n      return\n        /* \"contracts/BytesN_8.sol\":226:299  function getter() public view returns(bytes1){\r... */\n    tag_7:\n      tag_26\n      tag_27\n      jump\t// in\n    tag_26:\n      mload(0x40)\n      tag_28\n      swap2\n      swap1\n      tag_12\n      jump\t// in\n    tag_28:\n      mload(0x40)\n      dup1\n      swap2\n      sub\n      swap1\n      return\n        /* \"contracts/BytesN_8.sol\":147:169  bytes3 public n3=\"abc\" */\n    tag_8:\n      tag_29\n      tag_30\n      jump\t// in\n    tag_29:\n      mload(0x40)\n      tag_31\n      swap2\n      swap1\n      tag_32\n      jump\t// in\n    tag_31:\n      mload(0x40)\n      dup1\n      swap2\n      sub\n      swap1\n      return\n        /* \"contracts/BytesN_8.sol\":92:112  bytes1 public n1=\"a\" */\n    tag_10:\n      0x00\n      dup1\n      sload\n      swap1\n      0x0100\n      exp\n      swap1\n      div\n      0xf8\n      shl\n      dup2\n      jump\t// out\n        /* \"contracts/BytesN_8.sol\":119:140  bytes2 public n2=\"ab\" */\n    tag_14:\n      0x00\n      0x01\n      swap1\n      sload\n      swap1\n      0x0100\n      exp\n      swap1\n      div\n      0xf0\n      shl\n      dup2\n      jump\t// out\n        /* \"contracts/BytesN_8.sol\":197:217  bytes32 public n4=\"\" */\n    tag_18:\n      sload(0x01)\n      dup2\n      jump\t// out\n        /* \"contracts/BytesN_8.sol\":307:402  function getterIndex(uint index) public view returns(bytes1){\r... */\n    tag_24:\n        /* \"contracts/BytesN_8.sol\":360:366  bytes1 */\n      0x00\n        /* \"contracts/BytesN_8.sol\":385:387  n3 */\n      dup1\n      0x03\n      swap1\n      sload\n      swap1\n      0x0100\n      exp\n      swap1\n      div\n      0xe8\n      shl\n        /* \"contracts/BytesN_8.sol\":388:393  index */\n      dup3\n        /* \"contracts/BytesN_8.sol\":385:394  n3[index] */\n      0x03\n      dup2\n      lt\n      tag_34\n      jumpi\n      mstore(0x00, 0x4e487b7100000000000000000000000000000000000000000000000000000000)\n      mstore(0x04, 0x32)\n      revert(0x00, 0x24)\n    tag_34:\n      byte\n      0xf8\n      shl\n        /* \"contracts/BytesN_8.sol\":378:394  return n3[index] */\n      swap1\n      pop\n        /* \"contracts/BytesN_8.sol\":307:402  function getterIndex(uint index) public view returns(bytes1){\r... */\n      swap2\n      swap1\n      pop\n      jump\t// out\n        /* \"contracts/BytesN_8.sol\":226:299  function getter() public view returns(bytes1){\r... */\n    tag_27:\n        /* \"contracts/BytesN_8.sol\":264:270  bytes1 */\n      0x00\n        /* \"contracts/BytesN_8.sol\":289:291  n1 */\n      dup1\n      0x00\n      swap1\n      sload\n      swap1\n      0x0100\n      exp\n      swap1\n      div\n      0xf8\n      shl\n        /* \"contracts/BytesN_8.sol\":282:291  return n1 */\n      swap1\n      pop\n        /* \"contracts/BytesN_8.sol\":226:299  function getter() public view returns(bytes1){\r... */\n      swap1\n      jump\t// out\n        /* \"contracts/BytesN_8.sol\":147:169  bytes3 public n3=\"abc\" */\n    tag_30:\n      0x00\n      0x03\n      swap1\n      sload\n      swap1\n      0x0100\n      exp\n      swap1\n      div\n      0xe8\n      shl\n      dup2\n      jump\t// out\n        /* \"#utility.yul\":7:146   */\n    tag_37:\n      0x00\n        /* \"#utility.yul\":91:97   */\n      dup2\n        /* \"#utility.yul\":78:98   */\n      calldataload\n        /* \"#utility.yul\":69:98   */\n      swap1\n      pop\n        /* \"#utility.yul\":107:140   */\n      tag_39\n        /* \"#utility.yul\":134:139   */\n      dup2\n        /* \"#utility.yul\":107:140   */\n      tag_40\n      jump\t// in\n    tag_39:\n        /* \"#utility.yul\":59:146   */\n      swap3\n      swap2\n      pop\n      pop\n      jump\t// out\n        /* \"#utility.yul\":152:414   */\n    tag_23:\n      0x00\n        /* \"#utility.yul\":260:262   */\n      0x20\n        /* \"#utility.yul\":248:257   */\n      dup3\n        /* \"#utility.yul\":239:246   */\n      dup5\n        /* \"#utility.yul\":235:258   */\n      sub\n        /* \"#utility.yul\":231:263   */\n      slt\n        /* \"#utility.yul\":228:230   */\n      iszero\n      tag_42\n      jumpi\n        /* \"#utility.yul\":276:277   */\n      0x00\n        /* \"#utility.yul\":273:274   */\n      dup1\n        /* \"#utility.yul\":266:278   */\n      revert\n        /* \"#utility.yul\":228:230   */\n    tag_42:\n        /* \"#utility.yul\":319:320   */\n      0x00\n        /* \"#utility.yul\":344:397   */\n      tag_43\n        /* \"#utility.yul\":389:396   */\n      dup5\n        /* \"#utility.yul\":380:386   */\n      dup3\n        /* \"#utility.yul\":369:378   */\n      dup6\n        /* \"#utility.yul\":365:387   */\n      add\n        /* \"#utility.yul\":344:397   */\n      tag_37\n      jump\t// in\n    tag_43:\n        /* \"#utility.yul\":334:397   */\n      swap2\n      pop\n        /* \"#utility.yul\":290:407   */\n      pop\n        /* \"#utility.yul\":218:414   */\n      swap3\n      swap2\n      pop\n      pop\n      jump\t// out\n        /* \"#utility.yul\":420:535   */\n    tag_44:\n        /* \"#utility.yul\":505:528   */\n      tag_46\n        /* \"#utility.yul\":522:527   */\n      dup2\n        /* \"#utility.yul\":505:528   */\n      tag_47\n      jump\t// in\n    tag_46:\n        /* \"#utility.yul\":500:503   */\n      dup3\n        /* \"#utility.yul\":493:529   */\n      mstore\n        /* \"#utility.yul\":483:535   */\n      pop\n      pop\n      jump\t// out\n        /* \"#utility.yul\":541:656   */\n    tag_48:\n        /* \"#utility.yul\":626:649   */\n      tag_50\n        /* \"#utility.yul\":643:648   */\n      dup2\n        /* \"#utility.yul\":626:649   */\n      tag_51\n      jump\t// in\n    tag_50:\n        /* \"#utility.yul\":621:624   */\n      dup3\n        /* \"#utility.yul\":614:650   */\n      mstore\n        /* \"#utility.yul\":604:656   */\n      pop\n      pop\n      jump\t// out\n        /* \"#utility.yul\":662:780   */\n    tag_52:\n        /* \"#utility.yul\":749:773   */\n      tag_54\n        /* \"#utility.yul\":767:772   */\n      dup2\n        /* \"#utility.yul\":749:773   */\n      tag_55\n      jump\t// in\n    tag_54:\n        /* \"#utility.yul\":744:747   */\n      dup3\n        /* \"#utility.yul\":737:774   */\n      mstore\n        /* \"#utility.yul\":727:780   */\n      pop\n      pop\n      jump\t// out\n        /* \"#utility.yul\":786:901   */\n    tag_56:\n        /* \"#utility.yul\":871:894   */\n      tag_58\n        /* \"#utility.yul\":888:893   */\n      dup2\n        /* \"#utility.yul\":871:894   */\n      tag_59\n      jump\t// in\n    tag_58:\n        /* \"#utility.yul\":866:869   */\n      dup3\n        /* \"#utility.yul\":859:895   */\n      mstore\n        /* \"#utility.yul\":849:901   */\n      pop\n      pop\n      jump\t// out\n        /* \"#utility.yul\":907:1125   */\n    tag_12:\n      0x00\n        /* \"#utility.yul\":1036:1038   */\n      0x20\n        /* \"#utility.yul\":1025:1034   */\n      dup3\n        /* \"#utility.yul\":1021:1039   */\n      add\n        /* \"#utility.yul\":1013:1039   */\n      swap1\n      pop\n        /* \"#utility.yul\":1049:1118   */\n      tag_61\n        /* \"#utility.yul\":1115:1116   */\n      0x00\n        /* \"#utility.yul\":1104:1113   */\n      dup4\n        /* \"#utility.yul\":1100:1117   */\n      add\n        /* \"#utility.yul\":1091:1097   */\n      dup5\n        /* \"#utility.yul\":1049:1118   */\n      tag_44\n      jump\t// in\n    tag_61:\n        /* \"#utility.yul\":1003:1125   */\n      swap3\n      swap2\n      pop\n      pop\n      jump\t// out\n        /* \"#utility.yul\":1131:1349   */\n    tag_16:\n      0x00\n        /* \"#utility.yul\":1260:1262   */\n      0x20\n        /* \"#utility.yul\":1249:1258   */\n      dup3\n        /* \"#utility.yul\":1245:1263   */\n      add\n        /* \"#utility.yul\":1237:1263   */\n      swap1\n      pop\n        /* \"#utility.yul\":1273:1342   */\n      tag_63\n        /* \"#utility.yul\":1339:1340   */\n      0x00\n        /* \"#utility.yul\":1328:1337   */\n      dup4\n        /* \"#utility.yul\":1324:1341   */\n      add\n        /* \"#utility.yul\":1315:1321   */\n      dup5\n        /* \"#utility.yul\":1273:1342   */\n      tag_48\n      jump\t// in\n    tag_63:\n        /* \"#utility.yul\":1227:1349   */\n      swap3\n      swap2\n      pop\n      pop\n      jump\t// out\n        /* \"#utility.yul\":1355:1577   */\n    tag_20:\n      0x00\n        /* \"#utility.yul\":1486:1488   */\n      0x20\n        /* \"#utility.yul\":1475:1484   */\n      dup3\n        /* \"#utility.yul\":1471:1489   */\n      add\n        /* \"#utility.yul\":1463:1489   */\n      swap1\n      pop\n        /* \"#utility.yul\":1499:1570   */\n      tag_65\n        /* \"#utility.yul\":1567:1568   */\n      0x00\n        /* \"#utility.yul\":1556:1565   */\n      dup4\n        /* \"#utility.yul\":1552:1569   */\n      add\n        /* \"#utility.yul\":1543:1549   */\n      dup5\n        /* \"#utility.yul\":1499:1570   */\n      tag_52\n      jump\t// in\n    tag_65:\n        /* \"#utility.yul\":1453:1577   */\n      swap3\n      swap2\n      pop\n      pop\n      jump\t// out\n        /* \"#utility.yul\":1583:1801   */\n    tag_32:\n      0x00\n        /* \"#utility.yul\":1712:1714   */\n      0x20\n        /* \"#utility.yul\":1701:1710   */\n      dup3\n        /* \"#utility.yul\":1697:1715   */\n      add\n        /* \"#utility.yul\":1689:1715   */\n      swap1\n      pop\n        /* \"#utility.yul\":1725:1794   */\n      tag_67\n        /* \"#utility.yul\":1791:1792   */\n      0x00\n        /* \"#utility.yul\":1780:1789   */\n      dup4\n        /* \"#utility.yul\":1776:1793   */\n      add\n        /* \"#utility.yul\":1767:1773   */\n      dup5\n        /* \"#utility.yul\":1725:1794   */\n      tag_56\n      jump\t// in\n    tag_67:\n        /* \"#utility.yul\":1679:1801   */\n      swap3\n      swap2\n      pop\n      pop\n      jump\t// out\n        /* \"#utility.yul\":1807:1956   */\n    tag_47:\n      0x00\n        /* \"#utility.yul\":1883:1949   */\n      0xff00000000000000000000000000000000000000000000000000000000000000\n        /* \"#utility.yul\":1876:1881   */\n      dup3\n        /* \"#utility.yul\":1872:1950   */\n      and\n        /* \"#utility.yul\":1861:1950   */\n      swap1\n      pop\n        /* \"#utility.yul\":1851:1956   */\n      swap2\n      swap1\n      pop\n      jump\t// out\n        /* \"#utility.yul\":1962:2111   */\n    tag_51:\n      0x00\n        /* \"#utility.yul\":2038:2104   */\n      0xffff000000000000000000000000000000000000000000000000000000000000\n        /* \"#utility.yul\":2031:2036   */\n      dup3\n        /* \"#utility.yul\":2027:2105   */\n      and\n        /* \"#utility.yul\":2016:2105   */\n      swap1\n      pop\n        /* \"#utility.yul\":2006:2111   */\n      swap2\n      swap1\n      pop\n      jump\t// out\n        /* \"#utility.yul\":2117:2266   */\n    tag_59:\n      0x00\n        /* \"#utility.yul\":2193:2259   */\n      0xffffff0000000000000000000000000000000000000000000000000000000000\n        /* \"#utility.yul\":2186:2191   */\n      dup3\n        /* \"#utility.yul\":2182:2260   */\n      and\n        /* \"#utility.yul\":2171:2260   */\n      swap1\n      pop\n        /* \"#utility.yul\":2161:2266   */\n      swap2\n      swap1\n      pop\n      jump\t// out\n        /* \"#utility.yul\":2272:2349   */\n    tag_55:\n      0x00\n        /* \"#utility.yul\":2338:2343   */\n      dup2\n        /* \"#utility.yul\":2327:2343   */\n      swap1\n      pop\n        /* \"#utility.yul\":2317:2349   */\n      swap2\n      swap1\n      pop\n      jump\t// out\n        /* \"#utility.yul\":2355:2432   */\n    tag_72:\n      0x00\n        /* \"#utility.yul\":2421:2426   */\n      dup2\n        /* \"#utility.yul\":2410:2426   */\n      swap1\n      pop\n        /* \"#utility.yul\":2400:2432   */\n      swap2\n      swap1\n      pop\n      jump\t// out\n        /* \"#utility.yul\":2438:2560   */\n    tag_40:\n        /* \"#utility.yul\":2511:2535   */\n      tag_75\n        /* \"#utility.yul\":2529:2534   */\n      dup2\n        /* \"#utility.yul\":2511:2535   */\n      tag_72\n      jump\t// in\n    tag_75:\n        /* \"#utility.yul\":2504:2509   */\n      dup2\n        /* \"#utility.yul\":2501:2536   */\n      eq\n        /* \"#utility.yul\":2491:2493   */\n      tag_76\n      jumpi\n        /* \"#utility.yul\":2550:2551   */\n      0x00\n        /* \"#utility.yul\":2547:2548   */\n      dup1\n        /* \"#utility.yul\":2540:2552   */\n      revert\n        /* \"#utility.yul\":2491:2493   */\n    tag_76:\n        /* \"#utility.yul\":2481:2560   */\n      pop\n      jump\t// out\n\n    auxdata: 0xa2646970667358221220639c19f24fb58cc31f8700e9061392757559f28172c6b277302278795af7057764736f6c63430008000033\n}\n",
				"bytecode": {
					"linkReferences": {},
					"object": "60806040527f61000000000000000000000000000000000000000000000000000000000000006000806101000a81548160ff021916908360f81c02179055507f6162000000000000000000000000000000000000000000000000000000000000600060016101000a81548161ffff021916908360f01c02179055507f6162630000000000000000000000000000000000000000000000000000000000600060036101000a81548162ffffff021916908360e81c021790555060006001553480156100c857600080fd5b5061039f806100d86000396000f3fe608060405234801561001057600080fd5b50600436106100625760003560e01c806336fe1f25146100675780634aaa831d14610085578063562b0be7146100a3578063562f5764146100c1578063993a04b7146100f1578063b95df4031461010f575b600080fd5b61006f61012d565b60405161007c919061024e565b60405180910390f35b61008d61013e565b60405161009a9190610269565b60405180910390f35b6100ab610151565b6040516100b89190610284565b60405180910390f35b6100db60048036038101906100d691906101e9565b610157565b6040516100e8919061024e565b60405180910390f35b6100f96101ab565b604051610106919061024e565b60405180910390f35b6101176101c1565b604051610124919061029f565b60405180910390f35b60008054906101000a900460f81b81565b600060019054906101000a900460f01b81565b60015481565b60008060039054906101000a900460e81b82600381106101a0577f4e487b7100000000000000000000000000000000000000000000000000000000600052603260045260246000fd5b1a60f81b9050919050565b60008060009054906101000a900460f81b905090565b600060039054906101000a900460e81b81565b6000813590506101e381610352565b92915050565b6000602082840312156101fb57600080fd5b6000610209848285016101d4565b91505092915050565b61021b816102ba565b82525050565b61022a816102e6565b82525050565b6102398161033e565b82525050565b61024881610312565b82525050565b60006020820190506102636000830184610212565b92915050565b600060208201905061027e6000830184610221565b92915050565b60006020820190506102996000830184610230565b92915050565b60006020820190506102b4600083018461023f565b92915050565b60007fff0000000000000000000000000000000000000000000000000000000000000082169050919050565b60007fffff00000000000000000000000000000000000000000000000000000000000082169050919050565b60007fffffff000000000000000000000000000000000000000000000000000000000082169050919050565b6000819050919050565b6000819050919050565b61035b81610348565b811461036657600080fd5b5056fea2646970667358221220639c19f24fb58cc31f8700e9061392757559f28172c6b277302278795af7057764736f6c63430008000033",
					"opcodes": "PUSH1 0x80 PUSH1 0x40 MSTORE PUSH32 0x6100000000000000000000000000000000000000000000000000000000000000 PUSH1 0x0 DUP1 PUSH2 0x100 EXP DUP2 SLOAD DUP2 PUSH1 0xFF MUL NOT AND SWAP1 DUP4 PUSH1 0xF8 SHR MUL OR SWAP1 SSTORE POP PUSH32 0x6162000000000000000000000000000000000000000000000000000000000000 PUSH1 0x0 PUSH1 0x1 PUSH2 0x100 EXP DUP2 SLOAD DUP2 PUSH2 0xFFFF MUL NOT AND SWAP1 DUP4 PUSH1 0xF0 SHR MUL OR SWAP1 SSTORE POP PUSH32 0x6162630000000000000000000000000000000000000000000000000000000000 PUSH1 0x0 PUSH1 0x3 PUSH2 0x100 EXP DUP2 SLOAD DUP2 PUSH3 0xFFFFFF MUL NOT AND SWAP1 DUP4 PUSH1 0xE8 SHR MUL OR SWAP1 SSTORE POP PUSH1 0x0 PUSH1 0x1 SSTORE CALLVALUE DUP1 ISZERO PUSH2 0xC8 JUMPI PUSH1 0x0 DUP1 REVERT JUMPDEST POP PUSH2 0x39F DUP1 PUSH2 0xD8 PUSH1 0x0 CODECOPY PUSH1 0x0 RETURN INVALID PUSH1 0x80 PUSH1 0x40 MSTORE CALLVALUE DUP1 ISZERO PUSH2 0x10 JUMPI PUSH1 0x0 DUP1 REVERT JUMPDEST POP PUSH1 0x4 CALLDATASIZE LT PUSH2 0x62 JUMPI PUSH1 0x0 CALLDATALOAD PUSH1 0xE0 SHR DUP1 PUSH4 0x36FE1F25 EQ PUSH2 0x67 JUMPI DUP1 PUSH4 0x4AAA831D EQ PUSH2 0x85 JUMPI DUP1 PUSH4 0x562B0BE7 EQ PUSH2 0xA3 JUMPI DUP1 PUSH4 0x562F5764 EQ PUSH2 0xC1 JUMPI DUP1 PUSH4 0x993A04B7 EQ PUSH2 0xF1 JUMPI DUP1 PUSH4 0xB95DF403 EQ PUSH2 0x10F JUMPI JUMPDEST PUSH1 0x0 DUP1 REVERT JUMPDEST PUSH2 0x6F PUSH2 0x12D JUMP JUMPDEST PUSH1 0x40 MLOAD PUSH2 0x7C SWAP2 SWAP1 PUSH2 0x24E JUMP JUMPDEST PUSH1 0x40 MLOAD DUP1 SWAP2 SUB SWAP1 RETURN JUMPDEST PUSH2 0x8D PUSH2 0x13E JUMP JUMPDEST PUSH1 0x40 MLOAD PUSH2 0x9A SWAP2 SWAP1 PUSH2 0x269 JUMP JUMPDEST PUSH1 0x40 MLOAD DUP1 SWAP2 SUB SWAP1 RETURN JUMPDEST PUSH2 0xAB PUSH2 0x151 JUMP JUMPDEST PUSH1 0x40 MLOAD PUSH2 0xB8 SWAP2 SWAP1 PUSH2 0x284 JUMP JUMPDEST PUSH1 0x40 MLOAD DUP1 SWAP2 SUB SWAP1 RETURN JUMPDEST PUSH2 0xDB PUSH1 0x4 DUP1 CALLDATASIZE SUB DUP2 ADD SWAP1 PUSH2 0xD6 SWAP2 SWAP1 PUSH2 0x1E9 JUMP JUMPDEST PUSH2 0x157 JUMP JUMPDEST PUSH1 0x40 MLOAD PUSH2 0xE8 SWAP2 SWAP1 PUSH2 0x24E JUMP JUMPDEST PUSH1 0x40 MLOAD DUP1 SWAP2 SUB SWAP1 RETURN JUMPDEST PUSH2 0xF9 PUSH2 0x1AB JUMP JUMPDEST PUSH1 0x40 MLOAD PUSH2 0x106 SWAP2 SWAP1 PUSH2 0x24E JUMP JUMPDEST PUSH1 0x40 MLOAD DUP1 SWAP2 SUB SWAP1 RETURN JUMPDEST PUSH2 0x117 PUSH2 0x1C1 JUMP JUMPDEST PUSH1 0x40 MLOAD PUSH2 0x124 SWAP2 SWAP1 PUSH2 0x29F JUMP JUMPDEST PUSH1 0x40 MLOAD DUP1 SWAP2 SUB SWAP1 RETURN JUMPDEST PUSH1 0x0 DUP1 SLOAD SWAP1 PUSH2 0x100 EXP SWAP1 DIV PUSH1 0xF8 SHL DUP2 JUMP JUMPDEST PUSH1 0x0 PUSH1 0x1 SWAP1 SLOAD SWAP1 PUSH2 0x100 EXP SWAP1 DIV PUSH1 0xF0 SHL DUP2 JUMP JUMPDEST PUSH1 0x1 SLOAD DUP2 JUMP JUMPDEST PUSH1 0x0 DUP1 PUSH1 0x3 SWAP1 SLOAD SWAP1 PUSH2 0x100 EXP SWAP1 DIV PUSH1 0xE8 SHL DUP3 PUSH1 0x3 DUP2 LT PUSH2 0x1A0 JUMPI PUSH32 0x4E487B7100000000000000000000000000000000000000000000000000000000 PUSH1 0x0 MSTORE PUSH1 0x32 PUSH1 0x4 MSTORE PUSH1 0x24 PUSH1 0x0 REVERT JUMPDEST BYTE PUSH1 0xF8 SHL SWAP1 POP SWAP2 SWAP1 POP JUMP JUMPDEST PUSH1 0x0 DUP1 PUSH1 0x0 SWAP1 SLOAD SWAP1 PUSH2 0x100 EXP SWAP1 DIV PUSH1 0xF8 SHL SWAP1 POP SWAP1 JUMP JUMPDEST PUSH1 0x0 PUSH1 0x3 SWAP1 SLOAD SWAP1 PUSH2 0x100 EXP SWAP1 DIV PUSH1 0xE8 SHL DUP2 JUMP JUMPDEST PUSH1 0x0 DUP2 CALLDATALOAD SWAP1 POP PUSH2 0x1E3 DUP2 PUSH2 0x352 JUMP JUMPDEST SWAP3 SWAP2 POP POP JUMP JUMPDEST PUSH1 0x0 PUSH1 0x20 DUP3 DUP5 SUB SLT ISZERO PUSH2 0x1FB JUMPI PUSH1 0x0 DUP1 REVERT JUMPDEST PUSH1 0x0 PUSH2 0x209 DUP5 DUP3 DUP6 ADD PUSH2 0x1D4 JUMP JUMPDEST SWAP2 POP POP SWAP3 SWAP2 POP POP JUMP JUMPDEST PUSH2 0x21B DUP2 PUSH2 0x2BA JUMP JUMPDEST DUP3 MSTORE POP POP JUMP JUMPDEST PUSH2 0x22A DUP2 PUSH2 0x2E6 JUMP JUMPDEST DUP3 MSTORE POP POP JUMP JUMPDEST PUSH2 0x239 DUP2 PUSH2 0x33E JUMP JUMPDEST DUP3 MSTORE POP POP JUMP JUMPDEST PUSH2 0x248 DUP2 PUSH2 0x312 JUMP JUMPDEST DUP3 MSTORE POP POP JUMP JUMPDEST PUSH1 0x0 PUSH1 0x20 DUP3 ADD SWAP1 POP PUSH2 0x263 PUSH1 0x0 DUP4 ADD DUP5 PUSH2 0x212 JUMP JUMPDEST SWAP3 SWAP2 POP POP JUMP JUMPDEST PUSH1 0x0 PUSH1 0x20 DUP3 ADD SWAP1 POP PUSH2 0x27E PUSH1 0x0 DUP4 ADD DUP5 PUSH2 0x221 JUMP JUMPDEST SWAP3 SWAP2 POP POP JUMP JUMPDEST PUSH1 0x0 PUSH1 0x20 DUP3 ADD SWAP1 POP PUSH2 0x299 PUSH1 0x0 DUP4 ADD DUP5 PUSH2 0x230 JUMP JUMPDEST SWAP3 SWAP2 POP POP JUMP JUMPDEST PUSH1 0x0 PUSH1 0x20 DUP3 ADD SWAP1 POP PUSH2 0x2B4 PUSH1 0x0 DUP4 ADD DUP5 PUSH2 0x23F JUMP JUMPDEST SWAP3 SWAP2 POP POP JUMP JUMPDEST PUSH1 0x0 PUSH32 0xFF00000000000000000000000000000000000000000000000000000000000000 DUP3 AND SWAP1 POP SWAP2 SWAP1 POP JUMP JUMPDEST PUSH1 0x0 PUSH32 0xFFFF000000000000000000000000000000000000000000000000000000000000 DUP3 AND SWAP1 POP SWAP2 SWAP1 POP JUMP JUMPDEST PUSH1 0x0 PUSH32 0xFFFFFF0000000000000000000000000000000000000000000000000000000000 DUP3 AND SWAP1 POP SWAP2 SWAP1 POP JUMP JUMPDEST PUSH1 0x0 DUP2 SWAP1 POP SWAP2 SWAP1 POP JUMP JUMPDEST PUSH1 0x0 DUP2 SWAP1 POP SWAP2 SWAP1 POP JUMP JUMPDEST PUSH2 0x35B DUP2 PUSH2 0x348 JUMP JUMPDEST DUP2 EQ PUSH2 0x366 JUMPI PUSH1 0x0 DUP1 REVERT JUMPDEST POP JUMP INVALID LOG2 PUSH5 0x6970667358 0x22 SLT KECCAK256 PUSH4 0x9C19F24F 0xB5 DUP13 0xC3 0x1F DUP8 STOP 0xE9 MOD SGT SWAP3 PUSH22 0x7559F28172C6B277302278795AF7057764736F6C6343 STOP ADDMOD STOP STOP CALLER "
				},
				"gasEstimates": {
					"creation": {
						"codeDepositCost": "185400",
						"executionCost": "67933",
						"totalCost": "253333"
					},
					"external": {
						"getter()": "1245",
						"getterIndex(uint256)": "1573",
						"n1()": "1146",
						"n2()": "1221",
						"n3()": "1309",
						"n4()": "1151"
					}
				},
				"methodIdentifiers": {
					"getter()": "993a04b7",
					"getterIndex(uint256)": "562f5764",
					"n1()": "36fe1f25",
					"n2()": "4aaa831d",
					"n3()": "b95df403",
					"n4()": "562b0be7"
				}
			},
			"storageLayout": {
				"storage": [
					{
						"astId": 4,
						"contract": "contracts/BytesN_8.sol:BytesDataType",
						"label": "n1",
						"offset": 0,
						"slot": "0",
						"type": "t_bytes1"
					},
					{
						"astId": 7,
						"contract": "contracts/BytesN_8.sol:BytesDataType",
						"label": "n2",
						"offset": 1,
						"slot": "0",
						"type": "t_bytes2"
					},
					{
						"astId": 10,
						"contract": "contracts/BytesN_8.sol:BytesDataType",
						"label": "n3",
						"offset": 3,
						"slot": "0",
						"type": "t_bytes3"
					},
					{
						"astId": 13,
						"contract": "contracts/BytesN_8.sol:BytesDataType",
						"label": "n4",
						"offset": 0,
						"slot": "1",
						"type": "t_bytes32"
					}
				],
				"types": {
					"t_bytes1": {
						"encoding": "inplace",
						"label": "bytes1",
						"numberOfBytes": "1"
					},
					"t_bytes2": {
						"encoding": "inplace",
						"label": "bytes2",
						"numberOfBytes": "2"
					},
					"t_bytes3": {
						"encoding": "inplace",
						"label": "bytes3",
						"numberOfBytes": "3"
					},
					"t_bytes32": {
						"encoding": "inplace",
						"label": "bytes32",
						"numberOfBytes": "32"
					}
				}
			},
			"userdoc": {
				"kind": "user",
				"methods": {},
				"version": 1
			}
		}
	}
}