{
	"contracts/modifier.sol": {
		"Modifier": {
			"abi": [
				{
					"inputs": [
						{
							"internalType": "bool",
							"name": "value",
							"type": "bool"
						}
					],
					"name": "check1",
					"outputs": [],
					"stateMutability": "nonpayable",
					"type": "function"
				},
				{
					"inputs": [
						{
							"internalType": "bool",
							"name": "value",
							"type": "bool"
						}
					],
					"name": "check2",
					"outputs": [],
					"stateMutability": "nonpayable",
					"type": "function"
				},
				{
					"inputs": [
						{
							"internalType": "bool",
							"name": "value",
							"type": "bool"
						}
					],
					"name": "check3",
					"outputs": [],
					"stateMutability": "nonpayable",
					"type": "function"
				},
				{
					"inputs": [],
					"name": "num",
					"outputs": [
						{
							"internalType": "uint256",
							"name": "",
							"type": "uint256"
						}
					],
					"stateMutability": "view",
					"type": "function"
				}
			],
			"devdoc": {
				"kind": "dev",
				"methods": {},
				"version": 1
			},
			"evm": {
				"assembly": "    /* \"contracts/modifier.sol\":67:485  contract Modifier{\r... */\n  mstore(0x40, 0x80)\n    /* \"contracts/modifier.sol\":107:109  10 */\n  0x0a\n    /* \"contracts/modifier.sol\":91:109  uint public num=10 */\n  0x00\n  sstore\n    /* \"contracts/modifier.sol\":67:485  contract Modifier{\r... */\n  callvalue\n  dup1\n  iszero\n  tag_1\n  jumpi\n  0x00\n  dup1\n  revert\ntag_1:\n  pop\n  dataSize(sub_0)\n  dup1\n  dataOffset(sub_0)\n  0x00\n  codecopy\n  0x00\n  return\nstop\n\nsub_0: assembly {\n        /* \"contracts/modifier.sol\":67:485  contract Modifier{\r... */\n      mstore(0x40, 0x80)\n      callvalue\n      dup1\n      iszero\n      tag_1\n      jumpi\n      0x00\n      dup1\n      revert\n    tag_1:\n      pop\n      jumpi(tag_2, lt(calldatasize, 0x04))\n      shr(0xe0, calldataload(0x00))\n      dup1\n      0x1c13632d\n      eq\n      tag_3\n      jumpi\n      dup1\n      0x281dd794\n      eq\n      tag_4\n      jumpi\n      dup1\n      0x4e70b1dc\n      eq\n      tag_5\n      jumpi\n      dup1\n      0x620f25ce\n      eq\n      tag_6\n      jumpi\n    tag_2:\n      0x00\n      dup1\n      revert\n        /* \"contracts/modifier.sol\":405:482  function check3(bool value) public onlyValid(value){\r... */\n    tag_3:\n      tag_7\n      0x04\n      dup1\n      calldatasize\n      sub\n      dup2\n      add\n      swap1\n      tag_8\n      swap2\n      swap1\n      tag_9\n      jump\t// in\n    tag_8:\n      tag_10\n      jump\t// in\n    tag_7:\n      stop\n        /* \"contracts/modifier.sol\":235:312  function check1(bool value) public onlyValid(value){\r... */\n    tag_4:\n      tag_11\n      0x04\n      dup1\n      calldatasize\n      sub\n      dup2\n      add\n      swap1\n      tag_12\n      swap2\n      swap1\n      tag_9\n      jump\t// in\n    tag_12:\n      tag_13\n      jump\t// in\n    tag_11:\n      stop\n        /* \"contracts/modifier.sol\":91:109  uint public num=10 */\n    tag_5:\n      tag_14\n      tag_15\n      jump\t// in\n    tag_14:\n      mload(0x40)\n      tag_16\n      swap2\n      swap1\n      tag_17\n      jump\t// in\n    tag_16:\n      mload(0x40)\n      dup1\n      swap2\n      sub\n      swap1\n      return\n        /* \"contracts/modifier.sol\":320:397  function check2(bool value) public onlyValid(value){\r... */\n    tag_6:\n      tag_18\n      0x04\n      dup1\n      calldatasize\n      sub\n      dup2\n      add\n      swap1\n      tag_19\n      swap2\n      swap1\n      tag_9\n      jump\t// in\n    tag_19:\n      tag_20\n      jump\t// in\n    tag_18:\n      stop\n        /* \"contracts/modifier.sol\":405:482  function check3(bool value) public onlyValid(value){\r... */\n    tag_10:\n        /* \"contracts/modifier.sol\":450:455  value */\n      dup1\n        /* \"contracts/modifier.sol\":173:178  value */\n      dup1\n        /* \"contracts/modifier.sol\":167:178  true==value */\n      iszero\n      iszero\n        /* \"contracts/modifier.sol\":167:171  true */\n      0x01\n        /* \"contracts/modifier.sol\":167:178  true==value */\n      iszero\n      iszero\n      eq\n        /* \"contracts/modifier.sol\":159:191  require(true==value,\"Not valid\") */\n      tag_22\n      jumpi\n      mload(0x40)\n      0x08c379a000000000000000000000000000000000000000000000000000000000\n      dup2\n      mstore\n      0x04\n      add\n      tag_23\n      swap1\n      tag_24\n      jump\t// in\n    tag_23:\n      mload(0x40)\n      dup1\n      swap2\n      sub\n      swap1\n      revert\n    tag_22:\n        /* \"contracts/modifier.sol\":206:207  1 */\n      0x01\n        /* \"contracts/modifier.sol\":202:205  num */\n      0x00\n        /* \"contracts/modifier.sol\":202:207  num=1 */\n      dup2\n      swap1\n      sstore\n      pop\n        /* \"contracts/modifier.sol\":471:474  300 */\n      0x012c\n        /* \"contracts/modifier.sol\":467:470  num */\n      0x00\n        /* \"contracts/modifier.sol\":467:474  num=300 */\n      dup2\n      swap1\n      sstore\n      pop\n        /* \"contracts/modifier.sol\":405:482  function check3(bool value) public onlyValid(value){\r... */\n      pop\n      pop\n      jump\t// out\n        /* \"contracts/modifier.sol\":235:312  function check1(bool value) public onlyValid(value){\r... */\n    tag_13:\n        /* \"contracts/modifier.sol\":280:285  value */\n      dup1\n        /* \"contracts/modifier.sol\":173:178  value */\n      dup1\n        /* \"contracts/modifier.sol\":167:178  true==value */\n      iszero\n      iszero\n        /* \"contracts/modifier.sol\":167:171  true */\n      0x01\n        /* \"contracts/modifier.sol\":167:178  true==value */\n      iszero\n      iszero\n      eq\n        /* \"contracts/modifier.sol\":159:191  require(true==value,\"Not valid\") */\n      tag_27\n      jumpi\n      mload(0x40)\n      0x08c379a000000000000000000000000000000000000000000000000000000000\n      dup2\n      mstore\n      0x04\n      add\n      tag_28\n      swap1\n      tag_24\n      jump\t// in\n    tag_28:\n      mload(0x40)\n      dup1\n      swap2\n      sub\n      swap1\n      revert\n    tag_27:\n        /* \"contracts/modifier.sol\":206:207  1 */\n      0x01\n        /* \"contracts/modifier.sol\":202:205  num */\n      0x00\n        /* \"contracts/modifier.sol\":202:207  num=1 */\n      dup2\n      swap1\n      sstore\n      pop\n        /* \"contracts/modifier.sol\":301:304  100 */\n      0x64\n        /* \"contracts/modifier.sol\":297:300  num */\n      0x00\n        /* \"contracts/modifier.sol\":297:304  num=100 */\n      dup2\n      swap1\n      sstore\n      pop\n        /* \"contracts/modifier.sol\":235:312  function check1(bool value) public onlyValid(value){\r... */\n      pop\n      pop\n      jump\t// out\n        /* \"contracts/modifier.sol\":91:109  uint public num=10 */\n    tag_15:\n      sload(0x00)\n      dup2\n      jump\t// out\n        /* \"contracts/modifier.sol\":320:397  function check2(bool value) public onlyValid(value){\r... */\n    tag_20:\n        /* \"contracts/modifier.sol\":365:370  value */\n      dup1\n        /* \"contracts/modifier.sol\":173:178  value */\n      dup1\n        /* \"contracts/modifier.sol\":167:178  true==value */\n      iszero\n      iszero\n        /* \"contracts/modifier.sol\":167:171  true */\n      0x01\n        /* \"contracts/modifier.sol\":167:178  true==value */\n      iszero\n      iszero\n      eq\n        /* \"contracts/modifier.sol\":159:191  require(true==value,\"Not valid\") */\n      tag_31\n      jumpi\n      mload(0x40)\n      0x08c379a000000000000000000000000000000000000000000000000000000000\n      dup2\n      mstore\n      0x04\n      add\n      tag_32\n      swap1\n      tag_24\n      jump\t// in\n    tag_32:\n      mload(0x40)\n      dup1\n      swap2\n      sub\n      swap1\n      revert\n    tag_31:\n        /* \"contracts/modifier.sol\":206:207  1 */\n      0x01\n        /* \"contracts/modifier.sol\":202:205  num */\n      0x00\n        /* \"contracts/modifier.sol\":202:207  num=1 */\n      dup2\n      swap1\n      sstore\n      pop\n        /* \"contracts/modifier.sol\":386:389  200 */\n      0xc8\n        /* \"contracts/modifier.sol\":382:385  num */\n      0x00\n        /* \"contracts/modifier.sol\":382:389  num=200 */\n      dup2\n      swap1\n      sstore\n      pop\n        /* \"contracts/modifier.sol\":320:397  function check2(bool value) public onlyValid(value){\r... */\n      pop\n      pop\n      jump\t// out\n        /* \"#utility.yul\":7:140   */\n    tag_35:\n      0x00\n        /* \"#utility.yul\":88:94   */\n      dup2\n        /* \"#utility.yul\":75:95   */\n      calldataload\n        /* \"#utility.yul\":66:95   */\n      swap1\n      pop\n        /* \"#utility.yul\":104:134   */\n      tag_37\n        /* \"#utility.yul\":128:133   */\n      dup2\n        /* \"#utility.yul\":104:134   */\n      tag_38\n      jump\t// in\n    tag_37:\n        /* \"#utility.yul\":56:140   */\n      swap3\n      swap2\n      pop\n      pop\n      jump\t// out\n        /* \"#utility.yul\":146:402   */\n    tag_9:\n      0x00\n        /* \"#utility.yul\":251:253   */\n      0x20\n        /* \"#utility.yul\":239:248   */\n      dup3\n        /* \"#utility.yul\":230:237   */\n      dup5\n        /* \"#utility.yul\":226:249   */\n      sub\n        /* \"#utility.yul\":222:254   */\n      slt\n        /* \"#utility.yul\":219:221   */\n      iszero\n      tag_40\n      jumpi\n        /* \"#utility.yul\":267:268   */\n      0x00\n        /* \"#utility.yul\":264:265   */\n      dup1\n        /* \"#utility.yul\":257:269   */\n      revert\n        /* \"#utility.yul\":219:221   */\n    tag_40:\n        /* \"#utility.yul\":310:311   */\n      0x00\n        /* \"#utility.yul\":335:385   */\n      tag_41\n        /* \"#utility.yul\":377:384   */\n      dup5\n        /* \"#utility.yul\":368:374   */\n      dup3\n        /* \"#utility.yul\":357:366   */\n      dup6\n        /* \"#utility.yul\":353:375   */\n      add\n        /* \"#utility.yul\":335:385   */\n      tag_35\n      jump\t// in\n    tag_41:\n        /* \"#utility.yul\":325:385   */\n      swap2\n      pop\n        /* \"#utility.yul\":281:395   */\n      pop\n        /* \"#utility.yul\":209:402   */\n      swap3\n      swap2\n      pop\n      pop\n      jump\t// out\n        /* \"#utility.yul\":408:714   */\n    tag_42:\n      0x00\n        /* \"#utility.yul\":571:637   */\n      tag_44\n        /* \"#utility.yul\":635:636   */\n      0x09\n        /* \"#utility.yul\":630:633   */\n      dup4\n        /* \"#utility.yul\":571:637   */\n      tag_45\n      jump\t// in\n    tag_44:\n        /* \"#utility.yul\":564:637   */\n      swap2\n      pop\n        /* \"#utility.yul\":667:678   */\n      0x4e6f742076616c69640000000000000000000000000000000000000000000000\n        /* \"#utility.yul\":663:664   */\n      0x00\n        /* \"#utility.yul\":658:661   */\n      dup4\n        /* \"#utility.yul\":654:665   */\n      add\n        /* \"#utility.yul\":647:679   */\n      mstore\n        /* \"#utility.yul\":705:707   */\n      0x20\n        /* \"#utility.yul\":700:703   */\n      dup3\n        /* \"#utility.yul\":696:708   */\n      add\n        /* \"#utility.yul\":689:708   */\n      swap1\n      pop\n        /* \"#utility.yul\":554:714   */\n      swap2\n      swap1\n      pop\n      jump\t// out\n        /* \"#utility.yul\":720:838   */\n    tag_46:\n        /* \"#utility.yul\":807:831   */\n      tag_48\n        /* \"#utility.yul\":825:830   */\n      dup2\n        /* \"#utility.yul\":807:831   */\n      tag_49\n      jump\t// in\n    tag_48:\n        /* \"#utility.yul\":802:805   */\n      dup3\n        /* \"#utility.yul\":795:832   */\n      mstore\n        /* \"#utility.yul\":785:838   */\n      pop\n      pop\n      jump\t// out\n        /* \"#utility.yul\":844:1263   */\n    tag_24:\n      0x00\n        /* \"#utility.yul\":1048:1050   */\n      0x20\n        /* \"#utility.yul\":1037:1046   */\n      dup3\n        /* \"#utility.yul\":1033:1051   */\n      add\n        /* \"#utility.yul\":1025:1051   */\n      swap1\n      pop\n        /* \"#utility.yul\":1097:1106   */\n      dup2\n        /* \"#utility.yul\":1091:1095   */\n      dup2\n        /* \"#utility.yul\":1087:1107   */\n      sub\n        /* \"#utility.yul\":1083:1084   */\n      0x00\n        /* \"#utility.yul\":1072:1081   */\n      dup4\n        /* \"#utility.yul\":1068:1085   */\n      add\n        /* \"#utility.yul\":1061:1108   */\n      mstore\n        /* \"#utility.yul\":1125:1256   */\n      tag_51\n        /* \"#utility.yul\":1251:1255   */\n      dup2\n        /* \"#utility.yul\":1125:1256   */\n      tag_42\n      jump\t// in\n    tag_51:\n        /* \"#utility.yul\":1117:1256   */\n      swap1\n      pop\n        /* \"#utility.yul\":1015:1263   */\n      swap2\n      swap1\n      pop\n      jump\t// out\n        /* \"#utility.yul\":1269:1491   */\n    tag_17:\n      0x00\n        /* \"#utility.yul\":1400:1402   */\n      0x20\n        /* \"#utility.yul\":1389:1398   */\n      dup3\n        /* \"#utility.yul\":1385:1403   */\n      add\n        /* \"#utility.yul\":1377:1403   */\n      swap1\n      pop\n        /* \"#utility.yul\":1413:1484   */\n      tag_53\n        /* \"#utility.yul\":1481:1482   */\n      0x00\n        /* \"#utility.yul\":1470:1479   */\n      dup4\n        /* \"#utility.yul\":1466:1483   */\n      add\n        /* \"#utility.yul\":1457:1463   */\n      dup5\n        /* \"#utility.yul\":1413:1484   */\n      tag_46\n      jump\t// in\n    tag_53:\n        /* \"#utility.yul\":1367:1491   */\n      swap3\n      swap2\n      pop\n      pop\n      jump\t// out\n        /* \"#utility.yul\":1497:1666   */\n    tag_45:\n      0x00\n        /* \"#utility.yul\":1615:1621   */\n      dup3\n        /* \"#utility.yul\":1610:1613   */\n      dup3\n        /* \"#utility.yul\":1603:1622   */\n      mstore\n        /* \"#utility.yul\":1655:1659   */\n      0x20\n        /* \"#utility.yul\":1650:1653   */\n      dup3\n        /* \"#utility.yul\":1646:1660   */\n      add\n        /* \"#utility.yul\":1631:1660   */\n      swap1\n      pop\n        /* \"#utility.yul\":1593:1666   */\n      swap3\n      swap2\n      pop\n      pop\n      jump\t// out\n        /* \"#utility.yul\":1672:1762   */\n    tag_55:\n      0x00\n        /* \"#utility.yul\":1749:1754   */\n      dup2\n        /* \"#utility.yul\":1742:1755   */\n      iszero\n        /* \"#utility.yul\":1735:1756   */\n      iszero\n        /* \"#utility.yul\":1724:1756   */\n      swap1\n      pop\n        /* \"#utility.yul\":1714:1762   */\n      swap2\n      swap1\n      pop\n      jump\t// out\n        /* \"#utility.yul\":1768:1845   */\n    tag_49:\n      0x00\n        /* \"#utility.yul\":1834:1839   */\n      dup2\n        /* \"#utility.yul\":1823:1839   */\n      swap1\n      pop\n        /* \"#utility.yul\":1813:1845   */\n      swap2\n      swap1\n      pop\n      jump\t// out\n        /* \"#utility.yul\":1851:1967   */\n    tag_38:\n        /* \"#utility.yul\":1921:1942   */\n      tag_59\n        /* \"#utility.yul\":1936:1941   */\n      dup2\n        /* \"#utility.yul\":1921:1942   */\n      tag_55\n      jump\t// in\n    tag_59:\n        /* \"#utility.yul\":1914:1919   */\n      dup2\n        /* \"#utility.yul\":1911:1943   */\n      eq\n        /* \"#utility.yul\":1901:1903   */\n      tag_60\n      jumpi\n        /* \"#utility.yul\":1957:1958   */\n      0x00\n        /* \"#utility.yul\":1954:1955   */\n      dup1\n        /* \"#utility.yul\":1947:1959   */\n      revert\n        /* \"#utility.yul\":1901:1903   */\n    tag_60:\n        /* \"#utility.yul\":1891:1967   */\n      pop\n      jump\t// out\n\n    auxdata: 0xa2646970667358221220470595a25fb8fdfdec4215c0cb7f5209db6dcf7164003a3f07e33be36aa384d664736f6c63430008000033\n}\n",
				"bytecode": {
					"linkReferences": {},
					"object": "6080604052600a60005534801561001557600080fd5b5061031a806100256000396000f3fe608060405234801561001057600080fd5b506004361061004c5760003560e01c80631c13632d14610051578063281dd7941461006d5780634e70b1dc14610089578063620f25ce146100a7575b600080fd5b61006b600480360381019061006691906101f3565b6100c3565b005b610087600480360381019061008291906101f3565b610120565b005b61009161017c565b60405161009e919061028b565b60405180910390f35b6100c160048036038101906100bc91906101f3565b610182565b005b80801515600115151461010b576040517f08c379a00000000000000000000000000000000000000000000000000000000081526004016101029061026b565b60405180910390fd5b600160008190555061012c6000819055505050565b808015156001151514610168576040517f08c379a000000000000000000000000000000000000000000000000000000000815260040161015f9061026b565b60405180910390fd5b600160008190555060646000819055505050565b60005481565b8080151560011515146101ca576040517f08c379a00000000000000000000000000000000000000000000000000000000081526004016101c19061026b565b60405180910390fd5b600160008190555060c86000819055505050565b6000813590506101ed816102cd565b92915050565b60006020828403121561020557600080fd5b6000610213848285016101de565b91505092915050565b60006102296009836102a6565b91507f4e6f742076616c696400000000000000000000000000000000000000000000006000830152602082019050919050565b610265816102c3565b82525050565b600060208201905081810360008301526102848161021c565b9050919050565b60006020820190506102a0600083018461025c565b92915050565b600082825260208201905092915050565b60008115159050919050565b6000819050919050565b6102d6816102b7565b81146102e157600080fd5b5056fea2646970667358221220470595a25fb8fdfdec4215c0cb7f5209db6dcf7164003a3f07e33be36aa384d664736f6c63430008000033",
					"opcodes": "PUSH1 0x80 PUSH1 0x40 MSTORE PUSH1 0xA PUSH1 0x0 SSTORE CALLVALUE DUP1 ISZERO PUSH2 0x15 JUMPI PUSH1 0x0 DUP1 REVERT JUMPDEST POP PUSH2 0x31A DUP1 PUSH2 0x25 PUSH1 0x0 CODECOPY PUSH1 0x0 RETURN INVALID PUSH1 0x80 PUSH1 0x40 MSTORE CALLVALUE DUP1 ISZERO PUSH2 0x10 JUMPI PUSH1 0x0 DUP1 REVERT JUMPDEST POP PUSH1 0x4 CALLDATASIZE LT PUSH2 0x4C JUMPI PUSH1 0x0 CALLDATALOAD PUSH1 0xE0 SHR DUP1 PUSH4 0x1C13632D EQ PUSH2 0x51 JUMPI DUP1 PUSH4 0x281DD794 EQ PUSH2 0x6D JUMPI DUP1 PUSH4 0x4E70B1DC EQ PUSH2 0x89 JUMPI DUP1 PUSH4 0x620F25CE EQ PUSH2 0xA7 JUMPI JUMPDEST PUSH1 0x0 DUP1 REVERT JUMPDEST PUSH2 0x6B PUSH1 0x4 DUP1 CALLDATASIZE SUB DUP2 ADD SWAP1 PUSH2 0x66 SWAP2 SWAP1 PUSH2 0x1F3 JUMP JUMPDEST PUSH2 0xC3 JUMP JUMPDEST STOP JUMPDEST PUSH2 0x87 PUSH1 0x4 DUP1 CALLDATASIZE SUB DUP2 ADD SWAP1 PUSH2 0x82 SWAP2 SWAP1 PUSH2 0x1F3 JUMP JUMPDEST PUSH2 0x120 JUMP JUMPDEST STOP JUMPDEST PUSH2 0x91 PUSH2 0x17C JUMP JUMPDEST PUSH1 0x40 MLOAD PUSH2 0x9E SWAP2 SWAP1 PUSH2 0x28B JUMP JUMPDEST PUSH1 0x40 MLOAD DUP1 SWAP2 SUB SWAP1 RETURN JUMPDEST PUSH2 0xC1 PUSH1 0x4 DUP1 CALLDATASIZE SUB DUP2 ADD SWAP1 PUSH2 0xBC SWAP2 SWAP1 PUSH2 0x1F3 JUMP JUMPDEST PUSH2 0x182 JUMP JUMPDEST STOP JUMPDEST DUP1 DUP1 ISZERO ISZERO PUSH1 0x1 ISZERO ISZERO EQ PUSH2 0x10B JUMPI PUSH1 0x40 MLOAD PUSH32 0x8C379A000000000000000000000000000000000000000000000000000000000 DUP2 MSTORE PUSH1 0x4 ADD PUSH2 0x102 SWAP1 PUSH2 0x26B JUMP JUMPDEST PUSH1 0x40 MLOAD DUP1 SWAP2 SUB SWAP1 REVERT JUMPDEST PUSH1 0x1 PUSH1 0x0 DUP2 SWAP1 SSTORE POP PUSH2 0x12C PUSH1 0x0 DUP2 SWAP1 SSTORE POP POP POP JUMP JUMPDEST DUP1 DUP1 ISZERO ISZERO PUSH1 0x1 ISZERO ISZERO EQ PUSH2 0x168 JUMPI PUSH1 0x40 MLOAD PUSH32 0x8C379A000000000000000000000000000000000000000000000000000000000 DUP2 MSTORE PUSH1 0x4 ADD PUSH2 0x15F SWAP1 PUSH2 0x26B JUMP JUMPDEST PUSH1 0x40 MLOAD DUP1 SWAP2 SUB SWAP1 REVERT JUMPDEST PUSH1 0x1 PUSH1 0x0 DUP2 SWAP1 SSTORE POP PUSH1 0x64 PUSH1 0x0 DUP2 SWAP1 SSTORE POP POP POP JUMP JUMPDEST PUSH1 0x0 SLOAD DUP2 JUMP JUMPDEST DUP1 DUP1 ISZERO ISZERO PUSH1 0x1 ISZERO ISZERO EQ PUSH2 0x1CA JUMPI PUSH1 0x40 MLOAD PUSH32 0x8C379A000000000000000000000000000000000000000000000000000000000 DUP2 MSTORE PUSH1 0x4 ADD PUSH2 0x1C1 SWAP1 PUSH2 0x26B JUMP JUMPDEST PUSH1 0x40 MLOAD DUP1 SWAP2 SUB SWAP1 REVERT JUMPDEST PUSH1 0x1 PUSH1 0x0 DUP2 SWAP1 SSTORE POP PUSH1 0xC8 PUSH1 0x0 DUP2 SWAP1 SSTORE POP POP POP JUMP JUMPDEST PUSH1 0x0 DUP2 CALLDATALOAD SWAP1 POP PUSH2 0x1ED DUP2 PUSH2 0x2CD JUMP JUMPDEST SWAP3 SWAP2 POP POP JUMP JUMPDEST PUSH1 0x0 PUSH1 0x20 DUP3 DUP5 SUB SLT ISZERO PUSH2 0x205 JUMPI PUSH1 0x0 DUP1 REVERT JUMPDEST PUSH1 0x0 PUSH2 0x213 DUP5 DUP3 DUP6 ADD PUSH2 0x1DE JUMP JUMPDEST SWAP2 POP POP SWAP3 SWAP2 POP POP JUMP JUMPDEST PUSH1 0x0 PUSH2 0x229 PUSH1 0x9 DUP4 PUSH2 0x2A6 JUMP JUMPDEST SWAP2 POP PUSH32 0x4E6F742076616C69640000000000000000000000000000000000000000000000 PUSH1 0x0 DUP4 ADD MSTORE PUSH1 0x20 DUP3 ADD SWAP1 POP SWAP2 SWAP1 POP JUMP JUMPDEST PUSH2 0x265 DUP2 PUSH2 0x2C3 JUMP JUMPDEST DUP3 MSTORE POP POP JUMP JUMPDEST PUSH1 0x0 PUSH1 0x20 DUP3 ADD SWAP1 POP DUP2 DUP2 SUB PUSH1 0x0 DUP4 ADD MSTORE PUSH2 0x284 DUP2 PUSH2 0x21C JUMP JUMPDEST SWAP1 POP SWAP2 SWAP1 POP JUMP JUMPDEST PUSH1 0x0 PUSH1 0x20 DUP3 ADD SWAP1 POP PUSH2 0x2A0 PUSH1 0x0 DUP4 ADD DUP5 PUSH2 0x25C JUMP JUMPDEST SWAP3 SWAP2 POP POP JUMP JUMPDEST PUSH1 0x0 DUP3 DUP3 MSTORE PUSH1 0x20 DUP3 ADD SWAP1 POP SWAP3 SWAP2 POP POP JUMP JUMPDEST PUSH1 0x0 DUP2 ISZERO ISZERO SWAP1 POP SWAP2 SWAP1 POP JUMP JUMPDEST PUSH1 0x0 DUP2 SWAP1 POP SWAP2 SWAP1 POP JUMP JUMPDEST PUSH2 0x2D6 DUP2 PUSH2 0x2B7 JUMP JUMPDEST DUP2 EQ PUSH2 0x2E1 JUMPI PUSH1 0x0 DUP1 REVERT JUMPDEST POP JUMP INVALID LOG2 PUSH5 0x6970667358 0x22 SLT KECCAK256 SELFBALANCE SDIV SWAP6 LOG2 0x5F 0xB8 REVERT REVERT 0xEC TIMESTAMP ISZERO 0xC0 0xCB PUSH32 0x5209DB6DCF7164003A3F07E33BE36AA384D664736F6C63430008000033000000 "
				},
				"gasEstimates": {
					"creation": {
						"codeDepositCost": "158800",
						"executionCost": "20208",
						"totalCost": "179008"
					},
					"external": {
						"check1(bool)": "25480",
						"check2(bool)": "25524",
						"check3(bool)": "25458",
						"num()": "1151"
					}
				},
				"methodIdentifiers": {
					"check1(bool)": "281dd794",
					"check2(bool)": "620f25ce",
					"check3(bool)": "1c13632d",
					"num()": "4e70b1dc"
				}
			},
			"storageLayout": {
				"storage": [
					{
						"astId": 4,
						"contract": "contracts/modifier.sol:Modifier",
						"label": "num",
						"offset": 0,
						"slot": "0",
						"type": "t_uint256"
					}
				],
				"types": {
					"t_uint256": {
						"encoding": "inplace",
						"label": "uint256",
						"numberOfBytes": "32"
					}
				}
			},
			"userdoc": {
				"kind": "user",
				"methods": {},
				"version": 1
			}
		}
	}
}