{
	"data": {
		"bytecode": {
			"linkReferences": {},
			"object": "6080604052348015600e575f5ffd5b506103278061001c5f395ff3fe608060405234801561000f575f5ffd5b5060043610610055575f3560e01c8063362f12771461005957806371801e0d1461007757806371e5ee5f14610093578063fc563658146100c3578063fce68023146100f3575b5f5ffd5b61006161010f565b60405161006e91906101de565b60405180910390f35b610091600480360381019061008c9190610225565b610117565b005b6100ad60048036038101906100a89190610225565b610133565b6040516100ba91906101de565b60405180910390f35b6100dd60048036038101906100d89190610225565b61014b565b6040516100ea91906101de565b60405180910390f35b61010d60048036038101906101089190610225565b610168565b005b5f6005905090565b805f826005811061012b5761012a610250565b5b018190555050565b5f8160058110610141575f80fd5b015f915090505481565b5f5f826005811061015f5761015e610250565b5b01549050919050565b5f5f90505b60058110801561019157505f5f826005811061018c5761018b610250565b5b015414155b156101a95780806101a1906102aa565b91505061016d565b815f82600581106101bd576101bc610250565b5b01819055505050565b5f819050919050565b6101d8816101c6565b82525050565b5f6020820190506101f15f8301846101cf565b92915050565b5f5ffd5b610204816101c6565b811461020e575f5ffd5b50565b5f8135905061021f816101fb565b92915050565b5f6020828403121561023a576102396101f7565b5b5f61024784828501610211565b91505092915050565b7f4e487b71000000000000000000000000000000000000000000000000000000005f52603260045260245ffd5b7f4e487b71000000000000000000000000000000000000000000000000000000005f52601160045260245ffd5b5f6102b4826101c6565b91507fffffffffffffffffffffffffffffffffffffffffffffffffffffffffffffffff82036102e6576102e561027d565b5b60018201905091905056fea2646970667358221220c4a39c7679023e17744d4f54c9712ebbf956243baf76258671b2ef3c0bc6424764736f6c634300081d0033",
			"opcodes": "PUSH1 0x80 PUSH1 0x40 MSTORE CALLVALUE DUP1 ISZERO PUSH1 0xE JUMPI PUSH0 PUSH0 REVERT JUMPDEST POP PUSH2 0x327 DUP1 PUSH2 0x1C PUSH0 CODECOPY PUSH0 RETURN INVALID PUSH1 0x80 PUSH1 0x40 MSTORE CALLVALUE DUP1 ISZERO PUSH2 0xF JUMPI PUSH0 PUSH0 REVERT JUMPDEST POP PUSH1 0x4 CALLDATASIZE LT PUSH2 0x55 JUMPI PUSH0 CALLDATALOAD PUSH1 0xE0 SHR DUP1 PUSH4 0x362F1277 EQ PUSH2 0x59 JUMPI DUP1 PUSH4 0x71801E0D EQ PUSH2 0x77 JUMPI DUP1 PUSH4 0x71E5EE5F EQ PUSH2 0x93 JUMPI DUP1 PUSH4 0xFC563658 EQ PUSH2 0xC3 JUMPI DUP1 PUSH4 0xFCE68023 EQ PUSH2 0xF3 JUMPI JUMPDEST PUSH0 PUSH0 REVERT JUMPDEST PUSH2 0x61 PUSH2 0x10F JUMP JUMPDEST PUSH1 0x40 MLOAD PUSH2 0x6E SWAP2 SWAP1 PUSH2 0x1DE JUMP JUMPDEST PUSH1 0x40 MLOAD DUP1 SWAP2 SUB SWAP1 RETURN JUMPDEST PUSH2 0x91 PUSH1 0x4 DUP1 CALLDATASIZE SUB DUP2 ADD SWAP1 PUSH2 0x8C SWAP2 SWAP1 PUSH2 0x225 JUMP JUMPDEST PUSH2 0x117 JUMP JUMPDEST STOP JUMPDEST PUSH2 0xAD PUSH1 0x4 DUP1 CALLDATASIZE SUB DUP2 ADD SWAP1 PUSH2 0xA8 SWAP2 SWAP1 PUSH2 0x225 JUMP JUMPDEST PUSH2 0x133 JUMP JUMPDEST PUSH1 0x40 MLOAD PUSH2 0xBA SWAP2 SWAP1 PUSH2 0x1DE JUMP JUMPDEST PUSH1 0x40 MLOAD DUP1 SWAP2 SUB SWAP1 RETURN JUMPDEST PUSH2 0xDD PUSH1 0x4 DUP1 CALLDATASIZE SUB DUP2 ADD SWAP1 PUSH2 0xD8 SWAP2 SWAP1 PUSH2 0x225 JUMP JUMPDEST PUSH2 0x14B JUMP JUMPDEST PUSH1 0x40 MLOAD PUSH2 0xEA SWAP2 SWAP1 PUSH2 0x1DE JUMP JUMPDEST PUSH1 0x40 MLOAD DUP1 SWAP2 SUB SWAP1 RETURN JUMPDEST PUSH2 0x10D PUSH1 0x4 DUP1 CALLDATASIZE SUB DUP2 ADD SWAP1 PUSH2 0x108 SWAP2 SWAP1 PUSH2 0x225 JUMP JUMPDEST PUSH2 0x168 JUMP JUMPDEST STOP JUMPDEST PUSH0 PUSH1 0x5 SWAP1 POP SWAP1 JUMP JUMPDEST DUP1 PUSH0 DUP3 PUSH1 0x5 DUP2 LT PUSH2 0x12B JUMPI PUSH2 0x12A PUSH2 0x250 JUMP JUMPDEST JUMPDEST ADD DUP2 SWAP1 SSTORE POP POP JUMP JUMPDEST PUSH0 DUP2 PUSH1 0x5 DUP2 LT PUSH2 0x141 JUMPI PUSH0 DUP1 REVERT JUMPDEST ADD PUSH0 SWAP2 POP SWAP1 POP SLOAD DUP2 JUMP JUMPDEST PUSH0 PUSH0 DUP3 PUSH1 0x5 DUP2 LT PUSH2 0x15F JUMPI PUSH2 0x15E PUSH2 0x250 JUMP JUMPDEST JUMPDEST ADD SLOAD SWAP1 POP SWAP2 SWAP1 POP JUMP JUMPDEST PUSH0 PUSH0 SWAP1 POP JUMPDEST PUSH1 0x5 DUP2 LT DUP1 ISZERO PUSH2 0x191 JUMPI POP PUSH0 PUSH0 DUP3 PUSH1 0x5 DUP2 LT PUSH2 0x18C JUMPI PUSH2 0x18B PUSH2 0x250 JUMP JUMPDEST JUMPDEST ADD SLOAD EQ ISZERO JUMPDEST ISZERO PUSH2 0x1A9 JUMPI DUP1 DUP1 PUSH2 0x1A1 SWAP1 PUSH2 0x2AA JUMP JUMPDEST SWAP2 POP POP PUSH2 0x16D JUMP JUMPDEST DUP2 PUSH0 DUP3 PUSH1 0x5 DUP2 LT PUSH2 0x1BD JUMPI PUSH2 0x1BC PUSH2 0x250 JUMP JUMPDEST JUMPDEST ADD DUP2 SWAP1 SSTORE POP POP POP JUMP JUMPDEST PUSH0 DUP2 SWAP1 POP SWAP2 SWAP1 POP JUMP JUMPDEST PUSH2 0x1D8 DUP2 PUSH2 0x1C6 JUMP JUMPDEST DUP3 MSTORE POP POP JUMP JUMPDEST PUSH0 PUSH1 0x20 DUP3 ADD SWAP1 POP PUSH2 0x1F1 PUSH0 DUP4 ADD DUP5 PUSH2 0x1CF JUMP JUMPDEST SWAP3 SWAP2 POP POP JUMP JUMPDEST PUSH0 PUSH0 REVERT JUMPDEST PUSH2 0x204 DUP2 PUSH2 0x1C6 JUMP JUMPDEST DUP2 EQ PUSH2 0x20E JUMPI PUSH0 PUSH0 REVERT JUMPDEST POP JUMP JUMPDEST PUSH0 DUP2 CALLDATALOAD SWAP1 POP PUSH2 0x21F DUP2 PUSH2 0x1FB JUMP JUMPDEST SWAP3 SWAP2 POP POP JUMP JUMPDEST PUSH0 PUSH1 0x20 DUP3 DUP5 SUB SLT ISZERO PUSH2 0x23A JUMPI PUSH2 0x239 PUSH2 0x1F7 JUMP JUMPDEST JUMPDEST PUSH0 PUSH2 0x247 DUP5 DUP3 DUP6 ADD PUSH2 0x211 JUMP JUMPDEST SWAP2 POP POP SWAP3 SWAP2 POP POP JUMP JUMPDEST PUSH32 0x4E487B7100000000000000000000000000000000000000000000000000000000 PUSH0 MSTORE PUSH1 0x32 PUSH1 0x4 MSTORE PUSH1 0x24 PUSH0 REVERT JUMPDEST PUSH32 0x4E487B7100000000000000000000000000000000000000000000000000000000 PUSH0 MSTORE PUSH1 0x11 PUSH1 0x4 MSTORE PUSH1 0x24 PUSH0 REVERT JUMPDEST PUSH0 PUSH2 0x2B4 DUP3 PUSH2 0x1C6 JUMP JUMPDEST SWAP2 POP PUSH32 0xFFFFFFFFFFFFFFFFFFFFFFFFFFFFFFFFFFFFFFFFFFFFFFFFFFFFFFFFFFFFFFFF DUP3 SUB PUSH2 0x2E6 JUMPI PUSH2 0x2E5 PUSH2 0x27D JUMP JUMPDEST JUMPDEST PUSH1 0x1 DUP3 ADD SWAP1 POP SWAP2 SWAP1 POP JUMP INVALID LOG2 PUSH5 0x6970667358 0x22 SLT KECCAK256 0xC4 LOG3 SWAP13 PUSH23 0x79023E17744D4F54C9712EBBF956243BAF76258671B2EF EXTCODECOPY SIGNEXTEND 0xC6 TIMESTAMP SELFBALANCE PUSH5 0x736F6C6343 STOP ADDMOD SAR STOP CALLER "
		},
		"gasEstimates": {
			"creation": {
				"codeDepositCost": "161400",
				"executionCost": "206",
				"totalCost": "161606"
			},
			"external": {
				"addNumber(uint256)": "infinite",
				"arr(uint256)": "infinite",
				"countNumbers()": "310",
				"getNumber(uint256)": "infinite",
				"replaceNumber(uint256)": "22543"
			}
		},
		"methodIdentifiers": {
			"addNumber(uint256)": "fce68023",
			"arr(uint256)": "71e5ee5f",
			"countNumbers()": "362f1277",
			"getNumber(uint256)": "fc563658",
			"replaceNumber(uint256)": "71801e0d"
		}
	},
	"abi": [
		{
			"inputs": [
				{
					"internalType": "uint256",
					"name": "num",
					"type": "uint256"
				}
			],
			"name": "addNumber",
			"outputs": [],
			"stateMutability": "nonpayable",
			"type": "function"
		},
		{
			"inputs": [
				{
					"internalType": "uint256",
					"name": "",
					"type": "uint256"
				}
			],
			"name": "arr",
			"outputs": [
				{
					"internalType": "uint256",
					"name": "",
					"type": "uint256"
				}
			],
			"stateMutability": "view",
			"type": "function"
		},
		{
			"inputs": [],
			"name": "countNumbers",
			"outputs": [
				{
					"internalType": "uint256",
					"name": "",
					"type": "uint256"
				}
			],
			"stateMutability": "view",
			"type": "function"
		},
		{
			"inputs": [
				{
					"internalType": "uint256",
					"name": "index",
					"type": "uint256"
				}
			],
			"name": "getNumber",
			"outputs": [
				{
					"internalType": "uint256",
					"name": "",
					"type": "uint256"
				}
			],
			"stateMutability": "view",
			"type": "function"
		},
		{
			"inputs": [
				{
					"internalType": "uint256",
					"name": "index",
					"type": "uint256"
				}
			],
			"name": "replaceNumber",
			"outputs": [],
			"stateMutability": "nonpayable",
			"type": "function"
		}
	]
}