{
	"data": {
		"bytecode": {
			"linkReferences": {},
			"object": "608060405260055f553480156012575f80fd5b5060e18061001f5f395ff3fe6080604052348015600e575f80fd5b5060043610603a575f3560e01c80633b9eac4b14603e5780636ac65e751460585780638412e667146060575b5f80fd5b60446068565b604051604f91906094565b60405180910390f35b605e606d565b005b60666075565b005b5f5481565b5f600a905050565b600a5f81905550565b5f819050919050565b608e81607e565b82525050565b5f60208201905060a55f8301846087565b9291505056fea264697066735822122038d7b79fa291e7d51318e6790687fee9167e1467e102ae2cbd23bfaea6ffe8db64736f6c634300081a0033",
			"opcodes": "PUSH1 0x80 PUSH1 0x40 MSTORE PUSH1 0x5 PUSH0 SSTORE CALLVALUE DUP1 ISZERO PUSH1 0x12 JUMPI PUSH0 DUP1 REVERT JUMPDEST POP PUSH1 0xE1 DUP1 PUSH2 0x1F PUSH0 CODECOPY PUSH0 RETURN INVALID PUSH1 0x80 PUSH1 0x40 MSTORE CALLVALUE DUP1 ISZERO PUSH1 0xE JUMPI PUSH0 DUP1 REVERT JUMPDEST POP PUSH1 0x4 CALLDATASIZE LT PUSH1 0x3A JUMPI PUSH0 CALLDATALOAD PUSH1 0xE0 SHR DUP1 PUSH4 0x3B9EAC4B EQ PUSH1 0x3E JUMPI DUP1 PUSH4 0x6AC65E75 EQ PUSH1 0x58 JUMPI DUP1 PUSH4 0x8412E667 EQ PUSH1 0x60 JUMPI JUMPDEST PUSH0 DUP1 REVERT JUMPDEST PUSH1 0x44 PUSH1 0x68 JUMP JUMPDEST PUSH1 0x40 MLOAD PUSH1 0x4F SWAP2 SWAP1 PUSH1 0x94 JUMP JUMPDEST PUSH1 0x40 MLOAD DUP1 SWAP2 SUB SWAP1 RETURN JUMPDEST PUSH1 0x5E PUSH1 0x6D JUMP JUMPDEST STOP JUMPDEST PUSH1 0x66 PUSH1 0x75 JUMP JUMPDEST STOP JUMPDEST PUSH0 SLOAD DUP2 JUMP JUMPDEST PUSH0 PUSH1 0xA SWAP1 POP POP JUMP JUMPDEST PUSH1 0xA PUSH0 DUP2 SWAP1 SSTORE POP JUMP JUMPDEST PUSH0 DUP2 SWAP1 POP SWAP2 SWAP1 POP JUMP JUMPDEST PUSH1 0x8E DUP2 PUSH1 0x7E JUMP JUMPDEST DUP3 MSTORE POP POP JUMP JUMPDEST PUSH0 PUSH1 0x20 DUP3 ADD SWAP1 POP PUSH1 0xA5 PUSH0 DUP4 ADD DUP5 PUSH1 0x87 JUMP JUMPDEST SWAP3 SWAP2 POP POP JUMP INVALID LOG2 PUSH5 0x6970667358 0x22 SLT KECCAK256 CODESIZE 0xD7 0xB7 SWAP16 LOG2 SWAP2 0xE7 0xD5 SGT XOR 0xE6 PUSH26 0x687FEE9167E1467E102AE2CBD23BFAEA6FFE8DB64736F6C6343 STOP ADDMOD BYTE STOP CALLER "
		},
		"gasEstimates": {
			"creation": {
				"codeDepositCost": "45000",
				"executionCost": "22202",
				"totalCost": "67202"
			},
			"external": {
				"changeState()": "22278",
				"localVariableSetter()": "155",
				"num1()": "2402"
			}
		},
		"methodIdentifiers": {
			"changeState()": "8412e667",
			"localVariableSetter()": "6ac65e75",
			"num1()": "3b9eac4b"
		}
	},
	"abi": [
		{
			"inputs": [],
			"name": "changeState",
			"outputs": [],
			"stateMutability": "nonpayable",
			"type": "function"
		},
		{
			"inputs": [],
			"name": "localVariableSetter",
			"outputs": [],
			"stateMutability": "nonpayable",
			"type": "function"
		},
		{
			"inputs": [],
			"name": "num1",
			"outputs": [
				{
					"internalType": "uint256",
					"name": "",
					"type": "uint256"
				}
			],
			"stateMutability": "view",
			"type": "function"
		}
	]
}